:020000040800F2
:10000000C86A00109D010008C7560008ED360008B8
:10001000C5560008450700087F660008000000007C
:10002000000000000000000000000000D959000896
:100030001D1D00080000000087580008DD59000859
:10004000B7010008B7010008B7010008B7010008B0
:10005000B7010008B70100081F1D0008B70100081C
:10006000B7010008B7010008B7010008B701000890
:10007000B7010008B7010008B7010008B701000880
:10008000B7010008B7010008B7010008B701000870
:10009000B7010008B7010008B7010008B701000860
:1000A000B7010008B7010008B7010008B95A0008F5
:1000B000995B0008755C0008595D0008B7010008ED
:1000C000B7010008B7010008B7010008B701000830
:1000D000B7010008196600082566000831660008A7
:1000E000B7010008B7010008B7010008B701000810
:1000F000B7010008B7010008195F0008B701000840
:10010000B7010008B7010008395E0008B701000810
:100110006963000875630008B7010008B7010008AB
:10012000B7010008B7010008B7010008B7010008CF
:10013000B7010008B7010008B7010008B7010008BF
:10014000B7010008B7010008B7010008B7010008AF
:10015000B7010008B7010008B70100083D660008B4
:10016000B7010008B7010008B7010008B70100088F
:10017000B7010008B7010008B7010008000000003F
:10018000B7010008B7010008DFF80CD000F09CFAB6
:1001900000480047556A0008C86A001006488047B2
:1001A00006480047FEE7FEE7FEE7FEE7FEE7FEE75C
:1001B000FEE7FEE7FEE7FEE79D5A0008890100081A
:1001C0002DE9F05F0546002092469B46884606468C
:1001D000814640241BE0284641464746224600F01F
:1001E0007DF953465A46C01A914110D3114618461C
:1001F000224600F064F92D1A67EB01084F462246AB
:100200000120002100F05BF917EB00094E41201E90
:10021000A4F10104DFDC484631462A464346BDE8E6
:10022000F09FD2B201E000F8012B491EFBD27047CB
:100230000022F6E710B513460A4604461946FFF7B2
:10024000F0FF204610BD2DE9FE4F81EA030404F0C3
:10025000004421F0004100944FF0000B23F00043D4
:1002600050EA01045ED052EA03045BD0C3F30A549F
:10027000C1F30A552C44A4F2F3340194A0FB0254B8
:10028000C1F3130141F48011C3F3130343F480134A
:1002900001FB024400FB034E840A970A44EA81549E
:1002A00047EA8357A4FB076802958D0A05FB07857B
:1002B0004FEA932C04FB0C542705029D4FEA065885
:1002C00047EA1637B5EB08056EEB070C870E920E62
:1002D00047EA811742EA8312A7FB0201B6EB0B0142
:1002E00064EB00042B0D43EA0C335E1844EB1C5006
:1002F000DA465146E7FB0201C5F313044FEA0B331C
:1003000043EA14534FEA0432019C43EA0603A4F182
:100310000C040294009CCDE900B400F035F903B060
:10032000BDE8F08F00200146F9E72DE9F04D81EAA4
:10033000030404F0004B21F0004514464FF0000A7E
:1003400023F0004150EA050220D054EA01021DD0FA
:10035000C5F30A570246C5F31303C1F31300C1F3F3
:100360000A5640F4801543F48013A7EB0608101BCF
:10037000D64608F2FD3873EB050002D308F10108F8
:1003800001E092185B41B8F1000F03DA002001464A
:10039000BDE8F08D00204FF48011064684460EE043
:1003A000171B73EB050705D3121B63EB050306430D
:1003B0004CEA010C49084FEA300092185B4150EAC0
:1003C0000107EDD152EA030012D082EA040083EA69
:1003D0000501084305D0101BAB4106D201220023C2
:1003E00006E000224FF0004302E06FF001025310DC
:1003F0001AEB06004CEB085110EB0A0041EB0B0125
:10040000BDE8F04D00F0B1B80EB540F233410291B5
:100410000021CDE900110A460B4600F0B5F803B003
:1004200000BD70B5C1F30A5201F000450024C1F3CC
:10043000130140F2FF3341F480119A4201DA0020A7
:1004400070BD40F233439A42A2F2334203DC52427F
:1004500000F044F800E090402C43F1D0404270BDE1
:1004600000F0004230F000400AD0C10D01F560718B
:10047000C0F3160042EA0151C20840071143704719
:1004800000200146704701F0004330B421F00041E4
:1004900050EA010206D00A0DA2F56072C1F3130101
:1004A000002A02DC30BC00207047440F44EAC1043B
:1004B000C100E01830BC00EBC25000F01FB8202A89
:1004C00004DB203A00FA02F1002070479140C2F1AB
:1004D000200320FA03F3194390407047202A04DBDD
:1004E000203A21FA02F00021704721FA02F3D040AD
:1004F000C2F1200291400843194670470029A8BF65
:100500007047401C490008BF20F00100704710B43C
:10051000B0FA80FC00FA0CF050EA010404BF10BCF1
:10052000704749B1CCF1200421FA04F411FA0CF11E
:1005300018BF012121430843A3EB0C01CB1D4FEA57
:1005400000614FEA102042BF002010BC704700EB52
:10055000C35010440029A4BF10BC7047401C490080
:1005600008BF20F0010010BC704710B5141E73F1D5
:10057000000408DA401C41F1000192185B411A4363
:1005800001D120F0010010BD2DE9F04D92469B46AF
:1005900011B1B1FA81F202E0B0FA80F22032904655
:1005A000FFF78DFF04460F4640EA0A0041EA0B01BF
:1005B00053465A46084313D0114653EA010019D056
:1005C000C8F140025046FFF789FF05460E465046E7
:1005D00059464246FFF773FF084305D0012004E067
:1005E00020463946BDE8F08D0020054346EAE07616
:1005F0002C4337430A986305E40AA0EB0800002265
:10060000FD0A44EA47540A3002D500200146E9E7D2
:10061000010510196941DDE9084500196941BDE886
:10062000F04DA2E72DE9F04D00231A461B1A8A412E
:1006300003DB00200146BDE8F08DC1F30A52C1F38F
:10064000130141F480154FF0000BD10702D10018BF
:100650006D41521E0027044640F2FF11384601EB5F
:10066000620A3E468046024600204FF48011FFF7A2
:1006700035FFC2197141BB1846EB0100B4EB030C06
:1006800075EB000C04D3E41A65EB000517460E4623
:10069000241908F101006D4180463428E3DDF91981
:1006A00046EB0600091BA84103D24FF0FF32134668
:1006B00001E0002213461BEB070046EB0A51BDE8A0
:1006C000F04DFFF752BF0000064C074D06E0E06812
:1006D00040F0010394E8070098471034AC42F6D389
:1006E000FFF756FD4C6D00087C6D000870B58C1846
:1006F00010F8015B15F0070301D110F8013B2A1136
:1007000006D110F8012B03E010F8016B01F8016B22
:100710005B1EF9D12B0705D40023521E0DD401F81E
:10072000013BFAE710F8013BCB1A921C03E013F8E7
:10073000015B01F8015B521EF9D5A142D8D300201C
:1007400070BD7047FEE7000070B5094DFF221346EB
:1007500005F5807606E000BF10F8014B54402A5D95
:100760005A40335D491EC9B2F6D243EA022070BD39
:10077000346B00082DE9F041344A00251088002828
:1007800061D03349334B09781C88A1425BD0198072
:1007900031490B885B1C9BB20B80052B53D92F4F23
:1007A00000262F4C388090460E80FF2834D82D4AE2
:1007B0002178B2F83E2191422FD1801EC1B220464D
:1007C000FFF7C2FF3A88010A2244C0B212F8023C85
:1007D0008B421FD112F8011C81421BD1607801218C
:1007E000214A032807D0102807D001280DD0062859
:1007F0000ED0012511E01D4800E01D480170A078D1
:10080000E17801EB0020108007E01A48017004E055
:100810001948F3E7022500E004250122174918488A
:1008200002F06CFEA8F80060002D0CD000202654C9
:10083000401C80B21428FAD3BDE8F04101220F49D0
:100840000F4802F05BBEBDE8F08100000C00001014
:100850006E000010DC000010DE000010D000001060
:1008600030160020A00F0020D6000010D800001085
:10087000D9000010DA000010DB00001006000010A4
:10088000786300102DE9F05FDFF84882934A9449BD
:10089000002398F80040DFF840C210884F79DFF855
:1008A00044E29B464FF4006641F28835002C6AD042
:1008B0000B788EF800304B788EF801307B00744650
:1008C0008EF80230B04203D2BCF82831012B06D09A
:1008D000A84233D3BCF82801012816D02EE07E4D63
:1008E000804E00200DE0138806EB400705EB430324
:1008F00033F81030401C4FEA132C87F803C03B71CB
:10090000C0B24B798342EED818E0774D754E002087
:1009100011E0138806EB400705EB830303EB80032C
:10092000A3F5A043401CB3F8E031C0B24FEA132C4A
:1009300087F803C03B714B798342EAD8A078C01C8A
:10094000C1B26848FFF700FF6849020A088065499C
:10095000A378C91C5A54A278491C4FF6FF7350540F
:10096000A2786348521D6349028088F800B0A1F85C
:1009700000B05C49604802F05FFEBDE8F05F2021F6
:100980005E4801F075BB5E4CDFF878A194F80080FA
:100990009AF80040C14658EA04087DD041F27078C8
:1009A000404504D9BCF81280B8F5FA6F5AD101233A
:1009B000A0F12D02062A08D8DFF84C81A8F8002003
:1009C000DFF84881012288F800209CB1444AB042F7
:1009D0001479527902EB042202D22CF8102041E063
:1009E000A8423FD3404C04EB8000A0F5A040C0F8E3
:1009F000E02137E0B9F1000F34D0642F32D2374A0A
:100A0000B04214D2364E344C00200CE006EB4007C6
:100A1000FD793F7A07EB0525178804EB470727F890
:100A20001050401CC0B24D798542EFD81AE0A84260
:100A300018D32B4D2C4C002011E000BF05EB4006D5
:100A4000F779367A06EB0726178804EB870707EB5A
:100A50008007A7F5A047401CC0B2C7F8E0614E79F7
:100A60008642EBD802208EF8000048788EF801000C
:100A700088788EF80200C8788EF8030008798EF81E
:100A80000400487974468EF8050013B9FF202071E0
:100A900060710621134800E019E0FFF755FE134985
:100AA0004FF6FF730880010AA171E0711048082217
:100AB00013490280104881F800B00E498AF800B04E
:100AC000A1F800B0BDE8F05F064902F0B5BDBDE891
:100AD000F09F0000D8000010A00F0020D6000010EA
:100AE00030160020F459001094050010D4000010B6
:100AF000D2000010CE00001078630010000C0240FD
:100B0000D9000010DB0000107600001086000010F5
:100B10002DE9F041344A00251088002861D033497E
:100B2000334B09781C88A1425BD0198031490B886E
:100B30005B1C9BB20B80052B53D92F4F00262F4CEB
:100B4000388090460E80FF2834D82D4A2178B2F89C
:100B5000402191422FD1801EC1B22046FFF7F4FD03
:100B60003A88010A2244C0B212F8023C8B421FD1DB
:100B700012F8011C81421BD160780121214A03280F
:100B800007D0102807D001280DD006280ED0012547
:100B900011E01D4800E01D480170A078E17801EBEC
:100BA0000020108007E01A48017004E01948F3E7BC
:100BB000022500E0042501221749184802F09EFC96
:100BC000A8F80060002D0CD000202654401C80B2F4
:100BD0001428FAD3BDE8F04101220F490F4802F072
:100BE0008DBCBDE8F08100000E0000106E0000100A
:100BF000EE000010F0000010E20000102F1700209F
:100C0000A00F0020E8000010EA000010EB00001028
:100C1000EC000010ED00001007000010BC63001095
:100C20002DE9F05FDFF84882934A9449002398F851
:100C30000040DFF840C210884F79DFF844E29B465D
:100C40004FF4006641F28835002C6AD00B788EF89C
:100C500000304B788EF801307B0074468EF80230FD
:100C6000B04203D2BCF82831012B06D0A84233D3BE
:100C7000BCF82801012816D02EE07E4D804E0020C1
:100C80000DE0138806EB400705EB430333F8103003
:100C9000401C4FEA132C87F803C03B71C0B24B795C
:100CA0008342EED818E0774D754E002011E013888E
:100CB00006EB400705EB830303EB8003A3F5A0439A
:100CC000401CB3F8E031C0B24FEA132C87F803C0E0
:100CD0003B714B798342EAD8A078C01CC1B2684806
:100CE000FFF732FD6849020A08806549A378C91CEC
:100CF0005A54A278491C4FF6FF735054A2786348A7
:100D0000521D6349028088F800B0A1F800B05C4928
:100D1000604802F091FCBDE8F05F10215E4801F0F0
:100D2000A7B95E4CDFF878A194F800809AF80040EB
:100D3000C14658EA04087DD041F27078404504D994
:100D4000BCF81280B8F5FA6F5AD10123A0F12D0238
:100D5000062A08D8DFF84C81A8F80020DFF848817F
:100D6000012288F800209CB1444AB042147952799B
:100D700002EB042202D22CF8102041E0A8423FD31B
:100D8000404C04EB8000A0F5A040C0F8E02137E023
:100D9000B9F1000F34D0642F32D2374AB04214D2A6
:100DA000364E344C00200CE006EB4007FD793F7ACC
:100DB00007EB0525178804EB470727F81050401C60
:100DC000C0B24D798542EFD81AE0A84218D32B4D16
:100DD0002C4C002011E000BF05EB4006F779367A75
:100DE00006EB0726178804EB870707EB8007A7F5B4
:100DF000A047401CC0B2C7F8E0614E798642EBD8EC
:100E000002208EF8000048788EF8010088788EF86D
:100E10000200C8788EF8030008798EF8040048793B
:100E200074468EF8050013B9FF2020716071062109
:100E3000134800E019E0FFF787FC13494FF6FF73F2
:100E40000880010AA171E07110480822134902804C
:100E5000104881F800B00E498AF800B0A1F800B03F
:100E6000BDE8F05F064902F0E7BBBDE8F09F000077
:100E7000EA000010A00F0020E80000102F1700204B
:100E8000F35A001094050010E6000010E400001072
:100E9000E0000010BC630010000C0240EB000010EA
:100EA000ED00001076000010860000102DE9F041E2
:100EB000344A00251088002861D03349334B097823
:100EC0001C88A1425BD0198031490B885B1C9BB206
:100ED0000B80052B53D92F4F00262F4C388090467E
:100EE0000E80FF2834D82D4A2178B2F84221914251
:100EF0002FD1801EC1B22046FFF726FC3A88010A96
:100F00002244C0B212F8023C8B421FD112F8011CDD
:100F100081421BD160780121214A032807D0102883
:100F200007D001280DD006280ED0012511E01D485C
:100F300000E01D480170A078E17801EB00201080EE
:100F400007E01A48017004E01948F3E7022500E0C1
:100F5000042501221749184802F0D0FAA8F80060C9
:100F6000002D0CD000202654401C80B21428FAD347
:100F7000BDE8F04101220F490F4802F0BFBABDE8B9
:100F8000F0810000100000106E0000100001001041
:100F900002010010F40000102E180020A00F002005
:100FA000FA000010FC000010FD000010FE00001010
:100FB000FF00001008000010006400102DE9F05F31
:100FC000DFF84882934A9449002398F80040DFF8FC
:100FD00040C210884F79DFF844E29B464FF4006628
:100FE00041F28835002C6AD00B788EF800304B78AF
:100FF0008EF801307B0074468EF80230B04203D286
:10100000BCF82831012B06D0A84233D3BCF8280104
:10101000012816D02EE07E4D804E00200DE0138872
:1010200006EB400705EB430333F81030401C4FEA52
:10103000132C87F803C03B71C0B24B798342EED8C2
:1010400018E0774D754E002011E0138806EB40073D
:1010500005EB830303EB8003A3F5A043401CB3F827
:10106000E031C0B24FEA132C87F803C03B714B79D3
:101070008342EAD8A078C01CC1B26848FFF764FB7D
:101080006849020A08806549A378C91C5A54A278A5
:10109000491C4FF6FF735054A2786348521D6349B0
:1010A000028088F800B0A1F800B05C49604802F006
:1010B000C3FABDE8F05F08215E4800F0D9BF5E4C7E
:1010C000DFF878A194F800809AF80040C14658EA09
:1010D00004087DD041F27078404504D9BCF81280F4
:1010E000B8F5FA6F5AD10123A0F12D02062A08D8CB
:1010F000DFF84C81A8F80020DFF84881012288F849
:1011000000209CB1444AB0421479527902EB042287
:1011100002D22CF8102041E0A8423FD3404C04EB0F
:101120008000A0F5A040C0F8E02137E0B9F1000F41
:1011300034D0642F32D2374AB04214D2364E344CB7
:1011400000200CE006EB4007FD793F7A07EB052510
:10115000178804EB470727F81050401CC0B24D79A0
:101160008542EFD81AE0A84218D32B4D2C4C002012
:1011700011E000BF05EB4006F779367A06EB07264B
:10118000178804EB870707EB8007A7F5A047401CEB
:10119000C0B2C7F8E0614E798642EBD802208EF8E3
:1011A000000048788EF8010088788EF80200C87830
:1011B0008EF8030008798EF80400487974468EF89A
:1011C000050013B9FF20207160710621134800E06B
:1011D00019E0FFF7B9FA13494FF6FF730880010AC7
:1011E000A171E0711048082213490280104881F86B
:1011F00000B00E498AF800B0A1F800B0BDE8F05F79
:10120000064902F019BABDE8F09F0000FC0000108A
:10121000A00F0020FA0000102E180020F25B001032
:1012200094050010F8000010F6000010F200001005
:1012300000640010000C0240FD000010FF000010D0
:1012400076000010860000102DE9F041344A002598
:101250001088002861D03349334B09781C88A1429B
:101260005BD0198031490B885B1C9BB20B80052B2E
:1012700053D92F4F00262F4C388090460E80FF28E0
:1012800034D82D4A2178B2F8442191422FD1801EC2
:10129000C1B22046FFF758FA3A88010A2244C0B288
:1012A00012F8023C8B421FD112F8011C81421BD163
:1012B00060780121214A032807D0102807D001288F
:1012C0000DD006280ED0012511E01D4800E01D4874
:1012D0000170A078E17801EB0020108007E01A4847
:1012E000017004E01948F3E7022500E0042501221B
:1012F0001749184802F002F9A8F80060002D0CD038
:1013000000202654401C80B21428FAD3BDE8F041D6
:1013100001220F490F4802F0F1B8BDE8F08100004A
:10132000120000106E0000101201001014010010D5
:10133000060100102D190020A00F00200C01001044
:101340000E0100100F01001010010010110100101B
:1013500009000010F06200102DE9F05FDFF848820C
:10136000934A9449002398F80040DFF840C210885F
:101370004F79DFF844E29B464FF4006641F288352E
:10138000002C6AD00B788EF800304B788EF8013044
:101390007B0074468EF80230B04203D2BCF828318C
:1013A000012B06D0A84233D3BCF82801012816D05F
:1013B0002EE07E4D804E00200DE0138806EB4007A6
:1013C00005EB430333F81030401C4FEA132C87F829
:1013D00003C03B71C0B24B798342EED818E0774D21
:1013E000754E002011E0138806EB400705EB8303E0
:1013F00003EB8003A3F5A043401CB3F8E031C0B277
:101400004FEA132C87F803C03B714B798342EAD82B
:10141000A078C01CC1B26848FFF796F96849020A73
:1014200008806549A378C91C5A54A278491C4FF614
:10143000FF735054A2786348521D6349028088F8B4
:1014400000B0A1F800B05C49604802F0F5F8BDE8D2
:10145000F05F08215E4800F00BBE5E4CDFF878A11B
:1014600094F800809AF80040C14658EA04087DD0FC
:1014700041F27078404504D9BCF81280B8F5FA6F93
:101480005AD10123A0F12D02062A08D8DFF84C8199
:10149000A8F80020DFF84881012288F800209CB1DC
:1014A000444AB0421479527902EB042202D22CF859
:1014B000102041E0A8423FD3404C04EB8000A0F54F
:1014C000A040C0F8E02137E0B9F1000F34D0642F1C
:1014D00032D2374AB04214D2364E344C00200CE09F
:1014E00006EB4007FD793F7A07EB0525178804EBEB
:1014F000470727F81050401CC0B24D798542EFD8FD
:101500001AE0A84218D32B4D2C4C002011E000BF4C
:1015100005EB4006F779367A06EB0726178804EBC9
:10152000870707EB8007A7F5A047401CC0B2C7F8A4
:10153000E0614E798642EBD802208EF800004878B0
:101540008EF8010088788EF80200C8788EF80300C3
:1015500008798EF80400487974468EF8050013B9AE
:10156000FF20207160710621134800E019E0FFF7A9
:10157000EBF813494FF6FF730880010AA171E0717F
:101580001048082213490280104881F800B00E4923
:101590008AF800B0A1F800B0BDE8F05F064902F09B
:1015A0004BB8BDE8F09F00000E010010A00F002016
:1015B0000C0100102D190020F15C001094050010A2
:1015C0000A0100100801001004010010F062001070
:1015D000000C02400F0100101101001076000010F5
:1015E000860000102DE9F041344A002510880028BB
:1015F00061D03349334B09781C88A1425BD01980F4
:1016000031490B885B1C9BB20B80052B53D92F4FA4
:1016100000262F4C388090460E80FF2834D82D4A63
:101620002178B2F8462191422FD1801EC1B22046C6
:10163000FFF78AF83A88010A2244C0B212F8023C45
:101640008B421FD112F8011C81421BD1607801210D
:10165000214A032807D0102807D001280DD00628DA
:101660000ED0012511E01D4800E01D480170A07852
:10167000E17801EB0020108007E01A48017004E0D7
:101680001948F3E7022500E004250122174918480C
:1016900001F034FFA8F80060002D0CD00020265483
:1016A000401C80B21428FAD3BDE8F04101220F4952
:1016B0000F4801F023BFBDE8F081000014000010C6
:1016C0006E00001024010010260100101801001007
:1016D0002C1A0020A00F00201E0100102001001075
:1016E0002101001022010010230100100A00001047
:1016F000346300102DE9F05FDFF84882934A944983
:10170000002398F80040DFF840C210884F79DFF8D6
:1017100044E29B464FF4006641F28835002C6AD0C3
:101720000B788EF800304B788EF801307B007446D1
:101730008EF80230B04203D2BCF82831012B06D01B
:10174000A84233D3BCF82801012816D02EE07E4DE4
:10175000804E00200DE0138806EB400705EB4303A5
:1017600033F81030401C4FEA132C87F803C03B714C
:10177000C0B24B798342EED818E0774D754E002009
:1017800011E0138806EB400705EB830303EB8003AE
:10179000A3F5A043401CB3F8E031C0B24FEA132CCC
:1017A00087F803C03B714B798342EAD8A078C01C0C
:1017B000C1B26848FEF7C8FF6849020A0880654957
:1017C000A378C91C5A54A278491C4FF6FF73505491
:1017D000A2786348521D6349028088F800B0A1F8DE
:1017E00000B05C49604801F027FFBDE8F05F0221CE
:1017F0005E4800F03DBC5E4CDFF878A194F80080B4
:101800009AF80040C14658EA04087DD041F2707849
:10181000404504D9BCF81280B8F5FA6F5AD10123BB
:10182000A0F12D02062A08D8DFF84C81A8F8002084
:10183000DFF84881012288F800209CB1444AB04278
:101840001479527902EB042202D22CF8102041E0E4
:10185000A8423FD3404C04EB8000A0F5A040C0F864
:10186000E02137E0B9F1000F34D0642F32D2374A8B
:10187000B04214D2364E344C00200CE006EB400748
:10188000FD793F7A07EB0525178804EB470727F812
:101890001050401CC0B24D798542EFD81AE0A842E2
:1018A00018D32B4D2C4C002011E000BF05EB400657
:1018B000F779367A06EB0726178804EB870707EBDC
:1018C0008007A7F5A047401CC0B2C7F8E0614E7979
:1018D0008642EBD802208EF8000048788EF801008E
:1018E00088788EF80200C8788EF8030008798EF8A0
:1018F0000400487974468EF8050013B9FF20207162
:1019000060710621134800E019E0FEF71DFF13493E
:101910004FF6FF730880010AA171E0711048082298
:1019200013490280104881F800B00E498AF800B0CF
:10193000A1F800B0BDE8F05F064901F07DBEBDE84A
:10194000F09F000020010010A00F00201E010010D9
:101950002C1A0020F05D0010940500101C010010EE
:101960001A0100101601001034630010000C024030
:1019700021010010230100107600001086000010E5
:101980002DE9F041344A00251088002861D0334900
:10199000334B09781C88A1425BD0198031490B88F0
:1019A0005B1C9BB20B80052B53D92F4F00262F4C6D
:1019B000388090460E80FF2834D82D4A2178B2F81E
:1019C000482191422FD1801EC1B22046FEF7BCFEB5
:1019D0003A88010A2244C0B212F8023C8B421FD15D
:1019E00012F8011C81421BD160780121214A032891
:1019F00007D0102807D001280DD006280ED00125C9
:101A000011E01D4800E01D480170A078E17801EB6D
:101A10000020108007E01A48017004E01948F3E73D
:101A2000022500E0042501221749184801F066FD4F
:101A3000A8F80060002D0CD000202654401C80B275
:101A40001428FAD3BDE8F04101220F490F4801F0F4
:101A500055BDBDE8F0810000160000106E000010BA
:101A600036010010380100102A0100102B1B002045
:101A7000A00F0020300100103201001033010010CF
:101A800034010010350100100B00001044640010F8
:101A90002DE9F05FDFF84882934A9449002398F8D3
:101AA0000040DFF840C210884F79DFF844E29B46DF
:101AB0004FF4006641F28835002C6AD00B788EF81E
:101AC00000304B788EF801307B0074468EF802307F
:101AD000B04203D2BCF82831012B06D0A84233D340
:101AE000BCF82801012816D02EE07E4D804E002043
:101AF0000DE0138806EB400705EB430333F8103085
:101B0000401C4FEA132C87F803C03B71C0B24B79DD
:101B10008342EED818E0774D754E002011E013880F
:101B200006EB400705EB830303EB8003A3F5A0431B
:101B3000401CB3F8E031C0B24FEA132C87F803C061
:101B40003B714B798342EAD8A078C01CC1B2684887
:101B5000FEF7FAFD6849020A08806549A378C91CA6
:101B60005A54A278491C4FF6FF735054A278634828
:101B7000521D6349028088F800B0A1F800B05C49AA
:101B8000604801F059FDBDE8F05F01215E4800F0BA
:101B90006FBA5E4CDFF878A194F800809AF80040A4
:101BA000C14658EA04087DD041F27078404504D916
:101BB000BCF81280B8F5FA6F5AD10123A0F12D02BA
:101BC000062A08D8DFF84C81A8F80020DFF8488101
:101BD000012288F800209CB1444AB042147952791D
:101BE00002EB042202D22CF8102041E0A8423FD39D
:101BF000404C04EB8000A0F5A040C0F8E02137E0A5
:101C0000B9F1000F34D0642F32D2374AB04214D227
:101C1000364E344C00200CE006EB4007FD793F7A4D
:101C200007EB0525178804EB470727F81050401CE1
:101C3000C0B24D798542EFD81AE0A84218D32B4D97
:101C40002C4C002011E000BF05EB4006F779367AF6
:101C500006EB0726178804EB870707EB8007A7F535
:101C6000A047401CC0B2C7F8E0614E798642EBD86D
:101C700002208EF8000048788EF8010088788EF8EF
:101C80000200C8788EF8030008798EF804004879BD
:101C900074468EF8050013B9FF202071607106218B
:101CA000134800E019E0FEF74FFD13494FF6FF73AC
:101CB0000880010AA171E0711048082213490280CE
:101CC000104881F800B00E498AF800B0A1F800B0C1
:101CD000BDE8F05F064901F0AFBCBDE8F09F000031
:101CE00032010010A00F0020300100102B1B00203B
:101CF000EF5E0010940500102E0100102C01001062
:101D00002801001044640010000C02403301001050
:101D10003501001076000010860000107047012089
:101D200000F0A4B872B6FEE72DE9F0410446876DD5
:101D300000F0ACF9064694F835000025022806D0DC
:101D40008020606584F834500120BDE8F08120686F
:101D5000016821F0160101602068416921F08001CD
:101D60004161206C08B9A06C20B12068016821F0A5
:101D7000080101602068016821F0010101600BE0A9
:101D800000F084F9801B052806D92020606504F83E
:101D9000345F03206070D8E720680068C007EFD187
:101DA00094F85C103F208840B86004F8345F01204C
:101DB00060700020C9E790F83510022903D0802117
:101DC000416501207047052180F8351000680168E1
:101DD00021F00101016000207047000070B5044649
:101DE00000F054F90546601C02D004480078044411
:101DF00000F04CF9401BA042FAD370BD3C0100102A
:101E000010B5012828D1112104F0AEFDC00703D080
:101E10001249012004F065FE1121022004F0A4FD06
:101E2000800703D50E49022004F05BFE1121032038
:101E300004F09AFD400703D50A49032004F051FE3F
:101E40001121042004F090FD000705D5BDE81040E5
:101E50000549042004F045BE10BD000098010010A3
:101E6000970200109603001095040010044910B565
:101E70000A68024202D00860FFF7C2FF10BD0000EE
:101E8000143C01402DE9F84FDFF8B8A100220125EC
:101E90000AF1040B03264FF00F090BF1040E00BFEB
:101EA0000B6805FA02F42340A3426FD10F7907F0C3
:101EB0000307012F01D0022F16D187684FEA42088D
:101EC00006FA08FC27EA0C07D1F80CC00CFA08FC4B
:101ED0004CEA070CC0F808C04768A7430C79C4F364
:101EE000001494403C4344600C79E443A4070AD0B6
:101EF000C4684FEA420C06FA0CF7BC438F6807FA35
:101F00000CF72743C7600C7904F00304022C12D1AC
:101F1000D40800EB840CDCF820405707FF0E09FAC8
:101F200007F824EA0804D1F8108008FA07F848EA0C
:101F30000408CCF8208004684FEA420C06FA0CF73B
:101F4000BC430F7907F0030707FA0CF72743076034
:101F50004C68E40070D53C4C276847F48047276004
:101F6000246822F0030704F480440094374C07EB04
:101F7000040CDCF8084897074FEA177809FA08F7C5
:101F8000BC43334FB84202D1002724E054E0314F24
:101F9000B84201D101271EE02F4FB84201D10227DC
:101FA00019E02E4FB84201D1032714E02C4FB8425C
:101FB00001D104270FE02B4FB84201D105270AE0D9
:101FC000294FB84201D1062705E0284FB84201D178
:101FD000072700E0082707FA08F72743CCF8087816
:101FE000DAF800405746D1F804C09C435FEACC3C85
:101FF00000D51C433C60DBF800405F46D1F804C0CC
:102000009C435FEA8C3C00D51C433C60DEF80040FA
:102010007746D1F804C09C435FEACC2C00D51C4322
:102020003C60084F0C373C68D1F804C09C435FEA21
:102030008C2C00D51C433C60521C102AFFF430AF9E
:10204000BDE8F88F003C01404438024000300140B8
:10205000000002400004024000080240000C024060
:10206000001002400014024000180240001C024010
:10207000426921EA02030A4043EA02418161704752
:102080000AB1816170470904FBE7000001488068DC
:10209000704700003C01001002488168027811443A
:1020A000816070473C0100100B4810B5016841F495
:1020B00000710160016841F480610160016841F4D0
:1020C00080710160032000F071F8002000F006F834
:1020D00000F024F8002010BD003C024070B50D4D0A
:1020E00004464FF47A712878B1FBF0F00A49096888
:1020F000B1FBF0F000F0D1FC48B9102C07D200225F
:102100002146501E00F032F800206C6070BD0120A6
:1021100070BD00003C010010480100100B4882B067
:10212000016841F480410160006800F48040009043
:102130000648001F016841F080510160006800F00E
:1021400080500090052002B000F030B844380240C2
:10215000002809DB00F01F020121914040098000A6
:1021600000F1E020C0F8001170470000F0B40E4B01
:102170001B680C46C3F30223C3F10705042D00D9E5
:102180000425191D072901D2002300E0DB1E0126CA
:1021900006FA05F1491E214099409E40761E1640E0
:1021A0003143F0BC04F0F3BB0CED00E0064900F055
:1021B000070208684FF6FF03184040EA0220034A6E
:1021C00010430860704700000CED00E00000FA05C5
:1021D0002DE9F0470E46050065D0DFF81481D8F8E8
:1021E0000000F7B200F00700B04207D288F8007094
:1021F000D8F8000000F00700B04254D128683D4CE8
:10220000810712D5400703D5206840F4E0502060D4
:102210002878000703D5206840F4604020602068DB
:10222000A96820F0F000084320602878C0072DD06E
:10223000304968680839012812D0022813D00328D1
:1022400011D00968890700292DDA216821F00301DE
:1022500001432160FFF71AFF814641F2883A0EE000
:1022600009688903EFE709688901ECE7FFF70EFFCA
:10227000A0EB0901514502D90320BDE8F087206891
:10228000696800F00C00B0EB810FEFD1D8F80010B6
:10229000404601F00701B14207D90770006800F01D
:1022A0000700B04201D00120E7E72878400705D5B4
:1022B0002068E96820F4E05008432060287800078F
:1022C00006D52068296920F4604040EAC1002060FA
:1022D00000F038F82168084AC1F30311515CC84086
:1022E0000649086006480068FFF7F8FE0020C4E7CA
:1022F000003C024008380240346D000848010010DC
:10230000400100100448054900680968044AC1F307
:102310008221515CC84070474801001008380240D3
:10232000446D00080448054900680968044AC1F37F
:102330004231515CC84070474801001008380240E3
:10234000446D0008154810B5006810F00C021448E0
:1023500013D04110042A0FD0082A0ED10F4C241F8D
:102360002268236802F03F025B0207D52068C0F3B1
:102370008810A0FB010106E0084610BD2168C1F3EA
:102380008811A1FB00010023FDF71AFF2168C1F3AA
:102390000141491C4900B0FBF1F010BD0838024072
:1023A0000024F4002DE9F84F04006ED02078DFF807
:1023B0004C93C007A9F104054AD009F10400016853
:1023C000C1F38101012908D00068C0F3810002280F
:1023D0000AD1D9F80000400206D52868800337D515
:1023E00060680028E1D033E06068B0F5803F10D02D
:1023F000B0F5A02F286810D020F48030286028681D
:1024000020F4802028606068A8B1FFF73FFE0646F0
:102410000DE0286840F48030F4E740F48020286024
:10242000F7E700BFFFF732FE801B642873D82868E7
:102430008003F7D50CE0FFF729FE064605E000BF54
:10244000FFF724FE801B6428F0D828688003F7D4A7
:102450002078DFF8AC8280074FF0000A3ED5A7480D
:10246000001D016811F00C0F08D00068C0F3810056
:1024700002280BD1D9F80000400207D42868800751
:1024800016D5E068012800D112E033E1E068B8B168
:102490000120C8F80000FFF7F9FD064605E000BF7F
:1024A000FFF7F4FD801B0228C0D828688007F7D505
:1024B0002868216920F0F80040EAC10028600DE09A
:1024C000C8F800A0FFF7E2FD064604E0FFF7DEFDD6
:1024D000801B02281FD828688007F7D420780007BF
:1024E00022D5864F87486169703771B1012101603B
:1024F000FFF7CCFD064604E0FFF7C8FD801B02286D
:1025000009D838688007F7D50EE0C0F800A0FFF7BB
:10251000BDFD064605E082E0FFF7B8FD801B0228FE
:102520007DD838688007F7D42078400768D5DFF871
:10253000CCB100270BF13C0BDBF80000C0000BD442
:10254000DBF8001041F08051CBF80010DBF8000000
:10255000012700F0805000906B4E3068C00510D409
:10256000306840F480703060FFF790FD009005E027
:10257000FFF78CFD0099401A022850D83068C0053A
:10258000F6D55E4EA0686C3601280FD0052830685D
:1025900010D020F001003060306820F0040030607E
:1025A000A068B8B1FFF772FD00900FE0306840F00E
:1025B0000100F4E740F004003060F7E7FFF766FD44
:1025C0000099411A41F28830814266D8306880070C
:1025D000F4D50EE0FFF75AFD009007E0FFF756FD37
:1025E0000099411A41F28830814256D830688007FC
:1025F000F4D42FB1DBF8001021F08051CBF800109B
:10260000A069C8B33D49091D0968C1F381010229C8
:102610004AD00228504607D0C8F8600000E03CE0ED
:10262000FFF734FD04463BE04746C8F86000FFF77B
:102630002DFD064605E000BFFFF728FD801B0228A0
:102640002BD828688001F7D4D4E907010843A16A90
:102650002E4A490802EB0141626A41EA82110843AD
:1026600094F82C1040EA0161C9F800100120386686
:10267000FFF70CFD044606E03EE000BFFFF706FD55
:10268000001B022809D828688001F7D534E000BF74
:10269000FFF7FCFC001B022802D90320BDE8F88FDD
:1026A00028688001F4D427E00128F7D0D9F8000089
:1026B000E26900F4800191421CD1226A00F03F01DE
:1026C000914217D147F6C071626A0140B1EB821F97
:1026D00010D1A26A4FF0FF3300F4403103EB5202F5
:1026E000B1EB024F06D194F82C1000F07060B0EB03
:1026F000016F01D00120D1E70020CFE7043802406C
:1027000000004742800E4742007000400000FFFF7B
:1027100070B5040009D0606A002540B1256165618B
:10272000A56294F8510040B10CE0012070BD6068D2
:10273000B0F5827FF4D0E561F2E784F8505020468E
:1027400000F044F8022084F851002068016821F06C
:1027500040010160A088218900F4827001F40441E5
:102760000843A18901F400610843217C01F00201C2
:102770000843217D01F001010843218B01F4007120
:102780000843217F01F03801084394F8201001F03C
:1027900080010843218D01F400510843216808603D
:1027A000A069042101EA104094F8241001F01001FE
:1027B0000843216848602068C16921F40061C16153
:1027C0006565012084F85100002070BDF0B587B028
:1027D000044614216846FDF72BFD31482768002385
:1027E000304902240325052687421AD12D4814308A
:1027F000026842F480520260006800F48050059044
:10280000086840F001000860086802AA00F00100B2
:102810000590F020CDE9000482E86800694622486E
:102820001EE0204ADFF884C01032214867451BD1E2
:10283000156845F480451560126802F480420592DF
:102840000A6842F002020A60096802AD01F0020162
:1028500005914FF47041CDE9001485E858006946B0
:10286000FFF710FB07B0F0BD124EB742FAD1166861
:1028700046F400461660126802F4004205920A68A7
:1028800042F002020A600968029301F00201059118
:102890003821CDE900140621CDE903516946DFE76F
:1028A0000030014030380240000002400038004053
:1028B00000040240003C00402DE9F84F044690F827
:1028C000500000270A9E1D4692468B464FF0010994
:1028D00001280ED0012084F85000FFF7D7FB804676
:1028E00094F85100616801280CD0B1F5827F07D1BE
:1028F00002E00220BDE8F88FA16809B9042801D0E0
:102900000227C2E0BBF1000F27D0BAF1000F24D09C
:102910001DB394F85100042802D0052084F851001A
:1029200000206065C4F838A0E587A587C4F830B0FA
:10293000E586A5862064606420680168490603D4A2
:10294000016841F040010160E068B0F5006F606827
:1029500005D0E8B3012D46D07FE0012795E008B10E
:10296000012D39D1206B21680088C860206B801C44
:102970002063E08E401EE0862EE020688168890793
:102980000FD5E18E69B1B9F1010F0AD1216B098828
:10299000C160206B801C2063E08E401EE0864FF0FB
:1029A000000920688168C9070CD0E18F51B1C06867
:1029B000A16B0880A06B801CA063E08F401EE087A5
:1029C0004FF00109FFF762FBA0EB0800B04200E006
:1029D00009E001D3701C50D1E08E0028CDD1E08FEA
:1029E0000028CAD13FE0206B216800780873206B73
:1029F000401C2063E08E401EE0862EE02068816847
:102A000089070FD5E18E69B1B9F1010F0AD1216BA8
:102A100009780173206B401C2063E08E401EE08625
:102A20004FF0000920688168C9070CD0E18F51B1CF
:102A3000C068A16B0870A06B401CA063E08F401EB3
:102A4000E0874FF00109FFF721FBA0EB0800B0423F
:102A500002D3701C01D010E07EB1E08E0028CDD1F1
:102A6000E08F0028CAD142463146204602F02CFFB2
:102A700028B101272020606507E0032705E0A06852
:102A800018B92068C16880680090012084F851005E
:102A9000002084F8500038462CE710B5401EB0F1F5
:102AA000807F01D3012010BD4FF0E02460610F2131
:102AB000601703F06CFF0020A06107202061002058
:102AC00010BD10B590F83C20012A22D0012280F8D8
:102AD0003C20CA688C6822F4407222434C6822F47D
:102AE000806222430C6822F4006222430C6922F4C3
:102AF000805222434C6922F400522243C9690023C8
:102B000022F480420A4301684A6480F83C30002085
:102B100010BD022010BD000070B590F83C20012AC5
:102B200032D0012480F83C40022280F83D20036826
:102B30005A689D6822F070060A6832435A60134B47
:102B400002689A4214D0B2F1804F11D0104B9A42D1
:102B50000ED0104B9A420BD00F4B9A4208D00F4B1D
:102B60009A4205D00E4B9A4202D00E4B9A4204D1A3
:102B7000496825F080031943916080F83D400021A9
:102B800080F83C10084670BD022070BD0000014076
:102B90000004004000080040000C00400004014018
:102BA000004001400018004010B5040003D094F824
:102BB0003D0010B107E0012010BD002084F83C006A
:102BC000204600F01FF8022084F83D00211D2068F7
:102BD00003F012FA012084F8460084F83E0084F8DD
:102BE0003F0084F8400084F8410084F8420084F8F3
:102BF000430084F8440084F8450084F83D00002038
:102C000010BD000008B502683E483F4982420ED11F
:102C1000086840F0010008600868002200F0010028
:102C2000009011461B20FFF7A1FA1B2066E03648F2
:102C3000001FB2F1804F11D0344B9A421DD1016870
:102C400041F0020101600068002200F002000090E3
:102C500011461D20FFF78AFA1D204FE0016841F060
:102C6000010101600068002200F00100009011469F
:102C70001C20FFF77BFA1C2040E0254B9A420ED126
:102C8000016841F0040101600068002200F00400C6
:102C9000009011461E20FFF769FA1E202EE01D4B02
:102CA0009A420ED1016841F00801016000680022DB
:102CB00000F00800009011463220FFF757FA32204A
:102CC0001CE0154B9A4208D1016841F020010160D7
:102CD000006800F02000009008BD10488242FBD13F
:102CE000086840F0020008600868002200F0020056
:102CF000009011462E20FFF739FA2E20BDE808403B
:102D0000FFF726BA000001404438024000040040AA
:102D100000080040000C0040001400400004014086
:102D200090F83D10012901D001207047022180F860
:102D30003D1000681149884214D0B0F1804F11D085
:102D40000F4988420ED00F4988420BD00E49884265
:102D500008D00E49884205D00D49884202D00D495D
:102D6000884204D1816801F00701062903D0016877
:102D700041F00101016000207047000000000140A7
:102D80000004004000080040000C00400004014026
:102D9000004001400018004070B5044690F83C0027
:102DA000012817D0012584F83C50022084F83D000A
:102DB0002068826822F0770222F47F4282600868ED
:102DC000502830D00DDC20284DD005DC98B31028D9
:102DD0003BD148E0022070BD302844D0402834D197
:102DE00039E0602828D0702806D0B0F5805F2CD05C
:102DF000B0F5005F29D10AE0CB68D1E90121206854
:102E000003F06BF92068816841F0770109E0CB6835
:102E1000D1E90121206803F060F92068816841F45C
:102E20008041816011E0CA684968206803F02AFA8D
:102E30005021206807E016E0CA684968206803F05E
:102E400032FA6021206803F052F984F83D500020E6
:102E500084F83C0070BDCA684968206803F012FA23
:102E600040212068EFE7226801461046EBE70000AA
:102E7000F0B587B0044614216846FDF7D9F92468F7
:102E80003A4800263A4902230122844210D10868B8
:102E900040F010000860086800F010000590481528
:102EA0000090CDE9013203926946324804921EE057
:102EB0003148B4F1804F0CD0304F314DBC421AD163
:102EC000086840F0020008600868009300F0020003
:102ED0001EE00C6844F001040C6009680093CDE921
:102EE000013201F00101CDE90421039227E0FEF750
:102EF000C9FF07B0F0BDDFF88CC0402764450FD193
:102F0000086840F0020008600868009700F00200BE
:102F1000CDE90132CDE90430694603922846E6E75F
:102F2000194DAC420DD10C6844F001040C600968E5
:102F30008DE84C0001F00101CDE9043103966946AA
:102F4000D5E712488442D4D1086840F004000860F4
:102F50000868009700F004000590CDE901320320D5
:102F6000CDE9032069460A48C1E70000000001409E
:102F700030380240001002400000024000040040CF
:102F80000004024000080040000C00400004014022
:102F90000008024010B5044690F83C0001280AD011
:102FA000012084F83C0042B1042A0AD0082A0CD03F
:102FB0000C2A11D10DE0022010BD206803F0A0F80A
:102FC0000AE0206803F0CCF806E0206803F0FEF881
:102FD00002E0206803F02EF9002084F83C0010BDC8
:102FE00010B5040003D094F83D0010B107E00120B3
:102FF00010BD002084F83C00204600F01EF802209E
:1030000084F83D00211D206802F0F6FF012084F8BD
:10301000460084F83E0084F83F0084F8400084F8BD
:10302000410084F8420084F8430084F8440084F8A6
:10303000450084F83D00002010BD70477047704780
:10304000F8B5026804461068D168536910F00F0F94
:103050004FF0000553D003F0010601F49077374399
:103060005FD0C20705D0CA0503D5226C42F0010229
:103070002264420705D5DA0703D0226C42F002022F
:103080002264820705D5DA0703D0226C42F00402DD
:103090002264020707D501F02002324303D0226CDC
:1030A00042F008022264226C002A34D0800604D543
:1030B000880602D5204603F083F920684069216C18
:1030C000C0F38010090700D430B3204603F060F944
:1030D0002068416949061BD5416921F040014161E1
:1030E000A06BA8B159490165A06BFEF764FE0028EA
:1030F00011D0A06B016D01B0BDE8F0400847830618
:103100000FD58B060DD52046BDE8F84003F058B921
:103110002046FFF794FFF8BD2046FFF790FF256497
:10312000F8BD266B2023012E53D1C60651D5CE06FD
:103130004FD5106850680090506940062BD5A16BA0
:10314000086840680004000CEAD0A68D8642E7D9E2
:10315000E085C869B0F5807F18D0D06820F4807011
:10316000D0602068416921F0010141612068416916
:1031700021F04001416184F83E3025632068C16838
:1031800021F01001C160A06BFEF7CEFDA08DE18D96
:10319000401A81B219E0A08DE18D401A81B2E08D14
:1031A0000028BDD00029BBD0D06820F49070D0603A
:1031B0002068426922F00102426184F83E302563B2
:1031C0002068C26822F01002C2602046FFF736FF76
:1031D000F8BD05062BD50D0629D594F83D0021280C
:1031E000F6D1A068B0F5805F01D12069B0B1206A46
:1031F000411C2162216800784860E08C401E000478
:10320000000CE084E4D12068C16821F08001C16035
:103210002068C16841F04001C160F8BD206A0088A3
:10322000C0F308005060206A801C2062E5E7400679
:10323000F3D54806F1D5D168204621F04001D16090
:1032400084F83D3000F051FAF8BD000081630008B9
:1032500070B5040004D094F83D00002510B106E0DC
:10326000012070BD84F83C50204600F023F8242053
:1032700084F83D002068C16821F40051C1602046F7
:1032800003F0F6F82068016921F49041016120689B
:10329000416921F02A0141612068C16841F400516F
:1032A000C1602564202084F83D0084F83E000020A1
:1032B00070BD00002DE9F04786B004461421684631
:1032C000FCF7B6FF8249DFF804C227680023804A72
:1032D00010390225012408267E484FF440696745CD
:1032E0001FD1136843F400231360126802F4002214
:1032F00005920A6842F004020A600968CDF800905D
:10330000CDE9015401F00401CDE90461039469465B
:10331000FEF7B8FD002211463420FEF727FF3420C7
:1033200035E0DFF8B4C1674536D1136843F4801344
:103330001360126802F4801205920A6842F00402D7
:103340000A600A6802F0040205920A6842F0080264
:103350000A60096801F0080105914FF4805100915D
:10336000CDE90154CDE903466946FEF78BFD042003
:103370000090CDE90154CDE9034669465748FEF770
:1033800081FD002211463520FEF7F0FE3520FEF7C4
:10339000DFFE06B0BDE8F0874D48DFF84481001D30
:1033A000DFF840A14FF0070C474521D1026842F0F9
:1033B00010020260006800F010000590086840F0FC
:1033C00001000860086802AA00F0010005904FF4AF
:1033D000C060CDE9000582E8181069465046FEF746
:1033E00051FD002211462520FEF7C0FE2520CEE724
:1033F000DFF8F480474520D1106840F400301060B9
:10340000106800F400300590086840F00100086082
:10341000086802AE00F0010005900C20CDE900051F
:1034200086E8181069465046FEF72CFD002211462A
:103430002620FEF79BFE2620A9E7DFF8B08047454F
:103440001FD1106840F480201060106800F48020C4
:103450000590086840F0020008600868CDE9023471
:1034600000F00200CDE904C0CDE90095694620488E
:10347000FEF708FD002211462720FEF777FE2720E1
:1034800085E71C4A974284D1026842F0200202601C
:10349000006800F020000590086840F040000860D7
:1034A000086802AA00F0400005904FF48440CDE97E
:1034B000000582E8580069460F48FEF7E3FC002249
:1034C00011464720FEF752FE472060E7004C0040BF
:1034D000403802400008024000500040000C02400A
:1034E000001001400000024000440040004800403D
:1034F00000040240001401400018024090F83E30E1
:10350000202B0ED159B152B190F83C30012B08D08C
:10351000012380F83C300023036303F02FB801201F
:103520007047022070470000334A016833489142D7
:103530000CD18189FD2904D2314B82795A54491C1E
:1035400081812E490122891D2E4851E02E4A914247
:103550000DD1C189FD2905D2294BC279FF335A54B7
:10356000491CC18125490122C91D284840E0284A3B
:1035700091420CD1018AFD2904D2264B027A5A5479
:10358000491C01821D4901220831234830E0234AA9
:1035900091420DD1418AFD2905D21E4B427AFF335B
:1035A0005A54491C41821549012209311C481FE027
:1035B0001C4A91420CD1818AFD2904D21A4B827A8D
:1035C0005A54491C81820D4901220A3117480FE0E3
:1035D000174A91420ED1C18AFD2905D2124BC27AF7
:1035E000FF335A54491CC182044901220B3111484E
:1035F000FFF784BF7047000000100140000000107A
:10360000301600207863001000440040BC630010B6
:10361000004800402E18002000640010004C0040BC
:10362000F0620010005000402C1A0020346300109B
:1036300000140140446400102DE9F843044690F85A
:103640003D001F4616460D4620284CD1C5B1BEB1DF
:1036500094F83C00012846D0012084F83C004FF04B
:103660000008C4F84080212084F83D00FEF70EFDDC
:10367000A6848146E684A068B0F5805F03D004E0AC
:103680000120BDE8F883206928B12E465FF00005CF
:1036900084F83C800EE00026FAE78021204602F004
:1036A00088FFA0B9AEB116F8010B21684860E08C24
:1036B000401EE084E08C4B464FF00002009700284B
:1036C000EBD14FF04001204602F073FF30B10320F0
:1036D000D7E735F8020BC0F30800E6E7202084F8AE
:1036E0003D000020CDE70220CBE77047FEE7000059
:1036F0002DE9F04F05462DED088B83B09846914695
:103700000E468F48007800287ED18E4801278E4CC7
:10371000002D06DA677001220221FEF7B1FC6D422E
:1037200005E0002161700A460221FEF7A9FC012D87
:103730006FD0002D6AD0DFF814B2DA46DBF8000053
:10374000000900EE100AB8EE400A9FED81AA60EE73
:103750000A0A00EE108AB8EE400A80EE801ABDEE2A
:10376000C10A10EE100A206100EE106AF8EE400A5D
:10377000DFED78AA8AEEA00A10EE100AFCF770FEC0
:1037800041EC100B03F013F9DAF80000B0EE409AA8
:103790000009F0EE609A8246FCF736FE9FED6EBBA4
:1037A00053EC1B2BFCF74FFD9FED6D8B53EC182B4F
:1037B000FCF7BBFDFCF767FEFCF752FE53EC192B40
:1037C000FCF741FD53EC182BFCF7AFFDFCF729FE8D
:1037D000606000EE106AB8EE400ADFED630AB2EEF8
:1037E000041A08FB08F020EE200AC0EE010A00EEE1
:1037F000100AB8EE400A80EE201ABCEEC10A8DED28
:10380000000A10EE100A02E095E002E072E048B112
:1038100009E04FF0FF306061022020704FF47A70B1
:10382000606067E0009705FB09F006EB0901B0FB5B
:10383000F1F0019000B90197DDE90001814201D862
:10384000481B03E07043B0FBF9F04042E060E068E1
:1038500010B94FF0FF30E06000EE10AAB8EE400A59
:1038600060EE0A0A00EE108AB8EE400A80EE801A76
:10387000BDEEC10A10EE100A206100EE106AF8EEEB
:10388000400A8AEEA00A10EE100AFCF7E9FD41ECAE
:10389000100B03F08CF8DBF80000B0EE409AF0EE6D
:1038A000609A0009FCF7B0FD53EC1B2BFCF7CBFC36
:1038B00053EC182BFCF739FDFCF7E5FDFCF7D0FDC8
:1038C00053EC192BFCF7BFFC53EC182BFCF72DFD28
:1038D000FCF7A7FD6060E0682844A060606821698B
:1038E000884204DC206960600320207000E02770BB
:1038F0000020606112480770134818300068416A60
:10390000ADF800106168BDF8002011448163042106
:103910000122080702F0D4FB0B481830FFF700FA29
:1039200003B00022BDEC088B4FF40071BDE8F04FEE
:103930000E48FEF7A5BB03B0BDEC088BBDE8F08FC9
:103940005801001000100240E86400104801001007
:1039500072D9A03B7059C4426F1283C0CAA1E53F1F
:103960000000000000002440CF0FC93D00040240C9
:103970002DE9F041224886B00026016841F004019B
:103980000160016801F004010591016841F008013E
:103990000160016801F008010591016841F008012A
:1039A00001600068022400F0080000940125CDE9C0
:1039B00004500194694603941248FEF763FACDE976
:1039C0000045DFF84480CDE9034669464046FEF7EE
:1039D00059FACDE9034627020C4CCDE9007569463A
:1039E0002046FEF74FFA002202214046FEF748FB30
:1039F000012239462046FEF743FB06B0BDE8F081C0
:103A00003038024000000240001002400004024032
:103A1000F0B527488DB00025016841F00101016033
:103A2000006800F001000B90FFF7A2FF214C4FF05F
:103A300080460F2040C44FF6FF77A1C41D4844F8CC
:103A40001059FFF7B1F8B014079007A91948FFF70C
:103A5000A3F93020CDE90007022002900820CDE92B
:103A6000030505950422694612480695FFF792FA68
:103A700000220421304602F023FB002211461C20C4
:103A8000FEF774FB1C20FEF763FB2168681F0861CA
:103A90002168401008612068C16841F00401C160DC
:103AA0002068416C41F4004141640DB0F0BD00005C
:103AB00040380240006500102DE9F04F05462DED1D
:103AC000088B83B0984691460E468E4800780028B1
:103AD0007ED18D4801278D4C4FF48071002D05DA81
:103AE00067700122FEF7CCFA6D4203E0002262709B
:103AF000FEF7C6FA012D6ED0002D6BD0DFF810B2A4
:103B0000DA46DBF80000000900EE100AB8EE400AC1
:103B10009FED80AA60EE0A0A00EE108AB8EE400A15
:103B200080EE801ABDEEC10A10EE100A206100EE90
:103B3000106AF8EE400ADFED78AA8AEEA00A10EECD
:103B4000100AFCF78DFC41EC100B02F030FFDAF8A4
:103B50000000B0EE409A0009F0EE609A8246FCF751
:103B600053FC9FED6EBB53EC1B2BFCF76CFB9FEDE6
:103B70006D8B53EC182BFCF7D8FBFCF784FCFCF79F
:103B80006FFC53EC192BFCF75EFB53EC182BFCF786
:103B9000CCFBFCF746FC606000EE106AB8EE400A11
:103BA000DFED620AB2EE041A08FB08F020EE200AEC
:103BB000C0EE010A00EE100AB8EE400A80EE201AAC
:103BC000BCEEC10A10EE100A8DED000A60B10CE0E7
:103BD00093E000E071E04FF0FF3060610220207060
:103BE0004FF47A70606068E0009705FB09F006EB1F
:103BF0000901B0FBF1F0019000B90197DDE9001077
:103C0000884201D8401B04E001FB06F0B0FBF9F04C
:103C10004042E060E06810B94FF0FF30E06000EE35
:103C200010AAB8EE400A60EE0A0A00EE108AB8EE5A
:103C3000400A80EE801ABDEEC10A10EE100A206123
:103C400000EE106AF8EE400A8AEEA00A10EE100AA2
:103C5000FCF706FC41EC100B02F0A9FEDBF80000BB
:103C6000B0EE409AF0EE609A0009FCF7CDFB53EC01
:103C70001B2BFCF7E8FA53EC182BFCF756FBFCF770
:103C800002FCFCF7EDFB53EC192BFCF7DCFA53ECD0
:103C9000182BFCF74AFBFCF7C4FB6060E068284483
:103CA000A06060682169884204DC206960600320AC
:103CB000207000E0277000206061124807701348F0
:103CC00018300068416AADF800106168BDF8002046
:103CD0001144416301220021154802F0F1F90B481B
:103CE0001830FFF71DF803B00022BDEC088B10213F
:103CF000BDE8F04F0F48FEF7C3B903B0BDEC088B29
:103D0000BDE8F08F64010010000402404865001017
:103D10004801001072D9A03B7059C4426F1283C091
:103D2000CAA1E53F0000000000002440CF0FC93DBC
:103D300000080040001402402DE9F041234886B0FD
:103D40000025016841F004010160016801F00401EF
:103D50000591016841F008010160016801F0080166
:103D60000591016841F0080101600068022400F03B
:103D7000080005904020CDE90004DFF8548003944A
:103D8000694640460494FEF77DF8E6010127CDE937
:103D9000034569464046CDE90067FEF773F8CDE973
:103DA00003451020CDE900070A4C69462046FEF77E
:103DB00069F8002231464046FEF762F901221021DF
:103DC0002046FEF75DF906B0BDE8F08130380240CC
:103DD0000004024000140240F0B525488DB00025D3
:103DE000016841F004010160006800F004000B90DC
:103DF000FFF7A2FF204C1F4E0F2040C44FF6FF7765
:103E0000A1C41D4844F81059FEF7CEFEB014079027
:103E100007A91948FEF7C0FF3020CDE900070220AE
:103E200002900820CDE90305059500226946124855
:103E30000695FFF7AFF800221146304602F040F930
:103E4000002211461E20FEF791F91E20FEF780F990
:103E50002168E81E08612068C16841F00201C16064
:103E60002068416C41F4004141640DB0F0BD000098
:103E70004038024000080040606500102DE9F04F16
:103E800005462DED088B83B0984691460E46904826
:103E9000007800287DD101278E4C002D07DA67704D
:103EA000012220218C48FEF7EBF86D4206E000204D
:103EB0006070024620218848FEF7E2F8012D6FD09D
:103EC000002D68D0DFF814B2DA46DBF800000009F4
:103ED00000EE100AB8EE400A9FED81AA60EE0A0AD1
:103EE00000EE108AB8EE400A80EE801ABDEEC10ADC
:103EF00010EE100A206100EE106AF8EE400ADFEDC5
:103F000079AA8AEEA00A10EE100AFCF7A9FA41EC91
:103F1000100B02F04CFDDAF80000B0EE409A0009F8
:103F2000F0EE609A8246FCF76FFA9FED6FBB53ECA0
:103F30001B2BFCF788F99FED6E8B53EC182BFCF7CD
:103F4000F4F9FCF7A0FAFCF78BFA53EC192BFCF709
:103F50007AF953EC182BFCF7E8F9FCF762FA606089
:103F600000EE106AB8EE400ADFED630AB2EE041A02
:103F700008FB08F020EE200AC0EE010A00EE100A4D
:103F8000B8EE400A80EE201ABCEEC10A8DED000AA0
:103F900002E097E004E075E010EE100A48B109E095
:103FA0004FF0FF306061022020704FF47A70606043
:103FB00068E0009705FB09F006EB0901B0FBF1F0A2
:103FC000019000B90197DDE90010884201D8401B3B
:103FD00004E001FB06F0B0FBF9F04042E060E0686D
:103FE00010B94FF0FF30E06000EE10AAB8EE400AC2
:103FF00060EE0A0A00EE108AB8EE400A80EE801ADF
:10400000BDEEC10A10EE100A206100EE106AF8EE53
:10401000400A8AEEA00A10EE100AFCF721FA41ECE1
:10402000100B02F0C4FCDBF80000B0EE409AF0EE9A
:10403000609A0009FCF7E8F953EC1B2BFCF703F935
:1040400053EC182BFCF771F9FCF71DFAFCF708FA92
:1040500053EC192BFCF7F7F853EC182BFCF765F928
:10406000FCF7DFF96060E0682844A06060682169BF
:10407000884204DC206960600320207000E0277023
:104080000020606112480770124818300068416AC9
:10409000ADF800106168BDF80020114441630122B1
:1040A0000021164802F00CF80A481830FEF738FED6
:1040B00003B00022BDEC088B1021BDE8F04F06488C
:1040C000FDF7DEBF03B0BDEC088BBDE8F08F00004C
:1040D0004C010010886400100018024048010010D4
:1040E00072D9A03B7059C4426F1283C0CAA1E53F88
:1040F0000000000000002440CF0FC93D0004014033
:10410000F0B5234887B00025016841F00401016043
:10411000016801F004010591016841F008010160A6
:10412000016801F008010591016841F00801016092
:104130000068022400F0080005904020CDE900044A
:104140000320CDE9034069461248FDF79BFE20207D
:104150000126CDE90006104F69463846CDE90345F2
:10416000FDF790FE1020CDE9000669463846CDE9FE
:104170000345FDF787FE002220213846FDF780FF2A
:10418000012210213846FDF77BFF07B0F0BD00008B
:10419000303802400008024000180240F0B52548BF
:1041A0008DB00025016841F002010160006800F057
:1041B00002000B90FFF7A4FF204C1F4E0F2040C4BD
:1041C0004FF6FF77A1C41D4844F81059FEF7ECFCE8
:1041D000B014079007A91948FEF7DEFD3020CDE99D
:1041E0000007022002900820CDE903050595002272
:1041F000694612480695FEF7CDFE0022114630466C
:1042000001F05EFF002211462E20FDF7AFFF2E20A9
:10421000FDF79EFF2168E81E08612068C16841F033
:104220000201C1602068416C41F4004141640DB05D
:10423000F0BD00004438024000040140A0640010BA
:104240002DE9F04F05462DED088B83B09846914639
:104250000E469048007800287DD101278E4C4FF4FF
:104260008051002D06DA677001228C48FDF708FFA7
:104270006D4205E00020607002468848FDF700FFAF
:10428000012D6FD0002D68D0DFF814B2DA46DBF8CC
:104290000000000900EE100AB8EE400A9FED81AA66
:1042A00060EE0A0A00EE108AB8EE400A80EE801A2C
:1042B000BDEEC10A10EE100A206100EE106AF8EEA1
:1042C000400ADFED79AA8AEEA00A10EE100AFCF788
:1042D000C7F841EC100B02F06AFBDAF80000B0EE10
:1042E000409A0009F0EE609A8246FCF78DF89FED47
:1042F0006FBB53EC1B2BFBF7A6FF9FED6E8B53ECB4
:10430000182BFCF712F8FCF7BEF8FCF7A9F853ECF1
:10431000192BFBF798FF53EC182BFCF706F8FCF76A
:1043200080F8606000EE106AB8EE400ADFED630AC4
:10433000B2EE041A08FB08F020EE200AC0EE010AD3
:1043400000EE100AB8EE400A80EE201ABCEEC10A58
:104350008DED000A02E097E004E074E010EE100A30
:1043600048B109E04FF0FF306061022020704FF447
:104370007A70606067E0009705FB09F106EB0900C1
:10438000B1FBF0F0019000B90197DDE90001814235
:1043900001D8481B03E07043B0FBF9F04042E060F5
:1043A000E06810B94FF0FF30E06000EE10AAB8EE00
:1043B000400A60EE0A0A00EE108AB8EE400A80EE6B
:1043C000801ABDEEC10A10EE100A206100EE106ADC
:1043D000F8EE400A8AEEA00A10EE100AFCF740F848
:1043E00041EC100B02F0E3FADBF80000B0EE409A6B
:1043F000F0EE609A0009FCF707F853EC1B2BFBF773
:1044000022FF53EC182BFBF790FFFCF73CF8FCF76E
:1044100027F853EC192BFBF716FF53EC182BFBF77F
:1044200084FFFBF7FEFF6060E0682844A0606068DE
:104430002169884204DC206960600320207000E06C
:104440002770002060611348077013481830006817
:10445000416AADF800106168BDF8002011440164A4
:1044600001220C21164801F02BFE0B481830FEF7F4
:1044700057FC03B00022BDEC088B4FF40051BDE89F
:10448000F04F0648FDF7FCBD03B0BDEC088BBDE85E
:10449000F08F000070010010A865001000140240A9
:1044A0004801001072D9A03B7059C4426F1283C0FA
:1044B000CAA1E53F0000000000002440CF0FC93D25
:1044C000000400402DE9F043234887B0002501682F
:1044D00041F004010160016801F0040105910168E7
:1044E00041F008010160016801F0080105910168CF
:1044F00041F0080101600068022400F00800009407
:10450000CDE904400194694603941448FDF7BAFCD0
:104510004FF480580126CDE90345DFF84490CDE9FA
:10452000008669464846FDF7ADFC2703CDE9034503
:10453000CDE9007669464846FDF7A4FC00224146D5
:104540004846FDF79DFD012239464846FDF798FD96
:1045500007B0BDE8F083000030380240000402409C
:1045600000140240F0B525488DB00025016841F0E7
:1045700002010160006800F002000B90FFF7A2FF4B
:10458000204C1F4E0F2040C44FF6FF77A1C41D489A
:1045900044F81059FEF708FBB014079007A9194812
:1045A000FEF7FAFB3020CDE9000702200290082038
:1045B000CDE9030505950C22694612480695FEF7DC
:1045C000E9FC00220C21304601F07AFD0022114660
:1045D0001D20FDF7CBFD1D20FDF7BAFD21686FF012
:1045E000100008612068C16841F01001C1602068B6
:1045F000416C41F4004141640DB0F0BD40380240CF
:1046000000040040C06500102DE9F04F05462DED77
:10461000088B83B0984691460E468E480078002855
:104620007ED18D4801278D4C4FF40041002D05DAD5
:1046300067700122FDF724FD6D4203E000226270E5
:10464000FDF71EFD012D6ED0002D6BD0DFF810B2EE
:10465000DA46DBF80000000900EE100AB8EE400A66
:104660009FED80AA60EE0A0A00EE108AB8EE400ABA
:1046700080EE801ABDEEC10A10EE100A206100EE35
:10468000106AF8EE400ADFED78AA8AEEA00A10EE72
:10469000100AFBF7E5FE41EC100B02F088F9DAF89E
:1046A0000000B0EE409A0009F0EE609A8246FBF7F7
:1046B000ABFE9FED6EBB53EC1B2BFBF7C4FD9FEDD8
:1046C0006D8B53EC182BFBF730FEFBF7DCFEFBF792
:1046D000C7FE53EC192BFBF7B6FD53EC182BFBF779
:1046E00024FEFBF79EFE606000EE106AB8EE400A02
:1046F000DFED620AB2EE041A08FB08F020EE200A91
:10470000C0EE010A00EE100AB8EE400A80EE201A50
:10471000BCEEC10A10EE100A8DED000A60B10CE08B
:1047200093E000E071E04FF0FF3060610220207004
:104730004FF47A70606068E0009705FB09F006EBC3
:104740000901B0FBF1F0019000B90197DDE900101B
:10475000884201D8401B04E001FB06F0B0FBF9F0F1
:104760004042E060E06810B94FF0FF30E06000EEDA
:1047700010AAB8EE400A60EE0A0A00EE108AB8EEFF
:10478000400A80EE801ABDEEC10A10EE100A2061C8
:1047900000EE106AF8EE400A8AEEA00A10EE100A47
:1047A000FBF75EFE41EC100B02F001F9DBF80000B4
:1047B000B0EE409AF0EE609A0009FBF725FE53EC4C
:1047C0001B2BFBF740FD53EC182BFBF7AEFDFBF763
:1047D0005AFEFBF745FE53EC192BFBF734FD53EC67
:1047E000182BFBF7A2FDFBF71CFE6060E068284475
:1047F000A06060682169884204DC20696060032051
:10480000207000E027700020606112480770134894
:1048100018300068416AADF800106168BDF80020EA
:104820001144416301220021154801F049FC0B4865
:104830001830FEF775FA03B00022BDEC088B012199
:10484000BDE8F04F0F48FDF71BBC03B0BDEC088B73
:10485000BDE8F08F7C0100100014024008660010D3
:104860004801001072D9A03B7059C4426F1283C036
:10487000CAA1E53F0000000000002440CF0FC93D61
:1048800000000140001802402DE9F041234886B0A5
:104890000026016841F004010160016801F0040193
:1048A0000591016841F008010160016801F008010B
:1048B0000591016841F0080101600068022400F0E0
:1048C000080005904FF40070CDE900040125694609
:1048D0001348CDE90345FDF7D5FACDE90346A70313
:1048E000DFF84080CDE9007569464046FDF7CAFA19
:1048F00000950195CDE903460B4C69462046FDF72E
:10490000C1FA002239464046FDF7BAFB01221146A2
:104910002046FDF7B5FB06B0BDE8F0813038024017
:10492000001002400014024000180240F0B5254873
:104930008DB00025016841F001010160006800F0C0
:1049400001000B90FFF7A0FF204C1F4E0F2040C42A
:104950004FF6FF77A1C41D4844F81059FEF724F91B
:10496000B014079007A91948FEF716FA3020CDE9D0
:104970000007022002900820CDE9030505950022DA
:10498000694612480695FEF705FB0022114630469F
:1049900001F096FB002211461B20FDF7E7FB1B20D0
:1049A000FDF7D6FB2168E81E08612068C16841F068
:1049B0000201C1602068416C41F4004141640DB0C6
:1049C000F0BD0000443802400000014020660010A5
:1049D0002DE9F04F05462DED088B83B098469146A2
:1049E0000E469048007800287DD101278E4C4FF468
:1049F0008041002D06DA677001228C48FDF740FBEC
:104A00006D4205E00020607002468848FDF738FBE3
:104A1000012D6FD0002D68D0DFF814B2DA46DBF834
:104A20000000000900EE100AB8EE400A9FED81AACE
:104A300060EE0A0A00EE108AB8EE400A80EE801A94
:104A4000BDEEC10A10EE100A206100EE106AF8EE09
:104A5000400ADFED79AA8AEEA00A10EE100AFBF7F1
:104A6000FFFC41EC100B01F0A2FFDAF80000B0EE01
:104A7000409A0009F0EE609A8246FBF7C5FC9FED74
:104A80006FBB53EC1B2BFBF7DEFB9FED6E8B53ECE8
:104A9000182BFBF74AFCFBF7F6FCFBF7E1FC53ECA9
:104AA000192BFBF7D0FB53EC182BFBF73EFCFBF765
:104AB000B8FC606000EE106AB8EE400ADFED630AF1
:104AC000B2EE041A08FB08F020EE200AC0EE010A3C
:104AD00000EE100AB8EE400A80EE201ABCEEC10AC1
:104AE0008DED000A02E097E004E074E010EE100A99
:104AF00048B109E04FF0FF306061022020704FF4B0
:104B00007A70606067E0009705FB09F106EB090029
:104B1000B1FBF0F0019000B90197DDE9000181429D
:104B200001D8481B03E07043B0FBF9F04042E0605D
:104B3000E06810B94FF0FF30E06000EE10AAB8EE68
:104B4000400A60EE0A0A00EE108AB8EE400A80EED3
:104B5000801ABDEEC10A10EE100A206100EE106A44
:104B6000F8EE400A8AEEA00A10EE100AFBF778FC75
:104B700041EC100B01F01BFFDBF80000B0EE409A97
:104B8000F0EE609A0009FBF73FFC53EC1B2BFBF7A0
:104B90005AFB53EC182BFBF7C8FBFBF774FCFBF735
:104BA0005FFC53EC192BFBF74EFB53EC182BFBF778
:104BB000BCFBFBF736FC6060E0682844A0606068DE
:104BC0002169884204DC206960600320207000E0D5
:104BD0002770002060611348077013481830006880
:104BE000416AADF800106168BDF8002011444163CE
:104BF00001220021164801F063FA0B481830FEF735
:104C00008FF803B00022BDEC088B4FF40041BDE8E3
:104C1000F04F0648FDF734BA03B0BDEC088BBDE891
:104C2000F08F00008801001068660010000C024040
:104C30004801001072D9A03B7059C4426F1283C062
:104C4000CAA1E53F0000000000002440CF0FC93D8D
:104C5000000C00402DE9F043234887B0002601688E
:104C600041F004010160016801F00401059101684F
:104C700041F008010160016801F008010591016837
:104C800041F008010160006802240125CDE90054CB
:104C900000F00800CDE90440694603941348FDF78D
:104CA000F1F8CDE903464FF48048DFF84490CDE9B0
:104CB000008569464846FDF7E5F8CDE90346A703B8
:104CC000CDE9007569464846FDF7DCF8002241460B
:104CD0004846FDF7D5F9012239464846FDF7D0F997
:104CE00007B0BDE8F0830000303802400000024009
:104CF000000C0240F0B525488DB00025016841F058
:104D000008010160006800F008000B90FFF7A2FFA7
:104D1000204C1F4E0F2040C44FF6FF77A1C41D4802
:104D200044F81059FDF740FFB014079007A919483F
:104D3000FEF732F83020CDE900070220029008206B
:104D4000CDE9030505950022694612480695FEF750
:104D500021F900221146304601F0B2F90022114635
:104D60003220FDF703FA3220FDF7F2F92168E81E40
:104D700008612068C16841F00201C1602068416C8F
:104D800041F4004141640DB0F0BD000040380240E4
:104D9000000C0040806600102DE9F04F87B0142110
:104DA0006846FBF745FA91480025016841F010017B
:104DB0000160016801F010010591016841F00401F2
:104DC0000160016801F004010591016841F02001D2
:104DD0000160016801F020010591016841F0800146
:104DE0000160016801F080010591016841F0010155
:104DF0000160016801F001010591016841F00201C3
:104E00000160016801F002010591016841F0400173
:104E10000160016801F040010591016841F008015D
:104E200001600068DFF8C89100F008004FF210043C
:104E30000590012221464846FDF722F9012242F25F
:104E40003F016C48FDF71CF9DFF8ACA101224CF2E0
:104E50003B115046FDF714F900224FF4E07165480C
:104E6000FDF70EF9DFF894B14FF46077012239466F
:104E70005846FDF705F94FF41948012241466048AC
:104E8000FDF7FEF8012239465E48FDF7F9F80122E8
:104E900003215D48FDF7F4F84FF6DC5002268DE85B
:104EA000610069465848FCF7EDFF0F208DE861006E
:104EB00069464846FCF7E6FF0094012469464846E7
:104EC0000194CDE90245FCF7DDFF50486946CDE984
:104ED000004002955846FCF7D5FF30208DE8610070
:104EE00069465846FCF7CEFF8DE870006946454894
:104EF000FCF7C8FFE002CDE9000569460294484688
:104F0000FCF7C0FF3F20CDE9000469463948CDE9F0
:104F10000245FCF7B7FF2002CDE90004CDE90246C7
:104F200069465046FCF7AEFF4FF472508DE86100C1
:104F300069465046FCF7A6FF4CF23B00CDE9000461
:104F400069465046CDE90245FCF79CFF4FF4A0703E
:104F50008DE83100694627480395FCF793FF8020D0
:104F600000901120CDE90105694622480395FCF720
:104F700089FFCDE9007469465846CDE90245FCF742
:104F800081FFCDE9008469461D48CDE90245FCF763
:104F900079FF4FF41C408DE8610069461548FCF725
:104FA00071FF6003CDE900040326CDE9024669469E
:104FB0001048FCF767FFCDE9007469461148CDE958
:104FC0000245FCF75FFFCDE9006469460E48CDE974
:104FD0000245FCF757FF002211460620FDF7C6F8F0
:104FE0000620FDF7B5F807B0BDE8F08F3038024075
:104FF0000014024000180240000C02400008024069
:1050000000000240000402400010024000001110A5
:10501000104810B50E4901604FF4827141600021C3
:105020008160C1604FF480220161C0E9051218223D
:10503000C0E90721416281620A21C162FDF768FB74
:10504000002803D0BDE81040FCF76CBE10BD000086
:1050500000300140F05F00100F4810B50D490160AD
:105060004FF48271416000218160C1604FF4802261
:105070000161C0E90512C1610162416281620A21D8
:10508000C162FDF745FB002803D0BDE81040FCF7E6
:1050900049BE10BD00380040486000100F4810B5F0
:1050A0000D4901604FF48271416000218160C1604F
:1050B0004FF400720161C0E90512C16101624162F1
:1050C00081620A21C162FDF723FB002803D0BDE8FD
:1050D0001040FCF727BE10BD003C0040A06000104F
:1050E00010B596B000240F94109411941294139458
:1050F0001C2108A81494FBF79BF820216846FBF7B5
:1051000097F82A4828490160A721C0E9011440F214
:10511000E731C0E903148021C0E90541FDF744FDF2
:1051200008B1FCF7FFFD4FF480500F900FA91F4806
:10513000FDF732FE08B1FCF7F5FD1C48FDF750FF06
:1051400008B1FCF7EFFD2020CDE9130413A917489F
:10515000FDF7E2FC08B1FCF7E5FD3020CDE90804DD
:105160000220CDE90A040C940D94002208A90F48EE
:105170000E94FDF70FFF08B1FCF7D4FD00944FF437
:105180000050CDE904400294019403946946074815
:105190000794FDF796FC08B1FCF7C4FD0348FDF742
:1051A00067FE16B010BD000000000140F86000105E
:1051B00010B58EB000240794089409940A940B94B7
:1051C0001C2168460C94FBF733F81E484FF08041D1
:1051D00001605321C0E9011440F2E731C0E9031432
:1051E0008461FDF7E1FC08B1FCF79CFD4FF48050B1
:1051F000079007A91348FDF7CFFD08B1FCF792FD12
:105200001048FDF7EDFE08B1FCF78CFD0B940BA9DF
:105210000C480C94FDF780FC08B1FCF783FD3020AE
:10522000CDE9000402200290042269460494054856
:10523000FDF7B0FE08B1FCF775FD0248FDF718FE5A
:105240000EB010BD4061001010B58EB00024079460
:10525000089409940A940B941C2168460C94FAF75C
:10526000E7FF1F481D4901605321C0E9011440F2C6
:10527000E731C0E903148461FDF796FC08B1FCF73F
:1052800051FD4FF48050079007A91548FDF784FDA4
:1052900008B1FCF747FD1248FDF7A2FE08B1FCF784
:1052A00041FD0B940BA90E480C94FDF735FC08B199
:1052B000FCF738FD3020CDE90004022002900C22DA
:1052C000694604940648FDF765FE08B1FCF72AFD1F
:1052D0000348FDF7CDFD0EB010BD000000040040F6
:1052E0008861001010B58EB00024079408940994CA
:1052F0000A940B941C2168460C94FAF799FF1F48F6
:105300001D4901605321C0E9011440F2E731C0E9B1
:1053100003148461FDF748FC08B1FCF703FD4FF46A
:105320008050079007A91548FDF736FD08B1FCF736
:10533000F9FC1248FDF754FE08B1FCF7F3FC0B949E
:105340000BA90E480C94FDF7E7FB08B1FCF7EAFC4B
:105350003020CDE900040220029000226946049426
:105360000648FDF717FE08B1FCF7DCFC0348FDF723
:105370007FFD0EB010BD000000080040D06100109D
:1053800010B58EB000240794089409940A940B94E5
:105390001C2168460C94FAF74BFF1F481D49016019
:1053A0005321C0E9011440F2E731C0E903148461DC
:1053B000FDF7FAFB08B1FCF7B5FC4FF480500790FD
:1053C00007A91548FDF7E8FC08B1FCF7ABFC12484B
:1053D000FDF706FE08B1FCF7A5FC0B940BA90E48DF
:1053E0000C94FDF799FB08B1FCF79CFC3020CDE94B
:1053F0000004022002900022694604940648FDF74A
:10540000C9FD08B1FCF78EFC0348FDF731FD0EB075
:1054100010BD0000000C0040186200101CB50024F4
:105420000E4800940C49019401605321C0E9011415
:1054300001218461C160FDF7B7FB08B1FCF772FC84
:105440000094694605480194FDF766FB002801D0E9
:10545000FCF768FC1CBD00000014004060620010F6
:1054600010B596B000240F941094119412941394D4
:105470001C2108A81494FAF7DBFE20216846FAF7ED
:10548000D7FE294827490160A721C0E9011440F24D
:10549000E731C0E9031444618461FDF785FB08B17D
:1054A000FCF740FC4FF480500F900FA91E48FDF709
:1054B00073FC08B1FCF736FC1B48FDF791FD08B101
:1054C000FCF730FC139413A917481494FDF724FB40
:1054D00008B1FCF727FC3020CDE908040220CDE913
:1054E0000A040C940D94002208A90F480E94FDF7AD
:1054F00051FD08B1FCF716FC00944FF40050CDE9C3
:105500000440029401940394694607480794FDF708
:10551000D8FA08B1FCF706FC0348FDF7A9FC16B061
:1055200010BD000000040140A86200100E4810B534
:105530000C4901604FF461414160002181600C22FF
:10554000C160C0E904128161C161FDF781FE08B14B
:10555000FCF7E8FBBDE81040012204490248FDF7D2
:10556000CDBF0000004C0040F062001009000010A8
:105570000E4810B50C4901604FF4614141600021B3
:1055800081600C22C160C0E904128161C161FDF734
:105590005FFE08B1FCF7C6FBBDE8104001220449DC
:1055A0000248FDF7ABBF000000500040346300101C
:1055B0000A0000100E4810B50C4901604FF461411B
:1055C0004160002181600C22C160C0E90412816148
:1055D000C161FDF73DFE08B1FCF7A4FBBDE810403A
:1055E000012204490248FDF789BF00000010014074
:1055F00078630010060000100E4810B50C490160D9
:105600004FF461414160002181600C22C160C0E91A
:1056100004128161C161FDF71BFE08B1FCF782FB3A
:10562000BDE81040012204490248FDF767BF0000B1
:1056300000440040BC630010070000100E4810B585
:105640000C4901604FF461414160002181600C22EE
:10565000C160C0E904128161C161FDF7F9FD08B1C3
:10566000FCF760FBBDE81040012204490248FDF749
:1056700045BF000000480040006400100800001012
:105680000E4810B50C4901604FF4614141600021A2
:1056900081600C22C160C0E904128161C161FDF723
:1056A000D7FD08B1FCF73EFBBDE8104001220449DC
:1056B0000248FDF723BF00000014014044640010BD
:1056C0000B000010FEE7FEE7F0B56C480122B0F8D1
:1056D0002811012903D0022901D0A0F828214FF474
:1056E0001663B0F81AC15C009D00DE001F014FF484
:1056F00061419C450BD0A44509D0AC4507D0B445C9
:1057000005D0BC4503D08C4501D0A0F81A11B0F8E3
:105710001CC19C450BD0A44509D0AC4507D0B4456D
:1057200005D0BC4503D08C4501D0A0F81C11B0F8C1
:105730001EC19C450BD0A44509D0AC4507D0B4454B
:1057400005D0BC4503D08C4501D0A0F81E11B0F89F
:1057500030C19C450BD0A44509D0AC4507D0B44519
:1057600005D0BC4503D08C4501D0A0F83011B0F86D
:1057700032C19C450BD0A44509D0AC4507D0B445F7
:1057800005D0BC4503D08C4501D0A0F832113C496E
:105790004FF480340023D1F80452A54201DBC1F854
:1057A0000432D1F80852A54201DBC1F80832D1F821
:1057B0000C52A54201DBC1F80C32D1F81052A542BF
:1057C00001DBC1F81032D1F81452A54201DBC1F857
:1057D0001432D1F81852A54201DBC1F81832038EF9
:1057E0005B1E052B00D30286D1F88C33012B02DA25
:1057F000C1F88C2304E00F2B02DD0F23C1F88C339A
:10580000D1F88433012B02DAC1F8842304E01E2B83
:1058100002DD1E23C1F88433D1F87434012B02DA7F
:10582000C1F8742405E04FF4FA74A34201DDC1F815
:105830007444B0F83E1109B9A0F83E21B0F8401107
:1058400011B90221A0F84011B0F8421111B9032199
:10585000A0F84211B0F8441111B90421A0F8441184
:10586000B0F8461111B90521A0F84611B0F8481159
:10587000002902D10621A0F84811F0BDA00F002098
:10588000940500107047704701B582B04FF47A70EC
:105890000090012301AA02A90248FDF70DF89DF826
:1058A00004000EBDF05F0010012210210148FCF73A
:1058B000E7BB000000000240002210210148FCF775
:1058C000DFBB00000000024038B504461248134B0D
:1058D0000068B0FBF3F04FF47A73584300906068AF
:1058E000B0F5827F0DD10B46009200228021204628
:1058F00000F016F870B1606D40F020006065032084
:1059000038BD009830B1401E009020688068C043C8
:105910000006F6D5002038BD4801001000366E01A3
:105920002DE9F8431E46914688460446089DFCF73B
:10593000ADFB401B351AFCF7A9FB0746254800685C
:10594000C0F3CB30684338E0701C37D0FCF79EFBC7
:10595000C01BA84203D215B1009860B32CE02068A8
:10596000416821F0E00141606068B0F5827F0BD1B1
:10597000A068B0F5004F02D0B0F5806F04D1206868
:10598000016821F040010160A06AB0F5005F09D113
:105990002068016821F4005101602068016841F429
:1059A00000510160012084F85100002084F850006B
:1059B0000320BDE8F8830025401E00902068816820
:1059C00038EA010004D000214945BDD10020F0E7AC
:1059D0000121F9E748010010704700000A480178EA
:1059E000491CCAB2002102700A2A03D3017042780E
:1059F000521C42704278642A03D341708178491C5A
:105A00008170FCF749BB00006E00001030B593B008
:105A100030216846FAF70CFC14210CA8FAF708FCB0
:105A20001C480025016841F080510160006800F0C9
:105A3000805011901848016841F48041016000686D
:105A4000022400F480401190012000900004019095
:105A50008001CDE9064008AA0420A82182E81300AD
:105A60000B906846FCF79EFC08B172B6FEE70CA9E5
:105A70000F2081E831004FF4A0500F9010900521C5
:105A80000CA8FCF7A5FB002801D072B6FEE713B006
:105A900030BD0000403802400070004005480168F9
:105AA00041F47001016003494FF0006080390860E3
:105AB0007047000088ED00E038B50022ADF8002006
:105AC0002F4C2068C168C943890718D4D51E0561C9
:105AD0002C488168491C81608168C9070FD14378CF
