:020000040800F2
:10000000289500209D010008174A00083133000898
:10001000154A000801030008A75900080000000065
:10002000000000000000000000000000294D000852
:100030006119000800000000D74B0008B54D00080A
:10004000B7010008B7010008B7010008B7010008B0
:10005000B7010008B701000863190008B7010008DC
:10006000B7010008B7010008B7010008B701000890
:10007000B7010008B7010008B7010008B701000880
:10008000B7010008B7010008B7010008B701000870
:10009000B7010008B7010008B7010008B701000860
:1000A000B7010008B7010008B7010008914E000829
:1000B0006D4F00084950000829510008B701000899
:1000C000B7010008B7010008B7010008B701000830
:1000D000B7010008415900084D5900085959000856
:1000E000B7010008B7010008B7010008B701000810
:1000F000B7010008B7010008E1520008B701000885
:10010000B7010008B701000805520008B701000850
:10011000915600089D560008B7010008B701000875
:10012000B7010008B7010008B7010008B7010008CF
:10013000B7010008B7010008B7010008B7010008BF
:10014000B7010008B7010008B7010008B7010008AF
:10015000B7010008B7010008B70100086559000899
:10016000B7010008B7010008B7010008B70100088F
:10017000B7010008B7010008B7010008000000003F
:10018000B7010008B7010008DFF80CD000F07AF8DA
:1001900000480047395F000828950020064880473E
:1001A00006480047FEE7FEE7FEE7FEE7FEE7FEE75C
:1001B000FEE7FEE7FEE7FEE7754E0008890100084E
:1001C0002DE9F05F0546002092469B46884606468C
:1001D000814640241BE0284641464746224600F01F
:1001E00041F853465A46C01A914110D31146184659
:1001F000224600F028F82D1A67EB01084F462246E8
:100200000120002100F01FF817EB00094E41201ECD
:10021000A4F10104DFDC484631462A464346BDE8E6
:10022000F09FD2B201E000F8012B491EFBD27047CB
:100230000022F6E710B513460A4604461946FFF7B2
:10024000F0FF204610BD202A04DB203A00FA02F11C
:10025000002070479140C2F1200320FA03F31943B4
:1002600090407047202A04DB203A21FA02F0002156
:10027000704721FA02F3D040C2F1200291400843B6
:1002800019467047064C074D06E0E06840F0010350
:1002900094E8070098471034AC42F6D3FFF778FF94
:1002A000C4620008E462000870B58C1810F8015BA5
:1002B00015F0070301D110F8013B2A1106D110F8FF
:1002C000012B03E010F8016B01F8016B5B1EF9D103
:1002D0002B0705D40023521E0DD401F8013BFAE789
:1002E00010F8013BCB1A921C03E013F8015B01F8F4
:1002F000015B521EF9D5A142D8D3002070BD7047D2
:10030000FEE7000070B5094DFF22134605F5807623
:1003100006E000BF10F8014B54402A5D5A40335D9F
:10032000491EC9B2F6D243EA022070BD7A600008C5
:1003300070B505462DED088BF0EE418AB0EE408A8F
:10034000B6EE009AB0EE61BA002470EEE8AA28EE8C
:1003500009AAF7EE009ADFED17BA1EE000EE104A88
:10036000B8EEC00A08EE490A60EE0B0A80EE8A0A6F
:10037000B1EE400A05F0C2FC70EE290A89EEA00A2F
:10038000F0EE680A4AEE800A8BEEA00ABCEEC00AC4
:1003900010EE100A25F81400641C00EE104AB8EEA6
:1003A000C00AB4EEC80AF1EE10FAD7D3BDEC088B40
:1003B00070BD00008096184B2DE9F041344A0025AD
:1003C0001088002861D03349334B09781C88A1423A
:1003D0005BD0198031490B885B1C9BB20B80052BCD
:1003E00053D92F4F00262F4C388090460E80FF287F
:1003F00034D82D4A2178B2F83E2191422FD1801E67
:10040000C1B22046FFF77EFF3A88010A2244C0B2FB
:1004100012F8023C8B421FD112F8011C81421BD101
:1004200060780121214A032807D0102807D001282D
:100430000DD006280ED0012511E01D4800E01D4812
:100440000170A078E17801EB0020108007E01A48E5
:10045000017004E01948F3E7022500E004250122B9
:100460001749184802F06CFEA8F80060002D0CD067
:1004700000202654401C80B21428FAD3BDE8F04175
:1004800001220F490F4802F05BBEBDE8F081000079
:100490000C00002056000020C4000020C6000020F0
:1004A000B8000020E81B002058150020BE000020E6
:1004B000C0000020C1000020C2000020C3000020B6
:1004C00006000020D88D00202DE9F05FDFF848827B
:1004D000934A9449002398F80040DFF840C21088FE
:1004E0004F79DFF844E29B464FF4006641F28835CD
:1004F000002C6AD00B788EF800304B788EF80130E3
:100500007B0074468EF80230B04203D2BCF828312A
:10051000012B06D0A84233D3BCF82801012816D0FD
:100520002EE07E4D804E00200DE0138806EB400744
:1005300005EB430333F81030401C4FEA132C87F8C7
:1005400003C03B71C0B24B798342EED818E0774DBF
:10055000754E002011E0138806EB400705EB83037E
:1005600003EB8003A3F5A043401CB3F8E031C0B215
:100570004FEA132C87F803C03B714B798342EAD8CA
:10058000A078C01CC1B26848FFF7BCFE6849020AE7
:1005900008806549A378C91C5A54A278491C4FF6B3
:1005A000FF735054A2786348521D6349028088F853
:1005B00000B0A1F800B05C49604802F05FFEBDE801
:1005C000F05F20215E4801F075BB5E4CDFF878A13A
:1005D00094F800809AF80040C14658EA04087DD09B
:1005E00041F27078404504D9BCF81280B8F5FA6F32
:1005F0005AD10123A0F12D02062A08D8DFF84C8138
:10060000A8F80020DFF84881012288F800209CB17A
:10061000444AB0421479527902EB042202D22CF8F7
:10062000102041E0A8423FD3404C04EB8000A0F5ED
:10063000A040C0F8E02137E0B9F1000F34D0642FBA
:1006400032D2374AB04214D2364E344C00200CE03D
:1006500006EB4007FD793F7A07EB0525178804EB89
:10066000470727F81050401CC0B24D798542EFD89B
:100670001AE0A84218D32B4D2C4C002011E000BFEB
:1006800005EB4006F779367A06EB0726178804EB68
:10069000870707EB8007A7F5A047401CC0B2C7F843
:1006A000E0614E798642EBD802208EF8000048784F
:1006B0008EF8010088788EF80200C8788EF8030062
:1006C00008798EF80400487974468EF8050013B94D
:1006D000FF20207160710621134800E019E0FFF748
:1006E00011FE13494FF6FF730880010AA171E071F2
:1006F0001048082213490280104881F800B00E49C2
:100700008AF800B0A1F800B0BDE8F05F064902F039
:10071000B5BDBDE8F09F0000C000002058150020C6
:10072000BE000020E81B002044760020E4210020C9
:10073000BC000020BA000020B6000020D88D0020A8
:10074000000C0240C1000020C30000205E00002019
:100750006E0000202DE9F041344A00251088002861
:1007600061D03349334B09781C88A1425BD0198092
:1007700031490B885B1C9BB20B80052B53D92F4F43
:1007800000262F4C388090460E80FF2834D82D4A02
:100790002178B2F8402191422FD1801EC1B220466B
:1007A000FFF7B0FD3A88010A2244C0B212F8023CB9
:1007B0008B421FD112F8011C81421BD160780121AC
:1007C000214A032807D0102807D001280DD0062879
:1007D0000ED0012511E01D4800E01D480170A078F1
:1007E000E17801EB0020108007E01A48017004E076
:1007F0001948F3E7022500E00425012217491848AB
:1008000002F09EFCA8F80060002D0CD000202654B9
:10081000401C80B21428FAD3BDE8F04101220F49F0
:100820000F4802F08DBCBDE8F08100000E000020F2
:1008300056000020D6000020D8000020CA0000206A
:10084000E71C002058150020D0000020D200002016
:10085000D3000020D4000020D50000200700002095
:100860001C8E00202DE9F05FDFF84882934A9449FE
:10087000002398F80040DFF840C210884F79DFF875
:1008800044E29B464FF4006641F28835002C6AD062
:100890000B788EF800304B788EF801307B00744670
:1008A0008EF80230B04203D2BCF82831012B06D0BA
:1008B000A84233D3BCF82801012816D02EE07E4D83
:1008C000804E00200DE0138806EB400705EB430344
:1008D00033F81030401C4FEA132C87F803C03B71EB
:1008E000C0B24B798342EED818E0774D754E0020A8
:1008F00011E0138806EB400705EB830303EB80034D
:10090000A3F5A043401CB3F8E031C0B24FEA132C6A
:1009100087F803C03B714B798342EAD8A078C01CAA
:10092000C1B26848FFF7EEFC6849020A08806549D1
:10093000A378C91C5A54A278491C4FF6FF7350542F
:10094000A2786348521D6349028088F800B0A1F87C
:1009500000B05C49604802F091FCBDE8F05F1021F6
:100960005E4801F0A7B95E4CDFF878A194F80080EA
:100970009AF80040C14658EA04087DD041F27078E8
:10098000404504D9BCF81280B8F5FA6F5AD101235A
:10099000A0F12D02062A08D8DFF84C81A8F8002023
:1009A000DFF84881012288F800209CB1444AB04217
:1009B0001479527902EB042202D22CF8102041E083
:1009C000A8423FD3404C04EB8000A0F5A040C0F803
:1009D000E02137E0B9F1000F34D0642F32D2374A2A
:1009E000B04214D2364E344C00200CE006EB4007E7
:1009F000FD793F7A07EB0525178804EB470727F8B1
:100A00001050401CC0B24D798542EFD81AE0A84280
:100A100018D32B4D2C4C002011E000BF05EB4006F5
:100A2000F779367A06EB0726178804EB870707EB7A
:100A30008007A7F5A047401CC0B2C7F8E0614E7917
:100A40008642EBD802208EF8000048788EF801002C
:100A500088788EF80200C8788EF8030008798EF83E
:100A60000400487974468EF8050013B9FF20207100
:100A700060710621134800E019E0FFF743FC1349B9
:100A80004FF6FF730880010AA171E0711048082237
:100A900013490280104881F800B00E498AF800B06E
:100AA000A1F800B0BDE8F05F064902F0E7BBBDE881
:100AB000F09F0000D200002058150020D000002038
:100AC000E71C002043770020E4210020CE00002016
:100AD000CC000020C80000201C8E0020000C02402A
:100AE000D3000020D50000205E0000206E00002012
:100AF0002DE9F041344A00251088002861D033499F
:100B0000334B09781C88A1425BD0198031490B888E
:100B10005B1C9BB20B80052B53D92F4F00262F4C0B
:100B2000388090460E80FF2834D82D4A2178B2F8BC
:100B3000422191422FD1801EC1B22046FFF7E2FB35
:100B40003A88010A2244C0B212F8023C8B421FD1FB
:100B500012F8011C81421BD160780121214A03282F
:100B600007D0102807D001280DD006280ED0012567
:100B700011E01D4800E01D480170A078E17801EB0C
:100B80000020108007E01A48017004E01948F3E7DC
:100B9000022500E0042501221749184802F0D0FA86
:100BA000A8F80060002D0CD000202654401C80B214
:100BB0001428FAD3BDE8F04101220F490F4802F092
:100BC000BFBABDE8F08100001000002056000020F0
:100BD000E8000020EA000020DC000020E61D0020E4
:100BE00058150020E2000020E4000020E50000206D
:100BF000E6000020E700002008000020608E0020B2
:100C00002DE9F05FDFF84882934A9449002398F871
:100C10000040DFF840C210884F79DFF844E29B467D
:100C20004FF4006641F28835002C6AD00B788EF8BC
:100C300000304B788EF801307B0074468EF802301D
:100C4000B04203D2BCF82831012B06D0A84233D3DE
:100C5000BCF82801012816D02EE07E4D804E0020E1
:100C60000DE0138806EB400705EB430333F8103023
:100C7000401C4FEA132C87F803C03B71C0B24B797C
:100C80008342EED818E0774D754E002011E01388AE
:100C900006EB400705EB830303EB8003A3F5A043BA
:100CA000401CB3F8E031C0B24FEA132C87F803C000
:100CB0003B714B798342EAD8A078C01CC1B2684826
:100CC000FFF720FB6849020A08806549A378C91C20
:100CD0005A54A278491C4FF6FF735054A2786348C7
:100CE000521D6349028088F800B0A1F800B05C4949
:100CF000604802F0C3FABDE8F05F08215E4800F0EA
:100D0000D9BF5E4CDFF878A194F800809AF80040D3
:100D1000C14658EA04087DD041F27078404504D9B4
:100D2000BCF81280B8F5FA6F5AD10123A0F12D0258
:100D3000062A08D8DFF84C81A8F80020DFF848819F
:100D4000012288F800209CB1444AB04214795279BB
:100D500002EB042202D22CF8102041E0A8423FD33B
:100D6000404C04EB8000A0F5A040C0F8E02137E043
:100D7000B9F1000F34D0642F32D2374AB04214D2C6
:100D8000364E344C00200CE006EB4007FD793F7AEC
:100D900007EB0525178804EB470727F81050401C80
:100DA000C0B24D798542EFD81AE0A84218D32B4D36
:100DB0002C4C002011E000BF05EB4006F779367A95
:100DC00006EB0726178804EB870707EB8007A7F5D4
:100DD000A047401CC0B2C7F8E0614E798642EBD80C
:100DE00002208EF8000048788EF8010088788EF88E
:100DF0000200C8788EF8030008798EF8040048795C
:100E000074468EF8050013B9FF2020716071062129
:100E1000134800E019E0FFF775FA13494FF6FF7326
:100E20000880010AA171E07110480822134902806C
:100E3000104881F800B00E498AF800B0A1F800B05F
:100E4000BDE8F05F064902F019BABDE8F09F000066
:100E5000E400002058150020E2000020E61D0020DC
:100E600042780020E4210020E0000020DE00002085
:100E7000DA000020608E0020000C0240E500002017
:100E8000E70000205E0000206E0000202DE9F04108
:100E9000344A00251088002861D03349334B097843
:100EA0001C88A1425BD0198031490B885B1C9BB226
:100EB0000B80052B53D92F4F00262F4C388090469E
:100EC0000E80FF2834D82D4A2178B2F8442191426F
:100ED0002FD1801EC1B22046FFF714FA3A88010ACA
:100EE0002244C0B212F8023C8B421FD112F8011CFE
:100EF00081421BD160780121214A032807D01028A4
:100F000007D001280DD006280ED0012511E01D487C
:100F100000E01D480170A078E17801EB002010800E
:100F200007E01A48017004E01948F3E7022500E0E1
:100F3000042501221749184802F002F9A8F80060B8
:100F4000002D0CD000202654401C80B21428FAD367
:100F5000BDE8F04101220F490F4802F0F1B8BDE8A9
:100F6000F08100001200002056000020FA0000204E
:100F7000FC000020EE000020E51E00205815002097
:100F8000F4000020F6000020F7000020F800002008
:100F9000F900002009000020508D00202DE9F05FAD
:100FA000DFF84882934A9449002398F80040DFF81C
:100FB00040C210884F79DFF844E29B464FF4006648
:100FC00041F28835002C6AD00B788EF800304B78CF
:100FD0008EF801307B0074468EF80230B04203D2A6
:100FE000BCF82831012B06D0A84233D3BCF8280125
:100FF000012816D02EE07E4D804E00200DE0138893
:1010000006EB400705EB430333F81030401C4FEA72
:10101000132C87F803C03B71C0B24B798342EED8E2
:1010200018E0774D754E002011E0138806EB40075D
:1010300005EB830303EB8003A3F5A043401CB3F847
:10104000E031C0B24FEA132C87F803C03B714B79F3
:101050008342EAD8A078C01CC1B26848FFF752F9B1
:101060006849020A08806549A378C91C5A54A278C5
:10107000491C4FF6FF735054A2786348521D6349D0
:10108000028088F800B0A1F800B05C49604802F026
:10109000F5F8BDE8F05F08215E4800F00BBE5E4C3D
:1010A000DFF878A194F800809AF80040C14658EA29
:1010B00004087DD041F27078404504D9BCF8128014
:1010C000B8F5FA6F5AD10123A0F12D02062A08D8EB
:1010D000DFF84C81A8F80020DFF84881012288F869
:1010E00000209CB1444AB0421479527902EB0422A8
:1010F00002D22CF8102041E0A8423FD3404C04EB30
:101100008000A0F5A040C0F8E02137E0B9F1000F61
:1011100034D0642F32D2374AB04214D2364E344CD7
:1011200000200CE006EB4007FD793F7A07EB052530
:10113000178804EB470727F81050401CC0B24D79C0
:101140008542EFD81AE0A84218D32B4D2C4C002032
:1011500011E000BF05EB4006F779367A06EB07266B
:10116000178804EB870707EB8007A7F5A047401C0B
:10117000C0B2C7F8E0614E798642EBD802208EF803
:10118000000048788EF8010088788EF80200C87850
:101190008EF8030008798EF80400487974468EF8BA
:1011A000050013B9FF20207160710621134800E08B
:1011B00019E0FFF7A7F813494FF6FF730880010AFB
:1011C000A171E0711048082213490280104881F88B
:1011D00000B00E498AF800B0A1F800B0BDE8F05F99
:1011E000064902F04BB8BDE8F09F0000F600002071
:1011F00058150020F4000020E51E00204179002051
:10120000E4210020F2000020F0000020EC0000208B
:10121000508D0020000C0240F7000020F900002053
:101220005E0000206E0000202DE9F041344A0025C8
:101230001088002861D03349334B09781C88A142BB
:101240005BD0198031490B885B1C9BB20B80052B4E
:1012500053D92F4F00262F4C388090460E80FF2800
:1012600034D82D4A2178B2F8462191422FD1801EE0
:10127000C1B22046FFF746F83A88010A2244C0B2BC
:1012800012F8023C8B421FD112F8011C81421BD183
:1012900060780121214A032807D0102807D00128AF
:1012A0000DD006280ED0012511E01D4800E01D4894
:1012B0000170A078E17801EB0020108007E01A4867
:1012C000017004E01948F3E7022500E0042501223B
:1012D0001749184801F034FFA8F80060002D0CD021
:1012E00000202654401C80B21428FAD3BDE8F041F7
:1012F00001220F490F4801F023BFBDE8F081000033
:1013000014000020560000200C0100200E010020D7
:1013100000010020E41F00205815002006010020D5
:1013200008010020090100200A0100200B01002013
:101330000A000020948D00202DE9F05FDFF848823C
:10134000934A9449002398F80040DFF840C210887F
:101350004F79DFF844E29B464FF4006641F288354E
:10136000002C6AD00B788EF800304B788EF8013064
:101370007B0074468EF80230B04203D2BCF82831AC
:10138000012B06D0A84233D3BCF82801012816D07F
:101390002EE07E4D804E00200DE0138806EB4007C6
:1013A00005EB430333F81030401C4FEA132C87F849
:1013B00003C03B71C0B24B798342EED818E0774D41
:1013C000754E002011E0138806EB400705EB830300
:1013D00003EB8003A3F5A043401CB3F8E031C0B297
:1013E0004FEA132C87F803C03B714B798342EAD84C
:1013F000A078C01CC1B26848FEF784FF6849020AA1
:1014000008806549A378C91C5A54A278491C4FF634
:10141000FF735054A2786348521D6349028088F8D4
:1014200000B0A1F800B05C49604801F027FFBDE8BA
:10143000F05F02215E4800F03DBC5E4CDFF878A111
:1014400094F800809AF80040C14658EA04087DD01C
:1014500041F27078404504D9BCF81280B8F5FA6FB3
:101460005AD10123A0F12D02062A08D8DFF84C81B9
:10147000A8F80020DFF84881012288F800209CB1FC
:10148000444AB0421479527902EB042202D22CF879
:10149000102041E0A8423FD3404C04EB8000A0F56F
:1014A000A040C0F8E02137E0B9F1000F34D0642F3C
:1014B00032D2374AB04214D2364E344C00200CE0BF
:1014C00006EB4007FD793F7A07EB0525178804EB0B
:1014D000470727F81050401CC0B24D798542EFD81D
:1014E0001AE0A84218D32B4D2C4C002011E000BF6D
:1014F00005EB4006F779367A06EB0726178804EBEA
:10150000870707EB8007A7F5A047401CC0B2C7F8C4
:10151000E0614E798642EBD802208EF800004878D0
:101520008EF8010088788EF80200C8788EF80300E3
:1015300008798EF80400487974468EF8050013B9CE
:10154000FF20207160710621134800E019E0FEF7CA
:10155000D9FE13494FF6FF730880010AA171E071AB
:101560001048082213490280104881F800B00E4943
:101570008AF800B0A1F800B0BDE8F05F064901F0BC
:101580007DBEBDE8F09F0000080100205815002036
:1015900006010020E41F0020407A0020E421002002
:1015A0000401002002010020FE000020948D002094
:1015B000000C0240090100200B0100205E00002009
:1015C0006E0000202DE9F041344A002510880028E3
:1015D00061D03349334B09781C88A1425BD0198014
:1015E00031490B885B1C9BB20B80052B53D92F4FC5
:1015F00000262F4C388090460E80FF2834D82D4A84
:101600002178B2F8482191422FD1801EC1B22046E4
:10161000FEF778FE3A88010A2244C0B212F8023C72
:101620008B421FD112F8011C81421BD1607801212D
:10163000214A032807D0102807D001280DD00628FA
:101640000ED0012511E01D4800E01D480170A07872
:10165000E17801EB0020108007E01A48017004E0F7
:101660001948F3E7022500E004250122174918482C
:1016700001F066FDA8F80060002D0CD00020265473
:10168000401C80B21428FAD3BDE8F04101220F4972
:101690000F4801F055BDBDE8F081000016000020A4
:1016A000560000201E010020200100201201002011
:1016B000E320002058150020180100201A01002006
:1016C0001B0100201C0100201D0100200B00002038
:1016D000A48E00202DE9F05FDFF84882934A9449F8
:1016E000002398F80040DFF840C210884F79DFF8F7
:1016F00044E29B464FF4006641F28835002C6AD0E4
:101700000B788EF800304B788EF801307B007446F1
:101710008EF80230B04203D2BCF82831012B06D03B
:10172000A84233D3BCF82801012816D02EE07E4D04
:10173000804E00200DE0138806EB400705EB4303C5
:1017400033F81030401C4FEA132C87F803C03B716C
:10175000C0B24B798342EED818E0774D754E002029
:1017600011E0138806EB400705EB830303EB8003CE
:10177000A3F5A043401CB3F8E031C0B24FEA132CEC
:1017800087F803C03B714B798342EAD8A078C01C2C
:10179000C1B26848FEF7B6FD6849020A088065498B
:1017A000A378C91C5A54A278491C4FF6FF735054B1
:1017B000A2786348521D6349028088F800B0A1F8FE
:1017C00000B05C49604801F059FDBDE8F05F0121BF
:1017D0005E4800F06FBA5E4CDFF878A194F80080A4
:1017E0009AF80040C14658EA04087DD041F270786A
:1017F000404504D9BCF81280B8F5FA6F5AD10123DC
:10180000A0F12D02062A08D8DFF84C81A8F80020A4
:10181000DFF84881012288F800209CB1444AB04298
:101820001479527902EB042202D22CF8102041E004
:10183000A8423FD3404C04EB8000A0F5A040C0F884
:10184000E02137E0B9F1000F34D0642F32D2374AAB
:10185000B04214D2364E344C00200CE006EB400768
:10186000FD793F7A07EB0525178804EB470727F832
:101870001050401CC0B24D798542EFD81AE0A84202
:1018800018D32B4D2C4C002011E000BF05EB400677
:10189000F779367A06EB0726178804EB870707EBFC
:1018A0008007A7F5A047401CC0B2C7F8E0614E7999
:1018B0008642EBD802208EF8000048788EF80100AE
:1018C00088788EF80200C8788EF8030008798EF8C0
:1018D0000400487974468EF8050013B9FF20207182
:1018E00060710621134800E019E0FEF70BFD134973
:1018F0004FF6FF730880010AA171E07110480822B9
:1019000013490280104881F800B00E498AF800B0EF
:10191000A1F800B0BDE8F05F064901F0AFBCBDE83A
:10192000F09F00001A010020581500201801002027
:10193000E32000203F7B0020E4210020160100204E
:101940001401002010010020A48E0020000C024091
:101950001B0100201D0100205E0000206E00002001
:101960007047012000F0A4B872B6FEE72DE9F041FF
:101970000446876D00F0ACF9064694F83500002562
:10198000022806D08020606584F834500120BDE82C
:10199000F0812068016821F016010160206841692A
:1019A00021F080014161206C08B9A06C20B1206851
:1019B000016821F0080101602068016821F001013F
:1019C00001600BE000F084F9801B052806D9202077
:1019D000606504F8345F03206070D8E72068006811
:1019E000C007EFD194F85C103F208840B86004F83D
:1019F000345F012060700020C9E790F8351002299B
:101A000003D08021416501207047052180F8351001
:101A10000068016821F001010160002070470000AA
:101A200070B5044600F054F90546601C02D0044825
:101A30000078044400F04CF9401BA042FAD370BD7A
:101A40003C01002010B5012828D1112104F020F913
:101A5000C00703D01249012004F0E6FA1121022048
:101A600004F016F9800703D50E49022004F0DCFAD1
:101A70001121032004F00CF9400703D50A49032083
:101A800004F0D2FA1121042004F002F9000705D570
:101A9000BDE810400549042004F0C6BA10BD00009E
:101AA000BC010020BB020020BA030020B9040020C2
:101AB000044910B50A68024202D00860FFF7C2FF6D
:101AC00010BD0000143C01402DE9F84FDFF8B8A12B
:101AD000002201250AF1040B03264FF00F090BF138
:101AE000040E00BF0B6805FA02F42340A3426FD135
:101AF0000F7907F00307012F01D0022F16D1876855
:101B00004FEA420806FA08FC27EA0C07D1F80CC095
:101B10000CFA08FC4CEA070CC0F808C04768A74359
:101B20000C79C4F3001494403C4344600C79E443C2
:101B3000A4070AD0C4684FEA420C06FA0CF7BC436B
:101B40008F6807FA0CF72743C7600C7904F0030489
:101B5000022C12D1D40800EB840CDCF8204057078B
:101B6000FF0E09FA07F824EA0804D1F8108008FAF1
:101B700007F848EA0408CCF8208004684FEA420CD1
:101B800006FA0CF7BC430F7907F0030707FA0CF7C6
:101B9000274307604C68E40070D53C4C276847F445
:101BA00080472760246822F0030704F480440094EF
:101BB000374C07EB040CDCF8084897074FEA177816
:101BC00009FA08F7BC43334FB84202D1002724E09A
:101BD00054E0314FB84201D101271EE02F4FB842E7
:101BE00001D1022719E02E4FB84201D1032714E09A
:101BF0002C4FB84201D104270FE02B4FB84201D13E
:101C000005270AE0294FB84201D1062705E0284FF1
:101C1000B84201D1072700E0082707FA08F7274351
:101C2000CCF80878DAF800405746D1F804C09C4355
:101C30005FEACC3C00D51C433C60DBF800405F46CB
:101C4000D1F804C09C435FEA8C3C00D51C433C6047
:101C5000DEF800407746D1F804C09C435FEACC2C04
:101C600000D51C433C60084F0C373C68D1F804C0D9
:101C70009C435FEA8C2C00D51C433C60521C102A0C
:101C8000FFF430AFBDE8F88F003C0140443802401B
:101C90000030014000000240000402400008024001
:101CA000000C0240001002400014024000180240E4
:101CB000001C0240426921EA02030A4043EA024151
:101CC000816170470AB1816170470904FBE7000038
:101CD00001488068704700003C010020024881688C
:101CE00002781144816070473C0100200B4810B518
:101CF000016841F400710160016841F48061016094
:101D0000016841F480710160032000F071F8002047
:101D100000F006F800F024F8002010BD003C02405E
:101D200070B50D4D04464FF47A712878B1FBF0F090
:101D30000A490968B1FBF0F000F0D1FC48B9102C59
:101D400007D200222146501E00F032F800206C60BD
:101D500070BD012070BD00003C0100204801002042
:101D60000B4882B0016841F480410160006800F4D2
:101D7000804000900648001F016841F080510160DA
:101D8000006800F080500090052002B000F030B8EC
:101D900044380240002809DB00F01F020121914075
:101DA0004009800000F1E020C0F8001170470000F9
:101DB000F0B40E4B1B680C46C3F30223C3F10705B6
:101DC000042D00D90425191D072901D2002300E0A4
:101DD000DB1E012606FA05F1491E214099409E406E
:101DE000761E16403143F0BC03F078BF0CED00E0E6
:101DF000064900F0070208684FF6FF03184040EA62
:101E00000220034A10430860704700000CED00E018
:101E10000000FA052DE9F0470E46050065D0DFF811
:101E20001481D8F80000F7B200F00700B04207D2E2
:101E300088F80070D8F8000000F00700B04254D1D4
:101E400028683D4C810712D5400703D5206840F42F
:101E5000E05020602878000703D5206840F46040F7
:101E600020602068A96820F0F000084320602878EE
:101E7000C0072DD0304968680839012812D00228DF
:101E800013D0032811D00968890700292DDA2168A9
:101E900021F0030101432160FFF71AFF814641F25F
:101EA000883A0EE009688903EFE709688901ECE7E1
:101EB000FFF70EFFA0EB0901514502D90320BDE851
:101EC000F0872068696800F00C00B0EB810FEFD15B
:101ED000D8F80010404601F00701B14207D9077059
:101EE000006800F00700B04201D00120E7E7287841
:101EF000400705D52068E96820F4E05008432060D9
:101F00002878000706D52068296920F4604040EA57
:101F1000C100206000F038F82168084AC1F30311BD
:101F2000515CC8400649086006480068FFF7F8FEA3
:101F30000020C4E7003C0240083802407A620008F2
:101F40004801002040010020044805490068096854
:101F5000044AC1F38221515CC84070474801002007
:101F6000083802408A620008044805490068096888
:101F7000044AC1F34231515CC84070474801002017
:101F8000083802408A620008154810B5006810F051
:101F90000C02144813D04110042A0FD0082A0ED185
:101FA0000F4C241F2268236802F03F025B0207D512
:101FB0002068C0F38810A0FB010106E0084610BDB0
:101FC0002168C1F38811A1FB00010023FEF7F8F896
:101FD0002168C1F30141491C4900B0FBF1F010BD7B
:101FE000083802400024F4002DE9F84F04006ED0B8
:101FF0002078DFF84C93C007A9F104054AD009F115
:1020000004000168C1F38101012908D00068C0F310
:10201000810002280AD1D9F80000400206D52868BC
:10202000800337D560680028E1D033E06068B0F500
:10203000803F10D0B0F5A02F286810D020F4803059
:102040002860286820F4802028606068A8B1FFF725
:102050003FFE06460DE0286840F48030F4E740F487
:1020600080202860F7E700BFFFF732FE801B64285E
:1020700073D828688003F7D50CE0FFF729FE0646E1
:1020800005E000BFFFF724FE801B6428F0D8286815
:102090008003F7D42078DFF8AC8280074FF0000A85
:1020A0003ED5A748001D016811F00C0F08D000684C
:1020B000C0F3810002280BD1D9F80000400207D4F8
:1020C0002868800716D5E068012800D112E033E1C6
:1020D000E068B8B10120C8F80000FFF7F9FD064636
:1020E00005E000BFFFF7F4FD801B0228C0D8286878
:1020F0008007F7D52868216920F0F80040EAC10080
:1021000028600DE0C8F800A0FFF7E2FD064604E0F5
:10211000FFF7DEFD801B02281FD828688007F7D450
:102120002078000722D5864F87486169703771B1E2
:1021300001210160FFF7CCFD064604E0FFF7C8FD72
:10214000801B022809D838688007F7D50EE0C0F850
:1021500000A0FFF7BDFD064605E082E0FFF7B8FDF1
:10216000801B02287DD838688007F7D42078400784
:1021700068D5DFF8CCB100270BF13C0BDBF8000091
:10218000C0000BD4DBF8001041F08051CBF80010F8
:10219000DBF80000012700F0805000906B4E3068A3
:1021A000C00510D4306840F480703060FFF790FDB7
:1021B000009005E0FFF78CFD0099401A022850D8E6
:1021C0003068C005F6D55E4EA0686C3601280FD089
:1021D0000528306810D020F001003060306820F011
:1021E00004003060A068B8B1FFF772FD00900FE006
:1021F000306840F00100F4E740F004003060F7E799
:10220000FFF766FD0099411A41F28830814266D895
:1022100030688007F4D50EE0FFF75AFD009007E024
:10222000FFF756FD0099411A41F28830814256D895
:1022300030688007F4D42FB1DBF8001021F0805112
:10224000CBF80010A069C8B33D49091D0968C1F366
:10225000810102294AD00228504607D0C8F8600000
:1022600000E03CE0FFF734FD04463BE04746C8F899
:102270006000FFF72DFD064605E000BFFFF728FDD3
:10228000801B02282BD828688001F7D4D4E90701E5
:102290000843A16A2E4A490802EB0141626A41EAF9
:1022A0008211084394F82C1040EA0161C9F800102B
:1022B00001203866FFF70CFD044606E03EE000BF53
:1022C000FFF706FD001B022809D828688001F7D512
:1022D00034E000BFFFF7FCFC001B022802D90320FA
:1022E000BDE8F88F28688001F4D427E00128F7D0F2
:1022F000D9F80000E26900F4800191421CD1226A01
:1023000000F03F01914217D147F6C071626A014067
:10231000B1EB821F10D1A26A4FF0FF3300F44031BD
:1023200003EB5202B1EB024F06D194F82C1000F0EF
:102330007060B0EB016F01D00120D1E70020CFE742
:102340000438024000004742800E474200700040BF
:102350000000FFFF70B5040009D0606A002540B19D
:1023600025616561A56294F8510040B10CE001203F
:1023700070BD6068B0F5827FF4D0E561F2E784F863
:102380005050204600F044F8022084F851002068A4
:10239000016821F040010160A088218900F4827069
:1023A00001F404410843A18901F400610843217C40
:1023B00001F002010843217D01F001010843218B56
:1023C00001F400710843217F01F03801084394F8BB
:1023D000201001F080010843218D01F400510843D1
:1023E00021680860A069042101EA104094F82410D3
:1023F00001F010010843216848602068C16921F498
:102400000061C1616565012084F85100002070BD44
:10241000F0B587B0044614216846FDF709FF31483E
:1024200027680023304902240325052687421AD154
:102430002D481430026842F480520260006800F4B3
:1024400080500590086840F001000860086802AA02
:1024500000F001000590F020CDE9000482E868005A
:10246000694622481EE0204ADFF884C01032214825
:1024700067451BD1156845F480451560126802F464
:10248000804205920A6842F002020A60096802ADC1
:1024900001F0020105914FF47041CDE9001485E887
:1024A00058006946FFF710FB07B0F0BD124EB74267
:1024B000FAD1166846F400461660126802F400422B
:1024C00005920A6842F002020A600968029301F06C
:1024D000020105913821CDE900140621CDE903510F
:1024E0006946DFE70030014030380240000002401A
:1024F0000038004000040240003C00402DE9F84F45
:10250000044690F8500000270A9E1D4692468B46CE
:102510004FF0010901280ED0012084F85000FFF788
:10252000D7FB804694F85100616801280CD0B1F5C2
:10253000827F07D102E00220BDE8F88FA16809B9C7
:10254000042801D00227C2E0BBF1000F27D0BAF166
:10255000000F24D01DB394F85100042802D00520A8
:1025600084F8510000206065C4F838A0E587A5878D
:10257000C4F830B0E586A5862064606420680168F0
:10258000490603D4016841F040010160E068B0F5FC
:10259000006F606805D0E8B3012D46D07FE00127C9
:1025A00095E008B1012D39D1206B21680088C86001
:1025B000206B801C2063E08E401EE0862EE02068A9
:1025C000816889070FD5E18E69B1B9F1010F0AD190
:1025D000216B0988C160206B801C2063E08E401E47
:1025E000E0864FF0000920688168C9070CD0E18FB0
:1025F00051B1C068A16B0880A06B801CA063E08F04
:10260000401EE0874FF00109FFF762FBA0EB0800D6
:10261000B04200E009E001D3701C50D1E08E0028E8
:10262000CDD1E08F0028CAD13FE0206B216800782F
:102630000873206B401C2063E08E401EE0862EE075
:102640002068816889070FD5E18E69B1B9F1010F62
:102650000AD1216B09780173206B401C2063E08E46
:10266000401EE0864FF0000920688168C9070CD041
:10267000E18F51B1C068A16B0870A06B401CA063D2
:10268000E08F401EE0874FF00109FFF721FBA0EB30
:102690000800B04202D3701C01D010E07EB1E08E81
:1026A0000028CDD1E08F0028CAD1424631462046CD
:1026B00002F0B2FA28B101272020606507E0032765
:1026C00005E0A06818B92068C16880680090012002
:1026D00084F85100002084F8500038462CE710B5EB
:1026E000401EB0F1807F01D3012010BD4FF0E024E7
:1026F00060610F21601703F0F1FA0020A06107204C
:102700002061002010BD10B590F83C20012A22D095
:10271000012280F83C20CA688C6822F4407222436F
:102720004C6822F4806222430C6822F40062224347
:102730000C6922F4805222434C6922F40052224355
:10274000C969002322F480420A4301684A6480F880
:102750003C30002010BD022010BD000070B590F884
:102760003C20012A32D0012480F83C40022280F82B
:102770003D2003685A689D6822F070060A6832435B
:102780005A60134B02689A4214D0B2F1804F11D0B4
:10279000104B9A420ED0104B9A420BD00F4B9A42DC
:1027A00008D00F4B9A4205D00E4B9A4202D00E4BE6
:1027B0009A4204D1496825F080031943916080F85A
:1027C0003D40002180F83C10084670BD022070BDDD
:1027D000000001400004004000080040000C0040E0
:1027E00000040140004001400018004010B5040002
:1027F00003D094F83D0010B107E0012010BD002087
:1028000084F83C00204600F01FF8022084F83D00C8
:10281000211D206802F0D2FD012084F8460084F8D2
:102820003E0084F83F0084F8400084F8410084F8BA
:10283000420084F8430084F8440084F8450084F89A
:102840003D00002010BD000008B502683E483F4929
:1028500082420ED1086840F001000860086800223A
:1028600000F00100009011461B20FFF7A1FA1B2089
:1028700066E03648001FB2F1804F11D0344B9A42C7
:102880001DD1016841F0020101600068002200F0E2
:102890000200009011461D20FFF78AFA1D204FE02C
:1028A000016841F0010101600068002200F00100B0
:1028B000009011461C20FFF77BFA1C2040E0254BBE
:1028C0009A420ED1016841F00401016000680022C3
:1028D00000F00400009011461E20FFF769FA1E2048
:1028E0002EE01D4B9A420ED1016841F008010160B3
:1028F0000068002200F00800009011463220FFF727
:1029000057FA32201CE0154B9A4208D1016841F079
:1029100020010160006800F02000009008BD104810
:102920008242FBD1086840F002000860086800227B
:1029300000F00200009011462E20FFF739FA2E20F9
:10294000BDE80840FFF726BA0000014044380240C5
:102950000004004000080040000C0040001400404B
:102960000004014090F83D10012901D0012070477A
:10297000022180F83D1000681149884214D0B0F15E
:10298000804F11D00F4988420ED00F4988420BD09A
:102990000E49884208D00E49884205D00D49884228
:1029A00002D00D49884204D1816801F0070106294F
:1029B00003D0016841F00101016000207047000070
:1029C000000001400004004000080040000C0040EE
:1029D00000040140004001400018004070B504466A
:1029E00090F83C00012817D0012584F83C500220C3
:1029F00084F83D002068826822F0770222F47F424A
:102A000082600868502830D00DDC20284DD005DCCD
:102A100098B310283BD148E0022070BD302844D044
:102A2000402834D139E0602828D0702806D0B0F58D
:102A3000805F2CD0B0F5005F29D10AE0CB68D1E9E6
:102A40000121206802F02BFD2068816841F07701A8
:102A500009E0CB68D1E90121206802F020FD20685F
:102A6000816841F48041816011E0CA68496820684A
:102A700002F0EAFD5021206807E016E0CA684968C4
:102A8000206802F0F2FD6021206802F012FD84F857
:102A90003D50002084F83C0070BDCA684968206839
:102AA00002F0D2FD40212068EFE72268014610467F
:102AB000EBE70000F0B587B0044614216846FDF747
:102AC000B7FB24683A4800263A490223012284428F
:102AD00010D1086840F010000860086800F010008D
:102AE000059048150090CDE90132039269463248BD
:102AF00004921EE03148B4F1804F0CD0304F314D7C
:102B0000BC421AD1086840F00200086008680093CF
:102B100000F002001EE00C6844F001040C6009683B
:102B20000093CDE9013201F00101CDE904210392C6
:102B300027E0FEF7C9FF07B0F0BDDFF88CC04027E3
:102B400064450FD1086840F00200086008680097EB
:102B500000F00200CDE90132CDE90430694603926C
:102B60002846E6E7194DAC420DD10C6844F001044B
:102B70000C6009688DE84C0001F00101CDE90431D9
:102B800003966946D5E712488442D4D1086840F0DC
:102B9000040008600868009700F004000590CDE983
:102BA00001320320CDE9032069460A48C1E700004D
:102BB0000000014030380240001002400000024096
:102BC000000400400004024000080040000C0040E7
:102BD000000401400008024010B5044690F83C0093
:102BE00001280AD0012084F83C0042B1042A0AD00E
:102BF000082A0CD00C2A11D10DE0022010BD20684B
:102C000002F060FC0AE0206802F08CFC06E020681C
:102C100002F0BEFC02E0206802F0EEFC002084F826
:102C20003C0010BD10B5040003D094F83D0010B175
:102C300007E0012010BD002084F83C00204600F091
:102C40001EF8022084F83D00211D206802F0B6FB2A
:102C5000012084F8460084F83E0084F83F0084F8A0
:102C6000400084F8410084F8420084F8430084F86E
:102C7000440084F8450084F83D00002010BD7047F2
:102C800070477047F8B5026804461068D168536908
:102C900010F00F0F4FF0000553D003F0010601F4C0
:102CA000907737435FD0C20705D0CA0503D5226CA1
:102CB00042F001022264420705D5DA0703D0226CF4
:102CC00042F002022264820705D5DA0703D0226CA3
:102CD00042F004022264020707D501F020023243C9
:102CE00003D0226C42F008022264226C002A34D005
:102CF000800604D5880602D5204602F0F5FC20683F
:102D00004069216CC0F38010090700D430B320461D
:102D100002F0D2FC2068416949061BD5416921F0C7
:102D200040014161A06BA8B159490165A06BFEF754
:102D300064FE002811D0A06B016D01B0BDE8F04029
:102D4000084783060FD58B060DD52046BDE8F84011
:102D500002F0CABC2046FFF794FFF8BD2046FFF7FB
:102D600090FF2564F8BD266B2023012E53D1C606A3
:102D700051D5CE064FD51068506800905069400676
:102D80002BD5A16B086840680004000CEAD0A68D22
:102D90008642E7D9E085C869B0F5807F18D0D06851
:102DA00020F48070D0602068416921F00101416108
:102DB0002068416921F04001416184F83E3025637B
:102DC0002068C16821F01001C160A06BFEF7CEFD44
:102DD000A08DE18D401A81B219E0A08DE18D401ADD
:102DE00081B2E08D0028BDD00029BBD0D06820F48E
:102DF0009070D0602068426922F00102426184F83C
:102E00003E3025632068C26822F01002C26020466E
:102E1000FFF736FFF8BD05062BD50D0629D594F82A
:102E20003D002128F6D1A068B0F5805F01D120696E
:102E3000B0B1206A411C2162216800784860E08CB2
:102E4000401E0004000CE084E4D12068C16821F039
:102E50008001C1602068C16841F04001C160F8BDD7
:102E6000206A0088C0F308005060206A801C20623D
:102E7000E5E74006F3D54806F1D5D168204621F0B4
:102E80004001D16084F83D3000F051FAF8BD0000F7
:102E9000A956000870B5040004D094F83D00002540
:102EA00010B106E0012070BD84F83C50204600F0CF
:102EB00023F8242084F83D002068C16821F40051E3
:102EC000C160204602F068FC2068016921F490414D
:102ED00001612068416921F02A0141612068C168CF
:102EE00041F40051C1602564202084F83D0084F83D
:102EF0003E00002070BD00002DE9F04786B004467A
:102F000014216846FDF794F98249DFF804C2276866
:102F10000023804A10390225012408267E484FF4F8
:102F2000406967451FD1136843F40023136012689A
:102F300002F4002205920A6842F004020A6009685D
:102F4000CDF80090CDE9015401F00401CDE9046110
:102F500003946946FEF7B8FD002211463420FEF7BF
:102F600027FF342035E0DFF8B4C1674536D1136858
:102F700043F480131360126802F4801205920A6809
:102F800042F004020A600A6802F0040205920A682C
:102F900042F008020A60096801F0080105914FF447
:102FA00080510091CDE90154CDE903466946FEF711
:102FB0008BFD04200090CDE90154CDE9034669461C
:102FC0005748FEF781FD002211463520FEF7F0FE3E
:102FD0003520FEF7DFFE06B0BDE8F0874D48DFF88C
:102FE0004481001DDFF840A14FF0070C474521D177
:102FF000026842F010020260006800F010000590C4
:10300000086840F001000860086802AA00F00100AA
:1030100005904FF4C060CDE9000582E818106946BC
:103020005046FEF751FD002211462520FEF7C0FE56
:103030002520CEE7DFF8F480474520D1106840F422
:1030400000301060106800F400300590086840F00F
:1030500001000860086802AE00F0010005900C2035
:10306000CDE9000586E8181069465046FEF72CFDAC
:10307000002211462620FEF79BFE2620A9E7DFF856
:10308000B08047451FD1106840F480201060106860
:1030900000F480200590086840F00200086008688D
:1030A000CDE9023400F00200CDE904C0CDE900957D
:1030B00069462048FEF708FD002211462720FEF74A
:1030C00077FE272085E71C4A974284D1026842F0A8
:1030D00020020260006800F020000590086840F0BF
:1030E00040000860086802AA00F0400005904FF414
:1030F0008440CDE9000582E8580069460F48FEF794
:10310000E3FC002211464720FEF752FE472060E70D
:10311000004C00404038024000080240005000408F
:10312000000C02400010014000000240004400403A
:103130000048004000040240001401400018024012
:1031400090F83E30202B0ED159B152B190F83C305E
:10315000012B08D0012380F83C300023036302F0E8
:10316000A1BB01207047022070470000334A01686C
:10317000334891420CD18189FD2904D2314B8279A7
:103180005A54491C81812E490122891D2E4851E043
:103190002E4A91420DD1C189FD2905D2294BC27910
:1031A000FF335A54491CC18125490122C91D2848B1
:1031B00040E0284A91420CD1018AFD2904D2264BD5
:1031C000027A5A54491C01821D49012208312348C0
:1031D00030E0234A91420DD1418AFD2905D21E4B90
:1031E000427AFF335A54491C418215490122093160
:1031F0001C481FE01C4A91420CD1818AFD2904D24F
:103200001A4B827A5A54491C81820D4901220A3193
:1032100017480FE0174A91420ED1C18AFD2905D205
:10322000124BC27AFF335A54491CC182044901220D
:103230000B311148FFF784BF7047000000100140B8
:1032400000000020E81B0020D88D00200044004032
:103250001C8E002000480040E61D0020608E0020EB
:10326000004C0040508D002000500040E41F002022
:10327000948D002000140140A48E00202DE9F84315
:10328000044690F83D001F4616460D4620284CD1B6
:10329000C5B1BEB194F83C00012846D0012084F8A5
:1032A0003C004FF00008C4F84080212084F83D0025
:1032B000FEF70EFDA6848146E684A068B0F5805F27
:1032C00003D004E00120BDE8F883206928B12E4630
:1032D0005FF0000584F83C800EE00026FAE78021CC
:1032E000204602F0FAFAA0B9AEB116F8010B216837
:1032F0004860E08C401EE084E08C4B464FF00002BA
:1033000000970028EBD14FF04001204602F0E5FA8B
:1033100030B10320D7E735F8020BC0F30800E6E729
:10332000202084F83D000020CDE70220CBE7704745
:10333000FEE700002DE9F047DFF8188104460D464E
:1033400098F8000000287DD1DFF80C9102B101222D
:1033500002214846FEF7B6FC00264FF49673B4F5FA
:10336000167F02DDC8F80C300FE0601FB0F5947FC7
:1033700003D26010C8F80C0007E0601E032802D2D8
:10338000C8F80C6001E0002C62D0D8F80C0033497A
:10339000404204EB4000086042F2107045433C227A
:1033A000B5FBF2F0D8F80C506843B0FBF3F042F2F2
:1033B0008D032B4D9F07984220D9D8F80CC0BCF143
:1033C000000F1BD000EE100A9FED261AD8F80C0053
:1033D000F8EE400AF1EE001A00EE100A2248B8EEAC
:1033E000400AFCF7A5FF012088F80100C8F8046036
:1033F0001D482A680188D162008817E003200C600C
:1034000088F80100C8F80460184800680109C8E994
:1034100004134FF44871B0FBF1F042F210714843CD
:10342000B0FBF2F0C8F818002968C862E8602968A3
:103430004008886301220421384602F023F8012263
:10344000114600E004E04846BDE8F047FEF73ABC0C
:10345000BDE8F0875C01002000100240240100203C
:10346000608F0020003402463E7C0020480100208E
:10347000F0B5214887B00026016841F001010160E4
:10348000016801F001010591016841F0100101603E
:10349000016801F010010591016841F0100101601F
:1034A0000068022400F0100000940125CDE90450CA
:1034B0000194694603941148FEF706FBCDE90045E7
:1034C0000F4FCDE9034669463846FEF7FDFA0095F1
:1034D0000195CDE9034669463846FEF7F5FA002224
:1034E00002213846FEF7EEFB002201213846FEF7A6
:1034F000E9FB07B0F0BD0000303802400000024098
:1035000000100240F0B528488DB00025016841F058
:1035100001010160006800F001000B90FFF7A8FFB7
:10352000224C4FF080460F2040C44FF6FF77A1C4D5
:103530001E4844F81059FFF759F9B014079007A92D
:103540001A48FFF74BFA3020CDE90007022002901D
:103550000820CDE903050595042269461348069520
:10356000FFF73AFB00220421304601F08BFF0022D6
:1035700011461C20FEF71CFC1C20FEF70BFC2168EA
:10358000681F08612168401008612068C16841F027
:103590000401C1602068416C41F40041416403486A
:1035A000FFF7E0F90DB0F0BD40380240608F002019
:1035B0002DE9F041344C05460F462078002861D1B2
:1035C00032484FF4807102B10122FEF77BFB0026E6
:1035D0004FF49671B5F5167F01DDE1600DE0681FCF
:1035E000B0F5947F02D26810E06006E0681E032800
:1035F00001D2E66001E0002D44D0E068244A404258
:1036000005EB4000106042F2107047433C20B7FBCE
:10361000F0F042F28D03984217D9E368ABB1E2684B
:103620009FED1C1A4243B2FBF1F000EE100AE06875
:10363000F1EE001AF8EE400A00EE100A1648B8EE55
:10364000400AFCF775FE012001E003201560607060
:1036500066601248104903680A88DA620988C16006
:10366000006849084163012200210D4801F00AFF6A
:103670000A48FFF777F9BDE8F04100221021094818
:10368000FEF720BBBDE8F081780100200004024075
:103690002801002000340246967E0020C08F0020C2
:1036A00000080040001402402DE9F041234886B094
:1036B0000025016841F002010160016801F002018A
:1036C0000591016841F002010160016801F0020109
:1036D0000591016841F0200101600068022400F0BA
:1036E000200005904020CDE90004DFF854800394C9
:1036F000694640460494FEF7E7F9E6010127CDE963
:10370000034569464046CDE90067FEF7DDF9CDE99E
:1037100003451020CDE900070A4C69462046FEF714
:10372000D3F9002231464046FEF7CCFA012210219F
:103730002046FEF7C7FA06B0BDE8F08130380240F7
:103740000004024000140240F0B525488DB0002569
:10375000016841F004010160006800F004000B9072
:10376000FFF7A2FF204C1F4E0F2040C44FF6FF77FB
:10377000A1C41D4844F81059FFF738F8B014079059
:1037800007A91948FFF72AF93020CDE900070220E0
:1037900002900820CDE903050595002269461248EC
:1037A0000695FFF719FA00221146304601F06AFE2D
:1037B000002211461E20FEF7FBFA1E20FEF7EAFA51
:1037C0002168E81E08612068C16841F00201C160FB
:1037D0002068416C41F4004141640DB0F0BD00002F
:1037E0004038024000080040C08F00202DE9F04121
:1037F000354C05460F462078002862D1DFF8CC8092
:1038000002B1012220214046FEF75CFA00264FF467
:103810009671B5F5167F01DDE1600DE0681FB0F52A
:10382000947F02D26810E06006E0681E032801D28F
:10383000E66001E0002D44D0E068254A404205EBF7
:103840004000106042F2107047433C20B7FBF0F09C
:1038500042F28D03984217D9E368ABB1E2689FED5D
:103860001D1A4243B2FBF1F000EE100AE068F1EEDF
:10387000001AF8EE400A00EE100A1748B8EE400AA7
:10388000FCF756FD012001E00320156060706660C2
:103890001248114903680A88DA620988C160006821
:1038A00049084163012200210D4801F0EBFD0B485E
:1038B000FFF758F84046BDE8F04100221021FEF71E
:1038C00001BABDE8F08100004C0100200018024060
:1038D0002C01002000340246EE800020008F0020E2
:1038E00000040140F0B5234887B00025016841F08D
:1038F00004010160016801F004010591016841F0D3
:1039000040010160016801F040010591016841F04A
:10391000400101600068022400F040000590402052
:10392000CDE900040320CDE9034069461248FEF7C3
:10393000CBF820200126CDE90006104F6946384615
:10394000CDE90345FEF7C0F81020CDE90006694631
:103950003846CDE90345FEF7B7F800222021384666
:10396000FEF7B0F9012210213846FEF7ABF907B097
:10397000F0BD00003038024000080240001802404C
:10398000F0B525488DB00025016841F002010160C5
:10399000006800F002000B90FFF7A4FF204C1F4EC0
:1039A0000F2040C44FF6FF77A1C41D4844F81059BA
:1039B000FEF71CFFB014079007A91948FFF70EF88F
:1039C0003020CDE90007022002900820CDE9030550
:1039D00005950022694612480695FFF7FDF800227A
:1039E0001146304601F04EFD002211462E20FEF712
:1039F000DFF92E20FEF7CEF92168E81E0861206865
:103A0000C16841F00201C1602068416C41F400418D
:103A100041640DB0F0BD0000443802400004014094
:103A2000008F00202DE9F041364C05460F462078E6
:103A3000002864D1DFF8D0804FF4805102B1012218
:103A40004046FEF73FF900264FF49671B5F5167F14
:103A500001DDE1600DE0681FB0F5947F02D26810CF
:103A6000E06006E0681E032801D2E66001E0002D58
:103A700045D0E068254A404205EB4000106042F224
:103A8000107047433C20B7FBF0F042F28D039842A0
:103A900017D9E368ABB1E2689FED1D1A4243B2FB50
:103AA000F1F000EE100AE068F1EE001AF8EE400ABC
:103AB00000EE100A1748B8EE400AFCF739FC012066
:103AC00001E00320156060706660134811490368C7
:103AD0000A88DA620988C160006849080164012225
:103AE0000C210E4801F0CEFC0B48FEF73BFF404690
:103AF000BDE8F04100224FF40051FEF7E3B8BDE805
:103B0000F0810000880100200014024030010020F4
:103B1000003402464683002020900020000400402C
:103B20002DE9F043234887B00025016841F00201E8
:103B30000160016801F002010591016841F0200176
:103B40000160016801F020010591016841F0200148
:103B500001600068022400F020000094CDE90440D8
:103B60000194694603941448FDF7AEFF4FF4805862
:103B70000126CDE90345DFF84490CDE9008669468A
:103B80004846FDF7A1FF2703CDE90345CDE90076BF
:103B900069464846FDF798FF002241464846FEF731
:103BA00091F8012239464846FEF78CF807B0BDE887
:103BB000F08300003038024000040240001402404C
:103BC000F0B525488DB00025016841F00201016083
:103BD000006800F002000B90FFF7A2FF204C1F4E80
:103BE0000F2040C44FF6FF77A1C41D4844F8105978
:103BF000FEF7FCFDB014079007A91948FEF7EEFE8A
:103C00003020CDE90007022002900820CDE903050D
:103C100005950C22694612480695FEF7DDFF002245
:103C20000C21304601F02EFC002211461D20FEF72B
:103C3000BFF81D20FEF7AEF821686FF01000086194
:103C40002068C16841F01001C1602068416C41F4F6
:103C5000004141640DB0F0BD403802400004004016
:103C6000209000202DE9F041344C05460F46207885
:103C7000002861D132484FF4004102B10122FEF721
:103C800021F800264FF49671B5F5167F01DDE1604D
:103C90000DE0681FB0F5947F02D26810E06006E086
:103CA000681E032801D2E66001E0002D44D0E068E0
:103CB000244A404205EB4000106042F21070474336
:103CC0003C20B7FBF0F042F28D03984217D9E3682D
:103CD000ABB1E2689FED1C1A4243B2FBF1F000EE7B
:103CE000100AE068F1EE001AF8EE400A00EE100A41
:103CF0001648B8EE400AFCF71BFB012001E0032048
:103D00001560607066601248104903680A88DA62BC
:103D10000988C160006849084163012200210D48FB
:103D200001F0B0FB0A48FEF71DFEBDE8F04100229D
:103D300001210948FDF7C6BFBDE8F08198010020C8
:103D40000014024034010020003402469E85002009
:103D50008090002000000140001802402DE9F04151
:103D6000234886B00026016841F010010160016817
:103D700001F010010591016841F020010160016826
:103D800001F020010591016841F0400101600068E7
:103D9000022400F0400005904FF40070CDE90004CB
:103DA000012569461348CDE90345FDF78DFECDE9B0
:103DB0000346A703DFF84080CDE900756946404619
:103DC000FDF782FE00950195CDE903460B4C69464F
:103DD0002046FDF779FE002239464046FDF772FF86
:103DE000012211462046FDF76DFF06B0BDE8F081C7
:103DF0003038024000100240001402400018024017
:103E0000F0B525488DB00025016841F00101016041
:103E1000006800F001000B90FFF7A0FF204C1F4E40
:103E20000F2040C44FF6FF77A1C41D4844F8105935
:103E3000FEF7DCFCB014079007A91948FEF7CEFD89
:103E40003020CDE90007022002900820CDE90305CB
:103E500005950022694612480695FEF7BDFE002230
:103E60001146304601F00EFB002211461B20FDF7E3
:103E70009FFF1B20FDF78EFF2168E81E0861206868
:103E8000C16841F00201C1602068416C41F4004109
:103E900041640DB0F0BD0000443802400000014014
:103EA000809000202DE9F041364C05460F462078E1
:103EB000002864D1DFF8D0804FF4804102B10122A4
:103EC0004046FDF7FFFE00264FF49671B5F5167FCC
:103ED00001DDE1600DE0681FB0F5947F02D268104B
:103EE000E06006E0681E032801D2E66001E0002DD4
:103EF00045D0E068254A404205EB4000106042F2A0
:103F0000107047433C20B7FBF0F042F28D0398421B
:103F100017D9E368ABB1E2689FED1D1A4243B2FBCB
:103F2000F1F000EE100AE068F1EE001AF8EE400A37
:103F300000EE100A1748B8EE400AFCF7F9F9012024
:103F400001E0032015606070666013481149036842
:103F50000A88DA620988C160006849084163012261
:103F600000210E4801F08EFA0B48FEF7FBFC40469C
:103F7000BDE8F04100224FF40041FDF7A3BEBDE8CB
:103F8000F0810000A8010020000C02403801002050
:103F900000340246F6870020E0900020000C00402C
:103FA0002DE9F043234887B00026016841F0010164
:103FB0000160016801F001010591016841F008010B
:103FC0000160016801F008010591016841F00801F4
:103FD0000160006802240125CDE9005400F00800CA
:103FE000CDE90440694603941348FDF76DFDCDE922
:103FF00003464FF48048DFF84490CDE900856946D8
:104000004846FDF761FDCDE90346A703CDE90075FC
:1040100069464846FDF758FD002241464846FDF7EF
:1040200051FE012239464846FDF74CFE07B0BDE877
:10403000F08300003038024000000240000C0240D3
:10404000F0B525488DB00025016841F008010160F8
:10405000006800F008000B90FFF7A2FF204C1F4EF5
:104060000F2040C44FF6FF77A1C41D4844F81059F3
:10407000FEF7BCFBB014079007A91948FEF7AEFC89
:104080003020CDE90007022002900820CDE9030589
:1040900005950022694612480695FEF79DFD00220F
:1040A0001146304601F0EEF9002211463220FDF7AC
:1040B0007FFE3220FDF76EFE2168E81E0861206851
:1040C000C16841F00201C1602068416C41F40041C7
:1040D00041640DB0F0BD000040380240000C0040CB
:1040E000E09000202DE9F04F87B014216846FCF7DE
:1040F0009FF892480025016841F0100101600168B5
:1041000001F010010591016841F0040101600168AE
:1041100001F004010591016841F02001016001688E
:1041200001F020010591016841F080010160016802
:1041300001F080010591016841F001010160016811
:1041400001F001010591016841F00201016001687F
:1041500001F002010591016841F040010160016830
:1041600001F040010591016841F00801016000681B
:10417000DFF8CC9100F008004FF210040590012206
:1041800021464846FDF79EFD012242F23F016D485F
:10419000FDF798FDDFF8B0A101224CF23B1150462B
:1041A000FDF790FD00224FF4E0716648FDF78AFDAF
:1041B000DFF898B14FF46077012239465846FDF791
:1041C00081FD4FF41948012241466148FDF77AFD0F
:1041D000012239465F48FDF775FD002203215E4844
:1041E000FDF770FD4FF6DC5002268DE86100694650
:1041F0005948FDF769FC0F208DE861006946484683
:10420000FDF762FC00940124694648460194CDE91B
:104210000245FDF759FC51486946CDE90040029539
:104220005846FDF751FC30208DE86100694658463C
:10423000FDF74AFC8DE8700069464648FDF744FCEE
:10424000E002CDE90005694602944846FDF73CFCD2
:104250003F20CDE9000469463A48CDE90245FDF723
:1042600033FC2002CDE90004CDE902466946504600
:10427000FDF72AFC4FF472508DE861006946504604
:10428000FDF722FC4CF23B00CDE9000469465046A4
:10429000CDE90245FDF718FC4FF4A0708DE8310020
:1042A000694628480395FDF70FFC802000901120F7
:1042B000CDE90105694623480395FDF705FCCDE9E5
:1042C000007469465846CDE90245FDF7FDFBCDE98E
:1042D000008469461E48CDE90245FDF7F5FB4FF421
:1042E0001C408DE8610069461648FDF7EDFB600350
:1042F000CDE900044FF00308CDE9024869461148B2
:10430000FDF7E2FBCDE9007469461248CDE90245AC
:10431000FDF7DAFBCDF800800395CDE9014669464B
:104320000D48FDF7D1FB002211460620FDF740FDA8
:104330000620FDF72FFD07B0BDE8F08F30380240B2
:104340000014024000180240000C02400008024025
:104350000000024000040240001002400000111062
:10436000104810B50E4901604FF482714160002180
:104370008160C1604FF480220161C0E905121822FA
:10438000C0E90721416281620A21C162FDF7E2FFB3
:10439000002803D0BDE81040FDF7E6BA10BD0000CC
:1043A00000300140508A00200F4810B50D490160CF
:1043B0004FF48271416000218160C1604FF480221E
:1043C0000161C0E90512C1610162416281620A2195
:1043D000C162FDF7BFFF002803D0BDE81040FDF724
:1043E000C3BA10BD00380040A88A00200F4810B59D
:1043F0000D4901604FF48271416000218160C1600C
:104400004FF400720161C0E90512C16101624162AD
:1044100081620A21C162FDF79DFF002803D0BDE83B
:104420001040FDF7A1BA10BD003C0040008B0020F9
:1044300010B596B000240F94109411941294139414
:104440001C2108A81494FBF7F3FE20216846FBF713
:10445000EFFE2A4828490160A721C0E9011440F273
:10446000E731C0E903148021C0E90541FEF7BEF938
:1044700008B1FDF779FA4FF480500F900FA91F484B
:10448000FEF7ACFA08B1FDF76FFA1C48FEF7CAFB5D
:1044900008B1FDF769FA2020CDE9130413A91748E4
:1044A000FEF75CF908B1FDF75FFA3020CDE90804AA
:1044B0000220CDE90A040C940D94002208A90F48AB
:1044C0000E94FEF789FB08B1FDF74EFA00944FF405
:1044D0000050CDE9044002940194039469460748D2
:1044E0000794FEF710F908B1FDF73EFA0348FEF70E
:1044F000E1FA16B010BD000000000140588B00200A
:1045000010B58EB000240794089409940A940B9473
:104510001C2168460C94FBF78BFE1E484FF080412F
:1045200001605321C0E9011440F2E731C0E90314EE
:104530008461FEF75BF908B1FDF716FA4FF480507D
:10454000079007A91348FEF749FA08B1FDF70CFADE
:104550001048FEF767FB08B1FDF706FA0B940BA9AC
:104560000C480C94FEF7FAF808B1FDF7FDF930207D
:10457000CDE9000402200290042269460494054813
:10458000FEF72AFB08B1FDF7EFF90248FEF792FAB1
:104590000EB010BDA08B002010B58EB00024079483
:1045A000089409940A940B941C2168460C94FBF718
:1045B0003FFE1F481D4901605321C0E9011440F22C
:1045C000E731C0E903148461FEF710F908B1FDF783
:1045D000CBF94FF48050079007A91548FEF7FEF974
:1045E00008B1FDF7C1F91248FEF71CFB08B1FDF751
:1045F000BBF90B940BA90E480C94FEF7AFF808B169
:10460000FDF7B2F93020CDE90004022002900C221F
:10461000694604940648FEF7DFFA08B1FDF7A4F9ED
:104620000348FEF747FA0EB010BD0000000400403A
:10463000E88B002010B58EB00024079408940994EC
:104640000A940B941C2168460C94FBF7F1FD1F485B
:104650001D4901605321C0E9011440F2E731C0E96E
:1046600003148461FEF7C2F808B1FDF77DF94FF439
:104670008050079007A91548FEF7B0F908B1FDF77B
:1046800073F91248FEF7CEFA08B1FDF76DF90B94F5
:104690000BA90E480C94FEF761F808B1FDF764F918
:1046A0003020CDE9000402200290002269460494E3
:1046B0000648FEF791FA08B1FDF756F90348FEF7F0
:1046C000F9F90EB010BD000000080040308C002049
:1046D00010B58EB000240794089409940A940B94A2
:1046E0001C2168460C94FBF7A3FD1F481D4901607F
:1046F0005321C0E9011440F2E731C0E90314846199
:10470000FEF774F808B1FDF72FF94FF480500790C9
:1047100007A91548FEF762F908B1FDF725F9124817
:10472000FEF780FA08B1FDF71FF90B940BA90E48AC
:104730000C94FEF713F808B1FDF716F93020CDE917
:104740000004022002900022694604940648FEF705
:1047500043FA08B1FDF708F90348FEF7ABF90EB0CC
:1047600010BD0000000C0040788C00201CB5002417
:104770000E4800940C49019401605321C0E90114D2
:1047800001218461C160FEF731F808B1FDF7ECF852
:104790000094694605480194FDF7E0FF002801D028
:1047A000FDF7E2F81CBD000000140040C08C0020A2
:1047B00010B596B000240F94109411941294139491
:1047C0001C2108A81494FBF733FD20216846FBF751
:1047D0002FFD294827490160A721C0E9011440F2B3
:1047E000E731C0E9031444618461FDF7FFFF08B1BC
:1047F000FDF7BAF84FF480500F900FA91E48FEF74E
:10480000EDF808B1FDF7B0F81B48FEF70BFA08B158
:10481000FDF7AAF8139413A917481494FDF79EFF07
:1048200008B1FDF7A1F83020CDE908040220CDE958
:104830000A040C940D94002208A90F480E94FEF768
:10484000CBF908B1FDF790F800944FF40050CDE992
:104850000440029401940394694607480794FDF7C5
:1048600052FF08B1FDF780F80348FEF723F916B0B0
:1048700010BD000000040140088D00200E4810B556
:104880000C4901604FF461414160002181600C22BC
:10489000C160C0E904128161C161FEF7FBFA08B191
:1048A000FDF762F8BDE81040012204490248FEF716
:1048B00047BC0000004C0040508D00200900002043
:1048C0000E4810B50C4901604FF461414160002170
:1048D00081600C22C160C0E904128161C161FEF7F0
:1048E000D9FA08B1FDF740F8BDE8104001220449AB
:1048F0000248FEF725BC000000500040948D0020C7
:104900000A0000200E4810B50C4901604FF46141C7
:104910004160002181600C22C160C0E90412816104
:10492000C161FEF7B7FA08B1FDF71EF8BDE8104007
:10493000012204490248FEF703BC000000100140B8
:10494000D88D0020060000200E4810B50C490160EB
:104950004FF461414160002181600C22C160C0E9D7
:1049600004128161C161FEF795FA08B1FCF7FCFF02
:10497000BDE81040012204490248FEF7E1BB0000F7
:10498000004400401C8E0020070000200E4810B597
:104990000C4901604FF461414160002181600C22AB
:1049A000C160C0E904128161C161FEF773FA08B108
:1049B000FCF7DAFFBDE81040012204490248FEF787
:1049C000BFBB000000480040608E002008000020AF
:1049D0000E4810B50C4901604FF46141416000215F
:1049E00081600C22C160C0E904128161C161FEF7DF
:1049F00051FA08B1FCF7B8FFBDE8104001220449A4
:104A00000248FEF79DBB000000140140A48E002068
:104A10000B000020FEE7FEE7F0B56C480122B0F87D
:104A20002811012903D0022901D0A0F828214FF430
:104A30001663B0F81AC15C009D00DE001F014FF440
:104A400061419C450BD0A44509D0AC4507D0B44585
:104A500005D0BC4503D08C4501D0A0F81A11B0F8A0
:104A60001CC19C450BD0A44509D0AC4507D0B4452A
:104A700005D0BC4503D08C4501D0A0F81C11B0F87E
:104A80001EC19C450BD0A44509D0AC4507D0B44508
:104A900005D0BC4503D08C4501D0A0F81E11B0F85C
:104AA00030C19C450BD0A44509D0AC4507D0B445D6
:104AB00005D0BC4503D08C4501D0A0F83011B0F82A
:104AC00032C19C450BD0A44509D0AC4507D0B445B4
:104AD00005D0BC4503D08C4501D0A0F832113C492B
:104AE0004FF480340023D1F80452A54201DBC1F811
:104AF0000432D1F80852A54201DBC1F80832D1F8DE
:104B00000C52A54201DBC1F80C32D1F81052A5427B
:104B100001DBC1F81032D1F81452A54201DBC1F813
:104B20001432D1F81852A54201DBC1F81832038EB5
:104B30005B1E052B00D30286D1F88C33012B02DAE1
:104B4000C1F88C2304E00F2B02DD0F23C1F88C3356
:104B5000D1F88433012B02DAC1F8842304E01E2B40
:104B600002DD1E23C1F88433D1F87434012B02DA3C
:104B7000C1F8742405E04FF4FA74A34201DDC1F8D2
:104B80007444B0F83E1109B9A0F83E21B0F84011C4
:104B900011B90221A0F84011B0F8421111B9032156
:104BA000A0F84211B0F8441111B90421A0F8441141
:104BB000B0F8461111B90521A0F84611B0F8481116
:104BC000002902D10621A0F84811F0BD5815002097
:104BD000E42100207047704701B582B04FF47A702D
:104BE0000090012301AA02A90248FDF787FC9DF865
:104BF00004000EBD508A0020012210210148FDF75B
:104C000061B8000000000240002210210148FDF7B9
:104C100059B800000000024038B504461248134B52
:104C20000068B0FBF3F04FF47A735843009060686B
:104C3000B0F5827F0DD10B460092002280212046E4
:104C400000F016F870B1606D40F020006065032040
:104C500038BD009830B1401E009020688068C04385
:104C60000006F6D5002038BD4801002000366E0150
:104C70002DE9F8431E46914688460446089DFDF7F7
:104C800027F8401B351AFDF723F80746254800682A
:104C9000C0F3CB30684338E0701C37D0FDF718F80C
:104CA000C01BA84203D215B1009860B32CE0206865
:104CB000416821F0E00141606068B0F5827F0BD16E
:104CC000A068B0F5004F02D0B0F5806F04D1206825
:104CD000016821F040010160A06AB0F5005F09D1D0
:104CE0002068016821F4005101602068016841F4E6
:104CF00000510160012084F85100002084F8500028
:104D00000320BDE8F8830025401E009020688168DC
:104D100038EA010004D000214945BDD10020F0E768
:104D20000121F9E748010020704730B40D461446D0
:104D300040F6B83107283BD2DFE800F03A040D1600
:104D40001F2831008C4200D90C462146284630BC31
:104D50001A46FEF7EFBA8C4200D90C462146284687
:104D600030BC1A46FEF724BC8C4200D90C462146C2
:104D7000284630BC1A46FEF739BD8C4200D90C4695
:104D80002146284630BC1A46FEF74CBE8C4200D95C
:104D90000C462146284630BC1A46FEF763BF8C42BB
:104DA00000D90C462146284630BC1A46FFF77AB88F
:104DB00030BC70470A480178491CCAB20021027011
:104DC0000A2A03D301704278521C42704278642A46
:104DD00003D341708178491C8170FCF77FBF0000CC
:104DE0005600002030B593B030216846FBF720FA1A
:104DF00014210CA8FBF71CFA1C480025016841F09F
:104E000080510160006800F08050119018480168DE
:104E100041F4804101600068022400F48040119058
:104E200001200090000401908001CDE9064008AA0D
:104E30000420A82182E813000B906846FDF7D4F8FF
:104E400008B172B6FEE70CA90F2081E831004FF4DB
:104E5000A0500F90109005210CA8FCF7DBFF002854
:104E600001D072B6FEE713B030BD000040380240FA
:104E7000007000400548016841F470010160034979
:104E80004FF00060803908607047000088ED00E056
:104E900038B50022ADF800202E4C2068C168C94307
:104EA000890718D4D51E05612B488168491C81608B
:104EB0008168C9070FD14378EBB32849012B0BD088
:104EC000022B21D0032B06D1254A1168491E1160FF
:104ED00001D10221417038BD4268236831F81220A7
:104EE000DA62426831F81220E260426831F812104A
:104EF0002268490851634168491C41604168B1F525
:104F0000967FE8DB0321E5E743685B1E4360436867
:104F1000256831F81330EB62436831F81330E360F1
:104F2000436831F81310236849085963416801291F
:104F3000D1DA427038BDFFE700221146094800F07F
:104F4000A1FA20680561BDE83840012211460648F3
:104F5000FCF7B8BE80900020980100209E850020BC
:104F600034010020000001400018024038B5002242
:104F7000ADF800202F4C2068C168C943490716D4FA
:104F8000551F05612C488168491C81608168C907EB
:104F90000DD14378EBB32949012B09D0022B22D044
:104FA000032B04D1264A1168D1B1491E116038BDC6
:104FB0004268236831F81220DA62426831F8122020
:104FC000E260426831F81210226849089163416832
:104FD000491C41604168C2689142E8D3032100E066
:104FE0000221417038BD4368012B13DB4268521E19
:104FF00042604268236831F81220DA62426831F870
:105000001220E260406831F810002168400888638F
:1050100038BD01E04270FBE704210022080700F0E0
:1050200031FA20680561BDE83840002201210548B9
:10503000FCF748BE608F00205C0100203E7C002011
:10504000240100200010024038B50022ADF80020F5
:105050002F4C2068C168C943C90619D46FF01005E8
:1050600005612C488168491C81608168C9070FD19E
:105070004378EBB32849012B0BD0022B21D0032B13
:1050800006D1264A1168491E116001D102214170E2
:1050900038BD4268236831F81220DA62426831F87C
:1050A0001220E260426831F8121022684908116447
:1050B0004168491C41604168B1F5967FE8DB0321F6
:1050C000E5E743685B1E43604368256831F81330A9
:1050D000EB62436831F81330E360436831F8131032
:1050E00023684908196441680129D1DA427038BD42
:1050F000FFE700220C210A4800F0C4F9206805618E
:10510000BDE83840012251030648FCF7DBBD000032
:1051100020900020880100204683002030010020DC
:10512000000400400014024038B50022ADF8002011
:105130002E4C2068C168C943890718D4D51E056163
:105140002B488168491C81608168C9070FD1437869
:10515000EBB32849012B0BD0022B21D0032B06D116
:10516000254A1168491E116001D10221417038BDE4
:105170004268236831F81220DA62426831F812205E
:10518000E260426831F812102268490851634168B0
:10519000491C41604168B1F5967FE8DB0321E5E7F2
:1051A00043685B1E43604368256831F81330EB6247
:1051B000436831F81330E360436831F81310236813
:1051C0004908596341680129D1DA427038BDFFE7C7
:1051D00000221146094800F055F920680561BDE834
:1051E0003840012210210648FCF76CBDC08F00201A
:1051F00078010020967E0020280100200008004051
:105200000014024038B50022ADF800202E4C206872
:10521000C168C943890718D4D51E05612B48816828
:10522000491C81608168C9070FD14378EBB32849D5
:10523000012B0BD0022B21D0032B06D1254A11685C
:10524000491E116001D10221417038BD42682368B6
:1052500031F81220DA62426831F81220E2604268C6
:1052600031F812102268490851634168491C4160B5
:105270004168B1F5967FE8DB0321E5E743685B1EF3
:1052800043604368256831F81330EB62436831F8B6
:105290001330E360436831F81310236849085963F9
:1052A00041680129D1DA427038BDFFE7002211467A
:1052B000094800F0E7F820680561BDE838400122A0
:1052C000D1030648FCF7FEBCE0900020A8010020B6
:1052D000F687002038010020000C0040000C02403E
:1052E00038B50022ADF800202E4C2068C168C943B3
:1052F000890718D4D51E05612B488168491C816037
:105300008168C9070FD14378EBB32849012B0BD033
:10531000022B21D0032B06D1254A1168491E1160AA
:1053200001D10221417038BD4268236831F8122052
:10533000DA62426831F81220E260426831F81210F5
:105340002268490851634168491C41604168B1F5D0
:10535000967FE8DB0321E5E743685B1E4360436813
:10536000256831F81330EB62436831F81330E3609D
:10537000436831F8131023684908596341680129CB
:10538000D1DA427038BDFFE700221146094800F02B
:1053900079F820680561BDE83840012210210648EF
:1053A000FCF790BC008F00204C010020EE80002014
:1053B0002C0100200004014000180240F0B50268F2
:1053C000254C264D264E274F274B4FF0804CA042B0
:1053D00009D0604507D0A84205D0B04203D0B842FA
:1053E00001D0984204D122F0700E4A6842EA0E02BF
:1053F000A0421BD0604519D0A84217D0B04215D0AA
:10540000B84213D0984211D0184DA8420ED0184D72
:10541000A8420BD0174DA84208D0174DA84205D07E
:10542000164DA84202D0164DA84203D122F4407571
:10543000CA682A434D6922F080022A4302608A68C2
:10544000C2620A688262A04201D0984201D1096911
:10545000016301214161F0BD0000014000040040F2
:1054600000080040000C00400004014000400140E2
:10547000004401400048014000180040001C00406A
:105480000020004010B501F01F030121046A99407B
:105490008C430462016A9A401143016210BD10B549
:1054A000846842EA032224F47F440A432243826050
:1054B00010BD826822F070020A4342F00701816049
:1054C00070470000F0B5026A22F001020262036A2E
:1054D00042688469124E24F073050C682C4323F053
:1054E00002058B682B430D4DA84201D0B04205D177
:1054F00023F00807CB683B4323F00403A84201D004
:10550000B04205D14D6922F4407215438A692A439D
:1055100042608461496841630362F0BD000001405C
:1055200000040140F0B5026A22F010020262026A31
:10553000436884690D6824F4E64444EA05248D68D0
:1055400022F0200242EA05120F4D104EA84201D06F
:10555000B04206D1CF6822F0800242EA071222F060
:105560004002A84201D0B04207D14D6923F4406304
:1055700043EA85038D6943EA850343608461496892
:1055800081630262F0BD00000000014000040140A0
:10559000F0B5026A22F480720262026A4368C4694A
:1055A00022F4007224F073050C68124E2C438D68AF
:1055B00042EA05220E4DA84201D0B04206D1CF6882
:1055C00022F4006242EA072222F48062A84201D05B
:1055D000B04207D14D6923F4405343EA05138D6966
:1055E00043EA05134360C4614968C1630262F0BDC8
:1055F000000001400004014030B5026A22F48052EC
:105600000262046A4268C3690D6823F4E64343EA10
:1056100005238D6824F4005444EA0534084DA8425B
:1056200002D0084DA84204D14D6922F4804242EADA
:1056300085124260C36149680164046230BD0000A4
:10564000000001400004014010B5036A046A24F020
:1056500001040462846924F0F00444EA021423F093
:105660000A020A438461026210BD10B5036A23F086
:10567000100303628369046A23F4704343EA02322D
:1056800024F0A00343EA01118261016210BD000011
:105690000148FDF7F7BA0000508D00200148FDF7E2
:1056A000F1BA0000948D002010B5806B0021C185F7
:1056B000C184FDF7E6FA10BD0168CA6822F4907251
:1056C000CA6001684A6922F001024A61016B01293E
:1056D00004D10168CA6822F01002CA60202180F853
:1056E0003E1000210163704710B5044690F83E005B
:1056F000222801D0022010BDA1684FF480529142AF
:1057000001D1206920B1A06A91421BD049B10AE0C1
:105710002168A06A4968C1F308010180A06A801C61
:1057200008E0216971B12168496801F07F010170C9
:10573000A06A401CA062E08D401E0004000CE085C1
:1057400003D01CE021684968F1E72068C16821F0B6
:105750002001C1602068C16821F48071C1602068A7
:10576000416921F001014161202084F83E00206B55
:10577000012806D02046FDF7F9FC00202063002018
:1057800010BD2068C16821F01001C160A18D2046C4
:10579000FDF776FAF1E7000070B50446006801698C
:1057A000E26821F44051114301612169A068E26976
:1057B00008436169114308432168CA6849F20C63D0
:1057C0009A430243CA6020684169A26921F440718A
:1057D0001143416131492068884202D030498842F2
:1057E00002D1FCF7C1FB01E0FCF7AEFBE26900234C
:1057F000192164253226B2F5004F626828D0A0FB3B
:105800000101930F9200FAF7DBFC0146B0FBF5F0C3
:105810006FF01802504301EB800006EB0010B0FB64
:10582000F5F000F0F002B1FBF5F002EB0012B1FB75
:10583000F5F06FF01803584301EB800006EB001001
:10584000B0FBF5F000F00F0021681044886070BDD7
:10585000A0FB010192185B41FAF7B2FC0146B0FBD4
:10586000F5F00201B1FBF5F06FF01803584301EBBE
:10587000800006EBC000B0FBF5F000F0F80002EB92
:105880004002B1FBF5F0584301EB800006EBC0008D
:10589000B0FBF5F000F00700D6E700000010014073
:1058A0000014014081628285C285002101642222A8
:1058B00080F83E2080F83C100168CA6842F480728B
:1058C000CA6001684A6942F001024A610068C16821
:1058D00041F02001C160002070472DE9F041984659
:1058E00017460E460446069D1DE0681C1BD02DB1D0
:1058F000FCF7EEF9A0EB0800A84214D92068C168B3
:1059000021F4D071C1602068416921F00101416139
:10591000202084F83D0084F83E00002084F83C00FC
:105920000320BDE8F0812068006836EA000004D05A
:105930000020B842D9D00020F3E70120F9E70000A9
:105940000148FDF79FB90000D88D00200148FDF700
:1059500099B900001C8E00200148FDF793B90000A2
:10596000608E00200148FDF78DB90000A48E002054
:1059700010B5FAF721FDFAF7A7FDFAF7EBFEFAF7F3
:1059800071FFFBF7B5F8FBF73BF9FBF77FFAFBF785
:1059900005FBFBF749FCFBF7CFFCFBF713FEBDE86B
:1059A0001040FBF797BEFEE7F0B5784AC82078496B
:1059B000A2F8280240F2E470A2F8040540F2C340C5
:1059C000A2F806050020A2F8200208707149012300
:1059D000814C0B707049834D088070490880704974
:1059E00008807049088070490880704908807049B3
:1059F00008707049087070490870704908707049E3
:105A00000870704908707049087070490B707049CF
:105A10000B707049C1F8C8002070704CC1F840315B
:105A200023706F4C2C60704D2C60C1F8BC01C1F824
:105A3000C001C1F8D401C1F8D801C1F8DC01C1F836
:105A4000E0016A4DC1F8E401C1F8E8012870C1F82D
:105A50003801C1F83001C1F89403C1F81C02C1F843
:105A60002002C1F82402C1F82802C1F82C02C1F8B2
:105A70003002C1F80402C1F80802C1F80C02C1F8F2
:105A80001002C1F81402C1F81802C1F84C02C1F8A2
:105A90005002C1F85402C1F85802554DC1F85C02D9
:105AA000C1F860022870A2F8EC31A2F8BE01C1F87A
:105AB0008803504DA2F86601A2F8EA3128604E4DE5
:105AC000A4F5966628604D4D28604D4D28604D4DDB
:105AD00028604D4D28604D4D28604D4D28604D4D3E
