:020000040800F2
:10000000109D00209D0100088D5500083141000819
:10001000A1530008110800081D640008000000003A
:10002000000000000000000000000000255900084A
:100030002D20000800000000D3570008D95A0008FE
:10004000B7010008B7010008B7010008B7010008B0
:10005000B7010008B70100082F200008B701000809
:10006000B7010008B7010008B7010008B701000890
:10007000B7010008B7010008B7010008B701000880
:10008000B7010008B7010008B7010008B701000870
:10009000B7010008B7010008B7010008B701000860
:1000A000B7010008B7010008B7010008B55B0008F8
:1000B000DD5B0008F15B0008095C0008B70100087F
:1000C000B7010008B7010008B7010008B701000830
:1000D000B7010008ED630008F96300080564000833
:1000E000B7010008B7010008B7010008B701000810
:1000F000B7010008B70100084D5C0008B70100080F
:10010000B7010008B7010008215C0008B70100082A
:100110000961000815610008B7010008B70100086F
:10012000B7010008B7010008B7010008B7010008CF
:10013000B7010008B7010008B7010008B7010008BF
:10014000B7010008B7010008B7010008B7010008AF
:10015000B7010008B7010008B701000811640008E2
:10016000B7010008B7010008B7010008B70100088F
:10017000B7010008B7010008B7010008000000003F
:10018000B7010008B7010008DFF80CD000F002FB4F
:10019000004800476D670008109D00200648804712
:1001A00006480047FEE7FEE7FEE7FEE7FEE7FEE75C
:1001B000FEE7FEE7FEE7FEE7995B0008890100081D
:1001C0002DE9F05F0546002092469B46884606468C
:1001D000814640241BE0284641464746224600F01F
:1001E00022FA53465A46C01A914110D31146184676
:1001F000224600F009FA2D1A67EB01084F46224605
:100200000120002100F000FA17EB00094E41201EEA
:10021000A4F10104DFDC484631462A464346BDE8E6
:10022000F09FD2B201E000F8012B491EFBD27047CB
:100230000022F6E710B513460A4604461946FFF7B2
:10024000F0FF204610BD2DE9FE4F804681EA0300F5
:10025000C00F0C46009021F0004123F00045B8EBA0
:100260000200A94105D24046214690461C460B4655
:10027000024623F00040104347D0270DC7F30A0081
:10028000C3F30A510290401A019040286BDAC3F37D
:10029000130040F4801B0098924620B10023D2EB5B
:1002A000030A63EB0B0B01985946C0F1400250461C
:1002B00000F0AAF906460D4650465946019A00F04C
:1002C000C2F910EB08006141002487EA115284EA68
:1002D000E7731A4340D0009A62B3019A012A4FEAA9
:1002E000075215DC001B61EB02014FF0004202EAED
:1002F0000752CDE90042001C41F5801132462B46E1
:1003000000F0F9F903B0BDE8F08F40462146F9E767
:10031000001B61EB0201001C41F5801300185B41DA
:100320002018A2F5001747EB030140EAD570B61973
:100330006D4111E06D084FEA360645EAC0754FEA97
:100340000752001B61EB0201001C41F580114908B6
:100350004FEA30000019514132462B4603B0BDE848
:10036000F04F00F0B9B90098012240000023D0EB13
:10037000020263EBE073009821464FEAE074B8EBA9
:10038000000061EB0401E9E783F000435BE781F0E3
:10039000004158E72DE9FE4F81EA030404F00044D0
:1003A00021F0004100944FF0000B23F0004350EA8D
:1003B00001045ED052EA03045BD0C3F30A54C1F3D4
:1003C0000A552C44A4F2F3340194A0FB0254C1F367
:1003D000130141F48011C3F3130343F4801301FBB1
:1003E000024400FB034E840A970A44EA815447EA18
:1003F0008357A4FB076802958D0A05FB07854FEA22
:10040000932C04FB0C542705029D4FEA065847EA3B
:100410001637B5EB08056EEB070C870E920E47EA10
:10042000811742EA8312A7FB0201B6EB0B0164EBD2
:1004300000042B0D43EA0C335E1844EB1C50DA46E3
:100440005146E7FB0201C5F313044FEA0B3343EABD
:1004500014534FEA0432019C43EA0603A4F10C044E
:100460000294009CCDE900B400F045F903B0BDE86A
:10047000F08F00200146F9E72DE9F04D81EA0304F1
:1004800004F0004B21F0004514464FF0000A23F021
:10049000004150EA050220D054EA01021DD0C5F304
:1004A0000A570246C5F31303C1F31300C1F30A56FA
:1004B00040F4801543F48013A7EB0608101BD646C2
:1004C00008F2FD3873EB050002D308F1010801E0E2
:1004D00092185B41B8F1000F03DA00200146BDE835
:1004E000F08D00204FF48011064684460EE0171B65
:1004F00073EB050705D3121B63EB050306434CEAB8
:10050000010C49084FEA300092185B4150EA01079C
:10051000EDD152EA030012D082EA040083EA050119
:10052000084305D0101BAB4106D20122002306E090
:1005300000224FF0004302E06FF0010253101AEB6B
:1005400006004CEB085110EB0A0041EB0B01BDE833
:10055000F04D00F0C1B80EB5C10F80EAE07008445C
:10056000CA07002140F233438DE80E000A460B46CD
:1005700000F0C1F803B000BDC1F30A5210B5C1F3D9
:10058000130140F2FF3341F480119A4201DA002056
:1005900010BD40F233439A42A2F2334203DC52428E
:1005A00000F041F810BD904010BD00F0004230F066
:1005B00000400AD0C10D01F56071C0F3160042EA97
:1005C0000151C2084007114370470020014670479F
:1005D00001F0004330B421F0004150EA010206D09E
:1005E0000A0DA2F56072C1F31301002A02DC30BCCF
:1005F00000207047440F44EAC104C100E01830BC39
:1006000000EBC25000F031B8202A04DB203A00FA97
:1006100002F1002070479140C2F1200320FA03F359
:10062000194390407047202A04DB203A21FA02F057
:100630000021704721FA02F3D040C2F1200291401C
:10064000084319467047202A06DBCB17203A41FAA7
:1006500002F043EAE07306E041FA02F3D040C2F14F
:10066000200291400843194670470029A8BF7047EF
:10067000401C490008BF20F00100704710B4B0FAD8
:1006800080FC00FA0CF050EA010404BF10BC704773
:1006900049B1CCF1200421FA04F411FA0CF118BF8D
:1006A000012121430843A3EB0C01CB1D4FEA00615C
:1006B0004FEA102042BF002010BC704700EBC3502F
:1006C00010440029A4BF10BC7047401C490008BF5B
:1006D00020F0010010BC704710B5141E73F1000427
:1006E00008DA401C41F1000192185B411A4301D124
:1006F00020F0010010BD2DE9F04D92469B4611B14E
:10070000B1FA81F202E0B0FA80F220329046FFF7AF
:100710007BFF04460F4640EA0A0041EA0B015346BC
:100720005A46084313D0114653EA010019D0C8F1C4
:1007300040025046FFF777FF05460E4650465946A1
:100740004246FFF761FF084305D0012004E0204640
:100750003946BDE8F08D0020054346EAE0762C439B
:1007600037430A986305E40AA0EB08000022FD0A5B
:1007700044EA47540A3002D500200146E9E7010562
:1007800010196941DDE9084500196941BDE8F04DDE
:10079000A2E70000064C074D06E0E06840F00103C8
:1007A00094E8070098471034AC42F6D3FFF7F0FC0A
:1007B000C46B0008E46B000870B58C1810F8015B7E
:1007C00015F0070301D110F8013B2A1106D110F8EA
:1007D000012B03E010F8016B01F8016B5B1EF9D1EE
:1007E0002B0705D40023521E0DD401F8013BFAE774
:1007F00010F8013BCB1A921C03E013F8015B01F8DF
:10080000015B521EF9D5A142D8D3002070BD7047BC
:10081000FEE7000070B5094DFF22134605F580760E
:1008200006E000BF10F8014B54402A5D5A40335D8A
:10083000491EC9B2F6D243EA022070BDAA69000877
:100840002DE9F04105462DED0A8B0C46F0EE42AA4B
:10085000B0EE61BAF0EE418AF0EE60BA854E864F96
:10086000B0EE40CA0020B3EE0F9A9FED848AC8EE26
:10087000899ADFF80C82306000EE100AB0EE6A2A26
:10088000F0EE4B1AB8EEC00AB0EE681AF0EE6B0A42
:1008900069EE802AB0EE4C0A01F0CEFBC8EE000AE9
:1008A000306807EB800181ED000ABCEEE00A10EE33
:1008B000101A25F81010316807EB810090ED000A3E
:1008C000B8F8FC0069EE800A00EE100AB8EE400AA3
:1008D00080EE801ABCEEC10A10EE100A24F8110056
:1008E0003068401C30601F28C6DBCBEE099A1F2001
:1008F00030601F3800EE100AF0EE682AB0EE6A2A67
:10090000B8EEC00AF0EE4B1AB0EE681AF0EE6B0AC1
:1009100049EE802AB0EE4C0A01F08EFBC8EE000AC8
:10092000306807EB800181ED000ABCEEE00A10EEB2
:10093000101A25F81010306807EB800191ED000ABD
:10094000B8F8FC1069EE800A00EE101AB8EE400A02
:1009500080EE801ABCEEC10A10EE101A24F81010B6
:100960003068401C30603E28C3DB8AEE89AA78EEEE
:100970008B9A3E20C6F800003E3800EE100AF0EEDA
:10098000692AB0EE6A2AB8EEC00AF0EE4B1AB0EE51
:10099000681AF0EE6B0A4AEE002AB0EE4C0A01F03B
:1009A0004BFBC8EE000A306807EB800181ED000ABE
:1009B000BCEEE00A10EE101A25F81010306807EBB4
:1009C000800191ED000AB8F8FC106AEE000A00EE12
:1009D000101AB8EE400A80EE801ABCEEC10A10EE82
:1009E000101A24F810103068401C30605D28C3DBFA
:1009F00079EEAA2AB0EE6A2AF0EE4B1AB0EE681A27
:100A0000F0EE6B0AB0EE4C0A01F016FBC8EE000ADD
:100A1000306807EB800181ED000ABCEEE00A10EEC1
:100A2000100AA5F8BA0091ED000AB8F8FC006AEEC9
:100A3000000A00EE100AB8EE400A80EE801ABCEE02
:100A4000C10A10EE100AA4F8BA005E20C6F8000031
:100A5000C0F1BA0135F8112025F8102034F8111032
:100A600024F81010401CBB28F2DB3060BDEC0A8B70
:100A7000BDE8F0814401002028940020A037204BDD
:100A8000446900202DE9F041344A002510880028EF
:100A900061D03349334B09781C88A1425BD019805F
:100AA00031490B885B1C9BB20B80052B53D92F4F10
:100AB00000262F4C388090460E80FF2834D82D4ACF
:100AC0002178B2F83E2191422FD1801EC1B220463A
:100AD000FFF7A0FE3A88010A2244C0B212F8023C95
:100AE0008B421FD112F8011C81421BD16078012179
:100AF000214A032807D0102807D001280DD0062846
:100B00000ED0012511E01D4800E01D480170A078BD
:100B1000E17801EB0020108007E01A48017004E042
:100B20001948F3E7022500E0042501221749184877
:100B300003F006FAA8F80060002D0CD0002026541F
:100B4000401C80B21428FAD3BDE8F04101220F49BD
:100B50000F4803F0F5B9BDE8F08100000C0000205B
:100B600056000020C4000020C6000020B80000206D
:100B7000D46F002044690020BE000020C000002087
:100B8000C1000020C2000020C30000200600002099
:100B9000507F00202DE9F05FDFF84882934A9449A6
:100BA000002398F80040DFF840C210884F79DFF842
:100BB00044E29B464FF4006641F28835002C6AD02F
:100BC0000B788EF800304B788EF801307B0074463D
:100BD0008EF80230B04203D2BCF82831012B06D087
:100BE000A84233D3BCF82801012816D02EE07E4D50
:100BF000804E00200DE0138806EB400705EB430311
:100C000033F81030401C4FEA132C87F803C03B71B7
:100C1000C0B24B798342EED818E0774D754E002074
:100C200011E0138806EB400705EB830303EB800319
:100C3000A3F5A043401CB3F8E031C0B24FEA132C37
:100C400087F803C03B714B798342EAD8A078C01C77
:100C5000C1B26848FFF7DEFD6849020A08806549AD
:100C6000A378C91C5A54A278491C4FF6FF735054FC
:100C7000A2786348521D6349028088F800B0A1F849
:100C800000B05C49604803F0F9F9BDE8F05F20214D
:100C90005E4801F06FBD5E4CDFF878A194F80080EB
:100CA0009AF80040C14658EA04087DD041F27078B5
:100CB000404504D9BCF81280B8F5FA6F5AD1012327
:100CC000A0F12D02062A08D8DFF84C81A8F80020F0
:100CD000DFF84881012288F800209CB1444AB042E4
:100CE0001479527902EB042202D22CF8102041E050
:100CF000A8423FD3404C04EB8000A0F5A040C0F8D0
:100D0000E02137E0B9F1000F34D0642F32D2374AF6
:100D1000B04214D2364E344C00200CE006EB4007B3
:100D2000FD793F7A07EB0525178804EB470727F87D
:100D30001050401CC0B24D798542EFD81AE0A8424D
:100D400018D32B4D2C4C002011E000BF05EB4006C2
:100D5000F779367A06EB0726178804EB870707EB47
:100D60008007A7F5A047401CC0B2C7F8E0614E79E4
:100D70008642EBD802208EF8000048788EF80100F9
:100D800088788EF80200C8788EF8030008798EF80B
:100D90000400487974468EF8050013B9FF202071CD
:100DA00060710621134800E019E0FFF733FD134995
:100DB0004FF6FF730880010AA171E0711048082204
:100DC00013490280104881F800B00E498AF800B03B
:100DD000A1F800B0BDE8F05F064903F04FB9BDE8E7
:100DE000F09F0000C000002044690020BE000020E9
:100DF000D46F0020CE750020E4140020BC00002039
:100E0000BA000020B6000020507F0020000C0240F5
:100E1000C1000020C30000205E0000206E00002002
:100E20002DE9F041344A00251088002861D033496B
:100E3000334B09781C88A1425BD0198031490B885B
:100E40005B1C9BB20B80052B53D92F4F00262F4CD8
:100E5000388090460E80FF2834D82D4A2178B2F889
:100E6000402191422FD1801EC1B22046FFF7D2FC13
:100E70003A88010A2244C0B212F8023C8B421FD1C8
:100E800012F8011C81421BD160780121214A0328FC
:100E900007D0102807D001280DD006280ED0012534
:100EA00011E01D4800E01D480170A078E17801EBD9
:100EB0000020108007E01A48017004E01948F3E7A9
:100EC000022500E0042501221749184803F038F8EC
:100ED000A8F80060002D0CD000202654401C80B2E1
:100EE0001428FAD3BDE8F04101220F490F4803F05E
:100EF00027B8BDE8F08100000E0000205600002059
:100F0000D6000020D8000020CA000020D3700020A6
:100F100044690020D0000020D2000020D30000202F
:100F2000D4000020D500002007000020947F00207E
:100F30002DE9F05FDFF84882934A9449002398F83E
:100F40000040DFF840C210884F79DFF844E29B464A
:100F50004FF4006641F28835002C6AD00B788EF889
:100F600000304B788EF801307B0074468EF80230EA
:100F7000B04203D2BCF82831012B06D0A84233D3AB
:100F8000BCF82801012816D02EE07E4D804E0020AE
:100F90000DE0138806EB400705EB430333F81030F0
:100FA000401C4FEA132C87F803C03B71C0B24B7949
:100FB0008342EED818E0774D754E002011E013887B
:100FC00006EB400705EB830303EB8003A3F5A04387
:100FD000401CB3F8E031C0B24FEA132C87F803C0CD
:100FE0003B714B798342EAD8A078C01CC1B26848F3
:100FF000FFF710FC6849020A08806549A378C91CFC
:101000005A54A278491C4FF6FF735054A278634893
:10101000521D6349028088F800B0A1F800B05C4915
:10102000604803F02BF8BDE8F05F10215E4801F046
:10103000A1BB5E4CDFF878A194F800809AF80040DC
:10104000C14658EA04087DD041F27078404504D981
:10105000BCF81280B8F5FA6F5AD10123A0F12D0225
:10106000062A08D8DFF84C81A8F80020DFF848816C
:10107000012288F800209CB1444AB0421479527988
:1010800002EB042202D22CF8102041E0A8423FD308
:10109000404C04EB8000A0F5A040C0F8E02137E010
:1010A000B9F1000F34D0642F32D2374AB04214D293
:1010B000364E344C00200CE006EB4007FD793F7AB9
:1010C00007EB0525178804EB470727F81050401C4D
:1010D000C0B24D798542EFD81AE0A84218D32B4D03
:1010E0002C4C002011E000BF05EB4006F779367A62
:1010F00006EB0726178804EB870707EB8007A7F5A1
:10110000A047401CC0B2C7F8E0614E798642EBD8D8
:1011100002208EF8000048788EF8010088788EF85A
:101120000200C8788EF8030008798EF80400487928
:1011300074468EF8050013B9FF20207160710621F6
:10114000134800E019E0FFF765FB13494FF6FF7302
:101150000880010AA171E071104808221349028039
:10116000104881F800B00E498AF800B0A1F800B02C
:10117000BDE8F05F064902F081BFBDE8F09F0000C6
:10118000D200002044690020D0000020D37000204D
:10119000CD760020E4140020CE000020CC000020FA
:1011A000C8000020947F0020000C0240D3000020E3
:1011B000D50000205E0000206E0000202DE9F041E7
:1011C000344A00251088002861D03349334B097810
:1011D0001C88A1425BD0198031490B885B1C9BB2F3
:1011E0000B80052B53D92F4F00262F4C388090466B
:1011F0000E80FF2834D82D4A2178B2F8422191423E
:101200002FD1801EC1B22046FFF704FB3A88010AA5
:101210002244C0B212F8023C8B421FD112F8011CCA
:1012200081421BD160780121214A032807D0102870
:1012300007D001280DD006280ED0012511E01D4849
:1012400000E01D480170A078E17801EB00201080DB
:1012500007E01A48017004E01948F3E7022500E0AE
:10126000042501221749184802F06AFEA8F8006018
:10127000002D0CD000202654401C80B21428FAD334
:10128000BDE8F04101220F490F4802F059BEBDE808
:10129000F08100001000002056000020E80000202F
:1012A000EA000020DC000020D27100204469002008
:1012B000E2000020E4000020E5000020E60000201D
:1012C000E700002008000020D87F00202DE9F05F13
:1012D000DFF84882934A9449002398F80040DFF8E9
:1012E00040C210884F79DFF844E29B464FF4006615
:1012F00041F28835002C6AD00B788EF800304B789C
:101300008EF801307B0074468EF80230B04203D272
:10131000BCF82831012B06D0A84233D3BCF82801F1
:10132000012816D02EE07E4D804E00200DE013885F
:1013300006EB400705EB430333F81030401C4FEA3F
:10134000132C87F803C03B71C0B24B798342EED8AF
:1013500018E0774D754E002011E0138806EB40072A
:1013600005EB830303EB8003A3F5A043401CB3F814
:10137000E031C0B24FEA132C87F803C03B714B79C0
:101380008342EAD8A078C01CC1B26848FFF742FA8D
:101390006849020A08806549A378C91C5A54A27892
:1013A000491C4FF6FF735054A2786348521D63499D
:1013B000028088F800B0A1F800B05C49604802F0F3
:1013C0005DFEBDE8F05F08215E4801F0D3B95E4CD8
:1013D000DFF878A194F800809AF80040C14658EAF6
:1013E00004087DD041F27078404504D9BCF81280E1
:1013F000B8F5FA6F5AD10123A0F12D02062A08D8B8
:10140000DFF84C81A8F80020DFF84881012288F835
:1014100000209CB1444AB0421479527902EB042274
:1014200002D22CF8102041E0A8423FD3404C04EBFC
:101430008000A0F5A040C0F8E02137E0B9F1000F2E
:1014400034D0642F32D2374AB04214D2364E344CA4
:1014500000200CE006EB4007FD793F7A07EB0525FD
:10146000178804EB470727F81050401CC0B24D798D
:101470008542EFD81AE0A84218D32B4D2C4C0020FF
:1014800011E000BF05EB4006F779367A06EB072638
:10149000178804EB870707EB8007A7F5A047401CD8
:1014A000C0B2C7F8E0614E798642EBD802208EF8D0
:1014B000000048788EF8010088788EF80200C8781D
:1014C0008EF8030008798EF80400487974468EF887
:1014D000050013B9FF20207160710621134800E058
:1014E00019E0FFF797F913494FF6FF730880010AD7
:1014F000A171E0711048082213490280104881F858
:1015000000B00E498AF800B0A1F800B0BDE8F05F65
:10151000064902F0B3BDBDE8F09F0000E4000020E2
:1015200044690020E2000020D2710020CC77002026
:10153000E4140020E0000020DE000020DA0000209B
:10154000D87F0020000C0240E5000020E7000020CA
:101550005E0000206E0000202DE9F041344A002595
:101560001088002861D03349334B09781C88A14288
:101570005BD0198031490B885B1C9BB20B80052B1B
:1015800053D92F4F00262F4C388090460E80FF28CD
:1015900034D82D4A2178B2F8442191422FD1801EAF
:1015A000C1B22046FFF736F93A88010A2244C0B298
:1015B00012F8023C8B421FD112F8011C81421BD150
:1015C00060780121214A032807D0102807D001287C
:1015D0000DD006280ED0012511E01D4800E01D4861
:1015E0000170A078E17801EB0020108007E01A4834
:1015F000017004E01948F3E7022500E00425012208
:101600001749184802F09CFCA8F80060002D0CD087
:1016100000202654401C80B21428FAD3BDE8F041C3
:1016200001220F490F4802F08BBCBDE8F081000099
:101630001200002056000020FA000020FC000020CC
:10164000EE000020D172002044690020F400002048
:10165000F6000020F7000020F8000020F90000202C
:1016600009000020C87E00202DE9F05FDFF84882E5
:10167000934A9449002398F80040DFF840C210884C
:101680004F79DFF844E29B464FF4006641F288351B
:10169000002C6AD00B788EF800304B788EF8013031
:1016A0007B0074468EF80230B04203D2BCF8283179
:1016B000012B06D0A84233D3BCF82801012816D04C
:1016C0002EE07E4D804E00200DE0138806EB400793
:1016D00005EB430333F81030401C4FEA132C87F816
:1016E00003C03B71C0B24B798342EED818E0774D0E
:1016F000754E002011E0138806EB400705EB8303CD
:1017000003EB8003A3F5A043401CB3F8E031C0B263
:101710004FEA132C87F803C03B714B798342EAD818
:10172000A078C01CC1B26848FFF774F86849020A83
:1017300008806549A378C91C5A54A278491C4FF601
:10174000FF735054A2786348521D6349028088F8A1
:1017500000B0A1F800B05C49604802F08FFCBDE821
:10176000F05F08215E4801F005B85E4CDFF878A113
:1017700094F800809AF80040C14658EA04087DD0E9
:1017800041F27078404504D9BCF81280B8F5FA6F80
:101790005AD10123A0F12D02062A08D8DFF84C8186
:1017A000A8F80020DFF84881012288F800209CB1C9
:1017B000444AB0421479527902EB042202D22CF846
:1017C000102041E0A8423FD3404C04EB8000A0F53C
:1017D000A040C0F8E02137E0B9F1000F34D0642F09
:1017E00032D2374AB04214D2364E344C00200CE08C
:1017F00006EB4007FD793F7A07EB0525178804EBD8
:10180000470727F81050401CC0B24D798542EFD8E9
:101810001AE0A84218D32B4D2C4C002011E000BF39
:1018200005EB4006F779367A06EB0726178804EBB6
:10183000870707EB8007A7F5A047401CC0B2C7F891
:10184000E0614E798642EBD802208EF8000048789D
:101850008EF8010088788EF80200C8788EF80300B0
:1018600008798EF80400487974468EF8050013B99B
:10187000FF20207160710621134800E019E0FEF797
:10188000C9FF13494FF6FF730880010AA171E07187
:101890001048082213490280104881F800B00E4910
:1018A0008AF800B0A1F800B0BDE8F05F064902F088
:1018B000E5BBBDE8F09F0000F60000204469002071
:1018C000F4000020D1720020CB780020E414002026
:1018D000F2000020F0000020EC000020C87E002074
:1018E000000C0240F7000020F90000205E000020FC
:1018F0006E0000202DE9F041344A002510880028B0
:1019000061D03349334B09781C88A1425BD01980E0
:1019100031490B885B1C9BB20B80052B53D92F4F91
:1019200000262F4C388090460E80FF2834D82D4A50
:101930002178B2F8462191422FD1801EC1B22046B3
:10194000FEF768FF3A88010A2244C0B212F8023C4E
:101950008B421FD112F8011C81421BD160780121FA
:10196000214A032807D0102807D001280DD00628C7
:101970000ED0012511E01D4800E01D480170A0783F
:10198000E17801EB0020108007E01A48017004E0C4
:101990001948F3E7022500E00425012217491848F9
:1019A00002F0CEFAA8F80060002D0CD000202654DA
:1019B000401C80B21428FAD3BDE8F04101220F493F
:1019C0000F4802F0BDBABDE8F0810000140000200D
:1019D000560000200C0100200E0100200001002014
:1019E000D073002044690020060100200801002077
:1019F000090100200A0100200B0100200A0000203C
:101A00000C7F00202DE9F05FDFF84882934A94496B
:101A1000002398F80040DFF840C210884F79DFF8C3
:101A200044E29B464FF4006641F28835002C6AD0B0
:101A30000B788EF800304B788EF801307B007446BE
:101A40008EF80230B04203D2BCF82831012B06D008
:101A5000A84233D3BCF82801012816D02EE07E4DD1
:101A6000804E00200DE0138806EB400705EB430392
:101A700033F81030401C4FEA132C87F803C03B7139
:101A8000C0B24B798342EED818E0774D754E0020F6
:101A900011E0138806EB400705EB830303EB80039B
:101AA000A3F5A043401CB3F8E031C0B24FEA132CB9
:101AB00087F803C03B714B798342EAD8A078C01CF9
:101AC000C1B26848FEF7A6FE6849020A0880654967
:101AD000A378C91C5A54A278491C4FF6FF7350547E
:101AE000A2786348521D6349028088F800B0A1F8CB
:101AF00000B05C49604802F0C1FABDE8F05F022125
:101B00005E4800F037BE5E4CDFF878A194F80080A4
:101B10009AF80040C14658EA04087DD041F2707836
:101B2000404504D9BCF81280B8F5FA6F5AD10123A8
:101B3000A0F12D02062A08D8DFF84C81A8F8002071
:101B4000DFF84881012288F800209CB1444AB04265
:101B50001479527902EB042202D22CF8102041E0D1
:101B6000A8423FD3404C04EB8000A0F5A040C0F851
:101B7000E02137E0B9F1000F34D0642F32D2374A78
:101B8000B04214D2364E344C00200CE006EB400735
:101B9000FD793F7A07EB0525178804EB470727F8FF
:101BA0001050401CC0B24D798542EFD81AE0A842CF
:101BB00018D32B4D2C4C002011E000BF05EB400644
:101BC000F779367A06EB0726178804EB870707EBC9
:101BD0008007A7F5A047401CC0B2C7F8E0614E7966
:101BE0008642EBD802208EF8000048788EF801007B
:101BF00088788EF80200C8788EF8030008798EF88D
:101C00000400487974468EF8050013B9FF2020714E
:101C100060710621134800E019E0FEF7FBFD13494F
:101C20004FF6FF730880010AA171E0711048082285
:101C300013490280104881F800B00E498AF800B0BC
:101C4000A1F800B0BDE8F05F064902F017BABDE8A0
:101C5000F09F0000080100204469002006010020D8
:101C6000D0730020CA790020E41400200401002071
:101C700002010020FE0000200C7F0020000C02402A
:101C8000090100200B0100205E0000206E000020F2
:101C90002DE9F041344A00251088002861D03349ED
:101CA000334B09781C88A1425BD0198031490B88DD
:101CB0005B1C9BB20B80052B53D92F4F00262F4C5A
:101CC000388090460E80FF2834D82D4A2178B2F80B
:101CD000482191422FD1801EC1B22046FEF79AFDC5
:101CE0003A88010A2244C0B212F8023C8B421FD14A
:101CF00012F8011C81421BD160780121214A03287E
:101D000007D0102807D001280DD006280ED00125B5
:101D100011E01D4800E01D480170A078E17801EB5A
:101D20000020108007E01A48017004E01948F3E72A
:101D3000022500E0042501221749184802F000F9A5
:101D4000A8F80060002D0CD000202654401C80B262
:101D50001428FAD3BDE8F04101220F490F4802F0E0
:101D6000EFB8BDE8F081000016000020560000200A
:101D70001E0100202001002012010020CF7400204D
:101D800044690020180100201A0100201B010020D6
:101D90001C0100201D0100200B0000201C800020E1
:101DA0002DE9F05FDFF84882934A9449002398F8C0
:101DB0000040DFF840C210884F79DFF844E29B46CC
:101DC0004FF4006641F28835002C6AD00B788EF80B
:101DD00000304B788EF801307B0074468EF802306C
:101DE000B04203D2BCF82831012B06D0A84233D32D
:101DF000BCF82801012816D02EE07E4D804E002030
:101E00000DE0138806EB400705EB430333F8103071
:101E1000401C4FEA132C87F803C03B71C0B24B79CA
:101E20008342EED818E0774D754E002011E01388FC
:101E300006EB400705EB830303EB8003A3F5A04308
:101E4000401CB3F8E031C0B24FEA132C87F803C04E
:101E50003B714B798342EAD8A078C01CC1B2684874
:101E6000FEF7D8FC6849020A08806549A378C91CB6
:101E70005A54A278491C4FF6FF735054A278634815
:101E8000521D6349028088F800B0A1F800B05C4997
:101E9000604802F0F3F8BDE8F05F01215E4800F011
:101EA00069BC5E4CDFF878A194F800809AF8004095
:101EB000C14658EA04087DD041F27078404504D903
:101EC000BCF81280B8F5FA6F5AD10123A0F12D02A7
:101ED000062A08D8DFF84C81A8F80020DFF84881EE
:101EE000012288F800209CB1444AB042147952790A
:101EF00002EB042202D22CF8102041E0A8423FD38A
:101F0000404C04EB8000A0F5A040C0F8E02137E091
:101F1000B9F1000F34D0642F32D2374AB04214D214
:101F2000364E344C00200CE006EB4007FD793F7A3A
:101F300007EB0525178804EB470727F81050401CCE
:101F4000C0B24D798542EFD81AE0A84218D32B4D84
:101F50002C4C002011E000BF05EB4006F779367AE3
:101F600006EB0726178804EB870707EB8007A7F522
:101F7000A047401CC0B2C7F8E0614E798642EBD85A
:101F800002208EF8000048788EF8010088788EF8DC
:101F90000200C8788EF8030008798EF804004879AA
:101FA00074468EF8050013B9FF2020716071062178
:101FB000134800E019E0FEF72DFC13494FF6FF73BC
:101FC0000880010AA171E0711048082213490280BB
:101FD000104881F800B00E498AF800B0A1F800B0AE
:101FE000BDE8F05F064902F049B8BDE8F09F000087
:101FF0001A0100204469002018010020CF7400203D
:10200000C97A0020E41400201601002014010020E9
:10201000100100201C800020000C02401B01002049
:102020001D0100205E0000206E000020704701208E
:1020300000F09EBA72B6FEE710B52DED108BB0EE33
:1020400062BAB0EE42AAB0EE61FAB0EE418AF0EEAA
:10205000608AF0EE40AA9FED909BB5EEC0BAF1EE1B
:1020600010FA2BDBB4EEC8BAF1EE10FA26D81BEE4C
:10207000100AFEF79AFA41EC1C0B1BEE100AFEF751
:1020800094FA41EC1B0B18EE900AFEF78EFA53EC13
:10209000192BFEF77FF953EC1B2BFEF77BF953EC62
:1020A0001C2BFEF777F941EC180B1AEE900AFEF79D
:1020B0007CFA41EC100B53EC182B41E038EE0F0A80
:1020C000B4EECB8AF1EE10FA3FD2B4EECB0AF1EEC9
:1020D00010FA3ADB3BEE480A20EE280A20EE080A06
:1020E00010EE100AFEF761FA41EC1B0B18EE100A15
:1020F000FEF75BFA41EC1D0B18EE100AFEF755FADD
:1021000041EC1C0B18EE900AFEF74FFA53EC192B1A
:10211000FEF740F953EC1C2BFEF73CF953EC1D2B5A
:10212000FEF738F941EC180B1AEE900AFEF73DFA6B
:1021300053EC182BFEF787F853EC1B2B41EC100BDC
:1021400051EC100BFEF77FF89BE0B4EECB0AF1EEFA
:1021500010FA7DD270EE0ABAF4EECBBAF1EE10FAB4
:1021600076DB1AEE100AFEF720FA3BEECBBA41EC12
:102170001E0B1BEE100AFEF718FA41EC1D0B1BEEAE
:10218000100AFEF712FA41EC1C0B18EE100AFEF7CB
:102190000CFA41EC1B0B18EE900AFEF706FA53EC12
:1021A000192BFEF7F7F853EC1B2BFEF7F3F853EC63
:1021B0001C2BFEF7EFF853EC1D2BFEF7EBF853EC5E
:1021C0001E2BFEF759F941EC1B0B1AEE100AFEF715
:1021D000ECF941EC1C0B18EE100AFEF7E6F941ECA5
:1021E0001D0B18EE900AFEF7E0F953EC192BFEF7E1
:1021F000D1F853EC1D2BFEF7CDF853EC1C2BFEF75A
:10220000C9F82FEE280A41EC1C0B20EE080A10EE4C
:10221000100AFEF7CAF941EC1E0B18EE100AFEF781
:10222000C4F941EC1D0B18EE100AFEF7BEF941ECA3
:102230001F0B18EE900AFEF7B8F953EC192BFEF7B6
:10224000A9F853EC1F2BFEF7A5F853EC1D2B00E06B
:102250001EE0FEF79FF841EC180B1AEE900AFEF70D
:10226000A4F953EC182BFDF7EEFF53EC1E2BFDF7F2
:10227000EAFF53EC1C2BFDF7E6FF53EC1B2BFEF79C
:1022800083F8FEF7A5F900EE100ABDEC108B10BD27
:102290009FED030AF9E70000000000000000E03FA6
:1022A000000000002DE9F04F00242246264621467A
:1022B000A146254607281ED2DFE800F01D040608C7
:1022C0000A0C0E00534B08E0534B06E0534B04E05E
:1022D000534B02E0534B00E0534B4FF0000BD3F84D
:1022E0001CA0D3F820C09F6A0AEB0C00B8424BD860
:1022F000DE68198B10E000200146BDE8F08F1869F8
:1023000030F8158036F8150005F1010508FB00F8D6
:1023100018EB040442EBE872A942F0DC0020B3F8A9
:102320001A900DE01D6901EB000800F1010035F87D
:10233000185036F8188005FB08F52C1942EBE572A9
:102340008145EFDC6FF0010505EB4101A7EB0A00C9
:10235000715AA0EB0C00484300194BEB0201A7EBAC
:102360000C0252E0D86830F815000CFB00FC4FEA74
:10237000EC791CEB040449EB02021CEB060649EB6A
:102380000101D1466D1C01E0D3F8108038F815002A
:1023900000EB090A8446BAEB570FE3D9A0194A416A
:1023A000C9F1000A1FFA8CF407EB4A018C4220D2D3
:1023B00028F81510C3F81CB0C3F820B000211C8BFE
:1023C00006E01E69DF6936F81160491C3E44DE6193
:1023D0008C42F6DC00215E8B09E01F6904EB010CE6
:1023E000491C37F81C70D3F820C067441F628E4226
:1023F000F3DCD96831F815409D6A05EB4A014C437E
:1024000020184BEB0201A5EB09025A629864D964CB
:1024100073E700001497002068970020BC97002005
:102420001098002064980020B89800202DE9F04111
:102430000446876D00F0ACF9064694F83500002597
:10244000022806D08020606584F834500120BDE861
:10245000F0812068016821F016010160206841695F
:1024600021F080014161206C08B9A06C20B1206886
:10247000016821F0080101602068016821F0010174
:1024800001600BE000F084F9801B052806D92020AC
:10249000606504F8345F03206070D8E72068006846
:1024A000C007EFD194F85C103F208840B86004F872
:1024B000345F012060700020C9E790F835100229D0
:1024C00003D08021416501207047052180F8351037
:1024D0000068016821F001010160002070470000E0
:1024E00070B5044600F054F90546601C02D004485B
:1024F0000078044400F04CF9401BA042FAD370BDB0
:102500002401002010B5012828D1112104F0FCF885
:10251000C00703D01249012004F01EFA1121022045
:1025200004F0F2F8800703D50E49022004F014FAF3
:102530001121032004F0E8F8400703D50A490320DD
:1025400004F00AFA1121042004F0DEF8000705D592
:10255000BDE810400549042004F0FEB910BD00009C
:1025600048010020470200204603002045040020C7
:10257000044910B50A68024202D00860FFF7C2FFA2
:1025800010BD0000143C01402DE9F84FDFF8B8A160
:10259000002201250AF1040B03264FF00F090BF16D
:1025A000040E00BF0B6805FA02F42340A3426FD16A
:1025B0000F7907F00307012F01D0022F16D187688A
:1025C0004FEA420806FA08FC27EA0C07D1F80CC0CB
:1025D0000CFA08FC4CEA070CC0F808C04768A7438F
:1025E0000C79C4F3001494403C4344600C79E443F8
:1025F000A4070AD0C4684FEA420C06FA0CF7BC43A1
:102600008F6807FA0CF72743C7600C7904F00304BE
:10261000022C12D1D40800EB840CDCF820405707C0
:10262000FF0E09FA07F824EA0804D1F8108008FA26
:1026300007F848EA0408CCF8208004684FEA420C06
:1026400006FA0CF7BC430F7907F0030707FA0CF7FB
:10265000274307604C68E40070D53C4C276847F47A
:1026600080472760246822F0030704F48044009424
:10267000374C07EB040CDCF8084897074FEA17784B
:1026800009FA08F7BC43334FB84202D1002724E0CF
:1026900054E0314FB84201D101271EE02F4FB8421C
:1026A00001D1022719E02E4FB84201D1032714E0CF
:1026B0002C4FB84201D104270FE02B4FB84201D173
:1026C00005270AE0294FB84201D1062705E0284F27
:1026D000B84201D1072700E0082707FA08F7274387
:1026E000CCF80878DAF800405746D1F804C09C438B
:1026F0005FEACC3C00D51C433C60DBF800405F4601
:10270000D1F804C09C435FEA8C3C00D51C433C607C
:10271000DEF800407746D1F804C09C435FEACC2C39
:1027200000D51C433C60084F0C373C68D1F804C00E
:102730009C435FEA8C2C00D51C433C60521C102A41
:10274000FFF430AFBDE8F88F003C01404438024050
:102750000030014000000240000402400008024036
:10276000000C024000100240001402400018024019
:10277000001C0240426921EA02030A4043EA024186
:10278000816170470AB1816170470904FBE700006D
:1027900001488068704700002401002002488168D9
:1027A0000278114481607047240100200B4810B565
:1027B000016841F400710160016841F480610160C9
:1027C000016841F480710160032000F071F800207D
:1027D00000F006F800F024F8002010BD003C024094
:1027E00070B50D4D04464FF47A712878B1FBF0F0C6
:1027F0000A490968B1FBF0F000F0D1FC48B9102C8F
:1028000007D200222146501E00F032F800206C60F2
:1028100070BD012070BD00002401002030010020A7
:102820000B4882B0016841F480410160006800F407
:10283000804000900648001F016841F0805101600F
:10284000006800F080500090052002B000F030B821
:1028500044380240002809DB00F01F0201219140AA
:102860004009800000F1E020C0F80011704700002E
:10287000F0B40E4B1B680C46C3F30223C3F10705EB
:10288000042D00D90425191D072901D2002300E0D9
:10289000DB1E012606FA05F1491E214099409E40A3
:1028A000761E16403143F0BC03F041BF0CED00E052
:1028B000064900F0070208684FF6FF03184040EA97
:1028C0000220034A10430860704700000CED00E04E
:1028D0000000FA052DE9F0470E46050065D0DFF847
:1028E0001481D8F80000F7B200F00700B04207D218
:1028F00088F80070D8F8000000F00700B04254D10A
:1029000028683D4C810712D5400703D5206840F464
:10291000E05020602878000703D5206840F460402C
:1029200020602068A96820F0F00008432060287823
:10293000C0072DD0304968680839012812D0022814
:1029400013D0032811D00968890700292DDA2168DE
:1029500021F0030101432160FFF71AFF814641F294
:10296000883A0EE009688903EFE709688901ECE716
:10297000FFF70EFFA0EB0901514502D90320BDE886
:10298000F0872068696800F00C00B0EB810FEFD190
:10299000D8F80010404601F00701B14207D907708E
:1029A000006800F00700B04201D00120E7E7287876
:1029B000400705D52068E96820F4E050084320600E
:1029C0002878000706D52068296920F4604040EA8D
:1029D000C100206000F038F82168084AC1F30311F3
:1029E000515CC8400649086006480068FFF7F8FED9
:1029F0000020C4E7003C024008380240AA6B0008EF
:102A000030010020280100200448054900680968B9
:102A1000044AC1F38221515CC84070473001002054
:102A200008380240BA6B0008044805490068096884
:102A3000044AC1F34231515CC84070473001002064
:102A400008380240BA6B0008154810B5006810F04D
:102A50000C02144813D04110042A0FD0082A0ED1BA
:102A60000F4C241F2268236802F03F025B0207D547
:102A70002068C0F38810A0FB010106E0084610BDE5
:102A80002168C1F38811A1FB00010023FDF798FB29
:102A90002168C1F30141491C4900B0FBF1F010BDB0
:102AA000083802400024F4002DE9F84F04006ED0ED
:102AB0002078DFF84C93C007A9F104054AD009F14A
:102AC00004000168C1F38101012908D00068C0F346
:102AD000810002280AD1D9F80000400206D52868F2
:102AE000800337D560680028E1D033E06068B0F536
:102AF000803F10D0B0F5A02F286810D020F480308F
:102B00002860286820F4802028606068A8B1FFF75A
:102B10003FFE06460DE0286840F48030F4E740F4BC
:102B200080202860F7E700BFFFF732FE801B642893
:102B300073D828688003F7D50CE0FFF729FE064616
:102B400005E000BFFFF724FE801B6428F0D828684A
:102B50008003F7D42078DFF8AC8280074FF0000ABA
:102B60003ED5A748001D016811F00C0F08D0006881
:102B7000C0F3810002280BD1D9F80000400207D42D
:102B80002868800716D5E068012800D112E033E1FB
:102B9000E068B8B10120C8F80000FFF7F9FD06466B
:102BA00005E000BFFFF7F4FD801B0228C0D82868AD
:102BB0008007F7D52868216920F0F80040EAC100B5
:102BC00028600DE0C8F800A0FFF7E2FD064604E02B
:102BD000FFF7DEFD801B02281FD828688007F7D486
:102BE0002078000722D5864F87486169703771B118
:102BF00001210160FFF7CCFD064604E0FFF7C8FDA8
:102C0000801B022809D838688007F7D50EE0C0F885
:102C100000A0FFF7BDFD064605E082E0FFF7B8FD26
:102C2000801B02287DD838688007F7D420784007B9
:102C300068D5DFF8CCB100270BF13C0BDBF80000C6
:102C4000C0000BD4DBF8001041F08051CBF800102D
:102C5000DBF80000012700F0805000906B4E3068D8
:102C6000C00510D4306840F480703060FFF790FDEC
:102C7000009005E0FFF78CFD0099401A022850D81B
:102C80003068C005F6D55E4EA0686C3601280FD0BE
:102C90000528306810D020F001003060306820F046
:102CA00004003060A068B8B1FFF772FD00900FE03B
:102CB000306840F00100F4E740F004003060F7E7CE
:102CC000FFF766FD0099411A41F28830814266D8CB
:102CD00030688007F4D50EE0FFF75AFD009007E05A
:102CE000FFF756FD0099411A41F28830814256D8CB
:102CF00030688007F4D42FB1DBF8001021F0805148
:102D0000CBF80010A069C8B33D49091D0968C1F39B
:102D1000810102294AD00228504607D0C8F8600035
:102D200000E03CE0FFF734FD04463BE04746C8F8CE
:102D30006000FFF72DFD064605E000BFFFF728FD08
:102D4000801B02282BD828688001F7D4D4E907011A
:102D50000843A16A2E4A490802EB0141626A41EA2E
:102D60008211084394F82C1040EA0161C9F8001060
:102D700001203866FFF70CFD044606E03EE000BF88
:102D8000FFF706FD001B022809D828688001F7D547
:102D900034E000BFFFF7FCFC001B022802D903202F
:102DA000BDE8F88F28688001F4D427E00128F7D027
:102DB000D9F80000E26900F4800191421CD1226A36
:102DC00000F03F01914217D147F6C071626A01409D
:102DD000B1EB821F10D1A26A4FF0FF3300F44031F3
:102DE00003EB5202B1EB024F06D194F82C1000F025
:102DF0007060B0EB016F01D00120D1E70020CFE778
:102E00000438024000004742800E474200700040F4
:102E10000000FFFF70B5040009D0606A002540B1D2
:102E200025616561A56294F8510040B10CE0012074
:102E300070BD6068B0F5827FF4D0E561F2E784F898
:102E40005050204600F044F8022084F851002068D9
:102E5000016821F040010160A088218900F482709E
:102E600001F404410843A18901F400610843217C75
:102E700001F002010843217D01F001010843218B8B
:102E800001F400710843217F01F03801084394F8F0
:102E9000201001F080010843218D01F40051084306
:102EA00021680860A069042101EA104094F8241008
:102EB00001F010010843216848602068C16921F4CD
:102EC0000061C1616565012084F85100002070BD7A
:102ED000F0B587B0044614216846FDF7A9F93148DA
:102EE00027680023304902240325052687421AD18A
:102EF0002D481430026842F480520260006800F4E9
:102F000080500590086840F001000860086802AA37
:102F100000F001000590F020CDE9000482E868008F
:102F2000694622481EE0204ADFF884C0103221485A
:102F300067451BD1156845F480451560126802F499
:102F4000804205920A6842F002020A60096802ADF6
:102F500001F0020105914FF47041CDE9001485E8BC
:102F600058006946FFF710FB07B0F0BD124EB7429C
:102F7000FAD1166846F400461660126802F4004260
:102F800005920A6842F002020A600968029301F0A1
:102F9000020105913821CDE900140621CDE9035144
:102FA0006946DFE70030014030380240000002404F
:102FB0000038004000040240003C00402DE9F84F7A
:102FC000044690F8500000270A9E1D4692468B4604
:102FD0004FF0010901280ED0012084F85000FFF7BE
:102FE000D7FB804694F85100616801280CD0B1F5F8
:102FF000827F07D102E00220BDE8F88FA16809B9FD
:10300000042801D00227C2E0BBF1000F27D0BAF19B
:10301000000F24D01DB394F85100042802D00520DD
:1030200084F8510000206065C4F838A0E587A587C2
:10303000C4F830B0E586A586206460642068016825
:10304000490603D4016841F040010160E068B0F531
:10305000006F606805D0E8B3012D46D07FE00127FE
:1030600095E008B1012D39D1206B21680088C86036
:10307000206B801C2063E08E401EE0862EE02068DE
:10308000816889070FD5E18E69B1B9F1010F0AD1C5
:10309000216B0988C160206B801C2063E08E401E7C
:1030A000E0864FF0000920688168C9070CD0E18FE5
:1030B00051B1C068A16B0880A06B801CA063E08F39
:1030C000401EE0874FF00109FFF762FBA0EB08000C
:1030D000B04200E009E001D3701C50D1E08E00281E
:1030E000CDD1E08F0028CAD13FE0206B2168007865
:1030F0000873206B401C2063E08E401EE0862EE0AB
:103100002068816889070FD5E18E69B1B9F1010F97
:103110000AD1216B09780173206B401C2063E08E7B
:10312000401EE0864FF0000920688168C9070CD076
:10313000E18F51B1C068A16B0870A06B401CA06307
:10314000E08F401EE0874FF00109FFF721FBA0EB65
:103150000800B04202D3701C01D010E07EB1E08EB6
:103160000028CDD1E08F0028CAD142463146204602
:1031700002F050FB28B101272020606507E00327FB
:1031800005E0A06818B92068C16880680090012037
:1031900084F85100002084F8500038462CE710B520
:1031A000401EB0F1807F01D3012010BD4FF0E0241C
:1031B00060610F21601703F0BAFA0020A0610720B8
:1031C0002061002010BD7047704710B590F83C207A
:1031D000012A22D0012280F83C20CA688C6822F49F
:1031E000407222434C6822F4806222430C6822F42D
:1031F000006222430C6922F4805222434C6922F47B
:1032000000522243C969002322F480420A43016824
:103210004A6480F83C30002010BD022010BD000040
:1032200070B590F83C20012A32D0012480F83C404F
:10323000022280F83D2003685A689D6822F07006DB
:103240000A6832435A60134B02689A4214D0B2F1B2
:10325000804F11D0104B9A420ED0104B9A420BD097
:103260000F4B9A4208D00F4B9A4205D00E4B9A4210
:1032700002D00E4B9A4204D1496825F080031943CD
:10328000916080F83D40002180F83C10084670BDF8
:10329000022070BD00000140000400400008004012
:1032A000000C0040000401400040014000180040B4
:1032B00010B5040003D094F83D0010B107E00120E0
:1032C00010BD002084F83C00204600F01FF80220CA
:1032D00084F83D00211D206802F0ACFD012084F837
:1032E000460084F83E0084F83F0084F8400084F8EB
:1032F000410084F8420084F8430084F8440084F8D4
:10330000450084F83D00002010BD000008B50268AB
:103310003E483F4982420ED1086840F001000860F3
:103320000868002200F00100009011461B20FFF702
:103330009FFA1B2066E03648001FB2F1804F11D083
:10334000344B9A421DD1016841F0020101600068CE
:10335000002200F00200009011461D20FFF788FABD
:103360001D204FE0016841F001010160006800226A
:1033700000F00100009011461C20FFF779FA1C2094
:1033800040E0254B9A420ED1016841F004010160F2
:103390000068002200F00400009011461E20FFF794
:1033A00067FA1E202EE01D4B9A420ED1016841F0B3
:1033B000080101600068002200F00800009011463A
:1033C0003220FFF755FA32201CE0154B9A4208D103
:1033D000016841F020010160006800F020000090C9
:1033E00008BD10488242FBD1086840F00200086026
:1033F0000868002200F00200009011462E20FFF71E
:1034000037FA2E20BDE80840FFF724BA000001403B
:10341000443802400004004000080040000C004016
:10342000001400400004014090F83D10012901D033
:1034300001207047022180F83D1000681149884240
:1034400014D0B0F1804F11D00F4988420ED00F49EF
:1034500088420BD00E49884208D00E49884205D0D8
:103460000D49884202D00D49884204D1816801F09B
:103470000701062903D0016841F001010160002025
:1034800070470000000001400004004000080040B8
:10349000000C0040000401400040014000180040C2
:1034A00001680A6A41F211131A4207D10A6A9B1095
:1034B0001A4203D10A6822F001020A60012180F851
:1034C0003D100020704770B5044690F83C0001287C
:1034D00017D0012584F83C50022084F83D00206874
:1034E000826822F0770222F47F42826008685028C6
:1034F00030D00DDC20284DD005DC98B310283BD10E
:1035000048E0022070BD302844D0402834D139E052
:10351000602828D0702806D0B0F5805F2CD0B0F598
:10352000005F29D10AE0CB68D1E90121206802F0CF
:10353000F2FC2068816841F0770109E0CB68D1E9AD
:103540000121206802F0E7FC2068816841F4804195
:10355000816011E0CA684968206802F0B1FD50211D
:10356000206807E016E0CA684968206802F0B9FDE3
:103570006021206802F0D9FC84F83D50002084F8D6
:103580003C0070BDCA684968206802F099FD40217E
:103590002068EFE7226801461046EBE7704770B5F8
:1035A0000446006801694FF00005C943890715D436
:1035B000C168C943890711D4E91E01610120207740
:1035C000206880698007204602D0FFF7E7FF04E00B
:1035D00000F050F9204600F0DFF9257720680169F6
:1035E000C943490717D4C168C943490713D46FF0C9
:1035F00004010161022020772068806910F4407F77
:10360000204602D0FFF7CAFF04E000F033F920465D
:1036100000F0C2F9257720680169C943090716D46B
:10362000C168C943090712D46FF008010161042081
:1036300020772068C0698007204602D0FFF7AEFFE0
:1036400004E000F017F9204600F0A6F9257720687D
:103650000169C943C90617D4C168C943C90613D44F
:103660006FF010010161082020772068C06910F414
:10367000407F204602D0FFF791FF04E000F0FAF807
:10368000204600F089F9257720680169C943C907F8
:1036900008D1C168C943C90704D1891E0161204608
:1036A00000F0ECF920680169C943090609D4C16832
:1036B000C943090605D46FF0800101612046FFF778
:1036C00082FD20680169C943490609D4C168C9431C
:1036D000490605D46FF040010161204600F0CFF9A2
:1036E00020680169C94389060BD4C168C9438906AA
:1036F00007D46FF0200101612046BDE87040FFF75C
:1037000063BD70BDF0B587B0044614216846FCF770
:103710008FFD24683A4800263A4902230122844258
:1037200010D1086840F010000860086800F0100030
:10373000059048150090CDE9013203926946324860
:1037400004921EE03148B4F1804F0CD0304F314D1F
:10375000BC421AD1086840F0020008600868009373
:1037600000F002001EE00C6844F001040C600968DF
:103770000093CDE9013201F00101CDE9042103926A
:1037800027E0FEF701FF07B0F0BDDFF88CC040274F
:1037900064450FD1086840F002000860086800978F
:1037A00000F00200CDE90132CDE904306946039210
:1037B0002846E6E7194DAC420DD10C6844F00104EF
:1037C0000C6009688DE84C0001F00101CDE904317D
:1037D00003966946D5E712488442D4D1086840F080
:1037E000040008600868009700F004000590CDE927
:1037F00001320320CDE9032069460A48C1E70000F1
:103800000000014030380240001002400000024039
:10381000000400400004024000080040000C00408A
:10382000000401400008024010B5044690F83C0036
:1038300001280AD0012084F83C0042B1042A0AD0B1
:10384000082A0CD00C2A11D10DE0022010BD2068EE
:1038500002F074FB0AE0206802F0A0FB06E020689A
:1038600002F0D2FB02E0206802F002FC002084F8A3
:103870003C0010BD704710B5040003D094F83D0023
:1038800010B107E0012010BD002084F83C00204664
:1038900000F01EF8022084F83D00211D206802F08F
:1038A000C9FA012084F8460084F83E0084F83F00FD
:1038B00084F8400084F8410084F8420084F8430012
:1038C00084F8440084F8450084F83D00002010BDD1
:1038D000704770B5044690F83C000D4601280AD0A8
:1038E000012084F83C0042B1042A18D0082A2AD0CA
:1038F0000C2A4DD139E0022070BD206802F01EFB79
:103900002068816941F0080181612068816921F0A6
:1039100004018161206881692A69114311E02068EE
:1039200002F03CFB2068816941F4006181612068FC
:10393000816921F480618161206881692A6941EA95
:103940000221816124E0206802F05EFB2068C169E9
:1039500041F00801C1612068C16921F00401C16121
:103960002068C1692A69114311E0206802F080FBD8
:103970002068C16941F40061C1612068C16921F416
:103980008061C1612068C1692A6941EA0221C1617F
:10399000002084F83C0070BD0649884202D1002115
:1039A000044804E00449884203D10421024800F09D
:1039B00005B87047D07C0020187D002070B5044603
:1039C00000680D0006D0042D0AD0082D3DD00C2D26
:1039D0000DD140E0C16821F40071C160606A04E06B
:1039E000C16821F48061C160A06AFEF766FD002213
:1039F0002946206802F082FA1E4B41F2111120681C
:103A00008A10984202D01C4B984209D1036A0B429B
:103A100006D1036A134203D1436C23F40043436489
:103A20002068036A0B4206D1016A114203D1016882
:103A300021F00101016001209DB1042D14D0082D59
:103A400015D084F84100002070BDC16821F40061E8
:103A5000C160E06AC9E7C16821F48051C160206B90
:103A6000C3E784F83E00EEE784F83F00EBE784F814
:103A70004000E8E700000140000401407047704743
:103A800070477047F8B5026804461068D1685369FA
:103A900010F00F0F4FF0000553D003F0010601F4B2
:103AA000907737435FD0C20705D0CA0503D5226C93
:103AB00042F001022264420705D5DA0703D0226CE6
:103AC00042F002022264820705D5DA0703D0226C95
:103AD00042F004022264020707D501F020023243BB
:103AE00003D0226C42F008022264226C002A34D0F7
:103AF000800604D5880602D5204602F031FB2068F6
:103B00004069216CC0F38010090700D430B320460F
:103B100002F00EFB2068416949061BD5416921F07E
:103B200040014161A06BA8B159490165A06BFEF746
:103B3000C4FC002811D0A06B016D01B0BDE8F040BD
:103B4000084783060FD58B060DD52046BDE8F84003
:103B500002F006BB2046FFF794FFF8BD2046FFF7B2
:103B600090FF2564F8BD266B2023012E53D1C60695
:103B700051D5CE064FD51068506800905069400668
:103B80002BD5A16B086840680004000CEAD0A68D14
:103B90008642E7D9E085C869B0F5807F18D0D06843
:103BA00020F48070D0602068416921F001014161FA
:103BB0002068416921F04001416184F83E3025636D
:103BC0002068C16821F01001C160A06BFEF72EFCD7
:103BD000A08DE18D401A81B219E0A08DE18D401ACF
:103BE00081B2E08D0028BDD00029BBD0D06820F480
:103BF0009070D0602068426922F00102426184F82E
:103C00003E3025632068C26822F01002C260204660
:103C1000FFF736FFF8BD05062BD50D0629D594F81C
:103C20003D002128F6D1A068B0F5805F01D1206960
:103C3000B0B1206A411C2162216800784860E08CA4
:103C4000401E0004000CE084E4D12068C16821F02B
:103C50008001C1602068C16841F04001C160F8BDC9
:103C6000206A0088C0F308005060206A801C20622F
:103C7000E5E74006F3D54806F1D5D168204621F0A6
:103C80004001D16084F83D3000F051FAF8BD0000E9
:103C90002161000870B5040004D094F83D000025AF
:103CA00010B106E0012070BD84F83C50204600F0C1
:103CB00023F8242084F83D002068C16821F40051D5
:103CC000C160204602F0A4FA2068016921F4904105
:103CD00001612068416921F02A0141612068C168C1
:103CE00041F40051C1602564202084F83D0084F82F
:103CF0003E00002070BD00002DE9F04786B004466C
:103D000014216846FCF794FA8249DFF804C2276858
:103D10000023804A10390225012408267E484FF4EA
:103D2000406967451FD1136843F40023136012688C
:103D300002F4002205920A6842F004020A6009684F
:103D4000CDF80090CDE9015401F00401CDE9046102
:103D500003946946FEF718FC002211463420FEF752
:103D600087FD342035E0DFF8B4C1674536D11368EC
:103D700043F480131360126802F4801205920A68FB
:103D800042F004020A600A6802F0040205920A681E
:103D900042F008020A60096801F0080105914FF439
:103DA00080510091CDE90154CDE903466946FEF703
:103DB000EBFB04200090CDE90154CDE903466946B0
:103DC0005748FEF7E1FB002211463520FEF750FD73
:103DD0003520FEF73FFD06B0BDE8F0874D48DFF81F
:103DE0004481001DDFF840A14FF0070C474521D169
:103DF000026842F010020260006800F010000590B6
:103E0000086840F001000860086802AA00F001009C
:103E100005904FF4C060CDE9000582E818106946AE
:103E20005046FEF7B1FB002211462520FEF720FD8B
:103E30002520CEE7DFF8F480474520D1106840F414
:103E400000301060106800F400300590086840F001
:103E500001000860086802AE00F0010005900C2027
:103E6000CDE9000586E8181069465046FEF78CFB40
:103E7000002211462620FEF7FBFC2620A9E7DFF8EA
:103E8000B08047451FD1106840F480201060106852
:103E900000F480200590086840F00200086008687F
:103EA000CDE9023400F00200CDE904C0CDE900956F
:103EB00069462048FEF768FB002211462720FEF7DE
:103EC000D7FC272085E71C4A974284D1026842F03C
:103ED00020020260006800F020000590086840F0B1
:103EE00040000860086802AA00F0400005904FF406
:103EF0008440CDE9000582E8580069460F48FEF786
:103F000043FB002211464720FEF7B2FC472060E742
:103F1000004C004040380240000802400050004081
:103F2000000C02400010014000000240004400402C
:103F30000048004000040240001401400018024004
:103F400090F83E30202B0ED159B152B190F83C3050
:103F5000012B08D0012380F83C300023036302F0DA
:103F6000DDB901207047022070470000334A016824
:103F7000334891420CD18189FD2904D2314B827999
:103F80005A54491C81812E490122891D2E4851E035
:103F90002E4A91420DD1C189FD2905D2294BC27902
:103FA000FF335A54491CC18125490122C91D2848A3
:103FB00040E0284A91420CD1018AFD2904D2264BC7
:103FC000027A5A54491C01821D49012208312348B2
:103FD00030E0234A91420DD1418AFD2905D21E4B82
:103FE000427AFF335A54491C418215490122093152
:103FF0001C481FE01C4A91420CD1818AFD2904D241
:104000001A4B827A5A54491C81820D4901220A3185
:1040100017480FE0174A91420ED1C18AFD2905D2F7
:10402000124BC27AFF335A54491CC18204490122FF
:104030000B311148FFF784BF7047000000100140AA
:1040400000000020D46F0020507F0020004400407A
:10405000947F002000480040D2710020D87F0020CB
:10406000004C0040C87E002000500040D07300206B
:104070000C7F0020001401401C8000202DE9F84333
:10408000044690F83D001F4616460D4620284CD1A8
:10409000C5B1BEB194F83C00012846D0012084F897
:1040A0003C004FF00008C4F84080212084F83D0017
:1040B000FEF76EFBA6848146E684A068B0F5805FBB
:1040C00003D004E00120BDE8F883206928B12E4622
:1040D0005FF0000584F83C800EE00026FAE78021BE
:1040E000204602F051F9A0B9AEB116F8010B2168D3
:1040F0004860E08C401EE084E08C4B464FF00002AC
:1041000000970028EBD14FF04001204602F03CF927
:1041100030B10320D7E735F8020BC0F30800E6E71B
:10412000202084F83D000020CDE70220CBE7704737
:10413000FEE700002DE9F04F4FF0000CDFF848914A
:10414000DFF848A1524F63464FF0804B6446072882
:1041500044D2DFE800F043040F1A252F39004D4BFD
:10416000012518464C4EC5718471C0F850B006F553
:10417000BB7536E0494B02251846494EC57184711E
:10418000C0F8509006F5BB752BE0464B032518464A
:10419000454EC5718471C0F850A006F5BB7520E08E
:1041A000424B04251846424EC5718471076506F5D9
:1041B000BB7516E03F4B052518463F4EC57184710F
:1041C000076506F5BB750CE03C4B062518463C4ED2
:1041D000C5718471076506F5BB7502E0401E0528B0
:1041E00043D819715A634A43DA631C635E219C63A6
:1041F00019835D225A83DE601D619C825C71DC61E3
:10420000C3F8204035F81C00D3F81C800CF1010CD9
:104210004044D8616145F5D8002009E001EB000C6D
:10422000D3F8208035F81CC0401CC444C3F820C01B
:104230008242F3D8196D3088C862186D584506D18E
:10424000D9689A8A31F81210490881630BE0484511
:1042500013D0504511D0B84209D1D9689A8A31F8A3
:10426000121049080164186D4462BDE8F08F1549C9
:10427000884202D014498842F7D1D9689A8A31F825
:10428000121049084163EEE70008004000040140B5
:104290000004004014970020A082002068970020AE
:1042A0008C850020BC970020788800201098002082
:1042B000648B002064980020508E0020B898002065
:1042C0003C91002000000140000C004070B52648E1
:1042D00088B00025016841F001010160006800F02C
:1042E0000100079000F0E8F9204C4FF080460720CD
:1042F0002660C4E901054FF47A70C4E9030520463D
:10430000FEF7D6FF702000904FF4FA700190022063
:10431000CDE90205049505950422694620460695D7
:10432000FFF7D7FA01220421304601F0E7FD002211
:1043300011461C20FEF79CFA1C20FEF78BFA216820
:10434000681F08612168801008612068C16841F019
:104350000101C1602046FFF7A3F82068416C41F4D9
:104360000041416408B070BD40380240D880002050
:1043700070B5264888B00025016841F0040101604D
:10438000006800F00400079000F0E6F9214C204E90
:104390000F202660C4E901054FF47A70C4E90305D3
:1043A0002046FEF785FF702000904FF4FA700190D0
:1043B0000220CDE9020504950595002269462046B4
:1043C0000695FFF786FA01220021304601F096FD9E
:1043D000002211461E20FEF74BFA1E20FEF73AFA85
:1043E0002168E81E08612168401008612068C168E2
:1043F00041F00101C1602046FFF752F82068416C8E
:1044000041F40041416408B070BD000040380240F2
:10441000000800403881002070B5264888B000258B
:10442000016841F002010160006800F0020007909D
:1044300000F0E2F9214C204E0F202660C4E901056E
:104440004FF47A70C4E903052046FEF731FF70206F
:1044500000904FF4FA7001900220CDE90205049516
:1044600005950022694620460695FFF732FA01229B
:104470000021304601F042FD002211462E20FEF7B9
:10448000F7F92E20FEF7E6F92168E81E0861216899
:10449000401008612068C16841F00101C1602046F8
:1044A000FEF7FEFF2068416C41F40041416408B012
:1044B00070BD0000443802400004014078800020B4
:1044C00070B5264888B00025016841F002010160FE
:1044D000006800F00200079000F0DCF9214C204E4B
:1044E0000F202660C4E901054FF47A70C4E9030582
:1044F0002046FEF7DDFE702000904FF4FA70019028
:104500000220CDE90205049505950C226946204656
:104510000695FFF7DEF901220C21304601F0EEFC92
:10452000002211461D20FEF7A3F91D20FEF792F987
:1045300021686FF01000086121680011086120688F
:10454000C16841F00101C1602046FEF7A9FF206863
:10455000416C41F40041416408B070BD40380240F4
:10456000000400409881002070B5264888B00025DE
:10457000016841F001010160006800F0010007904E
:1045800000F0D6F9214C204E0F202660C4E9010529
:104590004FF47A70C4E903052046FEF789FE7020C7
:1045A00000904FF4FA7001900220CDE902050495C5
:1045B00005950022694620460695FFF78AF90122F3
:1045C0000021304601F09AFC002211461B20FEF724
:1045D0004FF91B20FEF73EF92168E81E08612168AB
:1045E000401008612068C16841F00101C1602046A7
:1045F000FEF756FF2068416C41F40041416408B069
:1046000070BD00004438024000000140F8810020E5
:1046100070B5264888B00025016841F008010160A6
:10462000006800F00800079000F0D4F9214C204EFB
:104630000F202660C4E901054FF47A70C4E9030530
:104640002046FEF735FE702000904FF4FA7001907E
:104650000220CDE902050495059500226946204611
:104660000695FFF736F901220021304601F046FC9D
:10467000002211463220FEF7FBF83220FEF7EAF85E
:104680002168E81E08612168401008612068C1683F
:1046900041F00101C1602046FEF702FF2068416C35
:1046A00041F40041416408B070BD00004038024050
:1046B000000C0040588200202DE9F041224886B0CD
:1046C0000026016841F001010160016801F001016B
:1046D0000591016841F010010160016801F01001CD
:1046E0000591016841F0020101600068022400F0B8
:1046F000020000940125CDE9045001946946039419
:104700001248FDF741FFCDE90045DFF84480CDE9CF
:10471000034669464046FDF737FFCDE903462702C9
:104720000C4CCDE9007569462046FDF72DFF0022AF
:1047300002214046FEF726F8012239462046FEF7C0
:1047400021F806B0BDE8F081303802400000024098
:1047500000100240000402402DE9F041234886B0D9
:104760000025016841F002010160016801F00201C9
:104770000591016841F002010160016801F0020148
:104780000591016841F0200101600068022400F0F9
:10479000200005904020CDE90004DFF85480039408
:1047A000694640460494FDF7EFFEE6010127CDE996
:1047B000034569464046CDE90067FDF7E5FECDE9D2
:1047C00003451020CDE900070A4C69462046FDF755
:1047D000DBFE002231464046FDF7D4FF01221021C6
:1047E0002046FDF7CFFF06B0BDE8F081303802402B
:1047F0000004024000140240F0B5234887B00025B1
:10480000016841F004010160016801F004010591B3
:10481000016841F040010160016801F0400105912B
:10482000016841F0400101600068022400F040008E
:1048300005904020CDE900040320CDE903406946FE
:104840001248FDF7A1FE20200126CDE90006104FF9
:1048500069463846CDE90345FDF796FE1020CDE9BF
:10486000000669463846CDE90345FDF78DFE002276
:1048700020213846FDF786FF012210213846FDF73A
:1048800081FF07B0F0BD0000303802400008024050
:10489000001802402DE9F043224887B00026016845
:1048A00041F002010160016801F002010591016817
:1048B00041F020010160016801F0200105910168CB
:1048C00041F0200101600068022400F02000059002
:1048D0000125CDE90045694613480394FDF754FED0
:1048E000CDE903464FF48058DFF84090CDE90085CC
:1048F00069464846FDF748FECDE903462703CDE962
:10490000007569464846FDF73FFE0022414648468D
:10491000FDF738FF012239464846FDF733FF07B05F
:10492000BDE8F08330380240000402400014024029
:104930002DE9F041234886B00026016841F01001BE
:104940000160016801F010010591016841F020014A
:104950000160016801F020010591016841F040010A
:1049600001600068022400F0400005904FF40070E0
:10497000CDE90004012569461348CDE90345FDF75B
:1049800003FECDE90346A703DFF84080CDE90075BB
:1049900069464046FDF7F8FD00950195CDE90346CF
:1049A0000B4C69462046FDF7EFFD00223946404694
:1049B000FDF7E8FE012211462046FDF7E3FE06B0B2
:1049C000BDE8F0813038024000100240001402407F
:1049D000001802402DE9F043234887B00026016803
:1049E00041F001010160016801F0010105910168D8
:1049F00041F008010160016801F0080105910168BA
:104A000041F008010160006802240125CDE900544D
:104A100000F00800CDE90440694603941348FDF70F
:104A2000B3FDCDE903464FF48048DFF84490CDE96B
:104A3000008569464846FDF7A7FDCDE90346A70373
:104A4000CDE9007569464846FDF79EFD00224146C6
:104A50004846FDF797FE012239464846FDF792FE8B
:104A600007B0BDE8F083000030380240000002408B
:104A7000000C02402DE9F04F87B014216846FBF787
:104A8000D7FB91480025016841F0100101600168E1
:104A900001F010010591016841F004010160016815
:104AA00001F004010591016841F0200101600168F5
:104AB00001F020010591016841F080010160016869
:104AC00001F080010591016841F001010160016878
:104AD00001F001010591016841F0020101600168E6
:104AE00001F002010591016841F040010160016897
:104AF00001F040010591016841F008010160006882
:104B0000DFF8C89100F008004FF210040590012270
:104B100021464846FDF736FE012242F23F016C482D
:104B2000FDF730FEDFF8ACA101224CF23B115046FC
:104B3000FDF728FE00224FF4E0716548FDF722FEE4
:104B4000DFF894B14FF46077012239465846FDF7FB
:104B500019FE4FF41948012241466048FDF712FE44
:104B6000012239465E48FDF70DFE012203215D4812
:104B7000FDF708FE4FF6DC5002268DE8610069461D
:104B80005848FDF701FD0F208DE861006946484651
:104B9000FDF7FAFC00940124694648460194CDE9EA
:104BA0000245FDF7F1FC50486946CDE90040029509
:104BB0005846FDF7E9FC30208DE86100694658460B
:104BC000FDF7E2FC8DE8700069464548FDF7DCFC26
:104BD000E002CDE90005694602944846FDF7D4FCA1
:104BE0003F20CDE9000469463948CDE90245FDF78B
:104BF000CBFC2002CDE90004CDE9024669465046CF
:104C0000FDF7C2FC4FF472508DE8610069465046D2
:104C1000FDF7BAFC4CF23B00CDE900046946504672
:104C2000CDE90245FDF7B0FC4FF4A0708DE83100EE
:104C3000694627480395FDF7A7FC802000901120C6
:104C4000CDE90105694622480395FDF79DFCCDE9B4
:104C5000007469465846CDE90245FDF795FCCDE95B
:104C6000008469461D48CDE90245FDF78DFC4FF4EF
:104C70001C408DE8610069461548FDF785FC60031E
:104C8000CDE900040326CDE9024669461048FDF748
:104C90007BFCCDE9007469461148CDE90245FDF77A
:104CA00073FCCDE9006469460E48CDE90245FDF785
:104CB0006BFC002211460620FDF7DAFD0620FDF709
:104CC000C9FD07B0BDE8F08F303802400014024043
:104CD00000180240000C02400008024000000240A0
:104CE000000402400010024000001110104810B5EE
:104CF0000E4901604FF48271416000218160C16002
:104D00004FF480220161C0E905121822C0E9072191
:104D1000416281620A21C162FEF77CF8002803D05B
:104D2000BDE81040FDF786B910BD0000003001401D
:104D3000C87B00200F4810B50D4901604FF4827107
:104D4000416000218160C1604FF480220161C0E9AF
:104D50000512C1610162416281620A21C162FEF7EE
:104D600059F8002803D0BDE81040FDF763B910BD25
:104D700000380040207C00200F4810B50D4901602C
:104D80004FF48271416000218160C1604FF4007274
:104D90000161C0E90512C1610162416281620A21BB
:104DA000C162FEF737F8002803D0BDE81040FDF7D8
:104DB00041B910BD003C0040787C002010B596B091
:104DC00000240F9410941194129413941C2108A899
:104DD0001494FBF72DFA20216846FBF729FA2A489C
:104DE00028490160A721C0E9011440F2E731C0E978
:104DF00003148021C0E90541FEF75AFA08B1FDF716
:104E000019F94FF480500F900FA91F48FEF75BFB74
:104E100008B1FDF70FF91C48FEF72DFD08B1FDF7AD
:104E200009F92020CDE9130413A91748FEF7F8F972
:104E300008B1FDF7FFF83020CDE908040220CDE9E4
:104E40000A040C940D94002208A90F480E94FEF752
:104E5000EBFC08B1FDF7EEF800944FF40050CDE9FB
:104E60000440029401940394694607480794FEF7AE
:104E7000ACF908B1FDF7DEF80348FEF743FC16B0C5
:104E800010BD000000000140D07C002010B58EB0A5
:104E900000240794089409940A940B941C216846F2
:104EA0000C94FBF7C5F91E484FF080410160532177
:104EB000C0E9011440F2E731C0E903148461FEF750
:104EC000F7F908B1FDF7B6F84FF48050079007A93D
:104ED0001348FEF7F8FA08B1FDF7ACF81048FEF7F2
:104EE000CAFC08B1FDF7A6F80B940BA90C480C946A
:104EF000FEF796F908B1FDF79DF83020CDE90004E2
:104F0000022002900422694604940548FEF78CFCB6
:104F100008B1FDF78FF80248FEF7F4FB0EB010BDA4
:104F2000187D002010B58EB00024079408940994D1
:104F30000A940B941C2168460C94FBF779F91F48DE
:104F40001D4901605321C0E9011440F2E731C0E975
:104F500003148461FEF7ACF908B1FDF76BF84FF468
:104F60008050079007A91548FEF7ADFA08B1FDF784
:104F700061F81248FEF77FFC08B1FDF75BF80B946F
:104F80000BA90E480C94FEF74BF908B1FDF752F847
:104F90003020CDE90004022002900C2269460494DE
:104FA0000648FEF741FC08B1FDF744F80348FEF758
:104FB000A9FB0EB010BD000000040040607D002081
:104FC00010B58EB000240794089409940A940B94A9
:104FD0001C2168460C94FBF72BF91F481D49016002
:104FE0005321C0E9011440F2E731C0E903148461A0
:104FF000FEF75EF908B1FDF71DF84FF480500790F9
:1050000007A91548FEF75FFA08B1FDF713F8124833
:10501000FEF731FC08B1FDF70DF80B940BA90E4813
:105020000C94FEF7FDF808B1FDF704F83020CDE947
:105030000004022002900022694604940648FEF70C
:10504000F3FB08B1FCF7F6FF0348FEF75BFB0EB07D
:1050500010BD000000080040A87D002010B58EB0F3
:1050600000240794089409940A940B941C21684620
:105070000C94FBF7DDF81F481D4901605321C0E97E
:10508000011440F2E731C0E903148461FEF710F91E
:1050900008B1FCF7CFFF4FF48050079007A91548DF
:1050A000FEF711FA08B1FCF7C5FF1248FEF7E3FB63
:1050B00008B1FCF7BFFF0B940BA90E480C94FEF748
:1050C000AFF808B1FCF7B6FF3020CDE900040220AC
:1050D00002900022694604940648FEF7A5FB08B139
:1050E000FCF7A8FF0348FEF70DFB0EB010BD000053
:1050F000000C0040F07D00201CB500240E480094F8
:105100000C49019401605321C0E90114012184611B
:10511000C160FEF7CDF808B1FCF78CFF009469463A
:1051200005480194FEF77CF8002801D0FCF782FFC7
:105130001CBD000000140040387E002010B596B061
:1051400000240F9410941194129413941C2108A815
:105150001494FBF76DF820216846FBF769F829489D
:1051600027490160A721C0E9011440F2E731C0E9F5
:10517000031444618461FEF79BF808B1FCF75AFF01
:105180004FF480500F900FA91E48FEF79CF908B10C
:10519000FCF750FF1B48FEF76EFB08B1FCF74AFF17
:1051A000139413A917481494FEF73AF808B1FCF7C2
:1051B00041FF3020CDE908040220CDE90A040C9417
:1051C0000D94002208A90F480E94FEF72DFB08B19C
:1051D000FCF730FF00944FF40050CDE904400294F6
:1051E00001940394694607480794FDF7EEFF08B160
:1051F000FCF720FF0348FEF785FA16B010BD00004B
:1052000000040140807E00200E4810B50C4901606A
:105210004FF461414160002181600C22C160C0E90E
:1052200004128161C161FEF735FD08B1FCF702FF90
:10523000BDE81040012204490248FEF781BE00008B
:10524000004C0040C87E0020090000200E4810B528
:105250000C4901604FF461414160002181600C22E2
:10526000C160C0E904128161C161FEF713FD08B19C
:10527000FCF7E0FEBDE81040012204490248FEF7B9
:105280005FBE0000005000400C7F00200A0000209C
:105290000E4810B50C4901604FF461414160002196
:1052A00081600C22C160C0E904128161C161FEF716
:1052B000F1FC08B1FCF7BEFEBDE810400122044934
:1052C0000248FEF73DBE000000100140507F002064
:1052D000060000200E4810B50C4901604FF46141F2
:1052E0004160002181600C22C160C0E9041281612B
:1052F000C161FEF7CFFC08B1FCF79CFEBDE8104091
:10530000012204490248FEF71BBE00000044004091
:10531000947F0020070000200E4810B50C49016062
:105320004FF461414160002181600C22C160C0E9FD
:1053300004128161C161FEF7ADFC08B1FCF77AFE91
:10534000BDE81040012204490248FEF7F9BD000003
:1053500000480040D87F0020080000200E4810B50B
:105360000C4901604FF461414160002181600C22D1
:10537000C160C0E904128161C161FEF78BFC08B114
:10538000FCF758FEBDE81040012204490248FEF730
:10539000D7BD0000001401401C8000200B0000203D
:1053A000FEE7000010B53149B0EE002A2DED028B6A
:1053B000A1F5BB709FED2E8AF1EE041AB0EE001A33
:1053C000F0EE480AB0EE480AFBF73AFA2949B0EE87
:1053D000002AA1F5BB70F1EE041AB0EE001AF0EE4F
:1053E000480AB0EE480AFBF72BFA2349B0EE002A30
:1053F000A1F5BB70F1EE041AB0EE001AF0EE480A07
:10540000B0EE480AFBF71CFA1C49B0EE002AA1F5E1
:10541000BB70F1EE041AB0EE001AF0EE480AB0EEDE
:10542000480AFBF70DFA1649B0EE002AA1F5BB7049
:10543000F1EE041AB0EE001AF0EE480AB0EE480A97
:10544000FBF7FEF9F0EE480AB0EE480ABDEC028B1D
:10545000B0EE002A0B49BDE81040A1F5BB70F1EE9B
:10546000041AB0EE001AFBF7EBB900001684002016
:1054700000401C4602870020EE890020DA8C0020C4
:10548000C68F0020B2920020F0B40022072864D218
:10549000DFE800F0630406080A0C0E00304908E05B
:1054A000304906E0304904E0304902E0304900E08C
:1054B000304900238B608B824B71CB610B620C8B6C
:1054C00006E00D69CE6935F81250521C3544CD61A5
:1054D0009442F6DC00224D8B07E00E69A718521C9F
:1054E00036F817600F6A3E440E629542F5DCCA68D2
:1054F0000C6D1288E2620A6DB2F1804F06D01E4C2C
:10550000A2420AD01D4CA24207D00DE0CC688D8A81
:1055100034F81540640894630FE0CC688D8A34F841
:1055200015406408546308E0154CA2420ED1CC68C3
:105530008D8A34F81540640814640A6D53620A6D4C
:10554000D26A0A644B64F0BCFCF7ACBE0D4CA242BC
:10555000E3D00D4CA242E0D0F1E7F0BC7047000070
:105560001497002068970020BC9700201098002016
:1055700064980020B8980020000800400004014012
:105580000004004000000140000C0040FEE7000065
:10559000F0B58D480122B0F82811012903D0022965
:1055A00001D0A0F828214FF41663B0F81AC15C00AE
:1055B0009D00DE001F014FF461419C450BD0A445C6
:1055C00009D0AC4507D0B44505D0BC4503D08C45C7
:1055D00001D0A0F81A11B0F81CC19C450BD0A4450D
:1055E00009D0AC4507D0B44505D0BC4503D08C45A7
:1055F00001D0A0F81C11B0F81EC19C450BD0A445E9
:1056000009D0AC4507D0B44505D0BC4503D08C4586
:1056100001D0A0F81E11B0F830C19C450BD0A445B4
:1056200009D0AC4507D0B44505D0BC4503D08C4566
:1056300001D0A0F83011B0F832C19C450BD0A44580
:1056400009D0AC4507D0B44505D0BC4503D08C4546
:1056500001D0A0F832115D494FF480340023D1F815
:105660000452A54201DBC1F80432D1F80852A54228
:1056700001DBC1F80832D1F80C52A54201DBC1F8B8
:105680000C32D1F81052A54201DBC1F81032D1F82A
:105690001452A54201DBC1F81432D1F81852A542C8
:1056A00001DBC1F81832038E5B1E052B00D3028686
:1056B000D1F88C33012B02DAC1F88C2304E00F2BD4
:1056C00002DD0F23C1F88C33D1F88433012B02DAC9
:1056D000C1F8842304E01E2B02DD1E23C1F88433AD
:1056E000D1F874444FF4FA73012C02DAC1F874242F
:1056F00003E09C4201DDC1F87434B0F83E410CB9BE
:10570000A0F83E21B0F840410CB9A0F84021B0F813
:10571000422112B90322A0F84221B0F8442112B963
:105720000422A0F84421B0F8462112B90522A0F8BD
:105730004621B0F8482112B90622A0F848214C6849
:1057400042F2107214B90C6804B90A600C6F04B903
:105750000A67CC6E14B94FF47A74CC66818901B9AA
:105760008281B0F8F81009B9A0F8F820B0F8FA1062
:1057700009B9A0F8FA20B0F87A1021B9B0F8781079
:1057800009B9A0F87820B0F87E1031B9B0F87C10D3
:1057900019B940F6B831A0F87C10B0F8821031B9D0
:1057A000B0F8801019B944F62061A0F88010B0F864
:1057B000841009B9A0F88420B0F8FC10002901D1A8
:1057C000A0F8FC30F0BD000044690020E414002083
:1057D0007047704701B582B04FF47A700090012392
:1057E00001AA02A90248FDF7E9FB9DF804000EBDDD
:1057F000C87B0020012210210148FCF7C3BF000034
:1058000000000240002210210148FCF7BBBF00004D
:105810000000024038B504461248134B0068B0FB44
:10582000F3F04FF47A73584300906068B0F5827FCC
:105830000DD10B46009200228021204600F016F880
:1058400070B1606D40F020006065032038BD0098A5
:1058500030B1401E009020688068C0430006F6D535
:10586000002038BD3001002000366E012DE9F843DC
:105870001E46914688460446089DFCF789FF401B5A
:10588000351AFCF785FF074625480068C0F3CB3082
:10589000684338E0701C37D0FCF77AFFC01BA84281
:1058A00003D215B1009860B32CE02068416821F064
:1058B000E00141606068B0F5827F0BD1A068B0F56F
:1058C000004F02D0B0F5806F04D12068016821F04C
:1058D00040010160A06AB0F5005F09D1206801684D
:1058E00021F4005101602068016841F40051016019
:1058F000012084F85100002084F850000320BDE806
:10590000F8830025401E00902068816838EA010075
:1059100004D000214945BDD10020F0E70121F9E77D
:1059200030010020704700002DE9F04117000D46BE
:10593000064679D05148072E76D2DFE806F09D045E
:105940000C163E4246004E4C4E4815B10122022133
:1059500010E00022FBE74C4C4C484FF48071012DC5
:1059600001D1002206E0012204E0494C494815B368
:1059700001222021FCF706FF012020706570A07035
:105980000025E5622564656420797843A06230468D
:10599000FFF77AFDA58265713F48216D0088C862D6
:1059A000216DB1F1804F17D03C4881421BD03C485B
:1059B000814218D01EE00022DBE73A4C4FF48051C0
:1059C00007E0394C4FF4004103E0384C38484FF4BD
:1059D0008041002DC7D1C4E7E068A28A30F81200E8
:1059E000400888630FE0E068A28A30F8120040089F
:1059F000486308E02F4881420FD1E068A28A30F85E
:105A0000120040080864206D4562072E34D2DFE89A
:105A100006F0330C12181E242A0027488142E2D0D7
:105A200026488142DFD0F0E726E015482449006D82
:105A3000086008461CE014482249006D08600846CA
:105A400016E013482049006D0860084610E015482C
:105A50001E49006D086008460AE013481C49006DA5
:105A60000860084604E011481A49006D08600846BD
:105A7000BDE8F041FDF7D8BCBDE8F081001402405C
:105A80001497002000100240689700200004024094
:105A9000BC97002000180240A082002000080040AF
:105AA000000401401098002064980020B89800205D
:105AB000000C02400004004000000140000C0040C7
:105AC000D880002038810020788000209881002034
:105AD000F8810020588200200A480178491CCAB287
