:020000040800F2
:10000000908300209D010008654C0008193E0008FF
:100010000D4B000865070008D55B000800000000D4
:10002000000000000000000000000000FD4F00087C
:10003000851F000800000000A94E00086551000857
:10004000B7010008B7010008B7010008B7010008B0
:10005000B7010008B7010008871F0008B7010008B2
:10006000B7010008B7010008B7010008B701000890
:10007000B7010008B7010008B7010008B701000880
:10008000B7010008B7010008B7010008B701000870
:10009000B7010008B7010008B7010008B701000860
:1000A000B7010008B7010008B70100084152000875
:1000B0006D5200088152000899520008B7010008EB
:1000C000B7010008B7010008B7010008B701000830
:1000D000B7010008A55B0008B15B0008BD5B000824
:1000E000B7010008B7010008B7010008B701000810
:1000F000B7010008B7010008F1520008B701000875
:10010000B7010008B7010008C5520008B701000890
:10011000F558000801590008B7010008B7010008A8
:10012000B7010008B7010008B7010008B7010008CF
:10013000B7010008B7010008B7010008B7010008BF
:10014000B7010008B7010008B7010008B7010008AF
:10015000B7010008B7010008B7010008C95B000833
:10016000B7010008B7010008B7010008B70100088F
:10017000B7010008B7010008B7010008000000003F
:10018000B7010008B7010008DFF80CD000F0D8FA7A
:1001900000480047715C00089083002006488047B3
:1001A00006480047FEE7FEE7FEE7FEE7FEE7FEE75C
:1001B000FEE7FEE7FEE7FEE725520008890100089A
:1001C0002DE9F05F0546002092469B46884606468C
:1001D000814640241BE0284641464746224600F01F
:1001E000F8F953465A46C01A914110D311461846A1
:1001F000224600F0DFF92D1A67EB01084F46224630
:100200000120002100F0D6F917EB00094E41201E15
:10021000A4F10104DFDC484631462A464346BDE8E6
:10022000F09FD2B201E000F8012B491EFBD27047CB
:100230000022F6E710B513460A4604461946FFF7B2
:10024000F0FF204610BD2DE9FE4F804681EA0300F5
:10025000C00F0C46009021F0004123F00045B8EBA0
:100260000200A94105D24046214690461C460B4655
:10027000024623F00040104347D0270DC7F30A0081
:10028000C3F30A510290401A019040286BDAC3F37D
:10029000130040F4801B0098924620B10023D2EB5B
:1002A000030A63EB0B0B01985946C0F1400250461C
:1002B00000F080F906460D4650465946019A00F076
:1002C00098F910EB08006141002487EA115284EA92
:1002D000E7731A4340D0009A62B3019A012A4FEAA9
:1002E000075215DC001B61EB02014FF0004202EAED
:1002F0000752CDE90042001C41F5801132462B46E1
:1003000000F0CFF903B0BDE8F08F40462146F9E791
:10031000001B61EB0201001C41F5801300185B41DA
:100320002018A2F5001747EB030140EAD570B61973
:100330006D4111E06D084FEA360645EAC0754FEA97
:100340000752001B61EB0201001C41F580114908B6
:100350004FEA30000019514132462B4603B0BDE848
:10036000F04F00F08FB90098012240000023D0EB3D
:10037000020263EBE073009821464FEAE074B8EBA9
:10038000000061EB0401E9E783F000435BE781F0E3
:10039000004158E72DE9FE4F81EA030404F00044D0
:1003A00021F0004100944FF0000B23F0004350EA8D
:1003B00001045ED052EA03045BD0C3F30A54C1F3D4
:1003C0000A552C44A4F2F3340194A0FB0254C1F367
:1003D000130141F48011C3F3130343F4801301FBB1
:1003E000024400FB034E840A970A44EA815447EA18
:1003F0008357A4FB076802958D0A05FB07854FEA22
:10040000932C04FB0C542705029D4FEA065847EA3B
:100410001637B5EB08056EEB070C870E920E47EA10
:10042000811742EA8312A7FB0201B6EB0B0164EBD2
:1004300000042B0D43EA0C335E1844EB1C50DA46E3
:100440005146E7FB0201C5F313044FEA0B3343EABD
:1004500014534FEA0432019C43EA0603A4F10C044E
:100460000294009CCDE900B400F01BF903B0BDE894
:10047000F08F00200146F9E72DE9F04D81EA0304F1
:1004800004F0004B21F0004514464FF0000A23F021
:10049000004150EA050220D054EA01021DD0C5F304
:1004A0000A570246C5F31303C1F31300C1F30A56FA
:1004B00040F4801543F48013A7EB0608101BD646C2
:1004C00008F2FD3873EB050002D308F1010801E0E2
:1004D00092185B41B8F1000F03DA00200146BDE835
:1004E000F08D00204FF48011064684460EE0171B65
:1004F00073EB050705D3121B63EB050306434CEAB8
:10050000010C49084FEA300092185B4150EA01079C
:10051000EDD152EA030012D082EA040083EA050119
:10052000084305D0101BAB4106D20122002306E090
:1005300000224FF0004302E06FF0010253101AEB6B
:1005400006004CEB085110EB0A0041EB0B01BDE833
:10055000F04D00F097B800F0004230F000400AD0B3
:10056000C10D01F56071C0F3160042EA0151C208E5
:1005700040071143704700200146704701F00043D7
:1005800030B421F0004150EA010206D00A0DA2F574
:100590006072C1F31301002A02DC30BC00207047F6
:1005A000440F44EAC104C100E01830BC00EBC25063
:1005B00000F031B8202A04DB203A00FA02F10020D2
:1005C00070479140C2F1200320FA03F31943904091
:1005D0007047202A04DB203A21FA02F000217047FC
:1005E00021FA02F3D040C2F120029140084319469B
:1005F0007047202A06DBCB17203A41FA02F043EA83
:10060000E07306E041FA02F3D040C2F120029140CB
:100610000843194670470029A8BF7047401C49008D
:1006200008BF20F00100704710B4B0FA80FC00FA57
:100630000CF050EA010404BF10BC704749B1CCF182
:10064000200421FA04F411FA0CF118BF012121430E
:100650000843A3EB0C01CB1D4FEA00614FEA1020C9
:1006600042BF002010BC704700EBC350104400296B
:10067000A4BF10BC7047401C490008BF20F0010017
:1006800010BC704710B5141E73F1000408DA401C4A
:1006900041F1000192185B411A4301D120F00100A1
:1006A00010BD2DE9F04D92469B4611B1B1FA81F291
:1006B00002E0B0FA80F220329046FFF77BFF04465A
:1006C0000F4640EA0A0041EA0B0153465A460843E6
:1006D00013D0114653EA010019D0C8F14002504628
:1006E000FFF777FF05460E46504659464246FFF74C
:1006F00061FF084305D0012004E020463946BDE8EB
:10070000F08D0020054346EAE0762C4337430A98F3
:100710006305E40AA0EB08000022FD0A44EA4754FE
:100720000A3002D500200146E9E7010510196941A8
:10073000DDE9084500196941BDE8F04DA2E7000078
:10074000064C074D06E0E06840F0010394E807001E
:1007500098471034AC42F6D3FFF71AFD0460000846
:1007600024600008FEE7000070B5094DFF22134623
:1007700005F5807606E000BF10F8014B54402A5D75
:100780005A40335D491EC9B2F6D243EA022070BD19
:10079000EA5D00082DE9F04105462DED0A8B0C4677
:1007A000B0EE42BAB0EE61AAB0EE418AF0EE60BAA5
:1007B000864E874FB0EE40CA0020F3EE0F8ADFED81
:1007C000859A88EE289ADFF81082306000EE100AD1
:1007D000B0EE4B2AF0EE4A1AB8EEC00AB0EE481A54
:1007E000F0EE6B0A69EE002AB0EE4C0A01F0D0FB85
:1007F000C9EE800A316807EB810080ED000ABCEE8B
:10080000E00A10EE100A25F81100306807EB8001AD
:1008100091ED000AB8F8FC1069EE000A00EE101A1B
:10082000B8EE400A80EE801ABCEEC10A10EE101A33
:1008300024F810103068401C30601F28C6DB8AEE98
:10084000289A1F2030601F3800EE100AF0EE482A68
:10085000B0EE4B2AB8EEC00AF0EE4A1AB0EE481AD3
:10086000F0EE6B0A49EE002AB0EE4C0A01F090FB64
:10087000C9EE800A306807EB800181ED000ABCEE0A
:10088000E00A10EE101A25F8101086ED01AA306863
:1008900007EB800191ED000AB8F8FC1069EE000A40
:1008A00000EE101AB8EE400A80EE801ABCEEC10AC3
:1008B00010EE101A24F810103068401C30603E28EA
:1008C000C1DBCBEE28AA38EE0A9A3E20C6F800001B
:1008D0003E3800EE100AF0EE492AB0EE4B2AB8EE90
:1008E000C00AF0EE4A1AB0EE481AF0EE6B0A4AEE71
:1008F000802AB0EE4C0A01F04BFBC9EE800A316849
:1009000007EB810080ED000ABCEEE00A10EE100A51
:1009100025F81100306807EB800191ED000AB8F866
:10092000FC106AEE800A00EE101AB8EE400A80EE63
:10093000801ABCEEC10A10EE101A24F810103068AC
:10094000401C30605D28C3DB79EE0B2AB0EE4B2AE9
:10095000F0EE4A1AB0EE481AF0EE6B0AB0EE4C0A0E
:1009600001F016FBC9EE800A306807EB800181EDCB
:10097000000ABCEEE00A10EE100AA5F8BA0091EDEC
:10098000000AB8F8FC006AEE800A00EE100AB8EE21
:10099000400A80EE801ABCEEC10A10EE100AA4F8DC
:1009A000BA005E20C6F80000C0F1BA0135F8112087
:1009B00025F8102034F8111024F81010401CBB2822
:1009C000F2DB3060BDEC0A8BBDE8F081D000002086
:1009D000547B002010671C4B345900202DE9F04156
:1009E000344A00251088002861D03349334B0978F8
:1009F0001C88A1425BD0198031490B885B1C9BB2DB
:100A00000B80052B53D92F4F00262F4C3880904652
:100A10000E80FF2834D82D4A2178B2F83E21914229
:100A20002FD1801EC1B22046FFF79EFE3A88010AF0
:100A30002244C0B212F8023C8B421FD112F8011CB2
:100A400081421BD160780121214A032807D0102858
:100A500007D001280DD006280ED0012511E01D4831
:100A600000E01D480170A078E17801EB00201080C3
:100A700007E01A48017004E01948F3E7022500E096
:100A8000042501221749184803F0CEF8A8F80060A1
:100A9000002D0CD000202654401C80B21428FAD31C
:100AA000BDE8F04101220F490F4803F0BDB8BDE891
:100AB000F081000008000020340000204E000020DB
:100AC0000A00002042000020C45F002034590020AA
:100AD000480000204A0000204B0000204C0000206D
:100AE0004D00002002000020406F00202DE9F05F43
:100AF000DFF84882934A9449002398F80040DFF8D1
:100B000040C210884F79DFF844E29B464FF40066FC
:100B100041F28835002C6AD00B788EF800304B7883
:100B20008EF801307B0074468EF80230B04203D25A
:100B3000BCF82831012B06D0A84233D3BCF82801D9
:100B4000012816D02EE07E4D804E00200DE0138847
:100B500006EB400705EB430333F81030401C4FEA27
:100B6000132C87F803C03B71C0B24B798342EED897
:100B700018E0774D754E002011E0138806EB400712
:100B800005EB830303EB8003A3F5A043401CB3F8FC
:100B9000E031C0B24FEA132C87F803C03B714B79A8
:100BA0008342EAD8A078C01CC1B26848FFF7DCFDD8
:100BB0006849020A08806549A378C91C5A54A2787A
:100BC000491C4FF6FF735054A2786348521D634985
:100BD000028088F800B0A1F800B05C49604803F0DA
:100BE000C1F8BDE8F05F20215E4801F061BD5E4CB8
:100BF000DFF878A194F800809AF80040C14658EADE
:100C000004087DD041F27078404504D9BCF81280C8
:100C1000B8F5FA6F5AD10123A0F12D02062A08D89F
:100C2000DFF84C81A8F80020DFF84881012288F81D
:100C300000209CB1444AB0421479527902EB04225C
:100C400002D22CF8102041E0A8423FD3404C04EBE4
:100C50008000A0F5A040C0F8E02137E0B9F1000F16
:100C600034D0642F32D2374AB04214D2364E344C8C
:100C700000200CE006EB4007FD793F7A07EB0525E5
:100C8000178804EB470727F81050401CC0B24D7975
:100C90008542EFD81AE0A84218D32B4D2C4C0020E7
:100CA00011E000BF05EB4006F779367A06EB072620
:100CB000178804EB870707EB8007A7F5A047401CC0
:100CC000C0B2C7F8E0614E798642EBD802208EF8B8
:100CD000000048788EF8010088788EF80200C87805
:100CE0008EF8030008798EF80400487974468EF86F
:100CF000050013B9FF20207160710621134800E040
:100D000019E0FFF731FD13494FF6FF730880010A20
:100D1000A171E0711048082213490280104881F83F
:100D200000B00E498AF800B0A1F800B0BDE8F05F4D
:100D3000064903F017B8BDE8F09F00004A00002004
:100D40003459002048000020C45F0020BE65002008
:100D5000D404002046000020440000204000002071
:100D6000406F0020000C02404B0000204D0000208E
:100D70003C0000203E0000202DE9F041344A0025CF
:100D80001088002861D03349334B09781C88A14270
:100D90005BD0198031490B885B1C9BB20B80052B03
:100DA00053D92F4F00262F4C388090460E80FF28B5
:100DB00034D82D4A2178B2F8402191422FD1801E9B
:100DC000C1B22046FFF7D0FC3A88010A2244C0B2E3
:100DD00012F8023C8B421FD112F8011C81421BD138
:100DE00060780121214A032807D0102807D0012864
:100DF0000DD006280ED0012511E01D4800E01D4849
:100E00000170A078E17801EB0020108007E01A481B
:100E1000017004E01948F3E7022500E004250122EF
:100E20001749184802F000FFA8F80060002D0CD008
:100E300000202654401C80B21428FAD3BDE8F041AB
:100E400001220F490F4802F0EFBEBDE8F08100001B
:100E50000C000020340000205E0000200E00002066
:100E600052000020C36000203459002058000020A8
:100E70005A0000205B0000205C0000205D00002084
:100E800003000020846F00202DE9F05FDFF8488226
:100E9000934A9449002398F80040DFF840C2108834
:100EA0004F79DFF844E29B464FF4006641F2883503
:100EB000002C6AD00B788EF800304B788EF8013019
:100EC0007B0074468EF80230B04203D2BCF8283161
:100ED000012B06D0A84233D3BCF82801012816D034
:100EE0002EE07E4D804E00200DE0138806EB40077B
:100EF00005EB430333F81030401C4FEA132C87F8FE
:100F000003C03B71C0B24B798342EED818E0774DF5
:100F1000754E002011E0138806EB400705EB8303B4
:100F200003EB8003A3F5A043401CB3F8E031C0B24B
:100F30004FEA132C87F803C03B714B798342EAD800
:100F4000A078C01CC1B26848FFF70EFC6849020ACD
:100F500008806549A378C91C5A54A278491C4FF6E9
:100F6000FF735054A2786348521D6349028088F889
:100F700000B0A1F800B05C49604802F0F3FEBDE8A3
:100F8000F05F10215E4801F093BB5E4CDFF878A162
:100F900094F800809AF80040C14658EA04087DD0D1
:100FA00041F27078404504D9BCF81280B8F5FA6F68
:100FB0005AD10123A0F12D02062A08D8DFF84C816E
:100FC000A8F80020DFF84881012288F800209CB1B1
:100FD000444AB0421479527902EB042202D22CF82E
:100FE000102041E0A8423FD3404C04EB8000A0F524
:100FF000A040C0F8E02137E0B9F1000F34D0642FF1
:1010000032D2374AB04214D2364E344C00200CE073
:1010100006EB4007FD793F7A07EB0525178804EBBF
:10102000470727F81050401CC0B24D798542EFD8D1
:101030001AE0A84218D32B4D2C4C002011E000BF21
:1010400005EB4006F779367A06EB0726178804EB9E
:10105000870707EB8007A7F5A047401CC0B2C7F879
:10106000E0614E798642EBD802208EF80000487885
:101070008EF8010088788EF80200C8788EF8030098
:1010800008798EF80400487974468EF8050013B983
:10109000FF20207160710621134800E019E0FFF77E
:1010A00063FB13494FF6FF730880010AA171E071D9
:1010B0001048082213490280104881F800B00E49F8
:1010C0008AF800B0A1F800B0BDE8F05F064902F070
:1010D00049BEBDE8F09F00005A00002034590020AE
:1010E00058000020C3600020BD660020D40400200A
:1010F000560000205400002050000020846F002083
:10110000000C02405B0000205D0000203C0000203D
:101110003E0000202DE9F041344A002510880028C7
:1011200061D03349334B09781C88A1425BD01980C8
:1011300031490B885B1C9BB20B80052B53D92F4F79
:1011400000262F4C388090460E80FF2834D82D4A38
:101150002178B2F8422191422FD1801EC1B220469F
:10116000FFF702FB3A88010A2244C0B212F8023C9F
:101170008B421FD112F8011C81421BD160780121E2
:10118000214A032807D0102807D001280DD00628AF
:101190000ED0012511E01D4800E01D480170A07827
:1011A000E17801EB0020108007E01A48017004E0AC
:1011B0001948F3E7022500E00425012217491848E1
:1011C00002F032FDA8F80060002D0CD0002026545B
:1011D000401C80B21428FAD3BDE8F04101220F4927
:1011E0000F4802F021BDBDE8F08100001000002092
:1011F000340000206E000020120000206200002059
:10120000C261002034590020680000206A000020DC
:101210006B0000206C0000206D0000200400002006
:10122000C86F00202DE9F05FDFF84882934A9449A7
:10123000002398F80040DFF840C210884F79DFF8AB
:1012400044E29B464FF4006641F28835002C6AD098
:101250000B788EF800304B788EF801307B007446A6
:101260008EF80230B04203D2BCF82831012B06D0F0
:10127000A84233D3BCF82801012816D02EE07E4DB9
:10128000804E00200DE0138806EB400705EB43037A
:1012900033F81030401C4FEA132C87F803C03B7121
:1012A000C0B24B798342EED818E0774D754E0020DE
:1012B00011E0138806EB400705EB830303EB800383
:1012C000A3F5A043401CB3F8E031C0B24FEA132CA1
:1012D00087F803C03B714B798342EAD8A078C01CE1
:1012E000C1B26848FFF740FA6849020A08806549B8
:1012F000A378C91C5A54A278491C4FF6FF73505466
:10130000A2786348521D6349028088F800B0A1F8B2
:1013100000B05C49604802F025FDBDE8F05F08219F
:101320005E4801F0C5B95E4CDFF878A194F8008002
:101330009AF80040C14658EA04087DD041F270781E
:10134000404504D9BCF81280B8F5FA6F5AD1012390
:10135000A0F12D02062A08D8DFF84C81A8F8002059
:10136000DFF84881012288F800209CB1444AB0424D
:101370001479527902EB042202D22CF8102041E0B9
:10138000A8423FD3404C04EB8000A0F5A040C0F839
:10139000E02137E0B9F1000F34D0642F32D2374A60
:1013A000B04214D2364E344C00200CE006EB40071D
:1013B000FD793F7A07EB0525178804EB470727F8E7
:1013C0001050401CC0B24D798542EFD81AE0A842B7
:1013D00018D32B4D2C4C002011E000BF05EB40062C
:1013E000F779367A06EB0726178804EB870707EBB1
:1013F0008007A7F5A047401CC0B2C7F8E0614E794E
:101400008642EBD802208EF8000048788EF8010062
:1014100088788EF80200C8788EF8030008798EF874
:101420000400487974468EF8050013B9FF20207136
:1014300060710621134800E019E0FFF795F91349A0
:101440004FF6FF730880010AA171E071104808226D
:1014500013490280104881F800B00E498AF800B0A4
:10146000A1F800B0BDE8F05F064902F07BBCBDE822
:10147000F09F00006A00002034590020680000201E
:10148000C2610020BC670020D40400206600002058
:101490006400002060000020C86F0020000C0240A3
:1014A0006B0000206D0000203C0000203E0000206A
:1014B0002DE9F041344A00251088002861D03349D5
:1014C000334B09781C88A1425BD0198031490B88C5
:1014D0005B1C9BB20B80052B53D92F4F00262F4C42
:1014E000388090460E80FF2834D82D4A2178B2F8F3
:1014F000442191422FD1801EC1B22046FFF734F91A
:101500003A88010A2244C0B212F8023C8B421FD131
:1015100012F8011C81421BD160780121214A032865
:1015200007D0102807D001280DD006280ED001259D
:1015300011E01D4800E01D480170A078E17801EB42
:101540000020108007E01A48017004E01948F3E712
:10155000022500E0042501221749184802F064FB27
:10156000A8F80060002D0CD000202654401C80B24A
:101570001428FAD3BDE8F04101220F490F4802F0C8
:1015800053BBBDE8F08100001400002034000020AF
:101590007E0000201600002072000020C1620020A2
:1015A00034590020780000207A0000207B000020C1
:1015B0007C0000207D00002005000020B86E002087
:1015C0002DE9F05FDFF84882934A9449002398F8A8
:1015D0000040DFF840C210884F79DFF844E29B46B4
:1015E0004FF4006641F28835002C6AD00B788EF8F3
:1015F00000304B788EF801307B0074468EF8023054
:10160000B04203D2BCF82831012B06D0A84233D314
:10161000BCF82801012816D02EE07E4D804E002017
:101620000DE0138806EB400705EB430333F8103059
:10163000401C4FEA132C87F803C03B71C0B24B79B2
:101640008342EED818E0774D754E002011E01388E4
:1016500006EB400705EB830303EB8003A3F5A043F0
:10166000401CB3F8E031C0B24FEA132C87F803C036
:101670003B714B798342EAD8A078C01CC1B268485C
:10168000FFF772F86849020A08806549A378C91C07
:101690005A54A278491C4FF6FF735054A2786348FD
:1016A000521D6349028088F800B0A1F800B05C497F
:1016B000604802F057FBBDE8F05F08215E4800F08B
:1016C000F7BF5E4CDFF878A194F800809AF80040EC
:1016D000C14658EA04087DD041F27078404504D9EB
:1016E000BCF81280B8F5FA6F5AD10123A0F12D028F
:1016F000062A08D8DFF84C81A8F80020DFF84881D6
:10170000012288F800209CB1444AB04214795279F1
:1017100002EB042202D22CF8102041E0A8423FD371
:10172000404C04EB8000A0F5A040C0F8E02137E079
:10173000B9F1000F34D0642F32D2374AB04214D2FC
:10174000364E344C00200CE006EB4007FD793F7A22
:1017500007EB0525178804EB470727F81050401CB6
:10176000C0B24D798542EFD81AE0A84218D32B4D6C
:101770002C4C002011E000BF05EB4006F779367ACB
:1017800006EB0726178804EB870707EB8007A7F50A
:10179000A047401CC0B2C7F8E0614E798642EBD842
:1017A00002208EF8000048788EF8010088788EF8C4
:1017B0000200C8788EF8030008798EF80400487992
:1017C00074468EF8050013B9FF2020716071062160
:1017D000134800E019E0FEF7C7FF13494FF6FF7307
:1017E0000880010AA171E0711048082213490280A3
:1017F000104881F800B00E498AF800B0A1F800B096
:10180000BDE8F05F064902F0ADBABDE8F09F000008
:101810007A0000203459002078000020C1620020A6
:10182000BB680020D4040020760000207400002053
:1018300070000020B86E0020000C02407B000020E9
:101840007D0000203C0000203E0000202DE9F041FA
:10185000344A00251088002861D03349334B097879
:101860001C88A1425BD0198031490B885B1C9BB25C
:101870000B80052B53D92F4F00262F4C38809046D4
:101880000E80FF2834D82D4A2178B2F846219142A3
:101890002FD1801EC1B22046FEF766FF3A88010AAA
:1018A0002244C0B212F8023C8B421FD112F8011C34
:1018B00081421BD160780121214A032807D01028DA
:1018C00007D001280DD006280ED0012511E01D48B3
:1018D00000E01D480170A078E17801EB0020108045
:1018E00007E01A48017004E01948F3E7022500E018
:1018F000042501221749184802F096F9A8F800605B
:10190000002D0CD000202654401C80B21428FAD39D
:10191000BDE8F04101220F490F4802F085B9BDE84A
:10192000F081000018000020340000208E0000200C
:101930001A00002082000020C063002034590020DB
:10194000880000208A0000208B0000208C000020EE
:101950008D00002006000020FC6E00202DE9F05FC5
:10196000DFF84882934A9449002398F80040DFF852
:1019700040C210884F79DFF844E29B464FF400667E
:1019800041F28835002C6AD00B788EF800304B7805
:101990008EF801307B0074468EF80230B04203D2DC
:1019A000BCF82831012B06D0A84233D3BCF828015B
:1019B000012816D02EE07E4D804E00200DE01388C9
:1019C00006EB400705EB430333F81030401C4FEAA9
:1019D000132C87F803C03B71C0B24B798342EED819
:1019E00018E0774D754E002011E0138806EB400794
:1019F00005EB830303EB8003A3F5A043401CB3F87E
:101A0000E031C0B24FEA132C87F803C03B714B7929
:101A10008342EAD8A078C01CC1B26848FEF7A4FE91
:101A20006849020A08806549A378C91C5A54A278FB
:101A3000491C4FF6FF735054A2786348521D634906
:101A4000028088F800B0A1F800B05C49604802F05C
:101A500089F9BDE8F05F02215E4800F029BE5E4CC6
:101A6000DFF878A194F800809AF80040C14658EA5F
:101A700004087DD041F27078404504D9BCF812804A
:101A8000B8F5FA6F5AD10123A0F12D02062A08D821
:101A9000DFF84C81A8F80020DFF84881012288F89F
:101AA00000209CB1444AB0421479527902EB0422DE
:101AB00002D22CF8102041E0A8423FD3404C04EB66
:101AC0008000A0F5A040C0F8E02137E0B9F1000F98
:101AD00034D0642F32D2374AB04214D2364E344C0E
:101AE00000200CE006EB4007FD793F7A07EB052567
:101AF000178804EB470727F81050401CC0B24D79F7
:101B00008542EFD81AE0A84218D32B4D2C4C002068
:101B100011E000BF05EB4006F779367A06EB0726A1
:101B2000178804EB870707EB8007A7F5A047401C41
:101B3000C0B2C7F8E0614E798642EBD802208EF839
:101B4000000048788EF8010088788EF80200C87886
:101B50008EF8030008798EF80400487974468EF8F0
:101B6000050013B9FF20207160710621134800E0C1
:101B700019E0FEF7F9FD13494FF6FF730880010ADB
:101B8000A171E0711048082213490280104881F8C1
:101B900000B00E498AF800B0A1F800B0BDE8F05FCF
:101BA000064902F0DFB8BDE8F09F00008A0000207F
:101BB0003459002088000020C0630020BA6900204A
:101BC000D404002086000020840000208000002033
:101BD000FC6E0020000C02408B0000208D000020D5
:101BE0003C0000203E0000202DE9F041344A002551
:101BF0001088002861D03349334B09781C88A142F2
:101C00005BD0198031490B885B1C9BB20B80052B84
:101C100053D92F4F00262F4C388090460E80FF2836
:101C200034D82D4A2178B2F8482191422FD1801E14
:101C3000C1B22046FEF798FD3A88010A2244C0B29C
:101C400012F8023C8B421FD112F8011C81421BD1B9
:101C500060780121214A032807D0102807D00128E5
:101C60000DD006280ED0012511E01D4800E01D48CA
:101C70000170A078E17801EB0020108007E01A489D
:101C8000017004E01948F3E7022500E00425012271
:101C90001749184801F0C8FFA8F80060002D0CD0C3
:101CA00000202654401C80B21428FAD3BDE8F0412D
:101CB00001220F490F4801F0B7BFBDE8F0810000D5
:101CC0001C000020340000209E0000201E00002088
:101CD00092000020BF6400203459002098000020AA
:101CE0009A0000209B0000209C0000209D00002006
:101CF000070000200C7000202DE9F05FDFF848821B
:101D0000934A9449002398F80040DFF840C21088B5
:101D10004F79DFF844E29B464FF4006641F2883584
:101D2000002C6AD00B788EF800304B788EF801309A
:101D30007B0074468EF80230B04203D2BCF82831E2
:101D4000012B06D0A84233D3BCF82801012816D0B5
:101D50002EE07E4D804E00200DE0138806EB4007FC
:101D600005EB430333F81030401C4FEA132C87F87F
:101D700003C03B71C0B24B798342EED818E0774D77
:101D8000754E002011E0138806EB400705EB830336
:101D900003EB8003A3F5A043401CB3F8E031C0B2CD
:101DA0004FEA132C87F803C03B714B798342EAD882
:101DB000A078C01CC1B26848FEF7D6FC6849020A88
:101DC00008806549A378C91C5A54A278491C4FF66B
:101DD000FF735054A2786348521D6349028088F80B
:101DE00000B0A1F800B05C49604801F0BBFFBDE85D
:101DF000F05F01215E4800F05BBC5E4CDFF878A12B
:101E000094F800809AF80040C14658EA04087DD052
:101E100041F27078404504D9BCF81280B8F5FA6FE9
:101E20005AD10123A0F12D02062A08D8DFF84C81EF
:101E3000A8F80020DFF84881012288F800209CB132
:101E4000444AB0421479527902EB042202D22CF8AF
:101E5000102041E0A8423FD3404C04EB8000A0F5A5
:101E6000A040C0F8E02137E0B9F1000F34D0642F72
:101E700032D2374AB04214D2364E344C00200CE0F5
:101E800006EB4007FD793F7A07EB0525178804EB41
:101E9000470727F81050401CC0B24D798542EFD853
:101EA0001AE0A84218D32B4D2C4C002011E000BFA3
:101EB00005EB4006F779367A06EB0726178804EB20
:101EC000870707EB8007A7F5A047401CC0B2C7F8FB
:101ED000E0614E798642EBD802208EF80000487807
:101EE0008EF8010088788EF80200C8788EF803001A
:101EF00008798EF80400487974468EF8050013B905
:101F0000FF20207160710621134800E019E0FEF700
:101F10002BFC13494FF6FF730880010AA171E07191
:101F20001048082213490280104881F800B00E4979
:101F30008AF800B0A1F800B0BDE8F05F064901F0F2
:101F400011BFBDE8F09F00009A0000203459002026
:101F500098000020BF640020B96A0020D40400204B
:101F60009600002094000020900000200C700020BB
:101F7000000C02409B0000209D0000203C0000203F
:101F80003E0000207047012000F090BA72B6FEE7D4
:101F900010B52DED108BB0EE62BAB0EE42AAB0EEE5
:101FA00061FAB0EE418AF0EE608AF0EE40AA9FED51
:101FB000909BB5EEC0BAF1EE10FA2BDBB4EEC8BAC6
:101FC000F1EE10FA26D81BEE100AFEF7C4FA41EC27
:101FD0001C0B1BEE100AFEF7BEFA41EC1B0B18EEB1
:101FE000900AFEF7B8FA53EC192BFEF7D3F953EC2D
:101FF0001B2BFEF7CFF953EC1C2BFEF7CBF941EC72
:10200000180B1AEE900AFEF7A6FA41EC100B53ECEF
:10201000182B41E038EE0F0AB4EECB8AF1EE10FA3D
:102020003FD2B4EECB0AF1EE10FA3ADB3BEE480AAF
:1020300020EE280A20EE080A10EE100AFEF78BFAAE
:1020400041EC1B0B18EE100AFEF785FA41EC1D0B54
:1020500018EE100AFEF77FFA41EC1C0B18EE900AFE
:10206000FEF779FA53EC192BFEF794F953EC1C2B7D
:10207000FEF790F953EC1D2BFEF78CF941EC180B91
:102080001AEE900AFEF767FA53EC182BFEF7DBF80E
:1020900053EC1B2B41EC100B51EC100BFEF7D3F85B
:1020A0009BE0B4EECB0AF1EE10FA7DD270EE0ABAE4
:1020B000F4EECBBAF1EE10FA76DB1AEE100AFEF768
:1020C0004AFA3BEECBBA41EC1E0B1BEE100AFEF7B0
:1020D00042FA41EC1D0B1BEE100AFEF73CFA41ECF4
:1020E0001C0B18EE100AFEF736FA41EC1B0B18EE2B
:1020F000900AFEF730FA53EC192BFEF74BF953EC2C
:102100001B2BFEF747F953EC1C2BFEF743F953EC5E
:102110001D2BFEF73FF953EC1E2BFEF7ADF941ECFA
:102120001B0B1AEE100AFEF716FA41EC1C0B18EE08
:10213000100AFEF710FA41EC1D0B18EE900AFEF79C
:102140000AFA53EC192BFEF725F953EC1D2BFEF779
:1021500021F953EC1C2BFEF71DF92FEE280A41EC58
:102160001C0B20EE080A10EE100AFEF7F4F941EC01
:102170001E0B18EE100AFEF7EEF941EC1D0B18EEDF
:10218000100AFEF7E8F941EC1F0B18EE900AFEF773
:10219000E2F953EC192BFEF7FDF853EC1F2BFEF779
:1021A000F9F853EC1D2B00E01EE0FEF7F3F841ECCC
:1021B000180B1AEE900AFEF7CEF953EC182BFEF727
:1021C00042F853EC1E2BFEF73EF853EC1C2BFEF7A7
:1021D0003AF853EC1B2BFEF7D7F8FEF7CFF900EED9
:1021E000100ABDEC108B10BD9FED030AF9E700004B
:1021F000333333333333F33F000000002DE9F04F26
:102200000024224626462146A1462546012807D01D
:10221000022807D0032807D000200146BDE8F08F30
:102220004E4B02E04E4B00E04E4B4FF0000BD3F80C
:102230001CA0D3F820C09F6A0AEB0C00B84247D814
:10224000DE68198B0CE0186930F8158036F8150037
:1022500005F1010508FB00F818EB040442EBE872F5
:10226000A942F0DC0020B3F81A900DE01D6901EBE3
:10227000000800F1010035F8185036F8188005FB09
:1022800008F52C1942EBE5728145EFDC6FF0010592
:1022900005EB4101A7EB0A00715AA0EB0C00484383
:1022A00000194BEB0201A7EB0C0252E0D86830F8A2
:1022B00015000CFB00FC4FEAEC791CEB040449EB25
:1022C00002021CEB060649EB0101D1466D1C01E040
:1022D000D3F8108038F8150000EB090A8446BAEBF1
:1022E000570FE3D9A0194A41C9F1000A1FFA8CF42B
:1022F00007EB4A018C4220D228F81510C3F81CB015
:10230000C3F820B000211C8B06E01E69DF6936F897
:102310001160491C3E44DE618C42F6DC00215E8B7C
:1023200009E01F6904EB010C491C37F81C70D3F855
:1023300020C067441F628E42F3DCD96831F8154033
:102340009D6A05EB4A014C4320184BEB0201A5EBBB
:1023500009025A629864D96460E70000407E002058
:10236000947E0020E87E00202DE9F0410446876D30
:1023700000F0ACF9064694F835000025022806D096
:102380008020606584F834500120BDE8F081206829
:10239000016821F0160101602068416921F0800187
:1023A0004161206C08B9A06C20B12068016821F05F
:1023B000080101602068016821F0010101600BE063
:1023C00000F084F9801B052806D92020606504F8F8
:1023D000345F03206070D8E720680068C007EFD141
:1023E00094F85C103F208840B86004F8345F012006
:1023F00060700020C9E790F83510022903D08021D1
:10240000416501207047052180F83510006801689A
:1024100021F00101016000207047000070B5044602
:1024200000F054F90546601C02D0044800780444CA
:1024300000F04CF9401BA042FAD370BDA000002070
:1024400010B5012828D1112103F0DFFBC00703D00C
:102450001249012003F0A0FC1121022003F0D5FB5A
:10246000800703D50E49022003F096FC11210320BA
:1024700003F0CBFB400703D50A49032003F08CFC93
:102480001121042003F0C1FB000705D5BDE8104071
:102490000549042003F080BC10BD0000D8000020D6
:1024A000D7010020D6020020D5030020044910B532
:1024B0000A68024202D00860FFF7C2FF10BD0000A8
:1024C000143C01402DE9F84FDFF8B8A100220125A6
:1024D0000AF1040B03264FF00F090BF1040E00BFA5
:1024E0000B6805FA02F42340A3426FD10F7907F07D
:1024F0000307012F01D0022F16D187684FEA420847
:1025000006FA08FC27EA0C07D1F80CC00CFA08FC04
:102510004CEA070CC0F808C04768A7430C79C4F31D
:10252000001494403C4344600C79E443A4070AD06F
:10253000C4684FEA420C06FA0CF7BC438F6807FAEE
:102540000CF72743C7600C7904F00304022C12D166
:10255000D40800EB840CDCF820405707FF0E09FA82
:1025600007F824EA0804D1F8108008FA07F848EAC6
:102570000408CCF8208004684FEA420C06FA0CF7F5
:10258000BC430F7907F0030707FA0CF727430760EE
:102590004C68E40070D53C4C276847F480472760BE
:1025A000246822F0030704F480440094374C07EBBE
:1025B000040CDCF8084897074FEA177809FA08F77F
:1025C000BC43334FB84202D1002724E054E0314FDE
:1025D000B84201D101271EE02F4FB84201D1022796
:1025E00019E02E4FB84201D1032714E02C4FB84216
:1025F00001D104270FE02B4FB84201D105270AE093
:10260000294FB84201D1062705E0284FB84201D131
:10261000072700E0082707FA08F72743CCF80878CF
:10262000DAF800405746D1F804C09C435FEACC3C3E
:1026300000D51C433C60DBF800405F46D1F804C085
:102640009C435FEA8C3C00D51C433C60DEF80040B4
:102650007746D1F804C09C435FEACC2C00D51C43DC
:102660003C60084F0C373C68D1F804C09C435FEADB
:102670008C2C00D51C433C60521C102AFFF430AF58
:10268000BDE8F88F003C0140443802400030014072
:10269000000002400004024000080240000C02401A
:1026A000001002400014024000180240001C0240CA
:1026B000426921EA02030A4043EA0241816170470C
:1026C0000AB1816170470904FBE700000148806896
:1026D00070470000A0000020024881680278114481
:1026E00081607047A00000200B4810B5016841F4DC
:1026F00000710160016841F480610160016841F48A
:1027000080710160032000F071F8002000F006F8ED
:1027100000F024F8002010BD003C024070B50D4DC3
:1027200004464FF47A712878B1FBF0F00A49096841
:10273000B1FBF0F000F0D1FC48B9102C07D2002218
:102740002146501E00F032F800206C6070BD012060
:1027500070BD0000A0000020AC0000200B4882B03B
:10276000016841F480410160006800F480400090FD
:102770000648001F016841F080510160006800F0C8
:1027800080500090052002B000F030B8443802407C
:10279000002809DB00F01F02012191404009800060
:1027A00000F1E020C0F8001170470000F0B40E4BBB
:1027B0001B680C46C3F30223C3F10705042D00D99F
:1027C0000425191D072901D2002300E0DB1E012684
:1027D00006FA05F1491E214099409E40761E16409A
:1027E0003143F0BC03F024BA0CED00E0064900F0E0
:1027F000070208684FF6FF03184040EA0220034A28
:1028000010430860704700000CED00E00000FA057E
:102810002DE9F0470E46050065D0DFF81481D8F8A1
:102820000000F7B200F00700B04207D288F800704D
:10283000D8F8000000F00700B04254D128683D4CA1
:10284000810712D5400703D5206840F4E05020608E
:102850002878000703D5206840F460402060206895
:10286000A96820F0F000084320602878C0072DD028
:10287000304968680839012812D0022813D003288B
:1028800011D00968890700292DDA216821F0030198
:1028900001432160FFF71AFF814641F2883A0EE0BA
:1028A00009688903EFE709688901ECE7FFF70EFF84
:1028B000A0EB0901514502D90320BDE8F08720684B
:1028C000696800F00C00B0EB810FEFD1D8F8001070
:1028D000404601F00701B14207D90770006800F0D7
:1028E0000700B04201D00120E7E72878400705D56E
:1028F0002068E96820F4E050084320602878000749
:1029000006D52068296920F4604040EAC1002060B3
:1029100000F038F82168084AC1F30311515CC8403F
:102920000649086006480068FFF7F8FE0020C4E783
:10293000003C024008380240EA5F0008AC0000207A
:10294000A40000200448054900680968044AC1F34E
:102950008221515CC8407047AC000020083802401A
:10296000FA5F00080448054900680968044AC1F391
:102970004231515CC8407047AC000020083802402A
:10298000FA5F0008154810B5006810F00C021448F2
:1029900013D04110042A0FD0082A0ED10F4C241F47
:1029A0002268236802F03F025B0207D52068C0F36B
:1029B0008810A0FB010106E0084610BD2168C1F3A4
:1029C0008811A1FB00010023FDF7FAFB2168C1F388
:1029D0000141491C4900B0FBF1F010BD083802402C
:1029E0000024F4002DE9F84F04006ED02078DFF8C1
:1029F0004C93C007A9F104054AD009F1040001680D
:102A0000C1F38101012908D00068C0F381000228C8
:102A10000AD1D9F80000400206D52868800337D5CE
:102A200060680028E1D033E06068B0F5803F10D0E6
:102A3000B0F5A02F286810D020F4803028602868D6
:102A400020F4802028606068A8B1FFF73FFE0646AA
:102A50000DE0286840F48030F4E740F480202860DE
:102A6000F7E700BFFFF732FE801B642873D82868A1
:102A70008003F7D50CE0FFF729FE064605E000BF0E
:102A8000FFF724FE801B6428F0D828688003F7D461
:102A90002078DFF8AC8280074FF0000A3ED5A748C7
:102AA000001D016811F00C0F08D00068C0F3810010
:102AB00002280BD1D9F80000400207D4286880070B
:102AC00016D5E068012800D112E033E1E068B8B122
:102AD0000120C8F80000FFF7F9FD064605E000BF39
:102AE000FFF7F4FD801B0228C0D828688007F7D5BF
:102AF0002868216920F0F80040EAC10028600DE054
:102B0000C8F800A0FFF7E2FD064604E0FFF7DEFD8F
:102B1000801B02281FD828688007F7D42078000778
:102B200022D5864F87486169703771B101210160F4
:102B3000FFF7CCFD064604E0FFF7C8FD801B022826
:102B400009D838688007F7D50EE0C0F800A0FFF775
:102B5000BDFD064605E082E0FFF7B8FD801B0228B8
:102B60007DD838688007F7D42078400768D5DFF82B
:102B7000CCB100270BF13C0BDBF80000C0000BD4FC
:102B8000DBF8001041F08051CBF80010DBF80000BA
:102B9000012700F0805000906B4E3068C00510D4C3
:102BA000306840F480703060FFF790FD009005E0E1
:102BB000FFF78CFD0099401A022850D83068C005F4
:102BC000F6D55E4EA0686C3601280FD00528306817
:102BD00010D020F001003060306820F00400306038
:102BE000A068B8B1FFF772FD00900FE0306840F0C8
:102BF0000100F4E740F004003060F7E7FFF766FDFE
:102C00000099411A41F28830814266D830688007C5
:102C1000F4D50EE0FFF75AFD009007E0FFF756FDF0
:102C20000099411A41F28830814256D830688007B5
:102C3000F4D42FB1DBF8001021F08051CBF8001054
:102C4000A069C8B33D49091D0968C1F38101022982
:102C50004AD00228504607D0C8F8600000E03CE0A7
:102C6000FFF734FD04463BE04746C8F86000FFF735
:102C70002DFD064605E000BFFFF728FD801B02285A
:102C80002BD828688001F7D4D4E907010843A16A4A
:102C90002E4A490802EB0141626A41EA8211084367
:102CA00094F82C1040EA0161C9F800100120386640
:102CB000FFF70CFD044606E03EE000BFFFF706FD0F
:102CC000001B022809D828688001F7D534E000BF2E
:102CD000FFF7FCFC001B022802D90320BDE8F88F97
:102CE00028688001F4D427E00128F7D0D9F8000043
:102CF000E26900F4800191421CD1226A00F03F0198
:102D0000914217D147F6C071626A0140B1EB821F50
:102D100010D1A26A4FF0FF3300F4403103EB5202AE
:102D2000B1EB024F06D194F82C1000F07060B0EBBC
:102D3000016F01D00120D1E70020CFE70438024025
:102D400000004742800E4742007000400000FFFF35
:102D500070B5040009D0606A002540B12561656145
:102D6000A56294F8510040B10CE0012070BD60688C
:102D7000B0F5827FF4D0E561F2E784F85050204648
:102D800000F044F8022084F851002068016821F026
:102D900040010160A088218900F4827001F404419F
:102DA0000843A18901F400610843217C01F002017C
:102DB0000843217D01F001010843218B01F40071DA
:102DC0000843217F01F03801084394F8201001F0F6
:102DD00080010843218D01F40051084321680860F7
:102DE000A069042101EA104094F8241001F01001B8
:102DF0000843216848602068C16921F40061C1610D
:102E00006565012084F85100002070BDF0B587B0E1
:102E1000044614216846FDF70BFA31482768002361
:102E2000304902240325052687421AD12D48143043
:102E3000026842F480520260006800F480500590FD
:102E4000086840F001000860086802AA00F001006C
:102E50000590F020CDE9000482E868006946224828
:102E60001EE0204ADFF884C01032214867451BD19C
:102E7000156845F480451560126802F48042059299
:102E80000A6842F002020A60096802AD01F002011C
:102E900005914FF47041CDE9001485E8580069466A
:102EA000FFF710FB07B0F0BD124EB742FAD116681B
:102EB00046F400461660126802F4004205920A6861
:102EC00042F002020A600968029301F002010591D2
:102ED0003821CDE900140621CDE903516946DFE729
:102EE000003001403038024000000240003800400D
:102EF00000040240003C00402DE9F84F044690F8E1
:102F0000500000270A9E1D4692468B464FF001094D
:102F100001280ED0012084F85000FFF7D7FB80462F
:102F200094F85100616801280CD0B1F5827F07D177
:102F300002E00220BDE8F88FA16809B9042801D099
:102F40000227C2E0BBF1000F27D0BAF1000F24D056
:102F50001DB394F85100042802D0052084F85100D4
:102F600000206065C4F838A0E587A587C4F830B0B4
:102F7000E586A5862064606420680168490603D45C
:102F8000016841F040010160E068B0F5006F6068E1
:102F900005D0E8B3012D46D07FE0012795E008B1C8
:102FA000012D39D1206B21680088C860206B801CFE
:102FB0002063E08E401EE0862EE02068816889074D
:102FC0000FD5E18E69B1B9F1010F0AD1216B0988E2
:102FD000C160206B801C2063E08E401EE0864FF0B5
:102FE000000920688168C9070CD0E18F51B1C06821
:102FF000A16B0880A06B801CA063E08F401EE0875F
:103000004FF00109FFF762FBA0EB0800B04200E0BF
:1030100009E001D3701C50D1E08E0028CDD1E08FA3
:103020000028CAD13FE0206B216800780873206B2C
:10303000401C2063E08E401EE0862EE02068816800
:1030400089070FD5E18E69B1B9F1010F0AD1216B62
:1030500009780173206B401C2063E08E401EE086DF
:103060004FF0000920688168C9070CD0E18F51B189
:10307000C068A16B0870A06B401CA063E08F401E6D
:10308000E0874FF00109FFF721FBA0EB0800B042F9
:1030900002D3701C01D010E07EB1E08E0028CDD1AB
:1030A000E08F0028CAD142463146204601F01EFF7B
:1030B00028B101272020606507E0032705E0A0680C
:1030C00018B92068C16880680090012084F8510018
:1030D000002084F8500038462CE710B5401EB0F1AF
:1030E000807F01D3012010BD4FF0E02460610F21EB
:1030F000601702F09DFD0020A061072020610020E4
:1031000010BD10B590F83C20012A22D0012280F891
:103110003C20CA688C6822F4407222434C6822F436
:10312000806222430C6822F4006222430C6922F47C
:10313000805222434C6922F400522243C969002381
:1031400022F480420A4301684A6480F83C3000203F
:1031500010BD022010BD000070B590F83C20012A7F
:1031600032D0012480F83C40022280F83D200368E0
:103170005A689D6822F070060A6832435A60134B01
:1031800002689A4214D0B2F1804F11D0104B9A428B
:103190000ED0104B9A420BD00F4B9A4208D00F4BD7
:1031A0009A4205D00E4B9A4202D00E4B9A4204D15D
:1031B000496825F080031943916080F83D40002163
:1031C00080F83C10084670BD022070BD0000014030
:1031D0000004004000080040000C004000040140D2
:1031E000004001400018004010B5040003D094F8DE
:1031F0003D0010B107E0012010BD002084F83C0024
:10320000204600F01FF8022084F83D00211D2068B0
:1032100002F006FA012084F8460084F83E0084F8A3
:103220003F0084F8400084F8410084F8420084F8AC
:10323000430084F8440084F8450084F83D000020F1
:1032400010BD000008B502683E483F4982420ED1D9
:10325000086840F0010008600868002200F00100E2
:10326000009011461B20FFF7A1FA1B2066E03648AC
:10327000001FB2F1804F11D0344B9A421DD101682A
:1032800041F0020101600068002200F0020000909D
:1032900011461D20FFF78AFA1D204FE0016841F01A
:1032A000010101600068002200F001000090114659
:1032B0001C20FFF77BFA1C2040E0254B9A420ED1E0
:1032C000016841F0040101600068002200F0040080
:1032D000009011461E20FFF769FA1E202EE01D4BBC
:1032E0009A420ED1016841F0080101600068002295
:1032F00000F00800009011463220FFF757FA322004
:103300001CE0154B9A4208D1016841F02001016090
:10331000006800F02000009008BD10488242FBD1F8
:10332000086840F0020008600868002200F002000F
:10333000009011462E20FFF739FA2E20BDE80840F4
:10334000FFF726BA00000140443802400004004064
:1033500000080040000C0040001400400004014040
:1033600090F83D10012901D001207047022180F81A
:103370003D1000681149884214D0B0F1804F11D03F
:103380000F4988420ED00F4988420BD00E4988421F
:1033900008D00E49884205D00D49884202D00D4917
:1033A000884204D1816801F00701062903D0016831
:1033B00041F0010101600020704700000000014061
:1033C0000004004000080040000C004000040140E0
:1033D000004001400018004001680A6A41F21113E0
:1033E0001A4207D10A6A9B101A4203D10A6822F0D6
:1033F00001020A60012180F83D100020704770B57D
:10340000044690F83C00012817D0012584F83C5070
:10341000022084F83D002068826822F0770222F4BE
:103420007F4282600868502830D00DDC20284DD0C3
:1034300005DC98B310283BD148E0022070BD30284D
:1034400044D0402834D139E0602828D0702806D0F4
:10345000B0F5805F2CD0B0F5005F29D10AE0CB68D1
:10346000D1E90121206802F04CF92068816841F01F
:10347000770109E0CB68D1E90121206802F041F928
:103480002068816841F48041816011E0CA68496820
:10349000206802F00BFA5021206807E016E0CA68A5
:1034A0004968206802F013FA6021206802F033F9BD
:1034B00084F83D50002084F83C0070BDCA6849681B
:1034C000206802F0F3F940212068EFE72268014606
:1034D0001046EBE7F0B587B0044614216846FCF7C8
:1034E000A7FE24683A4800263A4902230122844272
:1034F00010D1086840F010000860086800F0100063
:10350000059048150090CDE9013203926946324892
:1035100004921EE03148B4F1804F0CD0304F314D51
:10352000BC421AD1086840F00200086008680093A5
:1035300000F002001EE00C6844F001040C60096811
:103540000093CDE9013201F00101CDE9042103929C
:1035500027E0FEF7B7FF07B0F0BDDFF88CC04027CB
:1035600064450FD1086840F00200086008680097C1
:1035700000F00200CDE90132CDE904306946039242
:103580002846E6E7194DAC420DD10C6844F0010421
:103590000C6009688DE84C0001F00101CDE90431AF
:1035A00003966946D5E712488442D4D1086840F0B2
:1035B000040008600868009700F004000590CDE959
:1035C00001320320CDE9032069460A48C1E7000023
:1035D000000001403038024000100240000002406C
:1035E000000400400004024000080040000C0040BD
:1035F000000401400008024010B5044690F83C0069
:1036000001280AD0012084F83C0042B1042A0AD0E3
:10361000082A0CD00C2A11D10DE0022010BD206820
:1036200002F082F80AE0206802F0AEF806E02068B6
:1036300002F0E0F802E0206802F010F9002084F8BF
:103640003C0010BD10B5040003D094F83D0010B14B
:1036500007E0012010BD002084F83C00204600F067
:103660001EF8022084F83D00211D206801F0D8FFDB
:10367000012084F8460084F83E0084F83F0084F876
:10368000400084F8410084F8420084F8430084F844
:10369000440084F8450084F83D00002010BD7047C8
:1036A00070B5044690F83C000D4601280AD0012070
:1036B00084F83C0042B1042A18D0082A2AD00C2AE7
:1036C0004DD139E0022070BD206802F02DF820684D
:1036D000816941F0080181612068816921F004015C
:1036E0008161206881692A69114311E0206802F034
:1036F0004BF82068816941F400618161206881692B
:1037000021F480618161206881692A6941EA02218E
:10371000816124E0206802F06DF82068C16941F001
:103720000801C1612068C16921F00401C1612068FC
:10373000C1692A69114311E0206802F08FF82068FE
:10374000C16941F40061C1612068C16921F48061EF
:10375000C1612068C1692A6941EA0221C161002072
:1037600084F83C0070BD704770470000F8B50268EF
:1037700004461068D168536910F00F0F4FF0000530
:1037800053D003F0010601F4907737435FD0C207AE
:1037900005D0CA0503D5226C42F00102226442071B
:1037A00005D5DA0703D0226C42F0020222648207B8
:1037B00005D5DA0703D0226C42F004022264020726
:1037C00007D501F02002324303D0226C42F00802F8
:1037D0002264226C002A34D0800604D5880602D5E3
:1037E000204602F0B3F820684069216CC0F38010D5
:1037F000090700D430B3204602F090F820684169F0
:1038000049061BD5416921F040014161A06BA8B177
:1038100059490165A06BFEF7EEFD002811D0A06BA1
:10382000016D01B0BDE8F040084783060FD58B0657
:103830000DD52046BDE8F84002F088B82046FFF7D5
:1038400093FFF8BD2046FFF78FFF2564F8BD266B78
:103850002023012E53D1C60651D5CE064FD5106870
:1038600050680090506940062BD5A16B08684068ED
:103870000004000CEAD0A68D8642E7D9E085C8692D
:10388000B0F5807F18D0D06820F48070D0602068B8
:10389000416921F0010141612068416921F0400145
:1038A000416184F83E3025632068C16821F0100131
:1038B000C160A06BFEF758FDA08DE18D401A81B26A
:1038C00019E0A08DE18D401A81B2E08D0028BDD0B5
:1038D0000029BBD0D06820F49070D0602068426985
:1038E00022F00102426184F83E3025632068C268FC
:1038F00022F01002C2602046FFF735FFF8BD050632
:103900002BD50D0629D594F83D002128F6D1A068C5
:10391000B0F5805F01D12069B0B1206A411C2162FD
:10392000216800784860E08C401E0004000CE084B0
:10393000E4D12068C16821F08001C1602068C168BD
:1039400041F04001C160F8BD206A0088C0F3080062
:103950005060206A801C2062E5E74006F3D54806E7
:10396000F1D5D168204621F04001D16084F83D3086
:1039700000F051FAF8BD00000D59000870B50400C0
:1039800004D094F83D00002510B106E0012070BD80
:1039900084F83C50204600F023F8242084F83D00B1
:1039A0002068C16821F40051C160204602F026F869
:1039B0002068016921F4904101612068416921F08A
:1039C0002A0141612068C16841F40051C160256449
:1039D000202084F83D0084F83E00002070BD0000E7
:1039E0002DE9F04786B0044614216846FCF720FC18
:1039F0008249DFF804C227680023804A1039022573
:103A0000012408267E484FF4406967451FD113689A
:103A100043F400231360126802F4002205920A683E
:103A200042F004020A600968CDF80090CDE9015423
:103A300001F00401CDE9046103946946FEF742FDFB
:103A4000002211463420FEF7B1FE342035E0DFF8C5
:103A5000B4C1674536D1136843F48013136012680C
:103A600002F4801205920A6842F004020A600A68B1
:103A700002F0040205920A6842F008020A6009682E
:103A800001F0080105914FF480510091CDE90154F6
:103A9000CDE903466946FEF715FD04200090CDE907
:103AA0000154CDE9034669465748FEF70BFD002255
:103AB00011463520FEF77AFE3520FEF769FE06B086
:103AC000BDE8F0874D48DFF84481001DDFF840A1D4
:103AD0004FF0070C474521D1026842F01002026006
:103AE000006800F010000590086840F001000860D0
:103AF000086802AA00F0010005904FF4C060CDE90B
:103B0000000582E8181069465046FEF7DBFC0022EB
:103B100011462520FEF74AFE2520CEE7DFF8F48087
:103B2000474520D1106840F400301060106800F460
:103B300000300590086840F001000860086802AE97
:103B400000F0010005900C20CDE9000586E8181072
:103B500069465046FEF7B6FC002211462620FEF7C5
:103B600025FE2620A9E7DFF8B08047451FD1106861
:103B700040F480201060106800F4802005900868F0
:103B800040F0020008600868CDE9023400F002004D
:103B9000CDE904C0CDE9009569462048FEF792FCC6
:103BA000002211462720FEF701FE272085E71C4A48
:103BB000974284D1026842F020020260006800F05F
:103BC00020000590086840F040000860086802AADC
:103BD00000F0400005904FF48440CDE9000582E8F4
:103BE000580069460F48FEF76DFC00221146472039
:103BF000FEF7DCFD472060E7004C00404038024003
:103C00000008024000500040000C0240001001403B
:103C10000000024000440040004800400004024010
:103C2000001401400018024090F83E30202B0ED1C5
:103C300059B152B190F83C30012B08D0012380F8E3
:103C40003C300023036301F05FBF01207047022076
:103C500070470000334A0168334891420CD1018912
:103C6000FD2904D2314B82785A54491C01812E49D6
:103C70000122891C2E4851E02E4A91420DD18189A2
:103C8000FD2905D2294BC278FF335A54491C818142
:103C900025490122C91C284840E0284A91420CD1FC
:103CA000018AFD2904D2264B02795A54491C01820B
:103CB0001D490122091D234830E0234A91420DD1BC
:103CC000818AFD2905D21E4B4279FF335A54491C83
:103CD000818215490122491D1C481FE01C4A91425E
:103CE0000CD1018BFD2904D21A4B82795A54491CFC
:103CF00001830D490122891D17480FE0174A91429F
:103D00000ED1818BFD2905D2124BC279FF335A5453
:103D1000491C818304490122C91D1148FFF784BF52
:103D2000704700000010014000000020C45F002028
:103D3000406F002000440040846F00200048004095
:103D4000C2610020C86F0020004C0040B86E002007
:103D500000500040C0630020FC6E002000140140B1
:103D60000C7000202DE9F843044690F83D001F46F2
:103D700016460D4620284CD1C5B1BEB194F83C0082
:103D8000012846D0012084F83C004FF00008C4F818
:103D90004080212084F83D00FEF798FCA6848146EF
:103DA000E684A068B0F5805F03D004E00120BDE8A0
:103DB000F883206928B12E465FF0000584F83C8026
:103DC0000EE00026FAE78021204601F0B8FEA0B9F7
:103DD000AEB116F8010B21684860E08C401EE0840B
:103DE000E08C4B464FF0000200970028EBD14FF0DB
:103DF0004001204601F0A3FE30B10320D7E735F89B
:103E0000020BC0F30800E6E7202084F83D00002004
:103E1000CDE70220CBE77047FEE700002DE9F04F29
:103E20008146002006464C46844602FB01F5B9F166
:103E3000010F09D04FF00208022C11D0032C1BD027
:103E4000B9F1040F33D123E0484801240346484F19
:103E5000DC7183F806C0A4071C6507F5BB732AE074
:103E60004448454C0346454F83F8078083F806C015
:103E70001C6507F5BB731AE0414803240346424F13
:103E8000DC7183F806C03F4C1C6507F5BB730EE080
:103E90003E4C0426E67184F806C03D4EC4F84660E8
:103EA00021713C4EC4F84A60C4F84E802646A9F100
:103EB0000104022C48D801714263C563C0F830C0C8
:103EC000E3466446C0F838C04FF05E0C4FF05D0822
:103ED000A0F818C0A0F81A80C760036184824471FA
:103EE000C4610462C246BE465FF00004D0F81C8084
:103EF00033F81470641C4744C761A445F6D8002405
:103F000009E000BF0CEB0407D0F8208033F81770ED
:103F1000641C47440762A245F4D8046DBEF8003023
:103F2000E362036DB3F1804F18D0134CA34202D06B
:103F3000144CA34208D1C468878A34F81740640837
:103F40005C63006DC0F824B0B9F1040F04D1317185
:103F5000C6F83A20C6F84250BDE8F08FC468878A98
:103F600034F8174064089C63EBE70000407E0020B3
:103F700090720020947E0020000800407C75002094
:103F8000E87E002000040140687800203C7F00208B
:103F9000000400400004024070B5264888B00025A7
:103FA000016841F001010160006800F00100079024
:103FB00000F078F8204C4FF0804608202660C4E9D5
:103FC00001054FF47A70C4E903052046FFF70CF9A8
:103FD00070200090322001900220CDE90205049566
:103FE00005950422694620460695FFF759FB0122F4
:103FF0000421304601F078FB002211461C20FEF718
:10400000D5FB1C20FEF7C4FB2168681F08612168EE
:10401000801008612068C16841F00101C16020463C
:10402000FFF7DAF92068416C41F40041416408B0BF
:1040300070BD000040380240C870002038B51648F6
:104040000025016841F002010160006800F00200F3
:10405000009000F077F8124C104820600F20C4E95F
:1040600001051D20C4E903052046FFF7BDF8002225
:1040700011461D20FEF79AFB1D20FEF789FB2168E3
:10408000A81E08612068C16841F00101C160204696
:10409000BDE83840FFF7A0B94038024000040040B6
:1040A000887100202DE9F041224886B00026016881
:1040B00041F001010160016801F001010591016811
:1040C00041F010010160016801F0100105910168E3
:1040D00041F0020101600068022400F00200009437
:1040E0000125CDE904500194694603941248FEF776
:1040F000E9F9CDE90045DFF84480CDE9034669469A
:104100004046FEF7DFF9CDE9034627020C4CCDE926
:10411000007569462046FEF7D5F900220221404687
:10412000FEF7CEFA012239462046FEF7C9FA06B05C
:10413000BDE8F0813038024000000240001002402B
:10414000000402402DE9F043224887B000260168B0
:1041500041F002010160016801F00201059101686E
:1041600041F020010160016801F020010591016822
:1041700041F0200101600068022400F02000059059
:104180000125CDE90045694613480394FEF79AF9E5
:10419000CDE903464FF48058DFF84090CDE9008523
:1041A00069464846FEF78EF9CDE903462703CDE977
:1041B000007569464846FEF785F9002241464846A3
:1041C000FEF77EFA012239464846FEF779FA07B033
:1041D000BDE8F08330380240000402400014024081
:1041E0002DE9F04F87B014216846FCF721F891487B
:1041F0000025016841F010010160016801F0100123
:104200000591016841F004010160016801F00401B9
:104210000591016841F020010160016801F0200171
:104220000591016841F080010160016801F08001A1
:104230000591016841F001010160016801F001018F
:104240000591016841F002010160016801F002017D
:104250000591016841F040010160016801F04001F1
:104260000591016841F0080101600068DFF8C8911C
:1042700000F008004FF21004059001222146484644
:10428000FEF71EFA012242F23F016C48FEF718FACF
:10429000DFF8ACA101224CF23B115046FEF710FAB8
:1042A00000224FF4E0716548FEF70AFADFF894B196
:1042B0004FF46077012239465846FEF701FA4FF471
:1042C0001948012241466048FEF7FAF901223946B1
:1042D0005E48FEF7F5F9012203215D48FEF7F0F98B
:1042E0004FF6DC5002268DE8610069465848FEF71B
:1042F000E9F80F208DE8610069464846FEF7E2F8CC
:1043000000940124694648460194CDE90245FEF730
:10431000D9F850486946CDE9004002955846FEF765
:10432000D1F830208DE8610069465846FEF7CAF89A
:104330008DE8700069464548FEF7C4F8E002CDE913
:104340000005694602944846FEF7BCF83F20CDE9D7
:10435000000469463948CDE90245FEF7B3F820026A
:10436000CDE90004CDE9024669465046FEF7AAF8B9
:104370004FF472508DE8610069465046FEF7A2F88E
:104380004CF23B00CDE9000469465046CDE90245B8
:10439000FEF798F84FF4A0708DE831006946274881
:1043A0000395FEF78FF8802000901120CDE90105DC
:1043B000694622480395FEF785F8CDE90074694601
:1043C0005846CDE90245FEF77DF8CDE900846946FF
:1043D0001D48CDE90245FEF775F84FF41C408DE805
:1043E000610069461548FEF76DF86003CDE90004E9
:1043F0000326CDE9024669461048FEF763F8CDE989
:10440000007469461148CDE90245FEF75BF8CDE935
:10441000006469460E48CDE90245FEF753F80022D4
:1044200011460620FEF7C2F90620FEF7B1F907B0E3
:10443000BDE8F08F303802400014024000180240FE
:10444000000C02400008024000000240000402404C
:104450000010024000001110104810B50E49016014
:104460004FF48271416000218160C1604FF480226D
:104470000161C0E905121822C0E907214162816289
:104480000A21C162FEF764FC002803D0BDE8104099
:10449000FDF77CBD10BD000000300140B86B00206E
:1044A0000F4810B50D4901604FF482714160002141
:1044B0008160C1604FF480220161C0E90512C161D1
:1044C0000162416281620A21C162FEF741FC00285B
:1044D00003D0BDE81040FDF759BD10BD00380040C5
:1044E000106C00200F4810B50D4901604FF4827127
:1044F000416000218160C1604FF400720161C0E938
:104500000512C1610162416281620A21C162FEF746
:104510001FFC002803D0BDE81040FDF737BD10BDDB
:10452000003C0040686C002010B596B000240F9449
:1045300010941194129413941C2108A81494FBF75E
:1045400077FE20216846FBF773FE2A482849016060
:10455000A721C0E9011440F2E731C0E9031480212A
:10456000C0E90541FEF740FE08B1FDF70FFD4FF42D
:1045700080500F900FA91F48FEF741FF08B1FDF7CB
:1045800005FD1C48FFF75EF808B1FDF7FFFC202091
:10459000CDE9130413A91748FEF7DEFD08B1FDF7B6
:1045A000F5FC3020CDE908040220CDE90A040C9482
:1045B0000D94002208A90F480E94FFF71DF808B1CA
:1045C000FDF7E4FC00944FF40050CDE90440029460
:1045D00001940394694607480794FEF792FD08B1D9
:1045E000FDF7D4FC0348FEF775FF16B010BD0000C0
:1045F00000000140C06C002010B58EB0002407946C
:10460000089409940A940B941C2168460C94FBF7B7
:104610000FFE1E484FF0804101605321C0E9011494
:1046200040F2E731C0E903148461FEF7DDFD08B113
:10463000FDF7ACFC4FF48050079007A91348FEF734
:10464000DEFE08B1FDF7A2FC1048FEF7FBFF08B143
:10465000FDF79CFC0B940BA90C480C94FEF77CFD19
:1046600008B1FDF793FC3020CDE900040220029050
:104670000422694604940548FEF7BEFF08B1FDF721
:1046800085FC0248FEF726FF0EB010BD086D002025
:1046900010B58EB000240794089409940A940B94E2
:1046A0001C2168460C94FBF7C3FD1F481D4901609F
:1046B0005321C0E9011440F2E731C0E903148461D9
:1046C000FEF792FD08B1FDF761FC4FF480500790B2
:1046D00007A91548FEF793FE08B1FDF757FC1248ED
:1046E000FEF7B0FF08B1FDF751FC0B940BA90E4883
:1046F0000C94FEF731FD08B1FDF748FC3020CDE900
:104700000004022002900C22694604940648FEF739
:1047100073FF08B1FDF73AFC0348FEF7DBFE0EB06D
:1047200010BD000000040040506D002010B58EB098
:1047300000240794089409940A940B941C21684659
:104740000C94FBF775FD1F481D4901605321C0E91A
:10475000011440F2E731C0E903148461FEF744FD1F
:1047600008B1FDF713FC4FF48050079007A91548D6
:10477000FEF745FE08B1FDF709FC1248FEF762FF9F
:1047800008B1FDF703FC0B940BA90E480C94FEF73F
:10479000E3FC08B1FDF7FAFB3020CDE9000402206C
:1047A00002900022694604940648FEF725FF08B1EE
:1047B000FDF7ECFB0348FEF78DFE0EB010BD0000C8
:1047C00000080040986D002010B58EB000240794BA
:1047D000089409940A940B941C2168460C94FBF7E6
:1047E00027FD1F481D4901605321C0E9011440F213
:1047F000E731C0E903148461FEF7F6FC08B1FDF768
:10480000C5FB4FF48050079007A91548FEF7F7FD48
:1048100008B1FDF7BBFB1248FEF714FF08B1FDF726
:10482000B5FB0B940BA90E480C94FEF795FC08B150
:10483000FDF7ACFB3020CDE90004022002900022FD
:10484000694604940648FEF7D7FE08B1FDF79EFBC3
:104850000348FEF73FFE0EB010BD0000000C004004
:10486000E06D00201CB500240E4800940C49019412
:1048700001605321C0E9011401218461C160FEF788
:10488000B3FC08B1FDF782FB00946946054801942A
:10489000FEF762FC002801D0FDF778FB1CBD00008C
:1048A00000140040286E002010B596B000240F942C
:1048B00010941194129413941C2108A81494FBF7DB
:1048C000B7FC20216846FBF7B3FC29482749016063
:1048D000A721C0E9011440F2E731C0E903144461A3
:1048E0008461FEF781FC08B1FDF750FB4FF4805066
:1048F0000F900FA91E48FEF782FD08B1FDF746FB99
:104900001B48FEF79FFE08B1FDF740FB139413A967
:1049100017481494FEF720FC08B1FDF737FB302050
:10492000CDE908040220CDE90A040C940D9400227C
:1049300008A90F480E94FEF75FFE08B1FDF726FBAD
:1049400000944FF40050CDE9044002940194039484
:10495000694607480794FEF7D4FB08B1FDF716FB3C
:104960000348FEF7B7FD16B010BD0000000401407B
:10497000706E00200E4810B50C4901604FF4614183
:104980004160002181600C22C160C0E90412816194
:10499000C161FEF7F3FF08B1FDF7F8FABDE810407A
:1049A000012204490248FFF73FB90000004C0040D3
:1049B000B86E0020050000200E4810B50C490160BB
:1049C0004FF461414160002181600C22C160C0E967
:1049D00004128161C161FEF7D1FF08B1FDF7D6FA7B
:1049E000BDE81040012204490248FFF71DB900004C
:1049F00000500040FC6E0020060000200E4810B55C
:104A00000C4901604FF461414160002181600C223A
:104A1000C160C0E904128161C161FEF7AFFF08B156
:104A2000FDF7B4FABDE81040012204490248FFF73F
:104A3000FBB8000000100140406F00200200002081
:104A40000E4810B50C4901604FF4614141600021EE
:104A500081600C22C160C0E904128161C161FEF76E
:104A60008DFF08B1FDF792FABDE81040012204491C
:104A70000248FFF7D9B8000000440040846F0020CE
:104A8000030000200E4810B50C4901604FF461414D
:104A90004160002181600C22C160C0E90412816183
:104AA000C161FEF76BFF08B1FDF770FABDE8104079
:104AB000012204490248FFF7B7B80000004800404F
:104AC000C86F0020040000200E4810B50C4901609A
:104AD0004FF461414160002181600C22C160C0E956
:104AE00004128161C161FEF749FF08B1FDF74EFA7A
:104AF000BDE81040012204490248FFF795B80000C4
:104B0000001401400C70002007000020FEE70000A8
:104B100010B52048B0EE002A2DED028BF1EE041AFC
:104B2000B0F8FA10B0F8F80000EE101A1A49B0EE1A
:104B3000001AF8EE400A00EE100AA1F5BB70B8EEBC
:104B4000400AFBF727FE9FED168ADFED168A134910
:104B5000B0EE002AA1F5BB70F1EE041AB0EE001A17
:104B6000F0EE480AB0EE680AFBF714FEF0EE480AD1
:104B7000B0EE680ABDEC028BB0EE002A0A49BDE82F
:104B80001040A1F5BB70F1EE041AB0EE001AFBF76D
:104B900001BE00003459002006740020F276002087
:104BA00000606A4600401C46DE790020F0B4002216
:104BB00001280CD002280CD0032846D12449002318
:104BC0008B608B824B71CB610B620C8B0AE02149AD
:104BD000F5E72149F3E70D69CE6935F81250521C0B
:104BE0003544CD619442F6DC00224D8B07E00E691E
:104BF000A718521C36F817600F6A3E440E629542A1
:104C0000F5DCCA680C6D1288E2620A6DB2F1804F61
:104C100014D0124CA24202D0114CA24207D1CC684F
:104C20008D8A34F81540640854630A6D53620A6D26
:104C3000D26A0A644B64F0BCFDF7E0BACC688D8A96
:104C400034F8154064089463EFE7F0BC7047000047
:104C5000E87E0020407E0020947E00200008004076
:104C600000040140FEE70000F0B58D480122B0F8D5
:104C70002811012903D0022901D0A0F828214FF4DE
:104C80001663B0F81AC15C009D00DE001F014FF4EE
:104C900061419C450BD0A44509D0AC4507D0B44533
:104CA00005D0BC4503D08C4501D0A0F81A11B0F84E
:104CB0001CC19C450BD0A44509D0AC4507D0B445D8
:104CC00005D0BC4503D08C4501D0A0F81C11B0F82C
:104CD0001EC19C450BD0A44509D0AC4507D0B445B6
:104CE00005D0BC4503D08C4501D0A0F81E11B0F80A
:104CF00030C19C450BD0A44509D0AC4507D0B44584
:104D000005D0BC4503D08C4501D0A0F83011B0F8D7
:104D100032C19C450BD0A44509D0AC4507D0B44561
:104D200005D0BC4503D08C4501D0A0F832115D49B7
:104D30004FF480340023D1F80452A54201DBC1F8BE
:104D40000432D1F80852A54201DBC1F80832D1F88B
:104D50000C52A54201DBC1F80C32D1F81052A54229
:104D600001DBC1F81032D1F81452A54201DBC1F8C1
:104D70001432D1F81852A54201DBC1F81832038E63
:104D80005B1E052B00D30286D1F88C33012B02DA8F
:104D9000C1F88C2304E00F2B02DD0F23C1F88C3304
:104DA000D1F88433012B02DAC1F8842304E01E2BEE
:104DB00002DD1E23C1F88433D1F874444FF4FA7332
:104DC000012C02DAC1F8742403E09C4201DDC1F831
:104DD0007434B0F83E410CB9A0F83E21B0F840411F
:104DE0000CB9A0F84021B0F8422112B90322A0F872
:104DF0004221B0F8442112B90422A0F84421B0F8AD
:104E0000462112B90522A0F84621B0F8482112B96E
:104E10000622A0F848214C6842F2107214B90C68BE
:104E200004B90A600D6F40F6B83405B90C67CD6E51
:104E300015B94FF47A75CD66818901B98281B0F8D0
:104E4000F81009B9A0F8F820B0F8FA1009B9A0F8DC
:104E5000FA20B0F87A1021B9B0F8781009B9A0F8A2
:104E60007820B0F87E1021B9B0F87C1009B9A0F80C
:104E70007C40B0F8821031B9B0F8801019B944F60E
:104E80002061A0F88010B0F8841009B9A0F884203F
:104E9000B0F8FC10002901D1A0F8FC30F0BD0000F2
:104EA00034590020D40400207047000001B582B0BE
:104EB0004FF47A700090012301AA02A90248FEF77C
:104EC0001BF89DF804000EBDB86B002001221021D4
:104ED0000148FDF7F5BB0000000002400022102150
:104EE0000148FDF7EDBB00000000024038B5044664
:104EF0001248134B0068B0FBF3F04FF47A73584339
:104F000000906068B0F5827F0DD10B4600920022C0
:104F10008021204600F016F870B1606D40F020004E
:104F20006065032038BD009830B1401E00902068B5
:104F30008068C0430006F6D5002038BDAC000020D4
:104F400000366E012DE9F8431E4691468846044618
:104F5000089DFDF7BBFB401B351AFDF7B7FB074665
:104F600025480068C0F3CB30684338E0701C37D068
:104F7000FDF7ACFBC01BA84203D215B1009860B38B
:104F80002CE02068416821F0E00141606068B0F5E4
:104F9000827F0BD1A068B0F5004F02D0B0F5806FD2
:104FA00004D12068016821F040010160A06AB0F5D9
:104FB000005F09D12068016821F400510160206878
:104FC000016841F400510160012084F85100002083
:104FD00084F850000320BDE8F8830025401E0090AF
:104FE0002068816838EA010004D000214945BDD11C
:104FF0000020F0E70121F9E7AC0000207047000035
:105000002DE9F04117000D4606465AD0012E39D041
:10501000022E41D0032E54D12B4C012020706570FC
:10502000A0700025E5622564656420797843A0625C
:105030003046FFF7BBFDA58265712448216D0088CD
:10504000C862216DB1F1804F28D02148814202D041
:105050002048814207D1E068A28A30F81200400857
:105060004863206D4562012E1FD0022E23D0032EEF
:1050700027D115481849006D08600846BDE8F04181
:10508000FEF76EB9154C164825B101220221FDF735
:1050900017FBC2E70022F9E7124CBEE7E068A28ADC
:1050A00030F8120040088863DBE70C480E49006DB9
:1050B00008600846E2E70B480C49006D08600846A6
:1050C000DCE7BDE8F0810000E87E0020907200205F
:1050D000000800400004014068700020407E00206D
:1050E00000100240947E0020C8700020287100202B
:1050F0002DE9F0411E46DDF8188015000F4629D035
:10510000042827D18102144C14480FB35FF0010228
:10511000FDF7D6FA012121706770A170002060713F
:1051200022796A432261520822626661C4F81880BB
:1051300084F83410A0622063E061E0620849606294
:10514000D4F846000860BDE8F0410846FEF708B90B
:105150000022DDE7BDE8F0813C7F00200014024022
:10516000887100200A480178491CCAB200210270E7
:105170000A2A03D301704278521C42704278642A92
:1051800003D341708178491C8170FDF7A5BA0000F6
:105190003400002030B593B030216846FBF748F862
:1051A00014210CA8FBF744F81C480025016841F0C5
:1051B00080510160006800F080501190184801682B
:1051C00041F4804101600068022400F480401190A5
:1051D00001200090000401908001CDE9064008AA5A
:1051E0000420A82182E813000B906846FDF7FAFB23
:1051F00008B172B6FEE70CA90F2081E831004FF428
:10520000A0500F90109005210CA8FDF701FB00287D
:1052100001D072B6FEE713B030BD00004038024046
:10522000007000400548016841F4700101600349C5
:105230004FF00060803908607047000088ED00E0A2
:1052400008B50020ADF8000006480068C168C943F1
:10525000890706D46FF00201016103484168491CC7
:10526000416008BDE8710020C00000204FF080417F
:105270004FF6FE700861014800F0F4B8407E00204F
:1052800003494FF6FE700860024800F047B800007E
:10529000100400403C7F002008B50020ADF800005D
:1052A00006480068C168C943890706D46FF0020147
:1052B000016103484168491C416008BD2871002014
:1052C000B800002008B50020ADF8000006480068CE
:1052D000C168C943890706D46FF002010161034820
:1052E0004168491C416008BD48720020C800002088
:1052F00008B50020ADF8000006480068C168C94341
:10530000890706D46FF00201016103484168491C16
:10531000416008BD68700020B0000020F0B4D0F8F3
:105320004A20D0F84E109161816AC26A11440A0C79
:10533000A1EB024181624FF0000129D0436A5B1C5E
:105340004362B0F84E30D0F84A401B04A361837921
:105350004478A342D0F83E3009D15B1CC0F83E30FF
:10536000D0F84240A3420CD3C0F83E1009E05B1EC7
:10537000C0F83E305B1C04D1D0F842305B1EC0F850
:105380003E30D0F83E300479B3FBF4F3C0F8363049
:1053900045795DB1C46A43699C4202D3E61A032E83
:1053A00053D99C4202D81B1B032B4ED990F8344092
:1053B0000323012C27D0022C49D0032C45D11AB14C
:1053C000C2690AB1521EC261026B836913445A0C4E
:1053D000A3EB4243036304D0C36A934201D99A1AF0
:1053E000C262002D31D1426A03699A422DD380F8FE
:1053F0003410817041611A49D0F846000860F0BC51
:105400000846FDF7E9BF12B1C169491CC161016BD2
:1054100082690A44510CA2EB4142026302D0C26A83
:105420001144C1624DB9016A19B1426A8A4202D07F
:1054300003E0416A09B180F83430C26A41698A42A6
:1054400003D3C162022180F83410F0BC70470169B7
:10545000426A891AC2699142F7D880F83430F4E779
:10546000887100202DE9F041017801297ED18179F0
:10547000427800249142816B06D1491C8163C26B42
:10548000914208D3846306E0491E8163491C02D11E
:10549000C16B491E8163816B0279B1FBF2F101633B
:1054A000427952B1838AC18A8B425FD01944038BFF
:1054B000458B2B44C91A491C7FD0C16A491CC16263
:1054C00083685B1C8360436A8B4204D10369858ACD
:1054D00033F8153083600369878AD0F808C04B4DD4
:1054E00033F817304A4E4FF0804E63454ED8C369AB
:1054F00099420BD8038BA3F1010C674506DA7F1C98
:10550000BFB2878284609F4200D38382876A036A26
:10551000A7EB010C9C4501D8012A05D09C4517D862
:10552000B2B9B1EB570F13D3018B828A4B1E9A424B
:1055300003DA438B0B449A1A8282828A521C92B2FB
:1055400082828460438B1944914201D8491E818232
:10555000C168828A31F81210026DD162016D714505
:1055600008D1C268838A32F8132000E025E052088F
:105570008A6309E0A94201D0B14207D1C268838A97
:1055800032F8132052084A63016D4C62C16A826A84
:10559000914231D303292FD9047084708482006D25
:1055A0007746B8420BD11B4908600846FDF714FF47
:1055B000386820F0010038607C62BDE8F081A842C4
:1055C0000BD1154908600846FDF706FF286820F052
:1055D000010028600D4824300CE0B042EDD10F49A5
:1055E00008600846FDF7F8FE306820F001003060E2
:1055F000074824300460E0E7026D036C416CD26A16
:105600009A18614102644164D7E700000008004035
:1056100000040140C870002028710020687000203C
:10562000F0B50268254C264D264E274F274B4FF0EC
:10563000804CA04209D0604507D0A84205D0B042B6
:1056400003D0B84201D0984204D122F0700E4A68CB
:1056500042EA0E02A0421BD0604519D0A84217D0E2
:10566000B04215D0B84213D0984211D0184DA8427C
:105670000ED0184DA8420BD0174DA84208D0174D98
:10568000A84205D0164DA84202D0164DA84203D11B
:1056900022F44075CA682A434D6922F080022A43E9
:1056A00002608A68C2620A688262A04201D098429F
:1056B00001D10969016301214161F0BD0000014090
:1056C0000004004000080040000C004000040140BD
:1056D00000400140004401400048014000180040E3
:1056E000001C00400020004010B501F01F03012104
:1056F000046A99408C430462016A9A401143016232
:1057000010BD10B5846842EA032224F47F440A43A2
:105710002243826010BD826822F070020A4342F088
:105720000701816070470000F0B5026A22F00102B3
:105730000262036A42688469124E24F073050C68A1
:105740002C4323F002058B682B430D4DA84201D05A
:10575000B04205D123F00807CB683B4323F0040394
:10576000A84201D0B04205D14D6922F440721543E0
:105770008A692A4342608461496841630362F0BDDB
:105780000000014000040140F0B5026A22F010025E
:105790000262026A436884690D6824F4E64444EABC
:1057A00005248D6822F0200242EA05120F4D104EAA
:1057B000A84201D0B04206D1CF6822F0800242EA6E
:1057C000071222F04002A84201D0B04207D14D6931
:1057D00023F4406343EA85038D6943EA850343600C
:1057E0008461496881630262F0BD000000000140ED
:1057F00000040140F0B5026A22F480720262026A7B
:105800004368C46922F4007224F073050C68124ED8
:105810002C438D6842EA05220E4DA84201D0B042C9
:1058200006D1CF6822F4006242EA072222F48062A5
:10583000A84201D0B04207D14D6923F4405343EA56
:1058400005138D6943EA05134360C4614968C16368
:105850000262F0BD000001400004014030B5026A60
:1058600022F480520262046A4268C3690D6823F41C
:10587000E64343EA05238D6824F4005444EA0534E2
:10588000084DA84202D0084DA84204D14D6922F427
:10589000804242EA85124260C36149680164046241
:1058A00030BD0000000001400004014010B5036A53
:1058B000046A24F001040462846924F0F00444EAD8
:1058C000021423F00A020A438461026210BD10B57B
:1058D000036A23F0100303628369046A23F47043AC
:1058E00043EA023224F0A00343EA0111826101621B
:1058F00010BD00000148FDF739BF0000B86E002060
:105900000148FDF733BF0000FC6E002010B5806B2E
:105910000021C185C184FDF727FF10BD0168CA6859
:1059200022F49072CA6001684A6922F001024A6159
:10593000016B012904D10168CA6822F01002CA6013
:10594000202180F83E1000210163704710B5044605
:1059500090F83E00222801D0022010BDA1684FF42B
:105960008052914201D1206920B1A06A91421BD09E
:1059700049B10AE02168A06A4968C1F308010180C1
:10598000A06A801C08E0216971B12168496801F0B2
:105990007F010170A06A401CA062E08D401E0004DF
:1059A000000CE08503D01CE021684968F1E720681D
:1059B000C16821F02001C1602068C16821F48071B4
:1059C000C1602068416921F001014161202084F813
:1059D0003E00206B012806D02046FEF73BF9002050
:1059E0002063002010BD2068C16821F01001C16053
:1059F000A18D2046FDF7B7FEF1E7000070B5044623
:105A000000680169E26821F4405111430161216994
:105A1000A068E26908436169114308432168CA68C4
:105A200049F20C639A430243CA6020684169A26943
:105A300021F440711143416131492068884202D00C
:105A40003049884202D1FCF78DFF01E0FCF77AFF74
:105A5000E2690023192164253226B2F5004F6268FD
:105A600028D0A0FB0101930F9200FAF7A9FB014691
:105A7000B0FBF5F06FF01802504301EB800006EB2D
:105A80000010B0FBF5F000F0F002B1FBF5F002EB16
:105A90000012B1FBF5F06FF01803584301EB8000E2
:105AA00006EB0010B0FBF5F000F00F002168104489
:105AB000886070BDA0FB010192185B41FAF780FB82
:105AC0000146B0FBF5F00201B1FBF5F06FF01803F1
:105AD000584301EB800006EBC000B0FBF5F000F08E
