:020000040800F2
:10000000A8030120C9840008FD820008FF820008BF
:100010000183000803830008058300080000000036
:10002000000000000000000000000000078300083E
:1000300009830008000000000B8300080D830008FE
:1000400035850008398500083D8500084185000890
:1000500045850008498500083D8300084D85000856
:100060005185000855850008598500085D85000800
:100070006185000865850008698500086D850008B0
:100080007185000875850008798500087D85000860
:100090008185000885850008898500088D85000810
:1000A000918500089585000899850008254200087B
:1000B000492E0008293D0008453300089D850008A9
:1000C000A1850008A5850008A9850008AD85000860
:1000D000B185000847830008518300085B8300084E
:1000E000B5850008B9850008BD850008C1850008F0
:1000F000C5850008C985000831380008CD8500088D
:10010000D1850008D585000821470008D985000859
:10011000658300086F830008DD850008E18500081D
:10012000E5850008E9850008ED850008F1850008EF
:10013000F5850008F9850008FD850008018600089E
:1001400005860008098600080D860008118600084B
:1001500015860008198600081D86000879830008A6
:100160002186000825860008298600082D860008BB
:100170003186000835860008398600080000000036
:100180003D8600084186000810B50400002C01D10E
:10019000012033E0A0690028FFD194F83D00002839
:1001A00005D1002084F83C00200000F025FD24202B
:1001B00084F83D002068C06830F400502168C860B1
:1001C000200000F0CEFA2068006930F490402168E9
:1001D00008612068406930F02A0021684861206881
:1001E000C06850F400502168C860002020642020BE
:1001F00084F83D00202084F83E00002010BD2DE949
:10020000FC4106000D0014001F00002096F83D0080
:10021000202857D1002D03D0200080B2002801D122
:10022000012050E096F83C00012801D102204AE06C
:10023000012086F83C0000203064212086F83D0033
:1002400000F06AFE8046B484F484B068B0F5805F44
:1002500004D13069002801D1002401E02C000025E0
:10026000002086F83C000FE0207831684860641C6C
:1002700007E0002CF8D12888C005C00D316848601F
:10028000AD1CF08C401EF084F08C00280AD0009742
:10029000434600228021300000F045F90028E8D0D4
:1002A000032010E00097434600224021300000F078
:1002B0003AF9002801D0032005E0202086F83D000F
:1002C000002000E00220BDE8F68180B590F83E30C5
:1002D000202B16D1002903D013009BB2002B01D193
:1002E00001200FE090F83C30012B01D1022009E001
:1002F000012380F83C300023036392B200F04AF9F6
:1003000000E0022002BD38B50400206801682068C2
:10031000C268206843690020002011F00F00002807
:1003200007D18D0605D5950603D5200000F0B5F957
:10033000F8E0002872D0D80702D412F4907F6DD074
:1003400011F00100C0B2002805D0D00503D5206C03
:1003500050F001002064480708D513F00100C0B236
:10036000002803D0206C50F002002064880708D5D4
:1003700013F00100C0B2002803D0206C50F004003C
:10038000206408070AD5900604D413F00103DBB2F9
:10039000002B03D0206C50F008002064206C002853
:1003A0003BD0880604D5900602D5200000F075F9F0
:1003B00020684069800910F00100216C090701D410
:1003C000002825D0200000F004F92068406940068C
:1003D0001AD52068406930F0400021684861A06B60
:1003E00000280DD00FF22120A16B0865A06B00F052
:1003F000E7FD002811D0A06BA16B096D88470CE0C8
:10040000200000F0F0FD08E0200000F0ECFD04E02A
:10041000200000F0E8FD0020206483E0206B01282C
:1004200070D1C8066ED5D0066CD50020009020682B
:10043000006800902068406800900098206840693B
:10044000400639D5A06B00684168080080B20028DA
:1004500031D00800A28D80B290422CD2E185A06BF1
:10046000C069B0F5807F1FD02068C06830F480700C
:100470002168C860206840694008400021684861E0
:100480002068406930F0400021684861202084F8ED
:100490003E00002020632068C06830F01000216812
:1004A000C860A06B00F03EFDA18DE08D091A89B2F5
:1004B000200000F099FD35E0A08DE18D411AE08D1E
:1004C00000281ED0080080B200281AD02068C0681A
:1004D00030F490702268D060206840694008400085
:1004E00022685061202084F83E00002020632068AC
:1004F000C06830F010002268D06089B2200000F09F
:1005000073FD0FE0080605D5100603D5200000F0A6
:1005100085F807E0480605D5500603D5200000F011
:10052000AEF8FFE731BD2DE9F04105000E00904621
:100530001F00069C286800683040B04201D10120AD
:1005400000E000204146C9B2884220D114F1010FD9
:10055000F0D0002C04D000F0DFFCC01B8442E9D2B4
:100560002868C06830F4D0702968C860286840697D
:100570004008400029684861202085F83D0020207F
:1005800085F83E00002085F83C00032000E00020B4
:10059000BDE8F08181628285C2850021016422214B
:1005A00080F83E10002180F83C100168C96851F4C1
:1005B00080710268D1600168496951F001010268E7
:1005C00051610168C96851F020010068C1600020D4
:1005D00070470168C96831F490710268D1600168A0
:1005E00049694908490002685161016B012905D137
:1005F0000168C96831F010010268D160202180F8DB
:100600003E1000210163704780B5806B0021C185D9
:100610000021C18400F0E7FC01BD000090F83D100E
:1006200021292AD18168B1F5805F0CD101690029A7
:1006300009D1016A0988C905C90D02685160016ABA
:10064000891C016205E0016A4A1C0262097802689D
:100650005160C18C491EC18489B200290BD1016847
:10066000C96831F080010268D1600168C96851F041
:1006700040010068C160002000E00220704780B5A2
:100680000168C96831F040010268D160202180F81A
:100690003D1000F041FE002002BD10B5040094F8AA
:1006A0003E0022285BD1A068B0F5805F0DD12069A3
:1006B00000280AD10020A06A21684968C905C90D2F
:1006C0000180A06A801CA06217E0A16A0020A068D7
:1006D000B0F5805F05D0A068002806D12069002809
:1006E00003D120684068087004E02068406810F07A
:1006F0007F000870A06A401CA062E08D401EE0856B
:1007000080B2002829D12068C06830F0200021681C
:10071000C8602068C06830F480702168C8602068B4
:1007200040694008400021684861202084F83E006C
:10073000206B01280AD12068C06830F010002168C1
:10074000C860A18D200000F04FFC02E0200000F006
:1007500038FD00202063002002E0002000E002209D
:1007600010BD2DE9FE4F05002868016931F44051A4
:10077000E868014328680161A9682869014368693C
:100780000143E86901432868C268AF480240114349
:100790002868C1602868416931F44071A869014343
:1007A000286841612868A949884203D02868A84977
:1007B000884203D100F013FF040002E000F004FFC0
:1007C0000400E869B0F5004F40F09F805FF0640AD4
:1007D000022600275FF019085FF0000922000023BD
:1007E000A8FB020108FB031109FB0211CDE900017E
:1007F00068680021A6FB002306FB013307FB0033DA
:10080000DDE9000100F044FF6421B0FBF1F002904B
:1008100022000023A8FB020108FB031109FB0211BF
:10082000CDE9000168680021A6FB002306FB013327
:1008300007FB0033DDE9000100F02AFF83462200B8
:100840000023A8FB020108FB031109FB0211CDE9FB
:10085000000168680021A6FB002306FB013307FBAB
:100860000033DDE9000100F013FF6421B0FBF1F07B
:100870000AFB10B0C00032306421B0FBF1F0400040
:1008800010F4F870029910EB01100290220000237E
:10089000A8FB020108FB031109FB0211CDE90001CD
:1008A00068680021A6FB002306FB013307FB003329
:1008B000DDE9000100F0ECFE83462000002102008B
:1008C0000B00A8FB020108FB031109FB02116A6877
:1008D000002390469946A6FB082306FB093307FB35
:1008E000083300F0D5FE6421B0FBF1F00AFB10BA2A
:1008F0005FEACA0032306421B0FBF1F111F0070168
:1009000002980918286881609CE0042600275FF09F
:10091000640A5FF019085FF0000922000023A8FBB9
:10092000020108FB031109FB0211CDE9000168680F
:100930000021A6FB002306FB013307FB0033DDE9A2
:10094000000100F0A5FE6421B0FBF1F0029022004E
:100950000023A8FB020108FB031109FB0211CDE9EA
:10096000000168680021A6FB002306FB013307FB9A
:100970000033DDE9000100F08BFE834622000023F6
:10098000A8FB020108FB031109FB0211CDE90001DC
:1009900068680021A6FB002306FB013307FB003338
:1009A000DDE9000100F074FE6421B0FBF1F00AFB08
:1009B00010B0000132306421B0FBF1F010F0F00013
:1009C000029910EB0110029022000023A8FB020103
:1009D00008FB031109FB0211CDE900016868002141
:1009E000A6FB002306FB013307FB0033DDE9000112
:1009F00000F04EFE83462000002102000B00A8FB01
:100A0000020108FB031109FB02116A6800239046EA
:100A10009946A6FB082306FB093307FB083300F0C1
:100A200037FE6421B0FBF1F00AFB10BA5FEA0A104E
:100A300032306421B0FBF1F111F00F010298091876
:100A400028688160BDE8F78FF369FFFF001001405F
:100A50000014014010B5DFF85844DFF85804206056
:100A60004FF4614060600020A0600020E060002042
:100A700020610C2060610020A0610020E061200066
:100A8000FFF782FB002801D000F0FCFC0122DFF818
:100A900028142000FFF719FC10BD10B5DFF81C4426
:100AA000DFF81C0420604FF4614060600020A0600B
:100AB0000020E060002020610C2060610020A06127
:100AC0000020E0612000FFF75FFB002801D000F06C
:100AD000D9FC0122DFF8EC132000FFF7F6FB10BD74
:100AE00010B5DFF8E443DFF8E40320604FF4614021
:100AF00060600020A0600020E060002020610C20E9
:100B000060610020A0610020E0612000FFF73CFB55
:100B1000002801D000F0B6FC0122DFF8B413200059
:100B2000FFF7D3FB10BD10B5DFF8A843DFF8A8032B
:100B300020604FF4614060600020A0600020E06011
:100B4000002020610C2060610020A0610020E06195
:100B50002000FFF719FB002801D000F093FC0122D0
:100B6000DFF878132000FFF7B0FB10BD10B5DFF8F9
:100B70007043DFF8700320604FF461406060002034
:100B8000A0600020E060002020610C206061002057
:100B9000A0610020E0612000FFF7F6FA002801D0F4
:100BA00000F070FC0122DFF840132000FFF78DFBFE
:100BB00010BD10B5DFF83443DFF8340320604FF484
:100BC000614060600020A0600020E06000202061A3
:100BD0000C2060610020A0610020E0612000FFF790
:100BE000D3FA002801D000F04DFC0122DFF80413F5
:100BF0002000FFF76AFB10BD10B586B00400684600
:100C0000142100F05DFE2068DFF8A812884232D17E
:100C100000200590DFF8E002016851F40021016036
:100C2000006810F400200590059800200590DFF87A
:100C3000CC02016851F004010160006810F004006A
:100C4000059005984FF4406000900220019001202B
:100C5000029001200390082004906946DFF8A0026A
:100C600000F032FE00220021342000F0C4FF3420C6
:100C700000F0D2FF1AE120689149884248D1002053
:100C800005909D48016851F480110160006810F4DE
:100C9000801005900598002005909848016851F053
:100CA00004010160016811F004010591059900211A
:100CB0000591016851F008010160006810F008001A
:100CC000059005984FF4805000900220019001207B
:100CD000029001200390082004906946884800F0A3
:100CE000F3FD0420009002200190012002900120D9
:100CF0000390082004906946824800F0E5FD002238
:100D00000021352000F077FF352000F085FFCDE091
:100D100020686E4988422FD1002005907A480168EA
:100D200051F010010160006810F010000590059866
:100D3000002005907148016851F0010101600068D0
:100D400010F00100059005984FF4C060009002205B
:100D50000190002002900120039007200490694632
:100D60006A4800F0B1FD00220021252000F043FF79
:100D7000252000F051FF99E02068574988422ED184
:100D8000002005905C48016851F400310160006862
:100D900010F4003005900598002005905748016830
:100DA00051F001010160006810F001000590059804
:100DB0000C2000900220019000200290012003905E
:100DC000072004906946514800F07EFD0022002172
:100DD000262000F010FF262000F01EFF66E02068AD
:100DE000404988422FD1002005904348016851F4C2
:100DF00080210160006810F4802005900598002093
:100E000005903E48016851F002010160006810F051
:100E10000200059005984FF4406000900220019078
:100E20000020029001200390072004906946384872
:100E300000F04AFD00220021272000F0DCFE2720E0
:100E400000F0EAFE32E02068294988422ED10020D5
:100E500005902D48016851F020010160006810F0F4
:100E6000200005900598002005902448016851F065
:100E700040010160006810F04000059005984FF4B3
:100E800084400090022001900020029001200390F5
:100E90000820049069461F4800F016FD002200213A
:100EA000472000F0A8FE472000F0B6FE06B010BDB7
:100EB00050FC0020004C004099FF002094FC0020D2
:100EC000005000409EFF0020D8FC00200010014090
:100ED0008AFF00201CFD0020004400408FFF0020FE
:100EE00060FD00200048004094FF0020A4FD002089
:100EF00000140140A3FF0020403802403038024077
:100F000000080240000C0240443802400000024049
:100F1000000402400018024001480068704700BF0A
:100F200000FF002070B50400A56DFFF7F5FF060077
:100F300094F83500022806D080206065002084F8EF
:100F4000340001203BE02068006830F01600216882
:100F500008602068406930F0800021684861206C9A
:100F6000002802D1A06C002805D02068006830F06D
:100F70000800216808602068006840084000216877
:100F8000086020680068C0070ED5FFF7C5FF801B0A
:100F90000628F6D320206065002084F83400032062
:100FA00084F8350003200AE03F21E06D8140A9600C
:100FB000002084F83400012084F83500002070BD42
:100FC00090F83510022903D080214165012009E005
:100FD000052180F835100168096849084900006852
:100FE0000160002070477047704730B4002513E05F
:100FF00050F8042BD30744BFA9F101039A18091F25
:10100000042942F8045BFAD213468C0744BF1580CA
:101010009B1CC90748BF1D7050F8041B0029E7D16D
:1010200030BC704780B500F011FE00F043F84FF47B
:10103000FA6000F025FE00F037FE00F0C9FF00F076
:10104000EAFF01F00BF801F0DBF801F057F901F0CD
:10105000B0F901F009FA01F062FA01F0E3FAFFF7E2
:10106000F9FCFFF71AFDFFF73BFDFFF75CFDFFF70B
:101070007DFDFFF79EFD01F0ADFA01F055FD01F099
:10108000D6FF02F04DFA02F0C5FC02F040FF03F07B
:10109000BDF903F06FFD03F06EFD03F0D7FB03F025
:1010A0006BFD03F069FD03F066FD00F043F900F00D
:1010B0005BF9F6E780B592B006A8302100F000FC9D
:1010C00001A8142100F0FCFB00200090DFF844028E
:1010D000016851F080510160006810F0805000906C
:1010E000009800200090DFF83802016851F4804138
:1010F0000160006810F48040009000980120069084
:101100005FF48030079002200C905FF480000D9017
:1011100004200E90A8200F9002201090042011901F
:1011200006A803F0D7FE002801D000F0ABF90F208D
:10113000019002200290002003904FF4A0500490F0
:101140000590052101A800F09FF9002801D000F0CA
:1011500099F913B000BD80B580B2012802D00228F1
:101160002DD02DE01121012004F0A6F8C00704D5F0
:10117000DFF8B011012004F0D1F81121022004F0B1
:101180009BF8800704D5DFF8A011022004F0C6F810
:101190001121032004F090F8400704D5DFF88C11EA
:1011A000032004F0BBF81121042004F085F80007A7
:1011B00004D5DFF87C11042004F0B0F800E0FFE76C
:1011C00001BD80B50168DFF82C22914216D1DFF80D
:1011D00028020188FD2909DADFF820120978DFF8F2
:1011E00020220388D1540188491C01800122DFF8A4
:1011F0000C12DFF81002FFF768F889E00168DFF8E9
:101200000822914216D1DFF804020188FD2909DA8B
:10121000DFF8FC110978DFF8FC210388D15401883C
:10122000491C01800122DFF8E811DFF8EC01FFF72B
:101230004CF86DE00168DFF8E421914215D1DFF848
:10124000E0010188FD2909DADFF8D8110978DFF813
:10125000D8210388D1540188491C01800122DFF87C
:10126000C4112E48FFF731F852E00168DFF8BC21C5
:10127000914216D1DFF8B8010188FD2909DADFF8BB
:10128000B4110978DFF8B0210388D1540188491CD2
:1012900001800122DFF89C11DFF8A001FFF715F8AB
:1012A00036E00168DFF89821914216D1DFF8940109
:1012B0000188FD2909DADFF890110978DFF88C211F
:1012C0000388D1540188491C01800122DFF878117C
:1012D000DFF87C01FEF7F9FF1AE00068DFF874110F
:1012E000884215D1DFF870010188FD2909DADFF89D
:1012F0006C110978DFF868210388D1540188491CF2
:1013000001800122DFF85411DFF85801FEF7DDFFFC
:1013100001BD0000403802407047000060FD002021
:1013200000700040A0F30020A0F40020A0F50020F1
:10133000A0F6002080B504F031F804F0D3F804F0F2
:101340009FFA04F03EFB04F0E3FC04F082FD04F09D
:1013500027FF04F0C6FF05F06BF905F00AFA05F067
:10136000AFFB05F04EFC01BD38B53F4CB4F8F400BE
:1013700001283ED100203D49087050230A220A214D
:101380000A2001F031FC00203949087032230A227A
:101390000A21142001F0A6FE00203649087040F60C
:1013A000B8354FF496730A220A21280002F012F988
:1013B0000020314908704FF496730A220A21280050
:1013C00002F082FB00202D4908704FF496730A2228
:1013D0000A21280002F0F6FD0020294908704FF488
:1013E00096730A220A21280003F06AF80020A4F864
:1013F000F40031BD0010014006FF00208AFF0020EC
:10140000A0E80020D8FC00200044004016FF002087
:101410008FFF0020A0EA00201CFD002000480040B3
:1014200026FF002094FF0020A0EC0020004C00408C
:1014300036FF002099FF0020A0EE002050FC002085
:101440000050004046FF00209EFF0020A0F000203A
:1014500094FC00200014014056FF0020A3FF002050
:10146000A0F20020A4FD002010E1002066FF002073
:1014700067FF002068FF002069FF00206AFF00204E
:101480006BFF002072B6FEE72DE9F04104000E006C
:10149000002C01D1012092E0564D286810F0070081
:1014A000B04207D22E70286810F00700B04201D079
:1014B000012084E02078800716D52078400704D5E5
:1014C0004D48016851F4E05101602078000704D5CF
:1014D0004948016851F46041016047490A6832F0A7
:1014E000F002A06802430A602078C00735D5606822
:1014F000012805D141480068800313D401205EE033
:101500006068022802D06068032805D13B48006863
:10151000800107D4012052E038480068800701D4D8
:1015200001204CE0344F3968890889006068014324
:101530003960FFF7F1FC8046386810F00C006168F4
:10154000B0EB810F09D0FFF7E7FCB0EB080041F2E8
:1015500089318842F0D3032031E0286810F0070079
:10156000864207D22E70286810F00700B04201D0E2
:10157000012024E02078400706D51F490A6832F48C
:10158000E052E06802430A602078000707D51A4855
:10159000016831F46041226951EAC201016000F042
:1015A00037F81749144A1268C2F30312895CC8401D
:1015B000144908601448006805F0CAFC0020BDE822
:1015C000F08110480068704780B5FFF7FAFF0F49B7
:1015D000094A1268C2F38222895CC84002BD80B504
:1015E000FFF7EFFF0949044A1268C2F34232895CEF
:1015F000C84002BD003C02400838024000380240AA
:10160000B88400080400002000000020F4840008D2
:1016100010B500200020002000201948006810F0BC
:101620000C00002804D0042804D0082804D025E0A9
:10163000144824E0144822E0144C226812F03F02BF
:101640002068400209D52068C0F388100E49A1FB2C
:101650000001002300F01CF808E02068C0F38810A7
:101660000849A1FB0001002300F012F82168C1F332
:101670000141491C4900B0FBF1F000E0014810BDF8
:10168000083802400024F40000127A0004380240B6
:10169000BBBBE1B1B2F5803F80F07E80022A1ED94B
:1016A0008C46B1FBF2F102FB11C31B0443EA104369
:1016B000B3FBF2FC02FB1C3380B240EA0343B3FBF2
:1016C000F2F002FB103240EA0C4000237047022A7D
:1016D00005D98446B0FBF2F002FB10C270474AB154
:1016E00005D100F0010249085FEA3000704700228E
:1016F0000023704705F052BC0B00020000210020BF
:101700007047904271EB030CF6D3B3F5803F2FD2B4
:10171000F0B5B3FA83F7B1FA81F4A7F10F0E3D1BD0
:101720005340CEF1200602FA0EF2F3415340B5F1D8
:101730000F0746D80F3C2C444140C4F12006A0407E
:10174000F1414140B1FBF3F603FB1611A2FB064544
:10175000001BA94102D2761E8018594180EA01027D
:1017600021FA0EF362FA0EF200215A403046F0BD23
:1017700030B4B1FBF3FC03FB1C11A2FB0C45001BB6
:10178000A94103D2ACF1010C8018594130BC02468A
:101790000B46604600217047B2F1807F65D3F0B5FB
:1017A000B2FA82F7B1FA81F4C7F10F063D1B22FAB3
:1017B00006F307F1110EF24120355A40B5F10F073B
:1017C000B8D94140C4F12006A040F1414140B1FBED
:1017D000F3FC03FB1C11A2FB0C45001BA94103D227
:1017E000BCF1010C801859410F2F12D30F3FC903D0
:1017F00041EA5041B1FBF3F603FB1611A2FB06458B
:10180000D4EBC030A94102D2761E8018594146EA75
:10181000CC3C07B34140C7F12006B840F1414140FC
:10182000B1FBF3F603FB1611A2FB0645001BA94111
:1018300002D2761E8018594180EA010221FA0EF385
:10184000C7F1200462FA0EF20CFA07F05A402CFAA3
:1018500004F13043F0BD80EA010221FA0EF30021C9
:1018600062FA0EF260465A40F0BD8C46B1FBF2F1CE
:1018700002FB11C31B0243EA1063B3FBF2FC02FB41
:101880001C331B024CEA002043EA1063B3FBF2FC5A
:1018900002FB1C331B024CEA002043EA1063B3FB3B
:1018A000F2FC02FB1C331B024CEA002043EA1063EB
:1018B000B3FBF2FC02FB1C324CEA00200023704711
:1018C000002205F06DBB0000F8B4002200220022C7
:1018D000002337E0082704E0DFF808229042F9D11E
:1018E0000727FFB213F00302D2B2920097403E43A3
:1018F0001A00920845F82260DFF8EC512A68A243EA
:101900004E68F60300D522432A60DFF8E0512A68CA
:10191000A2434E68B60300D522432A60DFF8D051B7
:101920002A68A2434E68F60200D522432A60DFF8F7
:10193000C4512A68A2434E68B60201D5144322005E
:101940002A605B1C102B80F0A780012515FA03F29A
:101950000C6814409442F4D10A7912F00302012A6F
:1019600004D00A7912F00302022A16D186680327EE
:101970001A00D2B252009740BE43CF681A00D2B2CA
:10198000520097403E43866042689D40AA434D689E
:10199000C5F300159D402A4342600A7912F0030204
:1019A000032A0DD0C56803261A00D2B25200964011
:1019B000B5438E681A00D2B2520096403543C560D6
:1019C0000A7912F00302022A17D11A00D20800EB9A
:1019D0008202156A0F2613F00702D2B292009640D7
:1019E000B5430E6913F00702D2B292009640354318
:1019F0001A00D20800EB82021562056803261A005D
:101A0000D2B252009640B5430E7916F003061A0082
:101A1000D2B252009640354305604A68D20090D554
:101A200000220092344A156855F48045156012680A
:101A300012F480420092009A304D1A00920855F834
:101A400022600F2713F00302D2B292009740BE43E8
:101A50002B4A904201D1002743E72A4A904201D104
:101A600001273EE7284A904201D1022739E7274A59
:101A7000904201D1032734E7254A904201D104273F
:101A80002FE7244A904201D105272AE7224A9042B3
:101A90007FF422AF062724E7F1BC7047D2B2002AB8
:101AA00002D089B2816102E089B209048161704784
:101AB00042690B009BB2134089B2914351EA034142
:101AC0008161704780B515490A6803009BB21A42CC
:101AD00005D0020092B20A6080B2FFF73CFB01BD64
:101AE00000000000001C0240003C0140043C01409A
:101AF000083C01400C3C0140443802400838014099
:101B0000000002400004024000080240000C0240B5
:101B1000001002400014024000180240143C014032
:101B200010F00700414B1A684FF6FF010A40404988
:101B300051EA00210A431A6070473C480068C0F32C
:101B400002207047010049B2002908D4012210F098
:101B50001F018A40374940B2400941F820207047B0
:101B6000020052B2002A04D40901334A40B211548F
:101B700007E00901314A40B210F00F00104400F8AC
:101B8000041C704710B410F00700D0F10703052BB8
:101B900001D3042301E0D0F10703041D072C01D277
:101BA000002000E0C01E012414FA03F35B1E19405C
:101BB000814014FA00F0401E1040084310BC7047EA
:101BC00080B5411EB1F1807F01D301200EE0401E9F
:101BD0001B4908600F215FF0FF30FFF7C1FF0020B5
:101BE00018490860072018490860002002BD80B528
:101BF000FFF796FF01BD70B504000D001600002030
:101C0000FFF79BFF32002900FFF7BCFF0100200017
:101C100040B2FFF7A5FF70BD80B540B2FFF792FF5D
:101C200001BD80B5FFF7CCFF02BD00000CED00E068
:101C30000000FA0500E100E000E400E018ED00E03B
:101C400014E000E018E000E010E000E080B50B4890
:101C5000016851F400710160016851F48061016014
:101C6000016851F4807101600320FFF7C0FF00207C
:101C700005F06EF905F0AEF9002002BD003C02400F
:101C800038B50400FFF748F9050014F1010F02D040
:101C9000044800782418FFF73FF9401BA042FAD30C
:101CA00031BD00BF0E0000202DE9F84F86B0684618
:101CB0001421FFF705FE00200590BC48016851F093
:101CC00010010160016811F01001059105990021D2
:101CD0000591016851F004010160016811F00401EF
:101CE0000591059900210591016851F020010160DD
:101CF000016811F020010591059900210591016805
:101D000051F080010160016811F080010591059991
:101D100000210591016851F001010160016811F095
:101D200001010591059900210591016851F0020119
:101D30000160016811F002010591059900210591EA
:101D4000016851F040010160016811F04001059106
:101D5000059900210591016851F0080101600068B2
:101D600010F00800059005984FF2100B904C0122DE
:101D700059462000FFF792FE8E4D012242F23F01AC
:101D80002800FFF78BFE8C4E01224CF23B113000F5
:101D9000FFF784FE00224FF4E0712800FFF77EFE7B
:101DA000864F01224FF460713800FFF777FEDFF8AD
:101DB000108201224FF419414046FFF76FFEDFF811
:101DC000049201224FF460714846FFF767FEDFF886
:101DD000F8A1012203215046FFF760FE4FF6DC50C8
:101DE0000090002001900220029069465046FFF7C3
:101DF0006BFD0F20009000200190022002906946A8
:101E00002000FFF761FDCDF800B001200190012016
:101E100002900020039069462000FFF755FD012045
:101E200000906A4801900020029069463800FFF750
:101E30004BFD302000900020019002200290694666
:101E40003800FFF741FD01200090002001900220A2
:101E5000029069464846FFF737FD4FF40060009056
:101E6000002001900120029069462000FFF72CFD20
:101E70003F2000900120019001200290002003905B
:101E800069462800FFF720FD4FF480700090012084
:101E90000190012002900220039069463000FFF774
:101EA00013FD4FF472500090002001900220029028
:101EB00069463000FFF708FD4CF23B00009001201E
:101EC0000190012002900020039069463000FFF746
:101ED000FBFC4FF4A07000900120019000200290C4
:101EE0000020039069462800FFF7EEFC8020009058
:101EF00011200190002002900020039069462800E4
:101F0000FFF7E2FC4FF4607400940120019001207F
:101F100002900020039069463800FFF7D5FC4FF48B
:101F200019400090012001900120029000200390B0
:101F300069464046FFF7C8FC4FF41C400090002063
:101F400001900220029069462800FFF7BDFC4FF483
:101F50000050009001200190012002900320039086
:101F600069462800FFF7B0FC009401200190012091
:101F700002900020039069464846FFF7A5FC032025
:101F800000900120019001200290002003906946FA
:101F90005046FFF799FC002200210620FFF72BFE98
:101FA0000620FFF739FE07B0BDE8F08F3038024059
:101FB0000014024000180240000C024000080240D9
:101FC0000000024000040240001002400000111016
:101FD00080B58048804901604FF4827141600021E2
:101FE00081600021C16000210161002141615FF435
:101FF000802181611821C1610021016200214162BB
:10200000002181620A21C16205F006F8002801D092
:10201000FFF738FA01BD80B57048714901604FF48F
:1020200082714160002181600021C1600021016155
:10203000002141615FF4802181610021C1610021A3
:10204000016200214162002181620A21C16204F023
:10205000E3FF002801D0FFF715FA01BD80B5614804
:10206000614901604FF4827141600021816000216B
:10207000C16000210161002141614FF40071816163
:102080000021C161002101620021416200218162C1
:102090000A21C16204F0C0FF002801D0FFF7F2F965
:1020A00001BD10B586B0040068461421FFF708FC96
:1020B00020684949884226D1002005904B48016894
:1020C00051F480510160006810F48050059005982B
:1020D000002005904648016851F001010160006848
:1020E00010F0010005900598F0200090022001906A
:1020F00000200290032003900520049069463D488B
:10210000FFF7E2FB55E020683549884227D10020DF
:1021100005903948016851F480410160006810F46D
:10212000804005900598002005903148016851F0E5
:1021300002010160006810F00200059005984FF45C
:102140007040009002200190002002900220039035
:102150000520049069462948FFF7B6FB29E020686E
:102160002149884225D1002005902348016851F477
:1021700000410160006810F40040059005980020BF
:1021800005901B48016851F002010160006810F0E1
:102190000200059005983820009002200190002050
:1021A0000290032003900620049069461348FFF72D
:1021B0008BFB06B010BD01B582B04FF47A70009071
:1021C000012301AA02A9034804F08DFF9DF8040031
:1021D0000EBD0000A0F7002000300140F8F70020FD
:1021E0000038004050F80020003C004044380240D5
:1021F00030380240000002404038024000040240F3
:1022000018B595B011A81021FFF75AFBDFF8F407B5
:10221000D0E90023CDE900230AA81C21FFF750FBD9
:1022200002A82021FFF74CFBDFF8DC47DFF8DC07D2
:102230002060A72060600020A06040F2E730E060EE
:1022400000202061002060618020A061200005F056
:10225000F3F8002801D0FFF715F94FF480501190E2
:1022600011A9200005F0D3F9002801D0FFF70AF9E1
:10227000200005F05DF9002801D0FFF703F92020C8
:102280000090002001906946200005F0B9FB00286D
:1022900001D0FFF7F7F830200A9000200B900220C1
:1022A0000C9000200D9000200E9000200F90002038
:1022B000109000220AA9200005F080F9002801D022
:1022C000FFF7E0F800200290002003900020049027
:1022D00000200590002006904FF400500790002049
:1022E000099002A9200005F0DFFB002801D0FFF7CC
:1022F000C9F8200000F0C3FA16B010BD18B58DB0B3
:1023000009A81021FFF7DCFADFF80407D0E9002361
:10231000CDE9002302A81C21FFF7D2FADFF8F4462A
:102320005FF080402060532060600020A06040F299
:10233000E730E060002020610020A061200005F06F
:102340007BF8002801D0FFF79DF84FF480500990EA
:1023500009A9200005F05BF9002801D0FFF792F8E9
:10236000200005F0E5F8002801D0FFF78BF80020E9
:102370000090002001906946200005F041FB0028F4
:1023800001D0FFF77FF83020029000200390022058
:10239000049000200690042202A9200005F00EF906
:1023A000002801D0FFF76EF8200000F068FA0EB0A8
:1023B00010BD18B58DB009A81021FFF781FADFF81C
:1023C0005806D0E90023CDE9002302A81C21FFF71D
:1023D00077FADFF84846DFF848062060532060604F
:1023E0000020A06040F2E730E06000202061002083
:1023F000A061200005F020F8002801D0FFF742F886
:102400004FF48050099009A9200005F000F9002838
:1024100001D0FFF737F8200005F08AF8002801D036
:10242000FFF730F80020009000200190694620005E
:1024300005F0E6FA002801D0FFF724F830200290DA
:102440000020039002200490002006900C2202A994
:10245000200005F0B3F8002801D0FFF713F82000A2
:1024600000F00DFA0EB010BD18B58DB009A81021FE
:10247000FFF726FADFF8AC05D0E90023CDE9002309
:1024800002A81C21FFF71CFADFF89C45DFF89C0529
:102490002060532060600020A06040F2E730E060E0
:1024A000002020610020A061200004F0C5FF00286A
:1024B00001D0FEF7E7FF4FF48050099009A92000F2
:1024C00005F0A5F8002801D0FEF7DCFF200005F09C
:1024D0002FF8002801D0FEF7D5FF00200090002043
:1024E00001906946200005F08BFA002801D0FEF724
:1024F000C9FF3020029000200390022004900020A9
:102500000690002202A9200005F058F8002801D00A
:10251000FEF7B8FF200000F0B2F90EB010BD18B5FC
:102520008DB009A81021FFF7CBF9DFF80405D0E939
:102530000023CDE9002302A81C21FFF7C1F9DFF831
:10254000F444DFF8F4042060532060600020A060B1
:1025500040F2E730E060002020610020A061200010
:1025600004F06AFF002801D0FEF78CFF4FF4805082
:10257000099009A9200005F04AF8002801D0FEF7CB
:1025800081FF200004F0D4FF002801D0FEF77AFF7D
:1025900000200090002001906946200005F030FAEC
:1025A000002801D0FEF76EFF30200290002003903B
:1025B0000220049000200690002202A9200004F0CE
:1025C000FDFF002801D0FEF75DFF200000F057F965
:1025D0000EB010BD1CB5DFF86404D0E90023CDE9CE
:1025E0000023DFF85C44DFF85C0420605320606067
:1025F0000020A0600120E0600020A061200004F025
:102600001BFF002801D0FEF73DFF002000900020B6
:1026100001906946200005F0F3F9002801D0FEF78B
:1026200031FF13BD18B595B011A81021FFF748F977
:10263000DFF81404D0E90023CDE900230AA81C2107
:10264000FFF73EF902A82021FFF73AF9DFF8FC4333
:10265000DFF8FC032060A72060600020A06040F24B
:10266000E730E06000202061002060610020A06170
:10267000200004F0E1FE002801D0FEF703FF4FF434
:102680008050119011A9200004F0C1FF002801D052
:10269000FEF7F8FE200004F04BFF002801D0FEF703
:1026A000F1FE00200090002001906946200005F016
:1026B000A7F9002801D0FEF7E5FE30200A9000209F
:1026C0000B9002200C9000200D9000200E90002016
:1026D0000F900020109000220AA9200004F06EFF45
:1026E000002801D0FEF7CEFE0020029000200390CB
:1026F0000020049000200590002006904FF4005028
:1027000007900020099002A9200005F0CDF90028CB
:1027100001D0FEF7B7FE200000F0B1F816B010BDF2
:1027200080B50168DFF8E422914215D100200090C5
:10273000DFF82003016851F001010160006810F02A
:10274000010000900098002200211B20FFF753FA9F
:102750001B20FFF761FA91E00168B1F1804F15D1BC
:1027600000200090DFF8F002016851F001010160E3
:10277000006810F0010000900098002200211C2049
:10278000FFF739FA1C20FFF747FA77E00168DFF816
:102790009022914215D100200090DFF8BC02016820
:1027A00051F002010160006810F0020000900098F2
:1027B000002200211D20FFF71EFA1D20FFF72CFA32
:1027C0005CE00168DFF86422914215D1002000909E
:1027D000DFF88402016851F004010160006810F024
:1027E000040000900098002200211E20FFF703FA49
:1027F0001E20FFF711FA41E001688F4A914214D17F
:10280000002000909448016851F0080101600068C0
:1028100010F0080000900098002200213220FFF7FD
:10282000EAF93220FFF7F8F928E00168854A914279
:102830000CD1002000908848016851F0200101600F
:10284000006810F020000090009817E000688049B0
:10285000884213D1002000907E48016851F00201A7
:102860000160006810F00200009000980022002132
:102870002E20FFF7C0F92E20FFF7CEF901BD10B5CD
:1028800086B0040068461421FFF71AF820685F49F3
:1028900088421BD1002005907048016851F010015A
:1028A0000160006810F01000059005984FF400706A
:1028B000009002200190012002900120039001204D
:1028C000049069466648FEF7FFFF99E02068B0F182
:1028D000804F1AD1002005906048016851F0010135
:1028E0000160006810F0010005900598022000903A
:1028F0000220019001200290012003900120049009
:1029000069465848FEF7E0FF7AE02068444988426B
:102910001AD1002005905148016851F00201016070
:10292000006810F002000590059802200090022037
:10293000019001200290012003900220049069463A
:102940004948FEF7C1FF5BE02068384988421AD148
:10295000002005904148016851F0020101600068C3
:1029600010F0020005900598402000900220019090
:1029700001200290012003900220049069463A4809
:10298000FEF7A2FF3CE020682B4988421AD10020C4
:1029900005903248016851F001010160006810F0B3
:1029A0000100059005980120009002200190002070
:1029B0000290002003900220049069462948FEF707
:1029C00083FF1DE020682249884219D1002005902C
:1029D0002248016851F004010160006810F0040011
:1029E000059005984020009002200190012002905F
:1029F000012003900320049069461C48FEF764FF01
:102A000006B010BDFC84000858FA00200000014008
:102A100004850008A0FA00200C850008E8FA0020D0
:102A2000000400401485000830FB0020000800402E
:102A30001C85000878FB0020000C0040248500085D
:102A4000C0FB0020001400402C85000808FC00207A
:102A5000000401404438024040380240303802400F
:102A60000010024000000240000402400008024042
:102A700038B586B000200090DFF8B004016851F04E
:102A800004010160016811F0040100910099002126
:102A90000091016851F008010160016811F008011E
:102AA0000091009900210091016851F00801016036
:102AB000006810F0080000900098022001900220A9
:102AC0000290022004900120059001A9DFF8600423
:102AD000FEF7FAFE022001900120029002200490ED
:102AE00000200590DFF84C4401A92000FEF7ECFE21
:102AF0004FF4007001900120029002200490002009
:102B00000590DFF8705401A92800FEF7DDFE0022D1
:102B100002212000FEF7C2FF01224FF400712800BD
:102B2000FEF7BCFF07B030BD38B58CB00020009078
:102B3000DFF80404016851F001010160006810F041
:102B4000010000900098FFF793FFDFF810445FF05A
:102B5000804020600F2060600020A0604FF6FF756D
:102B6000E56000202061200004F066FC4FF48050F6
:102B7000089008A9200004F04AFD30200190029539
:102B80000220039008200490002005900020069069
:102B900000200790042201A9200004F00FFD00226C
:102BA00004215FF0804004F017FF002200211C2068
:102BB000FFF721F81C20FFF72FF87FF004002168B1
:102BC00008617FF00200216808612068C06850F049
:102BD00004002168C8602068406C50F400402168FF
:102BE00048640DB030BD00002DE9F84F2DED048B89
:102BF00082B0894615009A46DFF8408398F80010A5
:102C0000002940F019810400002C09D50120CC498D
:102C1000487001220221C748FEF740FF644207E0E6
:102C20000020C749487000220221C248FEF736FF43
:102C3000012C09D1C2485FF0FF31416102210170CE
:102C40004FF47A714160D8E0002C00F0D6809FEDFF
:102C50007D8ABC4EBA4F3068000900EE100AB8EE0B
:102C6000400A20EE080A00EE90AAF8EE600A80EE14
:102C7000200ABDEEC00A87ED040A9FEDB39B3068C1
:102C8000000904F03FFF53EC192B04F049FF002228
:102C9000B14B05F017F805F039F905F06BF9CDE9FE
:102CA000000100EE109AB8EE400ADFEDAA0A80EEAD
:102CB000800A10EE100A05F05DF941EC100B05F0EA
:102CC0007DF951EC100BDDE9002304F029FF00220F
:102CD000A14B04F0F7FF05F0F3F978600AFB0AF066
:102CE00000EE100AB8EE400A00EE909AF8EE600A84
:102CF0009FED971A60EE810AB2EE041AC0EE810AC7
:102D000080EE200ABCEEC00A8DED010A0198002871
:102D100001D10120019005FB04F015EB0901B0FB86
:102D2000F1F000900098002801D101200090019856
:102D30000099884203D30098001BF86006E00198D0
:102D400009FB00F0B0FBF5F04042F860F86800289D
:102D500002D15FF0FF30F8603068000900EE100A21
:102D6000B8EE400A20EE080A00EE90AAF8EE600ADB
:102D700080EE200ABDEEC00A87ED040A3068000923
:102D800004F0C0FE53EC192B04F0CAFE0022724B73
:102D900004F098FF05F0BAF805F0ECF882468B468F
:102DA00000EE109AB8EE400ADFED6A0A80EE800A63
:102DB00010EE100A05F0DEF841EC100B05F0FEF8FD
:102DC00051EC100B52465B4604F0AAFE0022624B07
:102DD00004F078FF05F074F97860F8680419BC60B5
:102DE00038697968884204DB386978600320387074
:102DF00001E00120387000207861012088F800008F
:102E0000564C2068406AADF80000BDF800004C49FF
:102E1000496811FA80F021688863012204215FF07B
:102E2000804004F0D9FD200004F03DFB00224FF467
:102E300000715048FEF732FE02B0BDEC048BBDE8D5
:102E4000F18F000072D9A03B38B50020ADF800002A
:102E5000424C2068C068400766D57FF004052068B2
:102E600005613F480168491C01600068C0075BD4E8
:102E70003C490878002849D002282BD002D30328E7
:102E80001ED051E03A48384A136830F813302568AC
:102E9000EB62136830F81330E360136830F8130006
:102EA00080B2400880B2236898631068401C1060AC
:102EB000106840F6B832904201DB0320087033E01E
:102EC0002A480268521E02600068002801D10220D0
:102ED000087029E0244A1068401E106024481368D6
:102EE00030F813302568EB62136830F81330E36074
:102EF000136830F8130080B2400880B223689863EA
:102F00001068012801DA002008700DE00022042179
:102F10005FF0804004F060FD2068056101224FF4FD
:102F200000711448FEF7BAFD31BD00003038024090
:102F300000000240001002404038024066FF0020BE
:102F4000E8FD0020040000206F1283C0CAA1E53F05
:102F5000CF0FC93D7059C44200002440A8F800209A
:102F600084FE00200800002080FE0020E8FE0020F3
:102F7000705400200004024038B586B00020009054
:102F8000DFF8A004016851F004010160016811F04C
:102F900004010091009900210091016851F008019D
:102FA0000160016811F00801009100990021009171
:102FB000016851F008010160006810F008000090FD
:102FC00000984020019002200290022004900220EC
:102FD0000590DFF8544401A92000FEF775FC4FF47A
:102FE0008070019001200290022004900020059042
:102FF00001A92000FEF768FC10200190012002903A
:103000000220049000200590DFF8605401A92800F8
:10301000FEF75AFC00224FF480712000FEF73EFDBF
:10302000012210212800FEF739FD07B030BD70B530
:103030008CB000200090DFF8F403016851F0040127
:103040000160006810F0040000900098FFF794FF02
:10305000DFF8DC43DFF8FC5325600F2060600020C0
:10306000A0604FF6FF76E66000202061200004F0AB
:10307000E3F94FF48050089008A9200004F0C7FA43
:103080003020019002960220039008200490002036
:1030900005900020069000200790002201A9200042
:1030A00004F08CFA00220021280004F095FC002294
:1030B00000211E20FEF79FFD1E20FEF7ADFD7FF0D4
:1030C0000200216808612068C06850F00200216891
:1030D000C8602068406C50F40040216848640CB01F
:1030E00070BD00002DE9F84F2DED048B82B08946AC
:1030F00015009A46DFF83C8398F80010002940F04C
:1031000019810400002C0AD50120CB494870012206
:103110004FF48071C448FEF7C1FC644208E000200F
:10312000C549487000224FF48071BF48FEF7B6FCD5
:10313000012C09D1C0485FF0FF31416102210170CB
:103140004FF47A714160D8E0002C00F0D6809FEDFA
:103150007C8ABA4EB84F3068000900EE100AB8EE0B
:10316000400A20EE080A00EE90AAF8EE600A80EE0F
:10317000200ABDEEC00A87ED040A9FEDB19B3068BE
:10318000000904F0BFFC53EC192B04F0C9FC002229
:10319000AF4B04F097FD04F0B9FE04F0EBFECDE96F
:1031A000000100EE109AB8EE400ADFEDA80A80EEAA
:1031B000800A10EE100A04F0DDFE41EC100B04F062
:1031C000FDFE51EC100BDDE9002304F0A9FC002208
:1031D0009F4B04F077FD04F073FF78600AFB0AF060
:1031E00000EE100AB8EE400A00EE909AF8EE600A7F
:1031F0009FED951A60EE810AB2EE041AC0EE810AC4
:1032000080EE200ABCEEC00A8DED010A019800286C
:1032100001D10120019005FB04F015EB0901B0FB81
:10322000F1F000900098002801D101200090019851
:103230000099884203D30098001BF86006E00198CB
:1032400009FB00F0B0FBF5F04042F860F868002898
:1032500002D15FF0FF30F8603068000900EE100A1C
:10326000B8EE400A20EE080A00EE90AAF8EE600AD6
:1032700080EE200ABDEEC00A87ED040A306800091E
:1032800004F040FC53EC192B04F04AFC0022704B74
:1032900004F018FD04F03AFE04F06CFE82468B4602
:1032A00000EE109AB8EE400ADFED680A80EE800A60
:1032B00010EE100A04F05EFE41EC100B04F07EFEEE
:1032C00051EC100B52465B4604F02AFC0022604B86
:1032D00004F0F8FC04F0F4FE7860F8680419BC60AF
:1032E00038697968884204DB38697860032038706F
:1032F00001E00120387000207861012088F800008A
:103300004B4C2068406AADF80000BDF800004A4907
:10331000496811FA80F021684863012200214D4874
:1033200004F05AFB200004F0BEF8002210214F48A0
:10333000FEF7B4FB02B0BDEC048BBDE8F18F0000DA
:1033400072D9A03B38B50020ADF80000384C206899
:10335000C068800764D57FF00205206805613E489B
:103360000168491C01600068C00759D43B490878CE
:10337000002849D002282BD002D303281ED04FE0CA
:10338000394A3748036832F813302568EB6203681E
:1033900032F81330E360036832F81320022392FB03
:1033A000F3F223685A630268521C0260006840F618
:1033B000B832904201DB0320087031E029480268EE
:1033C000521E02600068002801D10220087027E028
:1033D00023480268521E0260234A036832F8133001
:1033E0002568EB62036832F81330E360036832F853
:1033F0001320022392FBF3F223685A63006801282A
:1034000001DA002008700BE000220021114804F0CE
:10341000E3FA20680561012210211448FEF73EFB03
:1034200031BD000030380240000402404038024004
:10343000F0F8002067FF002000FE002004000020BC
:103440006F1283C0CAA1E53FCF0FC93D7059C44276
:1034500000002440000800408CFE002009000020ED
:1034600088FE0020ECFE0020E06B002000140240EB
:1034700010B586B000200090DFF89404016851F088
:1034800004010160016811F004010091009900211C
:103490000091016851F008010160016811F0080114
:1034A0000091009900210091016851F0080101602C
:1034B000006810F008000090009840200190022061
:1034C0000290022004900320059001A9DFF8440433
:1034D000FEF7FAF9202001900120029002200490CA
:1034E00000200590DFF8704401A92000FEF7ECF9F8
:1034F00010200190012002900220049000200590ED
:1035000001A92000FEF7E0F9002220212000FEF7AB
:10351000C5FA012210212000FEF7C0FA06B010BD46
:1035200070B58CB000200090DFF8EC03016851F01A
:1035300002010160006810F0020000900098FFF79F
:1035400097FFDFF8D843DFF8F85325600F2060605D
:103550000020A0604FF6FF76E6600020206120008A
:1035600003F06AFF4FF48050089008A9200004F08F
:103570004EF830200190029602200390082004901B
:10358000002005900020069000200790002201A94D
:10359000200004F013F800220021280004F01CFA97
:1035A000002200212E20FEF726FB2E20FEF734FB02
:1035B0007FF00200216808612068C06850F00200B6
:1035C0002168C8602068406C50F40040216848645D
:1035D0000CB070BD2DE9F84F2DED048B82B08946FB
:1035E00015009A46DFF8388398F80010002940F05B
:1035F00017810400002C09D50120CA494870012216
:103600002021D548FEF74AFA644207E00020C54968
:10361000487000222021D048FEF740FA012C09D141
:10362000C0485FF0FF314161022101704FF47A71AF
:103630004160D8E0002C00F0D6809FED7C8ABA4E25
:10364000B84F3068000900EE100AB8EE400A20EECC
:10365000080A00EE90AAF8EE600A80EE200ABDEE9D
:10366000C00A87ED040A9FEDB19B3068000904F0A1
:1036700049FA53EC192B04F053FA0022AF4B04F033
:1036800021FB04F043FC04F075FCCDE9000100EEE1
:10369000109AB8EE400ADFEDA80A80EE800A10EE1C
:1036A000100A04F067FC41EC100B04F087FC51ECAD
:1036B000100BDDE9002304F033FA00229F4B04F0E5
:1036C00001FB04F0FDFC78600AFB0AF000EE100A32
:1036D000B8EE400A00EE909AF8EE600A9FED951A57
:1036E00060EE810AB2EE041AC0EE810A80EE200A72
:1036F000BCEEC00A8DED010A0198002801D101201D
:10370000019005FB04F015EB0901B0FBF1F000900E
:103710000098002801D1012000900198009988426A
:1037200003D30098001BF86006E0019809FB00F045
:10373000B0FBF5F04042F860F868002802D15FF075
:10374000FF30F8603068000900EE100AB8EE400A59
:1037500020EE080A00EE90AAF8EE600A80EE200A39
:10376000BDEEC00A87ED040A3068000904F0CAF90A
:1037700053EC192B04F0D4F90022704B04F0A2FA98
:1037800004F0C4FB04F0F6FB82468B4600EE109A70
:10379000B8EE400ADFED680A80EE800A10EE100AEB
:1037A00004F0E8FB41EC100B04F008FC51EC100BAA
:1037B00052465B4604F0B4F90022604B04F082FAF2
:1037C00004F07EFC7860F8680419BC603869796898
:1037D000884204DB386978600320387001E00120FA
:1037E000387000207861012088F800004B4C206878
:1037F000406AADF80000BDF800004A49496811FA76
:1038000080F021684863012200214D4804F0E4F86B
:10381000200003F048FE002210214F48FEF73EF939
:1038200002B0BDEC048BBDE8F18F000072D9A03B63
:1038300038B50020ADF80000384C2068C06880071B
:1038400064D57FF00205206805613E480168491C87
:1038500001600068C00759D43B490878002849D066
:1038600002282BD002D303281ED04FE0394A374814
:10387000036832F813302568EB62036832F81330BE
:10388000E360036832F81320022392FBF3F223680B
:103890005A630268521C0260006840F6B8329042D7
:1038A00001DB0320087031E029480268521E0260E3
:1038B0000068002801D10220087027E02348026830
:1038C000521E0260234A036832F813302568EB6207
:1038D000036832F81330E360036832F813200223E0
:1038E00092FBF3F223685A630068012801DA002092
:1038F00008700BE000220021114804F06DF82068E8
:103900000561012210211448FEF7C8F831BD0000FE
:1039100030380240000802404438024038F90020A4
:1039200068FF002018FE0020040000206F1283C0F2
:10393000CAA1E53FCF0FC93D7059C44200002440E1
:103940000004014094FE00200A00002090FE0020A8
:10395000F0FE0020508300200018024010B586B011
:1039600000200090DFF8A004016851F0040101601C
:10397000016811F004010091009900210091016893
:1039800051F008010160016811F0080100910099EF
:1039900000210091016851F008010160006810F0F9
:1039A000080000900098022001900220029002205E
:1039B00004900220059001A9DFF85004FDF784FF70
:1039C0004FF48050019001200290022004900020CA
:1039D0000590DFF87C4401A92000FDF775FF4FF446
:1039E00000500190012002900220049000200590D8
:1039F00001A92000FDF768FF00224FF4805120004C
:103A0000FEF74CF801224FF400512000FEF746F873
:103A100006B010BD70B58CB000200090DFF8F00348
:103A2000016851F002010160006810F0020000908E
:103A30000098FFF793FFDFF8DC43DFF8FC532560C5
:103A40000F2060600020A0604FF6FF76E660002047
:103A50002061200003F0F0FC4FF48050089008A98A
:103A6000200003F0D4FD3020019002960220039044
:103A70000820049000200590002006900020079068
:103A80000C2201A9200003F099FD00220C2128003E
:103A900003F0A2FF002200211D20FEF7ACF81D203C
:103AA000FEF7BAF87FF01000216808612068C0684E
:103AB00050F010002168C8602068406C50F400404D
:103AC000216848640CB070BD2DE9F84F2DED048BD2
:103AD00082B0894615009A46DFF83C8398F80010BA
:103AE000002940F01A810400002C0AD50120CB499E
:103AF000487001224FF48051D548FDF7CFFF644252
:103B000008E00020C549487000224FF48051D04899
:103B1000FDF7C4FF012C09D1C0485FF0FF314161BE
:103B2000022101704FF47A714160D8E0002C00F05E
:103B3000D6809FED7C8ABA4EB84F3068000900EEFF
:103B4000100AB8EE400A20EE080A00EE90AAF8EE3D
:103B5000600A80EE200ABDEEC00A87ED040A9FEDE0
:103B6000B19B3068000903F0CDFF53EC192B03F033
:103B7000D7FF0022AF4B04F0A5F804F0C7F904F01A
:103B8000F9F9CDE9000100EE109AB8EE400ADFED38
:103B9000A80A80EE800A10EE100A04F0EBF941EC5E
:103BA000100B04F00BFA51EC100BDDE9002303F0CD
:103BB000B7FF00229F4B04F085F804F081FA78608B
:103BC0000AFB0AF000EE100AB8EE400A00EE909AE6
:103BD000F8EE600A9FED951A60EE810AB2EE041AC3
:103BE000C0EE810A80EE200ABCEEC00A8DED010A0B
:103BF0000198002801D10120019005FB04F015EB8C
:103C00000901B0FBF1F000900098002801D10120DB
:103C1000009001980099884203D30098001BF86037
:103C200006E0019809FB00F0B0FBF5F04042F860B7
:103C3000F868002802D15FF0FF30F86030680009B2
:103C400000EE100AB8EE400A20EE080A00EE90AA34
:103C5000F8EE600A80EE200ABDEEC00A87ED040A85
:103C60003068000903F04EFF53EC192B03F058FFA6
:103C70000022704B04F026F804F048F904F07AF9B9
:103C800082468B4600EE109AB8EE400ADFED680AD5
:103C900080EE800A10EE100A04F06CF941EC100B73
:103CA00004F08CF951EC100B52465B4603F038FFE0
:103CB0000022604B04F006F804F002FA7860F8681D
:103CC0000419BC6038697968884204DB3869786017
:103CD0000320387001E00120387000207861012055
:103CE00088F800004B4C2068406AADF80000BDF831
:103CF00000004A49496811FA80F0216808640122ED
:103D00000C214D4803F068FE200003F0CCFB00229C
:103D10004FF400514E48FDF7C1FE02B0BDEC048BDC
:103D2000BDE8F18F72D9A03B38B50020ADF8000096
:103D3000384C2068C068C00665D57FF01005206843
:103D400005613E480168491C01600068C0075AD4FB
:103D50003B490878002849D002282BD002D30328F9
:103D60001ED050E0394A3748036832F813302568CE
:103D7000EB62036832F81330E360036832F8132013
:103D8000022392FBF3F223681A640268521C026059
:103D9000006840F6B832904201DB0320087032E040
:103DA00029480268521E02600068002801D10220E2
:103DB000087028E023480268521E0260234A036804
:103DC00032F813302568EB62036832F81330E36091
:103DD000036832F81320022392FBF3F223681A647B
:103DE0000068012801DA002008700CE000220C2194
:103DF000114803F0F1FD2068056101224FF40051E4
:103E00001348FDF74BFE31BD30380240000402403C
:103E10004038024080F9002069FF002030FE002079
:103E2000040000206F1283C0CAA1E53FCF0FC93D37
:103E30007059C44200002440000400409CFE002051
:103E40000B00002098FE0020F4FE0020C09A002005
:103E50000014024038B586B000200090DFF8A404BA
:103E6000016851F004010160016811F00401009142
:103E7000009900210091016851F00801016001687A
:103E800011F008010091009900210091016851F0A2
:103E900008010160006810F00800009000984FF4DD
:103EA00000700190022002900220049001200590F1
:103EB00001A9DFF85404FDF707FD4FF4004001901D
:103EC000012002900220049000200590DFF83C447D
:103ED00001A92000FDF7F8FC0120019001200290CB
:103EE0000220049000200590DFF8645401A9280006
:103EF000FDF7EAFC00224FF400412000FDF7CEFD63
:103F0000012201212800FDF7C9FD07B030BD70B5C1
:103F10008CB000200090DFF8F803016851F0010137
:103F20000160006810F0010000900098FFF792FF18
:103F3000DFF8E043DFF8005425600F2060600020C8
:103F4000A0604FF6FF76E66000202061200003F0BD
:103F500073FA4FF48050089008A9200003F057FB33
:103F60003020019002960220039008200490002047
:103F700005900020069000200790002201A9200053
:103F800003F01CFB00220021280003F025FD002285
:103F900000211B20FDF72FFE1B20FDF73DFE7FF0CB
:103FA0000200216808612068C06850F002002168A2
:103FB000C8602068406C50F40040216848640CB030
:103FC00070BD00002DE9F84F2DED048B82B08946BD
:103FD00015009A46DFF8408398F80010002940F059
:103FE00019810400002C0AD50120CC494870012217
:103FF0004FF40041C548FDF751FD644208E0002040
:10400000C649487000224FF40041C048FDF746FD04
:10401000012C09D1C1485FF0FF31416102210170DB
:104020004FF47A714160D8E0002C00F0D6809FED0B
:104030007C8ABB4EB94F3068000900EE100AB8EE1A
:10404000400A20EE080A00EE90AAF8EE600A80EE20
:10405000200ABDEEC00A87ED040A9FEDB29B3068CE
:10406000000903F04FFD53EC192B03F059FD00221A
:10407000B04B03F027FE03F049FF03F07BFFCDE9CF
:10408000000100EE109AB8EE400ADFEDA90A80EEBA
:10409000800A10EE100A03F06DFF41EC100B03F0E4
:1040A0008DFF51EC100BDDE9002303F039FD0022F8
:1040B000A04B03F007FE04F003F878600AFB0AF057
:1040C00000EE100AB8EE400A00EE909AF8EE600A90
:1040D0009FED961A60EE810AB2EE041AC0EE810AD4
:1040E00080EE200ABCEEC00A8DED010A019800287E
:1040F00001D10120019005FB04F015EB0901B0FB93
:10410000F1F000900098002801D101200090019862
:104110000099884203D30098001BF86006E00198DC
:1041200009FB00F0B0FBF5F04042F860F8680028A9
:1041300002D15FF0FF30F8603068000900EE100A2D
:10414000B8EE400A20EE080A00EE90AAF8EE600AE7
:1041500080EE200ABDEEC00A87ED040A306800092F
:1041600003F0D0FC53EC192B03F0DAFC0022714B66
:1041700003F0A8FD03F0CAFE03F0FCFE82468B4666
:1041800000EE109AB8EE400ADFED690A80EE800A70
:1041900010EE100A03F0EEFE41EC100B03F00EFFE0
:1041A00051EC100B52465B4603F0BAFC0022614B07
:1041B00003F088FD03F084FF7860F8680419BC60A0
:1041C00038697968884204DB386978600320387080
:1041D00001E00120387000207861012088F800009B
:1041E0004C4C2068406AADF80000BDF800004B4917
:1041F000496811FA80F021684863012200214E4885
:1042000003F0EAFB200003F04EF9002201215048A0
:10421000FDF744FC02B0BDEC048BBDE8F18F00005B
:1042200072D9A03B38B50020ADF80000394C2068A9
:10423000C068800764D57FF00205206805613F48AB
:104240000168491C01600068C00759D43C490878DE
:10425000002849D002282BD002D303281ED04FE0DB
:104260003A4A3848036832F813302568EB6203682D
:1042700032F81330E360036832F81320022392FB14
:10428000F3F223685A630268521C0260006840F629
:10429000B832904201DB0320087031E02A480268FE
:1042A000521E02600068002801D10220087027E039
:1042B00024480268521E0260244A036832F8133010
:1042C0002568EB62036832F81330E360036832F864
:1042D0001320022392FBF3F223685A63006801283B
:1042E00001DA002008700BE000220021124803F0E0
:1042F00073FB20680561012201211548FDF7CEFB03
:1043000031BD00003038024000100240001402406D
:1043100044380240C8F900206AFF002048FE00200F
:10432000040000206F1283C0CAA1E53FCF0FC93D32
:104330007059C4420000244000000140A4FE002047
:104340000C000020A0FE0020F8FE002030B200206B
:104350000018024010B586B000200090DFF8A004DD
:10436000016851F004010160016811F0040100913D
:10437000009900210091016851F008010160016875
:1043800011F008010091009900210091016851F09D
:1043900008010160006810F00800009000980120FA
:1043A000019002200290022004900220059001A9B1
:1043B000DFF85004FDF788FA4FF4804001900120A7
:1043C00002900220049000200590DFF87C4401A9AF
:1043D0002000FDF779FA4FF400400190012002908F
:1043E000022004900020059001A92000FDF76CFA3E
:1043F00000224FF480412000FDF750FB01224FF4D2
:1044000000412000FDF74AFB06B010BD70B58CB02E
:1044100000200090DFF8F003016851F0080101600E
:10442000006810F0080000900098FFF793FFDFF895
:10443000DC43DFF8FC5325600F2060600020A060A3
:104440004FF6FF76E66000202061200002F0F4FFC6
:104450004FF48050089008A9200003F0D8F83020CD
:1044600001900296022003900820049000200590FD
:104470000020069000200790002201A9200003F0F0
:104480009DF800220021280003F0A6FA0022002156
:104490003220FDF7B0FB3220FDF7BEFB7FF00200BB
:1044A000216808612068C06850F002002168C86077
:1044B0002068406C50F40040216848640CB070BD26
:1044C0002DE9F84F2DED048B82B0894615009A46F0
:1044D000DFF83C8398F80010002940F01A810400AE
:1044E000002C0AD50120CB49487001224FF48041AD
:1044F000D548FDF7D3FA644208E00020C54948706A
:1045000000224FF48041D048FDF7C8FA012C09D1B0
:10451000C0485FF0FF314161022101704FF47A71B0
:104520004160D8E0002C00F0D6809FED7C8ABA4E26
:10453000B84F3068000900EE100AB8EE400A20EECD
:10454000080A00EE90AAF8EE600A80EE200ABDEE9E
:10455000C00A87ED040A9FEDB19B3068000903F0A3
:10456000D1FA53EC192B03F0DBFA0022AF4B03F026
:10457000A9FB03F0CBFC03F0FDFCCDE9000100EE4C
:10458000109AB8EE400ADFEDA80A80EE800A10EE1D
:10459000100A03F0EFFC41EC100B03F00FFD51EC9F
:1045A000100BDDE9002303F0BBFA00229F4B03F060
:1045B00089FB03F085FD78600AFB0AF000EE100A23
:1045C000B8EE400A00EE909AF8EE600A9FED951A58
:1045D00060EE810AB2EE041AC0EE810A80EE200A73
:1045E000BCEEC00A8DED010A0198002801D101201E
:1045F000019005FB04F015EB0901B0FBF1F0009010
:104600000098002801D1012000900198009988426B
:1046100003D30098001BF86006E0019809FB00F046
:10462000B0FBF5F04042F860F868002802D15FF076
:10463000FF30F8603068000900EE100AB8EE400A5A
:1046400020EE080A00EE90AAF8EE600A80EE200A3A
:10465000BDEEC00A87ED040A3068000903F052FA83
:1046600053EC192B03F05CFA0022704B03F02AFB89
:1046700003F04CFC03F07EFC82468B4600EE109A61
:10468000B8EE400ADFED680A80EE800A10EE100AEC
:1046900003F070FC41EC100B03F090FC51EC100B9C
:1046A00052465B4603F03CFA0022604B03F00AFBE3
:1046B00003F006FD7860F8680419BC603869796811
:1046C000884204DB386978600320387001E00120FB
:1046D000387000207861012088F800004B4C206879
:1046E000406AADF80000BDF800004A49496811FA77
:1046F00080F021684863012200214D4803F06CF9E5
:10470000200002F0D0FE00224FF400414E48FDF799
:10471000C5F902B0BDEC048BBDE8F18F72D9A03BA6
:1047200038B50020ADF80000384C2068C06880071C
:1047300065D57FF00205206805613E480168491C87
:1047400001600068C0075AD43B490878002849D066
:1047500002282BD002D303281ED050E0394A374814
:10476000036832F813302568EB62036832F81330BF
:10477000E360036832F81320022392FBF3F223680C
:104780005A630268521C0260006840F6B8329042D8
:1047900001DB0320087032E029480268521E0260E3
:1047A0000068002801D10220087028E02348026830
:1047B000521E0260234A036832F813302568EB6208
:1047C000036832F81330E360036832F813200223E1
:1047D00092FBF3F223685A630068012801DA002093
:1047E00008700CE000220021114803F0F5F8206861
:1047F000056101224FF400411348FDF74FF931BD27
:1048000030380240000002404038024010FA0020D8
:104810006BFF002060FE0020040000206F1283C0A8
:10482000CAA1E53FCF0FC93D7059C44200002440E2
:10483000000C0040ACFE00200D000020A8FE00206F
:10484000FCFE0020A0C90020000C024030B4DFF8BC
:10485000B805C821A0F8281240F2E471A0F80415A8
:1048600040F2C341A0F806150021A0F82012002153
:10487000DFF8982511700121DFF8942511700021CF
:10488000DFF8902511800021DFF88C2511800021B0
:10489000DFF8882511800021DFF8842511800021B0
:1048A000DFF8802511800021DFF87C2511800021B0
:1048B000DFF8782511700021DFF8742511700021D0
:1048C000DFF8702511700021DFF86C2511700021D0
:1048D000DFF8682511700021DFF8642511700021D0
:1048E000DFF8602511700121DFF85C2511700121CE
:1048F000DFF858251170DFF858150022C1F8C820DC
:104900000022DFF850351A700122C1F8402101223F
:10491000DFF844351A7044F2A0120A44DFF83C353F
:104920001A601B68DFF8384523600023C1F8BC31EA
:104930000023C1F8C0310023C1F8D4310023C1F8ED
:10494000D8310023C1F8DC310023C1F8E031002365
:10495000C1F8E4310023C1F8E8310023DFF8044551
:1049600023700023C1F838310023C1F8303100230F
:10497000C1F894330023C1F81C320023C1F820325F
:104980000023C1F824320023C1F828320023C1F8E3
:104990002C320023C1F830320023C1F80432002346
:1049A000C1F808320023C1F80C320023C1F81032DC
:1049B0000023C1F814320023C1F818320023C1F8D3
:1049C0004C320023C1F850320023C1F85432002386
:1049D000C1F858320023C1F85C320023C1F86032BC
:1049E0000023DFF8844423700123A0F8EC31002376
:1049F000A0F8BE310023C1F888330023A0F8663147
:104A00000123A0F8EA310023DFF86044236000238B
:104A1000DFF85C4423600023DFF858442360002360
:104A2000DFF8544423600023DFF850442360002360
:104A3000DFF84C4423600023DFF848442360002360
:104A4000DFF8444423600023DFF840442360002360
:104A5000DFF83C4423600023DFF838442360002360
:104A6000DFF8344423600023C1F8D8330023DFF893
:104A70002C4423700023DFF8284423700023DFF840
:104A8000244423700023DFF8204423700023DFF840
:104A90001C4423700023DFF8184423700023C1F85E
:104AA000E0330023DFF80C44237043F6F04301EBBE
:104AB0000304012306E0502505FB03F5254445F8D2
:104AC000503C5B1C102BF6DB012306E0A02404FB0A
:104AD00003F4144444F8A03C5B1C1F2BF6DB0122BA
:104AE000C1F80C240122C1F810240122C1F81424B9
:104AF0000122C1F818240122C1F81C240122C1F8A6
:104B000020240022DFF8B0331A700022DFF8AC3323
:104B10001A700022DFF8A8331A700022DFF8A433DD
:104B20001A700022DFF8A0331A700022DFF89C33DD
:104B30001A700022DFF898331A700022A0F8E820DB
:104B40000022A0F8EA200022A0F8EC200022A0F821
:104B5000EE200022A0F8F0200022A0F8F220002091
:104B6000C1F894040020C1F898040020C1F89C0406
:104B700030BC704770477047A349B1F8280101283D
:104B800006D0B1F82801022802D00120A1F828019E
:104B9000B1F81A01B0F5166F1CD0B1F81A01B0F5D2
:104BA000965F17D0B1F81A01B0F5165F12D0B1F8C0
:104BB0001A01B0F5964F0DD0B1F81A01B0F5164FA5
:104BC00008D0B1F81A01B0F5614F03D04FF461403D
:104BD000A1F81A01B1F81C01B0F5166F1CD0B1F89C
:104BE0001C01B0F5965F17D0B1F81C01B0F5165F47
:104BF00012D0B1F81C01B0F5964F0DD0B1F81C01E0
:104C0000B0F5164F08D0B1F81C01B0F5614F03D0D4
:104C10004FF46140A1F81C01B1F81E01B0F5166F08
:104C20001CD0B1F81E01B0F5965F17D0B1F81E0187
:104C3000B0F5165F12D0B1F81E01B0F5964F0DD049
:104C4000B1F81E01B0F5164F08D0B1F81E01B0F54D
:104C5000614F03D04FF46140A1F81E01B1F830015B
:104C6000B0F5166F1CD0B1F83001B0F5965F17D0D3
:104C7000B1F83001B0F5165F12D0B1F83001B0F5DF
:104C8000964F0DD0B1F83001B0F5164F08D0B1F8FD
:104C90003001B0F5614F03D04FF46140A1F830010D
:104CA000B1F83201B0F5166F1CD0B1F83201B0F591
:104CB000965F17D0B1F83201B0F5165F12D0B1F897
:104CC0003201B0F5964F0DD0B1F83201B0F5164F64
:104CD00008D0B1F83201B0F5614F03D04FF4614014
:104CE000A1F832015A4AD2F80402B0F5803F02DB43
:104CF0000020C2F80402D2F80802B0F5803F02DBBF
:104D00000020C2F80802D2F80C02B0F5803F02DBA6
:104D10000020C2F80C02D2F81002B0F5803F02DB8E
:104D20000020C2F81002D2F81402B0F5803F02DB76
:104D30000020C2F81402D2F81802B0F5803F02DB5E
:104D40000020C2F81802088E062802DA088E002811
:104D500001D101200886D2F88C03012802DA012053
:104D6000C2F88C03D2F88C03102802DB0F20C2F8A3
:104D70008C03D2F88403012802DA0120C2F88403EC
:104D8000D2F884031F2802DB1E20C2F88403D2F865
:104D90007404012802DA0120C2F87404D2F8740401
:104DA00040F2F513984203DB4FF4FA70C2F8740432
:104DB000B1F83E01002802D10120A1F83E01B1F86E
:104DC0004001002802D10220A1F84001B1F84201BF
:104DD000002802D10320A1F84201B1F844010028C3
:104DE00002D10420A1F84401B1F84601002802D103
:104DF0000520A1F84601B1F84801002802D106209B
:104E0000A1F848017047000010E100206CFF00206D
:104E10006DFF002014FF002024FF002034FF00203D
:104E200044FF002054FF002064FF002077FF002093
:104E300076FF00206FFF002073FF002071FF00202D
:104E400072FF002070FF002075FF002079FF002016
:104E50001000002074FF00206EFF0020B0FE002034
:104E6000B4FE002078FF00207BFF0020B8FE002069
:104E7000BCFE0020C0FE0020C4FE0020C8FE0020B2
:104E8000CCFE0020D0FE0020D4FE0020D8FE002062
:104E9000DCFE0020E0FE0020E4FE00207DFF00207C
:104EA0007EFF00207FFF002080FF002081FF002088
:104EB00082FF00207CFF002083FF002084FF002071
:104EC00085FF002086FF002087FF002088FF00204C
:104ED00089FF00202DE9FC410400002C01D10120B4
:104EE000C4E12078C0075FD5DFF88403016811F0C2
:104EF0000C01042909D0006810F00C0008280ED11C
:104F0000DFF870030068400209D5DFF86C03006821
:104F1000800349D56068002846D10120A6E1606879
:104F2000B0F5803F06D1DFF85003016851F48031BD
:104F3000016018E06068B0F5A02F0AD1DFF83803EF
:104F4000016851F480210160016851F480310160F1
:104F500009E0DFF82403016831F480310160016861
:104F600031F480210160606800280ED0FBF7D4FF87
:104F70000500DFF804030068800315D4FBF7CCFFBD
:104F8000401B6528F5D3032070E1FBF7C5FF050042
:104F9000DFF8E4020068800306D5FBF7BDFF401B85
:104FA0006528F5D3032061E1207880071DD5B0483E
:104FB000016811F00C0F08D0006810F00C000828F0
:104FC0002AD1AC480068400226D4AB480168890762
:104FD00004D5E168012901D0012047E1016831F0E1
:104FE000F801226951EAC20101602078000751D519
:104FF000606900283DD00120A0490860FBF78CFFC4
:1050000005009F480068800744D4FBF785FF401BDC
:105010000328F6D3032029E1E068002818D00120F6
:1050200098490860FBF778FF0500934801688907F5
:1050300006D4FBF771FF401B0328F6D3032015E1CC
:10504000016831F0F801226951EAC2010160CCE740
:1050500000208C490860FBF75FFF05008648006868
:105060008007C2D5FBF758FF401B0328F6D3032067
:10507000FCE0002081490860FBF74EFF05008048F6
:105080000068800706D5FBF747FF401B0328F6D3CF
:105090000320EBE0207840076FD500267A4D286882
:1050A000C0000BD400200090286850F08050286089
:1050B000286810F08050009000980126734F3868DF
:1050C000C00511D4386850F480703860FBF724FFB5
:1050D00080463868C00507D4FBF71EFFB0EB080018
:1050E0000328F6D30320C1E0A068012805D1684851
:1050F000016851F00101016015E0A068052809D19F
:105100006348016851F004010160016851F0010138
:10511000016008E05E4801684908490001600168D3
:1051200031F004010160A06800280FD0FBF7F4FE05
:10513000070057480068800718D4FBF7EDFEC01B36
:1051400041F289318842F4D303208FE0FBF7E4FE7B
:1051500007004F480068800708D5FBF7DDFEC01B3D
:1051600041F289318842F4D303207FE0F6B2012E68
:1051700003D1286830F080502860A069002874D0DE
:105180003B48006810F00C00082843D0A0690228B2
:105190002FD1404E00203060FBF7BEFE0700364D99
:1051A0002868800106D5FBF7B7FEC01B0328F6D39D
:1051B00003205BE0E169206A0143606A51EA8011E3
:1051C000A06A4008401E51EA0041E06A51EA0061CD
:1051D0002848016001203060FBF79EFE040028682B
:1051E000800142D4FBF798FE001B0328F7D303206D
:1051F0003CE0002027490860FBF78EFE04001E48B3
:105200000068800131D5FBF787FE001B0328F6D329
:1052100003202BE0A069012801D1012026E01548D8
:105220000068A16901291ED010F48001E269914251
:1052300019D110F03F01226A914214D147F6C07192
:105240000140626AB1EB821F0DD110F44031A26AB5
:105250005208521EB1EB024F05D110F07060E16AA6
:10526000B0EB016F01D0012000E00020BDE8F68125
:10527000083802400438024000380240800E47429D
:10528000743802400000474240380240007000403D
:10529000703802406000474280B501221021054865
:1052A000FCF7FCFB01BD80B5002210210148FCF792
:1052B000F5FB01BD0000024038B504000D00FFF70A
:1052C000F2FF15EB041530352800C0B2FCF773FF70
:1052D0000020FCF770FF0400FFF7DEFF2000C0B2E3
:1052E00032BD70B504000D001600FFF7DCFFE4B21C
:1052F0002401B0342000C0B2FCF75DFF002406E0BA
:105300000020FCF758FF2100C9B26854641C20003B
:10531000C0B2B042F4D3FFF7BFFF70BD2DE9F0413A
:1053200004000D0000200020002000205FF0000895
:1053300008212000C0B2FFF7BFFF10F0030F2AD0F2
:105340000B212000C0B2FFF7B7FF07000A212000A1
:10535000C0B2FFF7B1FF06000A212000C0B2FFF77C
:10536000ABFF39070FD501003200C9B2D2B291426A
:1053700000D206003000C0B2002802D14FF480787D
:1053800001E0F6B2B046424629002000C0B2FFF765
:10539000A8FF404600E00020BDE8F081F8B50024F9
:1053A000DFF878542888002800F08480DFF8700443
:1053B000DFF870140A8803789BB29A427AD000789A
:1053C0000880DFF864040188491C018001880629EF
:1053D00070DBDFF858642988318000210180308833
:1053E000B0F5807F5CDADFF848743878DFF8441471
:1053F000B1F83E1180B2884253D13088811EC9B2C3
:10540000380000F0E9F9010089B2090A32883A440B
:1054100012F8022CC9B2914240D13188394411F8B6
:10542000011CC0B2884239D1787803280CD1012000
:10543000DFF804140870B87880B20002F9784018D8
:10544000DFF8F81308802CE0787810280CD10120C0
:10545000DFF8EC130870B87880B20002F9784018D1
:10546000DFF8D81308801CE07878012804D10120E7
:10547000DFF8D013087014E0787806280CD10120EA
:10548000DFF8C4130870B87880B20002F9784018C9
:10549000DFF8A813088004E0012402E0022400E001
:1054A00004240122DFF8A413DFF8A403FAF70DFFA8
:1054B00000202880E4B2002C13D0002006E0002158
:1054C000DFF86C2303009BB2D154401C010089B269
:1054D0001429F4DB0122DFF87413DFF87403FAF700
:1054E000F4FEF1BD2DE9F0410021DFF84C432078B6
:1054F000002800F09580DFF85C53CD4801782970D2
:10550000417869704179C9B24900A970CB490A88CC
:10551000B2F5006F29DAC74AB2F82831012B24D13D
:105520002B000026370090F805C0FFB2674550D227
:105530000F8802EB4707B4465FFA8CFC37F81C7003
:10554000BC461FFA8CFC5FEA1C2CB6465FFA8EFE46
:1055500003EB4E0E8EF803C0B4465FFA8CFC03EBEF
:105560004C0C8CF80470761CDCE70A8841F2883316
:105570009A422EDBAF4AB2F82821012A29D1B64A35
:105580002B0000261FE00F8802EB8707B4465FFA66
:105590008CFC07EB8C07DFF8C4C257F80C70BC46D4
:1055A0001FFA8CFC5FEA1C2CB6465FFA8EFE03EBFA
:1055B0004E0E8EF803C0B4465FFA8CFC03EB4C0C25
:1055C0008CF80470761C370090F805C0FFB2674570
:1055D000D9D3A34EA978C91CC9B2280000F0FCF8A1
:1055E0003080308880B2000AA9782944C870308899
:1055F000A978294408719B48A978491D0180002198
:1056000021700021984A11804FF6FF73028829000B
:105610008F48FAF7F4FD20219448FCF749FAD9E0C5
:10562000874C2078002804D187480078002800F0B3
:10563000D180824A108841F27173984201DA0121C7
:1056400005E07C48408AB0F5FA6F00D101210800DE
:10565000C0B2002800F08C8010882D38072806D2B0
:1056600010882D38824B18800120824B18707648A4
:105670000078002820D01088B0F5006F0ADA6C4B53
:10568000187980B200025B79C0186A4B128823F83F
:1056900012006DE0108841F28833984268DB644B59
:1056A000187980B200025B79C0186B4B128803EB4B
:1056B00082026A4BD0505BE02078002858D05C48CA
:1056C0004379642B54DA1388B3F5006F23DA0300AF
:1056D000584D0026370090F805C0FFB2674547D205
:1056E0003700FFB203EB4707FF79B4465FFA8CFC43
:1056F00003EB4C0C9CF808C0B2F800E005EB4E0E32
:10570000B0465FFA88F8BFB23F0217FA8CF72EF85E
:105710001870761CDEE7138841F28835AB4227DB30
:1057200003004D4D00261DE03700FFB203EB470795
:10573000FF79B4465FFA8CFC03EB4C0C9CF808C074
:10574000B2F800E005EB8E0EB0465FFA88F80EEB7B
:10575000880EDFF80881BFB23F0217FA8CF74EF8C7
:105760000870761C370090F805C0FFB26745DBD3A0
:10577000384D022028702E4842786A708278AA70CC
:10578000C278EA7002792A7140796871C9B2002939
:1057900002D1FF2028716871314E0621280000F0E7
:1057A0001BF83080308880B2000AA8713088E87118
:1057B0002C4808210180002121700021224A11700B
:1057C0000021294A11804FF6FF73028829002048E2
:1057D000FAF715FDBDE8F08130B40A00FF231C0084
:1057E000002100210CE001784C402500401C1C00E9
:1057F00021492B00DBB2C95C4C402049EDB24B5D26
:1058000011004A1EC9B20029EDD1E4B2DBB253EA5D
:105810000423180080B230BC7047000006FF00204F
:1058200078FE002012FF002014FF00200AFF002055
:10583000A0E8002010E100208BFF002010FF0020D6
:105840008CFF00208DFF00208EFF00208AFF0020AB
:10585000D8FC0020A0E7002010000020E0B1FFFFEE
:105860000EFF00200CFF002008FF0020000C02406B
:1058700004FF00207AFF0020FC800008FC81000863
:10588000F8B50024DFF82C542888002800F0848024
:10589000DFF82404DFF824140A8803789BB29A42C4
:1058A0007AD000780880DFF818040188491C01804C
:1058B0000188062970DBDFF80C642988318000211B
:1058C00001803088B0F5807F5CDADFF8FC733878CF
:1058D000DFF8F813B1F8401180B2884253D1308814
:1058E000811EC9B23800FFF777FF010089B2090AAB
:1058F00032883A4412F8022CC9B2914240D1318820
:10590000394411F8011CC0B2884239D17878032893
:105910000CD10120DFF8B8130870B87880B200020B
:10592000F9784018DFF8AC1308802CE0787810285C
:105930000CD10120DFF8A0130870B87880B2000203
:10594000F9784018DFF88C1308801CE0787801287B
:1059500004D10120DFF88413087014E07878062859
:105960000CD10120DFF878130870B87880B20002FB
:10597000F9784018DFF85C13088004E0012402E0A5
:10598000022400E004240122DFF85813DFF8580352
:10599000FAF79BFC00202880E4B2002C10D00020F5
:1059A00005E00021C84A03009BB2D154401C01000D
:1059B00089B21429F5DB0122CA49CB48FAF785FCE4
:1059C000F1BD2DE9F0410021C14C2078002800F004
:1059D0009480C64DBC48017829704178697041793E
:1059E000C9B24900A970BB490A88B2F5006F29DA2B
:1059F000B64AB2F82831012B24D12B0000263700FB
:105A000090F805C0FFB2674550D20F8802EB4707F8
:105A1000B4465FFA8CFC37F81C70BC461FFA8CFC4D
:105A20005FEA1C2CB6465FFA8EFE03EB4E0E8EF834
:105A300003C0B4465FFA8CFC03EB4C0C8CF804708A
:105A4000761CDCE70A8841F288339A422EDB9F4AB3
:105A5000B2F82821012A29D1A54A2B0000261FE0EF
:105A60000F8802EB8707B4465FFA8CFC07EB8C07C4
:105A7000DFF880C257F80C70BC461FFA8CFC5FEA56
:105A80001C2CB6465FFA8EFE03EB4E0E8EF803C05A
:105A9000B4465FFA8CFC03EB4C0C8CF80470761C5B
:105AA000370090F805C0FFB26745D9D3924EA97868
:105AB000C91CC9B22800FFF78FFE3080308880B241
:105AC000000AA9782944C8703088A9782944087147
:105AD0008A48A978491D0180002121700021884A47
