:020000040800F2
:10000000B08A0020E16A000871680008736800087F
:10001000756800087768000879680008000000002B
:100020000000000000000000000000007B680008E5
:100030007D680008000000007F68000881680008F3
:10004000156B0008196B00081D6B0008216B000878
:10005000256B0008296B0008AD6800082D6B0008AF
:10006000316B0008356B0008396B00083D6B0008E8
:10007000416B0008456B0008496B00084D6B000898
:10008000516B0008556B0008596B00085D6B000848
:10009000616B0008656B0008696B00086D6B0008F8
:1000A000716B0008B3680008756B0008796B000875
:1000B000C5680008DD680008EF6800087D6B00086F
:1000C000816B0008856B0008896B00088D6B000848
:1000D000916B0008096900080F690008156900089C
:1000E000956B0008996B00089D6B0008A16B0008D8
:1000F0001B690008A56B0008A96B0008AD6B000820
:10010000B16B0008B56B00082D690008B96B0008D9
:100110003F690008456900084B690008BD6B00088D
:10012000C16B0008C56B0008C96B0008CD6B0008E7
:10013000D16B0008D56B0008D96B0008DD6B000897
:10014000E16B0008E56B0008E96B0008ED6B000847
:10015000F16B0008F56B0008F96B000851690008A5
:10016000FD6B0008016C0008056C0008096C0008B4
:100170000D6C0008116C0008156C000800000000F0
:10018000196C00081D6C00082DE9F34F0021009147
:10019000A0F1010B8E46BBF1050F4FF08041DFF857
:1001A000D437DFF8D447DFF8D457DFF8D467DFF867
:1001B000E4A8DFF8E4885ED8DFE80BF00311202F15
:1001C0003E4DDFF8D8E801278EF80770CEF85010C2
:1001D00000278EF806700AF5BC7957464BE0DFF829
:1001E000C0E802278EF80770CEF8503000278EF84E
:1001F00006700AF58D690AF53C773CE0DFF8A4E863
:1002000003278EF80770CEF8504000278EF806704E
:100210000AF5EB690AF5BC672DE0DFF88CE80427E6
:100220008EF80770CEF8505000278EF806700AF648
:1002300048290AF50D671EE0DFF888E805278EF8E3
:100240000770CEF8506000278EF806700AF638590D
:100250000AF53C670FE0DFF870E806278EF80770B4
:1002600041F2280C00278EF80670CEF850800AF56F
:100270006B670AEB0C09072856DA002854D09DF862
:1002800004008EF80400CEF834205043CEF83C0031
:100290005E22AEF818200020CEF83000CEF83800EC
:1002A0005D22AEF814008EF80500CEF81C00CEF8E2
:1002B0002000AEF81A20CEF80C70CEF810900098FE
:1002C00009E0DEF81070DEF81C2037F810703A44B0
:1002D000CEF81C20401CBEF818209042F1D300201C
:1002E0000CE0DEF810C0BEF81870DEF82020C71948
:1002F0003CF817703A44CEF82020401CBEF81A2073
:100300009042EED3DEF80C20DEF850001288C26274
:10031000DEF85000B0F1804F07D1DEF80C00008805
:100320004008886300224A6232E0984207D1DEF832
:100330000C000088400858630021596228E0A04260
:1003400007D1DEF80C00008840086063002161627C
:100350001EE0A84207D1DEF80C000088400828649F
:100360000021696214E0B04207D1DEF80C00008879
:1003700040087063002171620AE0404508D1DEF850
:100380000C0000884008C8F834000021C8F8241088
:10039000BDE8F38FF0B504460022002300200021C1
:1003A00000260027641E052C00F2C680DFE804F05A
:1003B000031114171A1DDFF8E4C6DCF81C50DCF832
:1003C00020E0DCF828407544AC425CD3BCF818400F
:1003D0001BE0DFF8CCC6F0E7DFF8C8C6EDE7DFF8D2
:1003E000C8C6EAE7DFF8DCC6E7E7DFF8DCC6E4E723
:1003F000DCF81000DCF80C1030F8170031F817109A
:100400004843121843EBE0737F1CA742F0DB002542
:100410000DE0DCF81000DCF80C10661930F816005E
:1004200031F816104843121843EBE0736D1CBCF80A
:100430001A008542EDDBDCF80C50DCF82800DCF813
:100440001C1005EB4404401A34F8021CA0EB0E000B
:10045000484300211018DCF82820A2EB0E02594175
:10046000CCF8242064E000F068F8121943EBE47340
:1004700000F063F8001941EBE471DCF8104034F847
:10048000174036197F1CDCF81050DCF8284035F88E
:10049000175064087519AC42E5D210185941DCF8C0
:1004A0001030DCF8284033F81730A4EB4604A342A0
:1004B0002ED2DCF81030DCF82840A4EB460423F8F8
:1004C00017400023CCF81C30CCF8203009E0DCF8D1
:1004D0001050DCF81C4035F813506419CCF81C405F
:1004E0005B1CBCF81840A342F1DB00230CE0DCF8F5
:1004F0001050BCF818E0DCF820409E4435F81E503F
:100500006419CCF820405B1CBCF81A40A342EEDB17
:10051000DCF80C30DCF8284003EB4703A4EB460280
:100520001B885A43002380185941A61BCCF824602D
:10053000CCF84800CCF84C10F0BDDCF81040DCF8EA
:100540000C5034F8174035F817506C4370470000D2
:100550000022411E052900D9704738B5DFE801F0B7
:10056000030C0F121518DFF8341500258A608A82F3
:100570004D71CA610A6215E0DFF82415F5E7DFF86E
:100580002415F2E7DFF82015EFE7DFF83815ECE780
:10059000DFF83415E9E70C69CB6934F812401B1910
:1005A000CB61521C0B8B9A42F5DB002208E00C69F0
:1005B0000D8B0B6A551934F815401B190B62521C30
:1005C0004B8B9A42F3DBCB680A6D1B88D3620A6DB2
:1005D000B2F1804F06D1CA68DFF8F03412885208B1
:1005E0005A612CE0DFF88C339A4203D1CA68DFF8F5
:1005F000603521E0DFF880339A4203D1CA68DFF822
:10060000543519E0DFF874339A4206D1CA68DFF82E
:10061000483512885208DA6111E0DFF864339A42F3
:1006200003D1CA68DFF8343506E0DFF86C349A424B
:1006300007D1CA68DFF85C36128852081A610024B4
:100640001C6000230A6DD26A0A644B64BDE8324024
:10065000A0E631BDF8B52DED0A8BB0EE608AF0EE64
:10066000418AB0EE619AF0EE429AB0EE62AA10EEC4
:10067000100A00F0A1FCB5EE40AAF1EE10FAA4BFFA
:10068000F4EE4A8AF1EE10FA41EC1B0B0EDB00F09F
:100690009DF800F0B5F800F0A7F800F09BF800F026
:1006A000A3F800F097F853EC1B2B27E0F4EE4A8AEE
:1006B000F1EE10FA38EE890A23D500F07EF820DB3F
:1006C00000F084F800F09CF800F094F800F082F854
:1006D00000F090F800F07EF853EC1B2B00F090FC3B
:1006E0003AEE680A20EE080A044620EE280A0D4673
:1006F00010EE100A00F060FC22462B4600F080FC51
:1007000051E000F05AF853D530EE290A00F055F8C0
:100710004EDB30EE4ACA00F059F800F071F800F0F4
:1007200069F800F057F841EC1A0B18EE900A00F047
:1007300043FC00F047F853EC1B2B00F061FC69EE22
:10074000080A044660EEA80A0D4610EE900A00F072
:1007500033FC22462B4600F053FC00F03FF800F03B
:1007600031F822462B4600F04BFC06460F461CEEA5
:10077000100A00F021FC00F025F804460D461CEE9E
:10078000100A00F019FC00F025F800F027F80246E6
:100790000B462046294600F00DFD02460B4630462A
:1007A000394600F02BFE00F09BFE00EE100A01E03F
:1007B0009FED6E0ABDEC0A8BF1BDB4EE4A0AF1EE74
:1007C00010FA704753EC1A2B00F0BEBE18EE100A58
:1007D00000F0F2BB22462B4600F0B6BE04460D46A2
:1007E00019EE900A00F0E8BB04460D461AEE100A16
:1007F00000F0E2BB04460D4618EE900A00F0DCBBA8
:100800000022DFF8743500F09FBE000070B52DEDBA
:10081000088BF0EE408AB0EE608A80B2F0EE41BA0A
:1008200000EE100AF3EE0F0AB0EE42BA0C4615467F
:100830000026B8EE409ACBEEA09AF0EE61AA00EE48
:10084000106AB8EEC00A69EE802A00F06DF8DFED9C
:10085000480AC0EE800AFDEEE00A29EE800A10EE9A
:10086000900A80EE090A24F81600BDEEC00A10EEC8
:10087000101A25F81610761C1F2EE0DBB3EE0F0AB7
:100880001F26CAEE809AA6F11F0000EE900AF8EE2D
:10089000E00AF0EE6B2A00F045F800F051F83E2E29
:1008A000F1DBB3EE0F0A3E26CBEE009A3BEEAAAA8E
:1008B000A6F13E0000EE900AF8EEE00AF0EE4A2AB9
:1008C00000F030F800F03CF85D2EF1DB7AEE0B2AF8
:1008D00000F02AF8DFED260AC0EE800A29EE800A31
:1008E000FDEEE00A80EE090A10EE900ABDEEC00AA5
:1008F000A4F8BA0010EE101AA5F8BA105E20414212
:1009000004EB410205EB4101B2F8743124F81030D8
:10091000B1F8742125F81020401CBA28EFDDBDEC99
:10092000088B70BD49EEA02AB0EE4B2AF0EE6A1A91
:10093000B0EE6B1AF0EE480AB0EE680A8AE60000E4
:100940009FED0B1A81EE001ABDEEC11A29EE800A46
:1009500011EE101A80EE090A24F81610BDEEC00A36
:1009600010EE100A25F81600761C704700000000F3
:10097000A037204B00080040000401400004004064
:1009800000000140D0B51600034629D000245B1EAC
:10099000052BDFF8D0050F4622D8DFE803F003224D
:1009A0003546576800290CBF00220122DFF8B80540
:1009B000022100F079FF3949012008704F700122AF
:1009C0008A70CC620C644C64087946438E620120C4
:1009D000FFF7BEFD4FF08040016841F0010101606A
:1009E000D0BD012FDFF884050CBF002201224FF497
:1009F000807100F059FF2A4900F058F80220FFF7F3
:100A0000A7FDDFF86C05E7E7DFF868053A4607B1B0
:100A10000122202100F048FF224900F047F803207E
:100A2000FFF796FDDFF85005D6E700290CBF00223E
:100A300001224FF4805100F037FF1B4900F036F8D7
:100A40000420FFF785FDDFF83405C5E700290CBF5A
:100A5000002201224FF4004100F026FF194900F066
:100A600025F80520FFF774FDDFF81405B4E7DFF87B
:100A700014053A4607B101224FF4804100F014FFFB
:100A8000114900F013F80620FFF762FDDFF8F804C3
:100A9000A2E7000070540020000C004014800020E9
:100AA00068800020BC800020108100200120087098
:100AB0004F708870CC620C644C64087946438E6237
:100AC0007047000064810020B881002024000040AD
:100AD00010B588B000200090DFF8B044DFF8B00413
:100AE00000F00AF900F00EFF4FF08040206007216F
:100AF0004FF47A700022E0606160A26022612046BB
:100B000000F05CFF00F0D2F8042200F05AF8012255
:100B100004214FF0804001F0C4FA002200211C2083
:100B200001F0E8FA1C2001F002FB20686FF00101DF
:100B30000161C26842F00102C260204600F04BFF32
:100B40002068416C41F40041416408B010BD0000D0
:100B500024080040240401402404004024000140F3
:100B600038B588B000200090DFF82844DFF8200472
:100B7000DFF8FC53016841F004010160006800F0F7
:100B800004000090009801F0FDFA00F01EF84FF408
:100B9000FA710291022200210491039270204FF415
:100BA00080710190002206910592079200F009F8E9
:100BB00000F0ACF8002200211E2001F09BFA1E205C
:100BC00029E001A9204601F06BB8072060600021F0
:100BD0004FF47A70E060A16021612560204600F04A
:100BE000EDBE38B588B000200090DFF8AC43DFF8E8
:100BF000AC03E14D00F050F801F020FB0F20FFF7AF
:100C0000E5FF00F088F800F081F8002200212C2098
:100C100001F070FA2C2001F08AFA20686FF00101CF
:100C20000161C26842F00102C260204600F0D3FEBA
:100C30002068416C41F40041416409B030BD38B5D1
:100C400088B000200090D64CD148CC4D00F024F85C
:100C500001F046FBFFF7B9FF00F028F80C22FFF780
:100C6000B0FF01220C21284601F01BFA00220021CE
:100C70001D2001F03FFA1D2001F059FA20686FF0A5
:100C8000100101616FF001020261C16841F00101D0
:100C9000C160CAE7240C0040016841F00201016014
:100CA000006800F002000090009870474FF4FA715D
:100CB000029170200222002101900392049105917B
:100CC00006910791704738B588B000200090B54C68
:100CD000B248AB4D00F010F801F056FB0F20FFF7C3
:100CE00075FF00F018F800F011F80022002119201B
:100CF00001F000FA19208EE7016841F0010101605E
:100D0000006800F001000090009870470122002167
:100D1000284601F0C6B94FF4FA71029102220392FB
:100D20007020002101900491002206910592079203
:100D300001A9204600F0B4BF38B588B0002000906B
:100D4000994C9348904D016841F00801016000689A
:100D500000F008000090009801F074FBFFF735FFE9
:100D6000FFF7D9FFFFF7D2FF00220021322001F068
:100D7000C1F932204FE700000000E03F2DE9F843C1
:100D80002DED028B401E0A9E884FDFF82482052835
:100D9000914607F1720407F1B205B1EE048A23D837
:100DA000DFE800F00326425D7893BD89FC896B4340
:100DB00000F0A7F800F0D1F801F09AFB03463B825F
:100DC00008F5BC7200F0AEF8414600F0BBF800F048
:100DD0009EF80120FFF7D8F94A4600210120BDEC1A
:100DE000028BBDE8F843CDE5BDEC028BBDE8F18395
:100DF000BA8DFC8D534300F084F800F0AEF801F09A
:100E000077FB03463B8608F58D6200F08BF808F50A
:100E10003C7100F097F800F07AF80220FFF7B4F97F
:100E20004A4600210220DAE72288678800F073F83A
:100E300000F093F801F05CFB0346A38008F5EB6239
:100E400000F078F808F5BC6100F07CF800F05FF87D
:100E50000320FFF799F94A4600210320BFE7E28B00
:100E6000278C00F058F800F078F801F041FB0346B9
:100E7000638408F6482200F05DF808F50D6100F083
:100E800061F800F044F80420FFF77EF94A4600219B
:100E90000420A4E7A28FE78F00F03DF800F05DF892
:100EA00001F026FB03462B8008F6385200F042F88A
:100EB00008F53C6100F046F800F029F80520FFF73E
:100EC00063F94A460021052089E76A8BAF8B00F061
:100ED00022F800F042F801F00BFB0346EB8341F2ED
:100EE000280200F027F8424408F56B6100F02AF868
:100EF00000F00DF80620FFF747F94A4600210620CA
:100F00006DE73C20B3FBF0F0001B01F00FBB4FF48A
:100F100000020121704753433C20B3FBF0F0C01B9B
:100F200001F004BB9BB200EE103AF8EE400A00EE6E
:100F3000104A70479BB200EE103AF8EE400A00EEFD
:100F4000107A7047B0EE002AF0EE481AB0EE001AA0
:100F5000B0B2B8EE400AFFF759BC0022154B00F0C2
:100F600029B90000001402400010024000040240B1
:100F70000008004000180240000401400004004046
:100F800000000140000C0240000C0040D07C00201A
:100F900040380240347D0020987D002044380240D3
:100FA000FC7D0020607E0020C47E002010660020B2
:100FB0007054002000002C40C0F3C75181B1FF29BC
:100FC00006D0C110400721F0E04101F160517047A7
:100FD00041020CBF40F4E0016FF000410020704777
:100FE00000F0004100020AD0B0FA80FC00FA0CF0D8
:100FF00001F16051A1EB0C5101EBD021400570478C
:1010000070B44FF0004591EA030F40F1FF816B404F
:10101000841A71EB030604D26E40001BB141121911
:1010200073414FF4001C1CEB410F34BF7CEB4306B3
:1010300083E00C0DA4EB1356362E00F37C80012EBA
:1010400045EAC32341DC43EA525312BFD202920263
:101050005B08240545EAC12141EA5051D2EBC0208A
:10106000994125D407D1B0FA80F610FA06F162D082
:101070000020203608E0B1FA81F6B140C6F1200226
:1010800020FA02F21143B0404FEAF474B4EB465434
:1010900034F001064FEA74040AD8D6F50016760D2E
:1010A00004F00044F04061FA06F25040F14048403C
:1010B000C00A40EA415021F0004128BF5FEA5005D4
:1010C00050F1000044EBD12135E0DB0A45EAC121B3
:1010D000C90AB6F120050EDD42EA0242120CC5F142
:1010E000200603FA06F6EB4042EA06056D429841F7
:1010F00061F100010DE062FA06F5F240554063FA35
:1011000006FC82EA0C02F3405A406D42904161EBCA
:10111000030111F4801F05D1641E620502D06D0029
:101120004041494121F48011430875F1004350F1D9
:10113000000041EB045170BC70471CEB410F15D20D
:1011400023F0004352EA43060BD04FEA4C0CBCEBB1
:10115000410F04D80C0D661E342EB7DDEBE7801A64
:10116000994150EA410608BF0021E4E708BF1CEBA3
:10117000430F28BF6FF00001DDE730B4002513E016
:1011800050F8042BD30744BFA9F101039A18091F93
:10119000042942F8045BFAD213468C0744BF158039
:1011A0009B1CC90748BF1D7050F8041B0029E7D1DC
:1011B00030BC7047F0B540F2FF7581EA030C0CF0CB
:1011C000004C15EA11541DBF15EA1357AC42AF424B
:1011D000E5E0BC41C1F31301C3F31303801A994145
:1011E00043F4801304D2641E4000494180185941E1
:1011F000C90241EA5051B1FBF3F603FB1611A2FB01
:101200000675D7EBC020A94102D2761E801859413D
:10121000C90241EA5051B1FBF3FE03FB1E11A2FBD0
:101220000E75D7EBC020A94103D2AEF1010E801894
:101230005941890241EA9051760546EA8E2EB1FB6A
:10124000F3F603FB1611A2FB0675D7EB8020A9412C
:1012500002D2761E80185941C90241EA50514EEA25
:10126000060EB1FBF3F603FB1611A2FB0675D7EBD6
:10127000C020A94102D2761E80185941C90241EA14
:101280005051B1FBF3F703FB1711A2FB0735D3EB6A
:10129000C020A94167F100070CBF004247F00107D9
:1012A00066F3D5274FEA1E31B80814F5806412DDC5
:1012B000BD0775F1004250EB0E5051EB045111F592
:1012C000801F5CBF41EA0C01F0BD4CF07F6141F032
:1012D000E0410020F0BDBD076D0840EA0E5041F42A
:1012E0008011D4F10104B4F120060ADAC4F1200619
:1012F0000200E04001FA06F3E1401843B240154312
:101300000EE0342C13DCC6F1200445EA40056D08DC
:1013100020FA06F2154321FA06F0A1400D43002100
:1013200075F1004250F1000051EB0C01F0BD0020BE
:101330005FEA0C01F0BDCFB992185B41B3FA83F7B5
:1013400004BFB2FA82F6BF190B3FB7F120062FBFD8
:1013500002FA06F3BB40C7F1200622FA06F638BFB0
:101360003343BA401CB1E419641E33E77F4231F0C5
:101370000041B1FA81F404BFB0FA80F6A4190B3C25
:10138000B4F120062FBF00FA06F1A140C4F12006F7
:1013900020FA06F638BF3143A0403C1B1AE7AC42A6
:1013A0001ABF05EA1357AF4212E050EA41061CBFCC
:1013B00052EA4306BFE750EA4107304661461CBF88
:1013C00041EA0551F0BD52EA430C08BFC143F0BDEC
:1013D00000204FF4001616EB410F98BF16EB430F99
:1013E00008BF16EB410F24BFC14305E016EB430FC6
:1013F0000CBF61464CEA0551F0BD000070B44FF0DF
:10140000004591EA030F7FF503AE6B40841A71EB40
:10141000030603D2001BB141121973414FF4001CA3
:101420001CEB410F34BF7CEB430442E00C0DA4EBFA
:101430001356352E4FDC45EAC323DB0A45EAC121AA
:10144000C912B6F120050DDD63FA05F6EB4086EA18
:101450000305124218BF45F00105C01851F1000103
:101460000CD213E062FA06F5F2405540F3415A40BF
:10147000B340F3405A408018594107D349085FEA06
:1014800030005FEA350528BF45F0010501F5801100
:10149000420875F1004250F1000041EB04514E004A
:1014A00016F5001F70BC38BF70470020090D0905F4
:1014B00070471CEB410F10D252EA43060BD0BCEB35
:1014C000410F05D80C0DAB43661E342EB6DD02E08D
:1014D000AB438018594170BC704770BC7047000026
:1014E00001F000428B1AA3F16051B1F5801F0ADBB5
:1014F000B1F17F6F1FD242EAC102C10071F1004118
:1015000042EB507070470B15C3F10903212B10D229
:10151000890241EA905180020128494141F000418D
:1015200021FA03F0C3F12003994071F100415041C9
:101530007047100070476FF0000013EB103F5CBF66
:10154000000E42EAC0507047B0B581EA030C0CF0BF
:10155000004C40F2FF7515EA11541DBF15EA1357F0
:10156000AC42AF4239E0E41923EA455343F4801317
:10157000C90241F0004141EA505EC7021100A7FBD9
:10158000020200284FF00000EEFB01204FF00001A6
:10159000E3FB072118BF42F0010240180021494136
:1015A000E3FB0E01A4F580640F0302D25200404118
:1015B000494154F101046CDD470872F1004250F1D9
:1015C000000051EB0451A1F580115CBF41EA0C0110
:1015D000B0BD4CEA05510020B0BD05EA1357AC423E
:1015E00014BFAF4241E050EA410E1CBF52EA430E25
:1015F00002E061460020B0BD24423C441BD15FEABA
:10160000070EF6D0090302BF01460020AEF1140E0A
:10161000B1FA81F7AEEB070401FA07FE0C37C7F108
:10162000200100FA07F7C8404EEA000E23EA4553AE
:1016300043F48013A2E733F00043B3FA83F704BF07
:10164000B2FA82FE77440B3FE41BB7F1200E2FBFA6
:1016500002FA0EF3BB40C7F1200E22FA0EFE38BF8D
:1016600043EA0E03BA40641C82E750EA410E14BFFD
:1016700052EA430E6FF000014FF4001717EB430FCF
:101680008ABF194617EB410FB5E74CEA0551002018
:10169000B0BDD4F10104B4F120070FDAC4F1200782
:1016A000520828BF42F0010210FA07F501FA07F7C5
:1016B000E1BF2A43E0403843E1400FE0352C98DC9D
:1016C000C7F1200452EA400220FA07F218BF42F0A4
:1016D000010231FA07F0A1400A43002172F10042F1
:1016E00050F1000051EB0C01B0BD00002DE9F84FA6
:1016F0000D464FF0000877490F22012304462E685B
:1017000003FA08F000EA0609814540F0C5804FEA77
:10171000480C032606FA0CF66FEA060E6E6806F011
:101720000307012F1CBF06F00306022E11D1A66885
:10173000EF680EEA060607FA0CF73E43A6606668F5
:1017400026EA00006E68C6F3001606FA08F6304373
:1017500060604FEA88002E7906F00306032E1FD042
:10176000E668AF680EEA060607FA0CF73E43E66045
:101770002E7906F00306022E12D14FEAD80604EBAA
:10178000860600F01C07D6F820A002FA07FB2AEA1A
:101790000B0AD5F810B00BFA07F747EA0A073762C9
:1017A00026680EEA06072E7906F0030606FA0CF6FE
:1017B0003E4326606E68F6006ED5002600964FEA1E
:1017C000980C0E68DFF810E146F480460E6000F0D9
:1017D0000C000E6806F480460096009E5EF82C70A1
:1017E00002FA00F627EA06063C4FBC4208BF002773
:1017F00022D03B4FBC4208BF01271DD0394FBC420D
:1018000008BF022718D0384FBC4208BF032713D0A7
:10181000364FBC4208BF04270ED0354FBC4208BF2C
:10182000052709D0334FBC4208BF062704D0324FEA
:10183000BC420CBF0727082707FA00F030434EF8D8
:101840002C006FEA090C2D4806680CEA060E6E683B
:10185000F70348BF49EA0E0EC0F800E046680CEAFC
:10186000060E6E68B70348BF49EA0E0EC0F804E0E2
:1018700086680CEA060E6E68F70248BF49EA0E0E4B
:10188000C0F808E0C6680CEA060E6E68B60248BFEB
:1018900049EA0E0EC0F80CE008F10108B8F10F0F8C
:1018A0007FF62DAFBDE8F18F02B909048161704761
:1018B000426901EA0203914341EA034181617047B1
:1018C0000F4A136803421CBF106000F0CCBE704783
:1018D0000000000044380240083801400000024087
:1018E0000004024000080240000C024000100240C8
:1018F0000014024000180240001C0240003C01405D
:10190000143C014038B586B000200090274C284890
:10191000284D016841F001010160026802F00102F6
:101920000092002200990092036843F010030360C4
:10193000016801F0100100910099009202220368F1
:1019400043F002030360006800F002000090009979
:1019500001920292049201A9012205921648FFF712
:10196000C5FE0122029202210191049100220592FA
:1019700001A92046FFF7BAFE4FF400710191012240
:101980000292022104910022059201A92846FFF744
:10199000ADFE002202212046FFF786FF01224FF410
:1019A00000712846FFF780FF07B030BD00100240ED
:1019B00030380240000402400000024038B5040004
:1019C00001D1012032BD00F0BAF818B900F0B3F827
:1019D00001F031F914E001680A6A41F211131A4268
:1019E00002BF0A6A40F244431A42FFE703D10A6881
:1019F000520852000A60012180F83D100020704713
:101A000002206870211D206800F007FA0120A872EA
:101A1000A870E87028716871A871E87128726872FE
:101A20006870002032BD38B5040001D1012032BDFC
:101A300000F085F818B900F07EF801F083FADFE7CE
:101A40002868036A134270472868DFF82C309842F0
:101A5000704703D1016849084900016005F13E0063
:101A6000704740F2444141F21112704703D1436C78
:101A700023F40043436470470000014070B50C003C
:101A8000054606D0042C07D0082C08D00C2C09D011
:101A90000CE000F058F807E000F046F804E000F031
:101AA0003CF801E000F032F801F092FA00F029F879
:101AB000FFF7CAFF1CBFDFF89C60B042FFF7D1FF01
:101AC00006D1036A134204BF036A0B42FFF7CEFF3D
:101AD000FFF7B6FF04BF026A0A42FFF7BAFF14B964
:101AE000012101700AE0042C02D10121417005E0BE
:101AF000082C07BF012181700122C270002070BD37
:101B0000000028680022214600F0CBBA2868C1688E
:101B100021F48051C160286B70472868C16821F4A6
:101B20000061C160E86A70472868C16821F480617B
:101B3000C160A86A7047002129702046704704F1EF
:101B40003C05687870472868C16821F40071C1605D
:101B5000686A70470004014010B5044620680169B6
:101B60008A0715D5C1688A0712D56FF00201016195
:101B700001222277806910F0030F204602D001F085
:101B80003EFA03E001F03CFA00F087F800202077ED
:101B9000206801694A0715D5C1684A0712D56FF058
:101BA0000401016102222277806910F4407F2046FF
:101BB00002D001F024FA03E001F022FA00F06DF8FF
:101BC00000202077206801690A0715D5C1680A0737
:101BD00012D56FF00801016104222277C06910F06C
:101BE000030F204602D001F00AFA03E001F008FAE0
:101BF00000F053F80020207720680169CA0615D547
:101C0000C168CA0612D56FF010010161082222775F
:101C1000C06910F4407F204602D001F0F0F903E0E3
:101C200001F0EEF900F039F8002020772068016912
:101C3000CA0708D5C168CA0705D56FF0010101615F
:101C4000204601F0DEF9206801690A0608D5C1685E
:101C50000A0605D56FF080010161204601F0D2F936
:101C6000206801694A0608D5C1684A0605D56FF0A3
:101C700040010161204601F0C6F9206801698A0629
:101C80000AD5C1688A0607D56FF020010161204698
:101C9000BDE8104001F0B8B910BD204600F015BDF8
:101CA00038B500F057F801D1022032BD012084F888
:101CB0003C0032B1042A15D0082A25D00C2A34D091
:101CC00044E0206800F0F4F82168886940F00800DA
:101CD0008861886920F0040088618A692869024364
:101CE0008A6133E0206800F00FF92068816941F4CF
:101CF00000618161816921F48061816181692A6962
:101D000041EA0221816121E0206800F02DF921687B
:101D1000C86940F00800C861C86920F00400C861C3
:101D2000CA6928690243CA6110E0206800F04BF9D3
:101D30002068C16941F40061C161C16921F4806119
:101D4000C161C1692A6941EA0221C161002084F8A8
:101D50003C0032BD04460D4694F83C000128704713
:101D600038B500F04EF801D1022032BD01202070BC
:101D700002226270DFF894022A689368034093603D
:101D80000868020018BF10282DD0202818BF30285E
:101D900029D0402823D0502816D0602818D0702889
:101DA00003D0B0F5005F07D021E000F025F82868E7
:101DB000816841F0770105E000F01EF8286881682D
:101DC00041F48041816012E000F012F850210BE0F4
:101DD000CA684968286800F040F9602104E000F012
:101DE00007F8402100E00146286800F048F90EE0BD
:101DF000CA684968286821E1CB684A688968286808
:101E000045E1054605F13C04207801287047012092
:101E1000607000212170002032BDF0B57C4C056857
:101E20007C4B7D4E7D4FDFF8F8C1A04218BFB0F16A
:101E3000804F07D0604518BFB84203D0B04218BFEA
:101E400098420DD14A6825F070051543A04218BF8D
:101E5000B0F1804F17D060451CBFB842B04212D0DD
:101E600098421CBF6F4A90420DD06F4EB0421CBFCB
:101E70006E4A904207D06E4EB0421FBF6D4A9042EC
:101E80006D4EB04203D1CA6825F4407515434A69C6
:101E900025F0800515430560A0428D68C5620A687B
:101EA000826212BF98420969016301224261F0BD5A
:101EB000F0B5026A564F520852000262066A446840
:101EC00085690B688A6825F0730526F002061D43B4
:101ED0001643504BB84218BF984207D1CA6826F043
:101EE00008061643B84226F0040601D0984205D1F0
:101EF0004B698A6924F440741C431443446085612F
:101F0000496841630662F0BDF0B5026A404E22F0B6
:101F100010020262B042056A436884690A6824F4C8
:101F2000E64444EA02248A6825F0200545EA0215C1
:101F3000384A18BF904208D1CF6825F0800545EA9D
:101F40000715B04225F0400501D0904206D14E69F8
:101F50008A6923F44063164343EA8603436084613D
:101F6000496881630562F0BDF0B5026A22F48072AF
:101F70000262056A4368C4698E680A6825F40075C0
:101F800024F0730445EA06251443214E214AB04249
:101F900018BF904208D1CF6825F4006545EA0725AF
:101FA000B04225F4806501D0904206D14E698A691D
:101FB00023F44053164343EA06134360C46149685F
:101FC000C1630562F0BD70B5026A114E22F4805201
:101FD0000262B042046A4268C3690D6823F4E643B2
:101FE00043EA05238D6824F4005444EA05341CBFF9
:101FF000084DA84204D14D6922F4804242EA85127C
:102000004260C36149680164046270BD8800FFFFDB
:102010000000014000040140000C004000080040A6
:1020200000040040004001400044014000480140DD
:1020300000180040001C00400020004010B5036A5A
:10204000046A64086400046223F00A03846924F0CB
:10205000F00444EA021484612EE010B5036A23F010
:10206000100303628369046A23F4704343EA023372
:1020700024F0A004836144EA0114046210BD826864
:1020800022F07002114341F007018160704710B5E2
:10209000846824F47F442143114341EA0321816091
:1020A00010BD10B501F01F01036A01248C40A34349
:1020B000036202FA01F1036A1943016210BD0000D4
:1020C0000901020002D4294881547047284B02F0CC
:1020D0000F021A4402F8041C7047264B19684FF689
:1020E000FF020002114000F4E06008432249084367
:1020F0001860704738B51F4B1C68C4F30223C3F146
:102100000704052C28BF04241D1D072D34BF002300
:10211000DB1E012505FA04F4641E2140994005FAEE
:1021200003F35B1E1A401143BDE83440C8E70100C9
:1021300007D4012200F01F01104B8A40400943F8E8
:102140002020704710B5401EB0F1807F01D30120E0
:1021500010BD0B4C60600F214FF0FF30FFF7B0FF58
:102160000021A16007202060002010BD00E400E0F5
:1021700018ED00E00CED00E00000FA0500E100E0E1
:1021800010E000E038B586B000200090284C2948C7
:10219000294D016841F002010160026802F002026B
:1021A0000092002200990092036843F0020303604A
:1021B000016801F002010091009900924022036839
:1021C00043F0200303600223006800F02000009029
:1021D00020460099019202930493059301A9FFF709
:1021E00085FA01214FF480720291019200210222AE
:1021F0000591049201A92046FFF778FA1021019178
:1022000001220292022104910022059201A928468E
:10221000FFF76CFA00224FF480712046FFF744FB71
:10222000012210212846FFF73FFB07B030BD000018
:1022300000040240303802400014024010B586B05D
:1022400000200090234C2448016841F00401016003
:10225000026802F0040200920022009900920368D2
:1022600043F040030360016801F0400100910099D0
:1022700000924022036843F0400303600223006899
:1022800000F040000090009914480192029303224C
:102290000493059201A9FFF729FA202100F00FF815
:1022A000102100F00CF8002220212046FFF7FCFA54
:1022B000012210212046FFF7F7FA06B010BD019168
:1022C00001220292022104910022059201A92046D6
:1022D000FFF70CBA001802403038024000080240F4
:1022E00010B586B000200090244C2548016841F0CC
:1022F00002010160026802F00202009200220099CD
:102300000092036843F020030360016801F020019C
:102310000091009900920222036843F020030360B9
:10232000006800F02000009000990192029204924F
:10233000059201A91348FFF7D9F94FF4805100F035
:1023400012F84FF4005100F00EF800224FF48051C3
:102350002046FFF7A9FA01224FF400512046FFF76B
:10236000A3FA06B010BD019101220292022104914C
:102370000022059201A92046FFF7B8B900140240D7
:10238000303802400004024038B586B0002000908A
:10239000284C2948294D016841F01001016002686C
:1023A00002F010020092002200990092036843F0AC
:1023B00020030360016801F0200100910099009260
:1023C0004FF40072036843F0400303600223006887
:1023D00000F04000009000991948019202930122F8
:1023E0000493059201A9FFF781F94FF4004101918F
:1023F00001220292022104910022059201A92046A5
:10240000FFF774F901210191029100220221049148
:10241000059201A92846FFF769F900224FF400410F
:102420002046FFF741FA012201212846FFF73CFA36
:1024300007B030BD0014024030380240001802409E
:102440000010024010B586B000200090254C2648B0
:10245000016841F001010160026802F0010200928E
:10246000002200990092036843F0080303600168AA
:1024700001F008010091009900920122036843F0E5
:10248000080303600223006800F008000090009930
:10249000019202930493059301A91448FFF726F9CA
:1024A0004FF4804100F012F84FF4004100F00EF8B4
:1024B00000224FF480412046FFF7F6F901224FF445
:1024C00000412046FFF7F0F906B010BD019101224E
:1024D0000292022104910022059201A92046FFF7F1
:1024E00005B90000000C02403038024000000240F4
:1024F000C1F30A5340F2FE329B1A14DDD3F12003DC
:102500004FEAE17208DDC90241EA505141F0004052
:10251000D84080185040704703F2E13010B1D243E8
:1025200082F000407047002070470000014648B12B
:10253000B0FA80F18840C91CC1F58461090501EB3E
:10254000D02140057047000080B500F05FFD00F02D
:1025500039F84FF4FA6000F073FD00F085FD00F0EB
:10256000E5FE00F0FEFE00F00CFF00F0DBF900F0ED
:1025700011FA00F03AFA00F081FA00F08CFA00F05B
:10258000F9FA00F0B1FF00F0C1FF00F0D1FF00F058
:10259000E1FF01F000F801F00DF800F0C7FA00F0DB
:1025A000B4FA00F0ADF901F06FFA01F06EFA01F043
:1025B00063F901F06BFA01F069FA00F00AF900F032
:1025C00023F9F8E780B592B006A8302101F036FC77
:1025D00001A8142101F032FC002000904FF4803358
:1025E000DFF8C802016841F08051016000210068F5
:1025F00000F0805000900098DFF8B402009102686B
:1026000042F4804202600122006800F480400090A1
:1026100006A80099069202214FF480020C910D92B7
:102620000421A8220E910F920221042207931091F7
:10263000119201F007FC08B100F071F9022102913A
:10264000002203920F204FF4A051019004914FF407
:1026500080520592052101A801F08CFD08B100F01F
:102660005EF913B000BD012800D0704780B511217C
:1026700001F060FEC00704D5DFF83812012001F038
:102680008BFE1121022001F055FE800704D5DFF8F2
:102690002812022001F080FE1121032001F04AFEE1
:1026A000400704D5DFF81412032001F075FE112154
:1026B000042001F03FFE000706D5BDE80440DFF826
:1026C0000012042001F068BE01BDDFF8F82190423D
:1026D00008BF002104D0DFF8F021904203D104218B
:1026E0001046FFF7CBB9704710B50068DFF8DC3152
:1026F000DFF8DC11984201F5C1620BD11088FD288A
:1027000004DA0C780B18401C1C7210800122DFF8D0
:10271000C40158E0DFF8C03198420DD15088FD283F
:1027200005DA4C780B18401C83F8084150800122D0
:10273000491CDFF8A80146E0DFF8A43198420DD12A
:102740009088FD2805DA8C780B18401C83F8084225
:1027500090800122891CDFF8500134E0DFF88431D9
:1027600098420DD1D088FD2805DACC780B18401C92
:1027700083F80843D0800122C91CDFF86C0122E0F5
:10278000DFF8683198420DD11089FD2805DA0C79FF
:102790000B18401C83F8084410810122091DDFF842
:1027A000500110E0DFF84C31984210D15089FD28DB
:1027B00005DA4C790B18401C83F80845508101223A
:1027C000491DDFF83401BDE8104001F09FBE10BD87
:1027D000704780B502F0E4F802F04EF902F096FA84
:1027E00002F000FB02F02EFC02F098FC02F0C6FDA5
:1027F00002F030FE02F05EFF02F0C8FF03F0F6F8D0
:10280000BDE8014003F05EB938B53C4C04F18405E5
:10281000E86A012846D10021E962642000F010FC3A
:10282000206F2268E36E00900021606802EB004296
:102830000120FEF7A3FAE06FA268A36F00900021C9
:10284000E06802EB00420220FEF798FA68686169CE
:1028500022692B68009002EB014200210320FEF761
:102860008DFA2869A269EB6800900021E06902EB0B
:1028700000420420FEF782FAE869226AAB69009000
:102880000021606A02EB00420520FEF777FAA86A91
:10289000A26A6B6A00900021E06A02EB0042062007
:1028A000FEF76CFA31BD00005C8500204038024024
:1028B00000700040B4780020B4790020B47A002081
:1028C000B47B00200C8200205482002000100140C4
:1028D000A06C0020D4840020004400401885002013
:1028E00000480040004C00404C8400200050004054
:1028F0009084002000140140A085002010000020DA
:1029000080B5FEF7E5F8FEF72BF9FEF76AF9FEF75A
:1029100096F9FEF7D8F9BDE80140FEF70DBA72B698
:10292000FEE70000D8B595B011A800F08FF80FF2BF
:10293000D4540AA800F09BF802A8202101F07EFAE6
:10294000DFF86C45DFF86C052060A721616040F27C
:10295000E7300022E0608021A26022616261A16113
:1029600000F005F908B1FFF7DAFF4FF4805011903D
:1029700011A900F037F808B1FFF7D1FF00F059F8BE
:1029800008B1FFF7CCFF2021009100220192694697
:10299000204623E1D8B58DB000F057F80FF26C5403
:1029A00000F064F8DFF810454FF0804000F051F877
:1029B00008B1FFF7B4FF00F011F808B1FFF7AFFF5F
:1029C00000F037F808B1FFF7AAFF00F097F808B158
:1029D000FFF7A5FF00F030F8042284E04FF48050A8
:1029E000099009A92046FFF7BBB9D8B58DB000F012
:1029F0002CF80FF2205400F039F8DFF8C044DFF86B
:102A0000C00400F026F808B1FFF789FFFFF7E6FFE2
:102A100008B1FFF784FF00F00CF808B1FFF77FFF63
:102A200000F06CF808B1FFF77AFF00F005F80C220F
:102A300059E02046FEF7F7BF7021029100220221E3
:102A400003920491069202A9704709A8102101F08F
:102A5000F5B92060532140F2E7300022E060616068
:102A6000A2602261A2612046FEF7A8BF02A8D4E9B5
:102A70000067CDE900671C2101F0E0B9D8B58DB041
:102A8000FFF7E3FF0FF29444FFF7F0FFDFF8344461
:102A9000DFF834040BE0D8B58DB0FFF7D6FF0FF2A6
:102AA0008444FFF7E3FFDFF82444DFF82404FFF752
:102AB000D0FF08B1FFF733FFFFF790FF08B1FFF732
:102AC0002EFFFFF7B6FF08B1FFF729FF00F016F859
:102AD00008B1FFF724FF7021029100220221049126
:102AE0000392069202A92046FFF7DAF808B1FFF731
:102AF00016FF204600F040F90EB0D0BD0021009135
:102B000001912046694603F00DB91CB50FF21C4037
:102B1000DFF8C04300F024F800226160A2604FF4A7
:102B20007A71DFF8B403206080220DE01CB50FF24B
:102B30000440DFF8A84300F013F861600022DFF8DA
:102B4000A00320600121A260E16000F00FF808B14D
:102B5000FFF7E5FEFFF7D2FF08B1FFF7E0FE13BD78
:102B6000D0E90023CDE9002353217047A26120461C
:102B7000FEF724BFD8B595B011A8FFF767FF0FF295
:102B8000BC340AA8FFF773FF02A8202101F056F910
:102B9000DFF85043DFF850032060A72140F2E73010
:102BA0000022E0606160A26022616261FFF7DEFFE7
:102BB00008B1FFF7B4FE4FF48050119011A9FFF750
:102BC00011FF08B1FFF7ABFEFFF733FF08B1FFF7C6
:102BD000A6FE0021009101912046694603F0A2F86B
:102BE00008B1FFF79CFE02220C92702000210A908F
:102BF0000B910D9100220F910E9210920AA920467E
:102C0000FFF74EF808B1FFF78AFE00204FF400519D
:102C1000029003900490059006900791099002A9F4
:102C2000204603F0C5F808B1FFF779FE204600F012
:102C3000A3F816B0D0BD80B50168DFF87822DFF8C0
:102C4000AC02914210D100210091426842F0010291
:102C500042600022406800F00100009000981920B6
:102C6000FFF748FA19207AE0B1F1804F0ED100F059
:102C70007FF842F0010200F077F800F001000090C8
:102C800000981C20FFF736FA1C2068E08C4A91421D
:102C90000ED100F06DF842F0020200F065F800F08D
:102CA0000200009000981D20FFF724FA1D2056E036
:102CB000854A91420ED100F05BF842F0040200F028
:102CC00053F800F00400009000981E20FFF712FA5D
:102CD0001E2044E07E4A91420ED100F049F842F0B5
:102CE000080200F041F800F008000090009832203F
:102CF000FFF700FA322032E0774A91420ED100F01D
:102D000037F842F0100200F02FF800F010000090A9
:102D100000983620FFF7EEF9362020E0704A914205
:102D20000AD100F025F842F020020260006800F0AD
:102D300020000090009801BD6B4A914213D1002100
:102D40000091426842F0020242600022406800F0B6
:102D50000200009000982C20FFF7CCF92C20BDE851
:102D60000240FFF7E4B901BD02600022006870472D
:102D7000002100910268704710B586B0044668468D
:102D8000142101F05BF823684A485949834211D164
:102D9000002205920222086840F0100008600968CD
:102DA00001F0100105914FF400710598514800F0B1
:102DB00079F86AE0B3F1804F4F4A12D100200590B4
:102DC0000B6843F001030B60086800F001000590F8
:102DD0000221059800910191104601210291039171
:102DE00053E0374C4548A3420ED1002205920222FF
:102DF0000B6843F002030B6000F04DF80192694646
:102E000001220292039211E02F4CA34211D1002221
:102E1000059240220B6843F002030B60022300F08E
:102E20003AF8019301220292039269460222049227
:102E30002DE02748834214D100230593022308681C
:102E400040F001000860096801F0010105910121CD
:102E500005980091019300210291039110460221EF
:102E600013E02148834214D100220592022208680F
:102E700040F004000860096801F004010591402158
:102E800005981F4800F00EF8032104916946FEF7EB
:102E90002DFC06B010BD096801F0020105910599ED
:102EA00000927047009101920121029103917047B5
:102EB0000C82002000000140548200209C820020EF
:102EC00000040040E4820020000800402C83002021
:102ED000000C00407483002000100040BC830020E0
:102EE00000140040048400200004014040380240E7
:102EF000303802400010024000000240000402404E
:102F00000008024000000000000000000000000077
:102F100000000000000000000000000000000000B1
:102F200000000000000000000000000000000000A1
:102F30000000000000000000000000000000000091
:102F40000000000070470000F8B5064606F13404A2
:102F5000656A02F057FF07466078022805D0802195
:102F60002162002020700120F2BD3068016821F04C
:102F7000160101603068416921F080014161E0681B
:102F8000002804BF6069002802D0306800F032F8E1
:102F90003068016849084900016030680168CA0763
:102FA0000CD502F02FFFC01B0628F6D3202020628C
:102FB00000212170032262700320F2BDA06A3F212C
:102FC0008140A96001220021217062700020F2BDC1
:102FD00090F83510022903D0802242650120704705
:102FE000052180F83510006802685208520002601E
:102FF00000207047016821F00801016070477047A8
:1030000070477047704770477047000080B50B48A5
:10301000016841F400710160026842F4806202605C
:10302000016841F4807101600320FFF756F8002029
:1030300002F0EEFE02F00CFF002002BD003C024058
:1030400038B5044602F0DEFE14F1010F054602D049
:1030500004480178641802F0D5FE401BA042FAD360
:1030600031BD00BF000000202DE9F84F86B0684652
:10307000142100F0E3FE00248F48904D904EDFF8BD
:1030800044B2DFF84482DFF84492DFF844A20594AA
:103090004FF21007016841F010010160026802F070
:1030A00010020592012205990594036843F0040378
:1030B0000360016801F0040100F032F943F02003DD
:1030C0000360016801F0200100F02AF943F0800359
:1030D0000360016801F0800100F022F943F0010370
:1030E0000360016801F0010100F01AF943F00203E6
:1030F0000360016801F0020100F012F943F040039F
:103100000360016801F04001059105990594394675
:103110000368704C43F008030360006800F0080087
:10312000059005982046FEF7BFFB012242F23F01C1
:103130002846FEF7B9FB01224CF23B113046FEF760
:10314000B3FB00224FF4E0712846FEF7ADFB0122ED
:103150004FF460715846FEF7A7FB01224FF4194166
:103160004046FEF7A1FB01224FF460714846FEF78E
:103170009BFB012203215046FEF796FB4FF6DC50E5
:1031800000F0BBF85046FEF7B1FA0F2000F0B5F89A
:103190002046FEF7ABFA009700F0A9F820466946F2
:1031A000FEF7A4FA01204C490090019100220292FE
:1031B00000F094F8302000F0A0F800F090F8012022
:1031C00000F09BF84846FEF791FA4FF400600021AA
:1031D000009001910122029269462046FEF786FA8C
:1031E00000F09AF83F2100910022039200F090F83D
:1031F00000F092F84FF480710091022200F072F812
:103200004FF4725000F079F800F06EF800F084F896
:103210004CF23B010091002200F064F84FF4A071E1
:103220000091012200F070F880210091112200F03D
:103230006BF80121019102914FF460740021039118
:10324000009400F04BF800F067F84FF4194100913A
:103250000022039269464046FEF748FA4FF41C40AC
:103260000090002101910222029200F051F800F03A
:1032700053F84FF4005100910322039200F048F8F4
:1032800000F035F8009469464846FEF72FFA00F042
:1032900043F8032100910022039269465046FEF74D
:1032A00025FA002200210620FEF724FF0620FEF763
:1032B0003EFF07B0BDE8F08F3038024000180240F2
:1032C000000C0240000802400000024000040240DE
:1032D00000100240001402400000111069465846D8
:1032E000FEF704BA039269463046FEF7FFB90120A3
:1032F00000210190029003917047002100900191FC
:1033000002220292694670470021029103910192C4
:1033100069462846FEF7EAB90122019202927047F7
:1033200005910599059403687047000080B56548CC
:10333000654901604FF4827218214260C161002327
:103340004FF480220A218360C3600361436182617C
:10335000036243628362C16202F098FD00B10CE037
:1033600001BD80B559485A4900F017F84FF4802242
:1033700000F019F800B100E001BDBDE80140FFF721
:10338000CEBA80B55348544900F007F84FF40072A4
:1033900000F009F800B1F0E701BD01604FF482725E
:1033A0004260002370470A218360C3600361436168
:1033B0008261C361036243628362C16202F066BDDF
:1033C00010B586B004466846142100F037FD226827
:1033D0003D484249824220D100220592486940F48A
:1033E00080504861486900F4805005900598059226
:1033F00002220B6843F001030B60086800F0010033
:103400000590F02105983648009101920021029123
:1034100003220521049103922EE02D4B31489A425C
:1034200013D1002205920B6943F480430B61002302
:103430000A6902F480420592059A05934FF470429E
:1034400000F01FF80393052215E0234B9A4216D192
:10345000002205920B6943F400430B6100230A69C3
:1034600002F400420592059A0593382200F009F80B
:1034700003230393062204926946FEF737F906B048
:1034800010BD0C6844F002040C600223096801F0CE
:103490000201059105990092019300220292704762
:1034A00001B582B000F007F80648FFE702F04CFDD6
:1034B0009DF804000EBD4FF47A700090012301AA1C
:1034C00002A970470C7F002000300140647F00207B
:1034D00000380040BC7F0020003C004030380240F3
:1034E000000002400004024010B5DFF82C43DFF872
:1034F0002C0300F041F808B1FFF711FA2046BDE8AF
:1035000010400122DFF8181301F000B810B5DFF801
:103510001443DFF8140300F02FF808B1FFF7FFF9A8
:103520002046BDE810400122DFF8001300F0EEBF96
:1035300010B5DFF8FC42DFF8FC0200F01DF808B11E
:10354000FFF7EDF92046BDE810400122DFF8E81250
:1035500000F0DCBF10B5DFF8E442DFF8E40200F071
:103560000BF808B1FFF7DBF92046BDE81040012257
:10357000DFF8D01200F0CABF20604FF461410C2088
:10358000002260616160A260E2602261A261E2618A
:10359000204600F027BF10B5AB4CAC48FFF7ECFF5E
:1035A00008B1FFF7BCF92046BDE810400122A84948
:1035B00000F0ACBF10B5A74CA748FFF7DDFF08B17E
:1035C000FFF7ADF92046BDE810400122A34900F005
:1035D0009DBF38B586B004466846142100F02EFC25
:1035E00023688E4C9E489F49A3424FF4406227D1E6
:1035F000002305930C6944F400240C6100240B693A
:1036000003F400230593059B05940D6845F004051C
:103610000D600B6803F0040305936946059B009257
:103620000123029303930222082301920493FEF7DD
:103630005DF8002200213420FEF75CFD3420CDE04F
:10364000794CA3423ED1002205920B6943F48013CA
:103650000B6100230A6902F4801200F0C3F80C68C1
:1036600044F004040C600A6802F0040200F0BAF8A6
:103670004FF480520C6844F008040C60022309687F
:1036800001F008010591059900920193012202922F
:103690000392694608220492FEF728F8012202925A
:1036A00003920420022100900191082204926946AD
:1036B0006D48FEF71BF8002200213520FEF71AFDA9
:1036C00035208BE05B4C6948A34216D1002205925D
:1036D0004B6943F010034B6100234A6902F010026A
:1036E00000F080F84FF4C06200F080F80022002162
:1036F0002520FEF7FFFC252070E0514CA34215D198
:10370000002205920B6943F400330B6100230A6920
:1037100002F4003200F066F80C2200F067F8002294
:1037200000212620FEF7E6FC262057E0474883428A
:1037300027D100230593086940F4802008610869B7
:1037400000F4802005900598494805930C6844F0E2
:1037500002040C60096801F00201059105990092CC
:1037600007210222019204910122029303926946E9
:10377000FDF7BCFF002200212720FEF7BBFC27201D
:103780002CE0354883422BD100220592486940F055
:1037900020004861486900F02000059005980592D6
:1037A00002220B6843F040030B60086800F0400001
:1037B00005904FF4844105982E4800910192002114
:1037C000029101220821049103926946FDF78EFFC0
:1037D000002200214720FEF78DFC4720FEF7A7FCC2
:1037E00007B030BD0592059A059370470C6844F008
:1037F00001040C600223096801F00101059105999B
:103800000092019300220292012307220393049263
:103810006946FDF76BBF00004C840020004C00405F
:10382000A36C00209084002000500040A46C002075
:10383000D484002000100140A06C002018850020D6
:1038400000440040A16C00205C850020004800403E
:10385000A26C0020A085002000140140A56C00206F
:103860000008024030380240000C024000000240D4
:103870000004024000180240F0B5DFF8F804DFF859
:10388000F844DFF8F854DFF8F8746421A0F828123F
:1038900040F2E57200F204514FF4A7730A804B80A6
:1038A0000121DFF8E02411700023DFF8DC2423700D
:1038B00013700126DFF8D444DFF8D424237013708A
:1038C000DFF8D044DFF8D02423701370DFF8CC4445
:1038D000DFF8CC2423701170DFF8C8442170DFF8C2
:1038E000C814DFF8C84401F1C80213602B70966752
:1038F000267044F2A015DFF8B8644B1933603B60C2
:10390000002401F5DE73DFF8AC641C605C609C6130
:10391000DC611C625C629C62DC62347014679466D9
:103920001C665C669C66DC661C675C679C64DC6489
:103930001C655C659C65DC6501F5627201F51373BD
:103940000026DFF87454D4601C605C609E60DC600C
:103950001C615C612C7000F5DF730124DC851E8026
:10396000012516609D85A0F866610023DFF84C44B0
:10397000DFF84C64DFF84C5423603360DFF84844D0
:10398000DFF8486423603360DFF84444DFF84464C0
:1039900023603360DFF84044DFF840642360336025
:1039A000DFF83C44DFF83C6423603360DFF83844E0
:1039B000DFF838642360336013652B70DFF8306400
:1039C000DFF8305433702B70DFF82C64DFF82C54A0
:1039D00033702B70DFF82864337093650022DFF8B2
:1039E00024341A70012243F6A043502454430C445B
:1039F000E250521C102AF8DB0122A02353430B444F
:103A000003F582442260521C1F2AF6DB01F20C42AD
:103A10000123136053609360D360136153610022EC
:103A2000DFF8E443DFF8E453DFF8E43322702A7070
:103A3000DFF8E043DFF8E05322702A70DFF8DC4360
:103A4000DFF8DC5322702A70DFF8D843227020F8A8
:103A5000E82F42808280C2800281428101F294403C
:103A6000DFF8C4130260426082600A801A80DFF8C7
:103A7000BC13DFF8BC330A801A80DFF8B813DFF814
:103A8000B8330A801A80F0BD70477047F0B5DFF890
:103A9000E41201F58D754FF46142E88901281EBFDB
:103AA00002280120E8812888B0F5166F18BFB0F50C
:103AB000965F0BD0B0F5165F18BFB0F5964F05D0E6
:103AC000B0F5164F1CBFB0F5614F2A806888B0F57D
:103AD000166F18BFB0F5965F0BD0B0F5165F18BF24
:103AE000B0F5964F05D0B0F5164F1CBFB0F5614F3D
:103AF0006A80A888B0F5166F18BFB0F5965F0BD036
:103B0000B0F5165F18BFB0F5964F05D0B0F5164F5B
:103B10001CBFB0F5614FAA80E88AB0F5166F18BFD8
:103B2000B0F5965F0BD0B0F5165F18BFB0F5964FA5
:103B300005D0B0F5164F1CBFB0F5614FEA82288B57
:103B4000B0F5166F18BFB0F5965F0BD0B0F5165FE5
:103B500018BFB0F5964F05D0B0F5164F1CBFB0F5A5
:103B6000614F2A83904A02F501700368B3F5803FE4
:103B7000A4BF002404604368B3F5803FA4BF0024C1
:103B800044608368B3F5803FA4BF00248460C368A9
:103B9000B3F5803FA4BF0024C4600369B3F5803F40
:103BA000A4BF002404614369B3F5803F01F15403CD
:103BB000A4BF002444611888062800DA08B901204F
:103BC000188002F561708468002CD8BF012402DDE2
:103BD000102C01DB0F2484600468002CD8BF012462
:103BE00002DD1E2C01DD1E240460D2F874040028BE
:103BF0004FF4FA7403DC0120C2F8740404E0B0F559
:103C0000FA7FC8BFC2F87444A88C08B90126AE84F4
:103C1000E88C08B90126EE84288D08B901262E8586
:103C2000688D08B904266E85A88D08B90526AE856D
:103C3000E88D08B90626EE8542F210755668002E0A
:103C400002BF106800281560106F08B96426166757
:103C50004FF47A76D06E00B9D666888900B98D8126
:103C6000C88900B9CD81088A00B90D82888A00B957
:103C70008C82D068002802BF906800289560D06FC1
:103C800008B96427D767906F00B99667888D00B927
:103C90008D85C88D00B9CD85088E00B90D86488EFA
:103CA00000B94C865069002802F1840702BF1069F0
:103CB00000281561786808B964207860386800B910
:103CC0003E60D88B00B9DD83188C00B91D84588CF8
:103CD00000B95D84988C00B99C84D069002802BF2B
:103CE000906900289561386908B964203861F868DE
:103CF00000B9FE60988F00B99D87D88F00B9DD8725
:103D000031F8940F00B90D80488800B94C80506A92
:103D1000002802BF106A00281562F86908B96423F8
:103D2000FB61B86900B9BE61488B00B94D83888BCF
:103D300000B98D83C88B00B9CD83088C00B90C8481
:103D4000D06A002802BF906A00289562B86A08B954
:103D50006422BA62786A00B97E62088F00B90D8762
:103D6000488F00B94D87888F00B98D87C88F00B9FB
:103D7000CC87F0BD1066002084860020818600205C
:103D8000F08500207A860020838600207C86002033
:103D9000808600207E8600207F8600207D86002091
:103DA0008286002086860020100000207B8600206E
:103DB000EC8500208586002088860020F485002080
:103DC000F88500208A860020FC85002000860020DF
:103DD00004860020088600200C8600201086002023
:103DE00014860020188600201C86002020860020D3
:103DF0008B8600208C8600208D8600208E860020F9
:103E00008F860020898600209086002091860020E1
:103E10004086002092860020938600209486002011
:103E20009586002096860020328600204E8600204F
:103E30005C8600206A86002078860020002202F03E
:103E40001DBA00002DE9F843040016D02078DFF8F1
:103E50001463C10713D5B06800F00C00042807D024
:103E6000B06800F00C0008283ED1706841023BD5D4
:103E70003068810303D56068002800F00581207850
:103E8000B94F810719D5B06810F00C0F07D0B06892
:103E900000F00C0008285CD17068410259D43068E9
:103EA000810703D5E068012840F0EE803168206981
:103EB00021F0F80141EAC0013160217808076CD592
:103EC0006069AA49002862D001220A6001F09AFFC5
:103ED0000546706F810700F1D98001F093FF401B08
:103EE0000228F6D903203AE16068B0F5803F04D19A
:103EF000306840F48030306011E0B0F5A02F3068B9
:103F000006D140F480203060316841F4803105E012
:103F100020F480303060316821F4802131606068A5
:103F200058B101F06FFF054630688103A7D401F056
:103F300069FF401B6528F7D3D4E701F063FF05460E
:103F4000306881039BD501F05DFF401B6528F7D3E6
:103F5000C8E7E06870B10121396001F053FF054600
:103F60003068810700F1BE8001F04CFF401B022841
:103F7000F6D9B7E7386001F045FF05463168880794
:103F80009BD501F03FFF401B0228F7D9AAE7086044
:103F900001F038FF0546706F810777D501F032FFD9
:103FA000401B0228F7D99DE70528306F06D140F065
:103FB00004003067306F40F0010005E04008400029
:103FC0003067306F20F00400306741F28938A06814
:103FD00068B101F017FF8146306F810700F18F80D3
:103FE00001F010FFA0EB09004045F5D37AE701F09E
:103FF00009FF8146306F810740F1818001F002FFA7
:10400000A0EB09004045F5D36CE701F0FBFE401B37
:10401000022840F2878065E701F0F4FE001B0228C9
:1040200040F298805EE70020386601F0EBFE04461F
:104030003068810140F1928001F0E4FE001B02280B
:10404000F6D94FE701281FD07068E26900F48001BB
:10405000914202BF00F03F01226A914201BF47F640
:10406000C0710140626AB1EB821F0DD1A26A520891
:1040700000F44031521EB1EB024F02BF00F07060FD
:10408000E16AB0EB016F69D0012068E02078410758
:104090003AD5306C0025C1000AD400950125316C59
:1040A00041F080513164306C00F0805000900098F5
:1040B000DFF8BC80D8F80000C1051BD4D8F8000098
:1040C00040F48070C8F8000001F09CFE8146D8F8EA
:1040D0000000C1050ED401F095FEA0EB09000228F6
:1040E000F5D9FFE63068216920F0F80040EAC10008
:1040F0003060E2E6A06801287FF456AF5AE71DB1B0
:10410000306C20F080503064A06938B3B16801F0A1
:104110000C01082996D0022885D10020386601F0CC
:1041200071FE0546306881013FF56FAFE269206A94
:10413000616A0243A06A400842EA8112401E42EAD4
:104140000042E06A42EA006272600121396601F0D1
:1041500059FE0446306881017FF55EAF0020BDE85E
:10416000F28300BF0038024000004742800E474201
:10417000007000402DE9F04104000F4678D0494E10
:10418000306800F00700B84202D200F073F86FD137
:104190002068454D810712D5400703D5A96841F431
:1041A000E051A9602078010703D5A86840F4604079
:1041B000A860A968A06821F0F0010143A9602178F6
:1041C000C8074DD56068012802D129688A0305E037
:1041D000022818BF032803D129688A0103D447E0C5
:1041E00029688A0744D5A968890840EA8100A8603F
:1041F00001F008FE8046A868616800F00C00B0EB92
:10420000810F2DD001F0FEFDA0EB080041F28931B5
:104210008842F0D3032021E02078410705D5AA6821
:10422000E06822F4E0520243AA602178080706D52C
:10423000A968206921F4604141EAC001A96000F049
:104240003FF8AA6819491A4BC2F30312895CC840A7
:1042500018601848006801F0DBFD0020BDE8F0811F
:10426000306800F007008742D6D200F003F8D3D0C0
:104270000120F3E73770316801F00701B942704758
:104280000B480D4A006813680C49C3F3822206E00C
:104290000748094A006813680849C3F34232895C39
:1042A000C8407047003C024000380240EC690008FA
:1042B0000C00002008000020083802400C6B0008A9
:1042C00030B5144C606800F00C00042802D00828B7
:1042D00002D01DE0104830BD226820680023410252
:1042E00002F03F0204D525680B49C5F3881003E0AE
:1042F00020680A49C0F38810A1FB000101F0D8FF33
:104300002168C1F30141491C4900B0FBF1F030BD07
:10431000024830BD0438024000127A000024F40044
:10432000012200E0002210210148FDF7BDBA000083
:104330000000024038B504460D46FFF7F3FF05EBD9
:1043400004153035E8B2FFF7ABF80020FFF7A8F806
:104350000446FFF7E5FF204632BDBDE87040DFE7C9
:1043600004460D461646DDE770B5FFF7F9FF240158
:10437000B034E0B2FFF794F8002405E00020FFF726
:104380008FF8E1B2641C6854E0B2B042F6D3E4E7BF
:1043900000000A212846CDE72DE9F0418846054670
:1043A0000821FFF7C7FF002710F0030F17D00B21DC
:1043B000FFF7F0FF0646FFF7ECFF0446FFF7E9FFC3
:1043C000310707D5A042B8BF0446002C0CBF4FF4FC
:1043D000807727463A4641462846FFF7C5FF3846CC
:1043E000BDE8F08138B5040001D1012032BD00F0F4
:1043F00026F808B900F014F800F017F800F023F8D8
:10440000FFE7416100F001F832BD2068C16841F466
:104410000051C1600020686020216970A970704758
:10442000002129702046FFF7D4B824206870206846
:10443000C16821F40051C160204600F04DBA04F17A
:104440003C05687870472068016921F4904101615A
:104450002068416921F02A0170472DE9F84305469B
:1044600005F13C060C46707820281746994642D143
:104470000CB1380001D101203EE0307801283AD05B
:1044800001213170002070602122727001F0BAFCAD
:10449000AF848046EF84A868B0F5805F04BF2869C8
:1044A00000280EBF27462046002700213170044611
:1044B0000EE014F8012B426007E02868002CF8D1C8
:1044C00037F8021BC1F308014160E88C411EE98402
:1044D0004346E88CCDF8009000280FD000228021C0
:1044E000284600F042F90028E7D0032004E020200D
:1044F0007070002000E00220BDE8F283002240211D
:10450000284600F032F90028F1D0EEE738B500F186
:1045100030039C7B202C0FD109B1140001D1012064
:1045200032BD1C7B012C07D001241C7300251D60AB
:10453000BDE8384000F04BB9022032BD00202063B6
:1045400010BDC16020684169490849004161704758
:10455000416921F040014161A06B70477CB5044680
:1045600022681168D568536911F00F0007D18806D9
:104570005FD5AB065DD52046BDE8764060E1D80743
:1045800002D415F4907F54D0C80705D5EA0503D5A9
:10459000206C40F001002064480705D5DA0703D5F8
:1045A000206C40F002002064880705D5DA0703D5A7
:1045B000206C40F004002064080707D5AA0601D447
:1045C000D80703D5226C42F008022264206C002830
:1045D0002ED0880604D5A90644BF204600F030F945
:1045E00020684069216C0A0701D440061BD520468B
:1045F00000F008F9206841694A060FD5FFF7A8FFC7
:1046000060B10FF231210165A06BFEF7E1FC0028DB
:104610000ED0A06B016DBDE87C4008472046BDE888
:10462000764001F0C8BE204601F0C5FE002020649F
:1046300073BD206B012804F13D0354D1C80652D547
:10464000EE0650D500210091156800955168009143
:1046500000985169480625D5A16B0868406880B26A
:1046600000287BD0A58DA84278DAE085C869B0F52E
:10467000807F13D0D06820F48070D060FFF762FF95
:104680002068416921F040014161202058700021DB
:10469000216300F064F8A06BFEF756FCA18DE08D5D
:1046A000091A1AE0A08DE18D411AE08D00281CBF87
:1046B00088B2002852D0D06820F49070D060206872
:1046C0004269520852004261202058700022226341
:1046D0002068C26822F01002C2602046BDE87C401B
:1046E00089B201F069BE080629D52E0627D51878AB
:1046F000212833D1A068B0F5805F04BF206900286D
:1047000008D1206A0188C1F308015160206A811C28
:10471000216204E0206A411C216200785060E08C34
:10472000401EE08480B2C8B92068C16821F08001D1
:10473000C1602068C16841F04001C16073BD480696
:104740000CD569060AD5D06820F04000D060202141
:1047500019702046BDE87640FEF73AB873BD206870
:10476000C16821F01001C16070472DE9F041069C3D
:1047700005460E4690461F46286801683140B14202
:104780000CBF01200020404517D114F1010FF3D0D8
:1047900024B101F037FBC01B8442EDD22868C16808
:1047A00021F4D07100F00CF805F13C00202141709B
:1047B000817000210170032000E00020BDE8F0813D
:1047C000C1602868416949084900416170478162B8
:1047D0008285C28500F13C0100224A6022238B7051
:1047E0000A700168CB6843F48073CB6001684A6942
:1047F00042F001024A610068C16841F02001C160D5
:10480000002070470168CA6822F49072CA6001688B
:104810004A69520852004A61016B012904D10168BA
:10482000CA6822F01002CA60202180F83E100022DF
:1048300002637047806B0021C185C18401F0BBBD5C
:1048400010B5044694F83E00222843D1A068A16A1E
:10485000B0F5805F0AD1206968B922685068C0F35A
:1048600008000880A16A881CA0620FE0002804BF2D
:104870002069002802D12268506803E0206840685F
:1048800000F07F000870A06A411CA162E08D401E0C
:10489000E08580B2E0B92068C16821F02001C160E4
:1048A0002068C16821F48071FFF74BFE202084F856
:1048B0003E00216B012906D1FFF751FF2046A18D53
:1048C00001F07AFD02E02046FDF70EFFFFF736BE4D
:1048D000002010BD022010BD70B504462268116989
:1048E000E06821F4405101431161D3682648A16872
:1048F000034020690B4361690343E0690B430343B1
:10490000D3605169A06921F44071014351611F498D
:104910008A421CBF1E48824202D1FFF7B9FC01E067
:10492000FFF7AEFC62682568E46964261921B4F5D6
:10493000004FA1FB000112D1D30F520001F0B8FCCF
:1049400000F028F8F60032366420B6FBF0F04200A2
:1049500002F4F87202EB011200F0070010E0930F6E
:10496000920001F0A5FC00F015F836013236642003
:10497000B6FBF0F000F0F00202EB011200F00F00C5
:104980008018A86070BD0000F369FFFF00100140AF
:10499000001401406421B0FBF1F106FB11067047E1
:1049A0002DE9F041C14D28880024002862D0C0497B
:1049B000C04A097813888B425CD01180BE490A88AE
:1049C000521C0A8092B2062A54DBBC4ABC4E1080AC
:1049D0000746B7F5807F0C8035DABA4A3178B2F8ED
:1049E0003E31994230D1811EC9B2304600F046F9BD
:1049F000F119020A11F8023D9A4202BF4978C0B289
:104A000088421ED17178B048032902D10121AF4AF2
:104A10000EE0102902D10121AD4A09E0012903D19C
:104A2000AC49012008700FE0062908D10121AA4AEB
:104A30001170B378F17801EB0321018004E00124C7
:104A400002E0022400E00424A44FDFF89482012253
:104A500041463846FFF75AFD0020288054B1142102
:104A6000304601F0ABFC41463846BDE8F04101223A
:104A7000FFF74CBDBDE8F0812DE9FC4E9249994A03
:104A80000B88DFF83CC2914DDFF838929CF805E0C6
:104A90009CF801702978DFF850A21E4602EB8604CC
:104AA000019409EB46020020009241F2883B8F4CB2
:104AB000A9B39CF80000207067704FEA4E00A07008
:104AC000B6F5006FB9F8280110DA012812D10020DC
:104AD000E31C704513DA009931F810100A0A03F844
:104AE0001020221D02F81010401CF2E75E45C0F2B3
:104AF000A180012840F09E800020E61C704580F2D5
:104B00009980019901EB800252F80A100B041B0EE8
:104B100006F81030221D02F81010401CEEE76E4916
:104B20006B4A0978127851EA02054CD041F271754E
:104B3000AE4204DBB9F81250B5F5FA6F14D101207A
:104B4000A3F12D05072D04D2694D2D3B2B80694D16
:104B50002870002940D09CF80410B6F5006F0EEBC9
:104B6000012232DA29F816200221217067709CF8A0
:104B70000220A2709CF80310E1709CF804202271BE
:104B800084F805E010B9FF202071607106212046ED
:104B900000F074F8584A010A108002B0A171E07167
:104BA000082056494A4B088000224B494B481A704E
:104BB0000A702146524B1A804FF6FF73BDE8F04E43
:104BC0000822FFF74ABCBDE8F38E5E45CCDB4549C1
:104BD000514441F82620C7E7002AC5D0BEF1640F32
:104BE000C2DAB6F5006F10DA7145BDDA0CF10702D2
:104BF00012F811300CF1080212F81150009A05EB6E
:104C0000032322F81130491CEEE75E45ACDB714509
:104C1000AADA0CF1070212F811300CF1080212F8AE
:104C20001150019A02EB810605EB032346F80A3086
:104C3000491CECE7A178C91CC9B2204600F01EF857
:104C40002D490880E31CA178020A5A54221DA3783A
:104C5000D0540021A2782948521D028029704FF6B5
:104C6000FF73274D1D48298092B22146FFF7F5FBBF
:104C7000BDE8FC4E20212348FCF71ABE70B5024661
:104C8000214CFF23FF2004F5807606E012F8015B3B
:104C90005D400346605D4340705D0D46691EEDB2A8
:104CA000002DF3D140EA032070BD0000A87200205F
:104CB000E4850020308600203286002028860020EF
:104CC000A86C0020106600202E8600209786002009
:104CD00098860020998600209A860020D48400209F
:104CE000A06C002010000020E0B1FFFFB472002093
:104CF00024860020878600202C8600202A8600201B
:104D000026860020000C0240706600082DE9F04164
:104D1000B54D28880024002862D0B449B44A0978E7
:104D200013888B425CD01180B2490A88521C0A80D9
:104D300092B2062A54DBB04FB04E3880B0F5807F77
:104D40000C8036DAAE493278B1F840319A4231D12E
:104D5000811EC9B23046FFF791FF3A883244911E56
:104D6000030A0F78BB4202BF4978C0B288421ED105
:104D70007178A448032902D10121A34A0EE0102929
:104D800002D10121A14A09E0012903D1A049012052
:104D900008700FE0062908D101219E4A1170B378EE
:104DA000F17801EB0321018004E0012402E00224F8
:104DB00000E00424984FDFF864820122414638461F
:104DC000FFF7A4FB0020288054B11421304601F0E5
:104DD000F5FA41463846BDE8F0410122FFF796BB9F
:104DE000BDE8F0812DE9FC4E86498D4A0B88DFF83D
:104DF0000CC2854DDFF808929CF805E09CF8017024
:104E00002978DFF820A21E4602EB8604019409EB04
:104E100046020020009241F2883B834CA9B39CF8E3
:104E20000000207067704FEA4E00A070B6F5006F6A
:104E3000B9F8280110DA012812D10020E31C7045CE
:104E400013DA009931F810100A0A03F81020221D15
:104E500002F81010401CF2E75E45C0F2A180012864
:104E600040F09E800020E61C704580F299800199F8
:104E700001EB800252F80A100B041B0E06F81030EA
:104E8000221D02F81010401CEEE762495F4A0978C3
:104E9000127851EA02054CD041F27175AE4204DB42
:104EA000B9F81250B5F5FA6F14D10120A3F12D0510
:104EB000072D04D25D4D2D3B2B805D4D28700029C0
:104EC00040D09CF80410B6F5006F0EEB012232DAE8
:104ED00029F816200221217067709CF80220A27028
:104EE0009CF80310E1709CF80420227184F805E01E
:104EF00010B9FF202071607106212046FFF7BEFE29
:104F00004C4A010A108002B0A171E07108204A49A0
:104F10003E4B088000223F493F481A700A702146E4
:104F2000464B1A804FF6FF73BDE8F04E0822FFF79C
:104F300094BABDE8F38E5E45CCDB3949514441F863
:104F40002620C7E7002AC5D0BEF1640FC2DAB6F545
:104F5000006F10DA7145BDDA0CF1070212F811305A
:104F60000CF1080212F81150009A05EB032322F805
:104F70001130491CEEE75E45ACDB7145AADA0CF155
:104F8000070212F811300CF1080212F81150019AC0
:104F900002EB810605EB032346F80A30491CECE7D7
:104FA000A178C91CC9B22046FFF768FE21490880D4
:104FB000E31CA178020A5A54221DA378D054002180
:104FC000A2781D48521D028029704FF6FF731B4DB9
:104FD0001148298092B22146FFF73FFABDE8FC4E06
:104FE00010211748FCF764BCAA720020E485002059
:104FF0003E8600204086002036860020A86D0020D6
:10500000106600203C8600209B8600209C860020A5
:105010009D8600209E86002018850020A16C00201F
:1050200010000020E0B1FFFFB473002024860020B0
:10503000878600203A8600203886002034860020AB
:10504000000C02402DE9F041B54D288800240028CD
:1050500062D0B449B44A097813888B425CD011807D
:10506000B2490A88521C0A8092B2062A54DBB04F19
:10507000B04E3880B0F5807F0C8036DAAE49327899
:10508000B1F842319A4231D1811EC9B23046FFF7A0
:10509000F5FD3A883244911E030A0F78BB4202BFE5
:1050A0004978C0B288421ED17178A448032902D140
:1050B0000121A34A0EE0102902D10121A14A09E0F1
:1050C000012903D1A049012008700FE0062908D169
:1050D00001219E4A1170B378F17801EB0321018020
:1050E00004E0012402E0022400E00424984FDFF8E9
:1050F0006482012241463846FFF708FA00202880E2
:1051000054B11421304601F059F941463846BDE802
:10511000F0410122FFF7FAB9BDE8F0812DE9FC4E1C
:1051200086498D4A0B88DFF80CC2854DDFF808925E
:105130009CF805E09CF801702978DFF820A21E4653
:1051400002EB8604019409EB46020020009241F232
:10515000883B834CA9B39CF80000207067704FEA2D
:105160004E00A070B6F5006FB9F8280110DA0128DA
:1051700012D10020E31C704513DA009931F81010A9
:105180000A0A03F81020221D02F81010401CF2E752
:105190005E45C0F2A180012840F09E800020E61C00
:1051A000704580F29980019901EB800252F80A1053
:1051B0000B041B0E06F81030221D02F81010401CC4
:1051C000EEE762495F4A0978127851EA02054CD04D
:1051D00041F27175AE4204DBB9F81250B5F5FA6FC1
:1051E00014D10120A3F12D05072D04D25D4D2D3BD7
:1051F0002B805D4D2870002940D09CF80410B6F536
:10520000006F0EEB012232DA29F8162002212170FC
:1052100067709CF80220A2709CF80310E1709CF863
:105220000420227184F805E010B9FF20207160711C
:1052300006212046FFF722FD4C4A010A108002B0E9
:10524000A171E07108204A493E4B088000223F4985
:105250003F481A700A702146464B1A804FF6FF737A
:10526000BDE8F04E0822FFF7F8B8BDE8F38E5E45C2
:10527000CCDB3949514441F82620C7E7002AC5D084
:10528000BEF1640FC2DAB6F5006F10DA7145BDDA0F
:105290000CF1070212F811300CF1080212F811504B
:1052A000009A05EB032322F81130491CEEE75E4516
:1052B000ACDB7145AADA0CF1070212F811300CF1DF
:1052C000080212F81150019A02EB810605EB032344
:1052D00046F80A30491CECE7A178C91CC9B220463F
:1052E000FFF7CCFC21490880E31CA178020A5A543C
:1052F000221DA378D0540021A2781D48521D02809F
:1053000029704FF6FF731B4D1148298092B2214638
:10531000FFF7A3F8BDE8FC4E08211748FCF7C8BA10
:10532000AC720020E48500204C8600204E860020D0
:1053300044860020A86E0020106600204A860020C7
:105340009F860020A0860020A1860020A286002043
:105350005C850020A26C002010000020E0B1FFFF5F
:10536000B474002024860020878600204886002010
:105370004686002042860020000C02402DE9F041C4
:10538000B54D28880024002862D0B449B44A097871
:1053900013888B425CD01180B2490A88521C0A8063
:1053A00092B2062A54DBB04FB04E3880B0F5807F01
:1053B0000C8036DAAE493278B1F844319A4231D1B4
:1053C000811EC9B23046FFF759FC3A883244911E1B
:1053D000030A0F78BB4202BF4978C0B288421ED18F
:1053E0007178A448032902D10121A34A0EE01029B3
:1053F00002D10121A14A09E0012903D1A0490120DC
:1054000008700FE0062908D101219E4A1170B37877
:10541000F17801EB0321018004E0012402E0022481
:1054200000E00424984FDFF86482012241463846A8
:10543000FFF76CF80020288054B11421304600F0AA
:10544000BDFF41463846BDE8F0410122FFF75EB896
:10545000BDE8F0812DE9FC4E86498D4A0B88DFF8C6
:105460000CC2854DDFF808929CF805E09CF80170AD
:105470002978DFF820A21E4602EB8604019409EB8E
:1054800046020020009241F2883B834CA9B39CF86D
:105490000000207067704FEA4E00A070B6F5006FF4
:1054A000B9F8280110DA012812D10020E31C704558
:1054B00013DA009931F810100A0A03F81020221D9F
:1054C00002F81010401CF2E75E45C0F2A1800128EE
:1054D00040F09E800020E61C704580F29980019982
:1054E00001EB800252F80A100B041B0E06F8103074
:1054F000221D02F81010401CEEE762495F4A09784D
:10550000127851EA02054CD041F27175AE4204DBCB
:10551000B9F81250B5F5FA6F14D10120A3F12D0599
:10552000072D04D25D4D2D3B2B805D4D2870002949
:1055300040D09CF80410B6F5006F0EEB012232DA71
:1055400029F816200221217067709CF80220A270B1
:105550009CF80310E1709CF80420227184F805E0A7
:1055600010B9FF202071607106212046FFF786FBED
:105570004C4A010A108002B0A171E07108204A492A
:105580003E4B088000223F493F481A700A7021466E
:10559000464B1A804FF6FF73BDE8F04E0822FEF727
:1055A0005CBFBDE8F38E5E45CCDB3949514441F820
:1055B0002620C7E7002AC5D0BEF1640FC2DAB6F5CF
:1055C000006F10DA7145BDDA0CF1070212F81130E4
:1055D0000CF1080212F81150009A05EB032322F88F
:1055E0001130491CEEE75E45ACDB7145AADA0CF1DF
:1055F000070212F811300CF1080212F81150019A4A
:1056000002EB810605EB032346F80A30491CECE760
:10561000A178C91CC9B22046FFF730FB2149088098
:10562000E31CA178020A5A54221DA378D054002109
:10563000A2781D48521D028029704FF6FF731B4D42
:105640001148298092B22146FEF707FFBDE8FC4EC3
:1056500008211748FCF72CB9AE720020E485002021
:105660005A8600205C86002052860020A86F002009
:105670001066002058860020A3860020A486002003
:10568000A5860020A68600204C840020A36C002064
:1056900010000020E0B1FFFFB47500202486002038
:1056A00087860020568600205486002050860020E1
:1056B000000C02402DE9F041B54D28880024002857
:1056C00062D0B449B44A097813888B425CD0118007
:1056D000B2490A88521C0A8092B2062A54DBB04FA3
:1056E000B04E3880B0F5807F0C8036DAAE49327823
:1056F000B1F846319A4231D1811EC9B23046FFF726
:10570000BDFA3A883244911E030A0F78BB4202BFA9
:105710004978C0B288421ED17178A448032902D1C9
:105720000121A34A0EE0102902D10121A14A09E07A
:10573000012903D1A049012008700FE0062908D1F2
:1057400001219E4A1170B378F17801EB03210180A9
:1057500004E0012402E0022400E00424984FDFF872
:105760006482012241463846FEF7D0FE00202880A0
:1057700054B11421304600F021FE41463846BDE8C0
:10578000F0410122FEF7C2BEBDE8F0812DE9FC4EDA
:1057900086498D4A0B88DFF80CC2854DDFF80892E8
:1057A0009CF805E09CF801702978DFF820A21E46DD
:1057B00002EB8604019409EB46020020009241F2BC
:1057C000883B834CA9B39CF80000207067704FEAB7
:1057D0004E00A070B6F5006FB9F8280110DA012864
:1057E00012D10020E31C704513DA009931F8101033
:1057F0000A0A03F81020221D02F81010401CF2E7DC
:105800005E45C0F2A180012840F09E800020E61C89
:10581000704580F29980019901EB800252F80A10DC
:105820000B041B0E06F81030221D02F81010401C4D
:10583000EEE762495F4A0978127851EA02054CD0D6
:1058400041F27175AE4204DBB9F81250B5F5FA6F4A
:1058500014D10120A3F12D05072D04D25D4D2D3B60
:105860002B805D4D2870002940D09CF80410B6F5BF
:10587000006F0EEB012232DA29F816200221217086
:1058800067709CF80220A2709CF80310E1709CF8ED
:105890000420227184F805E010B9FF2020716071A6
:1058A00006212046FFF7EAF94C4A010A108002B0AF
:1058B000A171E07108204A493E4B088000223F490F
:1058C0003F481A700A702146464B1A804FF6FF7304
:1058D000BDE8F04E0822FEF7C0BDBDE8F38E5E4580
:1058E000CCDB3949514441F82620C7E7002AC5D00E
:1058F000BEF1640FC2DAB6F5006F10DA7145BDDA99
:105900000CF1070212F811300CF1080212F81150D4
:10591000009A05EB032322F81130491CEEE75E459F
:10592000ACDB7145AADA0CF1070212F811300CF168
:10593000080212F81150019A02EB810605EB0323CD
:1059400046F80A30491CECE7A178C91CC9B22046C8
:10595000FFF794F921490880E31CA178020A5A5400
:10596000221DA378D0540021A2781D48521D028028
:1059700029704FF6FF731B4D1148298092B22146C2
:10598000FEF76BFDBDE8FC4E02211748FBF790BF08
:10599000B0720020E4850020688600206A8600201E
:1059A00060860020A8700020106600206686002017
:1059B000A7860020A8860020A9860020AA860020AD
:1059C00090840020A46C002010000020E0B1FFFFB4
:1059D000B47600202486002087860020648600207C
:1059E000628600205E860020000C02402DE9F04116
:1059F000B54D28880024002862D0B449B44A0978FB
:105A000013888B425CD01180B2490A88521C0A80EC
:105A100092B2062A54DBB04FB04E3880B0F5807F8A
:105A20000C8036DAAE493278B1F848319A4231D139
:105A3000811EC9B23046FFF721F93A883244911EDF
:105A4000030A0F78BB4202BF4978C0B288421ED118
:105A50007178A448032902D10121A34A0EE010293C
:105A600002D10121A14A09E0012903D1A049012065
:105A700008700FE0062908D101219E4A1170B37801
:105A8000F17801EB0321018004E0012402E002240B
:105A900000E00424984FDFF8648201224146384632
:105AA000FEF734FD0020288054B11421304600F068
:105AB00085FC41463846BDE8F0410122FEF726BD8F
:105AC000BDE8F0812DE9FC4E86498D4A0B88DFF850
:105AD0000CC2854DDFF808929CF805E09CF8017037
