:020000040800F2
:10000000C893002041800008257E0008277E000854
:10001000297E00082B7E00082D7E000800000000CD
:100020000000000000000000000000002F7E00081B
:10003000317E000800000000337E0008357E000895
:100040006B8000086F8000087380000877800008CC
:100050007B8000087F8000086B7E0008838000089A
:10006000878000088B8000088F800008938000083C
:10007000978000089B8000089F800008A3800008EC
:10008000A7800008AB800008AF800008B38000089C
:10009000B7800008BB800008BF800008C38000084C
:1000A000C7800008717E0008CB800008CF80000860
:1000B0007F7E00088D7E00089B7E0008D3800008AC
:1000C000D7800008DB800008DF800008E38000089C
:1000D000E7800008A97E0008AF7E0008B57E000812
:1000E000EB800008EF800008F3800008F78000082C
:1000F000BB7E0008FB800008FF8000080381000829
:10010000078100080B810008C97E00080F810008E4
:10011000D77E0008DD7E0008E37E0008138100081A
:10012000178100081B8100081F8100082381000837
:10013000278100082B8100082F81000833810008E7
:10014000378100083B8100083F8100084381000897
:10015000478100084B8100084F810008ED7E0008B0
:1001600053810008578100085B8100085F81000807
:1001700063810008678100086B81000800000000AF
:100180006F810008738100082DE9F04F0FF2A41C65
:10019000A1B0DCE90089CDE900892A9DDFF8DC9B6C
:1001A000049100248DF843500D944FF0FF3882469F
:1001B00016461F460FE0B3462C461BF8011B049859
:1001C000D0470028049000F0A2800D98401C641EC7
:1001D0000D90F2D176193078252808D1002100221F
:1001E0000791089209910A920B910C920DE06A46D0
:1001F0004146304600F0DAFF050001D10D98A1E03C
:10020000D9D50125E6E741F0010116F8010F2028B4
:10021000F9D023280CD02B2804D02D2805D0302845
:1002200009D076E041F00201EFE741F00401ECE78C
:1002300041F00801E9E741F01001E6E70F9209E01B
:100240000F98484505DA00EB800402EB4402303A8F
:100250000F92761C3278A2F130000A28F0D3307861
:100260002E2818BFCDF8388022D116F8010F2A2881
:1002700007D138683860761C50F8042B38600E922D
:1002800016E02D280CBF761C002000220E920AE0FA
:1002900040B90E9A4A4505DA02EB820403EB4403A7
:1002A000303B0E93761C3378A3F130020A2AEFD349
:1002B000ADF8401021A0317800F082FF08B116F8A7
:1002C000010B8DF842009DF84200682804D1307877
:1002D00068280AD1622105E06C2804BF30786C28B8
:1002E00003D171218DF84210761C12A806903A466F
:1002F00016F8013B02A9504600F064F838B912AA7A
:1003000002A9504600F0C8F900287FF564AF4046C6
:1003100018E02A2892D13A683A6052F8040B3A6001
:1003200000280F9003D540420F9041F00401761C45
:1003300095E700000000000000000000686A6C748F
:100340007A4C000021B0BDE8F08F622820D06828E8
:1003500011D06A2803D06C2827D0712825D10868CD
:10036000C01D20F007000860D0E9002308300860B5
:10037000194610467047002A0A680A60106803D0C0
:10038000121D0A6000B217E0121D0A6080B217E069
:10039000002A0A680A60106803D0121D0A6040B281
:1003A0000AE0121D0A60C0B20AE0002A0A680A6068
:1003B000106803D0121D0A60C1177047121D0A6031
:1003C000002170477CB50D4611461C462E69B4F1DC
:1003D000250200F04F811C3A00F08480121F022A8F
:1003E00040F280800E3A00F00981521F59D0093A3C
:1003F00078D0921E16D0521E35D0521E022A71D9C4
:10040000121F30D0521F00F09880521E49D0521E49
:1004100000F0E280D21E00F0FF80921E41D0D21E7A
:100420003FD02DE195F83A406C2C09D06869421C08
:100430006A610A680A6052F8043B0A60335429E191
:100440000A680A6052F8043B0A6000930022019295
:100450004FF0FF332B636A46294600F098F90028D5
:1004600040F1188103E195F83A000122FFF76DFF92
:10047000C5E90001002904D56869411C69612D2284
:100480000DE0288F810704D56869411C69612B2222
:1004900005E0C00721D56869411C696120223254FA
:1004A0001BE095F83A000022FFF74FFFC5E9000175
:1004B00095F83800010710D5D5E90023002B08BFB7
:1004C000002A0AD044F02000782806D1686930213B
:1004D0003154401C421C6A613454214668693044DE
:1004E000E86087E00868C01D20F007000860D0E9D8
:1004F000002308300860C5E90023D5E90001C80FD2
:1005000004D06869411C69612D220DE0288F8107A4
:1005100004D56869411C69612B2205E0C00704D538
:100520006869411C69612022325468693044E8607E
:100530002146284600F036FAACE005F13A02507840
:1005400020B14FF0FF340FF6043074E010786228C9
:1005500008D0682824D06A2812D06C282ED07128A0
:100560000ED02BE00A680A6052F8040B0A6020B92A
:100570004FF0FF340FF6EC205DE0E96A017089E08E
:100580000A680A6052F8040B0A6020B94FF0FF3481
:100590000FF6D0204FE0EA6AD317C0E9002379E0D4
:1005A0000A680A6052F8040B0A6020B94FF0FF3461
:1005B0000FF6B0203FE0E96A01806BE00A680A604C
:1005C00052F8040B0A6020B94FF0FF340FF6942064
:1005D00031E0E96A01605DE00A680A6052F8040BE4
:1005E0000A60002120F0000221F0FF33C5E900235A
:1005F000EE607821284600F02DF94BE06C2285F85A
:100600003A200B680B6053F8042B0B6052BB4FF081
:10061000FF340FF684200EE095F83A206C2AF0D0D3
:100620000868086050F8044B0860EC603CB94FF073
:10063000FF340FF6482000F0EBFD201A76BD2E6B3C
:10064000002E04D5204600F003FE044608E03246A2
:100650000021204600F026FE002814BF041B34466B
:10066000AC6117E0294600F092F8002812D54FF04F
:10067000FF3076BD6869411C69612522325409E06A
:100680006969481C686125227254210002D0431C0C
:100690006B613454002076BD2DE9F0410E460546CD
:1006A0009046726B7069316AB46A121AB069521A54
:1006B000716A121AF069521A121A96F83800141B4D
:1006C00041070DD4002C0BDD2746B0682021A84738
:1006D0000028B06057D0F06A401C7F1EF062F4D151
:1006E000736942463146284600F098FC00284AD1FA
:1006F000376A002F0ADDB0683021A8470028B060B3
:1007000041D0F06A401C7F1EF062F4D1B369F268F8
:100710003146284600F082FCA8BB776A002F09DD2D
:10072000B0683021A847B06068B3F06A401C7F1EF3
:10073000F062F5D1F068B169F36942183146284694
:1007400000F06CFCF8B9B76A002F09DDB068302101
:10075000A847B060B8B1F06A401C7F1EF062F5D1C6
:1007600096F8380041070BD5002C09DDB068202130
:10077000A847B06038B1F06A401C641EF062F5D141
:100780000020BDE8F0814FF0FF30BDE8F0812DE999
:10079000F8470D46A3B02F6B002F0646904648BF82
:1007A0006FF000470FF60C1400F0A8FDD4E9002309
:1007B000696B4018CDE90123812828BF4FF0FF3035
:1007C00042D20024002F33DDD8F8001001AA684679
:1007D00000F0EEFC8146B9F1000F38D4D8F80000E3
:1007E00010B9B9F1010932D44F4521DB6869484499
:1007F00081280AD30021696303AA29463046FFF7FE
:100800004BFF040014D40020686103ABD5F814A09A
:100810004A46694603EB0A0000F076FDCA44C5F873
:1008200014A058F8040B002818BFA7EB0907C9D17A
:100830004CB903AA29463046FFF72EFF044614B9E7
:10084000002068616863204624B0BDE8F0874FF05F
:10085000FF34F8E72DE9FC4307466F293E6908BFDE
:10086000082405D041F02000782814BF0A24102461
:100870003C25D7E90023642918BF69299046994689
:1008800005D1002B03D5D8F1000869EB4909B9F16E
:10089000000F08BFB8F1000F1FD1386BE8B9082C62
:1008A0004CD197F83800010748D530203B2586F811
:1008B0003B0043E000280ED597F8380000F0140004
:1008C000102808D17B6B7969386A5B1A1B1A9A1A4F
:1008D000002AC8BF3A62BDE8F3838DF80010404695
:1008E00049462246E31700F063FD3032D0B26D1E58
:1008F0003A28019504DB9DF80000A0F151018A1807
:100900007255404649462246E31700F051FD8046A5
:100910005FEA010908BFB8F1000F03D0F868711948
:100920008842DCD3082C09D197F83800010705D597
:10093000705D302802D06D1E30207055C5F13C022C
:10094000BA617119F960386B8242B3DA821A3A627D
:100950004FF6EF70398F01403987BDE8F3832DE9F9
:10096000D04306460F4614464FF00008DFF81094B7
:1009700012E0E00707D542464B463046394600F0C4
:100980009BFD06460F464046494642464B4600F010
:1009900093FD641080468946002CEAD130463946E2
:1009A000BDE8D0832DE9F84F05468A464AF0200479
:1009B0008EB0D5E90089612C02AE09D0286B0028E1
:1009C00048BF062003D408BF672C01D1012028634B
:1009D000D5E900014A005215521C0DD10B030BD072
:1009E000AAF1610103201A29A86102D20FF2CC6199
:1009F00010E00FF2CC610DE04A005215521C0ED1EE
:100A00000B030CD1AAF1610103201A29A86116D3A6
:100A10000FF2B461E868032200F076FCC0E1CDE992
:100A20000C01DDE90C2323F00043B3F5801F0DD248
:100A30000027002B08BF002A019703D111E00FF215
:100A40008461E7E701AA00F009FE0AE0CD48CE493B
:100A500000EB1350DDE90C2301900B40CB4910460D
:100A60001943C5E90001612C0DD1E86830210170FE
:100A7000821CBAF1610FEA600CBF782158214170E5
:100A80006869801C6861D5E90001CDE90C01DDE9E8
:100A90000C2333F0004104BF0028002300F04881FC
:100AA000612C40F0A080286B494600284CBF4FF0D5
:100AB000210B00F1010B404600220023DDE90C89E7
:100AC00000F004FE01990BF1010738BF89F00049DD
:100AD000091F002F01918DF808200DF1090040F346
:100AE0003581A94900910646404649460022002327
:100AF00000F004FE80F029814800400D00F11C0246
:100B000011D0002A0FDD40F2FF739A4205DBA049A5
:100B100009F000400143002011E0009B194041EA28
:100B2000025140460BE028F0000039F0004108BFB8
:100B300000280FBF49461C22494600F0F7FD8046B9
:100B4000894600F091FEFF1F002F044609DD00F0EA
:100B5000A9FE02460B464046494600F0B5FE8046D7
:100B60008946F01D072104E004F00F0200F8012D72
:100B70002411002C01DD491EF6D5491E5CBF002260
:100B800000F8012DF9D5DCE00020194602AA0A443C
:100B900000E05B1E12F80149491E8442F9D00F287B
:100BA00004D10DF10900425C521C4254002904D5C5
:100BB0000198001D02AE5B1C0190581E0CD4311828
:100BC000AAF13A040A783032D7B23A2FA8BFA21855
:100BD000401E01F80129F5D5286B002840F1A780B7
:100BE000591E2963A3E001996A4A47F2975041438D
:100BF00091FBF2F2019229F00046D2F1070204DDE6
:100C000040463146FFF7ABFE0AE0524200206249FF
:100C1000FFF7A5FE02460B464046314600F0C6FEF1
:100C20008046662C286B06BF019F0A3706273F18AF
:100C3000142FC8BF142730208DF8080089460DF105
:100C4000090000E03046002F34DD064640464946A4
:100C500000F0D0FF01460A4606F1080304200A26E8
:100C6000B2FBF6F606EB860EA2EB4E02303203F82C
:100C7000012C0A22B6FBF2F202EB820EA6EB4E0624
:100C80003036401E03F8026DE9D1083F002F03F112
:100C90000806D7DD084600F0C1FF02460B46404675
:100CA000494600F011FE00223C4B00F005FC804656
:100CB0008946CBE70DF10901401A0DF1090604E060
:100CC0000199491E401E0191761C31783029F7D0D8
:100CD000662C02D10199491C03E0652C0CBF01214F
:100CE00000212B6BCB189842B8BF431E002B1ED49B
:100CF000834204DAF05C3528A8BF392000DA3020BE
:100D00001946721E02EB010800E05B1E18F80199FB
:100D1000491E8145F9D0392802D1705C401C7054BD
:100D2000002904D50198401C16465B1C01900198CF
:100D300000B200901BB232465146284600F034F80B
:100D40002EE0C61D002F3FF7CFAE30460DF1090152
:100D5000401A03465845C8BF5B46002B0DF10906F3
:100D60003FF53AAF8342BFF60FAF0DF10900C15C0A
:100D700007297FF709AF0F2007E70000CBCCCC0C89
:100D80000000244002FCFFFFFFFF0F800000E03F57
:100D90000000F07FA08601000000F03F84D797415B
:100DA0000FB0BDE8F08F00002DE9F84783B006468C
:100DB0008A461746984600F0FDF9B8F1000F406AE0
:100DC000356B90F8009002DC4FF00108BFA74AF0A5
:100DD0002000BDF93040662808BF641C15D0672884
:100DE00040F0848014F1040FC0F28680AC4280F29F
:100DF000838096F83800641C010702D4A845B8BF68
:100E0000454620B22D1A48BF00250FFA84FAF06833
:100E1000B169BAF1000F25DC4A1C30234354002D80
:100E200003DC96F83800010703D5F06800F802905B
:100E3000521C15EB0A0FB8BF6C4220B24419414254
:100E40004445B8BFA046B26171620FFA88F5F561FA
:100E5000F068B3692A463946184400F055FA641B15
:100E6000B462C4E022B29045084417DA42463946DB
:100E700000F04AFAB0694044B061AAEB0801002DC5
:100E8000716203DC96F838100A0705D5F16801F89D
:100E90000090F069401CF061B562A8E0394600F0AE
:100EA00033FAB069002D5044A8EB040803DC96F82F
:100EB00038100A0703D5F16801F80090401CB061B2
:100EC0000FFA88F08542F368B069B8BFA8460FFAF8
:100ED00088F207EB0A01184400F016FAB1690FFA1C
:100EE00088F00144B161281A706280E0BAF1610FA4
:100EF00014D14FF0700A16E0A84504DA96F83810BD
:100F00000A0758BF45466D1E48BF0025BAF1670F56
:100F100014BF4FF0450A4FF0650A04E0BAF1410FE3
:100F200008BF4FF0500AB169F368481CB061002D4A
:100F300017F8012B5A5403DC96F838100A071BD512
:100F4000F168431CB36101F80090002D14DDA8F195
:100F500001080FFA88F039468542F768B8BFA846FD
:100F60000FFA88F2F81800F0CFF9B0690FFA88F19B
:100F700008446D1AB0617562F068B1690844002CCC
:100F800080F800A003D42B224270811C03E02D21A5
:100F900041706442811C00206A460AE023460A240C
:100FA00093FBF4F404EB8405A3EB450302F8013B47
:100FB000401C24B2002CF1DC012806DC4AF020029F
:100FC000652A04BF302201F8012B48B9302001F80E
:100FD000010B07E0401E1DF80030303301F8013BE3
:100FE0000028F7DCF268B0691044091AF16196F83C
:100FF000380000F0140010280DD17269B169706AD0
:101000008A18F1698218B06A8A188218706B824255
:10101000BCBF821A326204B0BDE8F087F8B505465D
:101020000E4617461C46002074B117F8011BB06825
:10103000A847B06030B1F06A401CF0620020641E26
:10104000F3D1F2BD4FF0FF30F2BD00007072696E57
:1010500074665F733A20256E20646973616C6C6FEF
:10106000776564007072696E74663A20626164200C
:10107000256E20617267756D656E74007072696EA1
:1010800074665F733A206261642025732061726721
:10109000756D656E740000007072696E74665F73C2
:1010A0003A2062616420256C7320617267756D65FA
:1010B0006E74000000000000000000006E616E0011
:1010C0004E414E00696E6600494E46003000F0B455
:1010D0000246106895681318506803EB5004C00767
:1010E0001DD54D441BE013F8017B05F8017B491E1B
:1010F000F9D1A0B1B60813F8011B06F00306032EC0
:1011000008BF13F8016B01EB06214942801C2944FA
:1011100005D011F8016B05F8016B401EF9D1A3420F
:101120000ED013F8016B16F0030104BF13F8011B76
:10113000C91C30090F28DAD113F8010B0F30D6E79C
:10114000F0BC02F10C0070471B48704770B4536844
:10115000D418042B09DA41B1057804F8015B10F8C2
:10116000016B16B15B1C491EF3E7536070BC7047FE
:1011700038B514461D4661B1FFF7E8FF61686A6B38
:10118000204690476FF00102811A02D0491E01D01B
:1011900001E003E005E00021616032BD6FF0010075
:1011A00032BD4FF0FF3032BDDA6B1047024BDFE744
:1011B000014BF9E7014870478800002050000020EB
:1011C000C9B202788A421AB11CBF10F8012FF9E7A0
:1011D00018BF0020704730B4002513E050F8042BEE
:1011E000D30744BFA9F101039A18091F042942F843
:1011F000045BFAD213468C0744BF15809B1CC907B9
:1012000048BF1D7050F8041B0029E7D130BC70475F
:1012100080B500B906A005490B681BB12222002148
:10122000984701E000F007FD222002BD408F00201A
:10123000636F6E73747261696E742068616E646C42
:1012400065723A20626164206D6573736167650041
:1012500000F10103810704D010F8011B820781B15E
:10126000FAD10268A2F10131914311F0803104BF3B
:1012700050F8042FF6E709BAB1FA81F100EBD1007A
:10128000401CC01A7047B1F5807F02D34FF0FF3089
:1012900070470170012070470078401E8041C043B4
:1012A000C00F7047C9B2830706D0521E22D310F870
:1012B000013B9942F7D11FE0083A13D302F104022F
:1012C00041EA012141EA014150F8043B121F21BFCC
:1012D0004B40A3F1013C2CEA030C1CF0803FF3D0FF
:1012E000C9B2001F083210F8013B521E28BF91EA14
:1012F000030FF8D818BF0120401E704780B5FFF7D4
:1013000023FF006C02BD000062B38B0708D0521EA1
:1013100011F8013B00F8013B00F024808B07F6D167
:10132000830740F0208000BF103A07D330B4B1E803
:101330003810103AA0E83810F9D230BC530724BF57
:10134000B1E80810A0E8081044BF51F8043B40F889
:10135000043BD20724BF31F8022B20F8022B44BFF4
:101360000B7803707047121F17D35B0009D151F837
:10137000043B20F8023B1B0C121F20F8023BF6D264
:101380000BE051F8043B00F8013B1B0A20F8023B3C
:101390001B0C121F00F8013BF3D238BF121D521E66
:1013A00024BF11F8013B00F8013BF8D8704700005A
:1013B000D3BBD9B1B2F5803F5BD2022A1ED98C468D
:1013C000B1FBF2F102FB11C31B0443EA1043B3FB70
:1013D000F2FC02FB1C3380B240EA0343B3FBF2F0A1
:1013E00002FB103240EA0C4000237047022A05D964
:1013F0008446B0FBF2F002FB10C270474AB105D13F
:1014000000F0010249085FEA300070470022002323
:10141000704700F013BC0B00020000210020704751
:10142000F7D3002200237047904271EB030CF2D3F4
:1014300070B5B1FA81F4B3FA83F52C1BA340C4F163
:10144000200532FA05F63343A2405FF00046E6403D
:1014500002E05B085FEA3202841A71EB030524BFE5
:10146000204629467641F4D302000B0030000021CB
:1014700070BD70B5B1FA81F4B2FA82F5C4F12004FE
:101480006419B4F12006DAD3B2405FF00044F440AE
:10149000002502E052085FEA3303C61A71EB020E20
:1014A00024BF3046714664416D41F3D302000B0006
:1014B0002000290070BD0000B0B581EA030C0CF0DB
:1014C000004C40F2FF7515EA11541DBF15EA135781
:1014D000AC42AF4239E0E41923EA455343F48013A8
:1014E000C90241F0004141EA505EC7021100A7FB6A
:1014F000020200284FF00000EEFB01204FF0000137
:10150000E3FB072118BF42F00102401800214941C6
:10151000E3FB0E01A4F580640F0302D252004041A8
:10152000494154F101046CDD470872F1004250F169
:10153000000051EB0451A1F580115CBF41EA0C01A0
:10154000B0BD4CEA05510020B0BD05EA1357AC42CE
:1015500014BFAF4241E050EA410E1CBF52EA430EB5
:1015600002E061460020B0BD24423C441BD15FEA4A
:10157000070EF6D0090302BF01460020AEF1140E9B
:10158000B1FA81F7AEEB070401FA07FE0C37C7F199
:10159000200100FA07F7C8404EEA000E23EA45533F
:1015A00043F48013A2E733F00043B3FA83F704BF98
:1015B000B2FA82FE77440B3FE41BB7F1200E2FBF37
:1015C00002FA0EF3BB40C7F1200E22FA0EFE38BF1E
:1015D00043EA0E03BA40641C82E750EA410E14BF8E
:1015E00052EA430E6FF000014FF4001717EB430F60
:1015F0008ABF194617EB410FB5E74CEA05510020A9
:10160000B0BDD4F10104B4F120070FDAC4F1200712
:10161000520828BF42F0010210FA07F501FA07F755
:10162000E1BF2A43E0403843E1400FE0352C98DC2D
:10163000C7F1200452EA400220FA07F218BF42F034
:10164000010231FA07F0A1400A43002172F1004281
:1016500050F1000051EB0C01B0BD000010B5144674
:1016600000F002F8226010BDC1F30A5343B14A00F2
:1016700012F5001F28D2A3F2FE32A1EB02517047EF
:1016800050EA410C20D001F0004C31EA0C01B1FAD3
:1016900081F204BFB0FA80F3D2180B3AB2F1200302
:1016A0002CBF00FA03F1914041EA0C013EBFC2F1A8
:1016B000200C20FA0CF319439040524240F2FD33C3
:1016C000D21A01EB03517047002270474FF4001CFF
:1016D0001CEB410F94BF1CEB430F09E041EA030CE4
:1016E00050EA4C0C52EA0C0C03D2994208BF9042CB
:1016F000704714BF8B428242704700004FF4001CB9
:101700001CEB410F94BF1CEB430F09E041EA030CB3
:1017100050EA4C0C52EA0C0C03D28B4208BF8242B6
:10172000704714BF9942904270470000124254D44F
:1017300040F2FF7C1CEA11530FD0634531D09B1857
:1017400063453CBF01EB0251704701F0004141EAA3
:101750000C510020AFF30080704750EA410320D0C5
:1017600001F0004C91EA0C011CD0B1FA81F30B3B63
:101770009A420DD9D21A994051EA0C01C3F1200CBA
:1017800020FA0CFC61449840531C40F2FF7CD7E7E0
:10179000914041EA0C01C2F1200C20FA0CF31943EC
:1017A00090407047B0FA80F31533202BE0D3202A05
:1017B000EED3203A203B9A4209D9D21A00FA03F11B
:1017C00041EA0C010020531C40F2FF7CB8E700FA0C
:1017D00002F141EA0C0100207047524240F2FF7CC6
:1017E0001CEA11530DD06345DBD0B2EB030C3CBFB8
:1017F000A1EB025170470CF1010221EA035141F4BF
:10180000801150EA410CCCD001F0004C352A27DC85
:1018100030B481EA0C01B2F1200309DAC2F12003ED
:10182000044601FA03F5D0402843D1409C400CE027
:10183000C3F12002450020FA03F418BF44F001046C
:1018400021FA03F091400C43002174F1004550F15E
:10185000000051EB0C01244230BC7FF47BAF704799
:101860006146002076E70000C1F30A5340F2FE32E1
:101870009B1A14DDD3F120034FEAE17208DDC9029F
:1018800041EA505141F00040D84080185040704724
:1018900003F2E13010B1D24382F0004070470020E3
:1018A00070470000C11768B14840401AB0FA80F292
:1018B0009040D21CC907C2F5846241EA025202EB91
:1018C000D02140057047000070B44FF0004591EA08
:1018D000030F40F1BD816B40841A71EB030603D204
:1018E000001BB141121973414FF4001C1CEB410F56
:1018F00034BF7CEB430442E00C0DA4EB1356352EB1
:101900004FDC45EAC323DB0A45EAC121C912B6F11F
:1019100020050DDD63FA05F6EB4086EA0305124269
:1019200018BF45F00105C01851F100010CD213E0B9
:1019300062FA06F5F2405540F3415A40B340F34095
:101940005A408018594107D349085FEA30005FEADE
:10195000350528BF45F0010501F58011420875F1F4
:10196000004250F1000041EB04514E0016F5001FFB
:1019700070BC38BF70470020090D090570471CEB8B
:10198000410F10D252EA43060BD0BCEB410F05D8F1
:101990000C0DAB43661E342EB6DD02E0AB4380185F
:1019A000594170BC704770BC70470000F0B540F200
:1019B000FF7581EA030C0CF0004C15EA11541DBFB1
:1019C00015EA1357AC42AF42E5E0BC41C1F3130145
:1019D000C3F31303801A994143F4801304D2641EA5
:1019E0004000494180185941C90241EA5051B1FBB8
:1019F000F3F603FB1611A2FB0675D7EBC020A94135
:101A000002D2761E80185941C90241EA5051B1FBF9
:101A1000F3FE03FB1E11A2FB0E75D7EBC020A941FC
:101A200003D2AEF1010E80185941890241EA90516A
:101A3000760546EA8E2EB1FBF3F603FB1611A2FBE8
:101A40000675D7EB8020A94102D2761E8018594135
:101A5000C90241EA50514EEA060EB1FBF3F603FB10
:101A60001611A2FB0675D7EBC020A94102D2761E43
:101A700080185941C90241EA5051B1FBF3F703FB09
:101A80001711A2FB0735D3EBC020A94167F100076E
:101A90000CBF004247F0010766F3D5274FEA1E311D
:101AA000B80814F5806412DDBD0775F1004250EBF3
:101AB0000E5051EB045111F5801F5CBF41EA0C013F
:101AC000F0BD4CF07F6141F0E0410020F0BDBD076A
:101AD0006D0840EA0E5041F48011D4F10104B4F1D4
:101AE00020060ADAC4F120060200E04001FA06F3FB
:101AF000E1401843B24015430EE0342C13DCC6F12C
:101B0000200445EA40056D0820FA06F2154321FA43
:101B100006F0A1400D43002175F1004250F1000094
:101B200051EB0C01F0BD00205FEA0C01F0BDCFB914
:101B300092185B41B3FA83F704BFB2FA82F6BF1979
:101B40000B3FB7F120062FBF02FA06F3BB40C7F1E7
:101B5000200622FA06F638BF3343BA401CB1E41916
:101B6000641E33E77F4231F00041B1FA81F404BFD3
:101B7000B0FA80F6A4190B3CB4F120062FBF00FA8E
:101B800006F1A140C4F1200620FA06F638BF314321
:101B9000A0403C1B1AE7AC421ABF05EA1357AF42FC
:101BA00012E050EA41061CBF52EA4306BFE750EA82
:101BB0004107304661461CBF41EA0551F0BD52EA7B
:101BC000430C08BFC143F0BD00204FF4001616EBD4
:101BD000410F98BF16EB430F08BF16EB410F24BF10
:101BE000C14305E016EB430F0CBF61464CEA0551BB
:101BF000F0BD0000400D491840EA81200CD2490D8B
:101C0000A1F58061491C40F0004005DBD1F11F01C6
:101C100054BFC840C017704700207047014648B104
:101C2000B0FA80F18840C91CC1F58461090501EB57
:101C3000D02140057047012000F0C0B87047000077
:101C400070B44FF0004591EA030F7FF545AE6B404D
:101C5000841A71EB030604D26E40001BB1411219C5
:101C600073414FF4001C1CEB410F34BF7CEB430667
:101C700083E00C0DA4EB1356362E00F37C80012E6E
:101C800045EAC32341DC43EA525312BFD202920217
:101C90005B08240545EAC12141EA5051D2EBC0203E
:101CA000994125D407D1B0FA80F610FA06F162D036
:101CB0000020203608E0B1FA81F6B140C6F12002DA
:101CC00020FA02F21143B0404FEAF474B4EB4654E8
:101CD00034F001064FEA74040AD8D6F50016760DE2
:101CE00004F00044F04061FA06F25040F1404840F0
:101CF000C00A40EA415021F0004128BF5FEA500588
:101D000050F1000044EBD12135E0DB0A45EAC12166
:101D1000C90AB6F120050EDD42EA0242120CC5F1F5
:101D2000200603FA06F6EB4042EA06056D429841AA
:101D300061F100010DE062FA06F5F240554063FAE8
:101D400006FC82EA0C02F3405A406D42904161EB7E
:101D5000030111F4801F05D1641E620502D06D00DD
:101D60004041494121F48011430875F1004350F18D
:101D7000000041EB045170BC70471CEB410F15D2C1
:101D800023F0004352EA43060BD04FEA4C0CBCEB65
:101D9000410F04D80C0D661E342EB7DDEBE7801A18
:101DA000994150EA410608BF0021E4E708BF1CEB57
:101DB000430F28BF6FF00001DDE7000080B5AFF3EF
:101DC0000080024A11001820ABBEFBE7260002008B
:101DD0002DE9F34F00210091A0F1010B8E46BBF1DC
:101DE000050F4FF08041DFF8D437DFF8D447DFF834
:101DF000D457DFF8D467DFF8E4A8DFF8E4885ED8CA
:101E0000DFE80BF00311202F3E4DDFF8D8E8012763
:101E10008EF80770CEF8541000278EF806700AF579
:101E2000BC7957464BE0DFF8C0E802278EF8077010
:101E3000CEF8543000278EF806700AF58D690AF541
:101E40003C773CE0DFF8A4E803278EF80770CEF873
:101E5000544000278EF806700AF5EB690AF5BC6756
:101E60002DE0DFF88CE804278EF80770CEF8545088
:101E700000278EF806700AF648290AF50D671EE05D
:101E8000DFF888E805278EF80770CEF85460002741
:101E90008EF806700AF638590AF53C670FE0DFF84D
:101EA00070E806278EF8077041F2280C00278EF89C
:101EB0000670CEF854800AF56B670AEB0C09072808
:101EC00056DA002854D09DF804008EF80400CEF8AD
:101ED00034205043CEF83C005E22AEF8182000209B
:101EE000CEF83000CEF838005D22AEF814008EF83F
:101EF0000500CEF81C00CEF82000AEF81A20CEF86F
:101F00000C70CEF81090009809E0DEF81070DEF842
:101F10001C2037F810703A44CEF81C20401CBEF844
:101F200018209042F1D300200CE0DEF810C0BEF87B
:101F30001870DEF82020C7193CF817703A44CEF824
:101F40002020401CBEF81A209042EED3DEF80C2070
:101F5000DEF854001288C262DEF85400B0F1804FFF
:101F600007D1DEF80C0000884008886300224A622E
:101F700032E0984207D1DEF80C0000884008586330
:101F80000021596228E0A04207D1DEF80C00008849
:101F900040086063002161621EE0A84207D1DEF8BC
:101FA0000C000088400828640021696214E0B042F7
:101FB00007D1DEF80C0000884008706300217162D0
:101FC0000AE0404508D1DEF80C0000884008C8F857
:101FD00034000021C8F82410BDE8F38FF0B50446A2
:101FE000002200230020002100260027641E052C6B
:101FF00000F2C680DFE804F0031114171A1DDFF8A1
:10200000E4C6DCF81C50DCF820E0DCF8284075441D
:10201000AC425CD3BCF818401BE0DFF8CCC6F0E75C
:10202000DFF8C8C6EDE7DFF8C8C6EAE7DFF8DCC6C8
:10203000E7E7DFF8DCC6E4E7DCF81000DCF80C10BA
:1020400030F8170031F817104843121843EBE073CB
:102050007F1CA742F0DB00250DE0DCF81000DCF867
:102060000C10661930F8160031F816104843121893
:1020700043EBE0736D1CBCF81A008542EDDBDCF825
:102080000C50DCF82800DCF81C1005EB4404401A66
:1020900034F8021CA0EB0E00484300211018DCF8B5
:1020A0002820A2EB0E025941CCF8242064E000F075
:1020B00068F8121943EBE47300F063F8001941EB80
:1020C000E471DCF8104034F8174036197F1CDCF856
:1020D0001050DCF8284035F8175064087519AC42E8
:1020E000E5D210185941DCF81030DCF8284033F8FC
:1020F0001730A4EB4604A3422ED2DCF81030DCF8F3
:102100002840A4EB460423F817400023CCF81C30E9
:10211000CCF8203009E0DCF81050DCF81C4035F831
:1021200013506419CCF81C405B1CBCF81840A34247
:10213000F1DB00230CE0DCF81050BCF818E0DCF810
:1021400020409E4435F81E506419CCF820405B1C9A
:10215000BCF81A40A342EEDBDCF80C30DCF8284077
:1021600003EB4703A4EB46021B885A430023801865
:102170005941A61BCCF82460CCF84C00CCF8501088
:10218000F0BDDCF81040DCF80C5034F8174035F89E
:1021900017506C43704700000022411E052900D9EA
:1021A000704738B5DFE801F0030C0F121518DFF89F
:1021B000341500258A608A824D71CA610A6215E071
:1021C000DFF82415F5E7DFF82415F2E7DFF820152E
:1021D000EFE7DFF83815ECE7DFF83415E9E70C69CD
:1021E000CB6934F812401B19CB61521C0B8B9A42FD
:1021F000F5DB002208E00C690D8B0B6A551934F8E9
:1022000015401B190B62521C4B8B9A42F3DBCB68B7
:102210004A6D1B88D3624A6DB2F1804F06D1CA68FD
:10222000DFF8F034128852085A612CE0DFF88C3362
:102230009A4203D1CA68DFF8603521E0DFF88033C5
:102240009A4203D1CA68DFF8543519E0DFF87433D5
:102250009A4206D1CA68DFF8483512885208DA6116
:1022600011E0DFF864339A4203D1CA68DFF83435ED
:1022700006E0DFF86C349A4207D1CA68DFF8B83656
:10228000128852081A6100241C6000234A6DD26A29
:102290004A648B64BDE83240A0E631BDF8B52DED4F
:1022A0000A8BB0EE608AF0EE418AB0EE619AF0EEF1
:1022B000429AB0EE62AA10EE100A00F09DFCB5EE54
:1022C00040AAF1EE10FAA4BFF4EE4A8AF1EE10FA39
:1022D00041EC1B0B0EDB00F09DF800F0B5F800F0B0
:1022E000A7F800F09BF800F0A3F800F097F853EC83
:1022F0001B2B27E0F4EE4A8AF1EE10FA38EE890A39
:1023000023D500F07EF820DB00F084F800F09CF884
:1023100000F094F800F082F800F090F800F07EF8F9
:1023200053EC1B2BFFF78CFC3AEE680A20EE080AF0
:10233000044620EE280A0D4610EE100A00F05CFC60
:1023400022462B46FFF77CFC51E000F05AF853D5AB
:1023500030EE290A00F055F84EDB30EE4ACA00F0A4
:1023600059F800F071F800F069F800F057F841EC06
:102370001A0B18EE900A00F03FFC00F047F853ECFF
:102380001B2BFFF75DFC69EE080A044660EEA80A05
:102390000D4610EE900A00F02FFC22462B46FFF768
:1023A0004FFC00F03FF800F031F822462B46FFF7D3
:1023B00047FC06460F461CEE100A00F01DFC00F01C
:1023C00025F804460D461CEE100A00F015FC00F03E
:1023D00025F800F027F802460B4620462946FFF76D
:1023E000E5FA02460B4630463946FFF76DFA00F033
:1023F00027FC00EE100A01E09FED6E0ABDEC0A8B8F
:10240000F1BDB4EE4A0AF1EE10FA704753EC1A2B04
:10241000FFF752B818EE100A00F0EEBB22462B462A
:10242000FFF74AB804460D4619EE900A00F0E4BBE7
:1024300004460D461AEE100A00F0DEBB04460D46B7
:1024400018EE900A00F0D8BB0022DFF86C35FFF7D9
:1024500033B8000070B52DED088BF0EE408AB0EE79
:10246000608A80B2F0EE41BA00EE100AF3EE0F0A75
:10247000B0EE42BA0C4615460026B8EE409ACBEEB6
:10248000A09AF0EE61AA00EE106AB8EEC00A69EEFA
:10249000802A00F06DF8DFED480AC0EE800AFDEEFC
:1024A000E00A29EE800A10EE900A80EE090A24F86C
:1024B0001600BDEEC00A10EE101A25F81610761C94
:1024C0001F2EE0DBB3EE0F0A1F26CAEE809AA6F19C
:1024D0001F0000EE900AF8EEE00AF0EE6B2A00F022
:1024E00045F800F051F83E2EF1DBB3EE0F0A3E2620
:1024F000CBEE009A3BEEAAAAA6F13E0000EE900AAF
:10250000F8EEE00AF0EE4A2A00F030F800F03CF86D
:102510005D2EF1DB7AEE0B2A00F02AF8DFED260AB9
:10252000C0EE800A29EE800AFDEEE00A80EE090A7C
:1025300010EE900ABDEEC00AA4F8BA0010EE101A10
:10254000A5F8BA105E20414204EB410205EB4101BF
:10255000B2F8743124F81030B1F8742125F8102045
:10256000401CBA28EFDDBDEC088B70BD49EEA02AF7
:10257000B0EE4B2AF0EE6A1AB0EE6B1AF0EE480A93
:10258000B0EE680A8AE600009FED0B1A81EE001A91
:10259000BDEEC11A29EE800A11EE101A80EE090A6A
:1025A00024F81610BDEEC00A10EE100A25F8160029
:1025B000761C704700000000A037204B0008004048
:1025C000000401400004004000000140D0B51600A6
:1025D000034629D000245B1E052BDFF8C8050F46F3
:1025E00022D8DFE803F003223546576800290CBFE4
:1025F00000220122DFF8B005022100F039FC394940
:10260000012008704F7001228A70CC624C648C6487
:10261000087946438E620120FFF7BEFD4FF08040EF
:10262000016841F001010160D0BD012FDFF87C0598
:102630000CBF002201224FF4807100F019FC2A49DE
:1026400000F058F80220FFF7A7FDDFF86405E7E780
:10265000DFF860053A4607B10122202100F008FCAE
:10266000224900F047F80320FFF796FDDFF8480500
:10267000D6E700290CBF002201224FF4805100F060
:10268000F7FB1B4900F036F80420FFF785FDDFF863
:102690002C05C5E700290CBF002201224FF40041A0
:1026A00000F0E6FB194900F025F80520FFF774FD5E
:1026B000DFF80C05B4E7DFF80C053A4607B1012254
:1026C0004FF4804100F0D4FB114900F013F80620CC
:1026D000FFF762FDDFF8F004A2E700007855002064
:1026E000000C00409C850020F48500204C860020D2
:1026F000A4860020012008704F708870CC624C6462
:102700008C64087946438E6270470000FC86002086
:10271000548700202400004010B588B000200090AD
:10272000DFF8A844DFF8A80400F008F900F0CEFBB9
:102730004FF08040206007214FF47A700022E06063
:102740006160A2602261204600F01CFC00F0CDF820
:102750000422204600F060FC012204214FF080405A
:1027600000F05BFE002200211C2000F07FFE1C20F8
:1027700000F099FE20686FF001010161C26842F02B
:102780000102C260204600F00AFC2068416C41F45E
:102790000041416408B010BD2408004024040140F9
:1027A000240400402400014038B588B00020009087
:1027B000DFF82044DFF81804DFF8F453016841F033
:1027C00004010160006800F004000090009800F02F
:1027D00097FE00F01AF80021029160200821049170
:1027E00001904FF4807100220691039205920792A6
:1027F00001A9204600F010FC00F0AAF800220021F8
:102800001E2000F033FE1E2025E00720606000211E
:102810004FF47A70E060A16021612560204600F0ED
:10282000B1BB38B588B000200090DFF8AC43DFF8CA
:10283000AC03E14D00F04FF800F0BEFE0F20FFF7B3
:10284000E5FF00F08AF800F083F8002200212C2038
:1028500000F00CFE2C2000F026FE20686FF0010135
:102860000161C26842F00102C260204600F097FB9D
:102870002068416C41F40041416409B030BD38B575
:1028800088B000200090D64CD148CC4D00F023F801
:1028900000F0E4FEFFF7B9FF00F027F80C22204615
:1028A00000F0BAFB01220C21284600F0B6FD002200
:1028B00000211D2000F0DAFD1D2000F0F4FD20684D
:1028C0006FF0100101616FF001020261C16841F017
:1028D0000101C160C9E7016841F0020101600068BF
:1028E00000F00200009000987047002102916020E3
:1028F000002208210190039204910592069207920A
:1029000001A9704738B588B000200090B54CB34895
:10291000AB4D00F013F800F0F5FE0F20FFF776FF47
:1029200000F01BF800F014F800220021192000F03C
:102930009DFD19208FE70000240C0040016841F044
:1029400001010160006800F00100009000987047EC
:1029500001220021284600F060BD00210291602084
:102960000821019000220491039205920692079299
:1029700001A9204600F050BB38B588B00020009077
:10298000994C9348904D016841F00801016000683E
:1029900000F008000090009800F012FFFFF735FFEC
:1029A000FFF7DBFFFFF7D4FF00220021322000F009
:1029B0005DFD32204FE700000000E03F2DE9F843C5
:1029C0002DED028B401E0A9E884FDFF824820528D9
:1029D000914607F1720407F1B205B1EE048A23D8DB
:1029E000DFE800F00326425D7893BD89FC896B43E4
:1029F00000F0A7F800F0D1F8FEF736FF03463B825F
:102A000008F5BC7200F0AEF8414600F0BBF800F0EB
:102A10009EF80120FFF7DCF94A4600210120BDECB9
:102A2000028BBDE8F843D1E5BDEC028BBDE8F18334
:102A3000BA8DFC8D534300F084F800F0AEF8FEF739
:102A400013FF03463B8608F58D6200F08BF808F50E
:102A50003C7100F097F800F07AF80220FFF7B8F91F
:102A60004A4600210220DAE72288678800F073F8DE
:102A700000F093F8FEF7F8FE0346A38008F5EB623A
:102A800000F078F808F5BC6100F07CF800F05FF821
:102A90000320FFF79DF94A4600210320BFE7E28BA0
:102AA000278C00F058F800F078F8FEF7DDFE0346BA
:102AB000638408F6482200F05DF808F50D6100F027
:102AC00061F800F044F80420FFF782F94A4600213B
:102AD0000420A4E7A28FE78F00F03DF800F05DF836
:102AE000FEF7C2FE03462B8008F6385200F042F88B
:102AF00008F53C6100F046F800F029F80520FFF7E2
:102B000067F94A460021052089E76A8BAF8B00F000
:102B100022F800F042F8FEF7A7FE0346EB8341F2ED
:102B2000280200F027F8424408F56B6100F02AF80B
:102B300000F00DF80620FFF74BF94A460021062069
:102B40006DE73C20B3FBF0F0001BFFF767B84FF4D4
:102B500000020121704753433C20B3FBF0F0C01B3F
:102B6000FFF75CB89BB200EE103AF8EE400A00EEB8
:102B7000104A70479BB200EE103AF8EE400A00EEA1
:102B8000107A7047B0EE002AF0EE481AB0EE001A44
:102B9000B0B2B8EE400AFFF75DBC0022154BFEF75D
:102BA00005BF000000140240001002400004024073
:102BB00000080040001802400004014000040040EA
:102BC00000000140000C0240000C00405889002029
:102BD00040380240A0890020E889002044380240A3
:102BE000308A0020788A0020C08A002018670020E0
:102BF0007855002000002C40C0F3C75181B1FF2957
:102C000006D0C110400721F0E04101F1605170474A
:102C100041020CBF40F4E0016FF00041002070471A
:102C200000F0004100020AD0B0FA80FC00FA0CF07B
:102C300001F16051A1EB0C5101EBD021400570472F
:102C400001F000428B1AA3F16051B1F5801F0ADB3D
:102C5000B1F17F6F1FD242EAC102C10071F10041A0
:102C600042EB507070470B15C3F10903212B10D2B2
:102C7000890241EA905180020128494141F0004116
:102C800021FA03F0C3F12003994071F10041504152
:102C90007047100070476FF0000013EB103F5CBFEF
:102CA000000E42EAC05070472DE9F84F0D464FF034
:102CB00000087A490F22012304462E6803FA08F01F
:102CC00000EA0609814540F0C5804FEA480C03261A
:102CD00006FA0CF66FEA060E6E6806F00307012F7F
:102CE0001CBF06F00306022E11D1A668EF680EEA9B
:102CF000060607FA0CF73E43A660666826EA00005F
:102D00006E68C6F3001606FA08F6304360604FEAB4
:102D100088002E7906F00306032E1FD0E668AF6800
:102D20000EEA060607FA0CF73E43E6602E7906F037
:102D30000306022E12D14FEAD80604EB860600F0F5
:102D40001C07D6F820A002FA07FB2AEA0B0AD5F8DE
:102D500010B00BFA07F747EA0A07376226680EEA4F
:102D600006072E7906F0030606FA0CF63E432660A7
:102D70006E68F6006ED5002600964FEA980C0E6835
:102D8000DFF81CE146F480460E6000F00C000E688F
:102D900006F480460096009E5EF82C7002FA00F65B
:102DA00027EA06063F4FBC4208BF002722D03E4F0D
:102DB000BC4208BF01271DD03C4FBC4208BF0227C0
:102DC00018D03B4FBC4208BF032713D0394FBC4239
:102DD00008BF04270ED0384FBC4208BF052709D0D2
:102DE000364FBC4208BF062704D0354FBC420CBF4B
:102DF0000727082707FA00F030434EF82C006FEA47
:102E0000090C304806680CEA060E6E68F70348BFE6
:102E100049EA0E0EC0F800E046680CEA060E6E683D
:102E2000B70348BF49EA0E0EC0F804E086680CEA12
:102E3000060E6E68F70248BF49EA0E0EC0F808E0B9
:102E4000C6680CEA060E6E68B60248BF49EA0E0E66
:102E5000C0F80CE008F10108B8F10F0F7FF62DAFB4
:102E6000BDE8F18F0069084018BF0120C0B270476B
:102E700002B9090481617047426901EA0203914382
:102E800041EA0341816170470F4A136803421CBF46
:102E9000106000F050BE704700000000443802404F
:102EA00008380140000002400004024000080240CF
:102EB000000C0240001002400014024000180240C2
:102EC000001C0240003C0140143C014038B586B073
:102ED00000200090274C2848284D016841F001014E
:102EE0000160026802F00102009200220099009243
:102EF000036843F010030360016801F010010091C2
:102F0000009900920222036843F002030360006804
:102F100000F002000090009901920292049201A92F
:102F2000012205921648FFF7BFFE012202920221FC
:102F3000019104910022059201A92046FFF7B4FEF9
:102F40004FF40071019101220292022104910022AA
:102F5000059201A92846FFF7A7FE0022022120467C
:102F6000FFF786FF01224FF400712846FFF780FF2C
:102F700007B030BD0010024030380240000402406B
:102F80000000024038B5040001D1012032BD00F03C
:102F90003FF818B900F038F801F0E7F814E00168DC
:102FA0000A6A41F211131A4202BF0A6A40F244430C
:102FB0001A42FFE703D10A68520852000A60012151
:102FC00080F83D100020704702206870211D2068A5
:102FD00000F0DFF80120A872A870E870287168710D
:102FE000A871E871287268726870002032BD38B527
:102FF000040001D1012032BD00F00AF818B900F038
:1030000003F801F039FADFE7002129702046704704
:1030100004F13C056878704738B500F057F801D1E5
:10302000022032BD012084F83C0032B1042A15D0C0
:10303000082A25D00C2A34D044E0206800F0F4F8A7
:103040002168886940F008008861886920F00400E0
:1030500088618A69286902438A6133E0206800F048
:103060000FF92068816941F400618161816921F46F
:103070008061816181692A6941EA0221816121E0DF
:10308000206800F02DF92168C86940F00800C86187
:10309000C86920F00400C861CA6928690243CA618E
:1030A00010E0206800F04BF92068C16941F400612C
:1030B000C161C16921F48061C161C1692A6941EAC4
:1030C0000221C161002084F83C0032BD04460D4657
:1030D00094F83C000128704738B500F04EF801D153
:1030E000022032BD0120207002226270DFF89402BB
:1030F0002A689368034093600868020018BF10288C
:103100002DD0202818BF302829D0402823D050287F
:1031100016D0602818D0702803D0B0F5005F07D013
:1031200021E000F025F82868816841F0770105E08A
:1031300000F01EF82868816841F48041816012E047
:1031400000F012F850210BE0CA684968286800F0C6
:1031500040F9602104E000F007F8402100E001465A
:10316000286800F048F90EE0CA684968286821E13B
:10317000CB684A688968286845E1054605F13C0442
:103180002078012870470120607000212170002004
:1031900032BDF0B57C4C05687C4B7D4E7D4FDFF831
:1031A000F8C1A04218BFB0F1804F07D0604518BFEA
:1031B000B84203D0B04218BF98420DD14A6825F0FA
:1031C00070051543A04218BFB0F1804F17D060457D
:1031D0001CBFB842B04212D098421CBF6F4A904206
:1031E0000DD06F4EB0421CBF6E4A904207D06E4E5B
:1031F000B0421FBF6D4A90426D4EB04203D1CA68C3
:1032000025F4407515434A6925F08005154305608E
:10321000A0428D68C5620A68826212BF984209693D
:10322000016301224261F0BDF0B5026A564F5208B7
:1032300052000262066A446885690B688A6825F054
:10324000730526F002061D431643504BB84218BFC3
:10325000984207D1CA6826F008061643B84226F0FD
:10326000040601D0984205D14B698A6924F4407460
:103270001C43144344608561496841630662F0BDA4
:10328000F0B5026A404E22F010020262B042056AB6
:10329000436884690A6824F4E64444EA02248A689C
:1032A00025F0200545EA0215384A18BF904208D19A
:1032B000CF6825F0800545EA0715B04225F04005A6
:1032C00001D0904206D14E698A6923F440631643C7
:1032D00043EA860343608461496881630562F0BD07
:1032E000F0B5026A22F480720262056A4368C4691A
:1032F0008E680A6825F4007524F0730445EA0625F3
:103300001443214E214AB04218BF904208D1CF68E1
:1033100025F4006545EA0725B04225F4806501D013
:10332000904206D14E698A6923F44053164343EA1A
:1033300006134360C4614968C1630562F0BD70B59E
:10334000026A114E22F480520262B042046A42685C
:10335000C3690D6823F4E64343EA05238D6824F42A
:10336000005444EA05341CBF084DA84204D14D69FD
:1033700022F4804242EA85124260C36149680164D6
:10338000046270BD8800FFFF00000140000401409E
:10339000000C0040000800400004004000400140D4
:1033A000004401400048014000180040001C00405B
:1033B0000020004010B5036A046A640864000462D7
:1033C00023F00A03846924F0F00444EA02148461BF
:1033D0002EE010B5036A23F0100303628369046AC8
:1033E00023F4704343EA023324F0A004836144EAE7
:1033F0000114046210BD826822F07002114341F092
:1034000007018160704710B5846824F47F4421432C
:10341000114341EA0321816010BD10B501F01F0185
:10342000036A01248C40A343036202FA01F1036A98
:103430001943016210BD00000901020002D42948AD
:1034400081547047284B02F00F021A4402F8041C02
:103450007047264B19684FF6FF020002114000F436
:10346000E0600843224908431860704738B51F4B95
:103470001C68C4F30223C3F10704052C28BF0424ED
:103480001D1D072D34BF0023DB1E012505FA04F4A2
:10349000641E2140994005FA03F35B1E1A40114354
:1034A000BDE83440C8E7010007D4012200F01F0145
:1034B000104B8A40400943F82020704710B5401E49
:1034C000B0F1807F01D3012010BD0B4C60600F2153
:1034D0004FF0FF30FFF7B0FF0021A1600720206010
:1034E000002010BD00E400E018ED00E00CED00E06D
:1034F0000000FA0500E100E010E000E000F082BA10
:1035000038B586B000200090284C2948294D016824
:1035100041F002010160026802F002020092002202
:1035200000990092036843F002030360016801F010
:1035300002010091009900924022036843F02003A9
:1035400003600223006800F02000009020460099EC
:10355000019202930493059301A9FFF7A5FB0121B2
:103560004FF480720291019200210222059104928F
:1035700001A92046FFF798FB102101910122029238
:10358000022104910022059201A92846FFF78CFB35
:1035900000224FF480712046FFF76AFC01221021BF
:1035A0002846FFF765FC07B030BD0000000402406C
:1035B000303802400014024010B586B00020009060
:1035C000234C2448016841F004010160026802F0C4
:1035D00004020092002200990092036843F0400325
:1035E0000360016801F040010091009900924022BF
:1035F000036843F0400303600223006800F04000CA
:1036000000900099144801920293032204930592BA
:1036100001A9FFF749FB202100F00FF8102100F06D
:103620000CF8002220212046FFF722FC0122102165
:103630002046FFF71DFC06B010BD01910122029249
:10364000022104910022059201A92046FFF72CBB1C
:1036500000180240303802400008024010B586B021
:1036600000200090244C2548016841F002010160CF
:10367000026802F0020200920022009900920368A0
:1036800043F020030360016801F0200100910099DC
:1036900000920222036843F020030360006800F0F8
:1036A000200000900099019202920492059201A9D3
:1036B0001348FFF7F9FA4FF4805100F012F84FF475
:1036C000005100F00EF800224FF480512046FFF721
:1036D000CFFB01224FF400512046FFF7C9FB06B093
:1036E00010BD019101220292022104910022059253
:1036F00001A92046FFF7D8BA001402403038024032
:103700000004024038B586B000200090284C2948BB
:10371000294D016841F010010160026802F01002B9
:103720000092002200990092036843F02003036096
:10373000016801F020010091009900924FF400729D
:10374000036843F0400303600223006800F0400078
:103750000090009919480192029301220493059266
:1037600001A9FFF7A1FA4FF4004101910122029251
:10377000022104910022059201A92046FFF794FA44
:10378000012101910291002202210491059201A9D7
:103790002846FFF789FA00224FF400412046FFF740
:1037A00067FB012201212846FFF762FB07B030BD0D
:1037B000001402403038024000180240001002405D
:1037C00010B586B000200090254C2648016841F0D5
:1037D00001010160026802F00102009200220099DA
:1037E0000092036843F008030360016801F00801D8
:1037F0000091009900920122036843F008030360DE
:103800000223006800F008000090009901920293E2
:103810000493059301A91448FFF746FA4FF4804139
:1038200000F012F84FF4004100F00EF800224FF4BF
:1038300080412046FFF71CFB01224FF40041204647
:10384000FFF716FB06B010BD019101220292022182
:1038500004910022059201A92046FFF725BA000035
:10386000000C0240303802400000024001B500F078
:1038700004F800F03EFE009802BD4FF0FF33012235
:103880006946DFF8D8047047F8B504460D46164679
:10389000DFF8CC7400F018F80028FBD1002200F00B
:1038A0000EF80A200090B3B222462946DFF8B4048D
:1038B00001F020F9012200F002F80020F2BD4FF4DF
:1038C00000513846FFF7D4BA4FF400413846FFF7AD
:1038D000C9BA80B501F0A8FA00F039F84FF4FA60DF
:1038E00001F0BCFA01F0CEFA01F02EFC01F047FC29
:1038F00001F055FC00F0B0FA00F0E6FA00F00FFB22
:1039000000F056FB00F061FB00F0CEFB01F0FAFC8A
:1039100001F00AFD01F01AFD01F02AFD01F049FD58
:1039200001F056FD00F09CFB00F089FB00F046FA28
:1039300001F0A3FF01F0A2FF01F0ACFE01F09FFF38
:1039400001F09DFF00F09EF900F0B7F9F8E780B5AF
:1039500092B006A8302102F05DF901A8142102F00E
:1039600059F9002000904FF48033DFF8FC03016820
:1039700041F0805101600021006800F0805000900B
:103980000098DFF8E8030091026842F48042026088
:103990000122006800F48040009006A80099069279
:1039A00002214FF480020C910D920421A8220E9165
:1039B0000F920221042207931091119202F02EF926
:1039C00008B100F00AFA02210291002203920F20AE
:1039D0004FF4A051019004914FF4805205920521BB
:1039E00001A802F0B3FA08B100F0F7F913B000BD76
:1039F00001E0491EFDD10246501E242192B2002A48
:103A0000F7D17047F8B5DFF868436068002804D044
:103A10006078401C6070C0B2002800F08B80DFF836
:103A200054532878BF2804BFA87808287CD10020E8
:103A300020614FF4FA6640F2D177608894F800E094
:103A4000821E831CA168D4F80CC0BEF1010F13D1F3
:103A5000BCF10A0FB8BF184603DBBCF1290FA8BFA1
:103A6000104682B2BA42A8BF304602DAC92AB8BFAD
:103A7000C82011FA80F112E0BCF1290FA8BF184646
:103A800003DABCF10A0FB8BF104682B2BA42A8BF2F
:103A9000304602DAC92AB8BFC82082B2891A6080CB
:103AA000A160080048BF40420A2803DD012002F05F
:103AB000B8FB01E002F0B1FB02F0C0FB287A142849
:103AC000BCBF44F62060FFF793FF2069401C6428C8
:103AD0002061B2D32078E16801280CBF491C491E3F
:103AE000E160E2682969322A0DDB012820D100203B
:103AF0002070C82262800FF2E82002F0C7FBA168A4
:103B00000FF2F8200DE0002A12DC88B901202070A5
:103B1000C82262800FF2043002F0B8FBA1680FF2F5
:103B2000183002F0B3FB03E002F077FB02F086FBF3
:103B300000206070F1BD012800D0704780B51121D0
:103B400002F0C2FBC00704D5DFF82C12012002F0FE
:103B5000EDFB1121022002F0B7FB800704D5DFF84E
:103B60001C12022002F0E2FB1121032002F0ACFB48
:103B7000400704D5DFF80812032002F0D7FB11211B
:103B8000042002F0A1FB000706D5BDE80440DFF8E1
:103B9000F411042002F0CABB01BD10B50068DFF8C3
:103BA000E831DFF8E811984201F5C1620BD11088C5
:103BB000FD2804DA0C780B18401C1C7210800122BE
:103BC000DFF8CC0158E0DFF8CC3198420DD15088B5
:103BD000FD2805DA4C780B18401C83F8084150800A
:103BE0000122491CDFF8B00146E0DFF8B03198420D
:103BF0000DD19088FD2805DA8C780B18401C83F8CD
:103C0000084290800122891CDFF8500134E0DFF87F
:103C1000903198420DD1D088FD2805DACC780B1868
:103C2000401C83F80843D0800122C91CDFF87401CE
:103C300022E0DFF8743198420DD11089FD2805DAB1
:103C40000C790B18401C83F8084410810122091DCF
:103C5000DFF8580110E0DFF85831984210D1508950
:103C6000FD2805DA4C790B18401C83F80845508173
:103C70000122491DDFF83C01BDE8104000F092BC74
:103C800010BD704780B502F077FB02F0E1FB02F057
:103C900029FD02F093FD02F0C1FE02F02BFF03F0BC
:103CA00059F803F0C3F803F0F1F903F05BFA03F0FD
:103CB00089FBBDE8014003F0F1BB38B53E4C04F18F
:103CC0008405E86A012846D10021E962642001F0F8
:103CD000C5F8206F2268E36E00900021606802EB57
:103CE00000420120FEF76AFEE06FA268A36F009019
:103CF0000021E06802EB00420220FEF75FFE6868E8
:103D0000616922692B68009002EB014200210320C7
:103D1000FEF754FE2869A269EB6800900021E06973
:103D200002EB00420420FEF749FEE869226AAB6913
:103D300000900021606A02EB00420520FEF73EFE83
:103D4000A86AA26A6B6A00900021E06A02EB004256
:103D50000620FEF733FE31BD00000000588E002023
:103D6000001802405C88002040380240007000408B
:103D700000000020B4750020AC7D0020AC7E002047
:103D8000AC7F0020AC80002000100140A86D002016
:103D9000D08D002000440040148E002000480040D8
:103DA000004C0040488D0020005000408C8D0020C9
:103DB000001401409C8E00201801002080B5FEF701
:103DC000ABFCFEF7F1FCFEF72CFDFEF758FDFEF70D
:103DD00099FDBDE80140FEF7CFBD72B6FEE70000D9
:103DE00063757272656E745F506F733128526561CE
:103DF0006C293D203D25780A0D0000006375727224
:103E0000656E745F506F733128746172676574708A
:103E1000293D203D25780A0D00000000637572726F
:103E2000656E745F506F7332285265616C293D2056
:103E30003D25780A0D00000063757272656E745F2F
:103E4000506F73322874617267657470293D203D2C
:103E500025780A0D00000000D8B595B011A800F033
:103E60008FF80FF2D4540AA800F09BF802A8202182
:103E700001F0D0FEDFF86C45DFF86C052060A7216B
:103E8000616040F2E7300022E0608021A2602261A0
:103E90006261A16100F005F908B1FFF79EFF4FF4E0
:103EA0008050119011A900F037F808B1FFF795FF85
:103EB00000F059F808B1FFF790FF2021009100228F
:103EC00001926946204623E1D8B58DB000F057F83D
:103ED0000FF26C5400F064F8DFF810454FF08040AA
:103EE00000F051F808B1FFF778FF00F011F808B1C1
:103EF000FFF773FF00F037F808B1FFF76EFF00F02F
:103F000097F808B1FFF769FF00F030F8042284E069
:103F10004FF48050099009A92046FFF7DDB8D8B5C5
:103F20008DB000F02CF80FF2205400F039F8DFF8D3
:103F3000C044DFF8C00400F026F808B1FFF74DFFD9
:103F4000FFF7E6FF08B1FFF748FF00F00CF808B1F3
:103F5000FFF743FF00F06CF808B1FFF73EFF00F0F9
:103F600005F80C2259E02046FFF741B87021029174
:103F70000022022103920491069202A9704709A827
:103F8000102101F047BE2060532140F2E7300022AB
:103F9000E0606160A2602261A2612046FEF7F2BF8C
:103FA00002A8D4E90067CDE900671C2101F032BE08
:103FB000D8B58DB0FFF7E3FF0FF29444FFF7F0FFA1
:103FC000DFF83444DFF834040BE0D8B58DB0FFF7E8
:103FD000D6FF0FF28444FFF7E3FFDFF82444DFF855
:103FE0002404FFF7D0FF08B1FFF7F7FEFFF790FFBB
:103FF00008B1FFF7F2FEFFF7B6FF08B1FFF7EDFEDD
:1040000000F016F808B1FFF7E8FE702102910022D7
:10401000022104910392069202A92046FEF7FCFFBA
:1040200008B1FFF7DAFE204600F040F90EB0D0BD2F
:104030000021009101912046694603F05FBB1CB549
:104040000FF21C40DFF8C04300F024F8002261604A
:10405000A2604FF47A71DFF8B403206080220DE093
:104060001CB50FF20440DFF8A84300F013F86160BC
:104070000022DFF8A00320600121A260E16000F0CF
:104080000FF808B1FFF7A9FEFFF7D2FF08B1FFF75D
:10409000A4FE13BDD0E90023CDE9002353217047CE
:1040A000A2612046FEF76EBFD8B595B011A8FFF704
:1040B00067FF0FF2BC340AA8FFF773FF02A82021A4
:1040C00001F0A8FDDFF85043DFF850032060A7217E
:1040D00040F2E7300022E0606160A260226162612C
:1040E000FFF7DEFF08B1FFF778FE4FF48050119024
:1040F00011A9FFF711FF08B1FFF76FFEFFF733FFBC
:1041000008B1FFF76AFE002100910191204669463F
:1041100003F0F4FA08B1FFF760FE02220C9270205F
:1041200000210A900B910D9100220F910E92109296
:104130000AA92046FEF770FF08B1FFF74EFE0020E7
:104140004FF400510290039004900590069007915F
:10415000099002A9204603F017FB08B1FFF73DFEC6
:10416000204600F0A3F816B0D0BD80B50168DFF896
:104170007822DFF8AC02914210D100210091426810
:1041800042F0010242600022406800F0010000900D
:1041900000981920FFF76AF919207AE0B1F1804FF1
:1041A0000ED100F07FF842F0010200F077F800F045
:1041B0000100009000981C20FFF758F91C2068E0CF
:1041C0008C4A91420ED100F06DF842F0020200F0EC
:1041D00065F800F00200009000981D20FFF746F9F6
:1041E0001D2056E0854A91420ED100F05BF842F066
:1041F000040200F053F800F00400009000981E2024
:10420000FFF734F91E2044E07E4A91420ED100F0BF
:1042100049F842F0080200F041F800F00800009070
:1042200000983220FFF722F9322032E0774A91429B
:104230000ED100F037F842F0100200F02FF800F035
:104240001000009000983620FFF710F9362020E08B
:10425000704A91420AD100F025F842F02002026033
:10426000006800F020000090009801BD6B4A914268
:1042700013D100210091426842F002024260002204
:10428000406800F00200009000982C20FFF7EEF844
:104290002C20BDE80240FFF706B901BD02600022F4
:1042A00000687047002100910268704710B586B021
:1042B00004466846142101F0ADFC23684A48594978
:1042C000834211D1002205920222086840F01000BA
:1042D0000860096801F0100105914FF4007105981C
:1042E000514800F079F86AE0B3F1804F4F4A12D19B
:1042F000002005900B6843F001030B60086800F094
:1043000001000590022105980091019110460121BC
:104310000291039153E0374C4548A3420ED100224D
:10432000059202220B6843F002030B6000F04DF887
:104330000192694601220292039211E02F4CA3429E
:1043400011D10022059240220B6843F002030B605A
:10435000022300F03AF80193012202920392694687
:10436000022204922DE02748834214D100230593B2
:104370000223086840F001000860096801F00101AB
:10438000059101210598009101930021029103916B
:104390001046022113E02148834214D100220592E5
:1043A0000222086840F004000860096801F0040176
:1043B0000591402105981F4800F00EF80321049153
:1043C0006946FEF771FC06B010BD096801F00201F4
:1043D0000591059900927047009101920121029187
:1043E00003917047088B002000000140508B002093
:1043F000988B002000040040E08B00200008004063
:10440000288C0020000C0040708C00200010004020
:10441000B88C002000140040008D002000040140F2
:104420004038024030380240001002400000024094
:1044300000040240000802400000000000000000EC
:10444000000000000000000000000000000000006C
:10445000000000000000000000000000000000005C
:10446000000000000000000000000000000000004C
:1044700000000000000000007047000038B5040094
:1044800001D1012032BD00F026F808B900F014F87F
:1044900000F017F800F023F8FFE7416100F001F8A1
:1044A00032BD2068C16841F40051C16000206860DD
:1044B00020216970A970704700212970204600F002
:1044C00096BF242068702068C16821F40051C16043
:1044D000204600F04DBA04F13C056878704720682A
:1044E000016921F4904101612068416921F02A01AC
:1044F00070472DE9F843054605F13C060C467078F7
:1045000020281746994642D10CB1380001D101202C
:104510003EE0307801283AD00121317000207060EF
:104520002122727003F05AF9AF848046EF84A868A4
:10453000B0F5805F04BF286900280EBF27462046DB
:1045400000270021317004460EE014F8012B426070
:1045500007E02868002CF8D137F8021BC1F30801E6
:104560004160E88C411EE9844346E88CCDF8009018
:1045700000280FD000228021284600F042F90028B0
:10458000E7D0032004E020207070002000E002202B
:10459000BDE8F28300224021284600F032F90028CD
:1045A000F1D0EEE738B500F130039C7B202C0FD121
:1045B00009B1140001D1012032BD1C7B012C07D0B0
:1045C00001241C7300251D60BDE8384000F04BB984
:1045D000022032BD0020206310BDC1602068416907
:1045E0004908490041617047416921F0400141613A
:1045F000A06B70477CB5044622681168D568536982
:1046000011F00F0007D188065FD5AB065DD52046B7
:10461000BDE8764060E1D80702D415F4907F54D00D
:10462000C80705D5EA0503D5206C40F001002064D9
:10463000480705D5DA0703D5206C40F00200206456
:10464000880705D5DA0703D5206C40F00400206404
:10465000080707D5AA0601D4D80703D5226C42F073
:1046600008022264206C00282ED0880604D5A906F2
:1046700044BF204600F030F920684069216C0A07E9
:1046800001D440061BD5204600F008F92068416996
:104690004A060FD5FFF7A8FF60B10FF2312101657F
:1046A000A06B03F0E5F800280ED0A06B016DBDE80B
:1046B0007C4008472046BDE8764003F0F0B820462D
:1046C00003F0EDF80020206473BD206B012804F195
:1046D0003D0354D1C80652D5EE0650D500210091B5
:1046E000156800955168009100985169480625D5D4
:1046F000A16B0868406880B200287BD0A58DA842D5
:1047000078DAE085C869B0F5807F13D0D06820F4EE
:104710008070D060FFF762FF2068416921F040019E
:104720004161202058700021216300F064F8A06BE3
:1047300003F05AF8A18DE08D091A1AE0A08DE18DE1
:10474000411AE08D00281CBF88B2002852D0D068E2
:1047500020F49070D0602068426952085200426193
:1047600020205870002222632068C26822F01002C4
:10477000C2602046BDE87C4089B203F091B80806CB
:1047800029D52E0627D51878212833D1A068B0F571
:10479000805F04BF2069002808D1206A0188C1F326
:1047A00008015160206A811C216204E0206A411CDA
:1047B000216200785060E08C401EE08480B2C8B96D
:1047C0002068C16821F08001C1602068C16841F0A3
:1047D0004001C16073BD48060CD569060AD5D06892
:1047E00020F04000D060202119702046BDE87640BE
:1047F000FFF747BA73BD2068C16821F01001C1609E
:1048000070472DE9F041069C05460E4690461F462E
:10481000286801683140B1420CBF012000204045AA
:1048200017D114F1010FF3D024B102F0D7FFC01B50
:104830008442EDD22868C16821F4D07100F00CF8F0
:1048400005F13C002021417081700021017003209E
:1048500000E00020BDE8F081C16028684169490896
:1048600049004161704781628285C28500F13C0147
:1048700000224A6022238B700A700168CB6843F4DF
:104880008073CB6001684A6942F001024A610068A6
:10489000C16841F02001C160002070470168CA680A
:1048A00022F49072CA6001684A69520852004A6153
:1048B000016B012904D10168CA6822F01002CA60A4
:1048C000202180F83E10002202637047806B002197
:1048D000C185C18402F0E3BF10B5044694F83E00E0
:1048E000222843D1A068A16AB0F5805F0AD120696F
:1048F00068B922685068C0F308000880A16A881C63
:10490000A0620FE0002804BF2069002802D12268BD
:10491000506803E02068406800F07F000870A06ADB
:10492000411CA162E08D401EE08580B2E0B92068A4
:10493000C16821F02001C1602068C16821F4807144
:10494000FFF74BFE202084F83E00216B012906D1A1
:10495000FFF751FF2046A18D02F0A2FF02E02046A2
:10496000FFF71BF9FFF736BE002010BD022010BD77
:1049700070B5044622681169E06821F44051014392
:104980001161D3682648A168034020690B4361691F
:104990000343E0690B430343D3605169A06921F4E9
:1049A0004071014351611F498A421CBF1E48824227
:1049B00002D101F059FB01E001F04EFB626825686D
:1049C000E46964261921B4F5004FA1FB000112D15E
:1049D000D30F5200FCF7ECFC00F028F8F60032365A
:1049E0006420B6FBF0F0420002F4F87202EB011210
:1049F00000F0070010E0930F9200FCF7D9FC00F0E4
:104A000015F8360132366420B6FBF0F000F0F00203
:104A100002EB011200F00F008018A86070BD0000CA
:104A2000F369FFFF00100140001401406421B0FB56
:104A3000F1F106FB1106704738B5040001D10120E1
:104A400032BD606A28B900F051F805D00021E1615B
:104A500002E00020206160610020A06204F15005A6
:104A6000687820B900212970204600F0B7FB0220A9
:104A7000687000F041F96068A168E26800F4827033
:104A800001F404410843217C02F400621043227DBA
:104A900001F002010843A16902F001021043227FE4
:104AA00001F40071084394F8201002F0380210431A
:104AB000A26A01F080010843216802F40052104309
:104AC0000860A06994F824102268000C00F004002B
:104AD00001F01001084350602068C16921F40061B1
:104AE000C161002068600121697032BD6068B0F565
:104AF000827F70472DE9FC4700F0DDF84FF0010898
:104B000008BF022000F0BC809A4687F8008002F0BF
:104B100065FE7B78012B09D06968B1F5827F02BF01
:104B2000A9680029042B01D00226A4E0002C1CBF98
:104B3000B9F1000FBAF1000F01D101269BE07B789B
:104B4000042B1CBF052179707E60C5F83890A5F84C
:104B50003EA0A5F83CA02C63A5F836A0A5F834A08B
:104B60002E646E6429680C68630603D40C6844F0F4
:104B700040040C60E9680A9CB1F5006F696838D19F
:104B8000002918BFBAF1010F00F0AAF88146E88E9B
:104B9000002804BFE88F002874D02968886882073D
:104BA0000BD5E88E002818BFB8F1000F05D0286B90
:104BB0000288CA60B04600F070F829688868C207A9
:104BC0000CD5E88F50B1C868A96B08804FF0010878
:104BD000A86B821CAA63E88F411EE98702F0FEFDE4
:104BE000A0EB0900A042D2D314F1010FCFD00326CD
:104BF00041E0002918BFBAF1010F00F065F88146C5
:104C0000E88E002804BFE88F00283BD02968886818
:104C100082070DD5E88E002818BFB8F1000F07D025
:104C2000286B02780A73B046286B411C00F037F8F5
:104C300029688868C2070CD5E88F50B1C868A96B8D
:104C400008704FF00108A86B421CAA63E88F411E50
:104C5000E98702F0C3FDA0EB0900A04203D314F1E1
:104C6000010FCDD0C3E7002CCAD1C0E7A86810B9A6
:104C700000F01AF800980121797000203870304651
:104C8000BDE8F68721464A46284600F09BF80028F2
:104C9000ECD0202101267960EDE7286B811C296387
:104CA000E88E411EE986704700962968CA6800921E
:104CB000896800917047054605F15007002638784D
:104CC00001280C469146704709D1296B2B680A7858
:104CD0001A73296B4A1C2A63E98E4A1EEA867047BA
:104CE00009D1296B2B680A88DA60296B8A1C2A6330
:104CF000E98E4A1EEA8670472068016821F040016B
:104D0000016070472DE9F843089C05460E46904621
:104D10001F4602F063FD381A241802F05FFD814639
:104D20003F4801684901090D6143009105E0009881
:104D300000B900240098401E009028688168314026
:104D4000B1420CBF01200020404532D017F1010FC5
:104D5000F3D002F043FDA0EB0900A04201D2002CE9
:104D6000E5D12868416821F0E00141606868B0F54C
:104D7000827F08D1A868B0F5004F18BFB0F5806FEA
:104D800001D100F019F8A86AB0F5005F09D12868D0
:104D9000016821F4005101602868026842F4005261
:104DA000026005F1500001214170002202700320D1
:104DB00000E00020BDE8F2832868016821F040018E
:104DC000016070477CB504461548164E0B460168D5
:104DD0001825B1FBF5F5B5FBF6F64FF47A704643AE
:104DE00000966168B1F5827F09D10092802100228E
:104DF0002046FFF787FF58B100F00CF876BD009809
:104E000030B10098401E0090216888680106F6D4F1
:104E1000002076BD606D40F0200060650320704783
:104E20004C00002040420F0080B50B48016841F45F
:104E300000710160026842F480620260016841F41E
:104E4000807101600320FEF704FB002002F02AFDC0
:104E500002F048FD002002BD003C024038B5044687
:104E600002F0BCFC14F1010F054602D004480178A1
:104E7000641802F0B3FC401BA042FAD331BD00BF5E
:104E8000400000202DE9F84F86B06846142100F05C
:104E9000C1FE00248F48904D904EDFF844B2DFF8F9
:104EA0004482DFF84492DFF844A205944FF21007E1
:104EB000016841F010010160026802F010020592E1
:104EC000012205990594036843F004030360016817
:104ED00001F0040100F032F943F02003036001689F
:104EE00001F0200100F02AF943F08003036001681B
:104EF00001F0800100F022F943F001030360016832
:104F000001F0010100F01AF943F0020303600168A7
:104F100001F0020100F012F943F040030360016860
:104F200001F0400105910599059439460368704CDC
:104F300043F008030360006800F00800059005983E
:104F40002046FDF795FF012242F23F012846FDF77A
:104F50008FFF01224CF23B113046FDF789FF002202
:104F60004FF4E0712846FDF783FF01224FF4607192
:104F70005846FDF77DFF01224FF419414046FDF7E9
:104F800077FF01224FF460714846FDF771FF01225F
:104F900003215046FDF76CFF4FF6DC5000F0BBF8E4
:104FA0005046FDF781FE0F2000F0B5F82046FDF7D2
:104FB0007BFE009700F0A9F820466946FDF774FED5
:104FC00001204C49009001910022029200F094F8D7
:104FD000302000F0A0F800F090F8012000F09BF8DD
:104FE0004846FDF761FE4FF40060002100900191FA
:104FF0000122029269462046FDF756FE00F09AF81B
:105000003F2100910022039200F090F800F092F806
:105010004FF480710091022200F072F84FF4725048
:1050200000F079F800F06EF800F084F84CF23B01E3
:105030000091002200F064F84FF4A0710091012269
:1050400000F070F880210091112200F06BF801212E
:10505000019102914FF4607400210391009400F0DB
:105060004BF800F067F84FF41941009100220392C9
:1050700069464046FDF718FE4FF41C4000900021A1
:1050800001910222029200F051F800F053F84FF41F
:10509000005100910322039200F048F800F035F827
:1050A000009469464846FDF7FFFD00F043F80321F0
:1050B00000910022039269465046FDF7F5FD00225B
:1050C00000210620FEF7D2F90620FEF7ECF907B022
:1050D000BDE8F08F3038024000180240000C02405A
:1050E000000802400000024000040240001002409C
:1050F000001402400000111069465846FDF7D4BD67
:10510000039269463046FDF7CFBD01200021019092
:1051100002900391704700210090019102220292B7
:105120006946704700210291039101926946284621
:10513000FDF7BABD012201920292704705910599CF
:10514000059403687047000080B5654865490160B3
:105150004FF4827218214260C16100234FF4802213
:105160000A218360C3600361436182610362436219
:105170008362C162FFF760FC00B10CE001BD80B545
:1051800059485A4900F017F84FF4802200F019F8F6
:1051900000B100E001BDBDE80140FEF71EBE80B5D4
:1051A0005348544900F007F84FF4007200F009F832
:1051B00000B1F0E701BD01604FF48272426000234C
:1051C00070470A218360C360036143618261C361E8
:1051D000036243628362C162FFF72EBC10B586B0E2
:1051E00004466846142100F015FD22683D484249F6
:1051F000824220D100220592486940F480504861E3
:10520000486900F4805005900598059202220B68C9
:1052100043F001030B60086800F001000590F021E5
:105220000598364800910192002102910322052140
:10523000049103922EE02D4B31489A4213D1002263
:1052400005920B6943F480430B6100230A6902F461
:1052500080420592059A05934FF4704200F01FF8C2
:105260000393052215E0234B9A4216D100220592A2
:105270000B6943F400430B6100230A6902F4004206
:105280000592059A0593382200F009F80323039349
:10529000062204926946FDF707FD06B010BD0C68B2
:1052A00044F002040C600223096801F00201059138
:1052B00005990092019300220292704701B582B0D5
:1052C00000F007F80648FFE7FFF714FC9DF804001C
:1052D0000EBD4FF47A700090012301AA02A9704715
:1052E000AC870020003001400488002000380040D6
:1052F0005C880020003C0040303802400000024042
:105300000004024010B5DFF82C43DFF82C0300F056
:1053100041F808B1FEF761FD2046BDE810400122CA
:10532000DFF81813FFF73EB910B5DFF81443DFF8C4
:10533000140300F02FF808B1FEF74FFD2046BDE83A
:1053400010400122DFF80013FFF72CB910B5DFF889
:10535000FC42DFF8FC0200F01DF808B1FEF73DFD4D
:105360002046BDE810400122DFF8E812FFF71AB925
:1053700010B5DFF8E442DFF8E40200F00BF808B102
:10538000FEF72BFD2046BDE810400122DFF8D012C9
:10539000FFF708B920604FF461410C2000226061E2
:1053A0006160A260E2602261A261E2612046FFF7D3
:1053B00065B810B5AB4CAC48FFF7ECFF08B1FEF791
:1053C0000CFD2046BDE810400122A849FFF7EAB8CD
:1053D00010B5A74CA748FFF7DDFF08B1FEF7FDFCAD
:1053E0002046BDE810400122A349FFF7DBB838B5DD
:1053F00086B004466846142100F00CFC23688E4CED
:105400009E489F49A3424FF4406227D10023059351
:105410000C6944F400240C6100240B6903F400239C
:105420000593059B05940D6845F004050D600B6818
:1054300003F0040305936946059B00920123029340
:1054400003930222082301920493FDF72DFC00220E
:1054500000213420FEF70AF83420CDE0794CA34235
:105460003ED1002205920B6943F480130B610023A7
:105470000A6902F4801200F0C3F80C6844F00404D6
:105480000C600A6802F0040200F0BAF84FF480528F
:105490000C6844F008040C600223096801F008015C
:1054A00005910599009201930122029203926946A7
:1054B00008220492FDF7F8FB0122029203920420D5
:1054C0000221009001910822049269466D48FDF77F
:1054D000EBFB002200213520FDF7C8FF35208BE0D3
:1054E0005B4C6948A34216D1002205924B6943F0F8
:1054F00010034B6100234A6902F0100200F080F8AB
:105500004FF4C06200F080F8002200212520FDF752
:10551000ADFF252070E0514CA34215D10022059229
:105520000B6943F400330B6100230A6902F4003273
:1055300000F066F80C2200F067F800220021262017
:10554000FDF794FF262057E04748834227D10023E8
:105550000593086940F480200861086900F4802000
:1055600005900598494805930C6844F002040C60C6
:10557000096801F0020105910599009207210222B4
:10558000019204910122029303926946FDF78CFB7C
:10559000002200212720FDF769FF27202CE0354855
:1055A00083422BD100220592486940F020004861D7
:1055B000486900F0200005900598059202220B68CA
:1055C00043F040030B60086800F0400005904FF482
:1055D000844105982E4800910192002102910122F8
:1055E0000821049103926946FDF75EFB0022002129
:1055F0004720FDF73BFF4720FDF755FF07B030BDC3
:105600000592059A059370470C6844F001040C60FC
:105610000223096801F001010591059900920193A7
:105620000022029201230722039304926946FDF7A8
:105630003BBB0000488D0020004C0040AB6D0020BB
:105640008C8D002000500040AC6D0020D08D0020DB
:1056500000100140A86D0020148E0020004400407E
:10566000A96D0020588E002000480040AA6D00203F
:105670009C8E002000140140AD6D00200008024007
:1056800030380240000C024000000240000402409A
:1056900000180240F0B5DFF8D004DFF8D044DFF89E
:1056A000D054DFF8D0746421A0F8281240F2E572DB
:1056B00000F204514FF4A7730A804B800121DFF8F8
:1056C000B82411700023DFF8B4242370137001266E
:1056D000DFF8AC44DFF8AC2423701370DFF8A84483
:1056E000DFF8A82423701370DFF8A444DFF8A424A3
:1056F00023701170DFF8A0442170DFF8A014DFF8E8
:10570000A04401F1C80213602B709667267044F222
:10571000A015DFF890644B1933603B60002401F55D
:10572000DE73DFF884641C605C609C61DC611C6279
:105730005C629C62DC623470146794661C665C6612
:105740009C66DC661C675C679C64DC641C655C654D
:105750009C65DC6501F5627201F513730026DFF8C4
:105760004C54D4601C605C609E60DC601C615C61B9
:105770002C7000F5DF730124DC851E800125166086
:105780009D85A0F866610023DFF82444DFF82464D7
:10579000DFF8245423603360DFF82044DFF820640E
:1057A00023603360DFF81C44DFF81C64236033603F
:1057B000DFF81844DFF8186423603360DFF814441E
:1057C000DFF8146423603360DFF81044DFF81064FE
:1057D0002360336013652B70DFF80864DFF808542A
:1057E00033702B70DFF80464DFF8045433702B70CF
:1057F000DFF80064337093650022DFF8FC331A7021
:10580000012243F6A043502454430C44E250521C5E
:10581000102AF8DB0122A02353430B4403F58244F2
:105820002260521C1F2AF6DB01F20C420123136096
:1058300053609360D36013615361002220F8E82F16
:1058400042808280C2800281428101F29440DFF86E
:10585000AC13DFF8AC330260426082600A801A80C9
:10586000DFF8A013DFF8A0330A801A80DFF89C135A
:10587000DFF89C330A801A80F0BD70477047F0B59E
:10588000DFF8E41201F58D754FF46142E8890128D3
:105890001EBF02280120E8812888B0F5166F18BFC6
:1058A000B0F5965F0BD0B0F5165F18BFB0F5964F08
:1058B00005D0B0F5164F1CBFB0F5614F2A8068883F
:1058C000B0F5166F18BFB0F5965F0BD0B0F5165F48
:1058D00018BFB0F5964F05D0B0F5164F1CBFB0F508
:1058E000614F6A80A888B0F5166F18BFB0F5965F53
:1058F0000BD0B0F5165F18BFB0F5964F05D0B0F5D8
:10590000164F1CBFB0F5614FAA80E88AB0F5166F3C
:1059100018BFB0F5965F0BD0B0F5165F18BFB0F5A5
:10592000964F05D0B0F5164F1CBFB0F5614FEA8217
:10593000288BB0F5166F18BFB0F5965F0BD0B0F599
:10594000165F18BFB0F5964F05D0B0F5164F1CBFC7
:10595000B0F5614F2A83914A02F501700368B3F5EF
:10596000803FA4BF002404604368B3F5803FA4BF18
:10597000002444608368B3F5803FA4BF00248460A2
:10598000C368B3F5803FA4BF0024C4600369B3F5C6
:10599000803FA4BF002404614369B3F5803F01F157
:1059A0005403A4BF002444611888062800DA08B90B
:1059B0000120188002F561708468002CD8BF012492
:1059C00002DD102C01DB0F2484600468002CD8BF9A
:1059D000012402DD1E2C01DD1E240460D2F87404B3
:1059E00000284FF4FA7403DC0120C2F8740404E0C8
:1059F000B0F5FA7FC8BFC2F87444A88C08B9012674
:105A0000AE84E88C08B90126EE84288D08B90126F9
:105A10002E85688D08B904266E85A88D08B90526DF
:105A2000AE85E88D08B90626EE8542F210755668F7
:105A3000002E02BF106800281560106F08B9642698
:105A400016674FF47A76D06E00B9D666888900B9A9
:105A50008D81C88900B9CD81088A00B90D82888AF4
:105A600000B98C82D068002802BF90680028956039
:105A7000D06F08B96427D767906F00B99667888D93
:105A800000B98D85C88D00B9CD85088E00B90D8609
:105A9000488E00B94C865069002802F1840702BF85
:105AA000106900281561786808B964207860386842
:105AB00000B93E60D88B00B9DD83188C00B91D8415
:105AC000588C00B95D84988C00B99C84D0690028FA
:105AD00002BF906900289561386908B9642038616F
