:020000040800F2
:10000000688D002011660008416400084364000800
:1000100045640008476400084964000800000000C7
:100020000000000000000000000000004B64000819
:100030004D640008000000004F640008516400088F
:1000400045660008496600084D66000851660008CC
:1000500055660008596600087D6400085D66000862
:100060006166000865660008696600086D6600083C
:100070007166000875660008796600087D660008EC
:100080008166000885660008896600088D6600089C
:100090009166000895660008996600089D6600084C
:1000A000A1660008A5660008A966000849210008A5
:1000B0008364000891640008F31E0008AD66000820
:1000C000B1660008B5660008B9660008BD6600089C
:1000D000C16600089F640008A5640008AB640008BE
:1000E000C5660008C9660008CD660008D16600082C
:1000F000D5660008D9660008C11F0008DD66000843
:10010000E1660008E56600081F220008E9660008AD
:10011000B1640008B7640008ED660008F1660008E5
:10012000F5660008F9660008FD660008016700082A
:1001300005670008096700080D67000811670008D7
:1001400015670008196700081D6700082167000887
:1001500025670008296700082D670008BD640008AE
:100160003167000835670008396700083D670008F7
:100170004167000845670008496700080000000063
:100180004D670008516700082DE9F0470027002659
:10019000A0F1010ABAF1050FDFF8D437DFF8D487F0
:1001A000DFF8D4E7DFF8D45749D8DFE80AF0030FC7
:1001B0001A26313CDFF84C690124F471B7714FF015
:1001C000804434650EF5BC79744638E0DFF8386950
:1001D0000224F471B77133650EF53C740EF58D6928
:1001E0002DE0DFF828690324F471B771C6F8508058
:1001F0000EF5BC640EF5EB6921E0DFF81469042408
:10020000F471B77135650EF50D640EF6482916E0E8
:10021000DFF800690524F471B77135650EF53C64AB
:100220000EF638590BE0DFF8F0680624F471B77168
:1002300041F2280C35650EF56B640EEB0C090728AE
:1002400050DA00284ED0317172635143F1635D2260
:100250005E213763B76331837283F4600022C6F88E
:100260001090B7827271F761376206E03169F06908
:1002700031F817104018F0617F1C308B8742F5D39E
:10028000002008E03269378B316AC71932F817202D
:1002900089183162401C718B8842F3D3F168306D4C
:1002A0000988C162306DB0F1804F03D100F01CF8B5
:1002B000816314E0984218BF40450DD0A84203D195
:1002C00000F012F801640AE0DFF85C1888421CBFF5
:1002D000DFF85818884205D100F006F84163002184
:1002E000306D4162BDE8F087F168B28A31F81210D2
:1002F00049087047F0B50446002200230020002181
:1003000000260027641E052C00F2C680DFE804F0FA
:10031000031114171A1DDFF8ECC7DCF81C50DCF8C9
:1003200020E0DCF828407544AC425CD3BCF81840AF
:100330001BE0DFF8D4C7F0E7DFF8D0C7EDE7DFF860
:10034000D0C7EAE7DFF8CCC7E7E7DFF8CCC7E4E7D8
:10035000DCF81000DCF80C1030F8170031F817103A
:100360004843121843EBE0737F1CA742F0DB0025E3
:100370000DE0DCF81000DCF80C10661930F81600FF
:1003800031F816104843121843EBE0736D1CBCF8AB
:100390001A008542EDDBDCF80C50DCF82800DCF8B4
:1003A0001C1005EB4404401A34F8021CA0EB0E00AC
:1003B000484300211018DCF82820A2EB0E02594116
:1003C000CCF8242064E000F068F8121943EBE473E1
:1003D00000F063F8001941EBE471DCF8104034F8E8
:1003E000174036197F1CDCF81050DCF8284035F82F
:1003F000175064087519AC42E5D210185941DCF861
:100400001030DCF8284033F81730A4EB4604A34240
:100410002ED2DCF81030DCF82840A4EB460423F898
:1004200017400023CCF81C30CCF8203009E0DCF871
:100430001050DCF81C4035F813506419CCF81C40FF
:100440005B1CBCF81840A342F1DB00230CE0DCF895
:100450001050BCF818E0DCF820409E4435F81E50DF
:100460006419CCF820405B1CBCF81A40A342EEDBB8
:10047000DCF80C30DCF8284003EB4703A4EB460221
:100480001B885A43002380185941A61BCCF82460CE
:10049000CCF84800CCF84C10F0BDDCF81040DCF88B
:1004A0000C5034F8174035F817506C437047000073
:1004B0000022411E052900D9704738B5DFE801F058
:1004C000030C0F121518DFF83C1600258A608A828B
:1004D0004D71CA610A6215E0DFF82C16F5E7DFF806
:1004E0002C16F2E7DFF82816EFE7DFF82816ECE71E
:1004F000DFF82416E9E70C69CB6934F812401B19C0
:10050000CB61521C0B8B9A42F5DB002208E00C6990
:100510000D8B0B6A551934F815401B190B62521CD0
:100520004B8B9A42F3DBCB680A6D1B88D3620A6D52
:10053000B2F1804F03D100F029F893631AE0DFF89D
:1005400030349A421CBFDFF82C349A420FD0DFF8C7
:100550002C349A4203D100F019F813640AE0DFF852
:10056000C8359A421CBFDFF8C4359A4205D100F065
:100570000DF8536300230A6D536200230A6DD26A9B
:100580000A644B64BDE83240B4E631BDCB688C8A66
:1005900033F814305B087047F8B52DED0A8BB0EED8
:1005A000608AF0EE418AB0EE619AF0EE429AB0EEC7
:1005B00062AA10EE100A00F01DFCB5EE40AAF1EEA2
:1005C00010FAA4BFF4EE4A8AF1EE10FA41EC1B0BCC
:1005D0000EDB00F09DF800F0B9F800F09DF800F097
:1005E0008EF800F099F800F08AF853EC1B2B27E006
:1005F000F4EE4A8AF1EE10FA38EE890A23D500F0BB
:1006000075F820DB00F084F800F0A0F800F08AF81C
:1006100000F075F800F086F800F071F853EC1B2B31
:1006200000F00CFC3AEE680A20EE080A044620EEC0
:10063000280A0D4610EE100A00F0DCFB22462B467D
:1006400000F0FCFB48E000F051F84AD530EE290AF2
:1006500000F04CF845DB30EE4ACA00F059F800F0E3
:1006600075F800F05FF800F04AF841EC1A0B00F062
:1006700063F800F040F853EC1B2B00F0DFFB69EE51
:10068000080A044660EEA80A00F03DF800F050F8B1
:1006900000F056F800F02FF800F04AF806460F4632
:1006A0001CEE100A00F0A6FB00F025F804460D46EB
:1006B0001CEE100A00F09EFB00F021F800F040F85C
:1006C00002460B462046294600F092FC02460B46A5
:1006D0003046394600F0B0FD00F020FE00EE100A72
:1006E00001E09FED9A0ABDEC0A8BF1BDB4EE4A0A17
:1006F000F1EE10FA704753EC1A2B00F043BE22467D
:100700002B4600F03FBE0D4610EE900A00F072BB83
:1007100018EE100A00F06EBB04460D461AEE100AE1
:1007200000F068BB04460D4618EE900A00F062BB6C
:1007300022462B4600F082BB18EE900A00F05ABB0E
:1007400004460D4619EE900A00F054BB0022DFF873
:10075000543600F017BE00002DE9F0412DED088B56
:10076000B0EE408AB0EE419AB3EE0F0AF0EE608A26
:10077000B0EE61BA05460E460027C9EE009ADFF8D2
:100780009C85DFF89C45F0EE42AA00EE107AB8EEA8
:10079000C00A69EE802A00F072F8201DDFED6D0AB4
:1007A00000EB8701C0EE800AFDEEE00A81ED000A51
:1007B00000F07CF81F2FE8DBB3EE0F0A1F27CBEE0B
:1007C000009AA7F11F0000EE900AF8EEE00AF0EEA2
:1007D000492A00F052F800F05DF83E2FF1DBB3EE4D
:1007E0000F0A3E27CAEE809A39EE0BAAA7F13E0007
:1007F00000EE900AF8EEE00AF0EE4A2A00F03DF82A
:1008000000F048F85D2FF1DB27607AEE2A2A00F02D
:1008100036F8DFED500A04EB8700C0EE800AFDEEEB
:10082000E00A80ED010A10EE901AA5F8BA1029EE40
:10083000800AB8F8FC0001EE100AB8EE411A80EE0A
:10084000011ABDEEC11A11EE100AA6F8BA005E2018
:10085000414205EB410206EB4101B2F8743125F843
:100860001030B1F8742126F81020401CBA28EFDDB2
:100870002060BDEC088BBDE8F08149EEA02AB0EE07
:100880006A2AF0EE4B1AB0EE491AF0EE680AB0EEA2
:10089000480A81E6211DDFED2F0A01EB8700C0EE3B
:1008A000800AFDEEE00A80ED000A00BF10EE902AFB
:1008B00025F8172029EE800AB8F8FC0001EE100A8E
:1008C000B8EE411A80EE011ABDEEC11A11EE100AFF
:1008D00026F817007F1C704710B52DED028B9FED99
:1008E0001C8AF1EE048A244C04F5BC71204600F009
:1008F00033F804F58D6104F53C7000F02DF804F533
:10090000EB6104F5BC6000F027F804F6482104F51B
:100910000D6000F021F804F6385104F53C6000F059
:100920001BF841F22800F0EE681AF0EE480AB0EE2B
:10093000480A2118BDEC028B04F56B60BDE810403D
:10094000B0EE002AB0EE001A06E70000000000003A
:1009500000401C46A037204BB0EE002AF0EE681A8B
:10096000B0EE001AF0EE480AB0EE480AF4E60000D5
:100970000008004000040140005B0020000400402B
:100980002DE9FE4F160000F0A3800F468DF8000001
:100990000246511E052901925B4CDFF87091DFF889
:1009A00070A1DFF80404DFF86CB1DFF86C8100F2AD
:1009B0008F80DFE801F0032C38424C56002F14BF23
:1009C000012200224F4DDFF8E403022100F08AFEED
:1009D00001222A706F70AA700022EA622A646A6497
:1009E00028794643AE629DF80000FFF761FD0020C4
:1009F000A8826871DFF8B813286D0A88C262286D72
:100A0000B0F1804F39D100F089F881634EE0012FB9
:100A10002546DFF8A00319BF01224FF480710022A0
:100A20004FF48071D2E7002F4D46DFF88C0319BFD9
:100A30000122202100222021C8E7002F554619BF9E
:100A400001224FF4805100224FF48051BEE7002F65
:100A50005D4619BF01224FF4004100224FF40041CE
:100A6000B4E7002F4546DFF8540319BF01224FF4C5
:100A7000804100224FF48041A8E7DFF84413884208
:100A80001CBFDFF8401388420DD0DFF83C138842CA
:100A900003D100F043F8016408E0234988421CBFF9
:100AA0002249884205D100F039F841630021286DC0
:100AB00041620198401E05280AD8DFE800F0030BC8
:100AC0000F14191E0F4ADFF80403116D01602FE0A7
:100AD000BDE8F78F216DDFF8F802F7E7D9F850107D
:100AE000DFF8F002F2E7DAF85010DFF8EC02EDE799
:100AF000DBF85010DFF8E402E8E7D8F85010DFF830
:100B0000E002E3E71483002068830020BC83002018
:100B10001084002064840020B8840020E968AA8A38
:100B200031F812104908704700000140000C0040E5
:100B3000BDE8FE4F00F011BE000010B588B00020E7
:100B40000090A24CA74800F0EDF801F0BFF84FF07C
:100B50008040206007214FF47A700022E0606160DD
:100B6000A2602261204600F0EBFD00F0A4F8042210
:100B700001A9204600F099FE012204214FF0804097
:100B800001F095F8002200211C2001F015F91C202D
:100B900001F02FF920686FF0040101616FF001028C
:100BA0000261C16841F00101C160204600F00EFE03
:100BB0002068416C41F40041416408B010BD38B573
:100BC00088B000200090824C86487D4D016841F03D
:100BD00004010160006800F004000090009801F03A
:100BE00033F900F075F800F0ACF800F0A5F8002239
:100BF00000211E2001F0E0F81E2016E038B588B074
:100C000000200090734C78486E4D00F04AF801F0D7
:100C10008BF900F05DF800F094F800F08DF80022F8
:100C200000212E2001F0C8F82E2001F0E2F8206803
:100C30006FF0020101616FF001020261C16841F0D1
:100C40000101C160204600F0C1FD2068416C41F403
:100C50000041416409B030BD38B588B00020009033
:100C60005D4C6048584D00F01CF801F0C3F900F0ED
:100C70002FF800F020F80C2201A9204600F015FE04
:100C800001220C21284601F012F8002200211D202B
:100C900001F092F81D2001F0ACF820686FF010010F
:100CA000C8E7016841F002010160006800F002003D
:100CB0000090009870474FF4FA7102917020022260
:100CC00000210190039204910591069107917047CC
:100CD0000F20606000214FF47A70E060A160216114
:100CE0002560204600F02CBD38B588B0002000906B
:100CF0003A4C3D483D4D00F015F801F0CFF9FFF7B3
:100D0000E7FF00F01EF800F017F8002200211B207A
:100D100001F052F81B2088E70000000010000020BE
:100D2000B4720020016841F001010160006800F028
:100D3000010000900098704701220021284600F031
:100D4000B6BF4FF4FA710291022203927020002183
:100D500001900491002206910592079201A9204674
:100D600000F0A3BD38B588B0002000901C4C1D4891
:100D70001F4D016841F008010160006800F00800A3
:100D80000090009801F0FCF9FFF7A2FFFFF7D9FFF0
:100D9000FFF7D2FF00220021322001F00DF83220AF
:100DA00043E700000000E03F001402400010024052
:100DB000005B00200004024000180240000C0240CA
:100DC0000008004000040140000400406081002051
:100DD000C07F002028800020C48100209080002057
:100DE000F8800020403802404438024000000140B2
:100DF000000C0040C0F3C75181B1FF2906D0C110DB
:100E0000400721F0E04101F16051704741020CBF01
:100E100040F4E0016FF000410020704700F0004115
:100E200000020AD0B0FA80FC00FA0CF001F1605127
:100E3000A1EB0C5101EBD0214005704770B44FF08D
:100E4000004591EA030F40F1FF816B40841A71EB7A
:100E5000030604D26E40001BB141121973414FF4D6
:100E6000001C1CEB410F34BF7CEB430683E00C0DF0
:100E7000A4EB1356362E00F37C80012E45EAC323E3
:100E800041DC43EA525312BFD20292025B082405AE
:100E900045EAC12141EA5051D2EBC020994125D405
:100EA00007D1B0FA80F610FA06F162D000202036A1
:100EB00008E0B1FA81F6B140C6F1200220FA02F250
:100EC0001143B0404FEAF474B4EB465434F00106D9
:100ED0004FEA74040AD8D6F50016760D04F00044E3
:100EE000F04061FA06F25040F1404840C00A40EA42
:100EF000415021F0004128BF5FEA500550F1000049
:100F000044EBD12135E0DB0A45EAC121C90AB6F13B
:100F100020050EDD42EA0242120CC5F1200603FA5A
:100F200006F6EB4042EA06056D42984161F1000188
:100F30000DE062FA06F5F240554063FA06FC82EADB
:100F40000C02F3405A406D42904161EB030111F4F1
:100F5000801F05D1641E620502D06D0040414941E9
:100F600021F48011430875F1004350F1000041EB7A
:100F7000045170BC70471CEB410F15D223F00043A5
:100F800052EA43060BD04FEA4C0CBCEB410F04D89D
:100F90000C0D661E342EB7DDEBE7801A994150EA3E
:100FA000410608BF0021E4E708BF1CEB430F28BF40
:100FB0006FF00001DDE730B4002513E050F8042B9A
:100FC000D30744BFA9F101039A18091F042942F865
:100FD000045BFAD213468C0744BF15809B1CC907DB
:100FE00048BF1D7050F8041B0029E7D130BC704782
:100FF000F0B540F2FF7581EA030C0CF0004C15EAE5
:1010000011541DBF15EA1357AC42AF42E5E0BC4195
:10101000C1F31301C3F31303801A994143F48013FE
:1010200004D2641E4000494180185941C90241EA76
:101030005051B1FBF3F603FB1611A2FB0675D7EB7B
:10104000C020A94102D2761E80185941C90241EA46
:101050005051B1FBF3FE03FB1E11A2FB0E75D7EB43
:10106000C020A94103D2AEF1010E80185941890276
:1010700041EA9051760546EA8E2EB1FBF3F603FB6A
:101080001611A2FB0675D7EB8020A94102D2761E6D
:1010900080185941C90241EA50514EEA060EB1FB8F
:1010A000F3F603FB1611A2FB0675D7EBC020A9418E
:1010B00002D2761E80185941C90241EA5051B1FB53
:1010C000F3F703FB1711A2FB0735D3EBC020A941AF
:1010D00067F100070CBF004247F0010766F3D52710
:1010E0004FEA1E31B80814F5806412DDBD0775F1B2
:1010F000004250EB0E5051EB045111F5801F5CBFC4
:1011000041EA0C01F0BD4CF07F6141F0E04100206C
:10111000F0BDBD076D0840EA0E5041F48011D4F1D6
:101120000104B4F120060ADAC4F120060200E0400E
:1011300001FA06F3E1401843B24015430EE0342CA7
:1011400013DCC6F1200445EA40056D0820FA06F2DA
:10115000154321FA06F0A1400D43002175F100422C
:1011600050F1000051EB0C01F0BD00205FEA0C01D2
:10117000F0BDCFB992185B41B3FA83F704BFB2FA5E
:1011800082F6BF190B3FB7F120062FBF02FA06F314
:10119000BB40C7F1200622FA06F638BF3343BA40F7
:1011A0001CB1E419641E33E77F4231F00041B1FA0B
:1011B00081F404BFB0FA80F6A4190B3CB4F1200608
:1011C0002FBF00FA06F1A140C4F1200620FA06F66E
:1011D00038BF3143A0403C1B1AE7AC421ABF05EAB6
:1011E0001357AF4212E050EA41061CBF52EA4306D1
:1011F000BFE750EA4107304661461CBF41EA05514E
:10120000F0BD52EA430C08BFC143F0BD00204FF4CB
:10121000001616EB410F98BF16EB430F08BF16EBF5
:10122000410F24BFC14305E016EB430F0CBF6146DD
:101230004CEA0551F0BD000070B44FF0004591EA52
:10124000030F7FF503AE6B40841A71EB030603D2E4
:10125000001BB141121973414FF4001C1CEB410FEC
:1012600034BF7CEB430442E00C0DA4EB1356352E47
:101270004FDC45EAC323DB0A45EAC121C912B6F1B6
:1012800020050DDD63FA05F6EB4086EA0305124200
:1012900018BF45F00105C01851F100010CD213E050
:1012A00062FA06F5F2405540F3415A40B340F3402C
:1012B0005A408018594107D349085FEA30005FEA75
:1012C000350528BF45F0010501F58011420875F18B
:1012D000004250F1000041EB04514E0016F5001F92
:1012E00070BC38BF70470020090D090570471CEB22
:1012F000410F10D252EA43060BD0BCEB410F05D888
:101300000C0DAB43661E342EB6DD02E0AB438018F5
:10131000594170BC704770BC7047000001F000423A
:101320008B1AA3F16051B1F5801F0ADBB1F17F6F19
:101330001FD242EAC102C10071F1004142EB50707C
:1013400070470B15C3F10903212B10D2890241EA22
:10135000905180020128494141F0004121FA03F0F7
:10136000C3F12003994071F10041504170471000D2
:1013700070476FF0000013EB103F5CBF000E42EAB5
:10138000C0507047B0B581EA030C0CF0004C40F23D
:10139000FF7515EA11541DBF15EA1357AC42AF4251
:1013A00039E0E41923EA455343F48013C90241F0BC
:1013B000004141EA505EC7021100A7FB020200286B
:1013C0004FF00000EEFB01204FF00001E3FB07218E
:1013D00018BF42F00102401800214941E3FB0E0111
:1013E000A4F580640F0302D252004041494154F1F8
:1013F00001046CDD470872F1004250F1000051EB2E
:101400000451A1F580115CBF41EA0C01B0BD4CEA6A
:1014100005510020B0BD05EA1357AC4214BFAF42DE
:1014200041E050EA410E1CBF52EA430E02E0614621
:101430000020B0BD24423C441BD15FEA070EF6D029
:10144000090302BF01460020AEF1140EB1FA81F784
:10145000AEEB070401FA07FE0C37C7F1200100FAD2
:1014600007F7C8404EEA000E23EA455343F48013C1
:10147000A2E733F00043B3FA83F704BFB2FA82FE67
:1014800077440B3FE41BB7F1200E2FBF02FA0EF397
:10149000BB40C7F1200E22FA0EFE38BF43EA0E030E
:1014A000BA40641C82E750EA410E14BF52EA430E70
:1014B0006FF000014FF4001717EB430F8ABF194676
:1014C00017EB410FB5E74CEA05510020B0BDD4F150
:1014D0000104B4F120070FDAC4F12007520828BF35
:1014E00042F0010210FA07F501FA07F7E1BF2A43BB
:1014F000E0403843E1400FE0352C98DCC7F1200490
:1015000052EA400220FA07F218BF42F0010231FA13
:1015100007F0A1400A43002172F1004250F100009F
:1015200051EB0C01B0BD00002DE9F84F0D464FF016
:10153000000877490F22012304462E6803FA08F0B9
:1015400000EA0609814540F0C5804FEA480C0326B1
:1015500006FA0CF66FEA060E6E6806F00307012F16
:101560001CBF06F00306022E11D1A668EF680EEA32
:10157000060607FA0CF73E43A660666826EA0000F6
:101580006E68C6F3001606FA08F6304360604FEA4C
:1015900088002E7906F00306032E1FD0E668AF6898
:1015A0000EEA060607FA0CF73E43E6602E7906F0CF
:1015B0000306022E12D14FEAD80604EB860600F08D
:1015C0001C07D6F820A002FA07FB2AEA0B0AD5F876
:1015D00010B00BFA07F747EA0A07376226680EEAE7
:1015E00006072E7906F0030606FA0CF63E4326603F
:1015F0006E68F6006ED5002600964FEA980C0E68CD
:10160000DFF810E146F480460E6000F00C000E6832
:1016100006F480460096009E5EF82C7002FA00F6F2
:1016200027EA06063C4FBC4208BF002722D03B4FAA
:10163000BC4208BF01271DD0394FBC4208BF02275A
:1016400018D0384FBC4208BF032713D0364FBC42D6
:1016500008BF04270ED0354FBC4208BF052709D06C
:10166000334FBC4208BF062704D0324FBC420CBFE8
:101670000727082707FA00F030434EF82C006FEADE
:10168000090C2D4806680CEA060E6E68F70348BF81
:1016900049EA0E0EC0F800E046680CEA060E6E68D5
:1016A000B70348BF49EA0E0EC0F804E086680CEAAA
:1016B000060E6E68F70248BF49EA0E0EC0F808E051
:1016C000C6680CEA060E6E68B60248BF49EA0E0EFE
:1016D000C0F80CE008F10108B8F10F0F7FF62DAF4C
:1016E000BDE8F18F02B9090481617047426901EADE
:1016F0000203914341EA0341816170470F4A136835
:1017000003421CBF106000F0A4BE70470000000040
:101710004438024008380140000002400004024002
:1017200000080240000C0240001002400014024079
:1017300000180240001C0240003C0140143C0140E3
:1017400038B5040001D1012032BD00F085F818B988
:1017500000F07EF801F0E4F859E090F83D1001291E
:1017600001D001207047022180F83D100068DFF8A9
:10177000C420904218BFB0F1804F17D0DFF8B810E6
:1017800088421CBFDFF8B42090420FD0DFF8B010C1
:1017900088421CBFDFF8AC20904207D0DFF8A810C9
:1017A00088421CBFDFF8A420904209D1816801F073
:1017B0000701062908D0016841F00101016003E03A
:1017C000026842F0010202600020704701680A6A64
:1017D00041F211131A4202BF0A6A40F244431A420C
:1017E000FFE703D10A68520852000A60012180F81D
:1017F0003D100020704738B5040001D1012032BDF2
:1018000000F02AF818B900F023F801F0F5F90220E9
:101810006870211D206800F005F90120A872A870E9
:10182000E87028716871A871E87128726872687030
:10183000002032BD000001400004004000080040CC
:10184000000C00400004014000400140001800402E
:10185000002129702046704704F13C0568787047E4
:1018600010B5044694F83C00012801D1022010BDB7
:10187000012084F83C004AB1042A0BD0082A0DD07C
:101880000C2A04BF206800F0A3F90AE0206800F0E9
:1018900014F906E0206800F03CF902E0206800F04E
:1018A00068F9002084F83C0010BD38B500F057F806
:1018B00001D1022032BD012084F83C0032B1042A5B
:1018C00015D0082A25D00C2A34D044E0206800F036
:1018D000F4F82168886940F008008861886920F080
:1018E000040088618A69286902438A6133E02068BC
:1018F00000F00FF92068816941F40061816181691C
:1019000021F48061816181692A6941EA0221816152
:1019100021E0206800F02DF92168C86940F0080036
:10192000C861C86920F00400C861CA692869024317
:10193000CA6110E0206800F04BF92068C16941F4E9
:101940000061C161C16921F48061C161C1692A6915
:1019500041EA0221C161002084F83C0032BD044606
:101960000D4694F83C000128704738B500F04EF859
:1019700001D1022032BD0120207002226270DFF806
:1019800098022A689368034093600868020018BFB1
:1019900010282DD0202818BF302829D0402823D047
:1019A000502816D0602818D0702803D0B0F5005FFA
:1019B00007D021E000F025F82868816841F0770120
:1019C00005E000F01EF82868816841F480418160DC
:1019D00012E000F012F850210BE0CA68496828684C
:1019E00000F041F9602104E000F007F8402100E038
:1019F0000146286800F049F90EE0CA68496828687D
:101A000022E1CB684A688968286846E1054605F105
:101A10003C0420780128704701206070002121706B
:101A2000002032BDF0B57D4C05687D4B7D4E7E4F6C
:101A3000DFF8F8C1A04218BFB0F1804F07D0604571
:101A400018BFB84203D0B04218BF98420DD14A68BF
:101A500025F070051543A04218BFB0F1804F17D094
:101A600060451CBFB842B04212D098421CBF704AB9
:101A700090420DD06F4EB0421CBF6F4A904207D0CB
:101A80006E4EB0421FBF6E4A90426E4EB04203D1BE
:101A9000CA6825F4407515434A6925F08005154349
:101AA0000560A0428D68C5620A68826212BF9842D2
:101AB0000969016301224261F0BDF0B5026A574F26
:101AC000520852000262066A446885690B688A6897
:101AD00025F0730526F002061D431643504BB8420D
:101AE00018BF984207D1CA6826F008061643B842C4
:101AF00026F0040601D0984205D14B698A6924F486
:101B000040741C4314434460856149684163066224
:101B1000F0BDF0B5026A414E22F010020262B042FE
:101B2000056A436884690A6824F4E64444EA0224A6
:101B30008A6825F0200545EA0215394A18BF904207
:101B400008D1CF6825F0800545EA0715B04225F099
:101B5000400501D0904206D14E698A6923F4406362
:101B6000164343EA860343608461496881630562E2
:101B7000F0BDF0B5026A22F480720262056A436821
:101B8000C4698E680A6825F4007524F0730445EA78
:101B900006251443214E224AB04218BF904208D174
:101BA000CF6825F4006545EA0725B04225F4806535
:101BB00001D0904206D14E698A6923F440531643FE
:101BC00043EA06134360C4614968C1630562F0BD1E
:101BD00070B5026A114E22F480520262B042046A69
:101BE0004268C3690D6823F4E64343EA05238D6820
:101BF00024F4005444EA05341CBF094DA84204D122
:101C00004D6922F4804242EA85124260C36149680C
:101C10000164046270BD00008800FFFF0000014005
:101C200000040140000C0040000800400004004097
:101C300000400140004401400048014000180040BD
:101C4000001C00400020004010B5036A046A6408CC
:101C50006400046223F00A03846924F0F00444EA77
:101C6000021484612EE010B5036A23F010030362AE
:101C70008369046A23F4704343EA023324F0A00426
:101C8000836144EA0114046210BD826822F070028C
:101C9000114341F007018160704710B5846824F456
:101CA0007F442143114341EA0321816010BD10B5F7
:101CB00001F01F01036A01248C40A343036202FA6E
:101CC00001F1036A1943016210BD000038B586B006
:101CD00000200090274C2848284D016841F0010160
:101CE0000160026802F00102009200220099009255
:101CF000036843F010030360016801F010010091D4
:101D0000009900920222036843F002030360006816
:101D100000F002000090009901920292049201A941
:101D2000012205921648FFF7FFFB012202920221D1
:101D3000019104910022059201A92046FFF7F4FBCE
:101D40004FF40071019101220292022104910022BC
:101D5000059201A92846FFF7E7FB00220221204651
:101D6000FFF7C0FC01224FF400712846FFF7BAFCD0
:101D700007B030BD0010024030380240000402407D
:101D8000000002400901020002D429488154704732
:101D9000284B02F00F021A4402F8041C7047264B2D
:101DA00019684FF6FF020002114000F4E06008439A
:101DB000224908431860704738B51F4B1C68C4F3AC
:101DC0000223C3F10704052C28BF04241D1D072D81
:101DD00034BF0023DB1E012505FA04F4641E2140F4
:101DE000994005FA03F35B1E1A401143BDE83440E5
:101DF000C8E7010007D4012200F01F01104B8A4000
:101E0000400943F82020704710B5401EB0F1807F94
:101E100001D3012010BD0B4C60600F214FF0FF304B
:101E2000FFF7B0FF0021A16007202060002010BD57
:101E300000E400E018ED00E00CED00E00000FA0521
:101E400000E100E010E000E038B586B0002000902E
:101E5000314C3248324D016841F0020101600268A4
:101E600002F002020092002200990092036843F0FF
:101E700002030360016801F00201009100990092E1
:101E80004022036843F0200303600223006800F04F
:101E9000200000902046009901920293049305933C
:101EA00001A9FFF741FB01214FF4807202910192D9
:101EB000002102220591049201A92046FFF734FB7C
:101EC0001021019101220292022104910022059227
:101ED00001A92846FFF728FB00224FF48071204615
:101EE000FFF700FC012210212846FFF7FBFB07B09B
:101EF00030BD81B00020ADF800000A48C169CA6851
:101F0000930705D56FF002020A61416E491C4166D4
:101F100001B0704700000000000402403038024069
:101F200000140240A47F002010B586B0002000906D
:101F30002C4C2D48016841F004010160026802F058
:101F400004020092002200990092036843F04003CB
:101F50000360016801F04001009100990092402265
:101F6000036843F0400303600223006800F0400070
:101F7000009000991D480192029303220493059258
:101F800001A9FFF7D1FA202100F00FF8102100F08D
:101F90000CF8002220212046FFF7A4FB012210218B
:101FA0002046FFF79FFB06B010BD0191012202926F
:101FB000022104910022059201A92046FFF7B4BA3C
:101FC00081B00020ADF800000948C169CA689307D4
:101FD00005D56FF002020A61416E491C416601B0ED
:101FE00070470000001802403038024000080240EC
:101FF0000C80002010B586B000200090244C2548AD
:10200000016841F002010160026802F002020092E0
:10201000002200990092036843F0200303600168E6
:1020200001F020010091009900920221036843F021
:10203000200303600122006800F020000090009857
:1020400001910491029201A91348FFF76DFA4FF430
:10205000805100F012F84FF4005100F00EF8002209
:102060004FF480512046FFF73DFB01224FF4005111
:102070002046FFF737FB06B010BD01910122029206
:10208000022104910022059201A92046FFF74CBAD3
:1020900000140240303802400004024038B586B0D7
:1020A00000200090314C3248324D016841F010015F
:1020B0000160026802F01002009200220099009272
:1020C000036843F020030360016801F020010091E0
:1020D000009900924FF40072036843F040030360DC
:1020E0000223006800F0400000900099224801920D
:1020F000029301220493059201A9FFF715FA4FF408
:1021000000410191012202920221049100220592D4
:1021100001A92046FFF708FA01210191029100224E
:1021200002210491059201A92846FFF7FDF900223A
:102130004FF400412046FFF7D5FA0122012128463D
:10214000FFF7D0FA07B030BD81B00020ADF8000035
:102150000A48C169CA68930705D56FF002020A618F
:10216000416E491C416601B07047000000140240F6
:1021700030380240001802400010024074800020F5
:1021800010B586B0002000902D4C2E48016841F01B
:1021900001010160026802F0010200920022009930
:1021A0000092036843F008030360016801F008012E
:1021B0000091009900920122036843F00803036034
:1021C0000223006800F00800009000990192029339
:1021D0000493059301A91C48FFF7A6F94FF4804129
:1021E00000F012F84FF4004100F00EF800224FF416
:1021F00080412046FFF776FA01224FF40041204645
:10220000FFF770FA06B010BD01910122029202217F
:1022100004910022059201A92046FFF785B981B0FB
:102220000020ADF800000948C169CA68930705D5C8
:102230006FF002020A61416E491C416601B07047AD
:10224000000C02403038024000000240DC800020D8
:102250002DE9F84F00F0D2FC00F0ACF84FF4FA6032
:1022600000F0E6FC00F0F8FC00F058FE00F071FE13
:1022700000F07FFE00F0E0F900F012FA00F034FA0E
:1022800000F082FA00F08DFA00F0E6FA00F024FF88
:1022900000F034FF00F044FF00F054FF00F073FF43
:1022A00000F080FF00F0B7FAFEF747FCFEF787FC6E
:1022B000FEF7A4FCFEF7D0FCFEF716FDFEF752FD7C
:1022C00001F0E1F901F0E0F901F0CEF801F0DDF9FB
:1022D000FEF702FBDFF8C84200F067F82246012152
:1022E0000220FDF751FF224601210320FDF74CFF9C
:1022F000224601210420FDF747FF22460121052047
:10230000FDF742FF224601210620FDF73DFFDFF8E1
:1023100094B2DFF894A2DFF894920BF5D2660BF139
:10232000F80542F2107801F0B0F900F067F9DBF837
:1023300040070128F7D10021CBF84017642000F0B6
:1023400077FCF06E2F8808FB00F13C2091FBF0F049
:10235000C01B01F00DFB0022DFF85432FEF748FEEF
:1023600001F018FB02466A80494692B200EE102A3C
:10237000F8EE400A00EE107A5046B0EE002AF1EE78
:10238000041AB0EE001AB8EE400AFEF7E5F900F0C4
:102390000CF8306F3268F36E00900021706802EB29
:1023A00000420120FEF7ECFABDE7224601210120A0
:1023B000FDF7EABE80B592B006A8302101F008FB17
:1023C00001A8142101F004FB002000904FF4803399
:1023D000DFF8E001016841F08051016000210068F0
:1023E00000F0805000900098DFF8CC010091026866
:1023F00042F4804202600122006800F480400090B4
:1024000006A80099069202214FF480020C910D92C9
:102410000421A8220E910F92022104220793109109
:10242000119201F0D9FA08B100F003F902210291EA
:102430000F204FF4A05101900022049105910392C6
:10244000052101A801F060FC08B100F0F2F813B01A
:1024500000BD012800D0704780B5112101F034FD86
:10246000C00704D5DFF85411012001F05FFD1121F0
:10247000022001F029FD800704D5DFF84411022075
:1024800001F054FD1121032001F01EFD400704D589
:10249000DFF83011032001F049FD1121042001F083
:1024A00013FD000706D5BDE80440DFF81C11042029
:1024B00001F03CBD01BD10B50068DFF81031DFF858
:1024C0001011984201F5C1620BD11088FD2804DA81
:1024D0000C780B18401C1C7210800122DFF8F400ED
:1024E00056E0DFF8F43098420DD15088FD2805DA27
:1024F0004C780B18401C83F8084150800122491C7D
:10250000DFF8D80044E0DFF8D83098420CD190884A
:10251000FD2805DA8C780B18401C83F8084290805F
:102520000122891C1D4833E0DFF8B83098420DD1F4
:10253000D088FD2805DACC780B18401C83F80843B6
:10254000D0800122C91CDFF8A00021E0DFF89C3018
:1025500098420DD11089FD2805DA0C790B18401C22
:1025600083F8084410810122091DDFF884000FE080
:10257000DFF8803098420FD15089FD2805DA4C7978
:102580000B18401C83F8084550810122491D1A4848
:10259000BDE8104001F084BD10BD704714880020D4
:1025A000801F010010000020005B0020785C0020EC
:1025B00000002C404038024000700040A47B002006
:1025C000A47C0020A47D0020A47E002000100140F7
:1025D000A06C00208C87002000440040D0870020A1
:1025E00000480040004C004004870020005000409C
:1025F00048870020001401405888002080B501F071
:1026000099FF02F003F802F04BF902F0B5F902F07D
:10261000E3FA02F04DFB02F07BFC02F0E5FC02F075
:1026200013FE02F07DFE02F0ABFFBDE8014003F0B7
:1026300013B872B6FEE70000D8B595B011A800F047
:102640008BF80FF27C540AA800F097F802A820211A
:1026500001F0BEF9DFF81C45DFF81C052060A7215A
:10266000616040F2E7300022E0608021A2602261D8
:102670006261A16100F0EDF808B1FFF7DAFF00F048
:1026800048F908B1FFF7D5FF00F052F808B1FFF79D
:10269000D0FF2021009100220192694620460BE1E3
:1026A000D8B58DB000F057F80FF21C5400F064F864
:1026B000DFF8C8444FF0804000F051F808B1FFF750
:1026C000B8FF00F038F808B1FFF7B3FF00F030F8BA
:1026D00008B1FFF7AEFF00F097F808B1FFF7A9FFC8
:1026E00000F030F8042284E0D8B58DB000F033F863
:1026F0000FF2DC4400F040F8DFF88444DFF8840493
:1027000000F02DF808B1FFF794FF00F014F808B1BD
:10271000FFF78FFF00F00CF808B1FFF78AFF00F019
:1027200073F808B1FFF785FF00F00CF80C2260E0A9
:102730002046FFF760B84FF48050099009A9204661
:10274000FFF713B930210291002202210392049174
:10275000069202A9704709A8102101F039B920603A
:10276000532140F2E7300022E0606160A260226104
:10277000A2612046FEF7E4BF02A8D4E90067CDE9D4
:1027800000671C2101F024B9D8B58DB0FFF7E3FF35
:102790000FF24444FFF7F0FFDFF8EC43DFF8EC03FF
:1027A0000BE0D8B58DB0FFF7D6FF0FF23444FFF73A
:1027B000E3FFDFF8DC43DFF8DC03FFF7D0FF08B10D
:1027C000FFF737FFFFF7B7FF08B1FFF732FFFFF75B
:1027D000AFFF08B1FFF72DFF00F016F808B1FFF7C3
:1027E00028FF3021029100220221049103920692D7
:1027F00002A92046FFF734F808B1FFF71AFF204678
:1028000000F01BF90EB0D0BD0021009101912046CF
:10281000694603F051B81CB50FF2CC30DFF87843AD
:10282000D0E90023CDE90023532161600022DFF8C5
:102830006C0320600121A260E16000F009F808B19A
:10284000FFF7F7FEFFF7E0FF08B1FFF7F2FE13BD59
:10285000A2612046FEF774BFD8B595B011A8FFF766
:102860007BFF0FF28C340AA8FFF787FF02A8202114
:1028700001F0AEF8DFF82843DFF828032060A72135
:1028800040F2E7300022E0606160A2602261626194
:10289000FFF7DEFF08B1FFF7CCFE00F03AF808B111
:1028A000FFF7C7FEFFF744FF08B1FFF7C2FE0021A4
:1028B000009101912046694602F0FEFF08B1FFF742
:1028C000B8FE02220C92302000210A900B910D914B
:1028D00000220F910E9210920AA92046FEF7C0FF27
:1028E00008B1FFF7A6FE00204FF4005102900390BC
:1028F0000490059006900791099002A9204603F0E4
:1029000021F808B1FFF795FE204600F096F816B0C2
:10291000D0BD4FF48050119011A92046FFF725B883
:1029200080B50168944AA048914210D100210091DD
:10293000426842F0010242600022406800F001005B
:10294000009000981B20FFF737FA1B2068E0B1F1D8
:10295000804F0ED100F06DF842F0010200F065F8F2
:1029600000F00100009000981C20FFF725FA1C20C1
:1029700056E0844A91420ED100F05BF842F0020228
:1029800000F053F800F00200009000981D20FFF7BF
:1029900013FA1D2044E07D4A91420ED100F049F81F
:1029A00042F0040200F041F800F0040000900098AA
:1029B0001E20FFF701FA1E2032E0764A91420ED126
:1029C00000F037F842F0080200F02FF800F008009D
:1029D000009000983220FFF7EFF9322020E06F4A94
:1029E00091420AD100F025F842F02002026000680E
:1029F00000F020000090009801BD6A4A914213D176
:102A000000210091426842F00202426000224068C8
:102A100000F00200009000982E20FFF7CDF92E2044
:102A2000BDE80240FFF7E5B901BD02600022006881
:102A30007047002100910268704710B586B00446C7
:102A40006846142100F0C4FF23684B48574983426D
:102A500011D1002205920222086840F0100008609F
:102A6000096801F0100105914FF400710598504874
:102A700000F079F86AE0B3F1804F4E4A12D100209D
:102A800005900B6843F001030B60086800F001003B
:102A900005900221059800910191104601210291B3
:102AA000039153E0374C4448A3420ED100220592D3
:102AB00002220B6843F002030B6000F04DF8019214
:102AC000694601220292039211E0304CA34211D1D7
:102AD0000022059240220B6843F002030B600223A0
:102AE00000F03AF801930122029203926946022211
:102AF00004922DE02748834214D10023059302233A
:102B0000086840F001000860096801F001010591C2
:102B10000121059800910193002102910391104633
:102B2000022113E01F48834214D1002205920222A1
:102B3000086840F004000860096801F0040105918C
:102B4000402105981D4800F00EF8032104916946C4
:102B5000FEF7EAFC06B010BD096801F0020105911C
:102B60000599009270470091019201210291039111
:102B7000704700000C8500200000014054850020B3
:102B80009C85002000040040E485002000080040EF
:102B90002C860020000C00407486002000140040A9
:102BA000BC8600200004014040380240303802401A
:102BB00000100240000002400004024000080240F1
:102BC0000000000000000000000000000000000005
:102BD00000000000000000000000000000000000F5
:102BE00000000000000000000000000000000000E5
:102BF00000000000000000007047000080B50B4896
:102C0000016841F400710160026842F48062026070
:102C1000016841F4807101600320FFF7C0F80020D3
:102C200002F0BAFE02F0D8FE002002BD003C0240D5
:102C300038B5044602F0EEFE14F1010F054602D04D
:102C400004480178641802F0E5FE401BA042FAD364
:102C500031BD00BF000000202DE9F84F86B0684666
:102C6000142100F0B5FE00248F48904D904EDFF8FF
:102C700044B2DFF84482DFF84492DFF844A20594BE
:102C80004FF21007016841F010010160026802F084
:102C900010020592012205990594036843F004038C
:102CA0000360016801F0040100F032F943F02003F1
:102CB0000360016801F0200100F02AF943F080036D
:102CC0000360016801F0800100F022F943F0010384
:102CD0000360016801F0010100F01AF943F00203FA
:102CE0000360016801F0020100F012F943F04003B3
:102CF0000360016801F0400105910599059439468A
:102D00000368704C43F008030360006800F008009B
:102D1000059005982046FEF7E5FC012242F23F01AE
:102D20002846FEF7DFFC01224CF23B113046FEF74D
:102D3000D9FC00224FF4E0712846FEF7D3FC0122B3
:102D40004FF460715846FEF7CDFC01224FF4194153
:102D50004046FEF7C7FC01224FF460714846FEF77B
:102D6000C1FC012203215046FEF7BCFC4FF6DC50AB
:102D700000F0BBF85046FEF7D7FB0F2000F0B5F887
:102D80002046FEF7D1FB009700F0A9F820466946DF
:102D9000FEF7CAFB01204C490090019100220292EB
:102DA00000F094F8302000F0A0F800F090F8012036
:102DB00000F09BF84846FEF7B7FB4FF40060002197
:102DC000009001910122029269462046FEF7ACFB79
:102DD00000F09AF83F2100910022039200F090F851
:102DE00000F092F84FF480710091022200F072F826
:102DF0004FF4725000F079F800F06EF800F084F8AB
:102E00004CF23B010091002200F064F84FF4A071F5
:102E10000091012200F070F880210091112200F051
:102E20006BF80121019102914FF46074002103912C
:102E3000009400F04BF800F067F84FF4194100914E
:102E40000022039269464046FEF76EFB4FF41C4099
:102E50000090002101910222029200F051F800F04E
:102E600053F84FF4005100910322039200F048F808
:102E700000F035F8009469464846FEF755FB00F02F
:102E800043F8032100910022039269465046FEF761
:102E90004BFB002200210620FEF78EFF0620FEF7E6
:102EA000A8FF07B0BDE8F08F30380240001802409C
:102EB000000C0240000802400000024000040240F2
:102EC00000100240001402400000111069465846EC
:102ED000FEF72ABB039269463046FEF725BB012068
:102EE0000021019002900391704700210090019110
:102EF00002220292694670470021029103910192D9
:102F000069462846FEF710BB0122019202927047E3
:102F100005910599059403687047000080B56548E0
:102F2000654901604FF4827218214260C16100233B
:102F30004FF480220A218360C36003614361826190
:102F4000036243628362C16202F06AFD00B10CE079
:102F500001BD80B559485A4900F017F84FF4802256
:102F600000F019F800B100E001BDBDE80140FFF735
:102F700060BB80B55348544900F007F84FF4007225
:102F800000F009F800B1F0E701BD01604FF4827272
:102F90004260002370470A218360C360036143617C
:102FA0008261C361036243628362C16202F038BD21
:102FB00010B586B004466846142100F009FD226869
:102FC0003D484249824220D100220592486940F49E
:102FD00080504861486900F480500590059805923A
:102FE00002220B6843F001030B60086800F0010047
:102FF0000590F02105983648009101920021029138
:1030000003220521049103922EE02D4B31489A4270
:1030100013D1002205920B6943F480430B61002316
:103020000A6902F480420592059A05934FF47042B2
:1030300000F01FF80393052215E0234B9A4216D1A6
:10304000002205920B6943F400430B6100230A69D7
:1030500002F400420592059A0593382200F009F81F
:1030600003230393062204926946FEF75DFA06B035
:1030700010BD0C6844F002040C600223096801F0E2
:103080000201059105990092019300220292704776
:1030900001B582B000F007F80648FFE702F01EFD18
:1030A0009DF804000EBD4FF47A700090012301AA30
:1030B00002A970470C820020003001406482002089
:1030C00000380040BC820020003C00403038024004
:1030D000000002400004024010B5DFF82C43DFF886
:1030E0002C0300F041F808B1FFF7A3FA2046BDE831
:1030F00010400122DFF8181300F0D2BF10B5DFF83E
:103100001443DFF8140300F02FF808B1FFF791FA29
:103110002046BDE810400122DFF8001300F0C0BFD8
:1031200010B5DFF8FC42DFF8FC0200F01DF808B132
:10313000FFF77FFA2046BDE810400122DFF8E812D1
:1031400000F0AEBF10B5DFF8E442DFF8E40200F0B3
:103150000BF808B1FFF76DFA2046BDE810400122D8
:10316000DFF8D01200F09CBF20604FF461410C20CA
:10317000002260616160A260E2602261A261E2619E
:10318000204600F0F9BE10B5AB4CAC48FFF7ECFFA1
:1031900008B1FFF74EFA2046BDE810400122A849C9
:1031A00000F07EBF10B5A74CA748FFF7DDFF08B1C0
:1031B000FFF73FFA2046BDE810400122A34900F086
:1031C0006FBF38B586B004466846142100F000FC95
:1031D00023688E4C9E489F49A3424FF4406227D1FA
:1031E000002305930C6944F400240C6100240B694E
:1031F00003F400230593059B05940D6845F0040531
:103200000D600B6803F0040305936946059B00926B
:103210000123029303930222082301920493FEF7F1
:1032200083F9002200213420FEF7C6FD3420CDE0D2
:10323000794CA3423ED1002205920B6943F48013DE
:103240000B6100230A6902F4801200F0C3F80C68D5
:1032500044F004040C600A6802F0040200F0BAF8BA
:103260004FF480520C6844F008040C600223096893
:1032700001F0080105910599009201930122029243
:103280000392694608220492FEF74EF90122029247
:1032900003920420022100900191082204926946C1
:1032A0006D48FEF741F9002200213520FEF784FD2C
:1032B00035208BE05B4C6948A34216D10022059271
:1032C0004B6943F010034B6100234A6902F010027E
:1032D00000F080F84FF4C06200F080F80022002176
:1032E0002520FEF769FD252070E0514CA34215D141
:1032F000002205920B6943F400330B6100230A6935
:1033000002F4003200F066F80C2200F067F80022A8
:1033100000212620FEF750FD262057E04748834233
:1033200027D100230593086940F4802008610869CB
:1033300000F4802005900598494805930C6844F0F6
:1033400002040C60096801F00201059105990092E0
:1033500007210222019204910122029303926946FD
:10336000FEF7E2F8002200212720FEF725FD2720A6
:103370002CE0354883422BD100220592486940F069
:1033800020004861486900F02000059005980592EA
:1033900002220B6843F040030B60086800F0400015
:1033A00005904FF4844105982E4800910192002128
:1033B000029101220821049103926946FEF7B4F8B4
:1033C000002200214720FEF7F7FC4720FEF711FD01
:1033D00007B030BD0592059A059370470C6844F01C
:1033E00001040C600223096801F0010105910599AF
:1033F0000092019300220292012307220393049278
:103400006946FEF791B8000004870020004C004098
:10341000A36C00204887002000500040A46C0020CE
:103420008C87002000100140A06C0020D087002075
:1034300000440040A16C0020148800200048004097
:10344000A26C00205888002000140140A56C0020C8
:103450000008024030380240000C024000000240E8
:103460000004024000180240F0B5DFF83804DFF82D
:103470003854DFF8387400F50871C8220A8140F228
:10348000E47300F2045240F2C344138054800022DB
:103490000A800021DFF81834DFF81824197001249D
:1034A000DFF81434147019700126DFF81024DFF8E7
:1034B000103411701970DFF80C24DFF80C3411701F
:1034C0001970DFF80824DFF8083411701970DFF87C
:1034D0000424DFF80434DFF8041414701C7001F1C4
:1034E000C802002414602C70966744F2A015DFF81F
:1034F000F04326704B19DFF8EC63DFF8EC533360D0
:103500003B60002401F5DE73DFF8E0631C605C6063
:103510009C61DC611C625C629C62DC6234701467DA
:1035200094661C665C669C66DC661C675C679C64D3
:10353000DC641C655C659C65DC6501F5627201F507
:1035400013730026D4601C605C609E60DC601C61AC
:103550005C612C7000F5DF730124DC851E80012581
:1035600016609D85A0F866610023DFF88443DFF8CC
:103570008463DFF8845323603360DFF88043DFF82F
:10358000806323603360DFF87C43DFF87C63236073
:103590003360DFF87843DFF8786323603360DFF867
:1035A0007443DFF8746323603360DFF87043DFF83F
:1035B00070632360336013652B70DFF86863DFF896
:1035C000685333702B70DFF86463DFF86453337033
:1035D0002B70DFF86063337093650022DFF8583397
:1035E0001A70012243F6A043502454430C44E25085
:1035F000521C102AF8DB0122A02353430B4403F58D
:1036000082442260521C1F2AF6DB01F20C42012385
:10361000136053609360D360136153610022DFF83D
:103620001C43DFF81C53DFF81C3322702A70DFF8CC
:103630001843DFF8185322702A70DFF81443DFF8BC
:10364000145322702A70DFF81043227020F8E82FFC
:1036500042808280C2800281428101F29440DFF880
:10366000FC120260426082600A801A80DFF8F01269
:10367000DFF8F0320A801A80DFF8EC12DFF8EC3263
:103680000A801A80F0BD7047704770B5854A02F114
:10369000F8034FF46141188E01281EBF0228012053
:1036A0001886588CB0F5166F18BFB0F5965F0BD022
:1036B000B0F5165F18BFB0F5964F05D0B0F5164FB0
:1036C0001CBFB0F5614F5984988CB0F5166F18BFC8
:1036D000B0F5965F0BD0B0F5165F18BFB0F5964FFA
:1036E00005D0B0F5164F1CBFB0F5614F9984D88C4A
:1036F000B0F5166F18BFB0F5965F0BD0B0F5165F3A
:1037000018BFB0F5964F05D0B0F5164F1CBFB0F5F9
:10371000614FD984188FB0F5166F18BFB0F5965F5A
:103720000BD0B0F5165F18BFB0F5964F05D0B0F5C9
:10373000164F1CBFB0F5614F1987588FB0F5166F43
:1037400018BFB0F5965F0BD0B0F5165F18BFB0F597
:10375000964F05D0B0F5164F1CBFB0F5614F598795
:103760005E4D05F501700168B1F5803FA4BF0024EE
:1037700004604168B1F5803FA4BF002444608168C3
:10378000B1F5803FA4BF00248460C168B1F5803FDB
:10379000A4BF0024C4600169B1F5803FA4BF002428
:1037A00004614169B1F5803FA4BF00244461108EDB
:1037B000062800DA08B90120108605F561708168D5
:1037C0000029D8BF012102DD0F2901DD0F21816011
:1037D00001680029D8BF012102DD1E2901DD1E215B
:1037E0000160D5F8740400284FF4FA7403DC01205A
:1037F000C5F8740404E0B0F5FA7FC8BFC5F8744496
:1038000002F59F71088808B901260E80488808B91A
:1038100001264E80888808B903268E80C88808B99A
:103820000426CE80088908B905260E81488908B982
:1038300006264E8142F210766968002902BF286888
:1038400000282E60286F00B92E67E86E10B94FF47B
:103850007A71E966908900B99681188800B91E804E
:10386000588800B95E8078325188002902BF1088DC
:1038700000281680D088002801BF9088002840F6D4
:10388000B83191805089002801BF1089002844F682
:1038900020611181908900B99681988800B99C8037
:1038A00070BD0000100000203A890020A888002088
:1038B00032890020338900203D8900203C89002086
:1038C0003589002039890020378900203889002077
:1038D000368900203B8900203F890020A006002077
:1038E00034890020A4880020418900203E890020DE
:1038F000AC880020B088002043890020B4880020D4
:10390000B8880020BC880020C0880020C48800201F
:10391000C8880020CC880020D0880020D4880020CF
:10392000D88800204489002045890020468900204D
:1039300047890020488900204289002049890020C9
:103940004A890020F88800204B8900204C890020FB
:103950004D8900204E8900204F890020EA880020F0
:103960000689002014890020228900203089002047
:10397000C11768B14840401AB0FA80F29040D21C9A
:10398000C907C2F5846241EA025202EBD021400528
:1039900070470000C1F30A5340F2FE329B1A14DD57
:1039A000D3F120034FEAE17208DDC90241EA505128
:1039B00041F00040D84080185040704703F2E13099
:1039C00010B1D24382F000407047002070470000E1
:1039D000002202F01DBA00002DE9F843040016D0C1
:1039E0002078DFF81463C10713D5B06800F00C002D
:1039F000042807D0B06800F00C0008283ED1706899
:103A000041023BD53068810303D56068002800F08F
:103A100005812078B94F810719D5B06810F00C0FD7
:103A200007D0B06800F00C0008285CD17068410233
:103A300059D43068810703D5E068012840F0EE8052
:103A40003168206921F0F80141EAC0013160217834
:103A500008076CD56069AA49002862D001220A6073
:103A600001F0D8FF0546706F810700F1D98001F0A1
:103A7000D1FF401B0228F6D903203AE16068B0F577
:103A8000803F04D1306840F48030306011E0B0F500
:103A9000A02F306806D140F480203060316841F4B6
:103AA000803105E020F480303060316821F48021DD
:103AB0003160606858B101F0ADFF054630688103A0
:103AC000A7D401F0A7FF401B6528F7D3D4E701F086
:103AD000A1FF0546306881039BD501F09BFF401B89
:103AE0006528F7D3C8E7E06870B10121396001F0BB
:103AF00091FF05463068810700F1BE8001F08AFF22
:103B0000401B0228F6D9B7E7386001F083FF05466D
:103B1000316888079BD501F07DFF401B0228F7D94B
:103B2000AAE7086001F076FF0546706F810777D538
:103B300001F070FF401B0228F7D99DE70528306F80
:103B400006D140F004003067306F40F0010005E01E
:103B5000400840003067306F20F00400306741F2C9
:103B60008938A06868B101F055FF8146306F810740
:103B700000F18F8001F04EFFA0EB09004045F5D326
:103B80007AE701F047FF8146306F810740F181807D
:103B900001F040FFA0EB09004045F5D36CE701F0D0
:103BA00039FF401B022840F2878065E701F032FFB1
:103BB000001B022840F298805EE70020386601F082
:103BC00029FF04463068810140F1928001F022FF14
:103BD000001B0228F6D94FE701281FD07068E26960
:103BE00000F48001914202BF00F03F01226A91423D
:103BF00001BF47F6C0710140626AB1EB821F0DD16F
:103C0000A26A520800F44031521EB1EB024F02BFCB
:103C100000F07060E16AB0EB016F69D0012068E0EC
:103C2000207841073AD5306C0025C1000AD40095B0
:103C30000125316C41F080513164306C00F08050CE
:103C400000900098DFF8BC80D8F80000C1051BD4B4
:103C5000D8F8000040F48070C8F8000001F0DAFEE7
:103C60008146D8F80000C1050ED401F0D3FEA0EBC8
:103C700009000228F5D9FFE63068216920F0F80034
:103C800040EAC1003060E2E6A06801287FF456AF48
:103C90005AE71DB1306C20F080503064A06938B311
:103CA000B16801F00C01082996D0022885D10020C6
:103CB000386601F0AFFE0546306881013FF56FAF11
:103CC000E269206A616A0243A06A400842EA8112FE
:103CD000401E42EA0042E06A42EA0062726001214C
:103CE000396601F097FE0446306881017FF55EAFCA
:103CF0000020BDE8F28300BF0038024000004742C8
:103D0000800E4742007000402DE9F04104000F464C
:103D100078D0494E306800F00700B84202D200F077
:103D200073F86FD12068454D810712D5400703D540
:103D3000A96841F4E051A9602078010703D5A8687B
:103D400040F46040A860A968A06821F0F001014338
:103D5000A9602178C8074DD56068012802D129687B
:103D60008A0305E0022818BF032803D129688A01C5
:103D700003D447E029688A0744D5A968890840EA3E
:103D80008100A86001F046FE8046A868616800F0E6
:103D90000C00B0EB810F2DD001F03CFEA0EB080031
:103DA00041F289318842F0D3032021E02078410795
:103DB00005D5AA68E06822F4E0520243AA6021789F
:103DC000080706D5A968206921F4604141EAC001CD
:103DD000A96000F03FF8AA6819491A4BC2F3031210
:103DE000895CC84018601848006801F0D5FD0020C3
:103DF000BDE8F081306800F007008742D6D200F0BD
:103E000003F8D3D00120F3E73770316801F00701E0
:103E1000B94270470B480D4A006813680C49C3F358
:103E2000822206E00748094A006813680849C3F37C
:103E30004232895CC8407047003C02400038024072
:103E40001C6500080C000020080000200838024013
:103E50003C66000830B5144C606800F00C00042883
:103E600002D0082802D01DE0104830BD226820682A
:103E70000023410202F03F0204D525680B49C5F337
:103E8000881003E020680A49C0F38810A1FB0001F4
:103E900001F0D8FF2168C1F30141491C4900B0FB82
:103EA000F1F030BD024830BD0438024000127A0003
:103EB0000024F400012200E0002210210148FDF757
:103EC00011BC00000000024038B504460D46FFF763
:103ED000F3FF05EB04153035E8B2FFF7D9F8002001
:103EE000FFF7D6F80446FFF7E5FF204632BDBDE8F0
:103EF0007040DFE704460D461646DDE770B5FFF774
:103F0000F9FF2401B034E0B2FFF7C2F8002405E065
:103F10000020FFF7BDF8E1B2641C6854E0B2B04283
:103F2000F6D3E4E700000A212846CDE72DE9F04169
:103F3000884605460821FFF7C7FF002710F0030F4A
:103F400017D00B21FFF7F0FF0646FFF7ECFF044602
:103F5000FFF7E9FF310707D5A042B8BF0446002CA0
:103F60000CBF4FF4807727463A4641462846FFF774
:103F7000C5FF3846BDE8F08138B5040001D1012005
:103F800032BD00F026F808B900F014F800F017F878
:103F900000F023F8FFE7416100F001F832BD20682E
:103FA000C16841F40051C16000206860202169703F
:103FB000A9707047002129702046FFF702B924201C
:103FC00068702068C16821F40051C160204600F08B
:103FD0004DBA04F13C05687870472068016921F406
:103FE000904101612068416921F02A0170472DE963
:103FF000F843054605F13C060C4670782028174624
:10400000994642D10CB1380001D101203EE0307810
:1040100001283AD001213170002070602122727095
:1040200001F0F8FCAF848046EF84A868B0F5805FAB
:1040300004BF286900280EBF27462046002700211C
:10404000317004460EE014F8012B426007E0286846
:10405000002CF8D137F8021BC1F308014160E88C4D
:10406000411EE9844346E88CCDF8009000280FD02B
:1040700000228021284600F042F90028E7D00320E2
:1040800004E020207070002000E00220BDE8F283F0
:1040900000224021284600F032F90028F1D0EEE756
:1040A00038B500F130039C7B202C0FD109B11400EE
:1040B00001D1012032BD1C7B012C07D001241C73CF
:1040C00000251D60BDE8384000F04BB9022032BD2C
:1040D0000020206310BDC160206841694908490083
:1040E00041617047416921F040014161A06B704717
:1040F0007CB5044622681168D568536911F00F0039
:1041000007D188065FD5AB065DD52046BDE8764071
:1041100060E1D80702D415F4907F54D0C80705D5C4
:10412000EA0503D5206C40F001002064480705D55E
:10413000DA0703D5206C40F002002064880705D51B
:10414000DA0703D5206C40F004002064080707D587
:10415000AA0601D4D80703D5226C42F008022264D3
:10416000206C00282ED0880604D5A90644BF20461E
:1041700000F030F920684069216C0A0701D440063C
:104180001BD5204600F008F9206841694A060FD582
:10419000FFF7A8FF60B10FF231210165A06B01F0BC
:1041A00019FF00280ED0A06B016DBDE87C400847C8
:1041B0002046BDE8764001F024BF204601F021FFF3
:1041C0000020206473BD206B012804F13D0354D10D
:1041D000C80652D5EE0650D500210091156800950D
:1041E0005168009100985169480625D5A16B08686F
:1041F000406880B200287BD0A58DA84278DAE0859F
:10420000C869B0F5807F13D0D06820F48070D0608A
:10421000FFF762FF2068416921F0400141612020E1
:1042200058700021216300F064F8A06B01F08EFE4D
:10423000A18DE08D091A1AE0A08DE18D411AE08D63
:1042400000281CBF88B2002852D0D06820F490709B
:10425000D0602068426952085200426120205870A4
:10426000002222632068C26822F01002C260204649
:10427000BDE87C4089B201F0C5BE080629D52E06EE
:1042800027D51878212833D1A068B0F5805F04BF06
:104290002069002808D1206A0188C1F30801516013
:1042A000206A811C216204E0206A411C216200789E
:1042B0005060E08C401EE08480B2C8B92068C168BC
:1042C00021F08001C1602068C16841F04001C160F7
:1042D00073BD48060CD569060AD5D06820F04000A9
:1042E000D060202119702046BDE87640FEF755B910
:1042F00073BD2068C16821F01001C16070472DE9CD
:10430000F041069C05460E4690461F462868016807
:104310003140B1420CBF01200020404517D114F1BB
:10432000010FF3D024B101F075FBC01B8442EDD224
:104330002868C16821F4D07100F00CF805F13C0048
:1043400020214170817000210170032000E00020D5
:10435000BDE8F081C16028684169490849004161B0
:10436000704781628285C28500F13C0100224A606B
:1043700022238B700A700168CB6843F48073CB6092
:1043800001684A6942F001024A610068C16841F06F
:104390002001C160002070470168CA6822F4907251
:1043A000CA6001684A69520852004A61016B0129DA
:1043B00004D10168CA6822F01002CA60202180F886
:1043C0003E10002202637047806B0021C185C184CA
:1043D00001F017BE10B5044694F83E00222843D1E0
:1043E000A068A16AB0F5805F0AD1206968B9226827
:1043F0005068C0F308000880A16A881CA0620FE022
:10440000002804BF2069002802D12268506803E018
:104410002068406800F07F000870A06A411CA1621B
:10442000E08D401EE08580B2E0B92068C16821F0CF
:104430002001C1602068C16821F48071FFF74BFE44
:10444000202084F83E00216B012906D1FFF751FF9F
:104450002046A18D01F0D6FD02E02046FEF72BF8A4
:10446000FFF736BE002010BD022010BD70B5044617
:1044700022681169E06821F4405101431161D36859
:104480002648A168034020690B4361690343E06942
:104490000B430343D3605169A06921F44071014388
:1044A00051611F498A421CBF1E48824202D1FFF758
:1044B000B9FC01E0FFF7AEFC62682568E469642698
:1044C0001921B4F5004FA1FB000112D1D30F520006
:1044D00001F0B8FC00F028F8F60032366420B6FB94
:1044E000F0F0420002F4F87202EB011200F0070053
:1044F00010E0930F920001F0A5FC00F015F83601D2
:1045000032366420B6FBF0F000F0F00202EB01124C
:1045100000F00F008018A86070BD0000F369FFFF75
:1045200000100140001401406421B0FBF1F106FBD2
:10453000110670472DE9F041C14D2888002400285C
:1045400062D0C049C04A097813888B425CD0118080
:10455000BE490A88521C0A8092B2062A54DBBC4A21
:10456000BC4E10800746B7F5807F0C8035DABA4A1A
:104570003178B2F83E31994230D1811EC9B230460D
:1045800000F046F9F119020A11F8023D9A4202BF01
:104590004978C0B288421ED17178B048032902D14F
:1045A0000121AF4A0EE0102902D10121AD4A09E0F4
:1045B000012903D1AC49012008700FE0062908D178
:1045C0000121AA4A1170B378F17801EB032101802F
:1045D00004E0012402E0022400E00424A44FDFF8F8
:1045E0009482012241463846FFF75AFD0020288078
:1045F00054B11421304601F007FD41463846BDE86C
:10460000F0410122FFF74CBDBDE8F0812DE9FC4EE1
:104610009249994A0B88DFF83CC2914DDFF83892F5
:104620009CF805E09CF801702978DFF850A21E463E
:1046300002EB8604019409EB46020020009241F24D
:10464000883B8F4CA9B39CF80000207067704FEA3C
:104650004E00A070B6F5006FB9F8280110DA0128F5
:1046600012D10020E31C704513DA009931F81010C4
:104670000A0A03F81020221D02F81010401CF2E76D
:104680005E45C0F2A180012840F09E800020E61C1B
:10469000704580F29980019901EB800252F80A106E
:1046A0000B041B0E06F81030221D02F81010401CDF
:1046B000EEE76E496B4A0978127851EA02054CD050
:1046C00041F27175AE4204DBB9F81250B5F5FA6FDC
:1046D00014D10120A3F12D05072D04D2694D2D3BE6
:1046E0002B80694D2870002940D09CF80410B6F545
:1046F000006F0EEB012232DA29F816200221217018
:1047000067709CF80220A2709CF80310E1709CF87E
:104710000420227184F805E010B9FF202071607137
:104720000621204600F074F8584A010A108002B0B1
:10473000A171E071082056494A4B088000224B497C
:104740004B481A700A702146524B1A804FF6FF737D
:10475000BDE8F04E0822FFF74ABCBDE8F38E5E4587
:10476000CCDB4549514441F82620C7E7002AC5D093
:10477000BEF1640FC2DAB6F5006F10DA7145BDDA2A
:104780000CF1070212F811300CF1080212F8115066
:10479000009A05EB032322F81130491CEEE75E4531
:1047A000ACDB7145AADA0CF1070212F811300CF1FA
:1047B000080212F81150019A02EB810605EB03235F
:1047C00046F80A30491CECE7A178C91CC9B220465A
:1047D00000F01EF82D490880E31CA178020A5A5403
:1047E000221DA378D0540021A2782948521D0280AE
:1047F00029704FF6FF73274D1D48298092B221463C
:10480000FFF7F5FBBDE8FC4E20212348FCF76EBF07
:1048100070B50246214CFF23FF2004F5807606E0A8
:1048200012F8015B5D400346605D4340705D0D46DC
:10483000691EEDB2002DF3D140EA032070BD0000E7
:10484000A87200209C880020E8880020EA880020C8
:10485000E0880020A86C002010000020E6880020DE
:10486000508900205189002052890020538900205E
:104870008C870020A06C0020A0060020E0B1FFFF84
:10488000A4750020DC88002040890020E4880020F6
:10489000E2880020DE880020000C024074600008DE
:1048A0002DE9F041B54D28880024002862D0B44994
:1048B000B44A097813888B425CD01180B2490A88C7
:1048C000521C0A8092B2062A54DBB04FB04E388098
:1048D000B0F5807F0C8036DAAE493278B1F84031DD
:1048E0009A4231D1811EC9B23046FFF791FF3A8812
:1048F0003244911E030A0F78BB4202BF4978C0B20E
:1049000088421ED17178A448032902D10121A34A0B
:104910000EE0102902D10121A14A09E0012903D1A9
:10492000A049012008700FE0062908D101219E4A04
:104930001170B378F17801EB0321018004E00124C8
:1049400002E0022400E00424984FDFF86482012290
:1049500041463846FFF7A4FB0020288054B11421BB
:10496000304601F051FB41463846BDE8F041012296
:10497000FFF796BBBDE8F0812DE9FC4E86498D4AD4
:104980000B88DFF80CC2854DDFF808929CF805E033
:104990009CF801702978DFF820A21E4602EB8604FD
:1049A000019409EB46020020009241F2883B834CBF
:1049B000A9B39CF80000207067704FEA4E00A07009
:1049C000B6F5006FB9F8280110DA012812D10020DD
:1049D000E31C704513DA009931F810100A0A03F845
:1049E0001020221D02F81010401CF2E75E45C0F2B4
:1049F000A180012840F09E800020E61C704580F2D6
:104A00009980019901EB800252F80A100B041B0EE9
:104A100006F81030221D02F81010401CEEE7624923
:104A20005F4A0978127851EA02054CD041F271755B
:104A3000AE4204DBB9F81250B5F5FA6F14D101207B
:104A4000A3F12D05072D04D25D4D2D3B2B805D4D2F
:104A50002870002940D09CF80410B6F5006F0EEBCA
:104A6000012232DA29F816200221217067709CF8A1
:104A70000220A2709CF80310E1709CF804202271BF
:104A800084F805E010B9FF202071607106212046EE
:104A9000FFF7BEFE4C4A010A108002B0A171E0711E
:104AA00008204A493E4B088000223F493F481A707F
:104AB0000A702146464B1A804FF6FF73BDE8F04E50
:104AC0000822FFF794BABDE8F38E5E45CCDB394986
:104AD000514441F82620C7E7002AC5D0BEF1640F33
:104AE000C2DAB6F5006F10DA7145BDDA0CF10702D3
:104AF00012F811300CF1080212F81150009A05EB6F
:104B0000032322F81130491CEEE75E45ACDB71450A
:104B1000AADA0CF1070212F811300CF1080212F8AF
:104B20001150019A02EB810605EB032346F80A3087
:104B3000491CECE7A178C91CC9B22046FFF768FE02
:104B400021490880E31CA178020A5A54221DA37847
:104B5000D0540021A2781D48521D028029704FF6C2
:104B6000FF731B4D1148298092B22146FFF73FFA8F
:104B7000BDE8FC4E10211748FCF7B8BDAA72002012
:104B80009C880020F6880020F8880020EE8800200D
:104B9000A86D002010000020F48800205489002017
:104BA000558900205689002057890020D087002091
:104BB000A16C0020A0060020E0B1FFFFA476002039
:104BC000DC88002040890020F2880020F088002046
:104BD000EC880020000C02402DE9F041B54D2888FA
:104BE0000024002862D0B449B44A097813888B4263
:104BF0005CD01180B2490A88521C0A8092B2062AFF
:104C000054DBB04FB04E3880B0F5807F0C8036DA80
:104C1000AE493278B1F842319A4231D1811EC9B2DF
:104C20003046FFF7F5FD3A883244911E030A0F78AB
:104C3000BB4202BF4978C0B288421ED17178A448F5
:104C4000032902D10121A34A0EE0102902D101213A
:104C5000A14A09E0012903D1A049012008700FE011
:104C6000062908D101219E4A1170B378F17801EB31
:104C70000321018004E0012402E0022400E0042476
:104C8000984FDFF86482012241463846FFF708FA60
:104C90000020288054B11421304601F0B5F9414676
:104CA0003846BDE8F0410122FFF7FAB9BDE8F081CE
:104CB0002DE9FC4E86498D4A0B88DFF80CC2854DE4
:104CC000DFF808929CF805E09CF801702978DFF87D
:104CD00020A21E4602EB8604019409EB4602002046
:104CE000009241F2883B834CA9B39CF800002070ED
:104CF00067704FEA4E00A070B6F5006FB9F8280152
:104D000010DA012812D10020E31C704513DA009953
:104D100031F810100A0A03F81020221D02F81010B2
:104D2000401CF2E75E45C0F2A180012840F09E8061
:104D30000020E61C704580F29980019901EB800209
:104D400052F80A100B041B0E06F81030221D02F850
:104D50001010401CEEE762495F4A0978127851EA68
:104D600002054CD041F27175AE4204DBB9F8125025
:104D7000B5F5FA6F14D10120A3F12D05072D04D24A
:104D80005D4D2D3B2B805D4D2870002940D09CF857
:104D90000410B6F5006F0EEB012232DA29F8162066
:104DA0000221217067709CF80220A2709CF8031009
:104DB000E1709CF80420227184F805E010B9FF200E
:104DC0002071607106212046FFF722FD4C4A010A3E
:104DD000108002B0A171E07108204A493E4B088062
:104DE00000223F493F481A700A702146464B1A80FC
:104DF0004FF6FF73BDE8F04E0822FFF7F8B8BDE8A4
:104E0000F38E5E45CCDB3949514441F82620C7E793
:104E1000002AC5D0BEF1640FC2DAB6F5006F10DA11
:104E20007145BDDA0CF1070212F811300CF10802DD
:104E300012F81150009A05EB032322F81130491C97
:104E4000EEE75E45ACDB7145AADA0CF1070212F819
:104E500011300CF1080212F81150019A02EB810690
:104E600005EB032346F80A30491CECE7A178C91C7E
:104E7000C9B22046FFF7CCFC21490880E31CA17889
:104E8000020A5A54221DA378D0540021A2781D484A
:104E9000521D028029704FF6FF731B4D1148298067
:104EA00092B22146FFF7A3F8BDE8FC4E082117484F
:104EB000FCF71CBCAC7200209C88002004890020F8
:104EC00006890020FC880020A86E00201000002029
:104ED0000289002058890020598900205A89002021
:104EE0005B89002014880020A26C0020A00600200E
:104EF000E0B1FFFFA4770020DC880020408900207B
:104F000000890020FE880020FA880020000C024062
:104F10002DE9F041B54D28880024002862D0B4491D
:104F2000B44A097813888B425CD01180B2490A8850
:104F3000521C0A8092B2062A54DBB04FB04E388021
:104F4000B0F5807F0C8036DAAE493278B1F8443162
:104F50009A4231D1811EC9B23046FFF759FC3A88D6
:104F60003244911E030A0F78BB4202BF4978C0B297
:104F700088421ED17178A448032902D10121A34A95
:104F80000EE0102902D10121A14A09E0012903D133
:104F9000A049012008700FE0062908D101219E4A8E
:104FA0001170B378F17801EB0321018004E0012452
:104FB00002E0022400E00424984FDFF8648201221A
:104FC00041463846FFF76CF80020288054B1142180
:104FD000304601F019F841463846BDE8F04101225B
:104FE000FFF75EB8BDE8F0812DE9FC4E86498D4A99
:104FF0000B88DFF80CC2854DDFF808929CF805E0BD
:105000009CF801702978DFF820A21E4602EB860486
:10501000019409EB46020020009241F2883B834C48
:10502000A9B39CF80000207067704FEA4E00A07092
:10503000B6F5006FB9F8280110DA012812D1002066
:10504000E31C704513DA009931F810100A0A03F8CE
:105050001020221D02F81010401CF2E75E45C0F23D
:10506000A180012840F09E800020E61C704580F25F
:105070009980019901EB800252F80A100B041B0E73
:1050800006F81030221D02F81010401CEEE76249AD
:105090005F4A0978127851EA02054CD041F27175E5
:1050A000AE4204DBB9F81250B5F5FA6F14D1012005
:1050B000A3F12D05072D04D25D4D2D3B2B805D4DB9
:1050C0002870002940D09CF80410B6F5006F0EEB54
:1050D000012232DA29F816200221217067709CF82B
:1050E0000220A2709CF80310E1709CF80420227149
:1050F00084F805E010B9FF20207160710621204678
:10510000FFF786FB4C4A010A108002B0A171E071E2
:1051100008204A493E4B088000223F493F481A7008
:105120000A702146464B1A804FF6FF73BDE8F04ED9
:105130000822FEF75CBFBDE8F38E5E45CCDB394943
:10514000514441F82620C7E7002AC5D0BEF1640FBC
:10515000C2DAB6F5006F10DA7145BDDA0CF107025C
:1051600012F811300CF1080212F81150009A05EBF8
:10517000032322F81130491CEEE75E45ACDB714594
:10518000AADA0CF1070212F811300CF1080212F839
:105190001150019A02EB810605EB032346F80A3011
:1051A000491CECE7A178C91CC9B22046FFF730FBC7
:1051B00021490880E31CA178020A5A54221DA378D1
:1051C000D0540021A2781D48521D028029704FF64C
:1051D000FF731B4D1148298092B22146FEF707FF4D
:1051E000BDE8FC4E08211748FCF780BAAE720020DB
:1051F0009C88002012890020148900200A89002040
:10520000A86F002010000020108900205C89002079
:105210005D8900205E8900205F89002004870020CE
:10522000A36C0020A0060020E0B1FFFFA4780020BE
:10523000DC880020408900200E8900200C89002095
:1052400008890020000C02402DE9F041B54D288866
:105250000024002862D0B449B44A097813888B42EC
:105260005CD01180B2490A88521C0A8092B2062A88
:1052700054DBB04FB04E3880B0F5807F0C8036DA0A
:10528000AE493278B1F846319A4231D1811EC9B265
:105290003046FFF7BDFA3A883244911E030A0F7870
:1052A000BB4202BF4978C0B288421ED17178A4487F
:1052B000032902D10121A34A0EE0102902D10121C4
:1052C000A14A09E0012903D1A049012008700FE09B
:1052D000062908D101219E4A1170B378F17801EBBB
:1052E0000321018004E0012402E0022400E0042400
:1052F000984FDFF86482012241463846FEF7D0FE1F
:105300000020288054B11421304600F07DFE414633
:105310003846BDE8F0410122FEF7C2BEBDE8F0818B
:105320002DE9FC4E86498D4A0B88DFF80CC2854D6D
:10533000DFF808929CF805E09CF801702978DFF806
:1053400020A21E4602EB8604019409EB46020020CF
:10535000009241F2883B834CA9B39CF80000207076
:1053600067704FEA4E00A070B6F5006FB9F82801DB
:1053700010DA012812D10020E31C704513DA0099DD
:1053800031F810100A0A03F81020221D02F810103C
:10539000401CF2E75E45C0F2A180012840F09E80EB
:1053A0000020E61C704580F29980019901EB800293
:1053B00052F80A100B041B0E06F81030221D02F8DA
:1053C0001010401CEEE762495F4A0978127851EAF2
:1053D00002054CD041F27175AE4204DBB9F81250AF
:1053E000B5F5FA6F14D10120A3F12D05072D04D2D4
:1053F0005D4D2D3B2B805D4D2870002940D09CF8E1
:105400000410B6F5006F0EEB012232DA29F81620EF
:105410000221217067709CF80220A2709CF8031092
:10542000E1709CF80420227184F805E010B9FF2097
:105430002071607106212046FFF7EAF94C4A010A03
:10544000108002B0A171E07108204A493E4B0880EB
:1054500000223F493F481A700A702146464B1A8085
:105460004FF6FF73BDE8F04E0822FEF7C0BDBDE861
:10547000F38E5E45CCDB3949514441F82620C7E71D
:10548000002AC5D0BEF1640FC2DAB6F5006F10DA9B
:105490007145BDDA0CF1070212F811300CF1080267
:1054A00012F81150009A05EB032322F81130491C21
:1054B000EEE75E45ACDB7145AADA0CF1070212F8A3
:1054C00011300CF1080212F81150019A02EB81061A
:1054D00005EB032346F80A30491CECE7A178C91C08
:1054E000C9B22046FFF794F921490880E31CA1784E
:1054F000020A5A54221DA378D0540021A2781D48D4
:10550000521D028029704FF6FF731B4D11482980F0
:1055100092B22146FEF76BFDBDE8FC4E0221174812
:10552000FCF7E4B8B07200209C880020208900209D
:105530002289002018890020A87000201000002077
:105540001E89002060890020618900206289002076
:105550006389002048870020A46C0020A00600205A
:10556000E0B1FFFFA4790020DC8800204089002002
:105570001C8900201A89002016890020000C024096
:105580002DE9F041B54D28880024002862D0B449A7
:10559000B44A097813888B425CD01180B2490A88DA
:1055A000521C0A8092B2062A54DBB04FB04E3880AB
:1055B000B0F5807F0C8036DAAE493278B1F84831E8
:1055C0009A4231D1811EC9B23046FFF721F93A889B
:1055D0003244911E030A0F78BB4202BF4978C0B221
:1055E00088421ED17178A448032902D10121A34A1F
:1055F0000EE0102902D10121A14A09E0012903D1BD
:10560000A049012008700FE0062908D101219E4A17
:105610001170B378F17801EB0321018004E00124DB
:1056200002E0022400E00424984FDFF864820122A3
:1056300041463846FEF734FD0020288054B114213D
:10564000304600F0E1FC41463846BDE8F041012219
:10565000FEF726BDBDE8F0812DE9FC4E86498D4A56
:105660000B88DFF80CC2854DDFF808929CF805E046
:105670009CF801702978DFF820A21E4602EB860410
:10568000019409EB46020020009241F2883B834CD2
:10569000A9B39CF80000207067704FEA4E00A0701C
:1056A000B6F5006FB9F8280110DA012812D10020F0
:1056B000E31C704513DA009931F810100A0A03F858
:1056C0001020221D02F81010401CF2E75E45C0F2C7
:1056D000A180012840F09E800020E61C704580F2E9
:1056E0009980019901EB800252F80A100B041B0EFD
:1056F00006F81030221D02F81010401CEEE7624937
:105700005F4A0978127851EA02054CD041F271756E
:10571000AE4204DBB9F81250B5F5FA6F14D101208E
:10572000A3F12D05072D04D25D4D2D3B2B805D4D42
:105730002870002940D09CF80410B6F5006F0EEBDD
:10574000012232DA29F816200221217067709CF8B4
:105750000220A2709CF80310E1709CF804202271D2
:1057600084F805E010B9FF20207160710621204601
:10577000FFF74EF84C4A010A108002B0A171E071A7
:1057800008204A493E4B088000223F493F481A7092
:105790000A702146464B1A804FF6FF73BDE8F04E63
:1057A0000822FEF724BCBDE8F38E5E45CCDB394908
:1057B000514441F82620C7E7002AC5D0BEF1640F46
:1057C000C2DAB6F5006F10DA7145BDDA0CF10702E6
:1057D00012F811300CF1080212F81150009A05EB82
:1057E000032322F81130491CEEE75E45ACDB71451E
:1057F000AADA0CF1070212F811300CF1080212F8C3
:105800001150019A02EB810605EB032346F80A309A
:10581000491CECE7A178C91CC9B22046FEF7F8FF85
:1058200021490880E31CA178020A5A54221DA3785A
:10583000D0540021A2781D48521D028029704FF6D5
:10584000FF731B4D1148298092B22146FEF7CFFB12
:10585000BDE8FC4E01211748FBF748BFB27200209B
:105860009C8800202E890020308900202689002075
:10587000A8710020100000202C89002064890020DD
:1058800065890020668900206789002058880020EB
:10589000A56C0020A0060020E0B1FFFFA47A002044
:1058A000DC880020408900202A89002028890020E7
:1058B00024890020000C024070B500F13C031A78E6
:1058C000012A01D1022070BD01221A7002245C70ED
:1058D00005686E68AC680A6826F0700616436E604C
:1058E00002681148824218BFB2F1804F11D01148AE
:1058F00082421CBF104DAA420BD00D4882421CBFF1
:105900000E4DAA4205D0094882421CBF0C4DAA4246
:1059100004D1486824F08004044394600121597044
:105920000020187070BD00000000014000400140E0
:10593000000C00400004004000080040000401404A
:105940000018004010B590F83C20012A01D1022037
:1059500010BD012280F83C20CC688A684B6824F492
:105960004074144324F480641C430A680B6924F4D3
:105970000064144324F480541C434A69C96924F424
:1059800000541443026824F480440C4354640023FC
:1059900080F83C30002010BD38B50D4D0D4B2A78F5
:1059A00004464FF47A711868B1FBF2F2B0FBF2F0E2
:1059B000FCF72AFA50B9102C08D2002221464FF0E9
:1059C000FF30FCF7F9F9AC60002032BD012032BD98
:1059D000000000200C00002082B000200090002277
:1059E0000B48416841F480414160416801F48041C5
:1059F000009100990092036843F0805303600068AF
:105A000000F0805000900098052002B0FCF7C7B964
:105A10004038024001484068704700BF0000002045
:105A200038B5040001D1012032BD606A28B900F008
:105A300051F805D00021E16102E0002020616061A1
:105A40000020A06204F15005687820B90021297077
:105A50002046FDF7ADFA0220687000F041F9606859
:105A6000A168E26800F4827001F404410843217CDB
:105A700002F400621043227D01F002010843A16993
:105A800002F001021043227F01F40071084394F8F0
:105A9000201002F038021043A26A01F0800108438E
:105AA000216802F4005210430860A06994F82410A1
:105AB0002268000C00F0040001F01001084350605F
:105AC0002068C16921F40061C16100206860012182
:105AD000697032BD6068B0F5827F70472DE9FC4780
