:020000040800F2
:10000000A0830020295F0008B95C0008BB5C0008E1
:10001000BD5C0008BF5C0008C15C00080000000077
:10002000000000000000000000000000C35C0008A9
:10003000C55C000800000000C75C0008C95C00083F
:100040005D5F0008615F0008655F0008695F000888
:100050006D5F0008715F0008F55C0008755F0008BF
:10006000795F00087D5F0008815F0008855F0008F8
:10007000895F00088D5F0008915F0008955F0008A8
:10008000995F00089D5F0008A15F0008A55F000858
:10009000A95F0008AD5F0008B15F0008B55F000808
:1000A000B95F0008BD5F0008C15F0008215E00085D
:1000B000FB5C0008095D0008D15D0008C55F000811
:1000C000C95F0008CD5F0008D15F0008D55F000858
:1000D000D95F0008175D00081D5D0008235D00085A
:1000E000DD5F0008E15F0008E55F0008E95F0008E8
:1000F000ED5F0008F15F0008F95D0008F55F00089A
:10010000F95F0008FD5F0008495E00080160000813
:10011000295D00082F5D00080560000809600008DF
:100120000D600008116000081560000819600008E3
:100130001D60000821600008256000082960000893
:100140002D60000831600008356000083960000843
:100150003D6000084160000845600008355D00080A
:10016000496000084D6000085160000855600008B3
:10017000596000085D600008616000080000000030
:1001800065600008696000082DE9F043002600253D
:10019000471E032FDFF89838DFF89898DFF8984863
:1001A00036D8DFE807F0020E1924DFF8906801273F
:1001B000F771B5714FF080473765CE4609F5BC78C9
:1001C00026E0DFF87C680227F771B571336509F521
:1001D0003C7E09F58D681BE0DFF868680327F7713E
:1001E000B571346509F5BC6E09F5EB6810E0DFF810
:1001F00058580427EF71AE712971DFF85078C5F8AF
:100200004670DFF84C78C5F84A700227C5F84E7082
:10021000042801FB02F953DA002858D04FF0000CF3
:1002200031717263C6F83C90C6F830C0C6F838C069
:100230005E2737835D277783C6F80CE0C6F8108009
:10024000A6F814C086F805C0C6F81CC0C6F820C0C1
:1002500008E03769D6F81CE037F81C707744F7617E
:100260000CF1010C378BBC45F3D34FF0000C0BE0C5
:10027000D6F81080378BD6F820E0674438F817702E
:10028000774437620CF1010C778BBC45F0D3D6F87C
:100290000CE0376DBEF800E0C7F82CE0376DB7F121
:1002A000804F03D100F015F8BC6306E09F4218BFF1
:1002B000A74205D100F00DF87C630024336D5C6229
:1002C000042804D12971C5F83A20C5F84290BDE848
:1002D000F083F468B6F814C034F81C406408704722
:1002E000F0B504460022002300200021002600274C
:1002F000012C04D002D3032C12D00ED3F0BDDFF8B2
:100300003CC7DCF81C50DCF820E0DCF828407544E1
:10031000AC4253D3BCF8184012E0DFF824C7F0E732
:10032000DFF820C7EDE7DCF81000DCF80C1030F83F
:10033000170031F817104843121843EBE0737F1C85
:10034000A742F0DB00250DE0DCF81000DCF80C1013
:10035000661930F8160031F816104843121843EBAE
:10036000E0736D1CBCF81A008542EDDBDCF80C5024
:10037000DCF82800DCF81C1005EB4404401A34F8C3
:10038000021CA0EB0E00484300211018DCF82820C6
:10039000A2EB0E025941CCF8242064E000F068F88A
:1003A000121943EBE47300F063F8001941EBE471B8
:1003B000DCF8104034F8174036197F1CDCF8105078
:1003C000DCF8284035F8175064087519AC42E5D2BE
:1003D00010185941DCF81030DCF8284033F8173099
:1003E000A4EB4604A3422ED2DCF81030DCF82840FF
:1003F000A4EB460423F817400023CCF81C30CCF8BB
:10040000203009E0DCF81050DCF81C4035F81350BF
:100410006419CCF81C405B1CBCF81840A342F1DB0B
:1004200000230CE0DCF81050BCF818E0DCF82040A9
:100430009E4435F81E506419CCF820405B1CBCF873
:100440001A40A342EEDBDCF80C30DCF8284003EB6A
:100450004703A4EB46021B885A43002380185941E6
:10046000A61BCCF82460CCF84800CCF84C10F0BDAA
:10047000DCF81040DCF80C5034F8174035F8175011
:100480006C43704738B50022012804D04CD30328B0
:100490000DD009D331BDDFF8A41500258A608A820A
:1004A0004D71CA610A620CE0DFF89415F5E7DFF8D8
:1004B0009415F2E70C69CB6934F812401B19CB6133
:1004C000521C0B8B9A42F5DB002208E00C690D8B65
:1004D0000B6A551934F815401B190B62521C4B8BD3
:1004E0009A42F3DBCB680A6D1B88D3620A6DB2F1C6
:1004F000804F03D100F019F893630AE0DFF830353C
:100500009A421CBFDFF830359A4205D100F00DF851
:10051000536300230A6D536200230A6DD26A0A6492
:100520004B64BDE83240DBE631BDCB688C8A33F8E2
:1005300014305B0870470000F8B52DED0A8BB0EE63
:10054000608AF0EE418AB0EE619AF0EE429AB0EE27
:1005500062AA10EE100A00F013FBB5EE40AAF1EE0D
:1005600010FAA4BFF4EE4A8AF1EE10FA41EC1B0B2C
:100570000EDB00F094F800F0BAF800F098F800F004
:1005800092F800F094F800F08EF853EC1B2B27E063
:10059000F4EE4A8AF1EE10FA38EE890A23D500F01B
:1005A00075F820DB00F07BF800F0A1F800F085F88A
:1005B00000F079F800F081F800F075F853EC1B2B8F
:1005C00000F002FB3AEE680A20EE080A044620EE2C
:1005D000280A0D4610EE100A00F0D2FA22462B46E9
:1005E00000F0F2FA48E000F051F84AD530EE290A5E
:1005F00000F04CF845DB30EE4ACA00F050F800F04D
:1006000076F800F05AF800F04EF841EC1A0B00F0C2
:100610005BF800F040F853EC1B2B00F0D5FA69EEC4
:10062000080A044660EEA80A00F052F800F055F8F7
:1006300000F057F800F02FF800F04FF806460F468C
:100640001CEE100A00F09CFA00F025F804460D4656
:100650001CEE100A00F094FA00F025F800F041F8C2
:1006600002460B462046294600F088FB02460B4610
:100670003046394600F0A6FC00F016FD00EE100AE8
:1006800001E09FED930ABDEC0A8BF1BDB4EE4A0A7E
:10069000F1EE10FA704753EC1A2B00F039BD18EE4A
:1006A000100A00F06DBA22462B4600F031BD044618
:1006B0000D461AEE100A00F063BA04460D4618EE15
:1006C000900A00F05DBA000018EE900A00F058BAE7
:1006D0000D4610EE900A00F053BA22462B4600F069
:1006E00073BA04460D4619EE900A00F049BA00228A
:1006F000DFF8503400F00CBD000000002DE9F0419F
:100700002DED088BB0EE408AB0EE419AB3EE0F0AA1
:10071000F0EE608AB0EE61BA05460E460027C9EEDB
:10072000009ADFF82484DFF82444F0EE42AA00EEB9
:10073000107AB8EEC00A69EE802A00F095F8201D04
:10074000DFED650A00EB8701C0EE800AFDEEE00AEE
:1007500081ED000A00F070F81F2FE8DBB3EE0F0AFE
:100760001F27CBEE009AA7F11F0000EE900AF8EECB
:10077000E00AF0EE492A00F075F800F051F83E2F3B
:10078000F1DBB3EE0F0A3E27CAEE809A39EE0BAAD0
:10079000A7F13E0000EE900AF8EEE00AF0EE4A2AD9
:1007A00000F060F800F03CF85D2FF1DB27607AEE96
:1007B0002A2A00F059F8DFED480A04EB8700C0EE62
:1007C000800AFDEEE00A80ED010A10EE901AA5F80D
:1007D000BA1029EE800AB8F8FC0001EE100AB8EE53
:1007E000411A80EE011ABDEEC11A11EE100AA6F8E8
:1007F000BA005E20414205EB410206EB4101B2F82E
:10080000743125F81030B1F8742126F81020401CFE
:10081000BA28EFDD2060BDEC088BBDE8F081000058
:10082000211DDFED2D0A01EB8700C0EE800AFDEEF1
:10083000E00A80ED000A00BF10EE902A25F817208C
:1008400029EE800AB8F8FC0001EE100AB8EE411A51
:1008500080EE011ABDEEC11A11EE100A26F817003B
:100860007F1C704749EEA02AB0EE6A2AF0EE4B1AC0
:10087000B0EE491AF0EE680AB0EE480A5CE60000F5
:1008800010B52DED028B9FED138AF1EE048ADFF88F
:10089000A44104F5BC71204600F020F804F58D61F8
:1008A00004F53C7000F01AF8F0EE681AF0EE480A11
:1008B000B0EE480ABDEC028B04F5EB6104F5BC60B8
:1008C000BDE81040B0EE002AB0EE001A16E70000B6
:1008D0000000000000401C46A037204BB0EE002A6C
:1008E000F0EE681AB0EE001AF0EE480AB0EE480AD0
:1008F00004E700002DE9FC4D140054D00746012FF9
:100900004E4EDFF83CA1DFF83C818B4604D04AD341
:10091000032F2BD028D346E0002914BF0122002248
:10092000DFF82C02022100F0A3FD354601222A70D7
:1009300085F801B0AA700022EA622A646A64287904
:100940004443AC623846FFF79DFD0020A8826871E1
:100950003849286D0A88C262286DB0F1804F07D1EE
:1009600000F02DF881630CE05546DFE74546DDE7F2
:100970002F4988421CBF3049884205D100F01FF83A
:1009800041630021286D4162012F04D00BD3032F56
:1009900010D00AD307E0316DDFF8B8010160BDE87F
:1009A000F64D00F0A0BDBDE8F38DDAF85010DFF889
:1009B000A801F3E7D8F85010DFF8A001EEE7E968E6
:1009C000AA8A31F812104908704770B514000E4613
:1009D0001D462CD004282AD13100DFF884010CBF39
:1009E000002201224FF4805100F042FD164A049982
:1009F0009161012010700123002050715670937096
:100A0000556182F834301079D2F8461044436008BA
:100A100010621461002090621063D061D062506255
:100A2000DFF840010160BDE8704000F05CBD70BDC2
:100A3000000800400C5B002000040140507A0020B8
:100A4000A47A0020F87A00204C7B002000040040AB
:100A50000004024010B588B0002000903D4C424890
:100A6000016841F001010160006800F001000090A0
:100A7000009800F0F1FF4FF08040206007214FF414
:100A80007A7000F075F83221029170200222002164
:100A9000019003920491059106910791042201A906
:100AA000204600F0C8FD012204214FF0804000F0F4
:100AB000C4FF002200211C2001F044F81C2001F09A
:100AC0005EF820686FF0040101616FF001020261BD
:100AD000C16841F00101C160204600F03DFD206881
:100AE000416C41F40041416408B010BD1CB50020C8
:100AF00000901C4C1C48016841F002010160006834
:100B000000F002000090009801F064F8174820609F
:100B10000F211D2000F02CF8002200211D2001F0E3
:100B200011F81D2001F02BF820686FF00101016120
:100B3000C26842F00102C2602046BDE8164000F0E3
:100B40000BBD00000000E03F10000020F069002015
:100B5000001002409C780020FC7600206477002082
:100B60000014024000790020403802400004004098
:100B70000022E0606160A2602261204600F0A6BC15
:100B8000C0F3C75181B1FF2906D0C110400721F041
:100B9000E04101F16051704741020CBF40F4E001B7
:100BA0006FF000410020704700F0004100020AD0C1
:100BB000B0FA80FC00FA0CF001F16051A1EB0C518D
:100BC00001EBD0214005704770B44FF0004591EA29
:100BD000030F40F1FF816B40841A71EB030604D2CE
:100BE0006E40001BB141121973414FF4001C1CEB05
:100BF000410F34BF7CEB430683E00C0DA4EB13568E
:100C0000362E00F37C80012E45EAC32341DC43EA03
:100C1000525312BFD20292025B08240545EAC12159
:100C200041EA5051D2EBC020994125D407D1B0FA06
:100C300080F610FA06F162D00020203608E0B1FA02
:100C400081F6B140C6F1200220FA02F21143B04011
:100C50004FEAF474B4EB465434F001064FEA7404DE
:100C60000AD8D6F50016760D04F00044F04061FA7B
:100C700006F25040F1404840C00A40EA415021F09D
:100C8000004128BF5FEA500550F1000044EBD1213C
:100C900035E0DB0A45EAC121C90AB6F120050EDDBF
:100CA00042EA0242120CC5F1200603FA06F6EB40B6
:100CB00042EA06056D42984161F100010DE062FAD9
:100CC00006F5F240554063FA06FC82EA0C02F34056
:100CD0005A406D42904161EB030111F4801F05D130
:100CE000641E620502D06D004041494121F480112B
:100CF000430875F1004350F1000041EB045170BC12
:100D000070471CEB410F15D223F0004352EA430613
:100D10000BD04FEA4C0CBCEB410F04D80C0D661EF7
:100D2000342EB7DDEBE7801A994150EA410608BF3F
:100D30000021E4E708BF1CEB430F28BF6FF0000160
:100D4000DDE730B4002513E050F8042BD30744BF8F
:100D5000A9F101039A18091F042942F8045BFAD289
:100D600013468C0744BF15809B1CC90748BF1D70E4
:100D700050F8041B0029E7D130BC7047F0B540F2B1
:100D8000FF7581EA030C0CF0004C15EA11541DBFED
:100D900015EA1357AC42AF42E5E0BC41C1F3130181
:100DA000C3F31303801A994143F4801304D2641EE1
:100DB0004000494180185941C90241EA5051B1FBF4
:100DC000F3F603FB1611A2FB0675D7EBC020A94171
:100DD00002D2761E80185941C90241EA5051B1FB36
:100DE000F3FE03FB1E11A2FB0E75D7EBC020A94139
:100DF00003D2AEF1010E80185941890241EA9051A7
:100E0000760546EA8E2EB1FBF3F603FB1611A2FB24
:100E10000675D7EB8020A94102D2761E8018594171
:100E2000C90241EA50514EEA060EB1FBF3F603FB4C
:100E30001611A2FB0675D7EBC020A94102D2761E7F
:100E400080185941C90241EA5051B1FBF3F703FB45
:100E50001711A2FB0735D3EBC020A94167F10007AA
:100E60000CBF004247F0010766F3D5274FEA1E3159
:100E7000B80814F5806412DDBD0775F1004250EB2F
:100E80000E5051EB045111F5801F5CBF41EA0C017B
:100E9000F0BD4CF07F6141F0E0410020F0BDBD07A6
:100EA0006D0840EA0E5041F48011D4F10104B4F110
:100EB00020060ADAC4F120060200E04001FA06F337
:100EC000E1401843B24015430EE0342C13DCC6F168
:100ED000200445EA40056D0820FA06F2154321FA80
:100EE00006F0A1400D43002175F1004250F10000D1
:100EF00051EB0C01F0BD00205FEA0C01F0BDCFB951
:100F000092185B41B3FA83F704BFB2FA82F6BF19B5
:100F10000B3FB7F120062FBF02FA06F3BB40C7F123
:100F2000200622FA06F638BF3343BA401CB1E41952
:100F3000641E33E77F4231F00041B1FA81F404BF0F
:100F4000B0FA80F6A4190B3CB4F120062FBF00FACA
:100F500006F1A140C4F1200620FA06F638BF31435D
:100F6000A0403C1B1AE7AC421ABF05EA1357AF4238
:100F700012E050EA41061CBF52EA4306BFE750EABE
:100F80004107304661461CBF41EA0551F0BD52EAB7
:100F9000430C08BFC143F0BD00204FF4001616EB10
:100FA000410F98BF16EB430F08BF16EB410F24BF4C
:100FB000C14305E016EB430F0CBF61464CEA0551F7
:100FC000F0BD000070B44FF0004591EA030F7FF5CB
:100FD00003AE6B40841A71EB030603D2001BB141D0
:100FE000121973414FF4001C1CEB410F34BF7CEB12
:100FF000430442E00C0DA4EB1356352E4FDC45EABA
:10100000C323DB0A45EAC121C912B6F120050DDD73
:1010100063FA05F6EB4086EA0305124218BF45F075
:101020000105C01851F100010CD213E062FA06F577
:10103000F2405540F3415A40B340F3405A408018C3
:10104000594107D349085FEA30005FEA350528BFF8
:1010500045F0010501F58011420875F1004250F19B
:10106000000041EB04514E0016F5001F70BC38BF64
:1010700070470020090D090570471CEB410F10D285
:1010800052EA43060BD0BCEB410F05D80C0DAB4325
:10109000661E342EB6DD02E0AB438018594170BCA9
:1010A000704770BC7047000001F000428B1AA3F13A
:1010B0006051B1F5801F0ADBB1F17F6F1FD242EAA8
:1010C000C102C10071F1004142EB507070470B1535
:1010D000C3F10903212B10D2890241EA9051800209
:1010E0000128494141F0004121FA03F0C3F12003F6
:1010F000994071F1004150417047100070476FF006
:10110000000013EB103F5CBF000E42EAC050704776
:10111000B0B581EA030C0CF0004C40F2FF7515EA03
:1011200011541DBF15EA1357AC42AF4239E0E41920
:1011300023EA455343F48013C90241F0004141EAD8
:10114000505EC7021100A7FB020200284FF000000A
:10115000EEFB01204FF00001E3FB072118BF42F036
:101160000102401800214941E3FB0E01A4F580640F
:101170000F0302D252004041494154F101046CDD99
:10118000470872F1004250F1000051EB0451A1F503
:1011900080115CBF41EA0C01B0BD4CEA0551002052
:1011A000B0BD05EA1357AC4214BFAF4241E050EA6C
:1011B000410E1CBF52EA430E02E061460020B0BD62
:1011C00024423C441BD15FEA070EF6D0090302BF5C
:1011D00001460020AEF1140EB1FA81F7AEEB070420
:1011E00001FA07FE0C37C7F1200100FA07F7C840E3
:1011F0004EEA000E23EA455343F48013A2E733F08E
:101200000043B3FA83F704BFB2FA82FE77440B3F80
:10121000E41BB7F1200E2FBF02FA0EF3BB40C7F15B
:10122000200E22FA0EFE38BF43EA0E03BA40641CB9
:1012300082E750EA410E14BF52EA430E6FF00001FC
:101240004FF4001717EB430F8ABF194617EB410FF6
:10125000B5E74CEA05510020B0BDD4F10104B4F16A
:1012600020070FDAC4F12007520828BF42F001021C
:1012700010FA07F501FA07F7E1BF2A43E0403843C7
:10128000E1400FE0352C98DCC7F1200452EA40021F
:1012900020FA07F218BF42F0010231FA07F0A1402C
:1012A0000A43002172F1004250F1000051EB0C01A1
:1012B000B0BD00002DE9F84F0D464FF0000877490A
:1012C0000F22012304462E6803FA08F000EA0609FB
:1012D000814540F0C5804FEA480C032606FA0CF61B
:1012E0006FEA060E6E6806F00307012F1CBF06F0BA
:1012F0000306022E11D1A668EF680EEA060607FA69
:101300000CF73E43A660666826EA00006E68C6F3E6
:10131000001606FA08F6304360604FEA88002E791E
:1013200006F00306032E1FD0E668AF680EEA060635
:1013300007FA0CF73E43E6602E7906F00306022E0C
:1013400012D14FEAD80604EB860600F01C07D6F847
:1013500020A002FA07FB2AEA0B0AD5F810B00BFA14
:1013600007F747EA0A07376226680EEA06072E796A
:1013700006F0030606FA0CF63E4326606E68F60099
:101380006ED5002600964FEA980C0E68DFF810E143
:1013900046F480460E6000F00C000E6806F48046AD
:1013A0000096009E5EF82C7002FA00F627EA060608
:1013B0003C4FBC4208BF002722D03B4FBC4208BF75
:1013C00001271DD0394FBC4208BF022718D0384F23
:1013D000BC4208BF032713D0364FBC4208BF0427C6
:1013E0000ED0354FBC4208BF052709D0334FBC4251
:1013F00008BF062704D0324FBC420CBF072708277E
:1014000007FA00F030434EF82C006FEA090C2D4823
:1014100006680CEA060E6E68F70348BF49EA0E0E2E
:10142000C0F800E046680CEA060E6E68B70348BFD5
:1014300049EA0E0EC0F804E086680CEA060E6E68F3
:10144000F70248BF49EA0E0EC0F808E0C6680CEA89
:10145000060E6E68B60248BF49EA0E0EC0F80CE0F0
:1014600008F10108B8F10F0F7FF62DAFBDE8F18F3D
:1014700002B9090481617047426901EA020391439C
:1014800041EA0341816170470F4A136803421CBF60
:10149000106000F009BD70470000000044380240B1
:1014A00008380140000002400004024000080240E9
:1014B000000C0240001002400014024000180240DC
:1014C000001C0240003C0140143C014038B50400BF
:1014D00001D1012032BD00F085F818B900F07EF886
:1014E00000F022FF59E090F83D10012901D00120C1
:1014F0007047022180F83D100068DFF8C420904258
:1015000018BFB0F1804F17D0DFF8B81088421CBF69
:10151000DFF8B42090420FD0DFF8B01088421CBF33
:10152000DFF8AC20904207D0DFF8A81088421CBF3B
:10153000DFF8A420904209D1816801F00701062953
:1015400008D0016841F00101016003E0026842F047
:10155000010202600020704701680A6A41F211131B
:101560001A4202BF0A6A40F244431A42FFE703D11B
:101570000A68520852000A60012180F83D100020DC
:10158000704738B5040001D1012032BD00F02AF8BF
:1015900018B900F023F801F033F802206870211D1B
:1015A000206800F005F90120A872A870E870287181
:1015B0006871A871E871287268726870002032BD85
:1015C000000001400004004000080040000C004002
:1015D0000004014000400140001800400021297033
:1015E0002046704704F13C056878704710B5044602
:1015F00094F83C00012801D1022010BD012084F89C
:101600003C004AB1042A0BD0082A0DD00C2A04BF92
:10161000206800F0A3F90AE0206800F014F906E061
:10162000206800F03CF902E0206800F068F9002032
:1016300084F83C0010BD38B500F057F801D1022005
:1016400032BD012084F83C0032B1042A15D0082AAA
:1016500025D00C2A34D044E0206800F0F4F821684A
:10166000886940F008008861886920F0040088617A
:101670008A69286902438A6133E0206800F00FF923
:101680002068816941F400618161816921F4806190
:10169000816181692A6941EA0221816121E0206832
:1016A00000F02DF92168C86940F00800C861C869D8
:1016B00020F00400C861CA6928690243CA6110E0C9
:1016C000206800F04BF92068C16941F40061C161F4
:1016D000C16921F48061C161C1692A6941EA0221BD
:1016E000C161002084F83C0032BD04460D4694F8E8
:1016F0003C000128704738B500F04EF801D10220B7
:1017000032BD0120207002226270DFF898022A6840
:101710009368034093600868020018BF10282DD01A
:10172000202818BF302829D0402823D0502816D090
:10173000602818D0702803D0B0F5005F07D021E0F2
:1017400000F025F82868816841F0770105E000F095
:101750001EF82868816841F48041816012E000F041
:1017600012F850210BE0CA684968286800F041F976
:10177000602104E000F007F8402100E001462868FD
:1017800000F049F90EE0CA684968286822E1CB6890
:101790004A688968286846E1054605F13C042078D6
:1017A000012870470120607000212170002032BDA7
:1017B000F0B57D4C05687D4B7D4E7E4FDFF8F8C15E
:1017C000A04218BFB0F1804F07D0604518BFB842A3
:1017D00003D0B04218BF98420DD14A6825F0700579
:1017E0001543A04218BFB0F1804F17D060451CBF11
:1017F000B842B04212D098421CBF704A90420DD0FD
:101800006F4EB0421CBF6F4A904207D06E4EB0423E
:101810001FBF6E4A90426E4EB04203D1CA6825F493
:10182000407515434A6925F0800515430560A042BF
:101830008D68C5620A68826212BF984209690163B5
:1018400001224261F0BDF0B5026A574F52085200C2
:101850000262066A446885690B688A6825F0730528
:1018600026F002061D431643504BB84218BF98425B
:1018700007D1CA6826F008061643B84226F00406C7
:1018800001D0984205D14B698A6924F440741C4305
:10189000144344608561496841630662F0BDF0B558
:1018A000026A414E22F010020262B042056A4368A9
:1018B00084690A6824F4E64444EA02248A6825F02C
:1018C000200545EA0215394A18BF904208D1CF6871
:1018D00025F0800545EA0715B04225F0400501D006
:1018E000904206D14E698A6923F44063164343EA65
:1018F000860343608461496881630562F0BDF0B589
:10190000026A22F480720262056A4368C4698E68C2
:101910000A6825F4007524F0730445EA062514438B
:10192000214E224AB04218BF904208D1CF6825F418
:10193000006545EA0725B04225F4806501D0904254
:1019400006D14E698A6923F44053164343EA0613CD
:101950004360C4614968C1630562F0BD70B5026A45
:10196000114E22F480520262B042046A4268C36996
:101970000D6823F4E64343EA05238D6824F40054FC
:1019800044EA05341CBF094DA84204D14D6922F434
:10199000804242EA85124260C36149680164046280
:1019A00070BD00008800FFFF0000014000040140FE
:1019B000000C0040000800400004004000400140CE
:1019C000004401400048014000180040001C004055
:1019D0000020004010B5036A046A640864000462D1
:1019E00023F00A03846924F0F00444EA02148461B9
:1019F0002EE010B5036A23F0100303628369046AC2
:101A000023F4704343EA023324F0A004836144EAE0
:101A10000114046210BD826822F07002114341F08B
:101A200007018160704710B5846824F47F44214326
:101A3000114341EA0321816010BD10B501F01F017F
:101A4000036A01248C40A343036202FA01F1036A92
:101A50001943016210BD000038B586B00020009027
:101A6000274C2848284D016841F0010101600268B7
:101A700002F001020092002200990092036843F0F4
:101A800010030360016801F01001009100990092B9
:101A90000222036843F002030360006800F00200C2
:101AA0000090009901920292049201A901220592EC
:101AB0001648FFF7FFFB01220292022101910491D7
:101AC0000022059201A92046FFF7F4FB4FF40071B4
:101AD000019101220292022104910022059201A9A2
:101AE0002846FFF7E7FB002202212046FFF7C0FC53
:101AF00001224FF400712846FFF7BAFC07B030BD51
:101B00000010024030380240000402400000024051
:101B10000901020002D4294881547047284B02F081
:101B20000F021A4402F8041C7047264B19684FF63E
:101B3000FF020002114000F4E0600843224908431C
:101B40001860704738B51F4B1C68C4F30223C3F1FB
:101B50000704052C28BF04241D1D072D34BF0023B6
:101B6000DB1E012505FA04F4641E2140994005FAA4
:101B700003F35B1E1A401143BDE83440C8E701007F
:101B800007D4012200F01F01104B8A40400943F89E
:101B90002020704710B5401EB0F1807F01D3012096
:101BA00010BD0B4C60600F214FF0FF30FFF7B0FF0E
:101BB0000021A16007202060002010BD00E400E0AB
:101BC00018ED00E00CED00E00000FA0500E100E097
:101BD00010E000E010B586B000200090244C2548AD
:101BE000016841F002010160026802F00202009205
:101BF000002200990092036843F02003036001680B
:101C000001F020010091009900920221036843F045
:101C1000200303600122006800F02000009000987B
:101C200001910491029201A91348FFF743FB4FF47D
:101C3000805100F012F84FF4005100F00EF800222D
:101C40004FF480512046FFF713FC01224FF400515E
:101C50002046FFF70DFC06B010BD01910122029253
:101C6000022104910022059201A92046FFF722BB20
:101C70000014024030380240000402402DE9F84FC1
:101C800000F0C0FC00F0C0F84FF4FA6000F0D4FCA3
:101C900000F0E6FC00F046FE00F05FFE00F06DFE96
:101CA00000F0CEF900F000FA00F022FA00F070FA2D
:101CB00000F07BFA00F0D4FA00F012FF00F022FFEF
:101CC00000F032FF00F042FF00F061FF00F06EFF15
:101CD00000F0A5FAFEF7BEFEFEF708FF01F0C8F817
:101CE000FEF7CEFDDFF8F89200F089F84A460121B0
:101CF0000420FEF749FADFF8EC82DFF8ECB245F693
:101D0000F0204044002101604160816008F17804C6
:101D100008F5D26508F1F40642F2107A02E0308844
:101D200001284ED001F0A4F801F0B2F901F01CFA3C
:101D300001F064FB01F0CEFB01F0FCFC01F066FD5C
:101D400001F094FE01F0FEFE02F02CF802F096F88D
:101D500002F0C4F902F02EFAD8F840070128DED1CB
:101D60000021C8F84017642000F066FCE86EB788D0
:101D70000AFB00F13C2091FBF0F0C01B02F04AFB93
:101D80000022DFF86832FEF7F9FF02F055FB024649
:101D9000F280594692B200EE102AF8EE400A00EEA8
:101DA000107ADFF84C02B0EE002AF1EE041AB0EE21
:101DB000001AB8EE400AFEF7A1FC00F020F801205E
:101DC00030800021286F2A68EB6E009031806868AF
:101DD00002EB00420120FEF78DFDE088A18801EBB7
:101DE000004100916089218901EB004360882188CE
:101DF00001EB004200210420FEF7E7FD92E74A468E
:101E000001210120FEF7C0B980B592B006A83021AB
:101E100002F030FB01A8142102F02CFB00200090FE
:101E20004FF48033DFF8CC01016841F0805101604C
:101E30000021006800F0805000900098DFF8B801A1
:101E40000091026842F4804202600122006800F4BE
:101E50008040009006A80099069202214FF480026B
:101E60000C910D920421A8220E910F9202210422BE
:101E700007931091119202F001FB08B100F0DEF817
:101E8000022102910F204FF4A051019000220491F1
:101E900005910392052101A802F088FC08B100F029
:101EA000CDF813B000BD0000012800D0704780B508
:101EB000112102F05BFDC00704D5DFF840110120BD
:101EC00002F086FD1121022002F050FD800704D5AA
:101ED000DFF82C11022002F07BFD1121032002F01B
:101EE00045FD400704D5DFF81C11032002F070FD0A
:101EF0001121042002F03AFD000706D5BDE8044098
:101F0000DFF80411042002F063BD01BD10B50068C4
:101F10003E4B3F49984201F5C1620AD11088FD2825
:101F200004DA0C780B18401C1C721080012239480E
:101F30004EE0394B98420CD15088FD2805DA4C7898
:101F40000B18401C83F8084150800122491C33487B
:101F50003EE0334B98420CD19088FD2805DA8C780E
:101F60000B18401C83F8084290800122891C1B48F2
:101F70002EE02C4B98420CD1D088FD2805DACC7885
:101F80000B18401C83F80843D0800122C91C264846
:101F90001EE0264B98420CD11089FD2805DA0C79F9
:101FA0000B18401C83F8084410810122091D2048A9
:101FB0000EE0204B98420FD15089FD2805DA4C796C
:101FC0000B18401C83F8084550810122491D1A480E
:101FD000BDE8104002F0B6BD10BD7047A87E0020DD
:101FE000801F010010000020845C002000002C40B5
:101FF0000C5B00204038024000700040E07200207E
:10200000E0730020E0740020E07500200010014023
:10201000DC630020207E002000440040647E00201D
:1020200000480040004C0040987D002000500040D7
:10203000DC7D002000140140EC7E002072B6FEE73B
:10204000D8B595B011A800F08BF80FF27C540AA80F
:1020500000F097F802A8202102F00CFADFF81C45E6
:10206000DFF81C052060A721616040F2E730002204
:10207000E0608021A26022616261A16100F0EDF860
:1020800008B1FFF7DBFF00F048F908B1FFF7D6FF12
:1020900000F052F808B1FFF7D1FF20210091002293
:1020A0000192694620460BE1D8B58DB000F057F893
:1020B0000FF21C5400F064F8DFF8C8444FF0804081
:1020C00000F051F808B1FFF7B9FF00F038F808B197
:1020D000FFF7B4FF00F030F808B1FFF7AFFF00F0F2
:1020E00097F808B1FFF7AAFF00F030F8042284E067
:1020F000D8B58DB000F033F80FF2DC4400F040F8B2
:10210000DFF88444DFF8840400F02DF808B1FFF70D
:1021100095FF00F014F808B1FFF790FF00F00CF8FD
:1021200008B1FFF78BFF00F073F808B1FFF786FFE7
:1021300000F00CF80C2260E02046FFF722BA4FF4C2
:102140008050099009A92046FFF7D5BA30210291A5
:102150000022022103920491069202A9704709A865
:10216000102102F087B92060532140F2E7300022AD
:10217000E0606160A2602261A2612046FFF7A6B91B
:1021800002A8D4E90067CDE900671C2102F072B90A
:10219000D8B58DB0FFF7E3FF0FF24444FFF7F0FF2F
:1021A000DFF8EC43DFF8EC030BE0D8B58DB0FFF7B8
:1021B000D6FF0FF23444FFF7E3FFDFF8DC43DFF82C
:1021C000DC03FFF7D0FF08B1FFF738FFFFF7B7FFD9
:1021D00008B1FFF733FFFFF7AFFF08B1FFF72EFF9E
:1021E00000F016F808B1FFF729FF30210291002214
:1021F000022104910392069202A92046FFF7F6F904
:1022000008B1FFF71BFF204600F01BF90EB0D0BD50
:102210000021009101912046694602F0DDBE1CB507
:102220000FF2CC30DFF87843D0E90023CDE900236A
:10223000532161600022DFF86C0320600121A2605D
:10224000E16000F009F808B1FFF7F8FEFFF7E0FFE2
:1022500008B1FFF7F3FE13BDA2612046FFF736B9C0
:10226000D8B595B011A8FFF77BFF0FF28C340AA800
:10227000FFF787FF02A8202102F0FCF8DFF82843CF
:10228000DFF828032060A72140F2E7300022E06059
:102290006160A26022616261FFF7DEFF08B1FFF7B3
:1022A000CDFE00F03AF808B1FFF7C8FEFFF744FF93
:1022B00008B1FFF7C3FE0021009101912046694655
:1022C00002F08AFE08B1FFF7B9FE02220C9230201C
:1022D00000210A900B910D9100220F910E92109205
:1022E0000AA92046FFF782F908B1FFF7A7FE0020F0
:1022F0004FF40051029003900490059006900791CE
:10230000099002A9204602F0ADFE08B1FFF796FE43
:10231000204600F096F816B0D0BD4FF480501190D2
:1023200011A92046FFF7E7B980B50168944AA04893
:10233000914210D100210091426842F001024260B6
:102340000022406800F00100009000981B20FFF779
:10235000F9FB1B2068E0B1F1804F0ED100F06DF861
:1023600042F0010200F065F800F0010000900098D2
:102370001C20FFF7E7FB1C2056E0844A91420ED157
:1023800000F05BF842F0020200F053F800F00200A7
:10239000009000981D20FFF7D5FB1D2044E07D4AEA
:1023A00091420ED100F049F842F0040200F041F8E9
:1023B00000F00400009000981E20FFF7C3FB1E20D1
:1023C00032E0764A91420ED100F037F842F008022E
:1023D00000F02FF800F00800009000983220FFF77E
:1023E000B1FB322020E06F4A91420AD100F025F87B
:1023F00042F020020260006800F020000090009887
:1024000001BD6A4A914213D100210091426842F015
:10241000020242600022406800F002000090009832
:102420002E20FFF78FFB2E20BDE80240FFF7A7BB51
:1024300001BD02600022006870470021009102681F
:10244000704710B586B004466846142102F012F8B1
:1024500023684B485749834211D10022059202223A
:10246000086840F010000860096801F0100105914B
:102470004FF400710598504800F079F86AE0B3F124
:10248000804F4E4A12D1002005900B6843F00103A3
:102490000B60086800F0010005900221059800918A
:1024A0000191104601210291039153E0374C4448B9
:1024B000A3420ED10022059202220B6843F00203D0
:1024C0000B6000F04DF801926946012202920392DE
:1024D00011E0304CA34211D10022059240220B683A
:1024E00043F002030B60022300F03AF8019301224B
:1024F000029203926946022204922DE02748834209
:1025000014D1002305930223086840F001000860FD
:10251000096801F0010105910121059800910193DD
:102520000021029103911046022113E01F488342CB
:1025300014D1002205920222086840F004000860CD
:10254000096801F004010591402105981D4800F03B
:102550000EF8032104916946FEF7ACFE06B010BDEB
:10256000096801F0020105910599009270470091F8
:10257000019201210291039170470000A07B00208D
:1025800000000140E87B0020307C00200004004077
:10259000787C002000080040C07C0020000C004037
:1025A000087D002000140040507D00200004014000
:1025B0004038024030380240001002400000024023
:1025C000000402400008024000000000000000007B
:1025D00000000000000000000000000000000000FB
:1025E00000000000000000000000000000000000EB
:1025F00000000000000000000000000000000000DB
:102600007047000080B50B48016841F4007101601B
:10261000026842F480620260016841F480710160E6
:102620000320FFF782FA002002F046FD02F064FD6D
:10263000002002BD003C024038B5044602F07AFD9D
:1026400014F1010F054602D004480178641802F025
:1026500071FD401BA042FAD331BD00BF0000002035
:102660002DE9F84F86B06846142101F003FF0024DD
:102670008F48904D904EDFF844B2DFF84482DFF887
:102680004492DFF844A205944FF21007016841F02C
:1026900010010160026802F0100205920122059902
:1026A0000594036843F004030360016801F004012A
:1026B00000F032F943F020030360016801F02001CB
:1026C00000F02AF943F080030360016801F0800103
:1026D00000F022F943F001030360016801F00101F9
:1026E00000F01AF943F002030360016801F00201EF
:1026F00000F012F943F040030360016801F040016B
:1027000005910599059439460368704C43F0080318
:102710000360006800F00800059005982046FEF769
:10272000A7FE012242F23F012846FEF7A1FE012248
:102730004CF23B113046FEF79BFE00224FF4E07155
:102740002846FEF795FE01224FF460715846FEF7C9
:102750008FFE01224FF419414046FEF789FE012207
:102760004FF460714846FEF783FE01220321504674
:10277000FEF77EFE4FF6DC5000F0BBF85046FEF749
:1027800099FD0F2000F0B5F82046FEF793FD009765
:1027900000F0A9F820466946FEF78CFD01204C495F
:1027A000009001910022029200F094F8302000F095
:1027B000A0F800F090F8012000F09BF84846FEF7E2
:1027C00079FD4FF4006000210090019101220292F6
:1027D00069462046FEF76EFD00F09AF83F21009111
:1027E0000022039200F090F800F092F84FF480710C
:1027F0000091022200F072F84FF4725000F079F864
:1028000000F06EF800F084F84CF23B0100910022D9
:1028100000F064F84FF4A0710091012200F070F80C
:1028200080210091112200F06BF8012101910291A9
:102830004FF4607400210391009400F04BF800F015
:1028400067F84FF41941009100220392694640460F
:10285000FEF730FD4FF41C40009000210191022250
:10286000029200F051F800F053F84FF4005100913B
:102870000322039200F048F800F035F8009469460E
:102880004846FEF717FD00F043F8032100910022AF
:10289000039269465046FEF70DFD002200210620F6
:1028A000FFF750F90620FFF76AF907B0BDE8F08F8F
:1028B0003038024000180240000C0240000802407C
:1028C00000000240000402400010024000140240D8
:1028D0000000111069465846FEF7ECBC03926946A9
:1028E0003046FEF7E7BC01200021019002900391E1
:1028F00070470021009001910222029269467047C0
:10290000002102910391019269462846FEF7D2BC4C
:10291000012201920292704705910599059403687E
:102920007047000080B56548654901604FF48272C8
:1029300018214260C16100234FF480220A21836084
:10294000C360036143618261036243628362C16267
:1029500002F0F6FB00B10CE001BD80B559485A49C0
:1029600000F017F84FF4802200F019F800B100E0F1
:1029700001BDBDE80140FFF761BB80B55348544934
:1029800000F007F84FF4007200F009F800B1F0E72A
:1029900001BD01604FF482724260002370470A213A
:1029A0008360C360036143618261C3610362436208
:1029B0008362C16202F0C4BB10B586B004466846AB
:1029C000142101F057FD22683D484249824220D13E
:1029D00000220592486940F480504861486900F43B
:1029E000805005900598059202220B6843F0010380
:1029F0000B60086800F001000590F021059836484A
:102A00000091019200210291032205210491039279
:102A10002EE02D4B31489A4213D1002205920B69CA
:102A200043F480430B6100230A6902F4804205925B
:102A3000059A05934FF4704200F01FF803930522A6
:102A400015E0234B9A4216D1002205920B6943F4FC
:102A500000430B6100230A6902F400420592059AC3
:102A60000593382200F009F8032303930622049209
:102A70006946FEF71FFC06B010BD0C6844F0020466
:102A80000C600223096801F002010591059900928A
:102A9000019300220292704701B582B000F007F85E
:102AA0000648FFE702F0AAFB9DF804000EBD4FF4B4
:102AB0007A700090012301AA02A97047487900208A
:102AC00000300140A079002000380040F879002053
:102AD000003C004030380240000002400004024048
:102AE00010B5DFF82C43DFF82C0300F041F808B1F3
:102AF000FFF7A4FA2046BDE810400122DFF81813C2
:102B000002F020B810B5DFF81443DFF8140300F02A
:102B10002FF808B1FFF792FA2046BDE810400122D5
:102B2000DFF8001302F00EB810B5DFF8FC42DFF852
:102B3000FC0200F01DF808B1FFF780FA2046BDE85E
:102B400010400122DFF8E81201F0FCBF10B5DFF8F9
:102B5000E442DFF8E40200F00BF808B1FFF76EFA88
:102B60002046BDE810400122DFF8D01201F0EABF94
:102B700020604FF461410C20002260616160A2601E
:102B8000E2602261A261E261204601F047BF10B518
:102B9000AB4CAC48FFF7ECFF08B1FFF74FFA20460B
:102BA000BDE810400122A84901F0CCBF10B5A74CE8
:102BB000A748FFF7DDFF08B1FFF740FA2046BDE860
:102BC00010400122A34901F0BDBF38B586B00446CC
:102BD0006846142101F04EFC23688E4C9E489F49A4
:102BE000A3424FF4406227D1002305930C6944F4BB
:102BF00000240C6100240B6903F400230593059B5A
:102C000005940D6845F004050D600B6803F004039E
:102C100005936946059B00920123029303930222C8
:102C2000082301920493FEF745FB00220021342083
:102C3000FEF788FF3420CDE0794CA3423ED100223C
:102C400005920B6943F480130B6100230A6902F4B7
:102C5000801200F0C3F80C6844F004040C600A68A9
:102C600002F0040200F0BAF84FF480520C6844F00D
:102C700008040C600223096801F008010591059918
:102C80000092019301220292039269460822049263
:102C9000FEF710FB01220292039204200221009011
:102CA00001910822049269466D48FEF703FB002259
:102CB00000213520FEF746FF35208BE05B4C69484C
:102CC000A34216D1002205924B6943F010034B61D9
:102CD00000234A6902F0100200F080F84FF4C0624D
:102CE00000F080F8002200212520FEF72BFF252090
:102CF00070E0514CA34215D1002205920B6943F4B8
:102D000000330B6100230A6902F4003200F066F818
:102D10000C2200F067F8002200212620FEF712FFA7
:102D2000262057E04748834227D1002305930869AE
:102D300040F480200861086900F48020059005981F
:102D4000494805930C6844F002040C60096801F0DE
:102D50000201059105990092072102220192049136
:102D60000122029303926946FEF7A4FA0022002191
:102D70002720FEF7E7FE27202CE0354883422BD1A1
:102D800000220592486940F020004861486900F03F
:102D9000200005900598059202220B6843F040033D
:102DA0000B60086800F0400005904FF484410598DE
:102DB0002E480091019200210291012208210491E4
:102DC00003926946FEF776FA002200214720FEF7BB
:102DD000B9FE4720FEF7D3FE07B030BD0592059A35
:102DE000059370470C6844F001040C6002230968E5
:102DF00001F00101059105990092019300220292D0
:102E000001230722039304926946FEF753BA000098
:102E1000987D0020004C0040DF630020DC7D002016
:102E200000500040E0630020207E002000100140A0
:102E3000DC630020647E002000440040DD6300204D
:102E4000A87E002000480040DE630020EC7E0020C9
:102E500000140140E16300200008024030380240C5
:102E6000000C024000000240000402400018024032
:102E700070B5854A02F1F8034FF46141188E0128BC
:102E80001EBF022801201886588CB0F5166F18BF97
:102E9000B0F5965F0BD0B0F5165F18BFB0F5964F42
:102EA00005D0B0F5164F1CBFB0F5614F5984988C12
:102EB000B0F5166F18BFB0F5965F0BD0B0F5165F82
:102EC00018BFB0F5964F05D0B0F5164F1CBFB0F542
:102ED000614F9984D88CB0F5166F18BFB0F5965F26
:102EE0000BD0B0F5165F18BFB0F5964F05D0B0F512
:102EF000164F1CBFB0F5614FD984188FB0F5166F0F
:102F000018BFB0F5965F0BD0B0F5165F18BFB0F5DF
:102F1000964F05D0B0F5164F1CBFB0F5614F19871D
:102F2000588FB0F5166F18BFB0F5965F0BD0B0F59F
:102F3000165F18BFB0F5964F05D0B0F5164F1CBF01
:102F4000B0F5614F5987514D05F501700168B1F534
:102F5000803FA4BF002404604168B1F5803FA4BF56
:102F6000002444608168B1F5803FA4BF00248460E0
:102F7000C168B1F5803FA4BF0024C4600169B1F508
:102F8000803FA4BF002404614169B1F5803FA4BF24
:102F900000244461108E062800DA08B9012010864A
:102FA00005F5617081680029D8BF012102DD0F2974
:102FB00001DD0F21816001680029D8BF012102DDF8
:102FC0001E2901DD1E210160D5F8740400284FF48C
:102FD000FA7403DC0120C5F8740404E0B0F5FA7F4C
:102FE000C8BFC5F8744402F59F71088808B9012666
:102FF0000E80488808B901264E80888808B90326C3
:103000008E80C88808B90426CE80088908B90526AC
:103010000E81488908B906264E8142F21076696809
:10302000002902BF286800282E60286F00B92E678B
:10303000E86E10B94FF47A71E966908900B996810B
:10304000188800B91E80588800B95E80783251888F
:10305000002902BF108800281680D088002801BFF0
:103060009088002840F6B83191805089002801BF2F
:103070001089002844F620611181908900B9968159
:10308000988800B99C8070BD10000020A006002028
:103090002DE9F041C14D28880024002862D0C049A4
:1030A000C04A097813888B425CD01180BE490A88D7
:1030B000521C0A8092B2062A54DBBC4ABC4E1080D5
:1030C0000746B7F5807F0C8035DABA4A3178B2F816
:1030D0003E31994230D1811EC9B2304600F046F9E6
:1030E000F119020A11F8023D9A4202BF4978C0B2B2
:1030F00088421ED17178B048032902D10121AF4A1C
:103100000EE0102902D10121AD4A09E0012903D1C5
:10311000AC49012008700FE0062908D10121AA4A14
:103120001170B378F17801EB0321018004E00124F0
:1031300002E0022400E00424A44FDFF8948201227C
:103140004146384601F0FEFC0020288054B114218D
:10315000304602F0EDF941463846BDE8F041012223
:1031600001F0F0BCBDE8F0812DE9FC4E9249994A8E
:103170000B88DFF83CC2914DDFF838929CF805E0EF
:103180009CF801702978DFF850A21E4602EB8604F5
:10319000019409EB46020020009241F2883B8F4CDB
:1031A000A9B39CF80000207067704FEA4E00A07031
:1031B000B6F5006FB9F8280110DA012812D1002005
:1031C000E31C704513DA009931F810100A0A03F86D
:1031D0001020221D02F81010401CF2E75E45C0F2DC
:1031E000A180012840F09E800020E61C704580F2FE
:1031F0009980019901EB800252F80A100B041B0E12
:1032000006F81030221D02F81010401CEEE76E493F
:103210006B4A0978127851EA02054CD041F2717577
:10322000AE4204DBB9F81250B5F5FA6F14D10120A3
:10323000A3F12D05072D04D2694D2D3B2B80694D3F
:103240002870002940D09CF80410B6F5006F0EEBF2
:10325000012232DA29F816200221217067709CF8C9
:103260000220A2709CF80310E1709CF804202271E7
:1032700084F805E010B9FF20207160710621204616
:1032800000F074F8584A010A108002B0A171E07190
:10329000082056494A4B088000224B494B481A7077
:1032A0000A702146524B1A804FF6FF73BDE8F04E6C
:1032B000082201F0EEBBBDE8F38E5E45CCDB45494C
:1032C000514441F82620C7E7002AC5D0BEF1640F5B
:1032D000C2DAB6F5006F10DA7145BDDA0CF10702FB
:1032E00012F811300CF1080212F81150009A05EB97
:1032F000032322F81130491CEEE75E45ACDB714533
:10330000AADA0CF1070212F811300CF1080212F8D7
:103310001150019A02EB810605EB032346F80A30AF
:10332000491CECE7A178C91CC9B2204600F01EF880
:103330002D490880E31CA178020A5A54221DA37863
:10334000D0540021A2782948521D028029704FF6DE
:10335000FF73274D1D48298092B2214601F099FB49
:10336000BDE8FC4E20212348FEF786B870B5024622
:10337000214CFF23FF2004F5807606E012F8015B64
:103380005D400346605D4340705D0D46691EEDB2D1
:10339000002DF3D140EA032070BD0000E469002055
:1033A000307F0020447F0020005B00203C7F002015
:1033B000E463002010000020427F0020837F002073
:1033C000847F0020857F0020867F0020207E0020D3
:1033D000DC630020A0060020E0B1FFFFE06C0020CD
:1033E000387F0020827F0020407F00203E7F002029
:1033F0003A7F0020000C0240B85A00082DE9F04145
:10340000B54D28880024002862D0B449B44A097810
:1034100013888B425CD01180B2490A88521C0A8002
:1034200092B2062A54DBB04FB04E3880B0F5807FA0
:103430000C8036DAAE493278B1F840319A4231D157
:10344000811EC9B23046FFF791FF3A883244911E7F
:10345000030A0F78BB4202BF4978C0B288421ED12E
:103460007178A448032902D10121A34A0EE0102952
:1034700002D10121A14A09E0012903D1A04901207B
:1034800008700FE0062908D101219E4A1170B37817
:10349000F17801EB0321018004E0012402E0022421
:1034A00000E00424984FDFF8648201224146384648
:1034B00001F048FB0020288054B11421304602F06E
:1034C00037F841463846BDE8F041012201F03ABBE9
:1034D000BDE8F0812DE9FC4E86498D4A0B88DFF866
:1034E0000CC2854DDFF808929CF805E09CF801704D
:1034F0002978DFF820A21E4602EB8604019409EB2E
:1035000046020020009241F2883B834CA9B39CF80C
:103510000000207067704FEA4E00A070B6F5006F93
:10352000B9F8280110DA012812D10020E31C7045F7
:1035300013DA009931F810100A0A03F81020221D3E
:1035400002F81010401CF2E75E45C0F2A18001288D
:1035500040F09E800020E61C704580F29980019921
:1035600001EB800252F80A100B041B0E06F8103013
:10357000221D02F81010401CEEE762495F4A0978EC
:10358000127851EA02054CD041F27175AE4204DB6B
:10359000B9F81250B5F5FA6F14D10120A3F12D0539
:1035A000072D04D25D4D2D3B2B805D4D28700029E9
:1035B00040D09CF80410B6F5006F0EEB012232DA11
:1035C00029F816200221217067709CF80220A27051
:1035D0009CF80310E1709CF80420227184F805E047
:1035E00010B9FF202071607106212046FFF7BEFE52
:1035F0004C4A010A108002B0A171E07108204A49CA
:103600003E4B088000223F493F481A700A7021460D
:10361000464B1A804FF6FF73BDE8F04E082201F0CA
:1036200038BABDE8F38E5E45CCDB3949514441F8E8
:103630002620C7E7002AC5D0BEF1640FC2DAB6F56E
:10364000006F10DA7145BDDA0CF1070212F8113083
:103650000CF1080212F81150009A05EB032322F82E
:103660001130491CEEE75E45ACDB7145AADA0CF17E
:10367000070212F811300CF1080212F81150019AE9
:1036800002EB810605EB032346F80A30491CECE700
:10369000A178C91CC9B22046FFF768FE21490880FD
:1036A000E31CA178020A5A54221DA378D0540021A9
:1036B000A2781D48521D028029704FF6FF731B4DE2
:1036C0001148298092B2214601F0E3F9BDE8FC4E91
:1036D00010211748FDF7D0BEE6690020307F00209A
:1036E000507F0020025B0020487F0020E46400201F
:1036F000100000204E7F0020877F0020887F002060
:10370000897F00208A7F0020647E0020DD63002006
:10371000A0060020E0B1FFFFE06D0020387F002010
:10372000827F00204C7F00204A7F0020467F0020BF
:10373000000C02402DE9F041B54D288800240028F6
:1037400062D0B449B44A097813888B425CD01180A6
:10375000B2490A88521C0A8092B2062A54DBB04F42
:10376000B04E3880B0F5807F0C8036DAAE493278C2
:10377000B1F842319A4231D1811EC9B23046FFF7C9
:10378000F5FD3A883244911E030A0F78BB4202BF0E
:103790004978C0B288421ED17178A448032902D169
:1037A0000121A34A0EE0102902D10121A14A09E01A
:1037B000012903D1A049012008700FE0062908D192
:1037C00001219E4A1170B378F17801EB0321018049
:1037D00004E0012402E0022400E00424984FDFF812
:1037E000648201224146384601F0ACF9002028806D
:1037F00054B11421304601F09BFE41463846BDE8E5
:10380000F041012201F09EB9BDE8F0812DE9FC4EA6
:1038100086498D4A0B88DFF80CC2854DDFF8089287
:103820009CF805E09CF801702978DFF820A21E467C
:1038300002EB8604019409EB46020020009241F25B
:10384000883B834CA9B39CF80000207067704FEA56
:103850004E00A070B6F5006FB9F8280110DA012803
:1038600012D10020E31C704513DA009931F81010D2
:103870000A0A03F81020221D02F81010401CF2E77B
:103880005E45C0F2A180012840F09E800020E61C29
:10389000704580F29980019901EB800252F80A107C
:1038A0000B041B0E06F81030221D02F81010401CED
:1038B000EEE762495F4A0978127851EA02054CD076
:1038C00041F27175AE4204DBB9F81250B5F5FA6FEA
:1038D00014D10120A3F12D05072D04D25D4D2D3B00
:1038E0002B805D4D2870002940D09CF80410B6F55F
:1038F000006F0EEB012232DA29F816200221217026
:1039000067709CF80220A2709CF80310E1709CF88C
:103910000420227184F805E010B9FF202071607145
:1039200006212046FFF722FD4C4A010A108002B012
:10393000A171E07108204A493E4B088000223F49AE
:103940003F481A700A702146464B1A804FF6FF73A3
:10395000BDE8F04E082201F09CB8BDE8F38E5E454C
:10396000CCDB3949514441F82620C7E7002AC5D0AD
:10397000BEF1640FC2DAB6F5006F10DA7145BDDA38
:103980000CF1070212F811300CF1080212F8115074
:10399000009A05EB032322F81130491CEEE75E453F
:1039A000ACDB7145AADA0CF1070212F811300CF108
:1039B000080212F81150019A02EB810605EB03236D
:1039C00046F80A30491CECE7A178C91CC9B2204668
:1039D000FFF7CCFC21490880E31CA178020A5A5465
:1039E000221DA378D0540021A2781D48521D0280C8
:1039F00029704FF6FF731B4D1148298092B2214662
:103A000001F047F8BDE8FC4E08211748FDF734BD2A
:103A1000E8690020307F00205C7F0020045B0020EC
:103A2000547F0020E4650020100000205A7F002011
:103A30008B7F00208C7F00208D7F00208E7F0020D8
:103A4000A87E0020DE630020A0060020E0B1FFFF7A
:103A5000E06E0020387F0020827F0020587F002009
:103A6000567F0020527F0020000C02402DE9F041DB
:103A7000B54D28880024002862D0B449B44A09789A
:103A800013888B425CD01180B2490A88521C0A808C
:103A900092B2062A54DBB04FB04E3880B0F5807F2A
:103AA0000C8036DAAE493278B1F844319A4231D1DD
:103AB000811EC9B23046FFF759FC3A883244911E44
:103AC000030A0F78BB4202BF4978C0B288421ED1B8
:103AD0007178A448032902D10121A34A0EE01029DC
:103AE00002D10121A14A09E0012903D1A049012005
:103AF00008700FE0062908D101219E4A1170B378A1
:103B0000F17801EB0321018004E0012402E00224AA
:103B100000E00424984FDFF86482012241463846D1
:103B200001F010F80020288054B11421304601F033
:103B3000FFFC41463846BDE8F041012201F002B8E1
:103B4000BDE8F0812DE9FC4E86498D4A0B88DFF8EF
:103B50000CC2854DDFF808929CF805E09CF80170D6
:103B60002978DFF820A21E4602EB8604019409EBB7
:103B700046020020009241F2883B834CA9B39CF896
:103B80000000207067704FEA4E00A070B6F5006F1D
:103B9000B9F8280110DA012812D10020E31C704581
:103BA00013DA009931F810100A0A03F81020221DC8
:103BB00002F81010401CF2E75E45C0F2A180012817
:103BC00040F09E800020E61C704580F299800199AB
:103BD00001EB800252F80A100B041B0E06F810309D
:103BE000221D02F81010401CEEE762495F4A097876
:103BF000127851EA02054CD041F27175AE4204DBF5
:103C0000B9F81250B5F5FA6F14D10120A3F12D05C2
:103C1000072D04D25D4D2D3B2B805D4D2870002972
:103C200040D09CF80410B6F5006F0EEB012232DA9A
:103C300029F816200221217067709CF80220A270DA
:103C40009CF80310E1709CF80420227184F805E0D0
:103C500010B9FF202071607106212046FFF786FB16
:103C60004C4A010A108002B0A171E07108204A4953
:103C70003E4B088000223F493F481A700A70214697
:103C8000464B1A804FF6FF73BDE8F04E082200F055
:103C900000BFBDE8F38E5E45CCDB3949514441F8A5
:103CA0002620C7E7002AC5D0BEF1640FC2DAB6F5F8
:103CB000006F10DA7145BDDA0CF1070212F811300D
:103CC0000CF1080212F81150009A05EB032322F8B8
:103CD0001130491CEEE75E45ACDB7145AADA0CF108
:103CE000070212F811300CF1080212F81150019A73
:103CF00002EB810605EB032346F80A30491CECE78A
:103D0000A178C91CC9B22046FFF730FB21490880C1
:103D1000E31CA178020A5A54221DA378D054002132
:103D2000A2781D48521D028029704FF6FF731B4D6B
:103D30001148298092B2214600F0ABFEBDE8FC4E4E
:103D400008211748FDF798BBEA690020307F002062
:103D5000687F0020065B0020607F0020E466002072
:103D600010000020667F00208F7F0020907F0020C1
:103D7000917F0020927F0020987D0020DF6300204B
:103D8000A0060020E0B1FFFFE06F0020387F002098
:103D9000827F0020647F0020627F00205E7F002001
:103DA000000C02402DE9F041B54D28880024002880
:103DB00062D0B449B44A097813888B425CD0118030
:103DC000B2490A88521C0A8092B2062A54DBB04FCC
:103DD000B04E3880B0F5807F0C8036DAAE4932784C
:103DE000B1F846319A4231D1811EC9B23046FFF74F
:103DF000BDFA3A883244911E030A0F78BB4202BFD3
:103E00004978C0B288421ED17178A448032902D1F2
:103E10000121A34A0EE0102902D10121A14A09E0A3
:103E2000012903D1A049012008700FE0062908D11B
:103E300001219E4A1170B378F17801EB03210180D2
:103E400004E0012402E0022400E00424984FDFF89B
:103E5000648201224146384600F074FE002028802A
:103E600054B11421304601F063FB41463846BDE8A9
:103E7000F041012200F066BEBDE8F0812DE9FC4E64
:103E800086498D4A0B88DFF80CC2854DDFF8089211
:103E90009CF805E09CF801702978DFF820A21E4606
:103EA00002EB8604019409EB46020020009241F2E5
:103EB000883B834CA9B39CF80000207067704FEAE0
:103EC0004E00A070B6F5006FB9F8280110DA01288D
:103ED00012D10020E31C704513DA009931F810105C
:103EE0000A0A03F81020221D02F81010401CF2E705
:103EF0005E45C0F2A180012840F09E800020E61CB3
:103F0000704580F29980019901EB800252F80A1005
:103F10000B041B0E06F81030221D02F81010401C76
:103F2000EEE762495F4A0978127851EA02054CD0FF
:103F300041F27175AE4204DBB9F81250B5F5FA6F73
:103F400014D10120A3F12D05072D04D25D4D2D3B89
:103F50002B805D4D2870002940D09CF80410B6F5E8
:103F6000006F0EEB012232DA29F8162002212170AF
:103F700067709CF80220A2709CF80310E1709CF816
:103F80000420227184F805E010B9FF2020716071CF
:103F900006212046FFF7EAF94C4A010A108002B0D8
:103FA000A171E07108204A493E4B088000223F4938
:103FB0003F481A700A702146464B1A804FF6FF732D
:103FC000BDE8F04E082200F064BDBDE8F38E5E450A
:103FD000CCDB3949514441F82620C7E7002AC5D037
:103FE000BEF1640FC2DAB6F5006F10DA7145BDDAC2
:103FF0000CF1070212F811300CF1080212F81150FE
:10400000009A05EB032322F81130491CEEE75E45C8
:10401000ACDB7145AADA0CF1070212F811300CF191
:10402000080212F81150019A02EB810605EB0323F6
:1040300046F80A30491CECE7A178C91CC9B22046F1
:10404000FFF794F921490880E31CA178020A5A5429
:10405000221DA378D0540021A2781D48521D028051
:1040600029704FF6FF731B4D1148298092B22146EB
:1040700000F00FFDBDE8FC4E02211748FDF7FCB92A
:10408000EC690020307F0020747F0020085B002056
:104090006C7F0020E467002010000020727F002069
:1040A000937F0020947F0020957F0020967F002042
:1040B000DC7D0020E0630020A0060020E0B1FFFFCF
:1040C000E0700020387F0020827F0020707F002079
:1040D0006E7F00206A7F0020000C02402DE9F04135
:1040E000B54D28880024002862D0B449B44A097824
:1040F00013888B425CD01180B2490A88521C0A8016
:1041000092B2062A54DBB04FB04E3880B0F5807FB3
:104110000C8036DAAE493278B1F848319A4231D162
:10412000811EC9B23046FFF721F93A883244911E08
:10413000030A0F78BB4202BF4978C0B288421ED141
:104140007178A448032902D10121A34A0EE0102965
:1041500002D10121A14A09E0012903D1A04901208E
:1041600008700FE0062908D101219E4A1170B3782A
:10417000F17801EB0321018004E0012402E0022434
:1041800000E00424984FDFF864820122414638465B
:1041900000F0D8FC0020288054B11421304601F0F2
:1041A000C7F941463846BDE8F041012200F0CABCDB
:1041B000BDE8F0812DE9FC4E86498D4A0B88DFF879
:1041C0000CC2854DDFF808929CF805E09CF8017060
:1041D0002978DFF820A21E4602EB8604019409EB41
:1041E00046020020009241F2883B834CA9B39CF820
:1041F0000000207067704FEA4E00A070B6F5006FA7
:10420000B9F8280110DA012812D10020E31C70450A
:1042100013DA009931F810100A0A03F81020221D51
:1042200002F81010401CF2E75E45C0F2A1800128A0
:1042300040F09E800020E61C704580F29980019934
:1042400001EB800252F80A100B041B0E06F8103026
:10425000221D02F81010401CEEE762495F4A0978FF
:10426000127851EA02054CD041F27175AE4204DB7E
:10427000B9F81250B5F5FA6F14D10120A3F12D054C
:10428000072D04D25D4D2D3B2B805D4D28700029FC
:1042900040D09CF80410B6F5006F0EEB012232DA24
:1042A00029F816200221217067709CF80220A27064
:1042B0009CF80310E1709CF80420227184F805E05A
:1042C00010B9FF202071607106212046FFF74EF8DB
:1042D0004C4A010A108002B0A171E07108204A49DD
:1042E0003E4B088000223F493F481A700A70214621
:1042F000464B1A804FF6FF73BDE8F04E082200F0DF
:10430000C8BBBDE8F38E5E45CCDB3949514441F86A
:104310002620C7E7002AC5D0BEF1640FC2DAB6F581
:10432000006F10DA7145BDDA0CF1070212F8113096
:104330000CF1080212F81150009A05EB032322F841
:104340001130491CEEE75E45ACDB7145AADA0CF191
:10435000070212F811300CF1080212F81150019AFC
:1043600002EB810605EB032346F80A30491CECE713
:10437000A178C91CC9B22046FEF7F8FF2149088080
:10438000E31CA178020A5A54221DA378D0540021BC
:10439000A2781D48521D028029704FF6FF731B4DF5
:1043A0001148298092B2214600F073FBBDE8FC4E13
:1043B00001211748FDF760B8EE690020307F00202A
:1043C000807F00200A5B0020787F0020E4680020C6
:1043D000100000207E7F0020977F0020987F002023
:1043E000997F00209A7F0020EC7E0020E16300206E
:1043F000A0060020E0B1FFFFE0710020387F002020
:10440000827F00207C7F00207A7F0020767F002042
:10441000000C0240C11768B14840401AB0FA80F25F
:104420009040D21CC907C2F5846241EA025202EBF5
:10443000D021400570470000C1F30A5340F2FE321C
:104440009B1A14DDD3F120034FEAE17208DDC902A3
:1044500041EA505141F00040D84080185040704728
:1044600003F2E13010B1D24382F0004070470020E7
:1044700070470000002201F05FB800002DE9F8430A
:10448000040016D02078DFF81463C10713D5B06894
:1044900000F00C00042807D0B06800F00C000828D9
:1044A0003ED1706841023BD53068810303D5606816
:1044B000002800F005812078B94F810719D5B06830
:1044C00010F00C0F07D0B06800F00C0008285CD189
:1044D0007068410259D43068810703D5E06801282B
:1044E00040F0EE803168206921F0F80141EAC00116
:1044F0003160217808076CD56069AA49002862D02C
:1045000001220A6000F016FE0546706F810700F177
:10451000D98000F00FFE401B0228F6D903203AE1B3
:104520006068B0F5803F04D1306840F4803030607E
:1045300011E0B0F5A02F306806D140F48020306043
:10454000316841F4803105E020F48030306031681A
:1045500021F480213160606858B100F0EBFD054620
:1045600030688103A7D400F0E5FD401B6528F7D330
:10457000D4E700F0DFFD0546306881039BD500F0ED
:10458000D9FD401B6528F7D3C8E7E06870B1012169
:10459000396000F0CFFD05463068810700F1BE802C
:1045A00000F0C8FD401B0228F6D9B7E7386000F0DC
:1045B000C1FD0546316888079BD500F0BBFD401B57
:1045C0000228F7D9AAE7086000F0B4FD0546706F2D
:1045D000810777D500F0AEFD401B0228F7D99DE793
:1045E0000528306F06D140F004003067306F40F08E
:1045F000010005E0400840003067306F20F0040003
:10460000306741F28938A06868B100F093FD8146B7
:10461000306F810700F18F8000F08CFDA0EB090066
:104620004045F5D37AE700F085FD8146306F81077C
:1046300040F1818000F07EFDA0EB09004045F5D3FC
:104640006CE700F077FD401B022840F2878065E7A9
:1046500000F070FD001B022840F298805EE7002009
:10466000386600F067FD04463068810140F19280B1
:1046700000F060FD001B0228F6D94FE701281FD08B
:104680007068E26900F48001914202BF00F03F01CE
:10469000226A914201BF47F6C0710140626AB1EBE4
:1046A000821F0DD1A26A520800F44031521EB1EBB4
:1046B000024F02BF00F07060E16AB0EB016F69D099
:1046C000012068E0207841073AD5306C0025C10010
:1046D0000AD400950125316C41F080513164306C71
:1046E00000F0805000900098DFF8BC80D8F80000FF
:1046F000C1051BD4D8F8000040F48070C8F8000051
:1047000000F018FD8146D8F80000C1050ED400F075
:1047100011FDA0EB09000228F5D9FFE630682169F8
:1047200020F0F80040EAC1003060E2E6A06801280D
:104730007FF456AF5AE71DB1306C20F080503064E2
:10474000A06938B3B16801F00C01082996D002289D
:1047500085D10020386600F0EDFC05463068810107
:104760003FF56FAFE269206A616A0243A06A4008C0
:1047700042EA8112401E42EA0042E06A42EA0062D6
:1047800072600121396600F0D5FC04463068810171
:104790007FF55EAF0020BDE8F28300BF0038024025
:1047A00000004742800E4742007000402DE9F04172
:1047B00004000F4678D0494E306800F00700B84238
:1047C00002D200F073F86FD12068454D810712D5F1
:1047D000400703D5A96841F4E051A960207801079A
:1047E00003D5A86840F46040A860A968A06821F0DB
:1047F000F0010143A9602178C8074DD56068012800
:1048000002D129688A0305E0022818BF032803D1D2
:1048100029688A0103D447E029688A0744D5A96832
:10482000890840EA8100A86000F084FC8046A868FE
:10483000616800F00C00B0EB810F2DD000F07AFC25
:10484000A0EB080041F289318842F0D3032021E037
:104850002078410705D5AA68E06822F4E0520243B7
:10486000AA602178080706D5A968206921F460416B
:1048700041EAC001A96000F03FF8AA6819491A4B43
:10488000C2F30312895CC84018601848006800F041
:1048900013FC0020BDE8F081306800F0070087427B
:1048A000D6D200F003F8D3D00120F3E73770316897
:1048B00001F00701B94270470B480D4A00681368C0
:1048C0000C49C3F3822206E00748094A00681368CE
:1048D0000849C3F34232895CC8407047003C02403B
:1048E00000380240945D00080C0000200800002001
:1048F00008380240545F000830B5144C606800F07E
:104900000C00042802D0082802D01DE0104830BD59
:10491000226820680023410202F03F0204D5256886
:104920000B49C5F3881003E020680A49C0F38810DA
:10493000A1FB000100F01AFE2168C1F30141491CEE
:104940004900B0FBF1F030BD024830BD04380240F0
:1049500000127A000024F400012200E0002210215D
:104960000148FCF785BD00000000024038B5044650
:104970000D46FFF7F3FF05EB04153035E8B2FEF7FF
:104980008BF80020FEF788F80446FFF7E5FF204685
:1049900032BDBDE87040DFE704460D461646DDE750
:1049A00070B5FFF7F9FF2401B034E0B2FEF774F8F8
:1049B000002405E00020FEF76FF8E1B2641C6854A3
:1049C000E0B2B042F6D3E4E700000A212846CDE782
:1049D0002DE9F041884605460821FFF7C7FF00276B
:1049E00010F0030F17D00B21FFF7F0FF0646FFF77B
:1049F000ECFF0446FFF7E9FF310707D5A042B8BF37
:104A00000446002C0CBF4FF4807727463A464146B7
:104A10002846FFF7C5FF3846BDE8F08138B50400E9
:104A200001D1012032BD00F026F808B900F014F8D9
:104A300000F017F800F023F8FFE7416100F001F8FB
:104A400032BD2068C16841F40051C1600020686037
:104A500020216970A9707047002129702046FEF757
:104A6000B4B8242068702068C16821F40051C16086
:104A7000204600F04DBA04F13C0568787047206884
:104A8000016921F4904101612068416921F02A0106
:104A900070472DE9F843054605F13C060C46707851
:104AA00020281746994642D10CB1380001D1012087
:104AB0003EE0307801283AD001213170002070604A
:104AC0002122727000F036FBAF848046EF84A86824
:104AD000B0F5805F04BF286900280EBF2746204636
:104AE00000270021317004460EE014F8012B4260CB
:104AF00007E02868002CF8D137F8021BC1F3080141
:104B00004160E88C411EE9844346E88CCDF8009072
:104B100000280FD000228021284600F042F900280A
:104B2000E7D0032004E020207070002000E0022085
:104B3000BDE8F28300224021284600F032F9002827
:104B4000F1D0EEE738B500F130039C7B202C0FD17B
:104B500009B1140001D1012032BD1C7B012C07D00A
:104B600001241C7300251D60BDE8384000F04BB9DE
:104B7000022032BD0020206310BDC1602068416961
:104B80004908490041617047416921F04001416194
:104B9000A06B70477CB5044622681168D5685369DC
:104BA00011F00F0007D188065FD5AB065DD5204612
:104BB000BDE8764060E1D80702D415F4907F54D068
:104BC000C80705D5EA0503D5206C40F00100206434
:104BD000480705D5DA0703D5206C40F002002064B1
:104BE000880705D5DA0703D5206C40F0040020645F
:104BF000080707D5AA0601D4D80703D5226C42F0CE
:104C000008022264206C00282ED0880604D5A9064C
:104C100044BF204600F030F920684069216C0A0743
:104C200001D440061BD5204600F008F920684169F0
:104C30004A060FD5FFF7A8FF60B10FF231210165D9
:104C4000A06B00F05BFD00280ED0A06B016DBDE8ED
:104C50007C4008472046BDE8764000F066BD20460F
:104C600000F063FD0020206473BD206B012804F177
:104C70003D0354D1C80652D5EE0650D5002100910F
:104C8000156800955168009100985169480625D52E
:104C9000A16B0868406880B200287BD0A58DA8422F
:104CA00078DAE085C869B0F5807F13D0D06820F449
:104CB0008070D060FFF762FF2068416921F04001F9
:104CC0004161202058700021216300F064F8A06B3E
:104CD00000F0D0FCA18DE08D091A1AE0A08DE18DC5
:104CE000411AE08D00281CBF88B2002852D0D0683D
:104CF00020F49070D06020684269520852004261EE
:104D000020205870002222632068C26822F010021E
:104D1000C2602046BDE87C4089B200F007BD0806AD
:104D200029D52E0627D51878212833D1A068B0F5CB
:104D3000805F04BF2069002808D1206A0188C1F380
:104D400008015160206A811C216204E0206A411C34
:104D5000216200785060E08C401EE08480B2C8B9C7
:104D60002068C16821F08001C1602068C16841F0FD
:104D70004001C16073BD48060CD569060AD5D068EC
:104D800020F04000D060202119702046BDE8764018
:104D9000FDF723B973BD2068C16821F01001C1601F
:104DA00070472DE9F041069C05460E4690461F4689
:104DB000286801683140B1420CBF01200020404505
:104DC00017D114F1010FF3D024B100F0B3F9C01BD7
:104DD0008442EDD22868C16821F4D07100F00CF84B
:104DE00005F13C00202141708170002101700320F9
:104DF00000E00020BDE8F081C160286841694908F1
:104E000049004161704781628285C28500F13C01A1
:104E100000224A6022238B700A700168CB6843F439
:104E20008073CB6001684A6942F001024A61006800
:104E3000C16841F02001C160002070470168CA6864
:104E400022F49072CA6001684A69520852004A61AD
:104E5000016B012904D10168CA6822F01002CA60FE
:104E6000202180F83E10002202637047806B0021F1
:104E7000C185C18400F059BC10B5044694F83E00C9
:104E8000222843D1A068A16AB0F5805F0AD12069C9
:104E900068B922685068C0F308000880A16A881CBD
:104EA000A0620FE0002804BF2069002802D1226818
:104EB000506803E02068406800F07F000870A06A36
:104EC000411CA162E08D401EE08580B2E0B92068FF
:104ED000C16821F02001C1602068C16821F480719F
:104EE000FFF74BFE202084F83E00216B012906D1FC
:104EF000FFF751FF2046A18D00F018FC02E020468C
:104F0000FDF704F8FFF736BE002010BD022010BDEB
:104F100070B5044622681169E06821F440510143EC
:104F20001161D3682648A168034020690B43616979
:104F30000343E0690B430343D3605169A06921F443
:104F40004071014351611F498A421CBF1E48824281
:104F500002D1FFF7B9FC01E0FFF7AEFC62682568FB
:104F6000E46964261921B4F5004FA1FB000112D1B8
:104F7000D30F520000F0FAFA00F028F8F6003236AB
:104F80006420B6FBF0F0420002F4F87202EB01126A
:104F900000F0070010E0930F920000F0E7FA00F035
:104FA00015F8360132366420B6FBF0F000F0F0025E
:104FB00002EB011200F00F008018A86070BD000025
:104FC000F369FFFF00100140001401406421B0FBB1
:104FD000F1F106FB1106704770B500F13C031A7839
:104FE000012A01D1022070BD01221A7002245C70D6
:104FF00005686E68AC680A6826F0700616436E6035
:1050000002681148824218BFB2F1804F11D0114896
:1050100082421CBF104DAA420BD00D4882421CBFD9
:105020000E4DAA4205D0094882421CBF0C4DAA422F
:1050300004D1486824F0800404439460012159702D
:105040000020187070BD00000000014000400140C9
:10505000000C004000040040000800400004014033
:105060000018004010B590F83C20012A01D1022020
:1050700010BD012280F83C20CC688A684B6824F47B
:105080004074144324F480641C430A680B6924F4BC
:105090000064144324F480541C434A69C96924F40D
:1050A00000541443026824F480440C4354640023E5
:1050B00080F83C30002010BD38B50D4D0D4B2A78DE
:1050C00004464FF47A711868B1FBF2F2B0FBF2F0CB
:1050D000FCF760FD50B9102C08D2002221464FF099
:1050E000FF30FCF72FFDAC60002032BD012032BD47
:1050F000000000200C00002082B000200090002260
:105100000B48416841F480414160416801F48041AD
:10511000009100990092036843F080530360006897
:1051200000F0805000900098052002B0FCF7FDBC14
:105130004038024001484068704700BF000000202E
:1051400038B5040001D1012032BD606A28B900F0F1
:1051500051F805D00021E16102E00020206160618A
:105160000020A06204F15005687820B90021297060
:105170002046FDF721FC0220687000F041F96068CC
:10518000A168E26800F4827001F404410843217CC4
:1051900002F400621043227D01F002010843A1697C
:1051A00002F001021043227F01F40071084394F8D9
:1051B000201002F038021043A26A01F08001084377
:1051C000216802F4005210430860A06994F824108A
:1051D0002268000C00F0040001F010010843506048
:1051E0002068C16921F40061C1610020686001216B
:1051F000697032BD6068B0F5827F70472DE9FC4769
:1052000000F0DDF84FF0010808BF022000F0BC807C
:105210009A4687F80080FFF78DFF7B78012B09D035
:105220006968B1F5827F02BFA9680029042B01D00B
:105230000226A4E0002C1CBFB9F1000FBAF1000F48
:1052400001D101269BE07B78042B1CBF05217970DE
:105250007E60C5F83890A5F83EA0A5F83CA02C6368
:10526000A5F836A0A5F834A02E646E6429680C68F1
:10527000630603D40C6844F040040C60E9680A9C9F
:10528000B1F5006F696838D1002918BFBAF1010F74
:1052900000F0AAF88146E88E002804BFE88F0028B5
:1052A00074D02968886882070BD5E88E002818BF5B
:1052B000B8F1000F05D0286B0288CA60B04600F034
:1052C00070F829688868C2070CD5E88F50B1C868A3
:1052D000A96B08804FF00108A86B821CAA63E88FB5
:1052E000411EE987FFF726FFA0EB0900A042D2D3B9
:1052F00014F1010FCFD0032641E0002918BFBAF105
:10530000010F00F065F88146E88E002804BFE88FA1
:1053100000283BD02968886882070DD5E88E0028D0
:1053200018BFB8F1000F07D0286B02780A73B04697
:10533000286B411C00F037F829688868C2070CD533
:10534000E88F50B1C868A96B08704FF00108A86BCE
:10535000421CAA63E88F411EE987FFF7EBFEA0EB32
:105360000900A04203D314F1010FCDD0C3E7002CF4
:10537000CAD1C0E7A86810B900F01AF80098012156
:105380007970002038703046BDE8F68721464A46DD
:10539000284600F09BF80028ECD0202101267960F7
:1053A000EDE7286B811C2963E88E411EE986704772
:1053B00000962968CA68009289680091704705467E
:1053C00005F150070026387801280C4691467047B1
:1053D00009D1296B2B680A781A73296B4A1C2A6336
:1053E000E98E4A1EEA86704709D1296B2B680A8824
:1053F000DA60296B8A1C2A63E98E4A1EEA867047A6
:105400002068016821F04001016070472DE9F843F0
:10541000089C05460E4690461F46FFF78BFE381A3D
:105420002418FFF787FE81463F4801684901090DAE
:105430006143009105E0009800B900240098401EE7
:105440000090286881683140B1420CBF01200020E3
:10545000404532D017F1010FF3D0FFF76BFEA0EB00
:105460000900A04201D2002CE5D12868416821F052
:10547000E00141606868B0F5827F08D1A868B0F5A6
:10548000004F18BFB0F5806F01D100F019F8A86A7D
:10549000B0F5005F09D12868016821F4005101606E
:1054A0002868026842F40052026005F150000121B0
:1054B000417000220270032000E00020BDE8F2836A
:1054C0002868016821F04001016070477CB50446FE
:1054D0001548164E0B4601681825B1FBF5F5B5FBCE
:1054E000F6F64FF47A70464300966168B1F5827F14
:1054F00009D10092802100222046FFF787FF58B192
:1055000000F00CF876BD009830B10098401E009075
:10551000216888680106F6D4002076BD606D40F0F1
:1055200020006065032070470C00002040420F00FF
:10553000002200F0FDB8000000B500BF1300964641
:105540009446103928BFA0E80C50FAD85FEA417C95
:1055500028BF0CC048BF40F8042BC90728BF20F85B
:10556000022B48BF00F8012B00BD0000D3BBD9B10E
:10557000B2F5803F5BD2022A1ED98C46B1FBF2F114
:1055800002FB11C31B0443EA1043B3FBF2FC02FB12
:105590001C3380B240EA0343B3FBF2F002FB10324B
:1055A00040EA0C4000237047022A05D98446B0FB2C
:1055B000F2F002FB10C270474AB105D100F00102BF
:1055C00049085FEA3000704700220023704700F06E
:1055D000DFB80B000200002100207047F7D3002243
:1055E00000237047904271EB030CF2D370B5B1FA0F
:1055F00081F4B3FA83F52C1BA340C4F1200532FAE1
:1056000005F63343A2405FF00046E64002E05B0847
:105610005FEA3202841A71EB030524BF2046294653
:105620007641F4D302000B003000002170BD70B54C
:10563000B1FA81F4B2FA82F5C4F120046419B4F12C
:105640002006DAD3B2405FF00044F440002502E0C7
:1056500052085FEA3303C61A71EB020E24BF3046CC
:10566000714664416D41F3D302000B002000290014
:1056700070BD0000F8B5064606F13404656AFFF710
:1056800059FD07466078022805D08021216200205C
:1056900020700120F2BD3068016821F01601016020
:1056A0003068416921F080014161E068002804BF51
:1056B0006069002802D0306800F032F83068016874
:1056C00049084900016030680168CA070CD5FFF736
:1056D00031FDC01B0628F6D3202020620021217056
:1056E000032262700320F2BDA06A3F218140A960BD
:1056F00001220021217062700020F2BD90F8351067
:10570000022903D08022426501207047052180F8DC
:10571000351000680268520852000260002070478D
:10572000016821F008010160704770477047000070
:10573000401810F0030308D0C91A1FD3DB0748BF75
:1057400000F8012D28BF20F8022D130030B41446B4
:105750001546103928BF20E93C00FAD8490728BF70
:1057600020E90C0048BF40F8042D890028BF20F82C
:10577000022D48BF00F8012D30BC7047C91818BF72
:1057800000F8012DCB0728BF00F8012D704700005D
:105790007047000010B501460023D1F84A00D1F847
:1057A0004E208261886ACA6A10188862000C8A6A70
:1057B000A2EB00428A6250B34A6AD1F84E40521CB2
:1057C0004A622404D1F84A2094618A794C78A24232
:1057D000D1F83E2009D1D1F84240521CA242C1F872
:1057E0003E200DD3C1F83E300AE0521E12F1010FE7
:1057F000C1F83E2004D1D1F84220521EC1F83E200B
:10580000D1F83E200C79B2FBF4F4C1F836404A7965
:105810006AB1CA6A4C69A24202D3121B042A58D345
:105820002246CC6AA24202D3121B042A51D391F819
:105830003420012A04D04CD3032A2AD01FD310BD10
:1058400010B1C869401CC86100F044F802D0CA6AAF
:105850008018C862487958B9086A0028486A03D095
:105860000A6A904204D100E010B1032081F83400AC
:10587000C86A4A6990422CD3CA62022006E00A69CB
:105880004B6AC869D21A904223D3032081F83400AE
:1058900010BD00281FBFC8690028401EC86100F065
:1058A00019F804D0CA6A90423CBF101AC8624879FD
:1058B00078B9486A0A6990420BD3D1F846207848F3
:1058C00081F834308B704B610260BDE81040FBF70B
:1058D00043BE10BD086B8A6910180863400C0A6B40
:1058E000A2EB40420A6370470178012900D070475B
:1058F000F8B58179437800229942816B06D1C36B58
:10590000491C9942816309D3826307E0491E11F162
:10591000010F816302D1C16B491E8163816B0379E1
:10592000B1FBF3F34179036359B1C18A838A8B4296
:1059300005D05918038B448BE418641EA14200F073
:10594000AE80C16A491CC1628168C36A491C81601A
:10595000416A994204D10169838A31F81310816048
:105960000769818A86684F4C4F4D0B4637F8137094
:10597000BE4255D3C669C76ABE420CD3068B761E9B
:10598000B34208DA491C81828260018B838A994282
:1059900088BF19468182836A016ADB1B994202D360
:1059A000417901290AD0836A016ADB1B99421BD322
:1059B0004179C9B9836AB7EB530F15D3038B868A34
:1059C0005F1EBE4203DA418BCB189B1B8382826031
:1059D000818A028B491C8182418B838A8E18B34253
:1059E00002DB8918491E8182C368818A026D33F8FF
:1059F0001130D362026DB2F1804F05D1C36833F824
:105A000011104908916308E0AA4218BFA24207D1C9
:105A1000C36833F81110490851630022016D4A62CE
:105A2000C16A826A914228BF04292FD300210170E4
:105A300081708182016DB1F1804F0CD11B480160F2
:105A4000FBF78AFD4FF080400022016849084900B9
:105A500001604262F1BDA942016D0AD114480160A2
:105A6000FBF77AFD28684008400028600021696241
:105A7000F1BDA14213D10F480160FBF76DFD206815
:105A800040084000206000216162F1BD016DCA6ADA
:105A9000046C456C0023A2186B4102644364F1BDA1
:105AA0000079002000040140000800409C7800209C
:105AB000FC7600206477002000C1814001C0804155
:105AC00001C0804100C1814001C0804100C18140CE
:105AD00000C1814001C0804101C0804100C18140BE
