:020000040800F2
:1000000040030120717A00086178000863780008D5
:10001000657800086778000869780008000000002B
:100020000000000000000000000000006B780008E5
:100030006D780008000000006F78000871780008F3
:10004000DD7A0008E17A0008E57A0008E97A00081C
:10005000ED7A0008F17A0008A1780008F57A000826
:10006000F97A0008FD7A0008017B0008057B00088A
:10007000097B00080D7B0008117B0008157B000838
:10008000197B00081D7B0008217B0008257B0008E8
:10009000297B00082D7B0008317B0008357B000898
:1000A000397B00083D7B0008417B0008E13D0008EA
:1000B000332F0008413A000811330008457B00083F
:1000C000497B00084D7B0008517B0008557B0008E8
:1000D000597B0008AB780008B5780008BF780008A5
:1000E0005D7B0008617B0008657B0008697B000878
:1000F0006D7B0008717B0008A1360008757B000845
:10010000797B00087D7B000885410008817B000821
:10011000C9780008D3780008857B0008897B00082F
:100120008D7B0008917B0008957B0008997B000877
:100130009D7B0008A17B0008A57B0008A97B000827
:10014000AD7B0008B17B0008B57B0008B97B0008D7
:10015000BD7B0008C17B0008C57B0008DD78000876
:10016000C97B0008CD7B0008D17B0008D57B000847
:10017000D97B0008DD7B0008E17B0008000000005F
:10018000E57B0008E97B000810B50400002C01D1D4
:10019000012033E0A0690028FFD194F83D00002839
:1001A00005D1002084F83C00200000F025FD24202B
:1001B00084F83D002068C06830F400502168C860B1
:1001C000200000F0CEFA2068006930F490402168E9
:1001D00008612068406930F02A0021684861206881
:1001E000C06850F400502168C860002020642020BE
:1001F00084F83D00202084F83E00002010BD2DE949
:10020000FC4106000D0014001F00002096F83D0080
:10021000202857D1002D03D0200080B2002801D122
:10022000012050E096F83C00012801D102204AE06C
:10023000012086F83C0000203064212086F83D0033
:1002400000F06AFE8046B484F484B068B0F5805F44
:1002500004D13069002801D1002401E02C000025E0
:10026000002086F83C000FE0207831684860641C6C
:1002700007E0002CF8D12888C005C00D316848601F
:10028000AD1CF08C401EF084F08C00280AD0009742
:10029000434600228021300000F045F90028E8D0D4
:1002A000032010E00097434600224021300000F078
:1002B0003AF9002801D0032005E0202086F83D000F
:1002C000002000E00220BDE8F68180B590F83E30C5
:1002D000202B16D1002903D013009BB2002B01D193
:1002E00001200FE090F83C30012B01D1022009E001
:1002F000012380F83C300023036392B200F04AF9F6
:1003000000E0022002BD38B50400206801682068C2
:10031000C268206843690020002011F00F00002807
:1003200007D18D0605D5950603D5200000F0B5F957
:10033000F8E0002872D0D80702D412F4907F6DD074
:1003400011F00100C0B2002805D0D00503D5206C03
:1003500050F001002064480708D513F00100C0B236
:10036000002803D0206C50F002002064880708D5D4
:1003700013F00100C0B2002803D0206C50F004003C
:10038000206408070AD5900604D413F00103DBB2F9
:10039000002B03D0206C50F008002064206C002853
:1003A0003BD0880604D5900602D5200000F075F9F0
:1003B00020684069800910F00100216C090701D410
:1003C000002825D0200000F004F92068406940068C
:1003D0001AD52068406930F0400021684861A06B60
:1003E00000280DD00FF22120A16B0865A06B00F052
:1003F000E7FD002811D0A06BA16B096D88470CE0C8
:10040000200000F0F0FD08E0200000F0ECFD04E02A
:10041000200000F0E8FD0020206483E0206B01282C
:1004200070D1C8066ED5D0066CD50020009020682B
:10043000006800902068406800900098206840693B
:10044000400639D5A06B00684168080080B20028DA
:1004500031D00800A28D80B290422CD2E185A06BF1
:10046000C069B0F5807F1FD02068C06830F480700C
:100470002168C860206840694008400021684861E0
:100480002068406930F0400021684861202084F8ED
:100490003E00002020632068C06830F01000216812
:1004A000C860A06B00F03EFDA18DE08D091A89B2F5
:1004B000200000F099FD35E0A08DE18D411AE08D1E
:1004C00000281ED0080080B200281AD02068C0681A
:1004D00030F490702268D060206840694008400085
:1004E00022685061202084F83E00002020632068AC
:1004F000C06830F010002268D06089B2200000F09F
:1005000073FD0FE0080605D5100603D5200000F0A6
:1005100085F807E0480605D5500603D5200000F011
:10052000AEF8FFE731BD2DE9F04105000E00904621
:100530001F00069C286800683040B04201D10120AD
:1005400000E000204146C9B2884220D114F1010FD9
:10055000F0D0002C04D000F0DFFCC01B8442E9D2B4
:100560002868C06830F4D0702968C860286840697D
:100570004008400029684861202085F83D0020207F
:1005800085F83E00002085F83C00032000E00020B4
:10059000BDE8F08181628285C2850021016422214B
:1005A00080F83E10002180F83C100168C96851F4C1
:1005B00080710268D1600168496951F001010268E7
:1005C00051610168C96851F020010068C1600020D4
:1005D00070470168C96831F490710268D1600168A0
:1005E00049694908490002685161016B012905D137
:1005F0000168C96831F010010268D160202180F8DB
:100600003E1000210163704780B5806B0021C185D9
:100610000021C18400F0E7FC01BD000090F83D100E
:1006200021292AD18168B1F5805F0CD101690029A7
:1006300009D1016A0988C905C90D02685160016ABA
:10064000891C016205E0016A4A1C0262097802689D
:100650005160C18C491EC18489B200290BD1016847
:10066000C96831F080010268D1600168C96851F041
:1006700040010068C160002000E00220704780B5A2
:100680000168C96831F040010268D160202180F81A
:100690003D1000F0F3FE002002BD10B5040094F8F8
:1006A0003E0022285BD1A068B0F5805F0DD12069A3
:1006B00000280AD10020A06A21684968C905C90D2F
:1006C0000180A06A801CA06217E0A16A0020A068D7
:1006D000B0F5805F05D0A068002806D12069002809
:1006E00003D120684068087004E02068406810F07A
:1006F0007F000870A06A401CA062E08D401EE0856B
:1007000080B2002829D12068C06830F0200021681C
:10071000C8602068C06830F480702168C8602068B4
:1007200040694008400021684861202084F83E006C
:10073000206B01280AD12068C06830F010002168C1
:10074000C860A18D200000F04FFC02E0200000F006
:10075000E9FD00202063002002E0002000E00220EC
:1007600010BD2DE9FE4F05002868016931F44051A4
:10077000E868014328680161A9682869014368693C
:100780000143E86901432868C268AF480240114349
:100790002868C1602868416931F44071A869014343
:1007A000286841612868A949884203D02868A84977
:1007B000884203D100F0CFFF040002E000F0C0FF48
:1007C0000400E869B0F5004F40F09F805FF0640AD4
:1007D000022600275FF019085FF0000922000023BD
:1007E000A8FB020108FB031109FB0211CDE900017E
:1007F00068680021A6FB002306FB013307FB0033DA
:10080000DDE9000101F000F86421B0FBF1F0029095
:1008100022000023A8FB020108FB031109FB0211BF
:10082000CDE9000168680021A6FB002306FB013327
:1008300007FB0033DDE9000100F0E6FF83462200FC
:100840000023A8FB020108FB031109FB0211CDE9FB
:10085000000168680021A6FB002306FB013307FBAB
:100860000033DDE9000100F0CFFF6421B0FBF1F0BF
:100870000AFB10B0C00032306421B0FBF1F0400040
:1008800010F4F870029910EB01100290220000237E
:10089000A8FB020108FB031109FB0211CDE90001CD
:1008A00068680021A6FB002306FB013307FB003329
:1008B000DDE9000100F0A8FF8346200000210200CE
:1008C0000B00A8FB020108FB031109FB02116A6877
:1008D000002390469946A6FB082306FB093307FB35
:1008E000083300F091FF6421B0FBF1F00AFB10BA6D
:1008F0005FEACA0032306421B0FBF1F111F0070168
:1009000002980918286881609CE0042600275FF09F
:10091000640A5FF019085FF0000922000023A8FBB9
:10092000020108FB031109FB0211CDE9000168680F
:100930000021A6FB002306FB013307FB0033DDE9A2
:10094000000100F061FF6421B0FBF1F00290220091
:100950000023A8FB020108FB031109FB0211CDE9EA
:10096000000168680021A6FB002306FB013307FB9A
:100970000033DDE9000100F047FF83462200002339
:10098000A8FB020108FB031109FB0211CDE90001DC
:1009900068680021A6FB002306FB013307FB003338
:1009A000DDE9000100F030FF6421B0FBF1F00AFB4B
:1009B00010B0000132306421B0FBF1F010F0F00013
:1009C000029910EB0110029022000023A8FB020103
:1009D00008FB031109FB0211CDE900016868002141
:1009E000A6FB002306FB013307FB0033DDE9000112
:1009F00000F00AFF83462000002102000B00A8FB44
:100A0000020108FB031109FB02116A6800239046EA
:100A10009946A6FB082306FB093307FB083300F0C1
:100A2000F3FE6421B0FBF1F00AFB10BA5FEA0A1092
:100A300032306421B0FBF1F111F00F010298091876
:100A400028688160BDE8F78FF369FFFF001001405F
:100A50000014014010B5DFF85844DFF85804206056
:100A60004FF4614060600020A0600020E060002042
:100A700020610C2060610020A0610020E061200066
:100A8000FFF782FB002801D000F0B8FD0122DFF85B
:100A900028142000FFF719FC10BD10B5DFF81C4426
:100AA000DFF81C0420604FF4614060600020A0600B
:100AB0000020E060002020610C2060610020A06127
:100AC0000020E0612000FFF75FFB002801D000F06C
:100AD00095FD0122DFF8EC132000FFF7F6FB10BDB7
:100AE00010B5DFF8E443DFF8E40320604FF4614021
:100AF00060600020A0600020E060002020610C20E9
:100B000060610020A0610020E0612000FFF73CFB55
:100B1000002801D000F072FD0122DFF8B41320009C
:100B2000FFF7D3FB10BD10B5DFF8A843DFF8A8032B
:100B300020604FF4614060600020A0600020E06011
:100B4000002020610C2060610020A0610020E06195
:100B50002000FFF719FB002801D000F04FFD012213
:100B6000DFF878132000FFF7B0FB10BD10B5DFF8F9
:100B70007043DFF8700320604FF461406060002034
:100B8000A0600020E060002020610C206061002057
:100B9000A0610020E0612000FFF7F6FA002801D0F4
:100BA00000F02CFD0122DFF840132000FFF78DFB41
:100BB00010BD10B5DFF83443DFF8340320604FF484
:100BC000614060600020A0600020E06000202061A3
:100BD0000C2060610020A0610020E0612000FFF790
:100BE000D3FA002801D000F009FD0122DFF8041338
:100BF0002000FFF76AFB10BD10B586B00400684600
:100C0000142100F019FF2068DFF8A812884232D1C1
:100C100000200590DFF8E002016851F40021016036
:100C2000006810F400200590059800200590DFF87A
:100C3000CC02016851F004010160006810F004006A
:100C4000059005984FF4406000900220019001202B
:100C5000029001200390082004906946DFF8A0026A
:100C600000F0EEFE00220021342001F080F8342054
:100C700001F08EF81AE120689149884248D100209D
:100C800005909D48016851F480110160006810F4DE
:100C9000801005900598002005909848016851F053
:100CA00004010160016811F004010591059900211A
:100CB0000591016851F008010160006810F008001A
:100CC000059005984FF4805000900220019001207B
:100CD000029001200390082004906946884800F0A3
:100CE000AFFE04200090022001900120029001201C
:100CF0000390082004906946824800F0A1FE00227B
:100D00000021352001F033F8352001F041F8CDE025
:100D100020686E4988422FD1002005907A480168EA
:100D200051F010010160006810F010000590059866
:100D3000002005907148016851F0010101600068D0
:100D400010F00100059005984FF4C060009002205B
:100D50000190002002900120039007200490694632
:100D60006A4800F06DFE00220021252000F0FFFF00
:100D7000252001F00DF899E02068574988422ED1CE
:100D8000002005905C48016851F400310160006862
:100D900010F4003005900598002005905748016830
:100DA00051F001010160006810F001000590059804
:100DB0000C2000900220019000200290012003905E
:100DC000072004906946514800F03AFE00220021B5
:100DD000262000F0CCFF262000F0DAFF66E0206835
:100DE000404988422FD1002005904348016851F4C2
:100DF00080210160006810F4802005900598002093
:100E000005903E48016851F002010160006810F051
:100E10000200059005984FF4406000900220019078
:100E20000020029001200390072004906946384872
:100E300000F006FE00220021272000F098FF272066
:100E400000F0A6FF32E02068294988422ED1002018
:100E500005902D48016851F020010160006810F0F4
:100E6000200005900598002005902448016851F065
:100E700040010160006810F04000059005984FF4B3
:100E800084400090022001900020029001200390F5
:100E90000820049069461F4800F0D2FD002200217E
:100EA000472000F064FF472000F072FF06B010BD3D
:100EB00050FC0020004C00402DFF002094FC00203E
:100EC0000050004032FF0020D8FC002000100140FC
:100ED0001EFF00201CFD00200044004023FF0020D6
:100EE00060FD00200048004028FF0020A4FD0020F5
:100EF0000014014037FF00204038024030380240E3
:100F000000080240000C0240443802400000024049
:100F1000000402400018024001480068704700BF0A
:100F200094FE002070B50400A56DFFF7F5FF0600E4
:100F300094F83500022806D080206065002084F8EF
:100F4000340001203BE02068006830F01600216882
:100F500008602068406930F0800021684861206C9A
:100F6000002802D1A06C002805D02068006830F06D
:100F70000800216808602068006840084000216877
:100F8000086020680068C0070ED5FFF7C5FF801B0A
:100F90000628F6D320206065002084F83400032062
:100FA00084F8350003200AE03F21E06D8140A9600C
:100FB000002084F83400012084F83500002070BD42
:100FC00090F83510022903D080214165012009E005
:100FD000052180F835100168096849084900006852
:100FE0000160002070477047704730B4002513E05F
:100FF00050F8042BD30744BFA9F101039A18091F25
:10100000042942F8045BFAD213468C0744BF1580CA
:101010009B1CC90748BF1D7050F8041B0029E7D16D
:1010200030BC704738B52DED048B0400B0EE409A0B
:10103000B0EE418AF0EE618A002570EEC89A2CE08D
:1010400000EE105AB8EEC00AF0EE000AC9EE200A0F
:1010500030EE600A20EE280AF0EE000AC9EE200AFF
:1010600080EE200AB1EE400A00F0ACFEF7EE000A76
:1010700030EE200AF7EE000A80EE800AF0EE480A11
:1010800049EE800A9FED8B0A80EE200ABDEEC00A71
:1010900010EE100A24F815006D1C00EE105AB8EE80
:1010A000C00AB4EE490AF1EE10FAC9D4BDEC048BC3
:1010B00031BD1CB500F0B4FE00F0AAF84FF4FA60A0
:1010C00000F0C8FE00F0DAFE01F06CF801F08DF8D7
:1010D00001F0AEF801F07EF901F0FAF901F053FAEF
:1010E00001F0ACFA01F005FB01F086FBFFF7B2FC62
:1010F000FFF7D3FCFFF7F4FCFFF715FDFFF736FD14
:10110000FFF757FD01F050FB01F0F4FD02F019F874
:1011100002F0E2F902F0ACFB02F07BFD02F04AFFC4
:1011200003F050FA03F04FFA03F0B8F803F04CFA6A
:1011300003F04AFA03F047FA00F0AEF9DFF844434F
:10114000B4F8F4000128F3D12088002804D1608885
:10115000002801D1FF202080A088002806D16088C7
:101160000004218810FA81F04010A080E088002857
:1011700002D14FF4FA70E080A08800900123E28849
:1011800060880004218810FA81F1012000F09EF9A6
:10119000A08800900123E28860880004218810FA6A
:1011A00081F1022000F092F9A08800900123E288EA
:1011B00060880004218810FA81F1032000F086F98C
:1011C000A08800900123E28860880004218810FA3A
:1011D00081F1042000F07AF9A08800900123E288D0
:1011E00060880004218810FA81F1052000F06EF972
:1011F000A08800900123E28860880004218810FA0A
:1012000081F1062000F062F90020A4F8F4008FE7D5
:1012100080B592B006A8302100F00EFC01A8142180
:1012200000F00AFC00200090DFF84C02016851F049
:1012300080510160006810F08050009000980020FC
:101240000090DFF84402016851F4804101600068B9
:1012500010F4804000900098012006905FF48030E8
:10126000079002200C905FF480000D9004200E90F7
:10127000A8200F90022010900420119006A803F0DF
:1012800051FB002801D000F0B9F90F200190022095
:101290000290002003904FF4A05004900590052187
:1012A00001A800F0ADF9002801D000F0A7F913B0B3
:1012B00000BD00008096184B80B580B2012802D096
:1012C00002282DD02DE01121012003F01DFDC007C3
:1012D00004D5DFF8B811012003F048FD11210220E8
:1012E00003F012FD800704D5DFF8A411022003F0FB
:1012F0003DFD1121032003F007FD400704D5DFF871
:101300009411032003F032FD1121042003F0FCFCB2
:10131000000704D5DFF86C12042003F027FD00E07D
:10132000FFE701BD80B50168DFF85C22914216D16C
:10133000DFF858020188FD2909DADFF8541209782C
:10134000DFF850220388D1540188491C0180012212
:10135000DFF83C12DFF84002FEF7B7FF89E00168D2
:10136000DFF83822914216D1DFF834020188FD29D6
:1013700009DADFF830120978DFF82C220388D1541B
:101380000188491C01800122DFF81812DFF81C02D5
:10139000FEF79BFF6DE00168DFF81422914215D142
:1013A000DFF810020188FD2909DADFF80C1209784C
:1013B000DFF808220388D1540188491C01800122EA
:1013C000DFF8F4112E48FEF780FF52E00168DFF8E5
:1013D000F021914216D1DFF8EC010188FD2909DAEC
:1013E000DFF8E4110978DFF8E4210388D15401889B
:1013F000491C01800122DFF8D011DFF8D401FEF78B
:1014000064FF36E00168DFF8CC21914216D1DFF8A5
:10141000C8010188FD2909DADFF8C0110978DFF871
:10142000C0210388D1540188491C01800122DFF8C2
:10143000AC11DFF8B001FEF748FF1AE00068DFF8F2
:10144000A811884215D1DFF8A4010188FD2909DA25
:10145000DFF89C110978DFF89C210388D1540188BA
:10146000491C01800122DFF88811DFF88C01FEF7AA
:101470002CFF01BD00000000403802407047000012
:1014800060FD002010E1002000700040A0F300206B
:10149000A0F40020A0F5002080B503F0A7FC03F025
:1014A00049FD03F015FF03F0B4FF04F059F904F00F
:1014B000F8F904F09DFB04F03CFC04F0E1FD04F0BD
:1014C00080FE05F025F805F0C4F801BD38B504002C
:1014D000080011001A00049B1D00ADB2002D01D1BF
:1014E00040F6B833E4B2012C09D049D3032C1CD008
:1014F00010D3052C2FD023D3062C37D040E040F654
:10150000B934A14201D340F6B8319BB292B201F096
:1015100051FC35E040F6B934A14201D340F6B83170
:101520009BB292B201F068FE2AE040F6B934A142C3
:1015300001D340F6B8319BB292B202F027F81FE017
:1015400040F6B934A14201D340F6B8319BB292B211
:1015500002F0E8F914E040F6B934A14201D340F6B4
:10156000B8319BB292B202F0AFFB09E040F6B93459
:10157000A14201D340F6B8319BB292B202F074FDA1
:1015800031BD0000A0F60020001001409AFE0020AE
:101590001EFF0020A0E80020D8FC002000440040EE
:1015A000AAFE002023FF0020A0EA00201CFD00204E
:1015B00000480040BAFE002028FF0020A0EC0020D8
:1015C000004C0040CAFE00202DFF0020A0EE0020AD
:1015D00050FC002000500040DAFE002032FF0020C6
:1015E000A0F0002094FC002000140140EAFE00203E
:1015F00037FF0020A0F20020A4FD002072B6FEE715
:101600002DE9F04104000E00002C01D1012092E0F0
:10161000564D286810F00700B04207D22E70286897
:1016200010F00700B04201D0012084E0207880074C
:1016300016D52078400704D54D48016851F4E05193
:1016400001602078000704D54948016851F46041E1
:10165000016047490A6832F0F002A06802430A605C
:101660002078C00735D56068012805D14148006859
:10167000800313D401205EE06068022802D0606815
:10168000032805D13B480068800107D4012052E0BF
:1016900038480068800701D401204CE0344F396895
:1016A00089088900606801433960FFF735FC80468E
:1016B000386810F00C006168B0EB810F09D0FFF7BB
:1016C0002BFCB0EB080041F289318842F0D30320B3
:1016D00031E0286810F00700864207D22E70286893
:1016E00010F00700B04201D0012024E0207840072C
:1016F00006D51F490A6832F4E052E06802430A60E6
:101700002078000707D51A48016831F46041226942
:1017100051EAC201016000F037F81749144A126813
:10172000C2F30312895CC840144908601448006879
:1017300005F036F90020BDE8F081104800687047D8
:1017400080B5FFF7FAFF0F49094A1268C2F38222F7
:10175000895CC84002BD80B5FFF7EFFF0949044A24
:101760001268C2F34232895CC84002BD003C0240AC
:101770000838024000380240607A00080400002067
:10178000000000209C7A000810B5002000200020F6
:1017900000201948006810F00C00002804D004282C
:1017A00004D0082804D025E0144824E0144822E09E
:1017B000144C226812F03F022068400209D52068CC
:1017C000C0F388100E49A1FB0001002300F01CF8B3
:1017D00008E02068C0F388100849A1FB000100233D
:1017E00000F012F82168C1F30141491C4900B0FB27
:1017F000F1F000E0014810BD083802400024F40078
:1018000000127A0004380240BBBBE1B1B2F5803F60
:1018100080F07E80022A1ED98C46B1FBF2F102FBD9
:1018200011C31B0443EA1043B3FBF2FC02FB1C335D
:1018300080B240EA0343B3FBF2F002FB103240EA0D
:101840000C4000237047022A05D98446B0FBF2F011
:1018500002FB10C270474AB105D100F001024908ED
:101860005FEA3000704700220023704705F0BEB8E1
:101870000B000200002100207047904271EB030C26
:10188000F6D3B3F5803F2FD2F0B5B3FA83F7B1FAB0
:1018900081F4A7F10F0E3D1B5340CEF1200602FA52
:1018A0000EF2F3415340B5F10F0746D80F3C2C44DC
:1018B0004140C4F12006A040F1414140B1FBF3F6A4
:1018C00003FB1611A2FB0645001BA94102D2761E9E
:1018D0008018594180EA010221FA0EF362FA0EF2F1
:1018E00000215A403046F0BD30B4B1FBF3FC03FB9D
:1018F0001C11A2FB0C45001BA94103D2ACF1010C49
:101900008018594130BC02460B46604600217047A2
:10191000B2F1807F65D3F0B5B2FA82F7B1FA81F403
:10192000C7F10F063D1B22FA06F307F1110EF24133
:1019300020355A40B5F10F07B8D94140C4F120060F
:10194000A040F1414140B1FBF3FC03FB1C11A2FBA1
:101950000C45001BA94103D2BCF1010C8018594170
:101960000F2F12D30F3FC90341EA5041B1FBF3F6E9
:1019700003FB1611A2FB0645D4EBC030A94102D2ED
:10198000761E8018594146EACC3C07B34140C7F166
:101990002006B840F1414140B1FBF3F603FB1611BC
:1019A000A2FB0645001BA94102D2761E80185941B0
:1019B00080EA010221FA0EF3C7F1200462FA0EF266
:1019C0000CFA07F05A402CFA04F13043F0BD80EADB
:1019D000010221FA0EF3002162FA0EF260465A402B
:1019E000F0BD8C46B1FBF2F102FB11C31B0243EACE
:1019F0001063B3FBF2FC02FB1C331B024CEA002019
:101A000043EA1063B3FBF2FC02FB1C331B024CEAFB
:101A1000002043EA1063B3FBF2FC02FB1C331B0201
:101A20004CEA002043EA1063B3FBF2FC02FB1C32D9
:101A30004CEA002000237047002204F0D9BF0000C8
:101A4000F8B4002200220022002337E0082704E037
:101A5000DFF808229042F9D10727FFB213F0030202
:101A6000D2B2920097403E431A00920845F8226095
:101A7000DFF8EC512A68A2434E68F60300D52243F2
:101A80002A60DFF8E0512A68A2434E68B60300D509
:101A900022432A60DFF8D0512A68A2434E68F6023A
:101AA00000D522432A60DFF8C4512A68A2434E6859
:101AB000B60201D5144322002A605B1C102B80F073
:101AC000A780012515FA03F20C6814409442F4D162
:101AD0000A7912F00302012A04D00A7912F00302F3
:101AE000022A16D1866803271A00D2B25200974004
:101AF000BE43CF681A00D2B2520097403E43866080
:101B000042689D40AA434D68C5F300159D402A4395
:101B100042600A7912F00302032A0DD0C568032639
:101B20001A00D2B252009640B5438E681A00D2B263
:101B3000520096403543C5600A7912F00302022A2A
:101B400017D11A00D20800EB8202156A0F2613F093
:101B50000702D2B292009640B5430E6913F0070215
:101B6000D2B29200964035431A00D20800EB8202AE
:101B70001562056803261A00D2B252009640B5439A
:101B80000E7916F003061A00D2B252009640354381
:101B900005604A68D20090D500220092344A156848
:101BA00055F480451560126812F480420092009A44
:101BB000304D1A00920855F822600F2713F00302E7
:101BC000D2B292009740BE432B4A904201D10027E7
:101BD00043E72A4A904201D101273EE7284A904232
:101BE00001D1022739E7274A904201D1032734E780
:101BF000254A904201D104272FE7244A904201D17F
:101C000005272AE7224A90427FF422AF062724E7DD
:101C1000F1BC7047D2B2002A02D089B2816102E0E1
:101C200089B209048161704742690B009BB213407D
:101C300089B2914351EA03418161704780B51549EA
:101C40000A6803009BB21A4205D0020092B20A60F1
:101C500080B2FFF731FB01BD00000000001C024014
:101C6000003C0140043C0140083C01400C3C014068
:101C7000443802400838014000000240000402409D
:101C800000080240000C0240001002400014024014
:101C900000180240143C014010F00700414B1A6844
:101CA0004FF6FF010A40404951EA00210A431A60F9
:101CB00070473C480068C0F302207047010049B2F9
:101CC000002908D4012210F01F018A40374940B290
:101CD000400941F820207047020052B2002A04D483
:101CE0000901334A40B2115407E00901314A40B2B8
:101CF00010F00F00104400F8041C704710B410F0EE
:101D00000700D0F10703052B01D3042301E0D0F134
:101D10000703041D072C01D2002000E0C01E01248F
:101D200014FA03F35B1E1940814014FA00F0401EC0
:101D30001040084310BC704780B5411EB1F1807F50
:101D400001D301200EE0401E1B4908600F215FF007
:101D5000FF30FFF7C1FF002018490860072018492D
:101D60000860002002BD80B5FFF796FF01BD70B589
:101D700004000D0016000020FFF79BFF3200290031
:101D8000FFF7BCFF0100200040B2FFF7A5FF70BDC8
:101D900080B540B2FFF792FF01BD80B5FFF7CCFFE1
:101DA00002BD00000CED00E00000FA0500E100E0DB
:101DB00000E400E018ED00E014E000E018E000E0CE
:101DC00010E000E010EE100A0949B5EE400AD1F823
:101DD0003CC0BCEB400FD1EC0D0AC0F00B80F1EE23
:101DE00010FA4FF0000144F01D86B0EE600A704713
:101DF0001C7900084FF0807C1CEB400F08D2004299
:101E000054BFB0EE420A31EE410AAFF30080704792
:101E100004D8C04202D3002000EE100A7047000030
:101E200080B50B48016851F400710160016851F4FC
:101E300080610160016851F4807101600320FFF747
:101E400092FF002004F0ACFD04F05CFE002002BD17
:101E5000003C024038B50400FFF75EF8050014F1BD
:101E6000010F02D0044800782418FFF755F8401BF2
:101E7000A042FAD331BD00BF0E0000202DE9F84F7B
:101E800086B068461421FFF7D7FD00200590BC48B6
:101E9000016851F010010160016811F01001059115
:101EA000059900210591016851F004010160016864
:101EB00011F004010591059900210591016851F087
:101EC00020010160016811F02001059105990021B0
:101ED0000591016851F080010160016811F08001F5
:101EE0000591059900210591016851F001010160FA
:101EF000016811F001010591059900210591016822
:101F000051F002010160016811F00201059105998B
:101F100000210591016851F040010160016811F054
:101F200040010591059900210591016851F00801D2
:101F30000160006810F00800059005984FF2100B42
:101F4000904C012259462000FFF764FE8E4D01227D
:101F500042F23F012800FFF75DFE8C4E01224CF259
:101F60003B113000FFF756FE00224FF4E0712800CD
:101F7000FFF750FE864F01224FF460713800FFF7E3
:101F800049FEDFF8108201224FF419414046FFF765
:101F900041FEDFF8049201224FF460714846FFF7DA
:101FA00039FEDFF8F8A1002203215046FFF732FE88
:101FB0004FF6DC500090002001900220029069460C
:101FC0005046FFF73DFD0F200090002001900220B9
:101FD000029069462000FFF733FDCDF800B00120E4
:101FE0000190012002900020039069462000FFF735
:101FF00027FD012000906A48019000200290694668
:102000003800FFF71DFD30200090002001900220D5
:10201000029069463800FFF713FD01200090002070
:1020200001900220029069464846FFF709FD4FF4EF
:10203000006000900020019001200290694620007D
:10204000FFF7FEFC3F20009001200190012002904C
:102050000020039069462800FFF7F2FC4FF48070DF
:102060000090012001900120029002200390694617
:102070003000FFF7E5FC4FF4725000900020019013
:102080000220029069463000FFF7DAFC4CF23B0078
:1020900000900120019001200290002003906946E9
:1020A0003000FFF7CDFC4FF4A070009001200190AC
:1020B000002002900020039069462800FFF7C0FC32
:1020C00080200090112001900020029000200390B9
:1020D00069462800FFF7B4FC4FF4607400940120B7
:1020E0000190012002900020039069463800FFF71C
:1020F000A7FC4FF4194000900120019001200290AC
:102100000020039069464046FFF79AFC4FF41C40BC
:102110000090002001900220029069462800FFF7FD
:102120008FFC4FF40050009001200190012002909C
:102130000320039069462800FFF782FC00940120E9
:102140000190012002900020039069464846FFF765
:1021500077FC0320009001200190022002900020D3
:10216000039069465046FFF76BFC002200210620D1
:10217000FFF7FDFD0620FFF70BFE07B0BDE8F08F6F
:10218000303802400014024000180240000C0240A7
:10219000000802400000024000040240001002401B
:1021A0000000111080B58048804901604FF48271B1
:1021B0004160002181600021C16000210161002196
:1021C00041615FF4802181611821C16100210162B8
:1021D00000214162002181620A21C16204F0B4FC45
:1021E000002801D0FFF70AFA01BD80B57048714997
:1021F00001604FF482714160002181600021C16063
:1022000000210161002141615FF480218161002191
:10221000C1610021016200214162002181620A2125
:10222000C16204F091FC002801D0FFF7E7F901BD7D
:1022300080B56148614901604FF4827141600021BD
:1022400081600021C16000210161002141614FF4E2
:10225000007181610021C1610021016200214162A0
:10226000002181620A21C16204F06EFC002801D0C5
:10227000FFF7C4F901BD10B586B00400684614210B
:10228000FFF7DAFB20684949884226D100200590F3
:102290004B48016851F480510160006810F480508F
:1022A00005900598002005904648016851F001010D
:1022B0000160006810F0010005900598F020009082
:1022C000022001900020029003200390052004903A
:1022D00069463D48FFF7B4FB55E020683549884220
:1022E00027D1002005903948016851F480410160F0
:1022F000006810F480400590059800200590314852
:10230000016851F002010160006810F002000590C0
:1023100005984FF470400090022001900020029038
:10232000022003900520049069462948FFF788FBA6
:1023300029E020682149884225D1002005902348C2
:10234000016851F400410160006810F400400590FC
:102350000598002005901B48016851F002010160BA
:10236000006810F0020005900598382000900220C7
:1023700001900020029003200390062004906946FB
:102380001348FFF75DFB06B010BD01B582B04FF4F6
:102390007A700090012301AA02A9034804F03BFCD3
:1023A0009DF804000EBD0000A0F7002000300140A1
:1023B000F8F700200038004050F80020003C0040B2
:1023C00044380240303802400000024040380240A9
:1023D0000004024018B595B011A81021FFF72CFB9E
:1023E000DFF8F407D0E90023CDE900230AA81C2177
:1023F000FFF722FB02A82021FFF71EFBDFF8DC47D6
:10240000DFF8DC072060A72060600020A06040F2B9
:10241000E730E06000202061002060618020A06142
:10242000200004F0A1FD002801D0FFF7E7F84FF4E9
:102430008050119011A9200004F097FE002801D0CF
:10244000FFF7DCF8200004F022FE002801D0FFF79F
:10245000D5F820200090002001906946200005F06A
:102460007DF8002801D0FFF7C9F830200A9000203D
:102470000B9002200C9000200D9000200E90002068
:102480000F900020109000220AA9200004F044FEC2
:10249000002801D0FFF7B2F800200290002003903E
:1024A0000020049000200590002006904FF400507A
:1024B00007900020099002A9200005F0A3F8002849
:1024C00001D0FFF79BF8200000F0C3FA16B010BD52
:1024D00018B58DB009A81021FFF7AEFADFF8040790
:1024E000D0E90023CDE9002302A81C21FFF7A4FABC
:1024F000DFF8F4465FF080402060532060600020E9
:10250000A06040F2E730E060002020610020A06180
:10251000200004F029FD002801D0FFF76FF84FF4E8
:102520008050099009A9200004F01FFE002801D066
:10253000FFF764F8200004F0AAFD002801D0FFF79F
:102540005DF800200090002001906946200005F011
:1025500005F8002801D0FFF751F830200290002044
:1025600003900220049000200690042202A920007B
:1025700004F0D2FD002801D0FFF740F8200000F061
:1025800068FA0EB010BD18B58DB009A81021FFF77C
:1025900053FADFF85806D0E90023CDE9002302A85A
:1025A0001C21FFF749FADFF84846DFF848062060AB
:1025B000532060600020A06040F2E730E06000201F
:1025C00020610020A061200004F0CEFC002801D092
:1025D000FFF714F84FF48050099009A9200004F087
:1025E000C4FD002801D0FFF709F8200004F04FFDDA
:1025F000002801D0FFF702F8002000900020019091
:102600006946200004F0AAFF002801D0FEF7F6FF7B
:1026100030200290002003900220049000200690B9
:102620000C2202A9200004F077FD002801D0FEF75B
:10263000E5FF200000F00DFA0EB010BD18B58DB00A
:1026400009A81021FFF7F8F9DFF8AC05D0E900235D
:10265000CDE9002302A81C21FFF7EEF9DFF89C4525
:10266000DFF89C052060532060600020A06040F2ED
:10267000E730E060002020610020A061200004F02D
:1026800073FC002801D0FEF7B9FF4FF48050099089
:1026900009A9200004F069FD002801D0FEF7AEFF73
:1026A000200004F0F4FC002801D0FEF7A7FF002072
:1026B0000090002001906946200004F04FFF0028A0
:1026C00001D0FEF79BFF30200290002003900220F3
:1026D000049000200690002202A9200004F01CFDB6
:1026E000002801D0FEF78AFF200000F0B2F90EB0FA
:1026F00010BD18B58DB009A81021FFF79DF9DFF8BE
:102700000405D0E90023CDE9002302A81C21FFF72E
:1027100093F9DFF8F444DFF8F4042060532060609C
:102720000020A06040F2E730E0600020206100203F
:10273000A061200004F018FC002801D0FEF75EFF25
:102740004FF48050099009A9200004F00EFD0028E4
:1027500001D0FEF753FF200004F099FC002801D0BF
:10276000FEF74CFF002000900020019069462000F9
:1027700004F0F4FE002801D0FEF740FF3020029064
:10278000002003900220049000200690002202A95D
:10279000200004F0C1FC002801D0FEF72FFF20002C
:1027A00000F057F90EB010BD1CB5DFF86404D0E995
:1027B0000023CDE90023DFF85C44DFF85C042060EF
:1027C000532060600020A0600120E0600020A06134
:1027D000200004F0C9FB002801D0FEF70FFF002005
:1027E0000090002001906946200004F0B7FE002808
:1027F00001D0FEF703FF13BD18B595B011A8102145
:10280000FFF71AF9DFF81404D0E90023CDE900231B
:102810000AA81C21FFF710F902A82021FFF70CF9E4
:10282000DFF8FC43DFF8FC032060A7206060002095
:10283000A06040F2E730E06000202061002060618D
:102840000020A061200004F08FFB002801D0FEF7DB
:10285000D5FE4FF48050119011A9200004F085FCA2
:10286000002801D0FEF7CAFE200004F010FC00286A
:1028700001D0FEF7C3FE00200090002001906946C1
:10288000200004F06BFE002801D0FEF7B7FE3020D8
:102890000A9000200B9002200C9000200D90002048
:1028A0000E9000200F900020109000220AA9200016
:1028B00004F032FC002801D0FEF7A0FE00200290B8
:1028C0000020039000200490002005900020069036
:1028D0004FF4005007900020099002A9200004F056
:1028E00091FE002801D0FEF789FE200000F0B1F82B
:1028F00016B010BD80B50168DFF8E422914215D111
:1029000000200090DFF82003016851F00101016010
:10291000006810F0010000900098002200211B20A8
:10292000FFF725FA1B20FFF733FA91E00168B1F1B8
:10293000804F15D100200090DFF8F002016851F0BF
:1029400001010160006810F0010000900098002271
:1029500000211C20FFF70BFA1C20FFF719FA77E083
:102960000168DFF89022914215D100200090DFF835
:10297000BC02016851F002010160006810F0020021
:1029800000900098002200211D20FFF7F0F91D2083
:10299000FFF7FEF95CE00168DFF86422914215D18F
:1029A00000200090DFF88402016851F0040101600A
:1029B000006810F0040000900098002200211E2002
:1029C000FFF7D5F91E20FFF7E3F941E001688F4AD0
:1029D000914214D1002000909448016851F0080100
:1029E0000160006810F008000090009800220021AB
:1029F0003220FFF7BCF93220FFF7CAF928E001685E
:102A0000854A91420CD1002000908848016851F01D
:102A100020010160006810F020000090009817E08D
:102A200000688049884213D1002000907E480168E8
:102A300051F002010160006810F00200009000985F
:102A4000002200212E20FFF792F92E20FFF7A0F997
:102A500001BD10B586B0040068461421FEF7ECFFF6
:102A600020685F4988421BD10020059070480168AA
:102A700051F010010160006810F0100005900598F9
:102A80004FF400700090022001900120029001207C
:102A900003900120049069466648FEF7D1FF99E053
:102AA0002068B0F1804F1AD100200590604801687D
:102AB00051F001010160006810F0010005900598D7
:102AC000022000900220019001200290012003903A
:102AD0000120049069465848FEF7B2FF7AE020686A
:102AE000444988421AD1002005905148016851F0AC
:102AF00002010160006810F00200059005980220B4
:102B000000900220019001200290012003900220F9
:102B1000049069464948FEF793FF5BE02068384916
:102B200088421AD1002005904148016851F0020105
:102B30000160006810F002000590059840200090A8
:102B400002200190012002900120039002200490B5
:102B500069463A48FEF774FF3CE020682B498842FA
:102B60001AD1002005903248016851F0010101603E
:102B7000006810F0010005900598012000900220E7
:102B800001900020029000200390022004906946EA
:102B90002948FEF755FF1DE020682249884219D1D7
:102BA000002005902248016851F00401016000688E
:102BB00010F004000590059840200090022001903C
:102BC00001200290012003900320049069461C48D4
:102BD000FEF736FF06B010BDA47A000858FA0020B0
:102BE00000000140AC7A0008A0FA0020B47A000886
:102BF000E8FA002000040040BC7A000830FB002006
:102C000000080040C47A000878FB0020000C004057
:102C1000CC7A0008C0FB002000140040D47A0008E1
:102C200008FC0020000401404438024040380240C3
:102C30003038024000100240000002400004024010
:102C40000008024010B586B000200090DFF8FC03B9
:102C5000016851F001010160016811F0010100916A
:102C6000009900210091016851F010010160016894
:102C700011F010010091009900210091016851F0BC
:102C800010010160006810F0100000900098022010
:102C9000019002200290022004900120059001A9D9
:102CA000DFF8AC03FEF7CCFE022001900120029079
:102CB0000220049000200590DFF8984301A920002D
:102CC000FEF7BEFE01200190012002900220049038
:102CD0000020059001A92000FEF7B2FE002202218B
:102CE0002000FEF797FF002201212000FEF792FF4F
:102CF00006B010BD38B58CB000200090DFF8580346
:102D0000016851F001010160006810F001000090BD
:102D10000098FFF797FFDFF844435FF080402060A2
:102D20000F2060600020A0604FF6FF75E560002076
:102D30002061200004F018F94FF48050089008A991
:102D4000200004F012FA70200190029502200390F6
:102D50000820049000200590002006900020079095
:102D6000042201A9200004F0D7F9002204215FF019
:102D7000804004F0DFFB002200211C20FEF7F7FF5B
:102D80001C20FFF705F87FF00400216808617FF040
:102D90000200216808612068C06850F004002168C2
:102DA000C8602068406C50F40040216848640DB051
:102DB00030BD000070B504000E001D00A84800786A
:102DC000002840F0B58092B2002A05D100220221ED
:102DD000A048FEF71FFF04E0012202219D48FEF7F4
:102DE00019FF280080B240F6B931884201DB40F675
:102DF000B835280080B24000A0420EDA280080B228
:102E000099490860984908684000A0421BD20868A8
:102E1000B4EB4000954A106018E0052C09DB28004F
:102E200080B24000A04204DB200040108E490860C0
:102E3000E8E7601E032803D200208B490860E1E721
:102E4000002CDFD174E00020884A106042F210703C
:102E500046433C20B6FBF0F208684243ADB2B2FBF9
:102E6000F5F242F28E00824233D30868002830D057
:102E70007F4CF1EE001A9FED741A00EE102AF8EE66
:102E8000400A91ED000AB8EE400A2000FEF7CAF8A9
:102E90000120784908700020774908606F4D20882C
:102EA0002968C8622088E860208880B2400880B223
:102EB00029688863012204215FF0804004F03AFB16
:102EC000280004F088F8012201216248FEF7A2FEE2
:102ED0002EE06648046003206649087000206649B9
:102EE000086066485F49096809090160644942F25F
:102EF0008D020A60634A00680968B0FBF1F0106057
:102F0000564C10682168C8621068E060106840087C
:102F100021688863012204215FF0804004F00AFBED
:102F2000200004F058F8012201214A48FEF772FE01
:102F300070BD38B50020ADF80000484C2068C0686E
:102F4000400740F17F807FF00405206805614E480E
:102F50000168491C016047490878002862D00228AE
:102F600043D002D303281ED06CE04148424A136884
:102F700030F813302568EB62136830F81330E360E3
:102F8000136830F8130080B2400880B22368986359
:102F90001068401C10601068334A1268904201D3D8
:102FA000032008704EE031480268022A03D301680A
:102FB000491E016018E030480068002812D1002046
:102FC0000870002204215FF0804004F0B3FA200072
:102FD00004F046F820680561002201211D48FEF733
:102FE00019FE2FE0022008702CE0234A1068012807
:102FF00015DB1068401E10601D48116830F8111074
:103000002368D962116830F81110E160116830F856
:10301000110080B2400880B22168886301E000207E
:1030200008700FE0002204215FF0804004F082FA73
:10303000200004F015F820680561002201210548F0
:10304000FEF7E8FD31BD0000003402463038024092
:10305000000002400010024040380240A8F8002062
:10306000FAFE002004000020F4FD00207CFE002079
:103070007054002008000020F0FD0020F8FD002022
:10308000FCFD002000FE002004FE002038B586B0C4
:1030900000200090DFF85C03016851F0020101603C
:1030A000016811F00201009100990021009101686E
:1030B00051F002010160016811F0020100910099D4
:1030C00000210091016851F020010160006810F0BA
:1030D00020000090009840200190022002900220E1
:1030E000049002200590DFF8104301A92000FEF7AC
:1030F000A7FC4FF480700190012002900220049000
:103100000020059001A92000FEF79AFC10200190F4
:10311000012002900220049000200590DFF8DC528C
:1031200001A92800FEF78CFC00224FF480712000DA
:10313000FEF770FD012210212800FEF76BFD07B09D
:1031400030BD70B58CB000200090DFF8B40201688B
:1031500051F004010160006810F004000090009834
:10316000FFF794FFDFF89C42DFF89C5225600F20A8
:1031700060600020A0604FF6FF76E66000202061CE
:10318000200003F0F1FE4FF48050089008A92000C1
:1031900003F0EBFF302001900296022003900820FC
:1031A0000490002005900020069000200790002247
:1031B00001A9200003F0B0FF00220021280004F044
:1031C000B9F9002200211E20FEF7D1FD1E20FEF7D6
:1031D000DFFD7FF00200216808612068C06850F0C0
:1031E00002002168C8602068406C50F400402168EB
:1031F00048640CB070BD000070B504000D001E00E6
:1032000082480078002840F0828092B2002A06D1DD
:1032100000224FF480717848FEF7FCFC05E00122A3
:103220004FF480717448FEF7F5FC300080B240F630
:10323000B931884201DB40F6B836300080B2400038
:10324000A0422FDAB6B272480660724A704B186814
:10325000B4EB4000106042F2107045433C20B5FBD7
:10326000F0F142F28E00814230D3186800282DD050
:103270001868F1EE001A9FED5E1A01FB00F140F6AE
:10328000B830B1FBF0F000EE100AF8EE400A93ED12
:10329000000AB8EE400A6048FDF7C4FE01205F490D
:1032A000087017E0052C07DBB6B2A64204DB20004D
:1032B000401057490860C8E7601E032803D2002069
:1032C00053490860C1E7002CBFD120E014600320FF
:1032D000524908700020524908604A4C4E48018803
:1032E0002268D1620188E160008880B2400880B223
:1032F0002168486301220021434804F01BF92000A3
:1033000003F069FE002210213C48FEF783FC70BDEB
:1033100038B50020ADF800003A4C2068C06880073E
:1033200064D57FF00205206805613E480168491CAC
:1033300001600068C00759D438490878002849D08E
:1033400002282BD002D303281ED04FE0324A344843
:10335000036832F813302568EB62036832F81330E3
:10336000E360036832F81320022392FBF3F2236830
:103370005A630268521C0260006840F6B8329042FC
:1033800001DB0320087031E022480268521E02600F
:103390000068002801D10220087027E02048026858
:1033A000521E02601C4A036832F813302568EB6233
:1033B000036832F81330E360036832F81320022305
:1033C00092FBF3F223685A630068012801DA0020B7
:1033D00008700BE0002200210B4804F0ABF82068D5
:1033E0000561012210210548FEF714FC31BD0000E3
:1033F000003402463038024000040240001402400B
:1034000040380240F0F8002000080040FBFE002099
:103410000CFE002080FE0020E06B00200900002050
:1034200008FE002010FE002010B586B0002000909D
:10343000DFF85003016851F004010160016811F0E8
:1034400004010091009900210091016851F04001B0
:103450000160016811F04001009100990021009184
:10346000016851F040010160006810F040000090D8
:103470000098402001900220029002200490032036
:10348000059001A9DFF80003FEF7DAFA2020019089
:10349000012002900220049000200590DFF8EC4209
:1034A00001A92000FEF7CCFA102001900120029023
:1034B000022004900020059001A92000FEF7C0FA28
:1034C000002220212000FEF7A5FB01221021200070
:1034D000FEF7A0FB06B010BD70B58CB000200090C8
:1034E000DFF8AC02016851F002010160006810F0E1
:1034F000020000900098FFF797FFDFF89842DFF88E
:10350000985225600F2060600020A0604FF6FF7683
:10351000E66000202061200003F026FD4FF480507B
:10352000089008A9200003F020FE302001900296A8
:1035300002200390082004900020059000200690AF
:1035400000200790002201A9200003F0E5FD0022E1
:103550000021280003F0EEFF002200212E20FEF7BC
:1035600006FC2E20FEF714FC7FF0020021680861A3
:103570002068C06850F002002168C8602068406C74
:1035800050F40040216848640CB070BD70B5040070
:103590000D001E0081480078002840F0808092B223
:1035A000002A05D1002220217848FEF733FB04E0F1
:1035B000012220217548FEF72DFB300080B240F635
:1035C000B931884201DB40F6B836300080B24000A5
:1035D000A0422FDAB6B272480660724A704B186881
:1035E000B4EB4000106042F2107045433C20B5FB44
:1035F000F0F142F28E00814230D3186800282DD0BD
:103600001868F1EE001A9FED5E1A01FB00F140F61A
:10361000B830B1FBF0F000EE100AF8EE400A93ED7E
:10362000000AB8EE400A6048FDF7FCFC01205F4943
:10363000087017E0052C07DBB6B2A64204DB2000B9
:10364000401057490860C8E7601E032803D20020D5
:1036500053490860C1E7002CBFD120E0146003206B
:10366000524908700020524908604A4C4E4801886F
:103670002268D1620188E160008880B2400880B28F
:103680002168486301220021434803F053FF2000D2
:1036900003F0A1FC002210213C48FEF7BBFA70BDEC
:1036A00038B50020ADF800003A4C2068C0688007AB
:1036B00064D57FF00205206805613E480168491C19
:1036C00001600068C00759D438490878002849D0FB
:1036D00002282BD002D303281ED04FE0324A3448B0
:1036E000036832F813302568EB62036832F8133050
:1036F000E360036832F81320022392FBF3F223689D
:103700005A630268521C0260006840F6B832904268
:1037100001DB0320087031E022480268521E02607B
:103720000068002801D10220087027E020480268C4
:10373000521E02601C4A036832F813302568EB629F
:10374000036832F81330E360036832F81320022371
:1037500092FBF3F223685A630068012801DA002023
:1037600008700BE0002200210B4803F0E3FE206804
:103770000561012210210548FEF74CFA31BD000019
:10378000003402463038024000080240001802406F
:103790004438024038F9002000040140FCFE0020BB
:1037A00018FE002084FE0020508300200A00002024
:1037B00014FE00201CFE002010B586B000200090F2
:1037C000DFF86003016851F002010160016811F047
:1037D00002010091009900210091016851F020013F
:1037E0000160016811F02001009100990021009111
:1037F000016851F020010160006810F02000009085
:1038000000980220019002200290022004900220E1
:10381000059001A9DFF81003FEF712F94FF480506C
:103820000190012002900220049000200590DFF812
:10383000FC4201A92000FEF703F94FF4005001906B
:1038400001200290022004900020059001A9200090
:10385000FEF7F6F800224FF480512000FEF7DAF967
:1038600001224FF400512000FEF7D4F906B010BD3C
:1038700070B58CB000200090DFF8B402016851F000
:1038800002010160006810F0020000900098FFF74C
:1038900093FFDFF8A042DFF8A05225600F206060A0
:1038A0000020A0604FF6FF76E66000202061200037
:1038B00003F05AFB4FF48050089008A9200003F051
:1038C00054FC3020019002960220039008200490BE
:1038D0000020059000200690002007900C2201A9EE
:1038E000200003F019FC00220C21280003F022FE26
:1038F000002200211D20FEF73AFA1D20FEF748FAAB
:103900007FF01000216808612068C06850F0100046
:103910002168C8602068406C50F400402168486409
:103920000CB070BD70B504000D001E008348007817
:10393000002840F0838092B2002A06D100224FF482
:1039400080517A48FEF766F905E001224FF4805174
:103950007648FEF75FF9300080B240F6B931884210
:1039600001DB40F6B836300080B24000A0422FDACA
:10397000B6B273480660734A714B1868B4EB4000E6
:10398000106042F2107045433C20B5FBF0F142F26A
:103990008E00814230D3186800282DD01868F1EECF
:1039A000001A9FED5F1A01FB00F140F6B830B1FB41
:1039B000F0F000EE100AF8EE400A93ED000AB8EEBF
:1039C000400A6148FDF72EFB01206049087017E0AE
:1039D000052C07DBB6B2A64204DB20004010584994
:1039E0000860C8E7601E032803D20020544908601D
:1039F000C1E7002CBFD121E01460032053490870B7
:103A00000020534908604B4C4F4801882268D1621E
:103A10000188E160008880B2400880B221680864B3
:103A200001220C21444803F085FD200003F0D3FA65
:103A300000224FF400513D48FEF7ECF870BD000045
:103A400038B50020ADF800003A4C2068C068C006C8
:103A500065D57FF01005206805613E480168491C66
:103A600001600068C0075AD438490878002849D056
:103A700002282BD002D303281ED050E0324A34480B
:103A8000036832F813302568EB62036832F81330AC
:103A9000E360036832F81320022392FBF3F22368F9
:103AA0001A640268521C0260006840F6B832904204
:103AB00001DB0320087032E022480268521E0260D7
:103AC0000068002801D10220087028E02048026820
:103AD000521E02601C4A036832F813302568EB62FC
:103AE000036832F81330E360036832F813200223CE
:103AF00092FBF3F223681A640068012801DA0020BF
:103B000008700CE000220C210B4803F013FD206824
:103B1000056101224FF400510448FEF77BF831BDE6
:103B200000340246303802400004024000140240D3
:103B30004038024080F9002000040040FDFE0020D3
:103B400024FE002088FE0020C09A00200B000020E8
:103B500020FE002028FE002038B586B0002000900E
:103B6000DFF86003016851F010010160016811F095
:103B700010010091009900210091016851F020018D
:103B80000160016811F0200100910099002100916D
:103B9000016851F040010160006810F040000090A1
:103BA00000984FF4007001900220029002200490CF
:103BB0000120059001A9DFF81003FDF741FF4FF444
:103BC0000040019001200290022004900020059006
:103BD000DFF8F84201A92000FDF732FF0120019033
:103BE000012002900220049000200590DFF8E052AE
:103BF00001A92800FDF724FF00224FF40041200016
:103C0000FEF708F8012201212800FEF703F807B0AB
:103C100030BD70B58CB000200090DFF8B8020168AC
:103C200051F001010160006810F00100009000985F
:103C3000FFF792FFDFF8A042DFF8A05225600F20C7
:103C400060600020A0604FF6FF76E66000202061F3
:103C5000200003F089F94FF48050089008A9200053
:103C600003F083FA3020019002960220039008208E
:103C7000049000200590002006900020079000226C
:103C800001A9200003F048FA00220021280003F0D7
:103C900051FC002200211B20FEF769F81B20FEF7D3
:103CA00077F87FF00200216808612068C06850F052
:103CB00002002168C8602068406C50F40040216810
:103CC00048640CB070BD000070B504000D001E000B
:103CD00083480078002840F0828092B2002A06D102
:103CE00000224FF400417948FDF794FF05E00122DE
:103CF0004FF400417548FDF78DFF300080B240F66B
:103D0000B931884201DB40F6B836300080B240005D
:103D1000A0422FDAB6B273480660734A714B186836
:103D2000B4EB4000106042F2107045433C20B5FBFC
:103D3000F0F142F28E00814230D3186800282DD075
:103D40001868F1EE001A9FED5E1A01FB00F140F6D3
:103D5000B830B1FBF0F000EE100AF8EE400A93ED37
:103D6000000AB8EE400A6148FDF75CF9012060499D
:103D7000087017E0052C07DBB6B2A64204DB200072
:103D8000401058490860C8E7601E032803D200208D
:103D900054490860C1E7002CBFD120E01460032023
:103DA000534908700020534908604B4C4F48018824
:103DB0002268D1620188E160008880B2400880B248
:103DC0002168486301220021444803F0B3FB20002E
:103DD00003F001F9002201213D48FDF71BFF70BDF2
:103DE00038B50020ADF800003B4C2068C068800763
:103DF00064D57FF00205206805613F480168491CD1
:103E000001600068C00759D439490878002849D0B2
:103E100002282BD002D303281ED04FE0334A354866
:103E2000036832F813302568EB62036832F8133008
:103E3000E360036832F81320022392FBF3F2236855
:103E40005A630268521C0260006840F6B832904221
:103E500001DB0320087031E023480268521E026033
:103E60000068002801D10220087027E0214802687C
:103E7000521E02601D4A036832F813302568EB6257
:103E8000036832F81330E360036832F8132002232A
:103E900092FBF3F223685A630068012801DA0020DC
:103EA00008700BE0002200210C4803F043FB20685F
:103EB0000561012201210648FDF7ACFE31BD00007D
:103EC0000034024630380240001002400014024024
:103ED0000018024044380240C8F9002000000140A8
:103EE000FEFE002030FE00208CFE002030B20020BC
:103EF0000C0000202CFE002034FE002010B586B0FF
:103F000000200090DFF86003016851F001010160BA
:103F1000016811F0010100910099002100910168F0
:103F200051F008010160016811F008010091009949
:103F300000210091016851F008010160006810F053
:103F400008000090009801200190022002900220B9
:103F500004900220059001A9DFF81003FDF770FD21
:103F60004FF4804001900120029002200490002034
:103F70000590DFF8FC4201A92000FDF761FD4FF438
:103F80000040019001200290022004900020059042
:103F900001A92000FDF754FD00224FF480412000CC
:103FA000FDF738FE01224FF400412000FDF732FEFC
:103FB00006B010BD70B58CB000200090DFF8B402E0
:103FC000016851F008010160006810F008000090DD
:103FD0000098FFF793FFDFF8A042DFF8A0522560BA
:103FE0000F2060600020A0604FF6FF76E6600020A2
:103FF0002061200002F0B8FF4FF48050089008A91B
:10400000200003F0B2F830200190029602200390C5
:1040100008200490002005900020069000200790C2
:10402000002201A9200003F077F8002200212800D7
:1040300003F080FA002200213220FDF798FE3220A2
:10404000FDF7A6FE7FF00200216808612068C068C5
:1040500050F002002168C8602068406C50F40040B5
:10406000216848640CB070BD70B504000D001E00DE
:1040700083480078002840F0838092B2002A06D15D
:1040800000224FF480417A48FDF7C4FD05E001228B
:104090004FF480417648FDF7BDFD300080B240F618
:1040A000B931884201DB40F6B836300080B24000BA
:1040B000A0422FDAB6B273480660734A714B186893
:1040C000B4EB4000106042F2107045433C20B5FB59
:1040D000F0F142F28E00814230D3186800282DD0D2
:1040E0001868F1EE001A9FED5F1A01FB00F140F62F
:1040F000B830B1FBF0F000EE100AF8EE400A93ED94
:10410000000AB8EE400A6148FCF78CFF01206049C4
:10411000087017E0052C07DBB6B2A64204DB2000CE
:10412000401058490860C8E7601E032803D20020E9
:1041300054490860C1E7002CBFD121E0146003207E
:10414000534908700020534908604B4C4F48018880
:104150002268D1620188E160008880B2400880B2A4
:104160002168486301220021444803F0E3F920005C
:1041700002F031FF00224FF400413D48FDF74AFDB7
:1041800070BD000038B50020ADF800003A4C206842
:10419000C068800765D57FF00205206805613E484C
:1041A0000168491C01600068C0075AD43849087882
:1041B000002849D002282BD002D303281ED050E07B
:1041C000324A3448036832F813302568EB620368DA
:1041D00032F81330E360036832F81320022392FBB5
:1041E000F3F223685A630268521C0260006840F6CA
:1041F000B832904201DB0320087032E022480268A6
:10420000521E02600068002801D10220087028E0D8
:1042100020480268521E02601C4A036832F81330BC
:104220002568EB62036832F81330E360036832F804
:104230001320022392FBF3F223685A6300680128DB
:1042400001DA002008700CE0002200210B4803F086
:1042500071F92068056101224FF400410448FDF71F
:10426000D9FC31BD00340246303802400000024023
:10427000000C02404038024010FA0020000C0040C0
:10428000FFFE00203CFE002090FE0020A0C9002080
:104290000D00002038FE002040FE002030B4DFF882
:1042A000B805C821A0F8281240F2E471A0F804155E
:1042B00040F2C341A0F806150021A0F82012002109
:1042C000DFF8982511700121DFF894251170002185
:1042D000DFF8902511800021DFF88C251180002166
:1042E000DFF8882511800021DFF884251180002166
:1042F000DFF8802511800021DFF87C251180002166
:10430000DFF8782511700021DFF874251170002185
:10431000DFF8702511700021DFF86C251170002185
:10432000DFF8682511700021DFF864251170002185
:10433000DFF8602511700121DFF85C251170012183
:10434000DFF858251170DFF858150022C1F8C82091
:104350000022DFF850351A700122C1F840210122F5
:10436000DFF844351A7044F2A0120A44DFF83C35F5
:104370001A601B68DFF8384523600023C1F8BC31A0
:104380000023C1F8C0310023C1F8D4310023C1F8A3
:10439000D8310023C1F8DC310023C1F8E03100231B
:1043A000C1F8E4310023C1F8E8310023DFF8044507
:1043B00023700023C1F838310023C1F830310023C5
:1043C000C1F894330023C1F81C320023C1F8203215
:1043D0000023C1F824320023C1F828320023C1F899
:1043E0002C320023C1F830320023C1F804320023FC
:1043F000C1F808320023C1F80C320023C1F8103292
:104400000023C1F814320023C1F818320023C1F888
:104410004C320023C1F850320023C1F8543200233B
:10442000C1F858320023C1F85C320023C1F8603271
:104430000023DFF8844423700123A0F8EC3100232B
:10444000A0F8BE310023C1F888330023A0F86631FC
:104450000123A0F8EA310023DFF860442360002341
:10446000DFF85C4423600023DFF858442360002316
:10447000DFF8544423600023DFF850442360002316
:10448000DFF84C4423600023DFF848442360002316
:10449000DFF8444423600023DFF840442360002316
:1044A000DFF83C4423600023DFF838442360002316
:1044B000DFF8344423600023C1F8D8330023DFF849
:1044C0002C4423700023DFF8284423700023DFF8F6
:1044D000244423700023DFF8204423700023DFF8F6
:1044E0001C4423700023DFF8184423700023C1F814
:1044F000E0330023DFF80C44237043F6F04301EB74
:104500000304012306E0502505FB03F5254445F887
:10451000503C5B1C102BF6DB012306E0A02404FBBF
:1045200003F4144444F8A03C5B1C1F2BF6DB01226F
:10453000C1F80C240122C1F810240122C1F814246E
:104540000122C1F818240122C1F81C240122C1F85B
:1045500020240022DFF8B0331A700022DFF8AC33D9
:104560001A700022DFF8A8331A700022DFF8A43393
:104570001A700022DFF8A0331A700022DFF89C3393
:104580001A700022DFF898331A700022A0F8E82091
:104590000022A0F8EA200022A0F8EC200022A0F8D7
:1045A000EE200022A0F8F0200022A0F8F220002047
:1045B000C1F894040020C1F898040020C1F89C04BC
:1045C00030BC704770477047A349B1F828010128F3
:1045D00006D0B1F82801022802D00120A1F8280154
:1045E000B1F81A01B0F5166F1CD0B1F81A01B0F588
:1045F000965F17D0B1F81A01B0F5165F12D0B1F876
:104600001A01B0F5964F0DD0B1F81A01B0F5164F5A
:1046100008D0B1F81A01B0F5614F03D04FF46140F2
:10462000A1F81A01B1F81C01B0F5166F1CD0B1F851
:104630001C01B0F5965F17D0B1F81C01B0F5165FFC
:1046400012D0B1F81C01B0F5964F0DD0B1F81C0195
:10465000B0F5164F08D0B1F81C01B0F5614F03D08A
:104660004FF46140A1F81C01B1F81E01B0F5166FBE
:104670001CD0B1F81E01B0F5965F17D0B1F81E013D
:10468000B0F5165F12D0B1F81E01B0F5964F0DD0FF
:10469000B1F81E01B0F5164F08D0B1F81E01B0F503
:1046A000614F03D04FF46140A1F81E01B1F8300111
:1046B000B0F5166F1CD0B1F83001B0F5965F17D089
:1046C000B1F83001B0F5165F12D0B1F83001B0F595
:1046D000964F0DD0B1F83001B0F5164F08D0B1F8B3
:1046E0003001B0F5614F03D04FF46140A1F83001C3
:1046F000B1F83201B0F5166F1CD0B1F83201B0F547
:10470000965F17D0B1F83201B0F5165F12D0B1F84C
:104710003201B0F5964F0DD0B1F83201B0F5164F19
:1047200008D0B1F83201B0F5614F03D04FF46140C9
:10473000A1F832015A4AD2F80402B0F5803F02DBF8
:104740000020C2F80402D2F80802B0F5803F02DB74
:104750000020C2F80802D2F80C02B0F5803F02DB5C
:104760000020C2F80C02D2F81002B0F5803F02DB44
:104770000020C2F81002D2F81402B0F5803F02DB2C
:104780000020C2F81402D2F81802B0F5803F02DB14
:104790000020C2F81802088E062802DA088E0028C7
:1047A00001D101200886D2F88C03012802DA012009
:1047B000C2F88C03D2F88C03102802DB0F20C2F859
:1047C0008C03D2F88403012802DA0120C2F88403A2
:1047D000D2F884031F2802DB1E20C2F88403D2F81B
:1047E0007404012802DA0120C2F87404D2F87404B7
:1047F00040F2F513984203DB4FF4FA70C2F87404E8
:10480000B1F83E01002802D10120A1F83E01B1F823
:104810004001002802D10220A1F84001B1F8420174
:10482000002802D10320A1F84201B1F84401002878
:1048300002D10420A1F84401B1F84601002802D1B8
:104840000520A1F84601B1F84801002802D1062050
:10485000A1F848017047000010E1002000FF00208F
:1048600001FF0020A8FE0020B8FE0020C8FE0020A6
:10487000D8FE0020E8FE0020F8FE00200BFF0020FC
:104880000AFF002003FF002007FF002005FF002093
:1048900006FF002004FF002009FF00200DFF00207C
:1048A0001000002008FF002002FF002044FE00202E
:1048B00048FE00200CFF00200FFF00204CFE0020CF
:1048C00050FE002054FE002058FE00205CFE002018
:1048D00060FE002064FE002068FE00206CFE0020C8
:1048E00070FE002074FE002078FE002011FF0020E2
:1048F00012FF002013FF002014FF002015FF0020EE
:1049000016FF002010FF002017FF002018FF0020D6
:1049100019FF00201AFF00201BFF00201CFF0020B1
:104920001DFF00202DE9FC410400002C01D10120D5
:10493000C4E12078C0075FD5DFF88403016811F077
:104940000C01042909D0006810F00C0008280ED1D1
:10495000DFF870030068400209D5DFF86C030068D7
:10496000800349D56068002846D10120A6E160682F
:10497000B0F5803F06D1DFF85003016851F4803173
:10498000016018E06068B0F5A02F0AD1DFF83803A5
:10499000016851F480210160016851F480310160A7
:1049A00009E0DFF82403016831F480310160016817
:1049B00031F480210160606800280ED0FCF7ACFA69
:1049C0000500DFF804030068800315D4FCF7A4FA9F
:1049D000401B6528F5D3032070E1FCF79DFA050024
:1049E000DFF8E4020068800306D5FCF795FA401B67
:1049F0006528F5D3032061E1207880071DD5B048F4
:104A0000016811F00C0F08D0006810F00C000828A5
:104A10002AD1AC480068400226D4AB480168890717
:104A200004D5E168012901D0012047E1016831F096
:104A3000F801226951EAC20101602078000751D5CE
:104A4000606900283DD00120A0490860FCF764FAA5
:104A500005009F480068800744D4FCF75DFA401BBE
:104A60000328F6D3032029E1E068002818D00120AC
:104A700098490860FCF750FA0500934801688907D7
:104A800006D4FCF749FA401B0328F6D3032015E1AE
:104A9000016831F0F801226951EAC2010160CCE7F6
:104AA00000208C490860FCF737FA0500864800684A
:104AB0008007C2D5FCF730FA401B0328F6D3032049
:104AC000FCE0002081490860FCF726FA05008048D8
:104AD0000068800706D5FCF71FFA401B0328F6D3B1
:104AE0000320EBE0207840076FD500267A4D286838
:104AF000C0000BD400200090286850F0805028603F
:104B0000286810F08050009000980126734F386894
:104B1000C00511D4386850F480703860FCF7FCF997
:104B200080463868C00507D4FCF7F6F9B0EB0800FA
:104B30000328F6D30320C1E0A068012805D1684806
:104B4000016851F00101016015E0A068052809D154
:104B50006348016851F004010160016851F00101EE
:104B6000016008E05E480168490849000160016889
:104B700031F004010160A06800280FD0FCF7CCF9E7
:104B8000070057480068800718D4FCF7C5F9C01B18
:104B900041F289318842F4D303208FE0FCF7BCF95D
:104BA00007004F480068800708D5FCF7B5F9C01B1F
:104BB00041F289318842F4D303207FE0F6B2012E1E
:104BC00003D1286830F080502860A069002874D094
:104BD0003B48006810F00C00082843D0A069022868
:104BE0002FD1404E00203060FCF796F90700364D7B
:104BF0002868800106D5FCF78FF9C01B0328F6D37F
:104C000003205BE0E169206A0143606A51EA801198
:104C1000A06A4008401E51EA0041E06A51EA006182
:104C20002848016001203060FCF776F9040028680C
:104C3000800142D4FCF770F9001B0328F7D303204E
:104C40003CE0002027490860FCF766F904001E4894
:104C50000068800131D5FCF75FF9001B0328F6D30B
:104C600003202BE0A069012801D1012026E015488E
:104C70000068A16901291ED010F48001E269914207
:104C800019D110F03F01226A914214D147F6C07148
:104C90000140626AB1EB821F0DD110F44031A26A6B
:104CA0005208521EB1EB024F05D110F07060E16A5C
:104CB000B0EB016F01D0012000E00020BDE8F681DB
:104CC000083802400438024000380240800E474253
:104CD00074380240000047424038024000700040F3
:104CE000703802406000474280B50122102105481B
:104CF000FCF790FF01BD80B5002210210148FCF7B0
:104D000089FF01BD0000024038B504000D00FFF727
:104D1000F2FF15EB041530352800C0B2FDF735FB66
:104D20000020FDF732FB0400FFF7DEFF2000C0B2D9
:104D300032BD70B504000D001600FFF7DCFFE4B2D1
:104D40002401B0342000C0B2FDF71FFB002406E0B0
:104D50000020FDF71AFB2100C9B26854641C200032
:104D6000C0B2B042F4D3FFF7BFFF70BD2DE9F041F0
:104D700004000D0000200020002000205FF000084B
:104D800008212000C0B2FFF7BFFF10F0030F2AD0A8
:104D90000B212000C0B2FFF7B7FF07000A21200057
:104DA000C0B2FFF7B1FF06000A212000C0B2FFF732
:104DB000ABFF39070FD501003200C9B2D2B2914220
:104DC00000D206003000C0B2002802D14FF4807833
:104DD00001E0F6B2B046424629002000C0B2FFF71B
:104DE000A8FF404600E00020BDE8F081F8B50024AF
:104DF000DFF878542888002800F08480DFF87004F9
:104E0000DFF870140A8803789BB29A427AD000784F
:104E10000880DFF864040188491C018001880629A4
:104E200070DBDFF8586429883180002101803088E8
:104E3000B0F5807F5CDADFF848743878DFF8441426
:104E4000B1F83E1180B2884253D13088811EC9B278
:104E5000380000F0E9F9010089B2090A32883A44C1
:104E600012F8022CC9B2914240D13188394411F86C
:104E7000011CC0B2884239D1787803280CD10120B6
:104E8000DFF804140870B87880B20002F97840188E
:104E9000DFF8F81308802CE0787810280CD1012076
:104EA000DFF8EC130870B87880B20002F978401887
:104EB000DFF8D81308801CE07878012804D101209D
:104EC000DFF8D013087014E0787806280CD10120A0
:104ED000DFF8C4130870B87880B20002F97840187F
:104EE000DFF8A813088004E0012402E0022400E0B7
:104EF00004240122DFF8A413DFF8A403FBF7E5F98B
:104F000000202880E4B2002C13D0002006E000210D
:104F1000DFF86C2303009BB2D154401C010089B21E
:104F20001429F4DB0122DFF87413DFF87403FBF7B4
:104F3000CCF9F1BD2DE9F0410021DFF84C43207898
:104F4000002800F09580DFF85C53CD480178297087
:104F5000417869704179C9B24900A970CB490A8882
:104F6000B2F5006F29DAC74AB2F82831012B24D1F3
:104F70002B000026370090F805C0FFB2674550D2DD
:104F80000F8802EB4707B4465FFA8CFC37F81C70B9
:104F9000BC461FFA8CFC5FEA1C2CB6465FFA8EFEFC
:104FA00003EB4E0E8EF803C0B4465FFA8CFC03EBA5
:104FB0004C0C8CF80470761CDCE70A8841F28833CC
:104FC0009A422EDBAF4AB2F82821012A29D1B64AEB
:104FD0002B0000261FE00F8802EB8707B4465FFA1C
:104FE0008CFC07EB8C07DFF8C4C257F80C70BC468A
:104FF0001FFA8CFC5FEA1C2CB6465FFA8EFE03EBB0
:105000004E0E8EF803C0B4465FFA8CFC03EB4C0CDA
:105010008CF80470761C370090F805C0FFB2674525
:10502000D9D3A34EA978C91CC9B2280000F0FCF856
:105030003080308880B2000AA9782944C87030884E
:10504000A978294408719B48A978491D018000214D
:1050500021700021984A11804FF6FF7302882900C1
:105060008F48FBF7CCF820219448FCF7DDFDD9E010
:10507000874C2078002804D187480078002800F069
:10508000D180824A108841F27173984201DA01217D
:1050900005E07C48408AB0F5FA6F00D10121080094
:1050A000C0B2002800F08C8010882D38072806D266
:1050B00010882D38824B18800120824B187076485A
:1050C0000078002820D01088B0F5006F0ADA6C4B09
:1050D000187980B200025B79C0186A4B128823F8F5
:1050E00012006DE0108841F28833984268DB644B0F
:1050F000187980B200025B79C0186B4B128803EB01
:1051000082026A4BD0505BE02078002858D05C487F
:105110004379642B54DA1388B3F5006F23DA030064
:10512000584D0026370090F805C0FFB2674547D2BA
:105130003700FFB203EB4707FF79B4465FFA8CFCF8
:1051400003EB4C0C9CF808C0B2F800E005EB4E0EE7
:10515000B0465FFA88F8BFB23F0217FA8CF72EF814
:105160001870761CDEE7138841F28835AB4227DBE6
:1051700003004D4D00261DE03700FFB203EB47074B
:10518000FF79B4465FFA8CFC03EB4C0C9CF808C02A
:10519000B2F800E005EB8E0EB0465FFA88F80EEB31
:1051A000880EDFF80881BFB23F0217FA8CF74EF87D
:1051B0000870761C370090F805C0FFB26745DBD356
:1051C000384D022028702E4842786A708278AA7082
:1051D000C278EA7002792A7140796871C9B20029EF
:1051E00002D1FF2028716871314E0621280000F09D
:1051F0001BF83080308880B2000AA8713088E871CE
:105200002C4808210180002121700021224A1170C0
:105210000021294A11804FF6FF7302882900204897
:10522000FAF7EDFFBDE8F08130B40A00FF231C005F
:10523000002100210CE001784C402500401C1C009E
:1052400021492B00DBB2C95C4C402049EDB24B5DDB
:1052500011004A1EC9B20029EDD1E4B2DBB253EA13
:105260000423180080B230BC704700009AFE002072
:10527000E8FD0020A6FE0020A8FE00209EFE0020E3
:10528000A0E8002010E100201FFF0020A4FE002065
:1052900020FF002021FF002022FF00201EFF002011
:1052A000D8FC0020A0E7002010000020E0B1FFFFA4
:1052B000A2FE0020A0FE00209CFE0020000C024068
:1052C00098FE00200EFF002060760008607700083E
:1052D000F8B50024DFF82C542888002800F08480DA
:1052E000DFF82404DFF824140A8803789BB29A427A
:1052F0007AD000780880DFF818040188491C018002
:105300000188062970DBDFF80C64298831800021D0
:1053100001803088B0F5807F5CDADFF8FC73387884
:10532000DFF8F813B1F8401180B2884253D13088C9
:10533000811EC9B23800FFF777FF010089B2090A60
:1053400032883A4412F8022CC9B2914240D13188D5
:10535000394411F8011CC0B2884239D17878032849
:105360000CD10120DFF8B8130870B87880B20002C1
:10537000F9784018DFF8AC1308802CE07878102812
:105380000CD10120DFF8A0130870B87880B20002B9
:10539000F9784018DFF88C1308801CE07878012831
:1053A00004D10120DFF88413087014E0787806280F
:1053B0000CD10120DFF878130870B87880B20002B1
:1053C000F9784018DFF85C13088004E0012402E05B
:1053D000022400E004240122DFF85813DFF8580308
:1053E000FAF773FF00202880E4B2002C10D00020D0
:1053F00005E00021C84A03009BB2D154401C0100C3
:1054000089B21429F5DB0122CA49CB48FAF75DFFBE
:10541000F1BD2DE9F0410021C14C2078002800F0B9
:105420009480C64DBC4801782970417869704179F3
:10543000C9B24900A970BB490A88B2F5006F29DAE0
:10544000B64AB2F82831012B24D12B0000263700B0
:1054500090F805C0FFB2674550D20F8802EB4707AE
:10546000B4465FFA8CFC37F81C70BC461FFA8CFC03
:105470005FEA1C2CB6465FFA8EFE03EB4E0E8EF8EA
:1054800003C0B4465FFA8CFC03EB4C0C8CF8047040
:10549000761CDCE70A8841F288339A422EDB9F4A69
:1054A000B2F82821012A29D1A54A2B0000261FE0A5
:1054B0000F8802EB8707B4465FFA8CFC07EB8C077A
:1054C000DFF880C257F80C70BC461FFA8CFC5FEA0C
:1054D0001C2CB6465FFA8EFE03EB4E0E8EF803C010
:1054E000B4465FFA8CFC03EB4C0C8CF80470761C11
:1054F000370090F805C0FFB26745D9D3924EA9781E
:10550000C91CC9B22800FFF78FFE3080308880B2F6
:10551000000AA9782944C8703088A97829440871FC
:105520008A48A978491D0180002121700021884AFC
:1055300011804FF6FF73028829007F48FAF75FFE5B
:1055400010218448FCF770FBD9E0774C20780028C4
:1055500004D177480078002800F0D180714A108883
:1055600041F27173984201DA012105E06B48408AEB
:10557000B0F5FA6F00D101210800C0B2002800F098
:105580008C8010882D38072806D210882D38724B51
:1055900018800120714B187065480078002820D0D1
:1055A0001088B0F5006F0ADA5B4B187980B2000200
:1055B0005B79C018594B128823F812006DE01088EF
:1055C00041F28833984268DB534B187980B200026D
:1055D0005B79C0185A4B128803EB8202594BD050AA
:1055E0005BE02078002858D04B484379642B54DA8C
:1055F0001388B3F5006F23DA0300484D0026370007
:1056000090F805C0FFB2674547D23700FFB203EB01
:105610004707FF79B4465FFA8CFC03EB4C0C9CF80F
:1056200008C0B2F800E005EB4E0EB0465FFA88F80D
:10563000BFB23F0217FA8CF72EF81870761CDEE71F
:10564000138841F28835AB4227DB03003C4D00262E
:105650001DE03700FFB203EB4707FF79B4465FFA5E
:105660008CFC03EB4C0C9CF808C0B2F800E005EB96
:105670008E0EB0465FFA88F80EEB880EDFF8C48015
:10568000BFB23F0217FA8CF74EF80870761C37004D
:1056900090F805C0FFB26745DBD3284D0220287083
:1056A0001D4842786A708278AA70C278EA700279DE
:1056B0002A7140796871C9B2002902D1FF2028718E
:1056C0006871214E06212800FFF7AEFD308030883A
:1056D00080B2000AA8713088E8711C480821018056
:1056E000002121700021124A11700021184A1180F6
:1056F0004FF6FF73028829000F48FAF780FDBDE8D6
:10570000F0810000AAFE0020E8FD0020B6FE002087
:10571000B8FE0020AEFE0020A0EA002010E100202C
:1057200024FF0020B4FE002025FF002026FF0020DB
:1057300027FF002023FF00201CFD0020A0E90020FF
:1057400010000020E0B1FFFFB2FE0020B0FE0020FC
:10575000ACFE0020000C024098FE00200EFF00204E
:10576000F8B50024DFF82C542888002800F0848045
:10577000DFF82404DFF824140A8803789BB29A42E5
:105780007AD000780880DFF818040188491C01806D
:105790000188062970DBDFF80C642988318000213C
:1057A00001803088B0F5807F5CDADFF8FC733878F0
:1057B000DFF8F813B1F8421180B2884253D1308833
:1057C000811EC9B23800FFF72FFD010089B2090A16
:1057D00032883A4412F8022CC9B2914240D1318841
:1057E000394411F8011CC0B2884239D178780328B5
:1057F0000CD10120DFF8B8130870B87880B200022D
:10580000F9784018DFF8AC1308802CE0787810287D
:105810000CD10120DFF8A0130870B87880B2000224
:10582000F9784018DFF88C1308801CE0787801289C
:1058300004D10120DFF88413087014E0787806287A
:105840000CD10120DFF878130870B87880B200021C
:10585000F9784018DFF85C13088004E0012402E0C6
:10586000022400E004240122DFF85813DFF8580373
:10587000FAF72BFD00202880E4B2002C10D0002085
:1058800005E00021C84A03009BB2D154401C01002E
:1058900089B21429F5DB0122CA49CB48FAF715FD74
:1058A000F1BD2DE9F0410021C14C2078002800F025
:1058B0009480C64DBC48017829704178697041795F
:1058C000C9B24900A970BB490A88B2F5006F29DA4C
:1058D000B64AB2F82831012B24D12B00002637001C
:1058E00090F805C0FFB2674550D20F8802EB47071A
:1058F000B4465FFA8CFC37F81C70BC461FFA8CFC6F
:105900005FEA1C2CB6465FFA8EFE03EB4E0E8EF855
:1059100003C0B4465FFA8CFC03EB4C0C8CF80470AB
:10592000761CDCE70A8841F288339A422EDB9F4AD4
:10593000B2F82821012A29D1A54A2B0000261FE010
:105940000F8802EB8707B4465FFA8CFC07EB8C07E5
:10595000DFF880C257F80C70BC461FFA8CFC5FEA77
:105960001C2CB6465FFA8EFE03EB4E0E8EF803C07B
:10597000B4465FFA8CFC03EB4C0C8CF80470761C7C
:10598000370090F805C0FFB26745D9D3924EA97889
:10599000C91CC9B22800FFF747FC3080308880B2AC
:1059A000000AA9782944C8703088A9782944087168
:1059B0008A48A978491D0180002121700021884A68
:1059C00011804FF6FF73028829007F48FAF717FC11
:1059D00008218448FCF728F9D9E0774C2078002882
:1059E00004D177480078002800F0D180714A1088EF
:1059F00041F27173984201DA012105E06B48408A57
:105A0000B0F5FA6F00D101210800C0B2002800F003
:105A10008C8010882D38072806D210882D38724BBC
:105A200018800120714B187065480078002820D03C
:105A30001088B0F5006F0ADA5B4B187980B200026B
:105A40005B79C018594B128823F812006DE010885A
:105A500041F28833984268DB534B187980B20002D8
:105A60005B79C0185A4B128803EB8202594BD05015
:105A70005BE02078002858D04B484379642B54DAF7
:105A80001388B3F5006F23DA0300484D0026370072
:105A900090F805C0FFB2674547D23700FFB203EB6D
:105AA0004707FF79B4465FFA8CFC03EB4C0C9CF87B
:105AB00008C0B2F800E005EB4E0EB0465FFA88F879
:105AC000BFB23F0217FA8CF72EF81870761CDEE78B
:105AD000138841F28835AB4227DB03003C4D00269A
