:020000040800F2
:10000000008A0020D9670008A5650008A7650008D8
:10001000A9650008AB650008AD6500080000000098
:10002000000000000000000000000000AF650008B4
:10003000B165000800000000B3650008B565000860
:100040000D680008116800081568000819680008A4
:100050001D68000821680008E1650008256800089F
:10006000296800082D680008316800083568000814
:10007000396800083D6800084168000845680008C4
:10008000496800084D680008516800085568000874
:10009000596800085D680008616800086568000824
:1000A00069680008E76500086D6800087168000865
:1000B000F565000803660008116600087568000809
:1000C000796800087D680008816800088568000874
:1000D000896800081F660008256600082B6600086E
:1000E0008D68000891680008956800089968000804
:1000F000316600089D680008A1680008A56800082E
:10010000A9680008AD6800083F660008B1680008EB
:100110004D6600085366000859660008B568000877
:10012000B9680008BD680008C1680008C568000813
:10013000C9680008CD680008D1680008D5680008C3
:10014000D9680008DD680008E1680008E568000873
:10015000E9680008ED680008F168000863660008B7
:10016000F5680008F9680008FD68000801690008E2
:1001700005690008096900080D6900080000000011
:1001800011690008156900082DE9F34F002100915D
:10019000A0F1010B8E46BBF1050F4FF08041DFF857
:1001A000D437DFF8D447DFF8D457DFF8D467DFF867
:1001B000E4A8DFF8E4885ED8DFE80BF00311202F15
:1001C0003E4DDFF8D8E801278EF80770CEF85010C2
:1001D00000278EF806700AF5BC7957464BE0DFF829
:1001E000C0E802278EF80770CEF8503000278EF84E
:1001F00006700AF58D690AF53C773CE0DFF8A4E863
:1002000003278EF80770CEF8504000278EF806704E
:100210000AF5EB690AF5BC672DE0DFF88CE80427E6
:100220008EF80770CEF8505000278EF806700AF648
:1002300048290AF50D671EE0DFF888E805278EF8E3
:100240000770CEF8506000278EF806700AF638590D
:100250000AF53C670FE0DFF870E806278EF80770B4
:1002600041F2280C00278EF80670CEF850800AF56F
:100270006B670AEB0C09072856DA002854D09DF862
:1002800004008EF80400CEF834205043CEF83C0031
:100290005E22AEF818200020CEF83000CEF83800EC
:1002A0005D22AEF814008EF80500CEF81C00CEF8E2
:1002B0002000AEF81A20CEF80C70CEF810900098FE
:1002C00009E0DEF81070DEF81C2037F810703A44B0
:1002D000CEF81C20401CBEF818209042F1D300201C
:1002E0000CE0DEF810C0BEF81870DEF82020C71948
:1002F0003CF817703A44CEF82020401CBEF81A2073
:100300009042EED3DEF80C20DEF850001288C26274
:10031000DEF85000B0F1804F07D1DEF80C00008805
:100320004008886300224A6232E0984207D1DEF832
:100330000C000088400858630021596228E0A04260
:1003400007D1DEF80C00008840086063002161627C
:100350001EE0A84207D1DEF80C000088400828649F
:100360000021696214E0B04207D1DEF80C00008879
:1003700040087063002171620AE0404508D1DEF850
:100380000C0000884008C8F834000021C8F8241088
:10039000BDE8F38FF0B504460022002300200021C1
:1003A00000260027641E052C00F2C680DFE804F05A
:1003B000031114171A1DDFF8E4C6DCF81C50DCF832
:1003C00020E0DCF828407544AC425CD3BCF818400F
:1003D0001BE0DFF8CCC6F0E7DFF8C8C6EDE7DFF8D2
:1003E000C8C6EAE7DFF8DCC6E7E7DFF8DCC6E4E723
:1003F000DCF81000DCF80C1030F8170031F817109A
:100400004843121843EBE0737F1CA742F0DB002542
:100410000DE0DCF81000DCF80C10661930F816005E
:1004200031F816104843121843EBE0736D1CBCF80A
:100430001A008542EDDBDCF80C50DCF82800DCF813
:100440001C1005EB4404401A34F8021CA0EB0E000B
:10045000484300211018DCF82820A2EB0E02594175
:10046000CCF8242064E000F068F8121943EBE47340
:1004700000F063F8001941EBE471DCF8104034F847
:10048000174036197F1CDCF81050DCF8284035F88E
:10049000175064087519AC42E5D210185941DCF8C0
:1004A0001030DCF8284033F81730A4EB4604A342A0
:1004B0002ED2DCF81030DCF82840A4EB460423F8F8
:1004C00017400023CCF81C30CCF8203009E0DCF8D1
:1004D0001050DCF81C4035F813506419CCF81C405F
:1004E0005B1CBCF81840A342F1DB00230CE0DCF8F5
:1004F0001050BCF818E0DCF820409E4435F81E503F
:100500006419CCF820405B1CBCF81A40A342EEDB17
:10051000DCF80C30DCF8284003EB4703A4EB460280
:100520001B885A43002380185941A61BCCF824602D
:10053000CCF84800CCF84C10F0BDDCF81040DCF8EA
:100540000C5034F8174035F817506C4370470000D2
:100550000022411E052900D9704738B5DFE801F0B7
:10056000030C0F121518DFF8341500258A608A82F3
:100570004D71CA610A6215E0DFF82415F5E7DFF86E
:100580002415F2E7DFF82015EFE7DFF83815ECE780
:10059000DFF83415E9E70C69CB6934F812401B1910
:1005A000CB61521C0B8B9A42F5DB002208E00C69F0
:1005B0000D8B0B6A551934F815401B190B62521C30
:1005C0004B8B9A42F3DBCB680A6D1B88D3620A6DB2
:1005D000B2F1804F06D1CA68DFF8F03412885208B1
:1005E0005A612CE0DFF88C339A4203D1CA68DFF8F5
:1005F000603521E0DFF880339A4203D1CA68DFF822
:10060000543519E0DFF874339A4206D1CA68DFF82E
:10061000483512885208DA6111E0DFF864339A42F3
:1006200003D1CA68DFF8343506E0DFF86C349A424B
:1006300007D1CA68DFF8B836128852081A61002458
:100640001C6000230A6DD26A0A644B64BDE8324024
:10065000A0E631BDF8B52DED0A8BB0EE608AF0EE64
:10066000418AB0EE619AF0EE429AB0EE62AA10EEC4
:10067000100A00F09DFCB5EE40AAF1EE10FAA4BFFE
:10068000F4EE4A8AF1EE10FA41EC1B0B0EDB00F09F
:100690009DF800F0B5F800F0A7F800F09BF800F026
:1006A000A3F800F097F853EC1B2B27E0F4EE4A8AEE
:1006B000F1EE10FA38EE890A23D500F07EF820DB3F
:1006C00000F084F800F09CF800F094F800F082F854
:1006D00000F090F800F07EF853EC1B2B00F08CFC3F
:1006E0003AEE680A20EE080A044620EE280A0D4673
:1006F00010EE100A00F05CFC22462B4600F07CFC59
:1007000051E000F05AF853D530EE290A00F055F8C0
:100710004EDB30EE4ACA00F059F800F071F800F0F4
:1007200069F800F057F841EC1A0B18EE900A00F047
:100730003FFC00F047F853EC1B2B00F05DFC69EE2A
:10074000080A044660EEA80A0D4610EE900A00F072
:100750002FFC22462B4600F04FFC00F03FF800F043
:1007600031F822462B4600F047FC06460F461CEEA9
:10077000100A00F01DFC00F025F804460D461CEEA2
:10078000100A00F015FC00F025F800F027F80246EA
:100790000B462046294600F009FD02460B4630462E
:1007A000394600F027FE00F097FE00EE100A01E047
:1007B0009FED6E0ABDEC0A8BF1BDB4EE4A0AF1EE74
:1007C00010FA704753EC1A2B00F0BABE18EE100A5C
:1007D00000F0EEBB22462B4600F0B2BE04460D46AA
:1007E00019EE900A00F0E4BB04460D461AEE100A1A
:1007F00000F0DEBB04460D4618EE900A00F0D8BBB0
:100800000022DFF86C3500F09BBE000070B52DEDC6
:10081000088BF0EE408AB0EE608A80B2F0EE41BA0A
:1008200000EE100AF3EE0F0AB0EE42BA0C4615467F
:100830000026B8EE409ACBEEA09AF0EE61AA00EE48
:10084000106AB8EEC00A69EE802A00F06DF8DFED9C
:10085000480AC0EE800AFDEEE00A29EE800A10EE9A
:10086000900A80EE090A24F81600BDEEC00A10EEC8
:10087000101A25F81610761C1F2EE0DBB3EE0F0AB7
:100880001F26CAEE809AA6F11F0000EE900AF8EE2D
:10089000E00AF0EE6B2A00F045F800F051F83E2E29
:1008A000F1DBB3EE0F0A3E26CBEE009A3BEEAAAA8E
:1008B000A6F13E0000EE900AF8EEE00AF0EE4A2AB9
:1008C00000F030F800F03CF85D2EF1DB7AEE0B2AF8
:1008D00000F02AF8DFED260AC0EE800A29EE800A31
:1008E000FDEEE00A80EE090A10EE900ABDEEC00AA5
:1008F000A4F8BA0010EE101AA5F8BA105E20414212
:1009000004EB410205EB4101B2F8743124F81030D8
:10091000B1F8742125F81020401CBA28EFDDBDEC99
:10092000088B70BD49EEA02AB0EE4B2AF0EE6A1A91
:10093000B0EE6B1AF0EE480AB0EE680A8AE60000E4
:100940009FED0B1A81EE001ABDEEC11A29EE800A46
:1009500011EE101A80EE090A24F81610BDEEC00A36
:1009600010EE100A25F81600761C704700000000F3
:10097000A037204B00080040000401400004004064
:1009800000000140D0B51600034629D000245B1EAC
:10099000052BDFF8C8050F4622D8DFE803F0032255
:1009A0003546576800290CBF00220122DFF8B00548
:1009B000022100F075FF3949012008704F700122B3
:1009C0008A70CC620C644C64087946438E620120C4
:1009D000FFF7BEFD4FF08040016841F0010101606A
:1009E000D0BD012FDFF87C050CBF002201224FF49F
:1009F000807100F055FF2A4900F058F80220FFF7F7
:100A0000A7FDDFF86405E7E7DFF860053A4607B1C0
:100A10000122202100F044FF224900F047F8032082
:100A2000FFF796FDDFF84805D6E700290CBF002246
:100A300001224FF4805100F033FF1B4900F036F8DB
:100A40000420FFF785FDDFF82C05C5E700290CBF62
:100A5000002201224FF4004100F022FF194900F06A
:100A600025F80520FFF774FDDFF80C05B4E7DFF883
:100A70000C053A4607B101224FF4804100F010FF07
:100A8000114900F013F80620FFF762FDDFF8F004CB
:100A9000A2E7000070540020000C0040BC7D002044
:100AA000107E0020647E0020B87E002001200870A7
:100AB0004F708870CC620C644C64087946438E6237
:100AC000704700000C7F0020607F00202400004061
:100AD00010B588B000200090DFF8A844DFF8A80423
:100AE00000F008F900F00AFF4FF080402060072175
:100AF0004FF47A700022E0606160A26022612046BB
:100B000000F058FF00F0CDF80422204600F09CFFD2
:100B1000012204214FF0804001F097F900220021CA
:100B20001C2001F0BBF91C2001F0D5F920686FF002
:100B300001010161C26842F00102C260204600F07A
:100B400046FF2068416C41F40041416408B010BD8B
:100B500024080040240401402404004024000140F3
:100B600038B588B000200090DFF82044DFF8180482
:100B7000DFF8F453016841F004010160006800F0FF
:100B800004000090009801F0D1F900F01AF800215B
:100B9000029160200821049101904FF4807100229D
:100BA000069103920592079201A9204600F04CFF9E
:100BB00000F0AAF8002200211E2001F06FF91E208B
:100BC00025E00720606000214FF47A70E060A160AA
:100BD00021612560204600F0EDBE38B588B00020C8
:100BE0000090DFF8AC43DFF8AC03E14D00F04FF8C4
:100BF00001F0F8F90F20FFF7E5FF00F08AF800F0A8
:100C000083F8002200212C2001F048F92C2001F06B
:100C100062F920686FF001010161C26842F00102CF
:100C2000C260204600F0D3FE2068416C41F40041D0
:100C3000416409B030BD38B588B000200090D64C72
:100C4000D148CC4D00F023F801F01EFAFFF7B9FFB0
:100C500000F027F80C22204600F0F6FE01220C21BD
:100C6000284601F0F2F8002200211D2001F016F9BB
:100C70001D2001F030F920686FF0100101616FF064
:100C800001020261C16841F00101C160C9E7016868
:100C900041F002010160006800F00200009000983D
:100CA00070470021029160200022082101900392E8
:100CB000049105920692079201A9704738B588B051
:100CC00000200090B54CB348AB4D00F013F801F094
:100CD0002FFA0F20FFF776FF00F01BF800F014F852
:100CE00000220021192001F0D9F819208FE7000017
:100CF000240C0040016841F001010160006800F02F
:100D0000010000900098704701220021284601F060
:100D10009CB80021029160200821019000220491DA
:100D2000039205920692079201A9204600F08CBE1C
:100D300038B588B000200090994C9348904D0168D8
:100D400041F008010160006800F008000090009880
:100D500001F04CFAFFF735FFFFF7DBFFFFF7D4FF99
:100D600000220021322001F099F832204FE70000E4
:100D70000000E03F2DE9F8432DED028B401E0A9E56
:100D8000884FDFF824820528914607F1720407F1A5
:100D9000B205B1EE048A23D8DFE800F00326425DF5
:100DA0007893BD89FC896B4300F0A7F800F0D1F877
:100DB00001F072FA03463B8208F5BC7200F0AEF80F
:100DC000414600F0BBF800F09EF80120FFF7DCF987
:100DD0004A4600210120BDEC028BBDE8F843D1E575
:100DE000BDEC028BBDE8F183BA8DFC8D534300F05E
:100DF00084F800F0AEF801F04FFA03463B8608F5A0
:100E00008D6200F08BF808F53C7100F097F800F067
:100E10007AF80220FFF7B8F94A4600210220DAE703
:100E20002288678800F073F800F093F801F034FA34
:100E30000346A38008F5EB6200F078F808F5BC6182
:100E400000F07CF800F05FF80320FFF79DF94A46B8
:100E500000210320BFE7E28B278C00F058F800F058
:100E600078F801F019FA0346638408F6482200F086
:100E70005DF808F50D6100F061F800F044F8042019
:100E8000FFF782F94A4600210420A4E7A28FE78FEA
:100E900000F03DF800F05DF801F0FEF903462B800C
:100EA00008F6385200F042F808F53C6100F046F8C8
:100EB00000F029F80520FFF767F94A4600210520D0
:100EC00089E76A8BAF8B00F022F800F042F801F05E
:100ED000E3F90346EB8341F2280200F027F842448D
:100EE00008F56B6100F02AF800F00DF80620FFF716
:100EF0004BF94A46002106206DE73C20B3FBF0F099
:100F0000001B01F0E7B94FF4000201217047534381
:100F10003C20B3FBF0F0C01B01F0DCB99BB200EE4B
:100F2000103AF8EE400A00EE104A70479BB200EE0D
:100F3000103AF8EE400A00EE107A7047B0EE002A40
:100F4000F0EE481AB0EE001AB0B2B8EE400AFFF761
:100F50005DBC0022154B00F029B9000000140240CE
:100F60000010024000040240000800400018024047
:100F7000000401400004004000000140000C024059
:100F8000000C0040B47F002040380240FC7F00206D
:100F900044800020443802408C800020D48000200F
:100FA0001C810020106600207054002000002C409E
:100FB000C0F3C75181B1FF2906D0C110400721F00D
:100FC000E04101F16051704741020CBF40F4E00183
:100FD0006FF000410020704700F0004100020AD08D
:100FE000B0FA80FC00FA0CF001F16051A1EB0C5159
:100FF00001EBD0214005704770B44FF0004591EAF5
:10100000030F40F1FF816B40841A71EB030604D299
:101010006E40001BB141121973414FF4001C1CEBD0
:10102000410F34BF7CEB430683E00C0DA4EB135659
:10103000362E00F37C80012E45EAC32341DC43EACF
:10104000525312BFD20292025B08240545EAC12125
:1010500041EA5051D2EBC020994125D407D1B0FAD2
:1010600080F610FA06F162D00020203608E0B1FACE
:1010700081F6B140C6F1200220FA02F21143B040DD
:101080004FEAF474B4EB465434F001064FEA7404AA
:101090000AD8D6F50016760D04F00044F04061FA47
:1010A00006F25040F1404840C00A40EA415021F069
:1010B000004128BF5FEA500550F1000044EBD12108
:1010C00035E0DB0A45EAC121C90AB6F120050EDD8B
:1010D00042EA0242120CC5F1200603FA06F6EB4082
:1010E00042EA06056D42984161F100010DE062FAA5
:1010F00006F5F240554063FA06FC82EA0C02F34022
:101100005A406D42904161EB030111F4801F05D1FB
:10111000641E620502D06D004041494121F48011F6
:10112000430875F1004350F1000041EB045170BCDD
:1011300070471CEB410F15D223F0004352EA4306DF
:101140000BD04FEA4C0CBCEB410F04D80C0D661EC3
:10115000342EB7DDEBE7801A994150EA410608BF0B
:101160000021E4E708BF1CEB430F28BF6FF000012C
:10117000DDE730B4002513E050F8042BD30744BF5B
:10118000A9F101039A18091F042942F8045BFAD255
:1011900013468C0744BF15809B1CC90748BF1D70B0
:1011A00050F8041B0029E7D130BC7047F0B540F27D
:1011B000FF7581EA030C0CF0004C15EA11541DBFB9
:1011C00015EA1357AC42AF42E5E0BC41C1F313014D
:1011D000C3F31303801A994143F4801304D2641EAD
:1011E0004000494180185941C90241EA5051B1FBC0
:1011F000F3F603FB1611A2FB0675D7EBC020A9413D
:1012000002D2761E80185941C90241EA5051B1FB01
:10121000F3FE03FB1E11A2FB0E75D7EBC020A94104
:1012200003D2AEF1010E80185941890241EA905172
:10123000760546EA8E2EB1FBF3F603FB1611A2FBF0
:101240000675D7EB8020A94102D2761E801859413D
:10125000C90241EA50514EEA060EB1FBF3F603FB18
:101260001611A2FB0675D7EBC020A94102D2761E4B
:1012700080185941C90241EA5051B1FBF3F703FB11
:101280001711A2FB0735D3EBC020A94167F1000776
:101290000CBF004247F0010766F3D5274FEA1E3125
:1012A000B80814F5806412DDBD0775F1004250EBFB
:1012B0000E5051EB045111F5801F5CBF41EA0C0147
:1012C000F0BD4CF07F6141F0E0410020F0BDBD0772
:1012D0006D0840EA0E5041F48011D4F10104B4F1DC
:1012E00020060ADAC4F120060200E04001FA06F303
:1012F000E1401843B24015430EE0342C13DCC6F134
:10130000200445EA40056D0820FA06F2154321FA4B
:1013100006F0A1400D43002175F1004250F100009C
:1013200051EB0C01F0BD00205FEA0C01F0BDCFB91C
:1013300092185B41B3FA83F704BFB2FA82F6BF1981
:101340000B3FB7F120062FBF02FA06F3BB40C7F1EF
:10135000200622FA06F638BF3343BA401CB1E4191E
:10136000641E33E77F4231F00041B1FA81F404BFDB
:10137000B0FA80F6A4190B3CB4F120062FBF00FA96
:1013800006F1A140C4F1200620FA06F638BF314329
:10139000A0403C1B1AE7AC421ABF05EA1357AF4204
:1013A00012E050EA41061CBF52EA4306BFE750EA8A
:1013B0004107304661461CBF41EA0551F0BD52EA83
:1013C000430C08BFC143F0BD00204FF4001616EBDC
:1013D000410F98BF16EB430F08BF16EB410F24BF18
:1013E000C14305E016EB430F0CBF61464CEA0551C3
:1013F000F0BD000070B44FF0004591EA030F7FF597
:1014000003AE6B40841A71EB030603D2001BB1419B
:10141000121973414FF4001C1CEB410F34BF7CEBDD
:10142000430442E00C0DA4EB1356352E4FDC45EA85
:10143000C323DB0A45EAC121C912B6F120050DDD3F
:1014400063FA05F6EB4086EA0305124218BF45F041
:101450000105C01851F100010CD213E062FA06F543
:10146000F2405540F3415A40B340F3405A4080188F
:10147000594107D349085FEA30005FEA350528BFC4
:1014800045F0010501F58011420875F1004250F167
:10149000000041EB04514E0016F5001F70BC38BF30
:1014A00070470020090D090570471CEB410F10D251
:1014B00052EA43060BD0BCEB410F05D80C0DAB43F1
:1014C000661E342EB6DD02E0AB438018594170BC75
:1014D000704770BC7047000001F000428B1AA3F106
:1014E0006051B1F5801F0ADBB1F17F6F1FD242EA74
:1014F000C102C10071F1004142EB507070470B1501
:10150000C3F10903212B10D2890241EA90518002D4
:101510000128494141F0004121FA03F0C3F12003C1
:10152000994071F1004150417047100070476FF0D1
:10153000000013EB103F5CBF000E42EAC050704742
:10154000B0B581EA030C0CF0004C40F2FF7515EACF
:1015500011541DBF15EA1357AC42AF4239E0E419EC
:1015600023EA455343F48013C90241F0004141EAA4
:10157000505EC7021100A7FB020200284FF00000D6
:10158000EEFB01204FF00001E3FB072118BF42F002
:101590000102401800214941E3FB0E01A4F58064DB
:1015A0000F0302D252004041494154F101046CDD65
:1015B000470872F1004250F1000051EB0451A1F5CF
:1015C00080115CBF41EA0C01B0BD4CEA055100201E
:1015D000B0BD05EA1357AC4214BFAF4241E050EA38
:1015E000410E1CBF52EA430E02E061460020B0BD2E
:1015F00024423C441BD15FEA070EF6D0090302BF28
:1016000001460020AEF1140EB1FA81F7AEEB0704EB
:1016100001FA07FE0C37C7F1200100FA07F7C840AE
:101620004EEA000E23EA455343F48013A2E733F059
:101630000043B3FA83F704BFB2FA82FE77440B3F4C
:10164000E41BB7F1200E2FBF02FA0EF3BB40C7F127
:10165000200E22FA0EFE38BF43EA0E03BA40641C85
:1016600082E750EA410E14BF52EA430E6FF00001C8
:101670004FF4001717EB430F8ABF194617EB410FC2
:10168000B5E74CEA05510020B0BDD4F10104B4F136
:1016900020070FDAC4F12007520828BF42F00102E8
:1016A00010FA07F501FA07F7E1BF2A43E040384393
:1016B000E1400FE0352C98DCC7F1200452EA4002EB
:1016C00020FA07F218BF42F0010231FA07F0A140F8
:1016D0000A43002172F1004250F1000051EB0C016D
:1016E000B0BD00002DE9F84F0D464FF000087749D6
:1016F0000F22012304462E6803FA08F000EA0609C7
:10170000814540F0C5804FEA480C032606FA0CF6E6
:101710006FEA060E6E6806F00307012F1CBF06F085
:101720000306022E11D1A668EF680EEA060607FA34
:101730000CF73E43A660666826EA00006E68C6F3B2
:10174000001606FA08F6304360604FEA88002E79EA
:1017500006F00306032E1FD0E668AF680EEA060601
:1017600007FA0CF73E43E6602E7906F00306022ED8
:1017700012D14FEAD80604EB860600F01C07D6F813
:1017800020A002FA07FB2AEA0B0AD5F810B00BFAE0
:1017900007F747EA0A07376226680EEA06072E7936
:1017A00006F0030606FA0CF63E4326606E68F60065
:1017B0006ED5002600964FEA980C0E68DFF810E10F
:1017C00046F480460E6000F00C000E6806F4804679
:1017D0000096009E5EF82C7002FA00F627EA0606D4
:1017E0003C4FBC4208BF002722D03B4FBC4208BF41
:1017F00001271DD0394FBC4208BF022718D0384FEF
:10180000BC4208BF032713D0364FBC4208BF042791
:101810000ED0354FBC4208BF052709D0334FBC421C
:1018200008BF062704D0324FBC420CBF0727082749
:1018300007FA00F030434EF82C006FEA090C2D48EF
:1018400006680CEA060E6E68F70348BF49EA0E0EFA
:10185000C0F800E046680CEA060E6E68B70348BFA1
:1018600049EA0E0EC0F804E086680CEA060E6E68BF
:10187000F70248BF49EA0E0EC0F808E0C6680CEA55
:10188000060E6E68B60248BF49EA0E0EC0F80CE0BC
:1018900008F10108B8F10F0F7FF62DAFBDE8F18F09
:1018A00002B9090481617047426901EA0203914368
:1018B00041EA0341816170470F4A136803421CBF2C
:1018C000106000F0A4BD70470000000044380240E2
:1018D00008380140000002400004024000080240B5
:1018E000000C0240001002400014024000180240A8
:1018F000001C0240003C0140143C014038B586B059
:1019000000200090274C2848284D016841F0010133
:101910000160026802F00102009200220099009228
:10192000036843F010030360016801F010010091A7
:10193000009900920222036843F0020303600068EA
:1019400000F002000090009901920292049201A915
:10195000012205921648FFF7C5FE012202920221DC
:10196000019104910022059201A92046FFF7BAFED9
:101970004FF4007101910122029202210491002290
:10198000059201A92846FFF7ADFE0022022120465C
:10199000FFF786FF01224FF400712846FFF780FF12
:1019A00007B030BD00100240303802400004024051
:1019B0000000024038B5040001D1012032BD00F022
:1019C0003FF818B900F038F800F0F7FF14E00168AC
:1019D0000A6A41F211131A4202BF0A6A40F24443F2
:1019E0001A42FFE703D10A68520852000A60012137
:1019F00080F83D100020704702206870211D20688B
:101A000000F0DFF80120A872A870E87028716871F2
:101A1000A871E871287268726870002032BD38B50C
:101A2000040001D1012032BD00F00AF818B900F01D
:101A300003F801F049F9DFE70021297020467047DB
:101A400004F13C056878704738B500F057F801D1CB
:101A5000022032BD012084F83C0032B1042A15D0A6
:101A6000082A25D00C2A34D044E0206800F0F4F88D
:101A70002168886940F008008861886920F00400C6
:101A800088618A69286902438A6133E0206800F02E
:101A90000FF92068816941F400618161816921F455
:101AA0008061816181692A6941EA0221816121E0C5
:101AB000206800F02DF92168C86940F00800C8616D
:101AC000C86920F00400C861CA6928690243CA6174
:101AD00010E0206800F04BF92068C16941F4006112
:101AE000C161C16921F48061C161C1692A6941EAAA
:101AF0000221C161002084F83C0032BD04460D463D
:101B000094F83C000128704738B500F04EF801D138
:101B1000022032BD0120207002226270DFF89402A0
:101B20002A689368034093600868020018BF102871
:101B30002DD0202818BF302829D0402823D0502865
:101B400016D0602818D0702803D0B0F5005F07D0F9
:101B500021E000F025F82868816841F0770105E070
:101B600000F01EF82868816841F48041816012E02D
:101B700000F012F850210BE0CA684968286800F0AC
:101B800040F9602104E000F007F8402100E0014640
:101B9000286800F048F90EE0CA684968286821E121
:101BA000CB684A688968286845E1054605F13C0428
:101BB00020780128704701206070002121700020EA
:101BC00032BDF0B57C4C05687C4B7D4E7D4FDFF817
:101BD000F8C1A04218BFB0F1804F07D0604518BFD0
:101BE000B84203D0B04218BF98420DD14A6825F0E0
:101BF00070051543A04218BFB0F1804F17D0604563
:101C00001CBFB842B04212D098421CBF6F4A9042EB
:101C10000DD06F4EB0421CBF6E4A904207D06E4E40
:101C2000B0421FBF6D4A90426D4EB04203D1CA68A8
:101C300025F4407515434A6925F080051543056074
:101C4000A0428D68C5620A68826212BF9842096923
:101C5000016301224261F0BDF0B5026A564F52089D
:101C600052000262066A446885690B688A6825F03A
:101C7000730526F002061D431643504BB84218BFA9
:101C8000984207D1CA6826F008061643B84226F0E3
:101C9000040601D0984205D14B698A6924F4407446
:101CA0001C43144344608561496841630662F0BD8A
:101CB000F0B5026A404E22F010020262B042056A9C
:101CC000436884690A6824F4E64444EA02248A6882
:101CD00025F0200545EA0215384A18BF904208D180
:101CE000CF6825F0800545EA0715B04225F040058C
:101CF00001D0904206D14E698A6923F440631643AD
:101D000043EA860343608461496881630562F0BDEC
:101D1000F0B5026A22F480720262056A4368C469FF
:101D20008E680A6825F4007524F0730445EA0625D8
:101D30001443214E214AB04218BF904208D1CF68C7
:101D400025F4006545EA0725B04225F4806501D0F9
:101D5000904206D14E698A6923F44053164343EA00
:101D600006134360C4614968C1630562F0BD70B584
:101D7000026A114E22F480520262B042046A426842
:101D8000C3690D6823F4E64343EA05238D6824F410
:101D9000005444EA05341CBF084DA84204D14D69E3
:101DA00022F4804242EA85124260C36149680164BC
:101DB000046270BD8800FFFF000001400004014084
:101DC000000C0040000800400004004000400140BA
:101DD000004401400048014000180040001C004041
:101DE0000020004010B5036A046A640864000462BD
:101DF00023F00A03846924F0F00444EA02148461A5
:101E00002EE010B5036A23F0100303628369046AAD
:101E100023F4704343EA023324F0A004836144EACC
:101E20000114046210BD826822F07002114341F077
:101E300007018160704710B5846824F47F44214312
:101E4000114341EA0321816010BD10B501F01F016B
:101E5000036A01248C40A343036202FA01F1036A7E
:101E60001943016210BD00000901020002D4294893
:101E700081547047284B02F00F021A4402F8041CE8
:101E80007047264B19684FF6FF020002114000F41C
:101E9000E0600843224908431860704738B51F4B7B
:101EA0001C68C4F30223C3F10704052C28BF0424D3
:101EB0001D1D072D34BF0023DB1E012505FA04F488
:101EC000641E2140994005FA03F35B1E1A4011433A
:101ED000BDE83440C8E7010007D4012200F01F012B
:101EE000104B8A40400943F82020704710B5401E2F
:101EF000B0F1807F01D3012010BD0B4C60600F2139
:101F00004FF0FF30FFF7B0FF0021A16007202060F5
:101F1000002010BD00E400E018ED00E00CED00E052
:101F20000000FA0500E100E010E000E038B586B0FE
:101F300000200090284C2948294D016841F00201F9
:101F40000160026802F002020092002200990092F1
:101F5000036843F002030360016801F0020100918D
:101F6000009900924022036843F02003036002239B
:101F7000006800F020000090204600990192029332
:101F80000493059301A9FFF7ADFB01214FF4807283
:101F900002910192002102220591049201A920469A
:101FA000FFF7A0FB1021019101220292022104916E
:101FB0000022059201A92846FFF794FB00224FF466
:101FC00080712046FFF76CFC012210212846FFF7A4
:101FD00067FC07B030BD000000040240303802400A
:101FE0000014024010B586B000200090234C244815
:101FF000016841F004010160026802F004020092ED
:10200000002200990092036843F0400303600168D6
:1020100001F040010091009900924022036843F0D2
:10202000400303600223006800F040000090009924
:1020300014480192029303220493059201A9FFF729
:1020400051FB202100F00FF8102100F00CF80022C5
:1020500020212046FFF724FC012210212046FFF713
:102060001FFC06B010BD01910122029202210491D1
:102070000022059201A92046FFF734BB0018024058
:10208000303802400008024010B586B000200090B1
:10209000244C2548016841F002010160026802F009
:1020A00002020092002200990092036843F020038C
:1020B0000360016801F02001009100990092022262
:1020C000036843F020030360006800F020000090E4
:1020D0000099019202920492059201A91348FFF718
:1020E00001FB4FF4805100F012F84FF4005100F062
:1020F0000EF800224FF480512046FFF7D1FB012259
:102100004FF400512046FFF7CBFB06B010BD019104
:1021100001220292022104910022059201A9204687
:10212000FFF7E0BA001402403038024000040240D9
:1021300038B586B000200090284C2948294D016808
:1021400041F010010160026802F0100200920022CA
:1021500000990092036843F020030360016801F0D6
:1021600020010091009900924FF40072036843F03F
:10217000400303600223006800F0400000900099D3
:1021800019480192029301220493059201A9FFF7D5
:10219000A9FA4FF400410191012202920221049117
:1021A0000022059201A92046FFF79CFA0121019126
:1021B0000291002202210491059201A92846FFF70D
:1021C00091FA00224FF400412046FFF769FB0122FB
:1021D00001212846FFF764FB07B030BD0014024020
:1021E00030380240001802400010024010B586B09E
:1021F00000200090254C2648016841F00101016053
:10220000026802F001020092002200990092036825
:1022100043F008030360016801F008010091009990
:1022200000920122036843F0080303600223006860
:1022300000F0080000900099019202930493059326
:1022400001A91448FFF74EFA4FF4804100F012F84C
:102250004FF4004100F00EF800224FF48041204678
:10226000FFF71EFB01224FF400412046FFF718FB49
:1022700006B010BD019101220292022104910022B8
:10228000059201A92046FFF72DBA0000000C02407C
:102290003038024000000240C1F30A5340F2FE32DF
:1022A0009B1A14DDD3F120034FEAE17208DDC90265
:1022B00041EA505141F00040D840801850407047EA
:1022C00003F2E13010B1D24382F0004070470020A9
:1022D00070470000014648B1B0FA80F18840C91C3F
:1022E000C1F58461090501EBD0214005704700006C
:1022F00080B500F0EBFC00F039F84FF4FA6000F024
:10230000FFFC00F011FD00F071FE00F08AFE00F00D
:1023100098FE00F0C9F900F0FFF900F028FA00F08B
:102320006FFA00F07AFA00F0E7FA00F03DFF00F0F3
:102330004DFF00F05DFF00F06DFF00F08CFF00F03E
:1023400099FF00F0B5FA00F0A2FA00F09BF901F055
:10235000E6F901F0E5F901F0EFF801F0E2F901F03A
:10236000E0F900F0FBF800F014F9F8E780B592B05E
:1023700006A8302101F0A0FB01A8142101F09CFB6C
:10238000002000904FF48033DFF8AC02016841F088
:10239000805101600021006800F08050009000989A
:1023A000DFF898020091026842F480420260012244
:1023B000006800F48040009006A80099069202216F
:1023C0004FF480020C910D920421A8220E910F92DD
:1023D0000221042207931091119201F071FB08B1C0
:1023E00000F05FF902210291002203920F204FF4C6
:1023F000A051019004914FF480520592052101A84B
:1024000001F0F6FC08B100F04CF913B000BD012852
:1024100000D0704780B5112101F0CAFDC00704D576
:10242000DFF81C12012001F0F5FD1121022001F05E
:10243000BFFD800704D5DFF80C12022001F0EAFD91
:102440001121032001F0B4FD400704D5DFF8F81195
:10245000032001F0DFFD1121042001F0A9FD000798
:1024600006D5BDE80440DFF8E411042001F0D2BD38
:1024700001BD10B50068DFF8D831DFF8D8119842F7
:1024800001F5C1620BD11088FD2804DA0C780B1815
:10249000401C1C7210800122DFF8BC0158E0DFF8FC
:1024A000BC3198420DD15088FD2805DA4C780B18C4
:1024B000401C83F8084150800122491CDFF8A0012C
:1024C00046E0DFF8A03198420DD19088FD2805DA6A
:1024D0008C780B18401C83F8084290800122891CDC
:1024E000DFF8500134E0DFF8803198420DD1D08818
:1024F000FD2805DACC780B18401C83F80843D080FF
:102500000122C91CDFF8640122E0DFF8643198423F
:102510000DD11089FD2805DA0C790B18401C83F8C1
:10252000084410810122091DDFF8480110E0DFF89E
:102530004831984210D15089FD2805DA4C790B18A2
:10254000401C83F8084550810122491DDFF82C0109
:10255000BDE8104001F018BE10BD704780B502F014
:102560005DF802F0C7F802F00FFA02F079FA02F013
:10257000A7FB02F011FC02F03FFD02F0A9FD02F002
:10258000D7FE02F041FF03F06FF8BDE8014003F011
:10259000D7B838B53A4C04F18405E86A012846D129
:1025A0000021E962642000F0ABFB206F2268E36E3B
:1025B00000900021606802EB00420120FEF7DAFB88
:1025C000E06FA268A36F00900021E06802EB004278
:1025D0000220FEF7CFFB6868616922692B680090D2
:1025E00002EB014200210320FEF7C4FB2869A26927
:1025F000EB6800900021E06902EB00420420FEF746
:10260000B9FBE869226AAB6900900021606A02EBBD
:1026100000420520FEF7AEFBA86AA26A6B6A009032
:102620000021E06A02EB00420620FEF7A3FB31BD69
:1026300000000000B48400204038024000700040D8
:10264000B4780020B4790020B47A0020B47B002054
:1026500000100140A06C00202C84002000440040A9
:102660007084002000480040004C0040A4830020FB
:1026700000500040E883002000140140F88400204E
:102680001000002080B5FEF723FAFEF769FAFEF786
:10269000A4FAFEF7D0FAFEF711FBBDE80140FEF701
:1026A00047BB72B6FEE70000D8B595B011A800F0A0
:1026B0008FF80FF2D4540AA800F09BF802A820214A
:1026C00001F0FAF9DFF86C45DFF86C052060A7210E
:1026D000616040F2E7300022E0608021A260226168
:1026E0006261A16100F005F908B1FFF7DAFF4FF46C
:1026F0008050119011A900F037F808B1FFF7D1FF11
:1027000000F059F808B1FFF7CCFF2021009100221A
:1027100001926946204623E1D8B58DB000F057F804
:102720000FF26C5400F064F8DFF810454FF0804071
:1027300000F051F808B1FFF7B4FF00F011F808B14C
:10274000FFF7AFFF00F037F808B1FFF7AAFF00F07E
:1027500097F808B1FFF7A5FF00F030F8042284E0F5
:102760004FF48050099009A92046FFF7CDB9D8B59C
:102770008DB000F02CF80FF2205400F039F8DFF89B
:10278000C044DFF8C00400F026F808B1FFF789FF65
:10279000FFF7E6FF08B1FFF784FF00F00CF808B17F
:1027A000FFF77FFF00F06CF808B1FFF77AFF00F049
:1027B00005F80C2259E02046FFF731B9702102914B
:1027C0000022022103920491069202A9704709A8EF
:1027D000102101F071B92060532140F2E73000224E
:1027E000E0606160A2602261A2612046FFF7E2B86A
:1027F00002A8D4E90067CDE900671C2101F05CB9AB
:10280000D8B58DB0FFF7E3FF0FF29444FFF7F0FF68
:10281000DFF83444DFF834040BE0D8B58DB0FFF7AF
:10282000D6FF0FF28444FFF7E3FFDFF82444DFF81C
:102830002404FFF7D0FF08B1FFF733FFFFF790FF45
:1028400008B1FFF72EFFFFF7B6FF08B1FFF729FF2A
:1028500000F016F808B1FFF724FF70210291002262
:10286000022104910392069202A92046FFF7ECF898
:1028700008B1FFF716FF204600F040F90EB0D0BDBA
:102880000021009101912046694603F089B81CB5EA
:102890000FF21C40DFF8C04300F024F80022616012
:1028A000A2604FF47A71DFF8B403206080220DE05B
:1028B0001CB50FF20440DFF8A84300F013F8616084
:1028C0000022DFF8A00320600121A260E16000F097
:1028D0000FF808B1FFF7E5FEFFF7D2FF08B1FFF7E9
:1028E000E0FE13BDD0E90023CDE90023532170475A
:1028F000A2612046FFF75EB8D8B595B011A8FFF7E2
:1029000067FF0FF2BC340AA8FFF773FF02A820216B
:1029100001F0D2F8DFF85043DFF850032060A72120
:1029200040F2E7300022E0606160A26022616261F3
:10293000FFF7DEFF08B1FFF7B4FE4FF480501190AF
:1029400011A9FFF711FF08B1FFF7ABFEFFF733FF47
:1029500008B1FFF7A6FE00210091019120466946CB
:1029600003F01EF808B1FFF79CFE02220C927020C3
:1029700000210A900B910D9100220F910E9210925E
:102980000AA92046FFF760F808B1FFF78AFE002089
:102990004FF4005102900390049005900690079127
:1029A000099002A9204603F041F808B1FFF779FE2B
:1029B000204600F0A3F816B0D0BD80B50168DFF85E
:1029C0007822DFF8AC02914210D1002100914268D8
:1029D00042F0010242600022406800F001000090D5
:1029E00000981920FFF75AFA19207AE0B1F1804FC8
:1029F0000ED100F07FF842F0010200F077F800F00D
:102A00000100009000981C20FFF748FA1C2068E0A5
:102A10008C4A91420ED100F06DF842F0020200F0B3
:102A200065F800F00200009000981D20FFF736FACC
:102A30001D2056E0854A91420ED100F05BF842F02D
:102A4000040200F053F800F00400009000981E20EB
:102A5000FFF724FA1E2044E07E4A91420ED100F096
:102A600049F842F0080200F041F800F00800009038
:102A700000983220FFF712FA322032E0774A914272
:102A80000ED100F037F842F0100200F02FF800F0FD
:102A90001000009000983620FFF700FA362020E062
:102AA000704A91420AD100F025F842F020020260FB
:102AB000006800F020000090009801BD6B4A914230
:102AC00013D100210091426842F0020242600022CC
:102AD000406800F00200009000982C20FFF7DEF91B
:102AE0002C20BDE80240FFF7F6B901BD02600022CC
:102AF00000687047002100910268704710B586B0E9
:102B000004466846142100F0D7FF23684A48594913
:102B1000834211D1002205920222086840F0100081
:102B20000860096801F0100105914FF400710598E3
:102B3000514800F079F86AE0B3F1804F4F4A12D162
:102B4000002005900B6843F001030B60086800F05B
:102B50000100059002210598009101911046012184
:102B60000291039153E0374C4548A3420ED1002215
:102B7000059202220B6843F002030B6000F04DF84F
:102B80000192694601220292039211E02F4CA34266
:102B900011D10022059240220B6843F002030B6022
:102BA000022300F03AF8019301220292039269464F
:102BB000022204922DE02748834214D1002305937A
:102BC0000223086840F001000860096801F0010173
:102BD0000591012105980091019300210291039133
:102BE0001046022113E02148834214D100220592AD
:102BF0000222086840F004000860096801F004013E
:102C00000591402105981F4800F00EF8032104911A
:102C10006946FEF767FD06B010BD096801F00201C4
:102C2000059105990092704700910192012102914E
:102C3000039170476481002000000140AC810020B6
:102C4000F4810020000400403C8200200008004085
:102C500084820020000C0040CC8200200010004044
:102C600014830020001400405C8300200004014015
:102C7000403802403038024000100240000002405C
:102C800000040240000802400000000000000000B4
:102C90000000000000000000000000000000000034
:102CA0000000000000000000000000000000000024
:102CB0000000000000000000000000000000000014
:102CC00000000000000000007047000080B50B48C5
:102CD000016841F400710160026842F480620260A0
:102CE000016841F4807101600320FFF7CAF80020F9
:102CF00002F0C6FE02F0E4FE002002BD003C0240ED
:102D000038B5044602F0FAFE14F1010F054602D070
:102D100004480178641802F0F1FE401BA042FAD387
:102D200031BD00BF000000202DE9F84F86B0684695
:102D3000142100F0C1FE00248F48904D904EDFF822
:102D400044B2DFF84482DFF84492DFF844A20594ED
:102D50004FF21007016841F010010160026802F0B3
:102D600010020592012205990594036843F00403BB
:102D70000360016801F0040100F032F943F0200320
:102D80000360016801F0200100F02AF943F080039C
:102D90000360016801F0800100F022F943F00103B3
:102DA0000360016801F0010100F01AF943F0020329
:102DB0000360016801F0020100F012F943F04003E2
:102DC0000360016801F040010591059905943946B9
:102DD0000368704C43F008030360006800F00800CB
:102DE000059005982046FEF75BFD012242F23F0167
:102DF0002846FEF755FD01224CF23B113046FEF706
:102E00004FFD00224FF4E0712846FEF749FD0122F4
:102E10004FF460715846FEF743FD01224FF419410B
:102E20004046FEF73DFD01224FF460714846FEF733
:102E300037FD012203215046FEF732FD4FF6DC50EC
:102E400000F0BBF85046FEF74DFC0F2000F0B5F83F
:102E50002046FEF747FC009700F0A9F82046694697
:102E6000FEF740FC01204C490090019100220292A3
:102E700000F094F8302000F0A0F800F090F8012065
:102E800000F09BF84846FEF72DFC4FF4006000214F
:102E9000009001910122029269462046FEF722FC31
:102EA00000F09AF83F2100910022039200F090F880
:102EB00000F092F84FF480710091022200F072F855
:102EC0004FF4725000F079F800F06EF800F084F8DA
:102ED0004CF23B010091002200F064F84FF4A07125
:102EE0000091012200F070F880210091112200F081
:102EF0006BF80121019102914FF46074002103915C
:102F0000009400F04BF800F067F84FF4194100917D
:102F10000022039269464046FEF7E4FB4FF41C4052
:102F20000090002101910222029200F051F800F07D
:102F300053F84FF4005100910322039200F048F837
:102F400000F035F8009469464846FEF7CBFB00F0E8
:102F500043F8032100910022039269465046FEF790
:102F6000C1FB002200210620FEF798FF0620FEF795
:102F7000B2FF07B0BDE8F08F3038024000180240C1
:102F8000000C024000080240000002400004024021
:102F9000001002400014024000001110694658461B
:102FA000FEF7A0BB039269463046FEF79BBB0120AB
:102FB000002101900290039170470021009001913F
:102FC0000222029269467047002102910391019208
:102FD00069462846FEF786BB01220192029270479D
:102FE00005910599059403687047000080B5654810
:102FF000654901604FF4827218214260C16100236B
:103000004FF480220A218360C360036143618261BF
:10301000036243628362C16202F076FD00B10CE09C
:1030200001BD80B559485A4900F017F84FF4802285
:1030300000F019F800B100E001BDBDE80140FFF764
:1030400030BB80B55348544900F007F84FF4007284
:1030500000F009F800B1F0E701BD01604FF48272A1
:103060004260002370470A218360C36003614361AB
:103070008261C361036243628362C16202F044BD44
:1030800010B586B004466846142100F015FD22688C
:103090003D484249824220D100220592486940F4CD
:1030A00080504861486900F4805005900598059269
:1030B00002220B6843F001030B60086800F0010076
:1030C0000590F02105983648009101920021029167
:1030D00003220521049103922EE02D4B31489A42A0
:1030E00013D1002205920B6943F480430B61002346
:1030F0000A6902F480420592059A05934FF47042E2
:1031000000F01FF80393052215E0234B9A4216D1D5
:10311000002205920B6943F400430B6100230A6906
:1031200002F400420592059A0593382200F009F84E
:1031300003230393062204926946FEF7D3FA06B0EE
:1031400010BD0C6844F002040C600223096801F011
:1031500002010591059900920193002202927047A5
:1031600001B582B000F007F80648FFE702F02AFD3B
:103170009DF804000EBD4FF47A700090012301AA5F
:1031800002A97047B47C0020003001400C7D002073
:1031900000380040647D0020003C00403038024090
:1031A000000002400004024010B5DFF82C43DFF8B5
:1031B0002C0300F041F808B1FFF773FA2046BDE890
:1031C00010400122DFF8181300F0DEBF10B5DFF861
:1031D0001443DFF8140300F02FF808B1FFF761FA89
:1031E0002046BDE810400122DFF8001300F0CCBFFC
:1031F00010B5DFF8FC42DFF8FC0200F01DF808B162
:10320000FFF74FFA2046BDE810400122DFF8E81230
:1032100000F0BABF10B5DFF8E442DFF8E40200F0D6
:103220000BF808B1FFF73DFA2046BDE81040012237
:10323000DFF8D01200F0A8BF20604FF461410C20ED
:10324000002260616160A260E2602261A261E261CD
:10325000204600F005BF10B5AB4CAC48FFF7ECFFC3
:1032600008B1FFF71EFA2046BDE810400122A84928
:1032700000F08ABF10B5A74CA748FFF7DDFF08B1E3
:10328000FFF70FFA2046BDE810400122A34900F0E5
:103290007BBF38B586B004466846142100F00CFCAC
:1032A00023688E4C9E489F49A3424FF4406227D129
:1032B000002305930C6944F400240C6100240B697D
:1032C00003F400230593059B05940D6845F0040560
:1032D0000D600B6803F0040305936946059B00929B
:1032E0000123029303930222082301920493FEF721
:1032F000F9F9002200213420FEF7D0FD3420CDE082
:10330000794CA3423ED1002205920B6943F480130D
:103310000B6100230A6902F4801200F0C3F80C6804
:1033200044F004040C600A6802F0040200F0BAF8E9
:103330004FF480520C6844F008040C6002230968C2
:1033400001F0080105910599009201930122029272
:103350000392694608220492FEF7C4F90122029200
:1033600003920420022100900191082204926946F0
:103370006D48FEF7B7F9002200213520FEF78EFDDB
:1033800035208BE05B4C6948A34216D100220592A0
:103390004B6943F010034B6100234A6902F01002AD
:1033A00000F080F84FF4C06200F080F800220021A5
:1033B0002520FEF773FD252070E0514CA34215D166
:1033C000002205920B6943F400330B6100230A6964
:1033D00002F4003200F066F80C2200F067F80022D8
:1033E00000212620FEF75AFD262057E04748834259
:1033F00027D100230593086940F4802008610869FB
:1034000000F4802005900598494805930C6844F025
:1034100002040C60096801F002010591059900920F
:10342000072102220192049101220293039269462C
:10343000FEF758F9002200212720FEF72FFD272054
:103440002CE0354883422BD100220592486940F098
:1034500020004861486900F0200005900598059219
:1034600002220B6843F040030B60086800F0400044
:1034700005904FF4844105982E4800910192002157
:10348000029101220821049103926946FEF72AF96C
:10349000002200214720FEF701FD4720FEF71BFD1B
:1034A00007B030BD0592059A059370470C6844F04B
:1034B00001040C600223096801F0010105910599DE
:1034C00000920193002202920123072203930492A7
:1034D0006946FEF707B90000A4830020004C0040B5
:1034E000A36C0020E883002000500040A46C002062
:1034F0002C84002000100140A06C0020708400206B
:1035000000440040A16C0020B4840020004800402A
:10351000A26C0020F884002000140140A56C00205B
:103520000008024030380240000C02400000024017
:103530000004024000180240F0B5DFF8D004DFF8C4
:10354000D044DFF8D054DFF8D0746421A0F82812FA
:1035500040F2E57200F204514FF4A7730A804B80E9
:103560000121DFF8B82411700023DFF8B4242370A0
:1035700013700126DFF8AC44DFF8AC24237013701D
:10358000DFF8A844DFF8A82423701370DFF8A44400
:10359000DFF8A42423701170DFF8A0442170DFF855
:1035A000A014DFF8A04401F1C80213602B709667E5
:1035B000267044F2A015DFF890644B1933603B602D
:1035C000002401F5DE73DFF884641C605C609C619C
:1035D000DC611C625C629C62DC623470146794661D
:1035E0001C665C669C66DC661C675C679C64DC64CD
:1035F0001C655C659C65DC6501F5627201F5137301
:103600000026DFF84C54D4601C605C609E60DC6077
:103610001C615C612C7000F5DF730124DC851E8069
:10362000012516609D85A0F866610023DFF824441B
:10363000DFF82464DFF8245423603360DFF820448B
:10364000DFF8206423603360DFF81C44DFF81C647B
:1036500023603360DFF81844DFF8186423603360B8
:10366000DFF81444DFF8146423603360DFF810449B
:10367000DFF810642360336013652B70DFF8086493
:10368000DFF8085433702B70DFF80464DFF804545B
:1036900033702B70DFF80064337093650022DFF81D
:1036A000FC331A70012243F6A043502454430C44C7
:1036B000E250521C102AF8DB0122A02353430B4492
:1036C00003F582442260521C1F2AF6DB01F20C42F1
:1036D0000123136053609360D36013615361002230
:1036E00020F8E82F42808280C2800281428101F26C
:1036F0009440DFF8AC13DFF8AC33026042608260C4
:103700000A801A80DFF8A013DFF8A0330A801A803D
:10371000DFF89C13DFF89C330A801A80F0BD7047F5
:103720007047F0B5DFF8E41201F58D754FF4614292
:10373000E88901281EBF02280120E8812888B0F509
:10374000166F18BFB0F5965F0BD0B0F5165F18BFB7
:10375000B0F5964F05D0B0F5164F1CBFB0F5614FD0
:103760002A806888B0F5166F18BFB0F5965F0BD049
:10377000B0F5165F18BFB0F5964F05D0B0F5164FEF
:103780001CBFB0F5614F6A80A888B0F5166F18BFEE
:10379000B0F5965F0BD0B0F5165F18BFB0F5964F39
:1037A00005D0B0F5164F1CBFB0F5614FAA80E88A6E
:1037B000B0F5166F18BFB0F5965F0BD0B0F5165F79
:1037C00018BFB0F5964F05D0B0F5164F1CBFB0F539
:1037D000614FEA82288BB0F5166F18BFB0F5965F7F
:1037E0000BD0B0F5165F18BFB0F5964F05D0B0F509
:1037F000164F1CBFB0F5614F2A83914A02F5017044
:103800000368B3F5803FA4BF002404604368B3F5A8
:10381000803FA4BF002444608368B3F5803FA4BF09
:1038200000248460C368B3F5803FA4BF0024C46053
:103830000369B3F5803FA4BF002404614369B3F575
:10384000803F01F15403A4BF002444611888062876
:1038500000DA08B90120188002F561708468002C34
:10386000D8BF012402DD102C01DB0F248460046822
:10387000002CD8BF012402DD1E2C01DD1E240460B3
:10388000D2F8740400284FF4FA7403DC0120C2F863
:10389000740404E0B0F5FA7FC8BFC2F87444A88C81
:1038A00008B90126AE84E88C08B90126EE84288D7B
:1038B00008B901262E85688D08B904266E85A88D65
:1038C00008B90526AE85E88D08B90626EE8542F2D0
:1038D00010755668002E02BF106800281560106F22
:1038E00008B9642616674FF47A76D06E00B9D666AA
:1038F000888900B98D81C88900B9CD81088A00B94D
:103900000D82888A00B98C82D068002802BF906836
:1039100000289560D06F08B96427D767906F00B909
:103920009667888D00B98D85C88D00B9CD85088EC4
:1039300000B90D86488E00B94C865069002802F106
:10394000840702BF106900281561786808B96420EF
:103950007860386800B93E60D88B00B9DD83188C78
:1039600000B91D84588C00B95D84988C00B99C8482
:10397000D069002802BF906900289561386908B9AC
:1039800064203861F86800B9FE60988F00B99D879F
:10399000D88F00B9DD8731F8940F00B90D804888C1
:1039A00000B94C80506A002802BF106A00281562D6
:1039B000F86908B96423FB61B86900B9BE61488B36
:1039C00000B94D83888B00B98D83C88B00B9CD8336
:1039D000088C00B90C84D06A002802BF906A0028C5
:1039E0009562B86A08B96422BA62786A00B97E62E0
:1039F000088F00B90D87488F00B94D87888F00B9AF
:103A00008D87C88F00B9CC87F0BD000010660020FC
:103A1000DC850020D985002048850020D285002043
:103A2000DB850020D4850020D8850020D6850020A5
:103A3000D7850020D5850020DA850020DE8500208E
:103A400010000020D385002044850020DD85002063
:103A5000E08500204C85002050850020E285002074
:103A600054850020588500205C850020608500205A
:103A700064850020688500206C850020708500200A
:103A80007485002078850020E3850020E4850020EF
:103A9000E5850020E6850020E7850020E1850020FF
:103AA0008A85002098850020A6850020B485002006
:103AB000C2850020D0850020002202F01DBA00003F
:103AC0002DE9F843040016D02078DFF81463C1070D
:103AD00013D5B06800F00C00042807D0B06800F0DF
:103AE0000C0008283ED1706841023BD53068810344
:103AF00003D56068002800F005812078B94F810760
:103B000019D5B06810F00C0F07D0B06800F00C00A9
:103B100008285CD17068410259D43068810703D508
:103B2000E068012840F0EE803168206921F0F8015A
:103B300041EAC0013160217808076CD56069AA4963
:103B4000002862D001220A6001F0D8FF0546706F9C
:103B5000810700F1D98001F0D1FF401B0228F6D97E
:103B600003203AE16068B0F5803F04D1306840F44A
:103B70008030306011E0B0F5A02F306806D140F4FD
:103B800080203060316841F4803105E020F48030DD
:103B90003060316821F480213160606858B101F0F3
:103BA000ADFF054630688103A7D401F0A7FF401B95
:103BB0006528F7D3D4E701F0A1FF054630688103FB
:103BC0009BD501F09BFF401B6528F7D3C8E7E06851
:103BD00070B10121396001F091FF0546306881071D
:103BE00000F1BE8001F08AFF401B0228F6D9B7E73A
:103BF000386001F083FF0546316888079BD501F0E6
:103C00007DFF401B0228F7D9AAE7086001F076FF84
:103C10000546706F810777D501F070FF401B0228C1
:103C2000F7D99DE70528306F06D140F004003067D2
:103C3000306F40F0010005E0400840003067306F11
:103C400020F00400306741F28938A06868B101F0C3
:103C500055FF8146306F810700F18F8001F04EFFE4
:103C6000A0EB09004045F5D37AE701F047FF814614
:103C7000306F810740F1818001F040FFA0EB090027
:103C80004045F5D36CE701F039FF401B022840F2B4
:103C9000878065E701F032FF001B022840F2988020
:103CA0005EE70020386601F029FF04463068810194
:103CB00040F1928001F022FF001B0228F6D94FE765
:103CC00001281FD07068E26900F48001914202BFB0
:103CD00000F03F01226A914201BF47F6C0710140E6
:103CE000626AB1EB821F0DD1A26A520800F4403122
:103CF000521EB1EB024F02BF00F07060E16AB0EB00
:103D0000016F69D0012068E0207841073AD5306C16
:103D10000025C1000AD400950125316C41F0805185
:103D20003164306C00F0805000900098DFF8BC8067
:103D3000D8F80000C1051BD4D8F8000040F480700A
:103D4000C8F8000001F0DAFE8146D8F80000C1058D
:103D50000ED401F0D3FEA0EB09000228F5D9FFE64E
:103D60003068216920F0F80040EAC1003060E2E6E6
:103D7000A06801287FF456AF5AE71DB1306C20F0DF
:103D800080503064A06938B3B16801F00C01082993
:103D900096D0022885D10020386601F0AFFE054696
:103DA000306881013FF56FAFE269206A616A0243C2
:103DB000A06A400842EA8112401E42EA0042E06ADC
:103DC00042EA006272600121396601F097FE044602
:103DD000306881017FF55EAF0020BDE8F28300BF4F
:103DE0000038024000004742800E47420070004009
:103DF0002DE9F04104000F4678D0494E306800F0BC
:103E00000700B84202D200F073F86FD12068454D28
:103E1000810712D5400703D5A96841F4E051A96094
:103E20002078010703D5A86840F46040A860A9681D
:103E3000A06821F0F0010143A9602178C8074DD5A1
:103E40006068012802D129688A0305E0022818BFAA
:103E5000032803D129688A0103D447E029688A0727
:103E600044D5A968890840EA8100A86001F046FEAF
:103E70008046A868616800F00C00B0EB810F2DD07F
:103E800001F03CFEA0EB080041F289318842F0D3FA
:103E9000032021E02078410705D5AA68E06822F4D4
:103EA000E0520243AA602178080706D5A968206974
:103EB00021F4604141EAC001A96000F03FF8AA681E
:103EC00019491A4BC2F30312895CC840186018489C
:103ED000006801F0D5FD0020BDE8F081306800F0F9
:103EE00007008742D6D200F003F8D3D00120F3E7D1
:103EF0003770316801F00701B94270470B480D4A2D
:103F0000006813680C49C3F3822206E00748094A97
:103F1000006813680849C3F34232895CC84070479F
:103F2000003C024000380240E46600080C0000201B
:103F300008000020083802400468000830B5144C1E
:103F4000606800F00C00042802D0082802D01DE0B0
:103F5000104830BD226820680023410202F03F0271
:103F600004D525680B49C5F3881003E020680A4989
:103F7000C0F38810A1FB000101F0D8FF2168C1F354
:103F80000141491C4900B0FBF1F030BD024830BD91
:103F90000438024000127A000024F400012200E0FC
:103FA000002210210148FDF77BBC00000000024008
:103FB00038B504460D46FFF7F3FF05EB0415303521
:103FC000E8B2FFF7CDF80020FFF7CAF80446FFF784
:103FD000E5FF204632BDBDE87040DFE704460D46F0
:103FE0001646DDE770B5FFF7F9FF2401B034E0B203
:103FF000FFF7B6F8002405E00020FFF7B1F8E1B2C2
:10400000641C6854E0B2B042F6D3E4E700000A2131
:104010002846CDE72DE9F041884605460821FFF7FF
:10402000C7FF002710F0030F17D00B21FFF7F0FF99
:104030000646FFF7ECFF0446FFF7E9FF310707D517
:10404000A042B8BF0446002C0CBF4FF4807727462F
:104050003A4641462846FFF7C5FF3846BDE8F0819D
:1040600038B5040001D1012032BD00F026F808B9AE
:1040700000F014F800F017F800F023F8FFE74161B2
:1040800000F001F832BD2068C16841F40051C16000
:104090000020686020216970A97070470021297094
:1040A0002046FFF7F6B8242068702068C16821F424
:1040B0000051C160204600F04DBA04F13C0568781B
:1040C00070472068016921F49041016120684169CD
:1040D00021F02A0170472DE9F843054605F13C0619
:1040E0000C46707820281746994642D10CB138000A
:1040F00001D101203EE0307801283AD00121317011
:10410000002070602122727001F0F8FCAF848046BC
:10411000EF84A868B0F5805F04BF286900280EBF4F
:104120002746204600270021317004460EE014F88F
:10413000012B426007E02868002CF8D137F8021BF9
:10414000C1F308014160E88C411EE9844346E88CD4
:10415000CDF8009000280FD000228021284600F0E2
:1041600042F90028E7D0032004E0202070700020EE
:1041700000E00220BDE8F28300224021284600F042
:1041800032F90028F1D0EEE738B500F130039C7B1E
:10419000202C0FD109B1140001D1012032BD1C7BAC
:1041A000012C07D001241C7300251D60BDE8384098
:1041B00000F04BB9022032BD0020206310BDC16069
:1041C000206841694908490041617047416921F00F
:1041D00040014161A06B70477CB5044622681168BC
:1041E000D568536911F00F0007D188065FD5AB067B
:1041F0005DD52046BDE8764060E1D80702D415F4CD
:10420000907F54D0C80705D5EA0503D5206C40F04F
:1042100001002064480705D5DA0703D5206C40F07B
:1042200002002064880705D5DA0703D5206C40F02A
:1042300004002064080707D5AA0601D4D80703D5CF
:10424000226C42F008022264206C00282ED08806DE
:1042500004D5A90644BF204600F030F92068406923
:10426000216C0A0701D440061BD5204600F008F94E
:10427000206841694A060FD5FFF7A8FF60B10FF229
:1042800031210165A06B01F019FF00280ED0A06B51
:10429000016DBDE87C4008472046BDE8764001F04E
:1042A00024BF204601F021FF0020206473BD206B55
:1042B000012804F13D0354D1C80652D5EE0650D56D
:1042C000002100911568009551680091009851698E
:1042D000480625D5A16B0868406880B200287BD0CD
:1042E000A58DA84278DAE085C869B0F5807F13D043
:1042F000D06820F48070D060FFF762FF20684169C9
:1043000021F040014161202058700021216300F01C
:1043100064F8A06B01F08EFEA18DE08D091A1AE001
:10432000A08DE18D411AE08D00281CBF88B20028C5
:1043300052D0D06820F49070D06020684269520852
:104340005200426120205870002222632068C26817
:1043500022F01002C2602046BDE87C4089B201F024
:10436000C5BE080629D52E0627D51878212833D1B1
:10437000A068B0F5805F04BF2069002808D1206ADA
:104380000188C1F308015160206A811C216204E0A8
:10439000206A411C216200785060E08C401EE0845D
:1043A00080B2C8B92068C16821F08001C16020686E
:1043B000C16841F04001C16073BD48060CD5690673
:1043C0000AD5D06820F04000D06020211970204626
:1043D000BDE87640FEF7C1B873BD2068C16821F022
:1043E0001001C16070472DE9F041069C05460E465C
:1043F00090461F46286801683140B1420CBF012039
:104400000020404517D114F1010FF3D024B101F081
:1044100075FBC01B8442EDD22868C16821F4D071BD
:1044200000F00CF805F13C00202141708170002162
:104430000170032000E00020BDE8F081C160286821
:104440004169490849004161704781628285C2859E
:1044500000F13C0100224A6022238B700A7001683F
:10446000CB6843F48073CB6001684A6942F0010273
:104470004A610068C16841F02001C16000207047B6
:104480000168CA6822F49072CA6001684A695208D9
:1044900052004A61016B012904D10168CA6822F007
:1044A0001002CA60202180F83E100022026370478B
:1044B000806B0021C185C18401F017BE10B5044690
:1044C00094F83E00222843D1A068A16AB0F5805F2D
:1044D0000AD1206968B922685068C0F308000880D2
:1044E000A16A881CA0620FE0002804BF2069002890
:1044F00002D12268506803E02068406800F07F0025
:104500000870A06A411CA162E08D401EE08580B267
:10451000E0B92068C16821F02001C1602068C1684D
:1045200021F48071FFF74BFE202084F83E00216BC0
:10453000012906D1FFF751FF2046A18D01F0D6FDDC
:1045400002E02046FDF795FFFFF736BE002010BDC4
:10455000022010BD70B5044622681169E06821F49C
:10456000405101431161D3682648A1680340206986
:104570000B4361690343E0690B430343D360516913
:10458000A06921F44071014351611F498A421CBF57
:104590001E48824202D1FFF7B9FC01E0FFF7AEFCF2
:1045A00062682568E46964261921B4F5004FA1FB0F
:1045B000000112D1D30F520001F0B8FC00F028F82E
:1045C000F60032366420B6FBF0F0420002F4F872D6
:1045D00002EB011200F0070010E0930F920001F0CF
:1045E000A5FC00F015F8360132366420B6FBF0F079
:1045F00000F0F00202EB011200F00F008018A8603A
:1046000070BD0000F369FFFF00100140001401407D
:104610006421B0FBF1F106FB110670472DE9F04172
:10462000C14D28880024002862D0C049C04A0978BA
:1046300013888B425CD01180BE490A88521C0A80C4
:1046400092B2062A54DBBC4ABC4E10800746B7F52E
:10465000807F0C8035DABA4A3178B2F83E3199421F
:1046600030D1811EC9B2304600F046F9F119020A74
:1046700011F8023D9A4202BF4978C0B288421ED169
:104680007178B048032902D10121AF4A0EE0102908
:1046900002D10121AD4A09E0012903D1AC49012031
:1046A00008700FE0062908D10121AA4A1170B378D9
:1046B000F17801EB0321018004E0012402E00224EF
:1046C00000E00424A44FDFF89482012241463846DA
:1046D000FFF75AFD0020288054B11421304601F024
:1046E00007FD41463846BDE8F0410122FFF74CBDC9
:1046F000BDE8F0812DE9FC4E9249994A0B88DFF81C
:104700003CC2914DDFF838929CF805E09CF80170AE
:104710002978DFF850A21E4602EB8604019409EBCB
:1047200046020020009241F2883B8F4CA9B39CF8CE
:104730000000207067704FEA4E00A070B6F5006F61
:10474000B9F8280110DA012812D10020E31C7045C5
:1047500013DA009931F810100A0A03F81020221D0C
:1047600002F81010401CF2E75E45C0F2A18001285B
:1047700040F09E800020E61C704580F299800199EF
:1047800001EB800252F80A100B041B0E06F81030E1
:10479000221D02F81010401CEEE76E496B4A0978A2
:1047A000127851EA02054CD041F27175AE4204DB39
:1047B000B9F81250B5F5FA6F14D10120A3F12D0507
:1047C000072D04D2694D2D3B2B80694D287000299F
:1047D00040D09CF80410B6F5006F0EEB012232DADF
:1047E00029F816200221217067709CF80220A2701F
:1047F0009CF80310E1709CF80420227184F805E015
:1048000010B9FF20207160710621204600F074F875
:10481000584A010A108002B0A171E071082056497F
:104820004A4B088000224B494B481A700A702146B7
:10483000524B1A804FF6FF73BDE8F04E0822FFF787
:104840004ABCBDE8F38E5E45CCDB4549514441F896
:104850002620C7E7002AC5D0BEF1640FC2DAB6F53C
:10486000006F10DA7145BDDA0CF1070212F8113051
:104870000CF1080212F81150009A05EB032322F8FC
:104880001130491CEEE75E45ACDB7145AADA0CF14C
:10489000070212F811300CF1080212F81150019AB7
:1048A00002EB810605EB032346F80A30491CECE7CE
:1048B000A178C91CC9B2204600F01EF82D49088015
:1048C000E31CA178020A5A54221DA378D054002177
:1048D000A2782948521D028029704FF6FF73274D98
:1048E0001D48298092B22146FFF7F5FBBDE8FC4E3A
:1048F00020212348FCF7D8BF70B50246214CFF2386
:10490000FF2004F5807606E012F8015B5D40034667
:10491000605D4340705D0D46691EEDB2002DF3D120
:1049200040EA032070BD0000A87200203C850020F2
:10493000888500208A85002080850020A86C0020C2
:104940001066002086850020E8850020E98500208B
:10495000EA850020EB8500202C840020A06C00203C
:1049600010000020E0B1FFFFB47200207C85002021
:10497000DF85002084850020828500207E85002040
:10498000000C0240A46300082DE9F041B54D2888D1
:104990000024002862D0B449B44A097813888B42B5
:1049A0005CD01180B2490A88521C0A8092B2062A51
:1049B00054DBB04FB04E3880B0F5807F0C8036DAD3
:1049C000AE493278B1F840319A4231D1811EC9B234
:1049D0003046FFF791FF3A883244911E030A0F7860
:1049E000BB4202BF4978C0B288421ED17178A44848
:1049F000032902D10121A34A0EE0102902D101218D
:104A0000A14A09E0012903D1A049012008700FE063
:104A1000062908D101219E4A1170B378F17801EB83
:104A20000321018004E0012402E0022400E00424C8
:104A3000984FDFF86482012241463846FFF7A4FB15
:104A40000020288054B11421304601F051FB41462A
:104A50003846BDE8F0410122FFF796BBBDE8F08182
:104A60002DE9FC4E86498D4A0B88DFF80CC2854D36
:104A7000DFF808929CF805E09CF801702978DFF8CF
:104A800020A21E4602EB8604019409EB4602002098
:104A9000009241F2883B834CA9B39CF8000020703F
:104AA00067704FEA4E00A070B6F5006FB9F82801A4
:104AB00010DA012812D10020E31C704513DA0099A6
:104AC00031F810100A0A03F81020221D02F8101005
:104AD000401CF2E75E45C0F2A180012840F09E80B4
:104AE0000020E61C704580F29980019901EB80025C
:104AF00052F80A100B041B0E06F81030221D02F8A3
:104B00001010401CEEE762495F4A0978127851EABA
:104B100002054CD041F27175AE4204DBB9F8125077
:104B2000B5F5FA6F14D10120A3F12D05072D04D29C
:104B30005D4D2D3B2B805D4D2870002940D09CF8A9
:104B40000410B6F5006F0EEB012232DA29F81620B8
:104B50000221217067709CF80220A2709CF803105B
:104B6000E1709CF80420227184F805E010B9FF2060
:104B70002071607106212046FFF7BEFE4C4A010AF3
:104B8000108002B0A171E07108204A493E4B0880B4
:104B900000223F493F481A700A702146464B1A804E
:104BA0004FF6FF73BDE8F04E0822FFF794BABDE858
:104BB000F38E5E45CCDB3949514441F82620C7E7E6
:104BC000002AC5D0BEF1640FC2DAB6F5006F10DA64
:104BD0007145BDDA0CF1070212F811300CF1080230
:104BE00012F81150009A05EB032322F81130491CEA
:104BF000EEE75E45ACDB7145AADA0CF1070212F86C
:104C000011300CF1080212F81150019A02EB8106E2
:104C100005EB032346F80A30491CECE7A178C91CD0
:104C2000C9B22046FFF768FE21490880E31CA1783D
:104C3000020A5A54221DA378D0540021A2781D489C
:104C4000521D028029704FF6FF731B4D11482980B9
:104C500092B22146FFF73FFABDE8FC4E10211748FB
:104C6000FCF722BEAA7200203C8500209685002019
:104C7000988500208E850020A86D002010660020F9
:104C800094850020EC850020ED850020EE85002035
:104C9000EF85002070840020A16C0020100000200F
:104CA000E0B1FFFFB47300207C850020DF85002089
:104CB00092850020908500208C850020000C024009
:104CC0002DE9F041B54D28880024002862D0B44970
:104CD000B44A097813888B425CD01180B2490A88A3
:104CE000521C0A8092B2062A54DBB04FB04E388074
:104CF000B0F5807F0C8036DAAE493278B1F84231B7
:104D00009A4231D1811EC9B23046FFF7F5FD3A888B
:104D10003244911E030A0F78BB4202BF4978C0B2E9
:104D200088421ED17178A448032902D10121A34AE7
:104D30000EE0102902D10121A14A09E0012903D185
:104D4000A049012008700FE0062908D101219E4AE0
:104D50001170B378F17801EB0321018004E00124A4
:104D600002E0022400E00424984FDFF8648201226C
:104D700041463846FFF708FA0020288054B1142134
:104D8000304601F0B5F941463846BDE8F041012210
:104D9000FFF7FAB9BDE8F0812DE9FC4E86498D4A4E
:104DA0000B88DFF80CC2854DDFF808929CF805E00F
:104DB0009CF801702978DFF820A21E4602EB8604D9
:104DC000019409EB46020020009241F2883B834C9B
:104DD000A9B39CF80000207067704FEA4E00A070E5
:104DE000B6F5006FB9F8280110DA012812D10020B9
:104DF000E31C704513DA009931F810100A0A03F821
:104E00001020221D02F81010401CF2E75E45C0F28F
:104E1000A180012840F09E800020E61C704580F2B1
:104E20009980019901EB800252F80A100B041B0EC5
:104E300006F81030221D02F81010401CEEE76249FF
:104E40005F4A0978127851EA02054CD041F2717537
:104E5000AE4204DBB9F81250B5F5FA6F14D1012057
:104E6000A3F12D05072D04D25D4D2D3B2B805D4D0B
:104E70002870002940D09CF80410B6F5006F0EEBA6
:104E8000012232DA29F816200221217067709CF87D
:104E90000220A2709CF80310E1709CF8042022719B
:104EA00084F805E010B9FF202071607106212046CA
:104EB000FFF722FD4C4A010A108002B0A171E07197
:104EC00008204A493E4B088000223F493F481A705B
:104ED0000A702146464B1A804FF6FF73BDE8F04E2C
:104EE0000822FFF7F8B8BDE8F38E5E45CCDB394900
:104EF000514441F82620C7E7002AC5D0BEF1640F0F
:104F0000C2DAB6F5006F10DA7145BDDA0CF10702AE
:104F100012F811300CF1080212F81150009A05EB4A
:104F2000032322F81130491CEEE75E45ACDB7145E6
:104F3000AADA0CF1070212F811300CF1080212F88B
:104F40001150019A02EB810605EB032346F80A3063
:104F5000491CECE7A178C91CC9B22046FFF7CCFC7C
:104F600021490880E31CA178020A5A54221DA37823
:104F7000D0540021A2781D48521D028029704FF69E
:104F8000FF731B4D1148298092B22146FFF7A3F809
:104F9000BDE8FC4E08211748FCF786BCAC72002027
:104FA0003C850020A4850020A68500209C8500204B
:104FB000A86E002010660020A2850020F085002049
:104FC000F1850020F2850020F3850020B4840020C4
:104FD000A26C002010000020E0B1FFFFB47400209C
:104FE0007C850020DF850020A08500209E85002094
:104FF0009A850020000C02402DE9F041B54D28882B
:105000000024002862D0B449B44A097813888B423E
:105010005CD01180B2490A88521C0A8092B2062ADA
:1050200054DBB04FB04E3880B0F5807F0C8036DA5C
:10503000AE493278B1F844319A4231D1811EC9B2B9
:105040003046FFF759FC3A883244911E030A0F7824
:10505000BB4202BF4978C0B288421ED17178A448D1
:10506000032902D10121A34A0EE0102902D1012116
:10507000A14A09E0012903D1A049012008700FE0ED
:10508000062908D101219E4A1170B378F17801EB0D
:105090000321018004E0012402E0022400E0042452
:1050A000984FDFF86482012241463846FFF76CF8DA
:1050B0000020288054B11421304601F019F84146EF
:1050C0003846BDE8F0410122FFF75EB8BDE8F08147
:1050D0002DE9FC4E86498D4A0B88DFF80CC2854DC0
:1050E000DFF808929CF805E09CF801702978DFF859
:1050F00020A21E4602EB8604019409EB4602002022
:10510000009241F2883B834CA9B39CF800002070C8
:1051100067704FEA4E00A070B6F5006FB9F828012D
:1051200010DA012812D10020E31C704513DA00992F
:1051300031F810100A0A03F81020221D02F810108E
:10514000401CF2E75E45C0F2A180012840F09E803D
:105150000020E61C704580F29980019901EB8002E5
:1051600052F80A100B041B0E06F81030221D02F82C
:105170001010401CEEE762495F4A0978127851EA44
:1051800002054CD041F27175AE4204DBB9F8125001
:10519000B5F5FA6F14D10120A3F12D05072D04D226
:1051A0005D4D2D3B2B805D4D2870002940D09CF833
:1051B0000410B6F5006F0EEB012232DA29F8162042
:1051C0000221217067709CF80220A2709CF80310E5
:1051D000E1709CF80420227184F805E010B9FF20EA
:1051E0002071607106212046FFF786FB4C4A010AB8
:1051F000108002B0A171E07108204A493E4B08803E
:1052000000223F493F481A700A702146464B1A80D7
:105210004FF6FF73BDE8F04E0822FEF75CBFBDE815
:10522000F38E5E45CCDB3949514441F82620C7E76F
:10523000002AC5D0BEF1640FC2DAB6F5006F10DAED
:105240007145BDDA0CF1070212F811300CF10802B9
:1052500012F81150009A05EB032322F81130491C73
:10526000EEE75E45ACDB7145AADA0CF1070212F8F5
:1052700011300CF1080212F81150019A02EB81066C
:1052800005EB032346F80A30491CECE7A178C91C5A
:10529000C9B22046FFF730FB21490880E31CA17802
:1052A000020A5A54221DA378D0540021A2781D4826
:1052B000521D028029704FF6FF731B4D1148298043
:1052C00092B22146FEF707FFBDE8FC4E08211748C1
:1052D000FCF7EABAAE7200203C850020B2850020BF
:1052E000B4850020AA850020A86F00201066002049
:1052F000B0850020F4850020F5850020F68500208B
:10530000F7850020A4830020A36C0020100000205B
:10531000E0B1FFFFB47500207C850020DF85002010
:10532000AE850020AC850020A8850020000C02403E
:105330002DE9F041B54D28880024002862D0B449F9
:10534000B44A097813888B425CD01180B2490A882C
:10535000521C0A8092B2062A54DBB04FB04E3880FD
:10536000B0F5807F0C8036DAAE493278B1F846313C
:105370009A4231D1811EC9B23046FFF7BDFA3A8850
:105380003244911E030A0F78BB4202BF4978C0B273
:1053900088421ED17178A448032902D10121A34A71
:1053A0000EE0102902D10121A14A09E0012903D10F
:1053B000A049012008700FE0062908D101219E4A6A
:1053C0001170B378F17801EB0321018004E001242E
:1053D00002E0022400E00424984FDFF864820122F6
:1053E00041463846FEF7D0FE0020288054B11421F3
:1053F000304600F07DFE41463846BDE8F0410122CE
:10540000FEF7C2BEBDE8F0812DE9FC4E86498D4A0B
:105410000B88DFF80CC2854DDFF808929CF805E098
:105420009CF801702978DFF820A21E4602EB860462
:10543000019409EB46020020009241F2883B834C24
:10544000A9B39CF80000207067704FEA4E00A0706E
:10545000B6F5006FB9F8280110DA012812D1002042
:10546000E31C704513DA009931F810100A0A03F8AA
:105470001020221D02F81010401CF2E75E45C0F219
:10548000A180012840F09E800020E61C704580F23B
:105490009980019901EB800252F80A100B041B0E4F
:1054A00006F81030221D02F81010401CEEE7624989
:1054B0005F4A0978127851EA02054CD041F27175C1
:1054C000AE4204DBB9F81250B5F5FA6F14D10120E1
:1054D000A3F12D05072D04D25D4D2D3B2B805D4D95
:1054E0002870002940D09CF80410B6F5006F0EEB30
:1054F000012232DA29F816200221217067709CF807
:105500000220A2709CF80310E1709CF80420227124
:1055100084F805E010B9FF20207160710621204653
:10552000FFF7EAF94C4A010A108002B0A171E0715C
:1055300008204A493E4B088000223F493F481A70E4
:105540000A702146464B1A804FF6FF73BDE8F04EB5
:105550000822FEF7C0BDBDE8F38E5E45CCDB3949BD
:10556000514441F82620C7E7002AC5D0BEF1640F98
:10557000C2DAB6F5006F10DA7145BDDA0CF1070238
:1055800012F811300CF1080212F81150009A05EBD4
:10559000032322F81130491CEEE75E45ACDB714570
:1055A000AADA0CF1070212F811300CF1080212F815
:1055B0001150019A02EB810605EB032346F80A30ED
:1055C000491CECE7A178C91CC9B22046FFF794F941
:1055D00021490880E31CA178020A5A54221DA378AD
:1055E000D0540021A2781D48521D028029704FF628
:1055F000FF731B4D1148298092B22146FEF76BFDC7
:10560000BDE8FC4E02211748FCF74EB9B0720020ED
:105610003C850020C0850020C2850020B885002080
:10562000A870002010660020BE850020F8850020AC
:10563000F9850020FA850020FB850020E883002002
:10564000A46C002010000020E0B1FFFFB476002021
:105650007C850020DF850020BC850020BA850020E5
:10566000B6850020000C02402DE9F041B54D288898
:105670000024002862D0B449B44A097813888B42C8
:105680005CD01180B2490A88521C0A8092B2062A64
:1056900054DBB04FB04E3880B0F5807F0C8036DAE6
:1056A000AE493278B1F848319A4231D1811EC9B23F
:1056B0003046FFF721F93A883244911E030A0F78E9
:1056C000BB4202BF4978C0B288421ED17178A4485B
:1056D000032902D10121A34A0EE0102902D10121A0
:1056E000A14A09E0012903D1A049012008700FE077
:1056F000062908D101219E4A1170B378F17801EB97
:105700000321018004E0012402E0022400E00424DB
:10571000984FDFF86482012241463846FEF734FD97
:105720000020288054B11421304600F0E1FC4146AD
:105730003846BDE8F0410122FEF726BDBDE8F08104
:105740002DE9FC4E86498D4A0B88DFF80CC2854D49
:10575000DFF808929CF805E09CF801702978DFF8E2
:1057600020A21E4602EB8604019409EB46020020AB
:10577000009241F2883B834CA9B39CF80000207052
:1057800067704FEA4E00A070B6F5006FB9F82801B7
:1057900010DA012812D10020E31C704513DA0099B9
:1057A00031F810100A0A03F81020221D02F8101018
:1057B000401CF2E75E45C0F2A180012840F09E80C7
:1057C0000020E61C704580F29980019901EB80026F
:1057D00052F80A100B041B0E06F81030221D02F8B6
:1057E0001010401CEEE762495F4A0978127851EACE
:1057F00002054CD041F27175AE4204DBB9F812508B
:10580000B5F5FA6F14D10120A3F12D05072D04D2AF
:105810005D4D2D3B2B805D4D2870002940D09CF8BC
:105820000410B6F5006F0EEB012232DA29F81620CB
:105830000221217067709CF80220A2709CF803106E
:10584000E1709CF80420227184F805E010B9FF2073
:105850002071607106212046FFF74EF84C4A010A7C
:10586000108002B0A171E07108204A493E4B0880C7
:1058700000223F493F481A700A702146464B1A8061
:105880004FF6FF73BDE8F04E0822FEF724BCBDE8DA
:10589000F38E5E45CCDB3949514441F82620C7E7F9
:1058A000002AC5D0BEF1640FC2DAB6F5006F10DA77
:1058B0007145BDDA0CF1070212F811300CF1080243
:1058C00012F81150009A05EB032322F81130491CFD
:1058D000EEE75E45ACDB7145AADA0CF1070212F87F
:1058E00011300CF1080212F81150019A02EB8106F6
:1058F00005EB032346F80A30491CECE7A178C91CE4
:10590000C9B22046FEF7F8FF21490880E31CA178C0
:10591000020A5A54221DA378D0540021A2781D48AF
:10592000521D028029704FF6FF731B4D11482980CC
:1059300092B22146FEF7CFFBBDE8FC4E012117488D
:10594000FBF7B2BFB27200203C850020CE8500205C
:10595000D0850020C6850020A87100201066002098
:10596000CC850020FC850020FD850020FE850020E0
:10597000FF850020F8840020A56C00201000002086
:10598000E0B1FFFFB47700207C850020DF85002098
:10599000CA850020C8850020C4850020000C024074
:1059A00070B500F13C031A78012A01D1022070BDC4
:1059B00001221A7002245C7005686E68AC680A687F
:1059C00026F0700616436E6002681148824218BFC6
:1059D000B2F1804F11D0114882421CBF104DAA4233
:1059E0000BD00D4882421CBF0E4DAA4205D009487B
:1059F00082421CBF0C4DAA4204D1486824F08004A6
:105A000004439460012159700020187070BD00009B
:105A10000000014000400140000C00400004004034
:105A200000080040000401400018004010B590F844
:105A30003C20012A01D1022010BD012280F83C2027
:105A4000CC688A684B6824F44074144324F480645E
:105A50001C430A680B6924F40064144324F4805442
:105A60001C434A69C96924F400541443026824F4AD
:105A700080440C435464002380F83C30002010BD67
:105A800038B50D4D0D4B2A7804464FF47A711868DD
:105A9000B1FBF2F2B0FBF2F0FCF728FA50B9102C8F
:105AA00008D2002221464FF0FF30FCF7F7F9AC6036
:105AB000002032BD012032BD000000200C0000207B
:105AC00082B00020009000220B48416841F48041E0
:105AD0004160416801F4804100910099009203689F
