:020000040800F2
:10000000B8880020D5610008AD5F0008AF5F000828
:10001000B15F0008B35F0008B55F00080000000092
:10002000000000000000000000000000B75F0008B2
:10003000B95F000800000000BB5F0008BD5F00085A
:10004000096200080D6200081162000815620008CC
:10005000196200081D620008E95F000821620008BB
:1000600025620008296200082D620008316200083C
:1000700035620008396200083D62000841620008EC
:1000800045620008496200084D620008516200089C
:1000900055620008596200085D620008616200084C
:1000A00065620008EF5F0008696200086D62000881
:1000B000FD5F00080B60000819600008716200080D
:1000C00075620008796200087D620008816200089C
:1000D00085620008276000082D6000083360000872
:1000E000896200088D62000891620008956200082C
:1000F00039600008996200089D620008A16200084A
:10010000A5620008A962000847600008AD62000807
:10011000556000085B600008B1620008B562000825
:10012000B9620008BD620008C1620008C56200082B
:10013000C9620008CD620008D1620008D5620008DB
:10014000D9620008DD620008E1620008E56200088B
:10015000E9620008ED620008F162000861600008D1
:10016000F5620008F9620008FD62000801630008FA
:1001700005630008096300080D6300080000000023
:1001800011630008156300082DE9F34F0021009169
:10019000A0F1010B8E46BBF1050F4FF08041DFF857
:1001A000D437DFF8D447DFF8D457DFF8D467DFF867
:1001B000E4A8DFF8E4885ED8DFE80BF00311202F15
:1001C0003E4DDFF8D8E801278EF80770CEF85010C2
:1001D00000278EF806700AF5BC7957464BE0DFF829
:1001E000C0E802278EF80770CEF8503000278EF84E
:1001F00006700AF58D690AF53C773CE0DFF8A4E863
:1002000003278EF80770CEF8504000278EF806704E
:100210000AF5EB690AF5BC672DE0DFF88CE80427E6
:100220008EF80770CEF8505000278EF806700AF648
:1002300048290AF50D671EE0DFF888E805278EF8E3
:100240000770CEF8506000278EF806700AF638590D
:100250000AF53C670FE0DFF870E806278EF80770B4
:1002600041F2280C00278EF80670CEF850800AF56F
:100270006B670AEB0C09072856DA002854D09DF862
:1002800004008EF80400CEF834205043CEF83C0031
:100290005E22AEF818200020CEF83000CEF83800EC
:1002A0005D22AEF814008EF80500CEF81C00CEF8E2
:1002B0002000AEF81A20CEF80C70CEF810900098FE
:1002C00009E0DEF81070DEF81C2037F810703A44B0
:1002D000CEF81C20401CBEF818209042F1D300201C
:1002E0000CE0DEF810C0BEF81870DEF82020C71948
:1002F0003CF817703A44CEF82020401CBEF81A2073
:100300009042EED3DEF80C20DEF850001288C26274
:10031000DEF85000B0F1804F07D1DEF80C00008805
:100320004008886300224A6232E0984207D1DEF832
:100330000C000088400858630021596228E0A04260
:1003400007D1DEF80C00008840086063002161627C
:100350001EE0A84207D1DEF80C000088400828649F
:100360000021696214E0B04207D1DEF80C00008879
:1003700040087063002171620AE0404508D1DEF850
:100380000C0000884008C8F834000021C8F8241088
:10039000BDE8F38FF0B504460022002300200021C1
:1003A00000260027641E052C00F2C680DFE804F05A
:1003B000031114171A1DDFF8E4C6DCF81C50DCF832
:1003C00020E0DCF828407544AC425CD3BCF818400F
:1003D0001BE0DFF8CCC6F0E7DFF8C8C6EDE7DFF8D2
:1003E000C8C6EAE7DFF8DCC6E7E7DFF8DCC6E4E723
:1003F000DCF81000DCF80C1030F8170031F817109A
:100400004843121843EBE0737F1CA742F0DB002542
:100410000DE0DCF81000DCF80C10661930F816005E
:1004200031F816104843121843EBE0736D1CBCF80A
:100430001A008542EDDBDCF80C50DCF82800DCF813
:100440001C1005EB4404401A34F8021CA0EB0E000B
:10045000484300211018DCF82820A2EB0E02594175
:10046000CCF8242064E000F068F8121943EBE47340
:1004700000F063F8001941EBE471DCF8104034F847
:10048000174036197F1CDCF81050DCF8284035F88E
:10049000175064087519AC42E5D210185941DCF8C0
:1004A0001030DCF8284033F81730A4EB4604A342A0
:1004B0002ED2DCF81030DCF82840A4EB460423F8F8
:1004C00017400023CCF81C30CCF8203009E0DCF8D1
:1004D0001050DCF81C4035F813506419CCF81C405F
:1004E0005B1CBCF81840A342F1DB00230CE0DCF8F5
:1004F0001050BCF818E0DCF820409E4435F81E503F
:100500006419CCF820405B1CBCF81A40A342EEDB17
:10051000DCF80C30DCF8284003EB4703A4EB460280
:100520001B885A43002380185941A61BCCF824602D
:10053000CCF84800CCF84C10F0BDDCF81040DCF8EA
:100540000C5034F8174035F817506C4370470000D2
:100550000022411E052900D9704738B5DFE801F0B7
:10056000030C0F121518DFF8341500258A608A82F3
:100570004D71CA610A6215E0DFF82415F5E7DFF86E
:100580002415F2E7DFF82015EFE7DFF83815ECE780
:10059000DFF83415E9E70C69CB6934F812401B1910
:1005A000CB61521C0B8B9A42F5DB002208E00C69F0
:1005B0000D8B0B6A551934F815401B190B62521C30
:1005C0004B8B9A42F3DBCB680A6D1B88D3620A6DB2
:1005D000B2F1804F06D1CA68DFF8F03412885208B1
:1005E0005A612CE0DFF88C339A4203D1CA68DFF8F5
:1005F000603521E0DFF880339A4203D1CA68DFF822
:10060000543519E0DFF874339A4206D1CA68DFF82E
:10061000483512885208DA6111E0DFF864339A42F3
:1006200003D1CA68DFF8343506E0DFF86C349A424B
:1006300007D1CA68DFF85C36128852081A610024B4
:100640001C6000230A6DD26A0A644B64BDE8324024
:10065000A0E631BDF8B52DED0A8BB0EE608AF0EE64
:10066000418AB0EE619AF0EE429AB0EE62AA10EEC4
:10067000100A00F0A1FCB5EE40AAF1EE10FAA4BFFA
:10068000F4EE4A8AF1EE10FA41EC1B0B0EDB00F09F
:100690009DF800F0B5F800F0A7F800F09BF800F026
:1006A000A3F800F097F853EC1B2B27E0F4EE4A8AEE
:1006B000F1EE10FA38EE890A23D500F07EF820DB3F
:1006C00000F084F800F09CF800F094F800F082F854
:1006D00000F090F800F07EF853EC1B2B00F090FC3B
:1006E0003AEE680A20EE080A044620EE280A0D4673
:1006F00010EE100A00F060FC22462B4600F080FC51
:1007000051E000F05AF853D530EE290A00F055F8C0
:100710004EDB30EE4ACA00F059F800F071F800F0F4
:1007200069F800F057F841EC1A0B18EE900A00F047
:1007300043FC00F047F853EC1B2B00F061FC69EE22
:10074000080A044660EEA80A0D4610EE900A00F072
:1007500033FC22462B4600F053FC00F03FF800F03B
:1007600031F822462B4600F04BFC06460F461CEEA5
:10077000100A00F021FC00F025F804460D461CEE9E
:10078000100A00F019FC00F025F800F027F80246E6
:100790000B462046294600F00DFD02460B4630462A
:1007A000394600F02BFE00F09BFE00EE100A01E03F
:1007B0009FED6E0ABDEC0A8BF1BDB4EE4A0AF1EE74
:1007C00010FA704753EC1A2B00F0BEBE18EE100A58
:1007D00000F0F2BB22462B4600F0B6BE04460D46A2
:1007E00019EE900A00F0E8BB04460D461AEE100A16
:1007F00000F0E2BB04460D4618EE900A00F0DCBBA8
:100800000022DFF8743500F09FBE000070B52DEDBA
:10081000088BF0EE408AB0EE608A80B2F0EE41BA0A
:1008200000EE100AF3EE0F0AB0EE42BA0C4615467F
:100830000026B8EE409ACBEEA09AF0EE61AA00EE48
:10084000106AB8EEC00A69EE802A00F06DF8DFED9C
:10085000480AC0EE800AFDEEE00A29EE800A10EE9A
:10086000900A80EE090A24F81600BDEEC00A10EEC8
:10087000101A25F81610761C1F2EE0DBB3EE0F0AB7
:100880001F26CAEE809AA6F11F0000EE900AF8EE2D
:10089000E00AF0EE6B2A00F045F800F051F83E2E29
:1008A000F1DBB3EE0F0A3E26CBEE009A3BEEAAAA8E
:1008B000A6F13E0000EE900AF8EEE00AF0EE4A2AB9
:1008C00000F030F800F03CF85D2EF1DB7AEE0B2AF8
:1008D00000F02AF8DFED260AC0EE800A29EE800A31
:1008E000FDEEE00A80EE090A10EE900ABDEEC00AA5
:1008F000A4F8BA0010EE101AA5F8BA105E20414212
:1009000004EB410205EB4101B2F8743124F81030D8
:10091000B1F8742125F81020401CBA28EFDDBDEC99
:10092000088B70BD49EEA02AB0EE4B2AF0EE6A1A91
:10093000B0EE6B1AF0EE480AB0EE680A8AE60000E4
:100940009FED0B1A81EE001ABDEEC11A29EE800A46
:1009500011EE101A80EE090A24F81610BDEEC00A36
:1009600010EE100A25F81600761C704700000000F3
:10097000A037204B00080040000401400004004064
:1009800000000140D0B51600034629D000245B1EAC
:10099000052BDFF8D0050F4622D8DFE803F003224D
:1009A0003546576800290CBF00220122DFF8B80540
:1009B000022100F079FF3949012008704F700122AF
:1009C0008A70CC620C644C64087946438E620120C4
:1009D000FFF7BEFD4FF08040016841F0010101606A
:1009E000D0BD012FDFF884050CBF002201224FF497
:1009F000807100F059FF2A4900F058F80220FFF7F3
:100A0000A7FDDFF86C05E7E7DFF868053A4607B1B0
:100A10000122202100F048FF224900F047F803207E
:100A2000FFF796FDDFF85005D6E700290CBF00223E
:100A300001224FF4805100F037FF1B4900F036F8D7
:100A40000420FFF785FDDFF83405C5E700290CBF5A
:100A5000002201224FF4004100F026FF194900F066
:100A600025F80520FFF774FDDFF81405B4E7DFF87B
:100A700014053A4607B101224FF4804100F014FFFB
:100A8000114900F013F80620FFF762FDDFF8F804C3
:100A9000A2E7000070540020000C004014800020E9
:100AA00068800020BC800020108100200120087098
:100AB0004F708870CC620C644C64087946438E6237
:100AC0007047000064810020B881002024000040AD
:100AD00010B588B000200090DFF8B044DFF8B00413
:100AE00000F00AF900F00EFF4FF08040206007216F
:100AF0004FF47A700022E0606160A26022612046BB
:100B000000F05CFF00F0D2F8042200F05AF8012255
:100B100004214FF0804001F0FDF8002200211C204C
:100B200001F020F91C2001F03AF920686FF0010172
:100B30000161C26842F00102C260204600F04BFF32
:100B40002068416C41F40041416408B010BD0000D0
:100B500024080040240401402404004024000140F3
:100B600038B588B000200090DFF82844DFF8200472
:100B7000DFF8FC53016841F004010160006800F0F7
:100B800004000090009801F035F900F01EF84FF4D1
:100B9000FA710291022200210491039270204FF415
:100BA00080710190002206910592079200F009F8E9
:100BB00000F0ACF8002200211E2001F0D3F81E2026
:100BC00029E001A9204600F036BF0720606000211F
:100BD0004FF47A70E060A16021612560204600F04A
:100BE000EDBE38B588B000200090DFF8AC43DFF8E8
:100BF000AC03E14D00F050F801F058F90F20FFF779
:100C0000E5FF00F088F800F081F8002200212C2098
:100C100001F0A8F82C2001F0C2F820686FF0010163
:100C20000161C26842F00102C260204600F0D3FEBA
:100C30002068416C41F40041416409B030BD38B5D1
:100C400088B000200090D64CD148CC4D00F024F85C
:100C500001F07EF9FFF7B9FF00F028F80C22FFF74A
:100C6000B0FF01220C21284601F054F80022002197
:100C70001D2001F077F81D2001F091F820686FF039
:100C8000100101616FF001020261C16841F00101D0
:100C9000C160CAE7240C0040016841F00201016014
:100CA000006800F002000090009870474FF4FA715D
:100CB000029170200222002101900392049105917B
:100CC00006910791704738B588B000200090B54C68
:100CD000B248AB4D00F010F801F08EF90F20FFF78D
:100CE00075FF00F018F800F011F80022002119201B
:100CF00001F038F819208EE7016841F00101016028
:100D0000006800F001000090009870470122002167
:100D1000284600F0FFBF4FF4FA71029102220392BD
:100D20007020002101900491002206910592079203
:100D300001A9204600F07FBE38B588B000200090A1
:100D4000994C9348904D016841F00801016000689A
:100D500000F008000090009801F0ACF9FFF735FFB3
:100D6000FFF7D9FFFFF7D2FF00220021322000F069
:100D7000F9FF32204FE700000000E03F2DE9F84383
:100D80002DED028B401E0A9E884FDFF82482052835
:100D9000914607F1720407F1B205B1EE048A23D837
:100DA000DFE800F00326425D7893BD89FC896B4340
:100DB00000F0A7F800F0D1F801F0D2F903463B8229
:100DC00008F5BC7200F0AEF8414600F0BBF800F048
:100DD0009EF80120FFF7D8F94A4600210120BDEC1A
:100DE000028BBDE8F843CDE5BDEC028BBDE8F18395
:100DF000BA8DFC8D534300F084F800F0AEF801F09A
:100E0000AFF903463B8608F58D6200F08BF808F5D4
:100E10003C7100F097F800F07AF80220FFF7B4F97F
:100E20004A4600210220DAE72288678800F073F83A
:100E300000F093F801F094F90346A38008F5EB6203
:100E400000F078F808F5BC6100F07CF800F05FF87D
:100E50000320FFF799F94A4600210320BFE7E28B00
:100E6000278C00F058F800F078F801F079F9034683
:100E7000638408F6482200F05DF808F50D6100F083
:100E800061F800F044F80420FFF77EF94A4600219B
:100E90000420A4E7A28FE78F00F03DF800F05DF892
:100EA00001F05EF903462B8008F6385200F042F854
:100EB00008F53C6100F046F800F029F80520FFF73E
:100EC00063F94A460021052089E76A8BAF8B00F061
:100ED00022F800F042F801F043F90346EB8341F2B7
:100EE000280200F027F8424408F56B6100F02AF868
:100EF00000F00DF80620FFF747F94A4600210620CA
:100F00006DE73C20B3FBF0F0001B01F047B94FF454
:100F100000020121704753433C20B3FBF0F0C01B9B
:100F200001F03CB99BB200EE103AF8EE400A00EE38
:100F3000104A70479BB200EE103AF8EE400A00EEFD
:100F4000107A7047B0EE002AF0EE481AB0EE001AA0
:100F5000B0B2B8EE400AFFF759BC0022154B00F0C2
:100F600029B90000001402400010024000040240B1
:100F70000008004000180240000401400004004046
:100F800000000140000C0240000C0040D07C00201A
:100F900040380240347D0020987D002044380240D3
:100FA000FC7D0020607E0020C47E002010660020B2
:100FB0007054002000002C40C0F3C75181B1FF29BC
:100FC00006D0C110400721F0E04101F160517047A7
:100FD00041020CBF40F4E0016FF000410020704777
:100FE00000F0004100020AD0B0FA80FC00FA0CF0D8
:100FF00001F16051A1EB0C5101EBD021400570478C
:1010000070B44FF0004591EA030F40F1FF816B404F
:10101000841A71EB030604D26E40001BB141121911
:1010200073414FF4001C1CEB410F34BF7CEB4306B3
:1010300083E00C0DA4EB1356362E00F37C80012EBA
:1010400045EAC32341DC43EA525312BFD202920263
:101050005B08240545EAC12141EA5051D2EBC0208A
:10106000994125D407D1B0FA80F610FA06F162D082
:101070000020203608E0B1FA81F6B140C6F1200226
:1010800020FA02F21143B0404FEAF474B4EB465434
:1010900034F001064FEA74040AD8D6F50016760D2E
:1010A00004F00044F04061FA06F25040F14048403C
:1010B000C00A40EA415021F0004128BF5FEA5005D4
:1010C00050F1000044EBD12135E0DB0A45EAC121B3
:1010D000C90AB6F120050EDD42EA0242120CC5F142
:1010E000200603FA06F6EB4042EA06056D429841F7
:1010F00061F100010DE062FA06F5F240554063FA35
:1011000006FC82EA0C02F3405A406D42904161EBCA
:10111000030111F4801F05D1641E620502D06D0029
:101120004041494121F48011430875F1004350F1D9
:10113000000041EB045170BC70471CEB410F15D20D
:1011400023F0004352EA43060BD04FEA4C0CBCEBB1
:10115000410F04D80C0D661E342EB7DDEBE7801A64
:10116000994150EA410608BF0021E4E708BF1CEBA3
:10117000430F28BF6FF00001DDE730B4002513E016
:1011800050F8042BD30744BFA9F101039A18091F93
:10119000042942F8045BFAD213468C0744BF158039
:1011A0009B1CC90748BF1D7050F8041B0029E7D1DC
:1011B00030BC7047F0B540F2FF7581EA030C0CF0CB
:1011C000004C15EA11541DBF15EA1357AC42AF424B
:1011D000E5E0BC41C1F31301C3F31303801A994145
:1011E00043F4801304D2641E4000494180185941E1
:1011F000C90241EA5051B1FBF3F603FB1611A2FB01
:101200000675D7EBC020A94102D2761E801859413D
:10121000C90241EA5051B1FBF3FE03FB1E11A2FBD0
:101220000E75D7EBC020A94103D2AEF1010E801894
:101230005941890241EA9051760546EA8E2EB1FB6A
:10124000F3F603FB1611A2FB0675D7EB8020A9412C
:1012500002D2761E80185941C90241EA50514EEA25
:10126000060EB1FBF3F603FB1611A2FB0675D7EBD6
:10127000C020A94102D2761E80185941C90241EA14
:101280005051B1FBF3F703FB1711A2FB0735D3EB6A
:10129000C020A94167F100070CBF004247F00107D9
:1012A00066F3D5274FEA1E31B80814F5806412DDC5
:1012B000BD0775F1004250EB0E5051EB045111F592
:1012C000801F5CBF41EA0C01F0BD4CF07F6141F032
:1012D000E0410020F0BDBD076D0840EA0E5041F42A
:1012E0008011D4F10104B4F120060ADAC4F1200619
:1012F0000200E04001FA06F3E1401843B240154312
:101300000EE0342C13DCC6F1200445EA40056D08DC
:1013100020FA06F2154321FA06F0A1400D43002100
:1013200075F1004250F1000051EB0C01F0BD0020BE
:101330005FEA0C01F0BDCFB992185B41B3FA83F7B5
:1013400004BFB2FA82F6BF190B3FB7F120062FBFD8
:1013500002FA06F3BB40C7F1200622FA06F638BFB0
:101360003343BA401CB1E419641E33E77F4231F0C5
:101370000041B1FA81F404BFB0FA80F6A4190B3C25
:10138000B4F120062FBF00FA06F1A140C4F12006F7
:1013900020FA06F638BF3143A0403C1B1AE7AC42A6
:1013A0001ABF05EA1357AF4212E050EA41061CBFCC
:1013B00052EA4306BFE750EA4107304661461CBF88
:1013C00041EA0551F0BD52EA430C08BFC143F0BDEC
:1013D00000204FF4001616EB410F98BF16EB430F99
:1013E00008BF16EB410F24BFC14305E016EB430FC6
:1013F0000CBF61464CEA0551F0BD000070B44FF0DF
:10140000004591EA030F7FF503AE6B40841A71EB40
:10141000030603D2001BB141121973414FF4001CA3
:101420001CEB410F34BF7CEB430442E00C0DA4EBFA
:101430001356352E4FDC45EAC323DB0A45EAC121AA
:10144000C912B6F120050DDD63FA05F6EB4086EA18
:101450000305124218BF45F00105C01851F1000103
:101460000CD213E062FA06F5F2405540F3415A40BF
:10147000B340F3405A408018594107D349085FEA06
:1014800030005FEA350528BF45F0010501F5801100
:10149000420875F1004250F1000041EB04514E004A
:1014A00016F5001F70BC38BF70470020090D0905F4
:1014B00070471CEB410F10D252EA43060BD0BCEB35
:1014C000410F05D80C0DAB43661E342EB6DD02E08D
:1014D000AB438018594170BC704770BC7047000026
:1014E00001F000428B1AA3F16051B1F5801F0ADBB5
:1014F000B1F17F6F1FD242EAC102C10071F1004118
:1015000042EB507070470B15C3F10903212B10D229
:10151000890241EA905180020128494141F000418D
:1015200021FA03F0C3F12003994071F100415041C9
:101530007047100070476FF0000013EB103F5CBF66
:10154000000E42EAC0507047B0B581EA030C0CF0BF
:10155000004C40F2FF7515EA11541DBF15EA1357F0
:10156000AC42AF4239E0E41923EA455343F4801317
:10157000C90241F0004141EA505EC7021100A7FBD9
:10158000020200284FF00000EEFB01204FF00001A6
:10159000E3FB072118BF42F0010240180021494136
:1015A000E3FB0E01A4F580640F0302D25200404118
:1015B000494154F101046CDD470872F1004250F1D9
:1015C000000051EB0451A1F580115CBF41EA0C0110
:1015D000B0BD4CEA05510020B0BD05EA1357AC423E
:1015E00014BFAF4241E050EA410E1CBF52EA430E25
:1015F00002E061460020B0BD24423C441BD15FEABA
:10160000070EF6D0090302BF01460020AEF1140E0A
:10161000B1FA81F7AEEB070401FA07FE0C37C7F108
:10162000200100FA07F7C8404EEA000E23EA4553AE
:1016300043F48013A2E733F00043B3FA83F704BF07
:10164000B2FA82FE77440B3FE41BB7F1200E2FBFA6
:1016500002FA0EF3BB40C7F1200E22FA0EFE38BF8D
:1016600043EA0E03BA40641C82E750EA410E14BFFD
:1016700052EA430E6FF000014FF4001717EB430FCF
:101680008ABF194617EB410FB5E74CEA0551002018
:10169000B0BDD4F10104B4F120070FDAC4F1200782
:1016A000520828BF42F0010210FA07F501FA07F7C5
:1016B000E1BF2A43E0403843E1400FE0352C98DC9D
:1016C000C7F1200452EA400220FA07F218BF42F0A4
:1016D000010231FA07F0A1400A43002172F10042F1
:1016E00050F1000051EB0C01B0BD00002DE9F84FA6
:1016F0000D464FF0000877490F22012304462E685B
:1017000003FA08F000EA0609814540F0C5804FEA77
:10171000480C032606FA0CF66FEA060E6E6806F011
:101720000307012F1CBF06F00306022E11D1A66885
:10173000EF680EEA060607FA0CF73E43A6606668F5
:1017400026EA00006E68C6F3001606FA08F6304373
:1017500060604FEA88002E7906F00306032E1FD042
:10176000E668AF680EEA060607FA0CF73E43E66045
:101770002E7906F00306022E12D14FEAD80604EBAA
:10178000860600F01C07D6F820A002FA07FB2AEA1A
:101790000B0AD5F810B00BFA07F747EA0A073762C9
:1017A00026680EEA06072E7906F0030606FA0CF6FE
:1017B0003E4326606E68F6006ED5002600964FEA1E
:1017C000980C0E68DFF810E146F480460E6000F0D9
:1017D0000C000E6806F480460096009E5EF82C70A1
:1017E00002FA00F627EA06063C4FBC4208BF002773
:1017F00022D03B4FBC4208BF01271DD0394FBC420D
:1018000008BF022718D0384FBC4208BF032713D0A7
:10181000364FBC4208BF04270ED0354FBC4208BF2C
:10182000052709D0334FBC4208BF062704D0324FEA
:10183000BC420CBF0727082707FA00F030434EF8D8
:101840002C006FEA090C2D4806680CEA060E6E683B
:10185000F70348BF49EA0E0EC0F800E046680CEAFC
:10186000060E6E68B70348BF49EA0E0EC0F804E0E2
:1018700086680CEA060E6E68F70248BF49EA0E0E4B
:10188000C0F808E0C6680CEA060E6E68B60248BFEB
:1018900049EA0E0EC0F80CE008F10108B8F10F0F8C
:1018A0007FF62DAFBDE8F18F02B909048161704761
:1018B000426901EA0203914341EA034181617047B1
:1018C0000F4A136803421CBF106000F0F6BC70475B
:1018D0000000000044380240083801400000024087
:1018E0000004024000080240000C024000100240C8
:1018F0000014024000180240001C0240003C01405D
:10190000143C014038B586B000200090274C284890
:10191000284D016841F001010160026802F00102F6
:101920000092002200990092036843F010030360C4
:10193000016801F0100100910099009202220368F1
:1019400043F002030360006800F002000090009979
:1019500001920292049201A9012205921648FFF712
:10196000C5FE0122029202210191049100220592FA
:1019700001A92046FFF7BAFE4FF400710191012240
:101980000292022104910022059201A92846FFF744
:10199000ADFE002202212046FFF786FF01224FF410
:1019A00000712846FFF780FF07B030BD00100240ED
:1019B00030380240000402400000024038B5040004
:1019C00001D1012032BD00F032F818B900F02BF837
:1019D00000F0E6FD14E001680A6A41F211131A42B0
:1019E00002BF0A6A40F244431A42FFE703D10A6881
:1019F000520852000A60012180F83D100020704713
:101A000002206870211D206800F075F80120A8727E
:101A1000A870E87028716871A871E87128726872FE
:101A20006870002032BD002129702046704704F103
:101A30003C056878704738B500F057F801D10220AE
:101A400032BD012084F83C0032B1042A15D0082AA6
:101A500025D00C2A34D044E0206800F097F82168A3
:101A6000886940F008008861886920F00400886176
:101A70008A69286902438A6133E0206800F0B2F87D
:101A80002068816941F400618161816921F480618C
:101A9000816181692A6941EA0221816121E020682E
:101AA00000F0D0F82168C86940F00800C861C86932
:101AB00020F00400C861CA6928690243CA6110E0C5
:101AC000206800F0EEF82068C16941F40061C1614E
:101AD000C16921F48061C161C1692A6941EA0221B9
:101AE000C161002084F83C0032BD04460D4694F8E4
:101AF0003C0001287047F0B57B4C05687B4B7C4E61
:101B00007C4FDFF8F4C1A04218BFB0F1804F07D07E
:101B1000604518BFB84203D0B04218BF98420DD1FB
:101B20004A6825F070051543A04218BFB0F1804FF8
:101B300017D060451CBFB842B04212D098421CBFBB
:101B40006E4A90420DD06E4EB0421CBF6D4A90421C
:101B500007D06D4EB0421FBF6C4A90426C4EB042EF
:101B600003D1CA6825F4407515434A6925F08005FC
:101B700015430560A0428D68C5620A68826212BF83
:101B800098420969016301224261F0BDF0B5026A21
:101B9000554F520852000262066A446885690B6814
:101BA0008A6825F0730526F002061D4316434F4B45
:101BB000B84218BF984207D1CA6826F008061643F3
:101BC000B84226F0040601D0984205D14B698A69D3
:101BD00024F440741C4314434460856149684163A4
:101BE0000662F0BDF0B5026A3F4E22F010020262BA
:101BF000B042056A436884690A6824F4E64444EA0A
:101C000002248A6825F0200545EA0215374A18BFE4
:101C1000904208D1CF6825F0800545EA0715B0420B
:101C200025F0400501D0904206D14E698A6923F41F
:101C30004063164343EA86034360846149688163D5
:101C40000562F0BDF0B5026A22F480720262056A94
:101C50004368C4698E680A6825F4007524F073042B
:101C600045EA06251443204E204AB04218BF904250
:101C700008D1CF6825F4006545EA0725B04225F470
:101C8000806501D0904206D14E698A6923F44053A1
:101C9000164343EA06134360C4614968C1630562A1
:101CA000F0BD70B5026A104E22F480520262B0425A
:101CB000046A4268C3690D6823F4E64343EA0523D6
:101CC0008D6824F4005444EA05341CBF074DA84233
:101CD00004D14D6922F4804242EA85124260C36118
:101CE00049680164046270BD0000014000040140C5
:101CF000000C00400008004000040040004001408B
:101D0000004401400048014000180040001C004011
:101D10000020004010B501F01F01036A01248C402F
:101D2000A343036202FA01F1036A1943016210BD81
:101D30000901020002D4294881547047284B02F05F
:101D40000F021A4402F8041C7047264B19684FF61C
:101D5000FF020002114000F4E060084322490843FA
:101D60001860704738B51F4B1C68C4F30223C3F1D9
:101D70000704052C28BF04241D1D072D34BF002394
:101D8000DB1E012505FA04F4641E2140994005FA82
:101D900003F35B1E1A401143BDE83440C8E701005D
:101DA00007D4012200F01F01104B8A40400943F87C
:101DB0002020704710B5401EB0F1807F01D3012074
:101DC00010BD0B4C60600F214FF0FF30FFF7B0FFEC
:101DD0000021A16007202060002010BD00E400E089
:101DE00018ED00E00CED00E00000FA0500E100E075
:101DF00010E000E038B586B000200090284C29485B
:101E0000294D016841F002010160026802F00202FE
:101E10000092002200990092036843F002030360DD
:101E2000016801F0020100910099009240220368CC
:101E300043F0200303600223006800F020000090BC
:101E400020460099019202930493059301A9FFF79C
:101E50004DFC01214FF48072029101920021022277
:101E60000591049201A92046FFF740FC1021019141
:101E700001220292022104910022059201A9284622
:101E8000FFF734FC00224FF480712046FFF70CFD71
:101E9000012210212846FFF707FD07B030BD0000E2
:101EA00000040240303802400014024010B586B0F1
:101EB00000200090234C2448016841F00401016097
:101EC000026802F004020092002200990092036866
:101ED00043F040030360016801F040010091009964
:101EE00000924022036843F040030360022300682D
:101EF00000F04000009000991448019202930322E0
:101F00000493059201A9FFF7F1FB202100F00FF8DF
:101F1000102100F00CF8002220212046FFF7C4FC1D
:101F2000012210212046FFF7BFFC06B010BD019131
:101F300001220292022104910022059201A9204669
:101F4000FFF7D4BB001802403038024000080240BE
:101F500010B586B000200090244C2548016841F05F
:101F600002010160026802F0020200920022009960
:101F70000092036843F020030360016801F0200130
:101F80000091009900920222036843F0200303604D
:101F9000006800F0200000900099019202920492E3
:101FA000059201A91348FFF7A1FB4FF4805100F0FF
:101FB00012F84FF4005100F00EF800224FF4805157
:101FC0002046FFF771FC01224FF400512046FFF735
:101FD0006BFC06B010BD0191012202920221049116
:101FE0000022059201A92046FFF780BB00140240A1
:101FF000303802400004024038B586B0002000901E
:10200000284C2948294D016841F0100101600268FF
:1020100002F010020092002200990092036843F03F
:1020200020030360016801F02001009100990092F3
:102030004FF40072036843F040030360022300681A
:1020400000F040000090009919480192029301228B
:102050000493059201A9FFF749FB4FF40041019158
:1020600001220292022104910022059201A9204638
:10207000FFF73CFB01210191029100220221049112
:10208000059201A92846FFF731FB00224FF40041D9
:102090002046FFF709FC012201212846FFF704FC36
:1020A00007B030BD00140240303802400018024032
:1020B0000010024010B586B000200090254C264844
:1020C000016841F001010160026802F00102009222
:1020D000002200990092036843F00803036001683E
:1020E00001F008010091009900920122036843F079
:1020F000080303600223006800F0080000900099C4
:10210000019202930493059301A91448FFF7EEFA94
:102110004FF4804100F012F84FF4004100F00EF847
:1021200000224FF480412046FFF7BEFB01224FF40E
:1021300000412046FFF7B8FB06B010BD0191012217
:102140000292022104910022059201A92046FFF784
:10215000CDBA0000000C02403038024000000240BE
:10216000C1F30A5340F2FE329B1A14DDD3F120036F
:102170004FEAE17208DDC90241EA505141F00040E6
:10218000D84080185040704703F2E13010B1D2437C
:1021900082F000407047002070470000014648B1BF
:1021A000B0FA80F18840C91CC1F58461090501EBD2
:1021B000D02140057047000080B500F093FA00F090
:1021C0002BF84FF4FA6000F0A7FA00F0B9FA00F02B
:1021D00019FC00F032FC00F040FC00F0F1FC00F0D3
:1021E00001FD00F011FD00F021FD00F040FD00F0C8
:1021F0004DFD00F0B6F900F09BF900F0B1FF00F0E2
:10220000B0FF00F0A5FE00F0ADFF00F0ABFF00F066
:10221000FBF800F014F9F8E780B592B006A8302179
:1022200001F078F901A8142101F074F90020009060
:102230004FF48033DFF8AC02016841F08051016057
:102240000021006800F0805000900098DFF89802AC
:102250000091026842F4804202600122006800F4AA
:102260008040009006A80099069202214FF4800257
:102270000C910D920421A8220E910F9202210422AA
:1022800007931091119201F049F908B100F05FF93C
:1022900002210291002203920F204FF4A0510190DD
:1022A00004914FF480520592052101A801F0CEFA65
:1022B00008B100F04CF913B000BD012800D0704700
:1022C00080B5112101F0A2FBC00704D5DFF81C1274
:1022D000012001F0CDFB1121022001F097FB8007C6
:1022E00004D5DFF80C12022001F0C2FB11210320FB
:1022F00001F08CFB400704D5DFF8F811032001F052
:10230000B7FB1121042001F081FB000706D5BDE8D1
:102310000440DFF8E411042001F0AABB01BD10B5B0
:102320000068DFF8D831DFF8D811984201F5C162B2
:102330000BD11088FD2804DA0C780B18401C1C7295
:1023400010800122DFF8BC0158E0DFF8BC31984270
:102350000DD15088FD2805DA4C780B18401C83F805
:10236000084150800122491CDFF8A00146E0DFF857
:10237000A03198420DD19088FD2805DA8C780B1891
:10238000401C83F8084290800122891CDFF850012C
:1023900034E0DFF8803198420DD1D088FD2805DA8D
:1023A000CC780B18401C83F80843D0800122C91C4C
:1023B000DFF8640122E0DFF8643198420DD1108922
:1023C000FD2805DA0C790B18401C83F808441081AD
:1023D0000122091DDFF8480110E0DFF8483198427A
:1023E00010D15089FD2805DA4C790B18401C83F870
:1023F000084550810122491DDFF82C01BDE810403D
:1024000001F0F0BB10BD704780B501F035FE01F062
:102410009FFE01F0E7FF02F051F802F07FF902F0B1
:10242000E9F902F017FB02F081FB02F0AFFC02F0C9
:1024300019FD02F047FEBDE8014002F0AFBE38B51D
:102440003A4C04F18405E86A012846D10021E9628A
:10245000642000F061F9206F2268E36E0090002193
:10246000606802EB00420120FEF788FCE06FA26882
:10247000A36F00900021E06802EB00420220FEF70B
:102480007DFC6868616922692B68009002EB01425B
:1024900000210320FEF772FC2869A269EB68009016
:1024A0000021E06902EB00420420FEF767FCE869C6
:1024B000226AAB6900900021606A02EB00420520AD
:1024C000FEF75CFCA86AA26A6B6A00900021E06AD1
:1024D00002EB00420620FEF751FC31BD0000000077
:1024E000648300204038024000700040B47800202F
:1024F000B4790020B47A0020B47B002000100140A1
:10250000A06C0020DC8200200044004020830020DA
:1025100000480040004C0040548200200050004021
:102520009882002000140140A883002010000020A1
:1025300080B5FEF7CDFAFEF713FBFEF752FBFEF770
:102540007EFBFEF7C0FBBDE80140FEF7F5BB72B6AF
:10255000FEE700000021009101912046694602F04B
:102560004DBF1CB50FF27410DFF86041D0E90023B5
:10257000CDE90023532161600022DFF8540120607F
:102580000121A260E160A2612046FFF717FA08B1BD
:10259000FFF7DDFFFFF7DEFF08B1FFF7D8FF13BD40
:1025A00080B50168454A4C48914210D10021009104
:1025B000426842F0010242600022406800F00100DF
:1025C000009000981920FFF7CDFB192068E0B1F1C9
:1025D000804F0ED100F06DF842F0010200F065F876
:1025E00000F00100009000981C20FFF7BBFB1C20AE
:1025F00056E0334A91420ED100F05BF842F00202FD
:1026000000F053F800F00200009000981D20FFF742
:10261000A9FB1D2044E02B4A91420ED100F049F85D
:1026200042F0040200F041F800F00400009000982D
:102630001E20FFF797FB1E2032E0234A91420ED165
:1026400000F037F842F0080200F02FF800F0080020
:10265000009000983220FFF785FB322020E01C4AD2
:1026600091420AD100F025F842F020020260006891
:1026700000F020000090009801BD164A914213D14D
:1026800000210091426842F002024260002240684C
:1026900000F00200009000982C20FFF763FB2C2034
:1026A000BDE80240FFF77BBB01BD0260002200686D
:1026B000704700210091026870470000000001404F
:1026C0000004004000080040000C00400C82002084
:1026D00000140040000401404038024000000000A7
:1026E0000000000080B50B48016841F400710160F2
:1026F000026842F480620260016841F48071016006
:102700000320FFF722FB002002F0BEFE02F0DCFEF9
:10271000002002BD003C024038B5044602F0F2FE43
:1027200014F1010F054602D004480178641802F044
:10273000E9FE401BA042FAD331BD00BF00000020DB
:102740002DE9F84F86B06846142100F0E3FE00241E
:102750008F48904D904EDFF844B2DFF84482DFF8A6
:102760004492DFF844A205944FF21007016841F04B
:1027700010010160026802F0100205920122059921
:102780000594036843F004030360016801F0040149
:1027900000F032F943F020030360016801F02001EA
:1027A00000F02AF943F080030360016801F0800122
:1027B00000F022F943F001030360016801F0010118
:1027C00000F01AF943F002030360016801F002010E
:1027D00000F012F943F040030360016801F040018A
:1027E00005910599059439460368704C43F0080338
:1027F0000360006800F00800059005982046FFF788
:1028000053F8012242F23F012846FFF74DF801221A
:102810004CF23B113046FFF747F800224FF4E071CD
:102820002846FFF741F801224FF460715846FFF740
:102830003BF801224FF419414046FFF735F80122D9
:102840004FF460714846FFF72FF8012203215046EC
:10285000FFF72AF84FF6DC5000F0BBF85046FEF7C1
:1028600045FF0F2000F0B5F82046FEF73FFF009728
:1028700000F0A9F820466946FEF738FF01204C49D0
:10288000009001910022029200F094F8302000F0B4
:10289000A0F800F090F8012000F09BF84846FEF701
:1028A00025FF4FF400600021009001910122029267
:1028B00069462046FEF71AFF00F09AF83F21009182
:1028C0000022039200F090F800F092F84FF480712B
:1028D0000091022200F072F84FF4725000F079F883
:1028E00000F06EF800F084F84CF23B0100910022F9
:1028F00000F064F84FF4A0710091012200F070F82C
:1029000080210091112200F06BF8012101910291C8
:102910004FF4607400210391009400F04BF800F034
:1029200067F84FF41941009100220392694640462E
:10293000FEF7DCFE4FF41C400090002101910222C2
:10294000029200F051F800F053F84FF4005100915A
:102950000322039200F048F800F035F8009469462D
:102960004846FEF7C3FE00F043F803210091002221
:10297000039269465046FEF7B9FE00220021062068
:10298000FFF7F0F90620FFF70AFA07B0BDE8F08F6D
:102990003038024000180240000C0240000802409B
:1029A00000000240000402400010024000140240F7
:1029B0000000111069465846FEF798BE039269461A
:1029C0003046FEF793BE0120002101900290039152
:1029D00070470021009001910222029269467047DF
:1029E000002102910391019269462846FEF77EBEBE
:1029F000012201920292704705910599059403689E
:102A00007047000080B56548654901604FF48272E7
:102A100018214260C16100234FF480220A218360A3
:102A2000C360036143618261036243628362C16286
:102A300002F06EFD00B10CE001BD80B559485A4965
:102A400000F017F84FF4802200F019F800B100E010
:102A500001BDBDE80140FFF77ABD80B55348544938
:102A600000F007F84FF4007200F009F800B1F0E749
:102A700001BD01604FF482724260002370470A2159
:102A80008360C360036143618261C3610362436227
:102A90008362C16202F03CBD10B586B00446684650
:102AA000142100F037FD22683D484249824220D17E
:102AB00000220592486940F480504861486900F45A
:102AC000805005900598059202220B6843F001039F
:102AD0000B60086800F001000590F0210598364869
:102AE0000091019200210291032205210491039299
:102AF0002EE02D4B31489A4213D1002205920B69EA
:102B000043F480430B6100230A6902F4804205927A
:102B1000059A05934FF4704200F01FF803930522C5
:102B200015E0234B9A4216D1002205920B6943F41B
:102B300000430B6100230A6902F400420592059AE2
:102B40000593382200F009F8032303930622049228
:102B50006946FEF7CBFD06B010BD0C6844F00204D8
:102B60000C600223096801F00201059105990092A9
:102B7000019300220292704701B582B000F007F87D
:102B80000648FFE702F022FD9DF804000EBD4FF459
:102B90007A700090012301AA02A970470C7F0020DF
:102BA00000300140647F002000380040BC7F0020DE
:102BB000003C004030380240000002400004024067
:102BC00010B5DFF82C43DFF82C0300F041F808B112
:102BD000FFF7BDFC2046BDE810400122DFF81813C6
:102BE00001F000B810B5DFF81443DFF8140300F06B
:102BF0002FF808B1FFF7ABFC2046BDE810400122DA
:102C0000DFF8001300F0EEBF10B5DFF8FC42DFF88C
:102C1000FC0200F01DF808B1FFF799FC2046BDE862
:102C200010400122DFF8E81200F0DCBF10B5DFF839
:102C3000E442DFF8E40200F00BF808B1FFF787FC8C
:102C40002046BDE810400122DFF8D01200F0CABFD4
:102C500020604FF461410C20002260616160A2603D
:102C6000E2602261A261E261204600F027BF10B558
:102C7000AB4CAC48FFF7ECFF08B1FFF768FC20460F
:102C8000BDE810400122A84900F0ACBF10B5A74C28
:102C9000A748FFF7DDFF08B1FFF759FC2046BDE864
:102CA00010400122A34900F09DBF38B586B004460C
:102CB0006846142100F02EFC23688E4C9E489F49E4
:102CC000A3424FF4406227D1002305930C6944F4DA
:102CD00000240C6100240B6903F400230593059B79
:102CE00005940D6845F004050D600B6803F00403BE
:102CF00005936946059B00920123029303930222E8
:102D0000082301920493FEF7F1FC002200213420F5
:102D1000FFF728F83420CDE0794CA3423ED10022C1
:102D200005920B6943F480130B6100230A6902F4D6
:102D3000801200F0C3F80C6844F004040C600A68C8
:102D400002F0040200F0BAF84FF480520C6844F02C
:102D500008040C600223096801F008010591059937
:102D60000092019301220292039269460822049282
:102D7000FEF7BCFC01220292039204200221009083
:102D800001910822049269466D48FEF7AFFC0022CB
:102D900000213520FEF7E6FF35208BE05B4C6948CB
:102DA000A34216D1002205924B6943F010034B61F8
:102DB00000234A6902F0100200F080F84FF4C0626C
:102DC00000F080F8002200212520FEF7CBFF25200F
:102DD00070E0514CA34215D1002205920B6943F4D7
:102DE00000330B6100230A6902F4003200F066F838
:102DF0000C2200F067F8002200212620FEF7B2FF27
:102E0000262057E04748834227D1002305930869CD
:102E100040F480200861086900F48020059005983E
:102E2000494805930C6844F002040C60096801F0FD
:102E30000201059105990092072102220192049155
:102E40000122029303926946FEF750FC0022002102
:102E50002720FEF787FF27202CE0354883422BD11F
:102E600000220592486940F020004861486900F05E
:102E7000200005900598059202220B6843F040035C
:102E80000B60086800F0400005904FF484410598FD
:102E90002E48009101920021029101220821049103
:102EA00003926946FEF722FC002200214720FEF72C
:102EB00059FF4720FEF773FF07B030BD0592059A12
:102EC000059370470C6844F001040C600223096804
:102ED00001F00101059105990092019300220292EF
:102EE00001230722039304926946FEF7FFBB00000B
:102EF00054820020004C0040A36C002098820020E7
:102F000000500040A46C0020DC8200200010014032
:102F1000A06C00202083002000440040A16C002011
:102F20006483002000480040A26C0020A883002099
:102F300000140140A56C0020000802403038024017
:102F4000000C024000000240000402400018024051
:102F5000F0B5DFF8F804DFF8F844DFF8F854DFF8EC
:102F6000F8746421A0F8281240F2E57200F20451CE
:102F70004FF4A7730A804B800121DFF8E024117021
:102F80000023DFF8DC24237013700126DFF8D4441B
:102F9000DFF8D42423701370DFF8D044DFF8D02496
:102FA00023701370DFF8CC44DFF8CC242370117049
:102FB000DFF8C8442170DFF8C814DFF8C84401F115
:102FC000C80213602B709667267044F2A015DFF8D4
:102FD000B8644B1933603B60002401F5DE73DFF801
:102FE000AC641C605C609C61DC611C625C629C6225
:102FF000DC623470146794661C665C669C66DC66F2
:103000001C675C679C64DC641C655C659C65DC65B6
:1030100001F5627201F513730026DFF87454D46071
:103020001C605C609E60DC601C615C612C7000F563
:10303000DF730124DC851E80012516609D85A0F8C4
:1030400066610023DFF84C44DFF84C64DFF84C5431
:1030500023603360DFF84844DFF84864236033605E
:10306000DFF84444DFF8446423603360DFF8404411
:10307000DFF8406423603360DFF83C44DFF83C64F1
:1030800023603360DFF83844DFF83864236033604E
:1030900013652B70DFF83064DFF8305433702B7019
:1030A000DFF82C64DFF82C5433702B70DFF82864C1
:1030B000337093650022DFF824341A70012243F63E
:1030C000A043502454430C44E250521C102AF8DB15
:1030D0000122A02353430B4403F582442260521C77
:1030E0001F2AF6DB01F20C42012313605360936048
:1030F000D360136153610022DFF8E443DFF8E45347
:10310000DFF8E43322702A70DFF8E043DFF8E053A1
:1031100022702A70DFF8DC43DFF8DC5322702A705B
:10312000DFF8D843227020F8E82F42808280C280E6
:103130000281428101F29440DFF8C41302604260D0
:1031400082600A801A80DFF8BC13DFF8BC330A8083
:103150001A80DFF8B813DFF8B8330A801A80F0BDA0
:1031600070477047F0B5DFF8E41201F58D754FF444
:103170006142E88901281EBF02280120E8812888D1
:10318000B0F5166F18BFB0F5965F0BD0B0F5165FAF
:1031900018BFB0F5964F05D0B0F5164F1CBFB0F56F
:1031A000614F2A806888B0F5166F18BFB0F5965F3A
:1031B0000BD0B0F5165F18BFB0F5964F05D0B0F53F
:1031C000164F1CBFB0F5614F6A80A888B0F5166F26
:1031D00018BFB0F5965F0BD0B0F5165F18BFB0F50D
:1031E000964F05D0B0F5164F1CBFB0F5614FAA80C1
:1031F000E88AB0F5166F18BFB0F5965F0BD0B0F542
:10320000165F18BFB0F5964F05D0B0F5164F1CBF2E
:10321000B0F5614FEA82288BB0F5166F18BFB0F594
:10322000965F0BD0B0F5165F18BFB0F5964F05D07E
:10323000B0F5164F1CBFB0F5614F2A83904A02F5D6
:1032400001700368B3F5803FA4BF002404604368A5
:10325000B3F5803FA4BF002444608368B3F5803F8A
:10326000A4BF00248460C368B3F5803FA4BF0024DA
:10327000C4600369B3F5803FA4BF002404614369BF
:10328000B3F5803F01F15403A4BF002444611888C2
:10329000062800DA08B90120188002F561708468F8
:1032A000002CD8BF012402DD102C01DB0F24846028
:1032B0000468002CD8BF012402DD1E2C01DD1E2471
:1032C0000460D2F8740400284FF4FA7403DC01207F
:1032D000C2F8740404E0B0F5FA7FC8BFC2F87444C1
:1032E000A88C08B90126AE84E88C08B90126EE84C2
:1032F000288D08B901262E85688D08B904266E85AB
:10330000A88D08B90526AE85E88D08B90626EE8594
:1033100042F210755668002E02BF10680028156032
:10332000106F08B9642616674FF47A76D06E00B92C
:10333000D666888900B98D81C88900B9CD81088A8F
:1033400000B90D82888A00B98C82D068002802BF3B
:10335000906800289560D06F08B96427D767906F90
:1033600000B99667888D00B98D85C88D00B9CD8567
:10337000088E00B90D86488E00B94C865069002829
:1033800002F1840702BF106900281561786808B946
:1033900064207860386800B93E60D88B00B9DD835E
:1033A000188C00B91D84588C00B95D84988C00B9C4
:1033B0009C84D069002802BF906900289561386913
:1033C00008B964203861F86800B9FE60988F00B9C8
:1033D0009D87D88F00B9DD8731F8940F00B90D8033
:1033E000488800B94C80506A002802BF106A002843
:1033F0001562F86908B96423FB61B86900B9BE6158
:10340000488B00B94D83888B00B98D83C88B00B978
:10341000CD83088C00B90C84D06A002802BF906A62
:1034200000289562B86A08B96422BA62786A00B95D
:103430007E62088F00B90D87488F00B94D87888F4D
:1034400000B98D87C88F00B9CC87F0BD1066002009
:103450008C84002089840020F8830020828400204E
:103460008B840020848400208884002086840020AF
:1034700087840020858400208A8400208E84002098
:103480001000002083840020F48300208D8400201D
:1034900090840020FC83002000840020928400207F
:1034A00004840020088400200C8400201084002064
:1034B00014840020188400201C8400202084002014
:1034C00024840020288400209384002094840020F9
:1034D0009584002096840020978400209184002009
:1034E0009884002099840020488400209A84002039
:1034F0009B8400209C8400209D8400209E840020CA
:103500003A840020568400206484002072840020C5
:1035100080840020002202F0F3B900002DE9F84376
:10352000040016D02078DFF81463C10713D5B06803
:1035300000F00C00042807D0B06800F00C00082848
:103540003ED1706841023BD53068810303D5606885
:10355000002800F005812078B94F810719D5B0689F
:1035600010F00C0F07D0B06800F00C0008285CD1F8
:103570007068410259D43068810703D5E06801289A
:1035800040F0EE803168206921F0F80141EAC00185
:103590003160217808076CD56069AA49002862D09B
:1035A00001220A6001F0AEFF0546706F810700F14D
:1035B000D98001F0A7FF401B0228F6D903203AE189
:1035C0006068B0F5803F04D1306840F480303060EE
:1035D00011E0B0F5A02F306806D140F480203060B3
:1035E000316841F4803105E020F48030306031688A
:1035F00021F480213160606858B101F083FF0546F5
:1036000030688103A7D401F07DFF401B6528F7D304
:10361000D4E701F077FF0546306881039BD501F0C0
:1036200071FF401B6528F7D3C8E7E06870B101213E
:10363000396001F067FF05463068810700F1BE8000
:1036400001F060FF401B0228F6D9B7E7386001F0AF
:1036500059FF0546316888079BD501F053FF401B91
:103660000228F7D9AAE7086001F04CFF0546706F01
:10367000810777D501F046FF401B0228F7D99DE767
:103680000528306F06D140F004003067306F40F0FD
:10369000010005E0400840003067306F20F0040072
:1036A000306741F28938A06868B101F02BFF81468C
:1036B000306F810700F18F8001F024FFA0EB09003B
:1036C0004045F5D37AE701F01DFF8146306F810751
:1036D00040F1818001F016FFA0EB09004045F5D3D1
:1036E0006CE701F00FFF401B022840F2878065E77E
:1036F00001F008FF001B022840F298805EE70020DE
:10370000386601F0FFFE04463068810140F1928086
:1037100001F0F8FE001B0228F6D94FE701281FD060
:103720007068E26900F48001914202BF00F03F013D
:10373000226A914201BF47F6C0710140626AB1EB53
:10374000821F0DD1A26A520800F44031521EB1EB23
:10375000024F02BF00F07060E16AB0EB016F69D008
:10376000012068E0207841073AD5306C0025C1007F
:103770000AD400950125316C41F080513164306CE0
:1037800000F0805000900098DFF8BC80D8F800006E
:10379000C1051BD4D8F8000040F48070C8F80000C0
:1037A00001F0B0FE8146D8F80000C1050ED401F04A
:1037B000A9FEA0EB09000228F5D9FFE630682169CF
:1037C00020F0F80040EAC1003060E2E6A06801287D
:1037D0007FF456AF5AE71DB1306C20F08050306452
:1037E000A06938B3B16801F00C01082996D002280D
:1037F00085D10020386601F085FE054630688101DC
:103800003FF56FAFE269206A616A0243A06A40082F
:1038100042EA8112401E42EA0042E06A42EA006245
:1038200072600121396601F06DFE04463068810145
:103830007FF55EAF0020BDE8F28300BF0038024094
:1038400000004742800E4742007000402DE9F041E1
:1038500004000F4678D0494E306800F00700B842A7
:1038600002D200F073F86FD12068454D810712D560
:10387000400703D5A96841F4E051A9602078010709
:1038800003D5A86840F46040A860A968A06821F04A
:10389000F0010143A9602178C8074DD5606801286F
:1038A00002D129688A0305E0022818BF032803D142
:1038B00029688A0103D447E029688A0744D5A968A2
:1038C000890840EA8100A86001F01CFE8046A868D3
:1038D000616800F00C00B0EB810F2DD001F012FEFA
:1038E000A0EB080041F289318842F0D3032021E0A7
:1038F0002078410705D5AA68E06822F4E052024327
:10390000AA602178080706D5A968206921F46041DA
:1039100041EAC001A96000F03FF8AA6819491A4BB2
:10392000C2F30312895CC84018601848006801F0AF
:10393000ABFD0020BDE8F081306800F00700874251
:10394000D6D200F003F8D3D00120F3E73770316806
:1039500001F00701B94270470B480D4A006813682F
:103960000C49C3F3822206E00748094A006813683D
:103970000849C3F34232895CC8407047003C0240AA
:1039800000380240E06000080C0000200800002021
:10399000083802400062000830B5144C606800F03E
:1039A0000C00042802D0082802D01DE0104830BDC9
:1039B000226820680023410202F03F0204D52568F6
:1039C0000B49C5F3881003E020680A49C0F388104A
:1039D000A1FB000101F0AEFF2168C1F30141491CC8
:1039E0004900B0FBF1F030BD024830BD0438024060
:1039F00000127A000024F400012200E000221021CD
:103A00000148FDF751BF00000000024038B50446F0
:103A10000D46FFF7F3FF05EB04153035E8B2FFF76D
:103A2000ABF80020FFF7A8F80446FFF7E5FF2046B3
:103A300032BDBDE87040DFE704460D461646DDE7BF
:103A400070B5FFF7F9FF2401B034E0B2FFF794F846
:103A5000002405E00020FFF78FF8E1B2641C6854F1
:103A6000E0B2B042F6D3E4E700000A212846CDE7F1
:103A70002DE9F041884605460821FFF7C7FF0027DA
:103A800010F0030F17D00B21FFF7F0FF0646FFF7EA
:103A9000ECFF0446FFF7E9FF310707D5A042B8BFA6
:103AA0000446002C0CBF4FF4807727463A46414627
:103AB0002846FFF7C5FF3846BDE8F08138B5040059
:103AC00001D1012032BD00F026F808B900F014F849
:103AD00000F017F800F023F8FFE7416100F001F86B
:103AE00032BD2068C16841F40051C16000206860A7
:103AF00020216970A9707047002129702046FFF7C6
:103B0000D4B8242068702068C16821F40051C160D5
:103B1000204600F04DBA04F13C05687870472068F3
:103B2000016921F4904101612068416921F02A0175
:103B300070472DE9F843054605F13C060C467078C0
:103B400020281746994642D10CB1380001D10120F6
:103B50003EE0307801283AD00121317000207060B9
:103B60002122727001F0CEFCAF848046EF84A868F9
:103B7000B0F5805F04BF286900280EBF27462046A5
:103B800000270021317004460EE014F8012B42603A
:103B900007E02868002CF8D137F8021BC1F30801B0
:103BA0004160E88C411EE9844346E88CCDF80090E2
:103BB00000280FD000228021284600F042F900287A
:103BC000E7D0032004E020207070002000E00220F5
:103BD000BDE8F28300224021284600F032F9002897
:103BE000F1D0EEE738B500F130039C7B202C0FD1EB
:103BF00009B1140001D1012032BD1C7B012C07D07A
:103C000001241C7300251D60BDE8384000F04BB94D
:103C1000022032BD0020206310BDC16020684169D0
:103C20004908490041617047416921F04001416103
:103C3000A06B70477CB5044622681168D56853694B
:103C400011F00F0007D188065FD5AB065DD5204681
:103C5000BDE8764060E1D80702D415F4907F54D0D7
:103C6000C80705D5EA0503D5206C40F001002064A3
:103C7000480705D5DA0703D5206C40F00200206420
:103C8000880705D5DA0703D5206C40F004002064CE
:103C9000080707D5AA0601D4D80703D5226C42F03D
:103CA00008022264206C00282ED0880604D5A906BC
:103CB00044BF204600F030F920684069216C0A07B3
:103CC00001D440061BD5204600F008F92068416960
:103CD0004A060FD5FFF7A8FF60B10FF23121016549
:103CE000A06B01F0EFFE00280ED0A06B016DBDE8C7
:103CF0007C4008472046BDE8764001F0FABE2046E9
:103D000001F0F7FE0020206473BD206B012804F150
:103D10003D0354D1C80652D5EE0650D5002100917E
:103D2000156800955168009100985169480625D59D
:103D3000A16B0868406880B200287BD0A58DA8429E
:103D400078DAE085C869B0F5807F13D0D06820F4B8
:103D50008070D060FFF762FF2068416921F0400168
:103D60004161202058700021216300F064F8A06BAD
:103D700001F064FEA18DE08D091A1AE0A08DE18D9D
:103D8000411AE08D00281CBF88B2002852D0D068AC
:103D900020F49070D060206842695208520042615D
:103DA00020205870002222632068C26822F010028E
:103DB000C2602046BDE87C4089B201F09BBE080687
:103DC00029D52E0627D51878212833D1A068B0F53B
:103DD000805F04BF2069002808D1206A0188C1F3F0
:103DE00008015160206A811C216204E0206A411CA4
:103DF000216200785060E08C401EE08480B2C8B937
:103E00002068C16821F08001C1602068C16841F06C
:103E10004001C16073BD48060CD569060AD5D0685B
:103E200020F04000D060202119702046BDE8764087
:103E3000FEF7E9BA73BD2068C16821F01001C160C6
:103E400070472DE9F041069C05460E4690461F46F8
:103E5000286801683140B1420CBF01200020404574
:103E600017D114F1010FF3D024B101F04BFBC01BAB
:103E70008442EDD22868C16821F4D07100F00CF8BA
:103E800005F13C0020214170817000210170032068
:103E900000E00020BDE8F081C16028684169490860
:103EA00049004161704781628285C28500F13C0111
:103EB00000224A6022238B700A700168CB6843F4A9
:103EC0008073CB6001684A6942F001024A61006870
:103ED000C16841F02001C160002070470168CA68D4
:103EE00022F49072CA6001684A69520852004A611D
:103EF000016B012904D10168CA6822F01002CA606E
:103F0000202180F83E10002202637047806B002160
:103F1000C185C18401F0EDBD10B5044694F83E00A2
:103F2000222843D1A068A16AB0F5805F0AD1206938
:103F300068B922685068C0F308000880A16A881C2C
:103F4000A0620FE0002804BF2069002802D1226887
:103F5000506803E02068406800F07F000870A06AA5
:103F6000411CA162E08D401EE08580B2E0B920686E
:103F7000C16821F02001C1602068C16821F480710E
:103F8000FFF74BFE202084F83E00216B012906D16B
:103F9000FFF751FF2046A18D01F0ACFD02E0204665
:103FA000FEF7BDF9FFF736BE002010BD022010BDA0
:103FB00070B5044622681169E06821F4405101435C
:103FC0001161D3682648A168034020690B436169E9
:103FD0000343E0690B430343D3605169A06921F4B3
:103FE0004071014351611F498A421CBF1E488242F1
:103FF00002D1FFF7B9FC01E0FFF7AEFC626825686B
:10400000E46964261921B4F5004FA1FB000112D127
:10401000D30F520001F08EFC00F028F8F600323683
:104020006420B6FBF0F0420002F4F87202EB0112D9
:1040300000F0070010E0930F920001F07BFC00F00D
:1040400015F8360132366420B6FBF0F000F0F002CD
:1040500002EB011200F00F008018A86070BD000094
:10406000F369FFFF00100140001401406421B0FB20
:10407000F1F106FB110670472DE9F041C14D28888A
:104080000024002862D0C049C04A097813888B42B6
:104090005CD01180BE490A88521C0A8092B2062A5E
:1040A00054DBBC4ABC4E10800746B7F5807F0C80BD
:1040B00035DABA4A3178B2F83E31994230D1811EB0
:1040C000C9B2304600F046F9F119020A11F8023D72
:1040D0009A4202BF4978C0B288421ED17178B04876
:1040E000032902D10121AF4A0EE0102902D101219A
:1040F000AD4A09E0012903D1AC49012008700FE065
:10410000062908D10121AA4A1170B378F17801EB90
:104110000321018004E0012402E0022400E00424E1
:10412000A44FDFF89482012241463846FFF75AFD3A
:104130000020288054B11421304601F0DDFC4146B6
:104140003846BDE8F0410122FFF74CBDBDE8F081E3
:104150002DE9FC4E9249994A0B88DFF83CC2914DFB
:10416000DFF838929CF805E09CF801702978DFF8B8
:1041700050A21E4602EB8604019409EB4602002081
:10418000009241F2883B8F4CA9B39CF8000020704C
:1041900067704FEA4E00A070B6F5006FB9F82801BD
:1041A00010DA012812D10020E31C704513DA0099BF
:1041B00031F810100A0A03F81020221D02F810101E
:1041C000401CF2E75E45C0F2A180012840F09E80CD
:1041D0000020E61C704580F29980019901EB800275
:1041E00052F80A100B041B0E06F81030221D02F8BC
:1041F0001010401CEEE76E496B4A0978127851EABC
:1042000002054CD041F27175AE4204DBB9F8125090
:10421000B5F5FA6F14D10120A3F12D05072D04D2B5
:10422000694D2D3B2B80694D2870002940D09CF8AA
:104230000410B6F5006F0EEB012232DA29F81620D1
:104240000221217067709CF80220A2709CF8031074
:10425000E1709CF80420227184F805E010B9FF2079
:10426000207160710621204600F074F8584A010A56
:10427000108002B0A171E071082056494A4B0880B5
:1042800000224B494B481A700A702146524B1A8043
:104290004FF6FF73BDE8F04E0822FFF74ABCBDE8B9
:1042A000F38E5E45CCDB4549514441F82620C7E7F3
:1042B000002AC5D0BEF1640FC2DAB6F5006F10DA7D
:1042C0007145BDDA0CF1070212F811300CF1080249
:1042D00012F81150009A05EB032322F81130491C03
:1042E000EEE75E45ACDB7145AADA0CF1070212F885
:1042F00011300CF1080212F81150019A02EB8106FC
:1043000005EB032346F80A30491CECE7A178C91CE9
:10431000C9B2204600F01EF82D490880E31CA178A0
:10432000020A5A54221DA378D0540021A2782948A9
:10433000521D028029704FF6FF73274D1D482980BA
:1043400092B22146FFF7F5FBBDE8FC4E2021234841
:10435000FDF7AEBA70B50246214CFF23FF2004F5ED
:10436000807606E012F8015B5D400346605D4340E5
:10437000705D0D46691EEDB2002DF3D140EA0320B9
:1043800070BD0000A8720020EC830020388400205B
:104390003A84002030840020A86C002010660020A1
:1043A000368400209F840020A0840020A184002067
:1043B000A2840020DC820020A06C002010000020DD
:1043C000E0B1FFFFB47200202C8400208F84002015
:1043D00034840020328400202E840020000C02400F
:1043E000AC5D00082DE9F041B54D28880024002877
:1043F00062D0B449B44A097813888B425CD01180EA
:10440000B2490A88521C0A8092B2062A54DBB04F85
:10441000B04E3880B0F5807F0C8036DAAE49327805
:10442000B1F840319A4231D1811EC9B23046FFF70E
:1044300091FF3A883244911E030A0F78BB4202BFB3
:104440004978C0B288421ED17178A448032902D1AC
:104450000121A34A0EE0102902D10121A14A09E05D
:10446000012903D1A049012008700FE0062908D1D5
:1044700001219E4A1170B378F17801EB032101808C
:1044800004E0012402E0022400E00424984FDFF855
:104490006482012241463846FFF7A4FB00202880B1
:1044A00054B11421304601F027FB41463846BDE89F
:1044B000F0410122FFF796BBBDE8F0812DE9FC4EEB
:1044C00086498D4A0B88DFF80CC2854DDFF80892CB
:1044D0009CF805E09CF801702978DFF820A21E46C0
:1044E00002EB8604019409EB46020020009241F29F
:1044F000883B834CA9B39CF80000207067704FEA9A
:104500004E00A070B6F5006FB9F8280110DA012846
:1045100012D10020E31C704513DA009931F8101015
:104520000A0A03F81020221D02F81010401CF2E7BE
:104530005E45C0F2A180012840F09E800020E61C6C
:10454000704580F29980019901EB800252F80A10BF
:104550000B041B0E06F81030221D02F81010401C30
:10456000EEE762495F4A0978127851EA02054CD0B9
:1045700041F27175AE4204DBB9F81250B5F5FA6F2D
:1045800014D10120A3F12D05072D04D25D4D2D3B43
:104590002B805D4D2870002940D09CF80410B6F5A2
:1045A000006F0EEB012232DA29F816200221217069
:1045B00067709CF80220A2709CF80310E1709CF8D0
:1045C0000420227184F805E010B9FF202071607189
:1045D00006212046FFF7BEFE4C4A010A108002B0B9
:1045E000A171E07108204A493E4B088000223F49F2
:1045F0003F481A700A702146464B1A804FF6FF73E7
:10460000BDE8F04E0822FFF794BABDE8F38E5E4590
:10461000CCDB3949514441F82620C7E7002AC5D0F0
:10462000BEF1640FC2DAB6F5006F10DA7145BDDA7B
:104630000CF1070212F811300CF1080212F81150B7
:10464000009A05EB032322F81130491CEEE75E4582
:10465000ACDB7145AADA0CF1070212F811300CF14B
:10466000080212F81150019A02EB810605EB0323B0
:1046700046F80A30491CECE7A178C91CC9B22046AB
:10468000FFF768FE21490880E31CA178020A5A540A
:10469000221DA378D0540021A2781D48521D02800B
:1046A00029704FF6FF731B4D1148298092B22146A5
:1046B000FFF73FFABDE8FC4E10211748FDF7F8B8A8
:1046C000AA720020EC830020468400204884002049
:1046D0003E840020A86D0020106600204484002045
:1046E000A3840020A4840020A5840020A6840020A8
:1046F00020830020A16C002010000020E0B1FFFF0B
:10470000B47300202C8400208F8400204284002079
:10471000408400203C840020000C02402DE9F04140
:10472000B54D28880024002862D0B449B44A0978DD
:1047300013888B425CD01180B2490A88521C0A80CF
:1047400092B2062A54DBB04FB04E3880B0F5807F6D
:104750000C8036DAAE493278B1F842319A4231D122
:10476000811EC9B23046FFF7F5FD3A883244911EEA
:10477000030A0F78BB4202BF4978C0B288421ED1FB
:104780007178A448032902D10121A34A0EE010291F
:1047900002D10121A14A09E0012903D1A049012048
:1047A00008700FE0062908D101219E4A1170B378E4
:1047B000F17801EB0321018004E0012402E00224EE
:1047C00000E00424984FDFF8648201224146384615
:1047D000FFF708FA0020288054B11421304601F078
:1047E0008BF941463846BDE8F0410122FFF7FAB99E
:1047F000BDE8F0812DE9FC4E86498D4A0B88DFF833
:104800000CC2854DDFF808929CF805E09CF8017019
:104810002978DFF820A21E4602EB8604019409EBFA
:1048200046020020009241F2883B834CA9B39CF8D9
:104830000000207067704FEA4E00A070B6F5006F60
:10484000B9F8280110DA012812D10020E31C7045C4
:1048500013DA009931F810100A0A03F81020221D0B
:1048600002F81010401CF2E75E45C0F2A18001285A
:1048700040F09E800020E61C704580F299800199EE
:1048800001EB800252F80A100B041B0E06F81030E0
:10489000221D02F81010401CEEE762495F4A0978B9
:1048A000127851EA02054CD041F27175AE4204DB38
:1048B000B9F81250B5F5FA6F14D10120A3F12D0506
:1048C000072D04D25D4D2D3B2B805D4D28700029B6
:1048D00040D09CF80410B6F5006F0EEB012232DADE
:1048E00029F816200221217067709CF80220A2701E
:1048F0009CF80310E1709CF80420227184F805E014
:1049000010B9FF202071607106212046FFF722FDBB
:104910004C4A010A108002B0A171E07108204A4996
:104920003E4B088000223F493F481A700A702146DA
:10493000464B1A804FF6FF73BDE8F04E0822FFF792
:10494000F8B8BDE8F38E5E45CCDB3949514441F8F7
:104950002620C7E7002AC5D0BEF1640FC2DAB6F53B
:10496000006F10DA7145BDDA0CF1070212F8113050
:104970000CF1080212F81150009A05EB032322F8FB
:104980001130491CEEE75E45ACDB7145AADA0CF14B
:10499000070212F811300CF1080212F81150019AB6
:1049A00002EB810605EB032346F80A30491CECE7CD
:1049B000A178C91CC9B22046FFF7CCFC2149088068
:1049C000E31CA178020A5A54221DA378D054002176
:1049D000A2781D48521D028029704FF6FF731B4DAF
:1049E0001148298092B22146FFF7A3F8BDE8FC4E9A
:1049F00008211748FCF75CBFAC720020EC83002054
:104A000054840020568400204C840020A86E00208E
:104A10001066002052840020A7840020A884002073
:104A2000A9840020AA84002064830020A26C0020B6
:104A300010000020E0B1FFFFB47400202C8400209F
:104A40008F840020508400204E8400204A8400205F
:104A5000000C02402DE9F041B54D288800240028C3
:104A600062D0B449B44A097813888B425CD0118073
:104A7000B2490A88521C0A8092B2062A54DBB04F0F
:104A8000B04E3880B0F5807F0C8036DAAE4932788F
:104A9000B1F844319A4231D1811EC9B23046FFF794
:104AA00059FC3A883244911E030A0F78BB4202BF78
:104AB0004978C0B288421ED17178A448032902D136
:104AC0000121A34A0EE0102902D10121A14A09E0E7
:104AD000012903D1A049012008700FE0062908D15F
:104AE00001219E4A1170B378F17801EB0321018016
:104AF00004E0012402E0022400E00424984FDFF8DF
:104B00006482012241463846FFF76CF80020288075
:104B100054B11421304600F0EFFF41463846BDE85D
:104B2000F0410122FFF75EB8BDE8F0812DE9FC4EAF
:104B300086498D4A0B88DFF80CC2854DDFF8089254
:104B40009CF805E09CF801702978DFF820A21E4649
:104B500002EB8604019409EB46020020009241F228
:104B6000883B834CA9B39CF80000207067704FEA23
:104B70004E00A070B6F5006FB9F8280110DA0128D0
:104B800012D10020E31C704513DA009931F810109F
:104B90000A0A03F81020221D02F81010401CF2E748
:104BA0005E45C0F2A180012840F09E800020E61CF6
:104BB000704580F29980019901EB800252F80A1049
:104BC0000B041B0E06F81030221D02F81010401CBA
:104BD000EEE762495F4A0978127851EA02054CD043
:104BE00041F27175AE4204DBB9F81250B5F5FA6FB7
:104BF00014D10120A3F12D05072D04D25D4D2D3BCD
:104C00002B805D4D2870002940D09CF80410B6F52B
:104C1000006F0EEB012232DA29F8162002212170F2
:104C200067709CF80220A2709CF80310E1709CF859
:104C30000420227184F805E010B9FF202071607112
:104C400006212046FFF786FB4C4A010A108002B07D
:104C5000A171E07108204A493E4B088000223F497B
:104C60003F481A700A702146464B1A804FF6FF7370
:104C7000BDE8F04E0822FEF75CBFBDE8F38E5E454E
:104C8000CCDB3949514441F82620C7E7002AC5D07A
:104C9000BEF1640FC2DAB6F5006F10DA7145BDDA05
:104CA0000CF1070212F811300CF1080212F8115041
:104CB000009A05EB032322F81130491CEEE75E450C
:104CC000ACDB7145AADA0CF1070212F811300CF1D5
:104CD000080212F81150019A02EB810605EB03233A
:104CE00046F80A30491CECE7A178C91CC9B2204635
:104CF000FFF730FB21490880E31CA178020A5A54CF
:104D0000221DA378D0540021A2781D48521D028094
:104D100029704FF6FF731B4D1148298092B221462E
:104D2000FEF707FFBDE8FC4E08211748FCF7C0BDA1
:104D3000AE720020EC830020628400206484002096
:104D40005A840020A86F0020106600206084002094
:104D5000AB840020AC840020AD840020AE84002011
:104D600054820020A36C002010000020E0B1FFFF5F
:104D7000B47500202C8400208F8400205E840020E5
:104D80005C84002058840020000C02402DE9F04192
:104D9000B54D28880024002862D0B449B44A097867
:104DA00013888B425CD01180B2490A88521C0A8059
:104DB00092B2062A54DBB04FB04E3880B0F5807FF7
:104DC0000C8036DAAE493278B1F846319A4231D1A8
:104DD000811EC9B23046FFF7BDFA3A883244911EAF
:104DE000030A0F78BB4202BF4978C0B288421ED185
:104DF0007178A448032902D10121A34A0EE01029A9
:104E000002D10121A14A09E0012903D1A0490120D1
:104E100008700FE0062908D101219E4A1170B3786D
:104E2000F17801EB0321018004E0012402E0022477
:104E300000E00424984FDFF864820122414638469E
:104E4000FEF7D0FE0020288054B11421304600F037
:104E500053FE41463846BDE8F0410122FEF7C2BE8E
:104E6000BDE8F0812DE9FC4E86498D4A0B88DFF8BC
:104E70000CC2854DDFF808929CF805E09CF80170A3
:104E80002978DFF820A21E4602EB8604019409EB84
:104E900046020020009241F2883B834CA9B39CF863
:104EA0000000207067704FEA4E00A070B6F5006FEA
:104EB000B9F8280110DA012812D10020E31C70454E
:104EC00013DA009931F810100A0A03F81020221D95
:104ED00002F81010401CF2E75E45C0F2A1800128E4
:104EE00040F09E800020E61C704580F29980019978
:104EF00001EB800252F80A100B041B0E06F810306A
:104F0000221D02F81010401CEEE762495F4A097842
:104F1000127851EA02054CD041F27175AE4204DBC1
:104F2000B9F81250B5F5FA6F14D10120A3F12D058F
:104F3000072D04D25D4D2D3B2B805D4D287000293F
:104F400040D09CF80410B6F5006F0EEB012232DA67
:104F500029F816200221217067709CF80220A270A7
:104F60009CF80310E1709CF80420227184F805E09D
:104F700010B9FF202071607106212046FFF7EAF981
:104F80004C4A010A108002B0A171E07108204A4920
:104F90003E4B088000223F493F481A700A70214664
:104FA000464B1A804FF6FF73BDE8F04E0822FEF71D
:104FB000C0BDBDE8F38E5E45CCDB3949514441F8B4
:104FC0002620C7E7002AC5D0BEF1640FC2DAB6F5C5
:104FD000006F10DA7145BDDA0CF1070212F81130DA
:104FE0000CF1080212F81150009A05EB032322F885
:104FF0001130491CEEE75E45ACDB7145AADA0CF1D5
:10500000070212F811300CF1080212F81150019A3F
:1050100002EB810605EB032346F80A30491CECE756
:10502000A178C91CC9B22046FFF794F9214908802C
:10503000E31CA178020A5A54221DA378D0540021FF
:10504000A2781D48521D028029704FF6FF731B4D38
:105050001148298092B22146FEF76BFDBDE8FC4E57
:1050600002211748FCF724BCB0720020EC8300201A
:10507000708400207284002068840020A8700020C2
:10508000106600206E840020AF840020B0840020D1
:10509000B1840020B284002098820020A46C0020FB
:1050A00010000020E0B1FFFFB47600202C84002027
:1050B0008F8400206C8400206A8400206684002095
:1050C000000C02402DE9F041B54D2888002400284D
:1050D00062D0B449B44A097813888B425CD01180FD
:1050E000B2490A88521C0A8092B2062A54DBB04F99
:1050F000B04E3880B0F5807F0C8036DAAE49327819
:10510000B1F848319A4231D1811EC9B23046FFF719
:1051100021F93A883244911E030A0F78BB4202BF3C
:105120004978C0B288421ED17178A448032902D1BF
:105130000121A34A0EE0102902D10121A14A09E070
:10514000012903D1A049012008700FE0062908D1E8
:1051500001219E4A1170B378F17801EB032101809F
:1051600004E0012402E0022400E00424984FDFF868
:105170006482012241463846FEF734FD0020288033
:1051800054B11421304600F0B7FC41463846BDE822
:10519000F0410122FEF726BDBDE8F0812DE9FC4E6D
:1051A00086498D4A0B88DFF80CC2854DDFF80892DE
:1051B0009CF805E09CF801702978DFF820A21E46D3
:1051C00002EB8604019409EB46020020009241F2B2
:1051D000883B834CA9B39CF80000207067704FEAAD
:1051E0004E00A070B6F5006FB9F8280110DA01285A
:1051F00012D10020E31C704513DA009931F8101029
:105200000A0A03F81020221D02F81010401CF2E7D1
:105210005E45C0F2A180012840F09E800020E61C7F
:10522000704580F29980019901EB800252F80A10D2
:105230000B041B0E06F81030221D02F81010401C43
:10524000EEE762495F4A0978127851EA02054CD0CC
:1052500041F27175AE4204DBB9F81250B5F5FA6F40
:1052600014D10120A3F12D05072D04D25D4D2D3B56
:105270002B805D4D2870002940D09CF80410B6F5B5
:10528000006F0EEB012232DA29F81620022121707C
:1052900067709CF80220A2709CF80310E1709CF8E3
:1052A0000420227184F805E010B9FF20207160719C
:1052B00006212046FFF74EF84C4A010A108002B042
:1052C000A171E07108204A493E4B088000223F4905
:1052D0003F481A700A702146464B1A804FF6FF73FA
:1052E000BDE8F04E0822FEF724BCBDE8F38E5E4513
:1052F000CCDB3949514441F82620C7E7002AC5D004
:10530000BEF1640FC2DAB6F5006F10DA7145BDDA8E
:105310000CF1070212F811300CF1080212F81150CA
:10532000009A05EB032322F81130491CEEE75E4595
:10533000ACDB7145AADA0CF1070212F811300CF15E
:10534000080212F81150019A02EB810605EB0323C3
:1053500046F80A30491CECE7A178C91CC9B22046BE
:10536000FEF7F8FF21490880E31CA178020A5A548D
:10537000221DA378D0540021A2781D48521D02801E
:1053800029704FF6FF731B4D1148298092B22146B8
:10539000FEF7CFFBBDE8FC4E01211748FCF788BAA9
:1053A000B2720020EC8300207E84002080840020E4
:1053B00076840020A8710020106600207C840020E4
:1053C000B3840020B4840020B5840020B68400207B
:1053D000A8830020A56C002010000020E0B1FFFF92
:1053E000B47700202C8400208F8400207A84002051
:1053F0007884002074840020000C024070B500F115
:105400003C031A78012A01D1022070BD01221A70D2
:1054100002245C7005686E68AC680A6826F0700645
:1054200016436E6002681148824218BFB2F1804F85
:1054300011D0114882421CBF104DAA420BD00D481A
:1054400082421CBF0E4DAA4205D0094882421CBFB1
:105450000C4DAA4204D1486824F0800404439460AF
:10546000012159700020187070BD0000000001403B
:1054700000400140000C00400004004000080040D3
:10548000000401400018004038B50D4D0D4B2A783E
:1054900004464FF47A711868B1FBF2F2B0FBF2F0F7
:1054A000FCF788FC50B9102C08D2002221464FF09E
:1054B000FF30FCF757FCAC60002032BD012032BD4C
:1054C000000000200C00002082B00020009000228C
:1054D0000B48416841F480414160416801F48041DA
:1054E000009100990092036843F0805303600068C4
:1054F00000F0805000900098052002B0FCF725BC19
:105500004038024001484068704700BF000000205A
:1055100038B5040001D1012032BD606A28B900F01D
:1055200051F805D00021E16102E0002020616061B6
:105530000020A06204F15005687820B9002129708C
:105540002046FDF7A9FA0220687000F041F9606872
:10555000A168E26800F4827001F404410843217CF0
:1055600002F400621043227D01F002010843A169A8
:1055700002F001021043227F01F40071084394F805
:10558000201002F038021043A26A01F080010843A3
:10559000216802F4005210430860A06994F82410B6
:1055A0002268000C00F0040001F010010843506074
:1055B0002068C16921F40061C16100206860012197
:1055C000697032BD6068B0F5827F70472DE9FC4795
:1055D00000F0DDF84FF0010808BF022000F0BC80A9
:1055E0009A4687F80080FFF78DFF7B78012B09D062
:1055F0006968B1F5827F02BFA9680029042B01D038
:105600000226A4E0002C1CBFB9F1000FBAF1000F74
:1056100001D101269BE07B78042B1CBF052179700A
:105620007E60C5F83890A5F83EA0A5F83CA02C6394
:10563000A5F836A0A5F834A02E646E6429680C681D
:10564000630603D40C6844F040040C60E9680A9CCB
:10565000B1F5006F696838D1002918BFBAF1010FA0
:1056600000F0AAF88146E88E002804BFE88F0028E1
:1056700074D02968886882070BD5E88E002818BF87
:10568000B8F1000F05D0286B0288CA60B04600F060
:1056900070F829688868C2070CD5E88F50B1C868CF
:1056A000A96B08804FF00108A86B821CAA63E88FE1
:1056B000411EE987FFF726FFA0EB0900A042D2D3E5
:1056C00014F1010FCFD0032641E0002918BFBAF131
:1056D000010F00F065F88146E88E002804BFE88FCE
:1056E00000283BD02968886882070DD5E88E0028FD
:1056F00018BFB8F1000F07D0286B02780A73B046C4
:10570000286B411C00F037F829688868C2070CD55F
:10571000E88F50B1C868A96B08704FF00108A86BFA
:10572000421CAA63E88F411EE987FFF7EBFEA0EB5E
:105730000900A04203D314F1010FCDD0C3E7002C20
:10574000CAD1C0E7A86810B900F01AF80098012182
:105750007970002038703046BDE8F68721464A4609
:10576000284600F09BF80028ECD020210126796023
:10577000EDE7286B811C2963E88E411EE98670479E
:1057800000962968CA6800928968009170470546AA
:1057900005F150070026387801280C4691467047DD
:1057A00009D1296B2B680A781A73296B4A1C2A6362
:1057B000E98E4A1EEA86704709D1296B2B680A8850
:1057C000DA60296B8A1C2A63E98E4A1EEA867047D2
:1057D0002068016821F04001016070472DE9F8431D
:1057E000089C05460E4690461F46FFF78BFE381A6A
:1057F0002418FFF787FE81463F4801684901090DDB
:105800006143009105E0009800B900240098401E13
:105810000090286881683140B1420CBF012000200F
:10582000404532D017F1010FF3D0FFF76BFEA0EB2C
:105830000900A04201D2002CE5D12868416821F07E
:10584000E00141606868B0F5827F08D1A868B0F5D2
:10585000004F18BFB0F5806F01D100F019F8A86AA9
:10586000B0F5005F09D12868016821F4005101609A
:105870002868026842F40052026005F150000121DC
:10588000417000220270032000E00020BDE8F28396
:105890002868016821F04001016070477CB504462A
:1058A0001548164E0B4601681825B1FBF5F5B5FBFA
:1058B000F6F64FF47A70464300966168B1F5827F40
:1058C00009D10092802100222046FFF787FF58B1BE
:1058D00000F00CF876BD009830B10098401E0090A2
:1058E000216888680106F6D4002076BD606D40F01E
:1058F00020006065032070470C00002040420F002C
:1059000000B500BF130096469446103928BFA0E8A2
:105910000C50FAD85FEA417C28BF0CC048BF40F861
:10592000042BC90728BF20F8022B48BF00F8012B21
:1059300000BD0000D3BBD9B1B2F5803F5BD2022AD3
:105940001ED98C46B1FBF2F102FB11C31B0443EAE2
:105950001043B3FBF2FC02FB1C3380B240EA03436A
:10596000B3FBF2F002FB103240EA0C400023704718
:10597000022A05D98446B0FBF2F002FB10C2704740
:105980004AB105D100F0010249085FEA30007047D2
:1059900000220023704700F0B3B80B000200002182
:1059A00000207047F7D3002200237047904271EB2C
:1059B000030CF2D370B5B1FA81F4B3FA83F52C1B62
:1059C000A340C4F1200532FA05F63343A2405FF04C
:1059D0000046E64002E05B085FEA3202841A71EB9F
:1059E000030524BF204629467641F4D302000B006C
:1059F0003000002170BD70B5B1FA81F4B2FA82F5C1
:105A0000C4F120046419B4F12006DAD3B2405FF087
:105A10000044F440002502E052085FEA3303C61A4E
:105A200071EB020E24BF3046714664416D41F3D3E1
:105A300002000B002000290070BD0000F8B50646EA
:105A400006F13404656AFFF75DFD074660780228B9
:105A500005D080212162002020700120F2BD306835
:105A6000016821F0160101603068416921F0800170
:105A70004161E068002804BF6069002802D03068F6
:105A800000F032F830680168490849000160306868
:105A90000168CA070CD5FFF735FDC01B0628F6D3F1
:105AA0002020206200212170032262700320F2BDB9
:105AB000A06A3F218140A96001220021217062700B
:105AC0000020F2BD90F83510022903D080224265F3
:105AD00001207047052180F83510006802685208DF
